:020000040000FA
:06000000C3EF3CF012000A
:0600080061EF0FF0120091
:06002A000700147A00003B
:100030005902000004000000F2790000AD01000048
:1000400022000000EE7900005502000004000000CC
:10005000EC7900005D0F000002000000BA7900009A
:100060000001000032000000B8790000FE0100002D
:1000700002000000B4790000F00700000400000056
:100080000C01006B060E005D5EE20051280DF3CFFF
:1000900001FCF4CF02FC000E0127070E022301CC65
:1000A000E9FF02CCEAFF0A0EEF6E01CCE9FF02CCB9
:1000B000EAFF270EE926000EEA22EF9001CCE9FFC5
:1000C00002CCEAFF270EE926000EEA22EF8201CCDD
:1000D000E9FF02CCEAFF270EE926000EEA22EF84B0
:1000E00001CCE9FF02CCEAFF270EE926000EEA2246
:1000F000EF9801CCE9FF02CCEAFF270EE926000EBB
:10010000EA22EF9601CCE9FF02CCEAFF0F0EE926C6
:10011000000EEA22EF6801CCE9FF02CCEAFF230ED1
:10012000E926000EEA222C0EEE6E010EEE6EEE6A4D
:10013000EE6A01CCE9FF02CCEAFF100EEB6A110E69
:10014000EB6A002B9FD712000C01006B060E005DBE
:100150005DE20051280DF3CF01FCF4CF02FC000E4C
:100160000127070E022301CCE9FF02CCEAFFEF5082
:100170000A084AE101CCE9FF02CCEAFFEF6A01CCB0
:10018000E9FF02CCEAFF0B0EA4C0EBFF0C0EA5C0EA
:10019000EBFF01CCE9FF02CCEAFF0D0EEB6A0E0E7D
:1001A000EB6A01CCE9FF02CCEAFFEE52060EE9262B
:1001B000000EEA22EE6AEE6AEE6AEE6A01CCE9FF10
:1001C00002CCEAFF270EE926000EEA22EF8001CCDE
:1001D000E9FF02CCEAFF270EE926000EEA22EF969D
:1001E00001CCE9FF02CCEAFF0F0EE926000EEA225D
:1001F000EF6801CCE9FF02CCEAFF270EE926000EEA
:10020000EA22EF8200511200002BA0D7FE0C0C0155
:100210000A6B076B060E075D16E20751280DF3CF38
:1002200008FCF4CF09FC000E0827070E092308CCB0
:10023000E9FF09CCEAFFEF500A0803E1010E0A6F5B
:1002400002D0072BE7D70A5101E1FE0C0101FE2B7A
:10025000000EFF2308CCE9FF09CCEAFF0B0EFEC11C
:10026000EBFF0C0EFFC1EBFF880EFE5D130EFF5976
:1002700003E3FE69030EFF6F08CCE9FF09CCEAFF38
:10028000270EE926000EEA22EF9008CCE9FF09CC00
:10029000EAFF0D0EA8C0EBFF0E0EA9C0EBFF08CCC5
:1002A000E9FF09CCEAFF160EE926000EEA22EE2A43
:1002B000EE22EE22EE2208CCE9FF09CCEAFF1A0E6C
:1002C000E926000EEA22EE6AEE6AEE6AEE6A0A0E8D
:1002D000E66EE66AA6C0E6FFA7C0E6FF08CCE9FF27
:1002E00009CCEAFFEE52E9CF00F0EACF01F0E9CF06
:1002F000E6FFEACFE6FF10EC30F0026E060EE15E9C
:100300000001D06BD16B0001CF690001020ECE6FEE
:1003100008CCE9FF09CCEAFF1A0EE926000EEA2212
:10032000EECFCAF0EECFCBF0EECFCCF0EFCFCDF0EA
:1003300008CCE9FF09CCEAFF160EE926000EEA22F6
:10034000EECFC6F0EECFC7F0EECFC8F0EFCFC9F0DA
:1003500008CCE9FF09CCEAFF0D0EE926000EEA22DF
:10036000EECFC4F0EDCFC5F008CCE9FF09CCEAFF31
:100370000B0EE926000EEA22EECFC2F0EDCFC3F05D
:1003800008CCE9FF09CCEAFFEE52E9CFC0F0EACF92
:10039000C1F056EC07F008CCE9FF09CCEAFF010EEA
:1003A000EF6E08CCE9FF09CCEAFF160EE926000E35
:1003B000EA22EE2AEE22EE22EE229CEC3CF015C060
:1003C00001F016C002F017C003F008CCE9FF09CC19
:1003D000EAFF1F0EE926000EEA2214C0EEFF01C05C
:1003E000EEFF02C0EEFF03C0EEFF0C01075112004A
:1003F0000001AA51280DF3CFE9FFF4CFEAFF000E68
:10040000E926070EEA22EF50030801E0000C010C78
:100410000001AB51280DF3CFBFFCF4CFC0FC000EA0
:100420000C01BF27070EC023BFCCE9FFC0CCEAFFF9
:10043000EF5003080DE0BFCCE9FFC0CCEAFFEF505E
:10044000020806E0BFCCD8F0C0CCD9F04BEF0AF0E0
:10045000ABC0B0F0BED90001D06BD16B0001CF6949
:100460000001110ECE6FBFCCE9FFC0CCEAFF1A0E1F
:10047000E926000EEA22EECFCAF0EECFCBF0EECFA7
:10048000CCF0EFCFCDF0BFCCE9FFC0CCEAFF160E29
:10049000E926000EEA22EECFC6F0EECFC7F0EECF8F
:1004A000C8F0EFCFC9F0BFCCE9FFC0CCEAFF0D0E1A
:1004B000E926000EEA22EECFC4F0EDCFC5F0BFCCA6
:1004C000E9FFC0CCEAFF0B0EE926000EEA22EECFD0
:1004D000C2F0EDCFC3F0BFCCE9FFC0CCEAFFEE52D3
:1004E000E9CFC0F0EACFC1F056EC07F0BFCCE9FF8E
:1004F000C0CCEAFF160EE926000EEA22EE2AEE2212
:10050000EE22EE22BFCCE9FFC0CCEAFF040EEF6E74
:1005100012000001AC51280DF3CFC8FCF4CFC9FC88
:10052000000E0C01C827070EC923C8CCE9FFC9CCAF
:10053000EAFF0F0EEB50FF0801E1000CC8CCE9FF09
:10054000C9CCEAFF270EE926000EEA22EF50020B83
:1005500001E1000CC8CCE9FFC9CCEAFF100EE92686
:10056000000EEA22EECFD0F0EDCFD1F0C8CCE9FFFB
:10057000C9CCEAFF0F0EEB500001CF6F0001180E3F
:10058000CE6F1A0EE926000EEA22EECFCAF0EECFA9
:10059000CBF0EECFCCF0EFCFCDF0C8CCE9FFC9CC9B
:1005A000EAFF160EE926000EEA22EECFC6F0EECFE5
:1005B000C7F0EECFC8F0EFCFC9F0C8CCE9FFC9CC87
:1005C000EAFF0D0EE926000EEA22EECFC4F0EDCFD1
:1005D000C5F0C8CCE9FFC9CCEAFF0B0EE926000E36
:1005E000EA22EECFC2F0EDCFC3F0C8CCE9FFC9CC10
:1005F000EAFFEE52E9CFC0F0EACFC1F056EC07F0C7
:10060000C8CCE9FFC9CCEAFF100EE926000EEA22A9
:10061000EECF00F0EFCF01F0026A036AC8CCE9FF29
:10062000C9CCEAFF160EE926000EEA220050EE269B
:100630000150EE220250EE220350EE22C8CCE9FF18
:10064000C9CCEAFF270EE926000EEA22EF92C8CCB9
:10065000E9FFC9CCEAFF270EE926000EEA22EF984F
:10066000010C0001AD51280DF3CFE9FFF4CFEAFFF3
:10067000000EE926070EEA22140EE926000EEA22F1
:10068000EE50ED1001E1000CAD51280DF3CFE9FF64
:10069000F4CFEAFF000EE926070EEA220F0EE92644
:1006A000000EEA22EF50FF0804E10F012A6B3CEF35
:1006B0001CF0AD51280DF3CFE9FFF4CFEAFF000E97
:1006C000E926070EEA22270EE926000EEA22EF505D
:1006D000020B01E0010E12000001AE51280DF3CF14
:1006E000C6FCF4CFC7FC000E0C01C627070EC723BB
:1006F000C6CCE9FFC7CCEAFF140EE926000EEA22B9
:10070000EE50ED1001E1000CC6CCE9FFC7CCEAFFCA
:100710000F0EEB50FF082FE10F012B6B6AEC1CF062
:10072000E66EC6CCE9FFC7CCEAFF0F0EE926000E45
:10073000EA22E552E750EF6EC6CCE9FFC7CCEAFFEC
:100740000F0EEB50FF0801E1000CC6CCE9FFC7CC4F
:10075000EAFF100EEB6A110EEB6A280E0F01396FDB
:100760003A6BC6CCE9FFC7CCEAFF0F0EEB500F0186
:10077000386F7BEC1EF0C6CCE9FFC7CCEAFF270E32
:10078000E926000EEA22EF88AFC049FFC4EC1FF053
:10079000C6CCE9FFC7CCEAFF140EE926000EEA2218
:1007A000EE06EF5AC6CCE9FFC7CCEAFF100EE926E9
:1007B000000EEA22EE2AED22EECF00F0EDCF01F09E
:1007C0000A0E005C020E015803E3AEC0ACF0A1DEDD
:1007D000010C0001B051280DF3CF85FCF4CF86FC4D
:1007E000000E0C018527070E862385CCE9FF86CCF9
:1007F000EAFF270EE926000EEA22EF50080B01E17E
:10080000000CC3EC1CF085CCE9FF86CCEAFF270E78
:10081000E926000EEA22EF96010C0001B151280DE5
:10082000F3CF00FCF4CF01FC000E0C010027070EF3
:10083000012300CCE9FF01CCEAFF270EE926000ED8
:10084000EA22EF50080B2DE000CCE9FF01CCEAFFD3
:10085000270EE926000EEA22EF50040B0FE0140EDB
:1008600002010E6F0F6B18EC2EF000CCE9FF01CCEB
:10087000EAFF270EE926000EEA22EF9400CCE9FFFA
:1008800001CCEAFF270EE926000EEA22EF88B4C069
:1008900047FFB5C048FFB2C045FFB3C046FFA5EF54
:1008A0001FF0F36AF46A12000001B651280DF3CF6D
:1008B00085FCF4CF86FC000E0C018527070E8623ED
:1008C00085CCE9FF86CCEAFF270EE926000EEA2256
:1008D000EF50080B43E085CCE9FF86CCEAFF270EFA
:1008E000E926000EEA22EF50040B0FE0140E02017D
:1008F0000E6F0F6B18EC2EF085CCE9FF86CCEAFF6B
:10090000270EE926000EEA22EF9485CCE9FF86CC7B
:10091000EAFF120EE926000EEA22EE50ED100CE17D
:10092000C3EC1CF085CCE9FF86CCEAFF270EE92654
:10093000000EEA22EF96000C85CCE9FF86CCEAFF98
:10094000120EE926000EEA22EE06EF5AA2EC1FF084
:10095000B7C0E9FFB8C0EAFFEF6E010C000C000160
:10096000B951280DF3CFE9FFF4CFEAFF000EE926D5
:10097000070EEA22270EE926000EEA22EF50080BA6
:1009800001E0010E12000C010F6B006B060E005D02
:1009900001E3C0D10051280DF3CF09FCF4CF0AFCCC
:1009A000000E0927070E0A2309CCE9FF0ACCEAFF4B
:1009B000270EE926000EEA22EF50080B01E0A7D12E
:1009C00009CCE9FF0ACCEAFF270EE926000EEA224D
:1009D000EF50100B01E09BD109CCE9FF0ACCEAFFF4
:1009E000EF500A0801E193D109CCE9FF0ACCEAFFF4
:1009F000EF5000090CE109CCE9FF0ACCEAFF270E11
:100A0000E926000EEA22EF50010B01E080D19CECB8
:100A10003CF014C005FC15C006FC16C007FC17C04E
:100A200008FC09CCE9FF0ACCEAFF1F0EE926000EFC
:100A3000EA22EE500C01145C016FEE501558026F63
:100A4000EE501658036FEE501758046F09CCE9FFAB
:100A50000ACCEAFF230EE926000EEA220151EE5CE1
:100A60000251EE580351EE580451EE5801E34FD1B4
:100A70000F01010E2A6F3CEC1CF0000901E112008D
:100A80009CEC3CF014C000F015C001F016C002F060
:100A900017C003F009CCE9FF0ACCEAFF1F0EE926D4
:100AA000000EEA2214C0EEFF01C0EEFF02C0EEFF0E
:100AB00003C0EEFF09CCE9FF0ACCEAFF230EE926CA
:100AC000000EEA22D890EF36010EEB36020EEB361E
:100AD000030EEB3609CCE9FF0ACCEAFF1E0EE9262D
:100AE000000EEA22EF2A09CCE9FF0ACCEAFFEF5018
:100AF000090A01E18FD0010A01E182D00F0A01E168
:100B000095D0020A01E192D0030A01E18FD0020AD6
:100B10006EE0070A2DE0010A06E0030A01E08CD02E
:100B20000C01020E81D009CCE9FF0ACCEAFF1E0EAF
:100B3000EB50030803E30C01120E76D009CCE9FF59
:100B40000ACCEAFF270EE926000EEA22EF50010B3D
:100B500006E009CCE9FF0ACCEAFFEF6A6DD00C0190
:100B6000020E0F6F09CCE9FF0ACCEAFF010E50D04C
:100B700009CCE9FF0ACCEAFF1E0EEB5003081BE389
:100B800009CCE9FF0ACCEAFF0F0EEB50FF0810E09A
:100B90000F01396B3A6B09CCE9FF0ACCEAFF0F0E63
:100BA000EB500F01386F7BEC1EF013EC1EF044D0BD
:100BB0000C01100E39D009CCE9FF0ACCEAFF0F0E68
:100BC000EB500F012C6FADEC1CF009CCE9FF0ACC07
:100BD000EAFF0F0EE926000EEA22EF680C01110E63
:100BE0000F6F09CCE9FF0ACCEAFF040E11D009CC43
:100BF000E9FF0ACCEAFF1E0EEB50030817E312D000
:100C00000C01010E0F6F09CCE9FF0ACCEAFF090EB7
:100C1000EF6E12D009CCE9FF0ACCEAFF1E0EEB50B2
:100C2000030804E30C01010E0F6F06D009CCD8F0C5
:100C30000ACCD9F04BEC0AF00C010F5168E00FA977
:100C400011D009CCE9FF0ACCEAFF160EE926000E06
:100C5000EA22EECF0BFCEECF0CFCEECF0DFCEFCF7B
:100C60000EFC14D009CCE9FF0ACCEAFF160EE926E7
:100C7000000EEA22EFCF0BFCEE2AEFCF0CFCEE22A7
:100C8000EFCF0DFCEE22EFCF0EFCEF220001D06B78
:100C9000D16B0001CF690FCCCEF009CCE9FF0ACCB3
:100CA000EAFF1A0EE926000EEA22EECFCAF0EECFD6
:100CB000CBF0EECFCCF0EFCFCDF00BCCC6F00CCC20
:100CC000C7F00DCCC8F00ECCC9F009CCE9FF0ACCB6
:100CD000EAFF0D0EE926000EEA22EECFC4F0EDCFBA
:100CE000C5F009CCE9FF0ACCEAFF0B0EE926000E9D
:100CF000EA22EECFC2F0EDCFC3F009CCE9FF0ACC77
:100D0000EAFFEE52E9CFC0F0EACFC1F0CFD80C0134
:100D1000002B3CD61200BAC0E9FFBBC0EAFF060EAA
:100D2000E926000EEA22EECF14FCEECF15FCEECF42
:100D300016FCEFCF17FCBCC0E9FFBDC0EAFFEFCF48
:100D400018FC010EE926000EEA22EFCF19FCBCC008
:100D5000E9FFBDC0EAFF020EE926000EEA22EFCF4E
:100D60001AFCBCC0E9FFBDC0EAFF030EE926000E75
:100D7000EA22EFCF1BFC0C011C6B060E1D6FBEC0E0
:100D80001EFCBFC01FFCBEC019F2BFC01AF264EC4B
:100D900031F0F3CF1EFCF4CF1FFC0C0E0201216FCB
:100DA000226B0201140E1F6F0C0E206FC4EC31F089
:100DB000F3CF21FCF4CF22FC0C01211F221FBEC067
:100DC00043FFBFC044FF39EC1FF0F3CF23FCF4CF47
:100DD00024FC0C01F450215D03E02351225D63E10A
:100DE00002010E6B0F6B18EC2EF0140E0F01476F03
:100DF000486B0F01000E456F0C0E466FA5EC1FF0FF
:100E00000001000ED66F0C0ED76F6ADA0C010C5180
:100E1000F00BE842E842E842E842040DF350006E6D
:100E2000016A140E005E000E015A00C025FC00503D
:100E3000006E016AE8500001BE5DBE6F0150BF59EF
:100E4000BF6F140EBE5F000EBF5B0C010C51F00BA8
:100E5000E842E842E842E842040DF35002010E6F16
:100E60000F6B18EC2EF0BAC0D4F0BBC0D5F0000167
:100E7000000ED26F0C0ED36F33D90C01206FFE0E13
:100E8000205D11E2BEC0DFF0BFC0E0F00001000E47
:100E9000DD6F0C0EDE6FBAC0DBF0BBC0DCF020CC27
:100EA000DAF07FDB010CC3EC1CF0010C0F01010E2A
:100EB0002A6F3CEC1CF00009F9E0FF0E0001CF5D49
:100EC00007E10F01010E2B6F6AEC1CF00001CF6FE0
:100ED000FF0ECF5D01E11200140E0F01396F3A6B66
:100EE000CFC038FF7BEC1EF0C2C087FCC3C088FCBB
:100EF000C4C089FCC5C08AFCC6C08BFCC7C08CFCC2
:100F0000C8C08DFCC9C08EFCCAC08FFCCBC090FC91
:100F1000CCC091FCCDC092FC0C019391939393951E
:100F20009397CEC094FCEEEC1CF0F3CF95FCF4CF7D
:100F300096FC0C01400EF35C020EF45805E3400EE3
:100F4000956F020E966F0DD0360ED8809555000E17
:100F5000965505E2360E955F000E965B02D0956BB6
:100F6000966B976B986B996B9A6B0001870ED66F97
:100F70000C0ED76FB5D9140E0001D027000ED12367
:100F8000CEA310D0040ED027000ED1230C01020EE8
:100F90009B6F040E9C6F020E9D6F400E9E6F939987
:100FA000938B03D00C019389939B938D939F00C1E6
:100FB0009FFC01C1A0FC02C1A1FC03C1A2FCC0C0F6
:100FC000E9FFC1C0EAFF060EE926000EEA22EECFD5
:100FD000A3FCEECFA4FCEECFA5FCEFCFA6FCA76B45
:100FE000060EA86FD0C0A9FCD1C0AAFCD0C019F2CF
:100FF000D1C01AF264EC31F0F3CFA9FCF4CFAAFC13
:101000000C0E0201216F226B02019F0E1F6F0C0E4E
:10101000206FC4EC31F0F3CF97FCF4CF98FC0C01B7
:10102000971F981F97CC85FC98CC86FCD0C00CF2FB
:10103000D1C00DF20201060E0B6FC0C009F2C1C093
:101040000AF28CEC2DF0140E0F014C6F4D6B0F015A
:10105000870E4A6F0C0E4B6FC7EC1FF00001CEA33A
:101060000BD0040E0F014C6F4D6B0F019B0E4A6F9E
:101070000C0E4B6FC7EC1FF0140E0F01396F3A6B5B
:10108000CFC038FF7BEC1EF0D0C043FFD1C044FF7F
:1010900039EC1FF0F3CF85FCF4CF86FC240E0F0152
:1010A000396F3A6BCFC038FF7BEC1EF086CC49FF1E
:1010B000C4EC1FF085CC49FFC4EC1FF00F01396B65
:1010C0003A6BCFC038FF7BEC1EF013EC1EF00F0123
:1010D000010E2A6F3CEC1CF00009F9E013EF1EF042
:1010E0000C01FE0E296F286B060E285D01E37FD0F0
:1010F0002851280DF3CF26FCF4CF27FC000E26271D
:10110000070E272326CCE9FF27CCEAFFEF500A0879
:101110006BE026CCE9FF27CCEAFF0B0EE926000E98
:10112000EA22EECF00F0EFCF01F0D2C0E9FFD3C04A
:10113000EAFF020EE926000EEA22EECF02F0EFCF20
:1011400003F00250001850E1035001184DE126CC85
:10115000E9FF27CCEAFFEF50000902E128CC29FC87
:1011600026CCE9FF27CCEAFF0D0EE926000EEA2285
:10117000EECF00F0EFCF01F0D2C0E9FFD3C0EAFF1D
:10118000EECF02F0EFCF03F0025000182DE1035034
:1011900001182AE1D4C0E9FFD5C0EAFF060EE9260E
:1011A000000EEA22EECF04F0EECF05F0EECF06F00F
:1011B000EFCF07F026CCE9FF27CCEAFFEE52060E70
:1011C000E926000EEA22EE50000104180DE1EE506F
:1011D00005180AE1EE50061807E1EE50071804E181
:1011E00003E10C01285112000C01282B7DD7295155
:1011F000280DF3CF26FCF4CF27FC000E2627070E80
:101200002723FE0E295D67E026CCE9FF27CCEAFF05
:10121000EF50000960E10A0EE66EE66AD4C0E6FF10
:10122000D5C0E6FF26CCE9FF27CCEAFFEE52E9CF96
:1012300000F0EACF01F0E9CFE6FFEACFE6FF10ECDD
:1012400030F0026E060EE15E0250D2C0E9FFD3C05C
:10125000EAFF020EE926000EEA22EECF00F0EFCF01
:1012600001F026CCE9FF27CCEAFF0B0E00C0EBFF14
:101270000C0E01C0EBFFD2C0E9FFD3C0EAFFEECFF6
:1012800000F0EFCF01F026CCE9FF27CCEAFF0D0EEE
:1012900000C0EBFF0E0E01C0EBFF26CCE9FF27CC10
:1012A000EAFF270EE926000EEA22EF9626CCE9FF98
:1012B00027CCEAFF0F0EE926000EEA22EF6826CCC3
:1012C000E9FF27CCEAFF270EE926000EEA22EF828B
:1012D0000C0129511200FE0E295D01E1FF0CFE0CEC
:1012E000D6C0E9FFD7C0EAFFEECF19F2EDCF1AF270
:1012F00064EC31F0F3CF00F0F4CF01F0D6C0E9FF99
:10130000D7C0EAFFF3CFEEFF01C0EDFFD6C0E9FF83
:10131000D7C0EAFF020EE926000EEA22EECF19F24C
:10132000EDCF1AF264EC31F0F3CF00F0F4CF01F01E
:10133000D6C0E9FFD7C0EAFF020EF3CFEBFF030EE2
:1013400001C0EBFFD6C0E9FFD7C0EAFF040EE926D3
:10135000000EEA22EECF1BF2EECF1CF2EECF1DF212
:10136000EFCF1EF269EC31F014C000F015C001F0AF
:1013700016C002F017C003F0D6C0E9FFD7C0EAFFDD
:10138000040EE926000EEA2214C0EEFF01C0EEFFB3
:1013900002C0EEFF03C0EEFFD6C0E9FFD7C0EAFFF0
:1013A000080EE926000EEA22EECF1BF2EECF1CF269
:1013B000EECF1DF2EFCF1EF269EC31F014C000F059
:1013C00015C001F016C002F017C003F0D6C0E9FF47
:1013D000D7C0EAFF080EE926000EEA2214C0EEFF8D
:1013E00001C0EEFF02C0EEFF03C0EEFFD6C0E9FF72
:1013F000D7C0EAFF0E0EE926000EEA22EECF19F260
:10140000EDCF1AF264EC31F0F3CF00F0F4CF01F03D
:10141000D6C0E9FFD7C0EAFF0E0EF3CFEBFF0F0EE9
:1014200001C0EBFFD6C0E9FFD7C0EAFF100EE926E6
:10143000000EEA22EECF19F2EDCF1AF264EC31F091
:10144000F3CF00F0F4CF01F0D6C0E9FFD7C0EAFF38
:10145000100EF3CFEBFF110E01C0EBFFD6C0E9FF7A
:10146000D7C0EAFF120EE926000EEA22EECF19F2EB
:10147000EDCF1AF264EC31F0F3CF00F0F4CF01F0CD
:10148000D6C0E9FFD7C0EAFF120EF3CFEBFF130E71
:1014900001C0EBFF1200D8C0E9FFD9C0EAFF0F0E70
:1014A000EB50FF081CE0D8C0E9FFD9C0EAFF0F0EDF
:1014B000EB500F012C6FADEC1CF0D8C0E9FFD9C088
:1014C000EAFF0F0EE926000EEA22EF68D8C0E9FF16
:1014D000D9C0EAFF270EE926000EEA22EF82D8C023
:1014E000E9FFD9C0EAFFEE52060EE926000EEA2215
:1014F000EE6AEE6AEE6AEE6AD8C0E9FFD9C0EAFF8A
:101500000D0EEB6A0E0EEB6AD8C0E9FFD9C0EAFFF8
:10151000270EE926000EEA22EF50080B02E0C3EC8A
:101520001CF0D8C0E9FFD9C0EAFF270EE926000E5B
:10153000EA22EF96D8C0E9FFD9C0EAFF230EE926D8
:10154000000EEA222C0EEE6E010EEE6EEE6AEE6AD0
:10155000D8C0E9FFD9C0EAFF270EE926000EEA222B
:10156000EF98D8C0E9FFD9C0EAFF270EE926000EA0
:10157000EA22EF50010B06E0D8C0E9FFD9C0EAFF2C
:10158000EF6A06D0D8C0E9FFD9C0EAFF0A0EEF6EB5
:10159000D8C0E9FFD9C0EAFF100EEB6A110EEB6A62
:1015A00012000001DA51280DF3CF36FCF4CF37FCDE
:1015B000000E0C013627070E3723386B36CCE9FFB7
:1015C00037CCEAFF1E0EE926000EEA22EF6A9CECF9
:1015D0003CF014C000F015C001F016C002F017C0B6
:1015E00003F036CCE9FF37CCEAFF1F0EE926000EE8
:1015F000EA2214C0EEFF01C0EEFF02C0EEFF03C0FE
:10160000EEFF36CCE9FF37CCEAFF230EE926000EC9
:10161000EA222C0EEE6E010EEE6EEE6AEE6ADDC070
:10162000E9FFDEC0EAFF0D0EE926000EEA22EF50C8
:10163000040B19E0C3EC1CF036CCE9FF37CCEAFF11
:10164000270EE926000EEA22EF50010B02E0000E01
:1016500001D0010EE66E36CCE9FF37CCEAFFE55249
:10166000E750EF6E120036CCE9FF37CCEAFF160EDA
:10167000E926000EEA22EECF2AFCEECF2BFCEECFBD
:101680002CFCEFCF2DFCDDC0E9FFDEC0EAFF0E0E23
:10169000E926000EEA22EECF04F0EFCF05F0066A4D
:1016A000076ADDC0E9FFDEC0EAFF080EE926000E8A
:1016B000EA22EE500C012A5D086EEE502B59096E9D
:1016C000EE502C590A6EEE502D590B6E0850045CEA
:1016D000006E09500558016E0A500658026E0B50F4
:1016E0000758036E36CCE9FF37CCEAFF100EE92627
:1016F000000EEA22EECF0CF0EFCF0DF00E6A0F6A6B
:101700000C50005C266F0D500158276F0E50025888
:10171000286F0F500358296F800E291509E036CC29
:10172000E9FF37CCEAFF140EEB6A150EEB6A0AD01C
:1017300036CCE9FF37CCEAFF140E26CCEBFF150EB2
:1017400027CCEBFF36CCE9FF37CCEAFFEF5001089E
:1017500001E084D0DDC0E9FFDEC0EAFF0D0EE9261E
:10176000000EEA22EF50020B02E1C3EF1CF0DFC0D3
:1017700004F0E0C005F0066A076ADDC0E9FFDEC0DC
:10178000EAFF040EE926000EEA22EE500424006E61
:10179000EE500520016EEE500620026EEE5007203E
:1017A000036E002A000E01220222032236CCE9FF3A
:1017B00037CCEAFF1A0EE926000EEA2200C0EEFF3F
:1017C00001C0EEFF02C0EEFF03C0EEFF36CCE9FF22
:1017D00037CCEAFF1A0EE926000EEA22EECF26FCED
:1017E000EECF27FCEECF28FCEFCF29FCDDC0E9FFD0
:1017F000DEC0EAFF0D0EE926000EEA22EF50100BC4
:1018000009E136CCE9FF37CCEAFF020EEF6EC3ECFC
:101810001CF0D7D036CCE9FF37CCEAFF030EEF6ED1
:10182000100E386FDDC0E9FFDEC0EAFF0E0EE926BC
:10183000000EEA22EECF00F0EFCF01F036CCE9FF48
:1018400037CCEAFF140E00C0EBFF150E01C0EBFF12
:101850000001DF51E01101E04BD143D236CCE9FF6A
:1018600037CCEAFFEF50000901E0AFD0C3EC1CF029
:10187000DDC0E9FFDEC0EAFF0D0EE926000EEA2218
:10188000EF50020B03E10C01040E9DD0DFC004F009
:10189000E0C005F0066A076ADDC0E9FFDEC0EAFFC6
:1018A000040EE926000EEA22EE500424006EEE50EB
:1018B0000520016EEE500620026EEE500720036EEA
:1018C000002A000E01220222032236CCE9FF37CC87
:1018D000EAFF1A0EE926000EEA2200C0EEFF01C060
:1018E000EEFF02C0EEFF03C0EEFFDDC0E9FFDEC089
:1018F000EAFF0E0EE926000EEA22EECF00F0EFCF4F
:1019000001F036CCE9FF37CCEAFF140E00C0EBFF44
:10191000150E01C0EBFF0A0EE66EE66ADBC0E6FFBD
:10192000DCC0E6FF36CCE9FF37CCEAFFEE52E9CF68
:1019300000F0EACF01F0E9CFE6FFEACFE6FF10ECD6
:1019400030F0026E060EE15E0250DDC0E9FFDEC03F
:10195000EAFFEECF00F0EFCF01F036CCE9FF37CC55
:10196000EAFF0D0E00C0EBFF0E0E01C0EBFF36CC00
:10197000E9FF37CCEAFF020EEF6E36CCE9FF37CC39
:10198000EAFF160EE926000EEA22EFCF2AFCEE2A25
:10199000EFCF2BFCEE22EFCF2CFCEE22EFCF2DFC75
:1019A000EF2236CCE9FF37CCEAFF1A0EE926000E0B
:1019B000EA22EECF26FCEECF27FCEECF28FCEFCFBD
:1019C00029FC0C01120E386F47D236CCE9FF37CC18
:1019D000EAFF1A0EE926000EEA22EECF2EFCEECF29
:1019E0002FFCEECF30FCEFCF31FC36CCE9FF37CC0B
:1019F000EAFF160EE926000EEA22EECF32FCEECF09
:101A000033FCEECF34FCEFCF35FCDDC0E9FFDEC0A8
:101A1000EAFF040EE926000EEA22EECF26FCEECF06
:101A200027FCEECF28FCEFCF29FC0001DF510C0191
:101A300026270001E0510C012723000E282329232B
:101A400036CCE9FF37CCEAFF160EE926000EEA2273
:101A5000EECF2AFCEECF2BFCEECF2CFCEFCF2DFCF3
:101A6000DDC0E9FFDEC0EAFF040EE926000EEA222F
:101A7000EE502E1901E0E3D1EE502F1901E0DFD135
:101A8000EE50301901E0DBD1EE50311901E0D7D131
:101A900001E0D5D136CCE9FF37CCEAFFEF500208A0
:101AA00044E1DDC0E9FFDEC0EAFF0D0EE926000ECD
:101AB000EA22EF50100B01E114D136CCE9FF37CC0C
:101AC000EAFF1A0EE926000EEA2226CCEEFF27CC0A
:101AD000EEFF28CCEEFF29CCEEFF36CCE9FF37CC69
:101AE000EAFF030EEF6E0001DF51E01101E1F9D0D2
:101AF00036CCE9FF37CCEAFF270EE926000EEA22B2
:101B0000EF8636CCE9FF37CCEAFF120EDFC0EBFFE1
:101B1000130EE0C0EBFF36CCE9FF37CCEAFF270E0F
:101B2000E926000EEA22EF8497D136CCE9FF37CCC4
:101B3000EAFF1A0EE926000EEA2226CCEEFF27CC99
:101B4000EEFF28CCEEFF29CCEEFF36CCE9FF37CCF8
:101B5000EAFFEF50030801E0C7D0DDC0E9FFDEC0B7
:101B6000EAFF0D0EE926000EEA22EF50100B2FE0DF
:101B700036CCE9FF37CCEAFF270EE926000EEA2231
:101B8000EF50020B24E136CCE9FF37CCEAFF0F0E11
:101B9000EB50FF081CE036CCE9FF37CCEAFF0F0E14
:101BA000EB500F012C6FADEC1CF036CCE9FF37CCBD
:101BB000EAFF0F0EE926000EEA22EF6836CCE9FFB5
:101BC00037CCEAFF270EE926000EEA22EF82DDC0BD
:101BD000E9FFDEC0EAFF0D0EE926000EEA22EF5013
:101BE000010B31E00C01110E386F36CCE9FF37CC18
:101BF000EAFF160EE926000EEA22EFCF2AFCEE2AB3
:101C0000EFCF2BFCEE22EFCF2CFCEE22EFCF2DFC02
:101C1000EF2236CCE9FF37CCEAFF1A0EE926000E98
:101C2000EA22EF2AEECF26FCEF22EECF27FCEF22AE
:101C3000EECF28FCEF22EFCF29FC36CCE9FF37CCE2
:101C4000EAFF090EEF6E0001DF51E0114AE036CCE9
:101C5000E9FF37CCEAFF270EE926000EEA22EF5013
:101C6000080B1FE136CCE9FF37CCEAFF270EE92647
:101C7000000EEA22EF8636CCE9FF37CCEAFF120EDF
:101C8000DFC0EBFF130EE0C0EBFF36CCE9FF37CC33
:101C9000EAFF270EE926000EEA22EF840C013889BC
:101CA000DBD036CCE9FF37CCEAFF160EE926000E72
:101CB000EA2232CCEEFF33CCEEFF34CCEEFF35CC53
:101CC000EEFF36CCE9FF37CCEAFF1A0EE926000E0C
:101CD000EA222ECCEEFF2FCCEEFF30CCEEFF31CC43
:101CE000EEFFC3EC1CF0B8D036CCE9FF37CCEAFFEE
:101CF000EF5009080FE1C3EC1CF0DDC0E9FFDEC0C6
:101D0000EAFF0D0EE926000EEA22EF50100B01E16A
:101D1000A3D08ED036CCE9FF37CCEAFFEF500408D1
:101D200047E1C3EC1CF0DDC0E9FFDEC0EAFF0D0EA9
:101D3000E926000EEA22EF50010B28E00C01100EFC
:101D4000386F36CCE9FF37CCEAFF1A0EE926000ED1
:101D5000EA22EF2AEECF26FCEF22EECF27FCEF227D
:101D6000EECF28FCEF22EFCF29FCDDC0E9FFDEC07B
:101D7000EAFF0D0EE926000EEA22EF50100B58E1A3
:101D800036CCE9FF37CCEAFF060E10D0DDC0E9FF04
:101D9000DEC0EAFF0D0EE926000EEA22EF50100B1E
:101DA0005BE036CCE9FF37CCEAFF050EEF6E54D08E
:101DB00036CCE9FF37CCEAFFEF50050825E1C3EC4C
:101DC0001CF0DDC0E9FFDEC0EAFF0D0EE926000EC3
:101DD000EA22EF50010B40E00C01100E386F36CCB8
:101DE000E9FF37CCEAFF1A0EE926000EEA22EF2AB5
:101DF000EECF26FCEF22EECF27FCEF22EECF28FC21
:101E0000EF22EFCF29FC14D036CCE9FF37CCEAFF24
:101E1000EF50060821E1C3EC1CF0DDC0E9FFDEC095
:101E2000EAFF0D0EE926000EEA22EF50100B14E037
:101E300036CCD8F037CCD9F04BEC0AF00DD0C3EC4F
:101E40001CF00C01100E386F2ECC26FC2FCC27FC7A
:101E500030CC28FC31CC29FC0C01385131E0000198
:101E6000D06BD16B0001CF6938CCCEF026CCCAF054
:101E700027CCCBF028CCCCF029CCCDF02ACCC6F0A6
:101E80002BCCC7F02CCCC8F02DCCC9F0DDC0E9FFBD
:101E9000DEC0EAFFEECFC4F0EDCFC5F0DDC0E9FF54
:101EA000DEC0EAFF020EE926000EEA22EECFC2F003
:101EB000EDCFC3F0DBC0C0F0DCC0C1F056EC07F0E2
:021EC00012000E
:0E1EC200D8CFE4FFE0CFE4FFE46EDACFE4FF18
:101ED000E2CFDAFFE9CFE4FFEACFE4FFF6CFE4FF99
:101EE000F7CFE4FFF5CFE4FFF3CFE4FFF4CFE4FF57
:101EF000FACFE4FF00EE10F00B0EE80403E3EECFA0
:101F0000E4FFFBD700EE00F0100EE80403E3EECF91
:101F1000E4FFFBD7E652A5EC3CF0E55200EE0FF0F3
:101F2000100EE80403E3E5CFEDFFFBD700EE1AF057
:101F30000B0EE80403E3E5CFEDFFFBD7E5CFFAFF97
:101F4000E5CFF4FFE5CFF3FFE5CFF5FFE5CFF7FFF2
:101F5000E5CFF6FFE5CFEAFFE5CFE9FFE5CFDAFF12
:101F6000E550E5CFE0FFE5CFD8FF1000BFDBE1ECA7
:101F700037F0110EE66EB3EC3CF0E552FF0E006E4A
:101F8000680E016E026A00C0E6FFE66E02C0E6FF60
:101F90008A0EE66E010EE66E99EC30F0036E050EC9
:101FA000E15E03502FEC38F092EC3CF090EC34F012
:101FB000C7DB81B602D079EC15F0BDEC36F065ECEC
:101FC00016F0E6EC28F0010118B105D0010E1D6FE6
:101FD0000201080E596F9CEC3CF001011E51145C8B
:101FE000006E1F511558016E20511658026E215176
:101FF0001758036E320E005C000E0158000E025896
:10200000000E03580BE39CEC3CF014C01EF115C00D
:102010001FF116C020F117C021F18870C8EC36F00E
:1020200091EC16F0F5EC28F07FD901011D51020169
:102030005C5DD1E05CC21DF1820E006E710E016E1E
:10204000026A00C053F2E8CF54F22CEC3CF00101DC
:10205000000E326F010E336F0ED8930E006E710EAC
:10206000016E026A00C053F2E8CF54F22CEC3CF04F
:1020700079EC2EF0B0D70C01100E066F000EE66E54
:102080000C0EE66E32C1E9FF33C1EAFFEF50E66E97
:10209000E66A23EC36F0E552E552E552E5520201DC
:1020A000000E516F0C0E526F17EC3CF00C01056BDB
:1020B000000EE66E0C0EE66EB2EC30F0E552E55224
:1020C000F3CF00F0F4CF01F00C01F350055D000EEA
:1020D000F45414E20551EA6A000FE96E0C0EEA228C
:1020E000EF50E66E0651062BEA6A8A0FE96E010E82
:1020F000EA22E552E750EF6E052BDAD70651062BA0
:10210000EA6A8A0FE96E010EEA222E0EEF6EE7EC04
:102110003BF00009FCE102012E0E4D6FFAEC3BF0A2
:10212000000EE66E0C0EE66E32C1E9FF33C1EAFF27
:10213000010EE926000EEA22EF50E66EE66A23EC75
:1021400036F0E552E552E552E5520201000E516FBC
:102150000C0E526F17EC3CF00C01056B000EE66E96
:102160000C0EE66EB2EC30F0E552E552F3CF00F023
:10217000F4CF01F00C01F350055D000EF45414E2AD
:102180000551EA6A000FE96E0C0EEA22EF50E66E86
:102190000651062BEA6A8A0FE96E010EEA22E55221
:1021A000E750EF6E052BDAD70651062BEA6A8A0F45
:1021B000E96E010EEA222E0EEF6EE7EC3BF000090D
:1021C000FCE102012E0E4D6FFAEC3BF0000EE66EC4
:1021D0000C0EE66E32C1E9FF33C1EAFF020EE926BA
:1021E000000EEA22EF50E66EE66A23EC36F0E55286
:1021F000E552E552E5520201000E516F0C0E526F8E
:1022000017EC3CF00C01056B000EE66E0C0EE66E52
:10221000B2EC30F0E552E552F3CF00F0F4CF01F02C
:102220000C01F350055D000EF45414E20551EA6A06
:10223000000FE96E0C0EEA22EF50E66E0651062BF7
:10224000EA6A8A0FE96E010EEA22E552E750EF6E64
:10225000052BDAD70651062BEA6A8A0FE96E010EC2
:10226000EA222E0EEF6EE7EC3BF00009FCE10201E2
:102270002E0E4D6FFAEC3BF0000EE66E0C0EE66E85
:1022800032C1E9FF33C1EAFF030EE926000EEA225C
:10229000EF50E66EE66A23EC36F0E552E552E55281
:1022A000E5520201000E516F0C0E526F17EC3CF01C
:1022B0000C01056B000EE66E0C0EE66EB2EC30F013
:1022C000E552E552F3CF00F0F4CF01F00C01F350EA
:1022D000055D000EF45414E20551EA6A000FE96E40
:1022E0000C0EEA22EF50E66E0651062BEA6A8A0FC0
:1022F000E96E010EEA22E552E750EF6E052BDAD7C0
:10230000200E065D0AE20651062BEA6A8A0FE96E84
:10231000010EEA22200EEF6EF3D72FEC38F0E7EC37
:102320003BF00009FCE11200C282C2B2FED7C050ED
:10233000F36EC080C082E850C06E340EE66E010EAF
:10234000E66EC3CFE6FFC4CFE6FF23EC36F0E552DE
:10235000E552E552E55212003CC1E9FF3DC1EAFFFA
:10236000EE50EFCFEAFFE96EEF50D00F0C01856F12
:10237000E850010A1AE0010A74E1020E0101EA6A5A
:102380003C25E96E3D51EA22EE50EFCFEAFFE96EBF
:10239000EF50D00F0C01866FE850010A04E0010AEB
:1023A00060E188725ED088745CD001013E51020801
:1023B00056E2040EEA6A3C25E96E3D51EA22EECF70
:1023C000E6FFEFCFE6FFB2EC30F0E552E552F3CF97
:1023D00000F0F4CF01F0200EF35C000EF45824E27C
:1023E000200EE66EE66AE66E8A0EE66E010EE66E78
:1023F0005EEC30F0006E050EE15E0050040E01014F
:10240000EA6A3C25E96E3D51EA22EECFE6FFEFCFC6
:10241000E6FF8A0EE66E010EE66E78EC30F0E552CD
:10242000E552E552E55218D0200EE66EE66A040E3B
:102430000101EA6A3C25E96E3D51EA22EECFE6FF52
:10244000EFCFE6FF8A0EE66E010EE66E10EC30F07E
:10245000006E060EE15E00502FEC38F002D0A7ECC3
:1024600038F00A0EE66EE66A960E006E710E016E88
:10247000026A00C0E6FFE66E02C0E6FF3CC1E9FF6B
:102480003DC1EAFFEECFE6FFEFCFE6FF3BEC30F0D9
:10249000036E070EE15E0350120001013F51170A5F
:1024A00001E1B1D0010A01E176D0190A68E0010A20
:1024B00061E0030A5BE0090A55E0060A31E0170A09
:1024C0002BE0010A25E0070A1FE0010A19E0030AD0
:1024D00013E0010A0DE0110A07E0010A01E0CFD084
:1024E0008850010B4FE149D08850020B46E04AD09A
:1024F0008850040B42E046D08850080B3EE042D0A2
:102500008850100B3AE03ED08850200B36E03AD08D
:102510008850400B32E036D08850800B2EE032D00D
:102520004051EA6A340FE96E010EEA22EF5042C1CF
:10253000E9FF43C1EAFFEF6E4051EA6A340FE96EEA
:10254000010EEA22EF5001E19AD0402B000E412308
:102550004051EA6A340FE96E010EEA22EF5001E0C1
:1025600089D08DD08150080B08E00CD08150040B2D
:1025700004E008D08150020B05E1300E06D08150F6
:10258000010B02E0310E01D0300E42C1E9FF43C120
:10259000EAFFEF6E74D04051411114E1F90E006E64
:1025A000680E016E026A00C0E6FFE66E02C0E6FF3A
:1025B000440EE66E010EE66E99EC30F0036E050EE9
:1025C000E15E035001014051EA6A440FE96E010ED9
:1025D000EA22EF5042C1E9FF43C1EAFFEF6E4051EA
:1025E000EA6A440FE96E010EEA22EF5048E0402B00
:1025F000000E41234051EA6A440FE96E010EEA22BF
:10260000EF5038E13CD04051411114E1ED0E006E25
:10261000680E016E026A00C0E6FFE66E02C0E6FFC9
:10262000440EE66E010EE66E99EC30F0036E050E78
:10263000E15E035001014051EA6A440FE96E010E68
:10264000EA22EF5042C1E9FF43C1EAFFEF6E405179
:10265000EA6A440FE96E010EEA22EF5010E0402BC7
:10266000000E41234051EA6A440FE96E010EEA224E
:10267000EF5005E040C1F3FF41C1F4FF1200F368E1
:10268000F4681200030EE66EE66AB50E006E710E77
:10269000016E026A00C0E6FFE66E02C0E6FF58C1A6
:1026A000E6FF59C1E6FFF1EC2FF0036E070EE15E85
:1026B000035000091AE1090EE66EE66AB90E006ED3
:1026C000710E016E026A00C0E6FFE66E02C0E6FF10
:1026D0005AC1E6FF5BC1E6FFF1EC2FF0036E070E77
:1026E000E15E0350000901E1010C000C9A909A92FE
:1026F0009A949A969A989A9A9A9C9A9E8890889276
:10270000889488968898889A889C889E400E9B6EAC
:10271000890EC26E0B0EC16E2F0E926EBE0EC06E73
:10272000F19E200EAC6E900EAB6E200EAF6ED56A91
:10273000F28EF28CC28EC282C2B2FED7C29E12004C
:10274000010118810C01000E046F010E056F0001DC
:10275000F36BF46B0001A00EF26FBBEC39F0C5EC2B
:1027600039F00C01036FEDEC39F0550E0C01035DEF
:1027700025E1010E0001F36FF46B0001A00EF26F72
:10278000BBEC39F00C01036B0351006E016A1D0EA6
:10279000005C000E015810E2C5EC39F0E66E0C0149
:1027A00004CCE9FF05CCEAFF042B000E0523E5521B
:1027B000E750EF6E032BE8D7EDEF39F0E0EF13F0C1
:1027C0000C01000E016F010E026F0001FC6BFD6B2E
:1027D0000001A00EFB6F13EC3AF00001550EFE6FE6
:1027E0001DEC3AF00C01006B0051006E016A1D0EE9
:1027F000005C000E01580EE201CCE9FF02CCEAFFBA
:10280000012B000E0223EFCFFEF01DEC3AF00C017D
:10281000002BEAD72FEF3AF05CC101FC5DC102FC4E
:102820000C01036B5CC1E9FF5DC1EAFFEFCF00FC67
:10283000EF5038E02E0E0C01005D28E101015CC173
:10284000E9FF5DC1EAFF5C2B000E5D23EF6A01CC5E
:10285000E6FF02CCE6FFAEEC35F0E552E552F35070
:10286000E66E5EC100F05FC101F00C010351032B65
:102870000F010024E96E000E0120EA6EE552E750D8
:10288000EF6E5CC101FC5DC102FC07D0300E005D43
:1028900003E30051390801E2000C01015C2B000E3A
:1028A0005D23C0D701CCE6FF02CCE6FFAEEC35F0ED
:1028B000E552E552F350E66E5EC100F05FC101F0F3
:1028C0000C0103510F010024E96E000E0120EA6E95
:1028D000E552E750EF6E030E0C01035D01E0000CC2
:1028E000010CF3EC3BF00009FCE0F8EC3BF00C01D0
:1028F000006F310E005D05E3390E005D02E200510C
:102900001200390C930E006E710E016E026A00C047
:1029100053F2E8CF54F22CEC3CF0300E0101605D34
:10292000FF0FE96EEA6AD890E936EA36220EE92608
:10293000010EEA22EECF00F0EFCF01F0026A00C0F4
:1029400053F201C054F22CEC3CF001016051380A02
:1029500001E1CDD00F0A01E1C8D0010A01E1C2D0E6
:10296000030A01E1BCD0010A5FE0070A58E0010A4E
:1029700051E0030A01E012008F0EE66E0C0EE66EC7
:1029800012C1E6FF13C1E6FF23EC36F0E552E55233
:10299000E552E55202018F0E516F0C0E526F17EC8B
:1029A0003CF0E7EC3BF00009FCE10201290E4D6F21
:1029B000FAEC3BF0E7EC3BF00009FCE102013A0ED7
:1029C0004D6FFAEC3BF0E7EC3BF00009FCE1020153
:1029D000200E4D6FFAEC3BF00201140E146F020151
:1029E0008F0E126F0C0E136F03EC31F0000901E132
:1029F0007FD08F0EE66E0C0EE66EAEEC35F0E55233
:102A0000E552F3CF12F1F4CF13F1F4CF08F1F3CF85
:102A100009F112000C01000EA76F010E09D00C0184
:102A20000E0EA76F010E04D00C010A0EA76F010E47
:102A3000A86FA7CC32F1E8CF33F13BEC10F0E7EC14
:102A40003BF00009FCE10201290E4D6FFAEC3BF06E
:102A5000E7EC3BF00009FCE102013A0E4D6FFAECA5
:102A60003BF0E7EC3BF00009FCE10201200E4D6F6A
:102A7000FAEC3BF00201140E146F02018F0E126F7C
:102A80000C0E136F03EC31F00101A30E5E6F0C0E00
:102A90005F6F01018F0E5C6F0C0E5D6FBDDE000974
:102AA00011E1160E006E730E016E026A00C053F241
:102AB000E8CF54F22CEC3CF0F3EC3BF00009FCE0E6
:102AC000F8EF3BF0A7CCE9FFA8CCEAFFA3CCEEFFE0
:102AD000A4CCEEFFA5CCEEFFA6CCEEFF12000101C8
:102AE0001881120001011891120092EF15F068DEB2
:102AF0001200C30E006E710E016E026A00C053F226
:102B0000E8CF54F22CEC3CF0ECDE0C01AC6F390E4B
:102B1000AC5D03E0ACCC60F1F5DE380E0C01AC5DD1
:102B2000E8E112000C01006B046B49EC35F0F3CFC7
:102B300002FCF4CF03FC9CEC3CF014C087FC15C0F5
:102B400088FC16C089FC17C08AFC9CEC3CF014C0C1
:102B50008BFC15C08CFC16C08DFC17C08EFC870E3C
:102B6000E96E0C0EEA6EEE500C01145C006EEE5035
:102B70001558016EEE501658026EEE501758036E3F
:102B8000320E005C000E0158000E0258000E035871
:102B900014E39CEC3CF014C087FC15C088FC16C004
:102BA00089FC17C08AFCE7EC3BF00009FCE102015C
:102BB000150E4D6FFAEC3BF0887EF3EC3BF000090C
:102BC000C4E00C01045101E07FD0F3EC3BF00009BC
:102BD000F8E0887EF8EC3BF00C01016F0051030A2D
:102BE0002DE0010A28E0030A21E0010502E1010EBF
:102BF00023D0040E015D10E1888E0CEC35F0E7EC7B
:102C00003BF00009FCE10201060E4D6FFAEC3BF0CF
:102C10000C01010E046FD5D7E7EC3BF00009FCE195
:102C20000201150E4D6FFAEC3BF0CBD7060E066F86
:102C3000056B020E01D0030E006FC3D70551052BA3
:102C4000EA6A070FE96E0C0EEA2201CCEFFF05518C
:102C5000006E016A0134B5E200508008000E015494
:102C6000B0E202CC3FF203CC40F24FEC35F00C0165
:102C7000060E066F016B0151006E016AD89001507B
:102C800004E6800E005C000E01580DE20151EA6A74
:102C9000070FE96E0C0EEA22EFCF41F265EC35F03A
:102CA0000C01012BE8D77FEC35F0F3CF02FCF4CF19
:102CB00003FCE7EC3BF00009FCE106CC4DF2FAEC3A
:0A2CC0003BF00C01006B7DD7010C06
:062CCA000C01036B030E78
:102CD000035D26E2500E0001A46FA56BA4EC00F08A
:102CE000E66E0C0103510A0DF3CFE9FFF4CFEAFFC2
:102CF000610EE926010EEA22E552E750EF6E03511C
:102D00000A0DF3CFE9FFF4CFEAFF610EE926010EC9
:102D1000EA22030EE926000EEA22EF6A032BD7D738
:102D200012000C01CA6B030ECA5D06E2CACC7FF129
:102D300004D80C01CA2BF7D7120001017F510A0DEC
:102D4000F3CF81FCF4CF82FC610E0C018127010ED0
:102D50008223686B81CCE9FF82CCEAFFEF5000014F
:102D6000AA6FF8EC01F000090AE181CCE9FF82CCFE
:102D7000EAFF030EE926000EEA22EF6A120081CC78
:102D8000E9FF82CCEAFF030EEB50090A01E10AD207
:102D9000080A01E1E0D10A0A01E11AD1090A01E1B8
:102DA000D5D0020A01E027D281CCE9FF82CCEAFF2C
:102DB000EF500001B96FAFEC04F0000901E11BD244
:102DC0000C01010E686F666B676B0C01640E665D2B
:102DD000000E675917E266CCB7F067CCB8F0662BE7
:102DE000000E6723000E0001B7270C0EB82381CC1C
:102DF000E9FF82CCEAFFEF500001B66F54EC04F01B
:102E00000009E3E1000E0C016625E96E0C0E672156
:102E1000EA6EEF6A81CCE9FF82CCEAFFEF50000155
:102E2000B06FE9EC03F081CCE9FF82CCEAFF030E3E
:102E3000E926000EEA22020EEF6E0C010B0E7F6FE8
:102E400081CCE9FF82CCEAFF090EE926000EEA22D6
:102E5000E9CF88F1EACF89F101017F0E866F0C0E70
:102E6000876F0101690E846F0C0E856F0101000EE2
:102E7000826F0C0E836FE3DA0C01656FE85001E09E
:102E8000BAD17F51010813E27FCC3EF10101690EF6
:102E90003C6F0C0E3D6FACEC11F081CCE9FF82CCA5
:102EA000EAFF090EE926000EEA22030EEF6E69CC56
:102EB0003BF26ACC3CF299EC34F0F3CF00F0F4CF63
:102EC00001F081CCE9FF82CCEAFF010EF3CFEBFFEA
:102ED000020E01C0EBFF81CCE9FF82CCEAFFEE528B
:102EE000FF0EEE180DE1FF0EED180AE181CCE9FFAF
:102EF00082CCEAFF080EE926000EEA22EF6A12D021
:102F000081CCE9FF82CCEAFFEE52EE50ED1014E1E5
:102F100081CCE9FF82CCEAFF080EE926000EEA2206
:102F2000010EEF6E81CCE9FF82CCEAFF030EE926A9
:102F3000000EEA22020E5ED181CCE9FF82CCEAFFCC
:102F4000030EE926000EEA220B0E54D181CCE9FFD4
:102F500082CCEAFFEF500001AD6F31EC03F00009C5
:102F600001E149D181CCE9FF82CCEAFF080EEB50A8
:102F7000E96EEA6AD890E936EA36550EE926020E7D
:102F8000EA22EECF83FCEDCF84FC0C0183CCF6FF6C
:102F900084CCF7FF832B000E84230800F5CF80FC40
:102FA000F5500CE080CCAFF081CCE9FF82CCEAFF99
:102FB000EF500001AE6F6CEC03F0E7D781CCE9FF76
:102FC00082CCEAFFEF500001AC6F89EC02F0E0D058
:102FD00081CCE9FF82CCEAFFEF500001AD6F31EC0C
:102FE00003F0000901E107D10C01010E686F81CCEB
:102FF000E9FF82CCEAFF090EEB50030828E181CCFF
:10300000E9FF82CCEAFF070EE926000EEA22010E54
:10301000EF6E806B8051006E016A840E005C000EC2
:1030200001583CE28051F76A0E0FF66E760EF722D9
:103030000800F5CFAFF081CCE9FF82CCEAFFEF507A
:103040000001AE6F6CEC03F00C01802BE3D781CC58
:10305000E9FF82CCEAFF070EE926000EEA22EF6ABA
:10306000806B8051006E016A1F0E005C000E0158DB
:1030700015E28051F76AEE0FF66E750EF722080022
:10308000F5CFAFF081CCE9FF82CCEAFFEF50000131
:10309000AE6F6CEC03F00C01802BE3D781CCE9FF21
:1030A00082CCEAFF090EEB50140DF3CFF6FFF4CFFC
:1030B000F7FF4E0EF626750EF722F6CF83FCF7CFFC
:1030C00084FC0C0183CCF6FF84CCF7FF832B000E2D
:1030D00084230800F5CF80FCF5500CE080CCAFF0E5
:1030E00081CCE9FF82CCEAFFEF500001AE6F6CECBF
:1030F00003F0E7D7806B8051006E016A040E005C1C
:10310000000E015815E28051F76A930FF66E760EA5
:10311000F7220800F5CFAFF081CCE9FF82CCEAFFBF
:10312000EF500001AE6F6CEC03F00C01802BE3D785
:1031300081CCE9FF82CCEAFF040EE926000EEA22E8
:10314000030EEF6E81CCE9FF82CCEAFFE926000E88
:10315000EA22010E4FD081CCE9FF82CCEAFFEF508A
:103160000001B96FAFEC04F0000909E081CCE9FF80
:1031700082CCEAFFEF500001B06FE9EC03F081CCA4
:1031800080F182CC81F13CD8000935E00CEC35F0BF
:1031900081CCE9FF82CCEAFF030EE926000EEA2289
:1031A000090E28D081CCE9FF82CCEAFFEF50000164
:1031B000AA6FF8EC01F000091EE081CCE9FF82CC97
:1031C000EAFFEF500001AD6F31EC03F0000913E0AE
:1031D00081CCE9FF82CCEAFFEF500001AB6F08EC35
:1031E00002F081CCE9FF82CCEAFF030EE926000E53
:1031F000EA220A0EEF6E0C01685101E0AAD5120016
:1032000080C1E9FF81C1EAFFEE52EECF3DF2EDCF82
:103210003EF213EC35F080C1E9FF81C1EAFF070EF1
:10322000EB50000901E1CED080C1E9FF81C1EAFF86
:10323000EF500001AD6F31EC03F0000901E1EED079
:103240000C01BF6B80C1E9FF81C1EAFF040EEB50A6
:1032500008080AE024EC35F00C01C06F0201361DAD
:1032600003E1371D01E1C2D080C1E9FF81C1EAFF5E
:10327000040EEB50080A52E00E0A29E0030A14E09B
:10328000060A01E08FD0250E0C01C05D0AE180C165
:10329000E9FF81C1EAFF040EE926000EEA22050ECD
:1032A00080D0010EBF6F7ED0250E0C01C05D03E102
:1032B000010EBF6F6DD0C0CCC2FC80C1E9FF81C1DF
:1032C000EAFF040EE926000EEA22060E6AD0C0CC00
:1032D000C1FCC0CC15F2C2CC16F22CEC31F0E66E7B
:1032E00080C1E9FF81C1EAFF080EE926000EEA224B
:1032F000E552E750EF6E80C1E9FF81C1EAFF040E9D
:10330000E926000EEA22080EEF6E80C1E9FF81C1B6
:10331000EAFF050EEB6A060EEB6A44D00101C00E0F
:10332000426F0C0E436F80C1E9FF81C1EAFF050EB9
:10333000E926000EEA22EECF40F1EDCF41F180C147
:10334000E9FF81C1EAFF080EEB5001013F6F4DEC30
:1033500012F0F3CF00F0F4CF01F080C1E9FF81C19A
:10336000EAFF050EF3CFEBFF060E01C0EBFF0C01E9
:10337000010EBF6F80C1E9FF81C1EAFF050EE9269A
:10338000000EEA22FF0EEE180DE1FF0EED180AE125
:1033900080C1E9FF81C1EAFF040EE926000EEA229E
:1033A000030EEF6E0C01BF5101E13ED7C0CCAFF070
:1033B00080C1E9FF81C1EAFFEF500001AE6F6CEC04
:1033C00003F032D780C1E9FF81C1EAFFEF5000016D
:1033D000AD6F31EC03F0000921E024EC35F00C0175
:1033E000C06F0201361D0EE1371D0CE142EC35F0D5
:1033F00080C1E9FF81C1EAFFEF500001AC6F89ECA9
:1034000002F0010CC0CCAFF080C1E9FF81C1EAFF3E
:10341000EF500001AE6F6CEC03F0D4D742EC35F006
:10342000F3CF00F0F4CF01F080C1E9FF81C1EAFFE2
:10343000010EF3CFEBFF020E01C0EBFF000C0C01FD
:10344000866B886B896B856B030EE66EE66A980E59
:10345000006E760E016E026A00C0E6FFE66E02C0E4
:10346000E6FF82C1E6FF83C1E6FFF1EC2FF0036EB9
:10347000070EE15E0350000908E1040E01018227F6
:10348000000E83230C01876B01D0020C82C1E9FF7F
:1034900083C1EAFFEF50200805E10101822B000EF5
:1034A0008323F4D782C1E9FF83C1EAFFEFCF8AFC0F
:1034B000200E0C018A5D01E195D08A5101E192D084
:1034C0000D0E8A5D01E18ED00A0E8A5D01E18AD07F
:1034D00086C1E9FF87C1EAFFEF50855D01E382D035
:1034E0008651020A30E0030A1DE0010A76E18551A7
:1034F000020D01018451F324E96E8551F420EA6E36
:1035000082C1EEFF83C1EDFF82C1E9FF83C1EAFF03
:10351000EFCF8AFC2F0E0C018A5D41E05C0E8A5DC4
:103520005CE13DD08551852B020D01018451F324CE
:10353000E96E8551F420EA6E82C1EEFF83C1EDFF92
:103540000C01020E866F82C1E9FF83C1EAFFEFCF53
:103550008AFC3F0E8A5D1EE0260E8A5D1BE02B0E64
:103560008A5D07E1200E82C1E9FF83C1EAFFEF6EA9
:1035700034D02E0E8A5D0BE1850509E10101822B15
:10358000000E832382C188FC83C189FC26D03D0EB6
:103590008A5D08E182C1E9FF83C1EAFFEF6A010E9B
:1035A000866F1BD02F0E8A5D03E05C0E8A5D15E1ED
:1035B000010E0101016A8225006E835101220C0176
:1035C0008505020D01018451F324E96E8551F42033
:1035D000EA6E00C0EEFF01C0EDFF0101822B000E7C
:1035E000832360D782C1E9FF83C1EAFFEF6A070E38
:1035F00088C1E9FF89C1EAFFEF6E8851891142E075
:1036000088CCE6FF89CCE6FFEEEC30F0E552E552DF
:10361000F3CF88FCF4CF89FC0C012E0E8B6F750E56
:103620008C6F8A6B8A51006E016A080E005C000E76
:10363000015828E2030EE66EE66A8BCC00F08CCCD3
:1036400001F0026A8BCCE6FF8CCCE6FF02C0E6FFFD
:1036500088CCE6FF89CCE6FFF1EC2FF0036E070E75
:10366000E15E0350000907E188C1E9FF89C1EAFF73
:103670008ACCEFFF07D0040E0C018B27000E8C23A1
:103680008A2BD0D70C01855130E1090EE66EE66A2F
:103690009C0E006E760E016E026A00C0E6FFE66EBA
:1036A00002C0E6FF84C1E9FF85C1EAFFEECFE6FF75
:1036B000EFCFE6FF3BEC30F0036E070EE15E035008
:1036C00084C1E9FF85C1EAFFEE50EFCFEAFFE96E62
:1036D000090EE926000EEA22EF6A010E88C1E9FF11
:1036E00089C1EAFFEF6E0C01852B86C1E9FF87C116
:0A36F000EAFF85CCEFFF87511200BE
:0636FA0089908992929074
:1037000092920E01FE8B0E01FDA1FDD70A0EE66E10
:10371000B3EC3CF0E5520C01056B070E0C01055DA6
:103720003EE20C010551006E016A480E0102F3CF22
:1037300001F0020E0002F3500126480E0002F3CF02
:1037400000F0F4500126026A036A080E0026100EEB
:103750000122000E0222000E03220C010551050D6C
:10376000F3CFE9FFF4CFEAFF000EE9260F0EEA22BD
:1037700000C0EEFF01C0EDFF0C010551050DF3CFB8
:10378000E9FFF4CFEAFF000EE9260F0EEA22040E4D
:10379000E926000EEA22EF800C01052BBED70F01AF
:1037A000236B0F01010E296F0F01256B266B0E0194
:1037B000E86BE96B0E01070EEC6F0E01100EED6F5A
:1037C0000E01070EEA6F100EEB6F0E01080EE46F8C
:1037D000100EE56F0E010D0EA06F00000E01320EEF
:1037E000A26F00000E01400EA36F00000E013F0EFD
:1037F000A96F00000E01120EA66F00000E010C0E44
:10380000A76F00000E01EE0EAA6F00000E01050E5C
:10381000AB6F000004C184FE000005C185FE0000FE
:1038200006C182FE000007C183FE000008C180FEC1
:10383000000009C181FE00000F01506B010E516FA5
:103840000F01100E4F6FD1DB0F01720E506F040E7F
:10385000516F0F01140E4F6FC8DB0F01526BD2DB9B
:103860000E01DF8512000F01010E4E6FA6DBF35033
:10387000040B01E0010E12000F012A5106E00E01B7
:10388000DF51080B080A25E0010C2451235D06E1F5
:103890000E01DF51080B080A1CE0010C0C01010E9F
:1038A000AB6F070EAB5D14E2AB51050DF3CFE9FF33
:1038B000F4CFEAFF000EE9260F0EEA22040EE926F5
:1038C000000EEA22EF50010B01E0010CAB2BE9D70F
:1038D000000E12000F012B5106E00E01DF51080B04
:1038E00001E1000CFF0C0C01010EAB6F070EAB5D8C
:1038F00033E2AB51050DF3CFE9FFF4CFEAFF000E41
:10390000E9260F0EEA22040EE926000EEA22EF5005
:10391000010B20E0AB51050DF3CFE9FFF4CFEAFF37
:10392000000EE9260F0EEA22040EE926000EEA2216
:10393000EF90AB51050DF3CFE9FFF4CFEAFF000E96
:10394000E9260F0EEA22040EE926000EEA22EF9283
:10395000AB511200AB2BCAD7FF0C0F012C5107083B
:1039600011E32C51050DF3CFE9FFF4CFEAFF000E70
:10397000E9260F0EEA22040EE926000EEA22EF8065
:103980002CCF23FF12000F01295101E01200010E7C
:10399000296F25CF87FC26CF88FC0C01875F000E9E
:1039A000885B87CC00F088CC01F0026A036AD8807B
:1039B000070E0054100E0154000E0254000E035462
:1039C00004E2070E876F100E886F0E01FE8D87CC04
:1039D000ECFE88CCEDFE0E01FC9D1200D9CEABFCB6
:1039E000EECEADFCEFCEAEFC0C01AB510E01D95DBD
:1039F000F5E1ECCEABFCEDCEACFC0C01AD51AB5D1A
:103A0000AE51AC5911E2070E046E100E056EAB51AB
:103A1000AD5D086EAE51AC55096E0850045C006E89
:103A200009500558016E14D0AB51AD1908E1AC51E5
:103A3000AE1905E1070EF36E100EF46E1200AD51D3
:103A4000AB5D006EAC51AE55016E0006000E015A22
:103A500000C0F3FF01C0F4FF12000E01D95102E1D2
:103A6000000E85D00F01295103E18DDF000E7FD0BC
:103A700025CF27FF26CF28FF25CFE0FE26CFE1FE6A
:103A8000140E0F01476F486B0F01000E456F0C0EAF
:103A9000466F5BDA12CC19F213CC1AF264EC31F0F7
:103AA000F3CF12FCF4CF13FC00CC00F001CC01F0FA
:103AB000026A036AD880070E0054100E0154000EEB
:103AC0000254000E03541BE30C010C010051010BC6
:103AD00016E10C010C010551800B11E10C010C01E8
:103AE0000451100B0CE10C01EE0ED8800255050EAE
:103AF000035505E30C010C010451800B01E1FF00AB
:103B000000CC25FF01CC26FF060EE66EE66A0C0E01
:103B1000E66E0C0EE66E2DCFE9FF2ECFEAFFE9CF61
:103B200000F0EACF01F000C0E6FF01C0E6FF10ECB4
:103B300030F0026E060EE15E02502FCFE9FF30CF6B
:103B4000EAFFEF68080E0C01135D0DE10C01125144
:103B500004E0060E0C01125D06E12FCFE9FF30CF25
:103B6000EAFF12CCEFFF0F01296B010E00D012000B
:103B70000F012351050DF3CFE9FFF4CFEAFF000E4B
:103B8000E9260F0EEA22EECFE2FEEDCFE3FE23514F
:103B9000050DF3CFE9FFF4CFEAFF000EE9260F0E83
:103BA000EA22EECF00F0EFCF01F00E0E0026000E5D
:103BB000012200503427015035232351050DF3CF46
:103BC000E9FFF4CFEAFF000EE9260F0EEA22020E0B
:103BD000E926000EEA2234CFEEFF35CFEDFF0F01CC
:103BE000496BD2D9060E0F014C6F4D6B31CF4AFF96
:103BF00032CF4BFFCCD9060E0F014C6F4D6B0F012E
:103C0000040E4A6F010E4B6FC2D90F01080E496FA7
:103C1000BBD90F01335102E1000E01D0060E0F0196
:103C2000496FC4EF1FF00F012351050DF3CFE9FFDA
:103C3000F4CFEAFF000EE9260F0EEA22EECFE4FEF3
:103C4000EDCFE5FE2351050DF3CFE9FFF4CFEAFFF9
:103C5000000EE9260F0EEA22020EE926000EEA22E5
:103C6000EECFE6FEEDCFE7FE23CF24FF2351050D77
:103C7000F3CFE9FFF4CFEAFF000EE9260F0EEA22A8
:103C8000040EE926000EEA22EF820E01FCA304D006
:103C9000FC930E01DF8FDF9F0E01DF871200140EF1
:103CA0000F01016A2725006E285101220050362598
:103CB0000C01876F01500F0137210C01886F87CCF1
:103CC00000F0016E026A036AD880070E0054100EDD
:103CD0000154000E0254000E035404E2080E875FE4
:103CE000100E885B87CCE0FE88CCE1FE87CCE2FE3C
:103CF00088CCE3FE120038CF23FF0F013851050DA9
:103D0000F3CFE9FFF4CFEAFF000EE9260F0EEA2217
:103D1000EECF00F0EFCF01F0010E0026000E0122E1
:103D20000E0E0026000E01220050392701503A23C2
:103D300039CFE0FE3ACFE1FE39CFE2FE3ACFE3FEE3
:103D40001200140E0F01016A2725006E285101226E
:103D500000503B250C012C6F01500F013C210C0140
:103D60002D6F2CCC00F0016E026A036AD880070E1A
:103D70000054100E0154000E0254000E035404E2CD
:103D8000080E2C5F100E2D5B2CCCF0FE2DCCF1FE1E
:103D90003DCF00F03ECF01F00006000E015A00506A
:103DA0002C2701502D232CCC00F02DCC01F0026AE1
:103DB000036AD880070E0054100E0154000E0254FE
:103DC000000E035404E2080E2C5F100E2D5B2CCC69
:103DD000F2FE2DCCF3FE0E01DF89DF8BDFBBFED7B9
:103DE000F6CE2DFCF7CE2CFC2CCCF3FF2DCCF4FF23
:103DF00012000F012351050DF3CFE9FFF4CFEAFFC5
:103E0000000EE9260F0EEA22EECF00F0EFCF01F010
:103E10000E0E0026000E012200503F250C01C36F3C
:103E200001500F0140210C01C46F010EC327000E89
:103E3000C423C3CCF0FEC4CCF1FE41CF00F042CF8E
:103E400001F00006015A0050C3270150C423C3CC1F
:103E5000F2FEC4CCF3FE0E01DF89DF8BDFBBFED7A1
:103E6000F6CEC4FCF7CEC3FCC3CCF3FFC4CCF4FF46
:103E700012000F014351441103E1F368F46812008A
:103E8000010E43190CE144510AE15CD8016E006A4D
:103E9000001E011E00C0F3FF01C0F4FF1200E0CEBF
:103EA000ABFCE1CEACFCE0CEF0FEE1CEF1FEE0CE2C
:103EB00000F0E1CE01F0026A036AD880070E0054D8
:103EC000100E0154000E0254000E035421E343CFA0
:103ED00000F044CF01F00006000E015A00500C0122
:103EE000AB270150AC23ABCC00F0ACCC01F0026AA4
:103EF000036AD880070E0054100E0154000E0254BD
:103F0000000E035411E2080EAB5F100EAC5B0CD038
:103F100043CF00F044CF01F00006000E015A0050DC
:103F20000C01AB270150AC23ABCCF2FEACCCF3FEC2
:103F30000E01DF89DF8BDFBBFED7F6CEF3FFF7CEB6
:103F4000F4FF12000E01FA51120047CF2CFC48CFAB
:103F50002DFC0C012CCC00F02DCC01F02C07000E18
:103F60002D5B005001100BE00F0145CFE9FF46CF5C
:103F7000EAFF452B000E4623FACEEFFFEAD747CFE4
:103F8000F3FF48CFF4FF120049CFFAFE12000F01F1
:103F90004CCF00F04DCF01F04C07000E4D5B0050B0
:103FA00001100AE04ACFE9FF4BCFEAFF4A2B000E8F
:103FB0004B23EFCFFAFEEBD712004ECFB4FE00003A
:103FC0000E01010EB26F00000E018AB1FDD70E0185
:103FD000B26B0000B8CE03FC0000B9CE04FC03CCE9
:103FE000F3FF04CCF4FF00D012004FCFB4FE00006A
:103FF00050CFB6FE000051CFB7FE00000E018AB1CF
:10400000FDD712000E01DF950E01DF970F014E6BF9
:10401000D4DFF3CF00FCF4CF01FC0F0152510C01AF
:104020000191E8B0018100CC50FF01CC51FF0F019C
:104030004F6BDBDFA2CE02FC0C0102910F0152514B
:1040400002E00C01028102CCA2FE00000F015251DD
:1040500002E0150E01D0120E0E01A46F0E01DF85D5
:1040600012000E01DF950E01FDB5FDD70E01DFB781
:10407000FDD70E01FE9B12000E01FE8BE80EE66ED0
:0C408000CFEC3CF0E5520E01DF85120091
:04408C00080E020117
:10409000595D01E11200FF0E5A5D04E05AC293F02F
:1040A00053EC25F002015A69596B5C6B5B9112006D
:1040B00002015951070A01E122D1010A01E1C4D0EC
:1040C000030A01E1A5D0010A01E179D0070A51E014
:1040D000010A33E0030A08E0010A01E012000101CD
:1040E000D76BD86BD96BDA6B0C0100690169026977
:1040F0000369046905690669076908690969430E66
:104100000001916F926B0001000E8F6F0C0E906F8B
:10411000440E00018D6F8E6BEAEC24F002015A6FA1
:104120009CEC3CF014C0E3F115C0E4F116C0E5F1DD
:1041300017C0E6F10201020E596F9CEC3CF0010140
:10414000E351145C006EE4511558016EE5511658A8
:10415000026EE6511758036E140E005C000E0158F3
:10416000000E0258000E035801E21ED10201030E98
:1041700069D001013C0ED36FD46BD56BD66B0201B5
:104180005BA102D0050E5ED05AC28CF00F01010E69
:104190002A6F3CEC1CF0000901E106D10101010E7F
:1041A000E76FF8DA9CEC3CF014C0E3F115C0E4F1E1
:1041B00016C0E5F117C0E6F10201040E43D09CECF5
:1041C0003CF00101E351145C006EE4511558016E9E
:1041D000E5511658026EE6511758036EC80E005C82
:1041E000000E0158000E0258000E035803E30201AE
:1041F000030E596F5AC295F07FEC26F0000901E1D9
:10420000D3D0D3D8020801E0CFD00201050E596FF8
:104210005AC28CF00F01010E2A6F3CEC1CF0000911
:1042200001E1C2D00101030EE76FB4DA9CEC3CF06F
:1042300014C0E3F115C0E4F116C0E5F117C0E6F1D2
:104240000201060E596F12005AC295F07FEC26F05B
:10425000000939E0AAD80C010A6F060E0A5D02E1D6
:1042600046EF20F0050E0A5D49E15AC293F053EC87
:1042700025F002015A699CEC3CF014C0E3F115C032
:10428000E4F116C0E5F117C0E6F10201070E596F1F
:10429000D7C100F1D8C101F1D9C102F1DAC103F1EE
:1042A000DFC10AF1E0C10BF1E1C10CF1E2C10DF196
:1042B000DBC10EF1DCC10FF1DDC110F1DEC111F186
:1042C0005B815C2B12009CEC3CF00101E351145C1F
:1042D000006EE4511558016EE5511658026EE65114
:1042E0001758036EC80E005C000E0158000E0258ED
:1042F000000E035859E30201030E596F12009CECA3
:104300003CF00101E351145C0C010B6F0101E4511D
:1043100015580C010C6F0101E55116580C010D6F79
:104320000101E65117580C010E6F640E0B5D000E73
:104330000C59000E0D59000E0E5936E30101D3073A
:10434000000ED45BD55BD65B640E0C010B5F000ED8
:104350000C5B0D5B0E5B0101D351D411D511D6114D
:1043600003E10201010E596F640E0C010B5D000E9A
:104370000C59000E0D59000E0E59E0E29CEC3CF079
:104380000C010B51145C0101E36F0C010C51155829
:104390000101E46F0C010D5116580101E56F0C018C
:1043A0000E5117580101E66F12000C01126B00014B
:1043B0000F0E966F0C0E976F97EC26F0020E0C0105
:1043C0000F5D01E0C0D1106B0F0E105D0AE200011D
:1043D0000F0E966F0C0E976F97EC26F00C01102BBA
:1043E000F3D702015BA30FD00C01106B040E105D1C
:1043F00026E200010F0E966F0C0E976F97EC26F0D9
:104400000C01102BF3D70001D70E966F010E976F9A
:1044100097EC26F00001D80E966F010E976F97EC7F
:1044200026F00001D90E966F010E976F97EC26F0DB
:104430000001DA0E966F010E976F97EC26F00C01D3
:10444000106B080E105D0AE200010F0E966F0C0E45
:10445000976F97EC26F00C01102BF3D7106B060E1C
:10446000105D14E200010F0E966F0C0E976F97EC23
:1044700026F00C011051EA6A040FE96E010EEA22DF
:10448000EF500F5D01E083D1102BE9D7106BCE0EFA
:10449000105D0AE200010F0E966F0C0E976F97ECFD
:1044A00026F00C01102BF3D7136B00010F0E966F43
:1044B0000C0E976F97EC26F0000904E10C01010E39
:1044C000136F41D10C010F51330A01E1DAD0CC0A4C
:1044D00001E1D4D0C90A01E1A8D0350A5BE0020AA3
:1044E00020E0340A01E01AD100010F0E966F0C0E85
:1044F000976F97EC26F00C010F0501E048D1000101
:10450000120E966F0C0E976F97EC26F002015B511E
:10451000020B01E114D1020E0C01125D01E00FD17A
:1045200036D100010F0E966F0C0E976F97EC26F0A8
:10453000040E0C010F5D01E02AD102015BA310D033
:104540000C01106B040E105D01E3F9D000010F0E99
:10455000966F0C0E976F97EC26F00C01102BF2D78C
:104560000001DF0E966F010E976F97EC26F00001A9
:10457000E00E966F010E976F97EC26F00001E10EAA
:10458000966F010E976F97EC26F00001E20E966F82
:10459000010E70D00001110E966F0C0E976F97EC04
:1045A00026F0040E0C01115D01E2F1D002015BA3C3
:1045B0000FD00C01106B040E105D26E200010F0EEF
:1045C000966F0C0E976F97EC26F00C01102BF3D71B
:1045D0000001DB0E966F010E976F97EC26F000013D
:1045E000DC0E966F010E976F97EC26F00001DD0E42
:1045F000966F010E976F97EC26F00001DE0E966F16
:10460000010E976F97EC26F0040E0C01115F0C0160
:1046100011511107000901E192D000010F0E966FB0
:104620000C0E976F97EC26F0F2D700010F0E966FE5
:104630000C0E976F97EC26F0040E0C010F5D01E055
:10464000A6D00001170E966F0C0E976F97EC26F010
:104650000001160E966F0C0E976F97EC26F0000176
:10466000150E966F0C0E976F97EC26F00001140E46
:10467000966F0C0E976F97EC26F061D0010E136FBA
:104680005ED000010F0E966F0C0E976F97EC26F020
:10469000040E0C010F5D01E07AD002015BA30FD084
:1046A0000C01106B040E105D4AE200010F0E966FB4
:1046B0000C0E976F97EC26F00C01102BF3D700012E
:1046C000D60E966F010E976F97EC26F00001D50E6F
:1046D000966F010E976F97EC26F00001D40E966F3F
:1046E000010E976F97EC26F00001D30E966F010E26
:1046F000976F97EC26F0D880080E0101D355070E6E
:10470000D455000ED555000ED65519E2080ED35FCC
:10471000070ED45B000ED55BD65B11D00001110EE5
:10472000966F0C0E976F97EC26F00C011151110744
:10473000000905E000010F0E966F0C0EF3D70C0177
:10474000135101E1B2D6020E125D0BE114CCCFF190
:1047500015CCD0F116CCD1F117CCD2F102015B838C
:1047600011D0CF0EE96E010EEA6EEE50141908E179
:10477000EE50151905E1EE50161902E1EE50171929
:1047800001E0126BFCEC26F00C0112511200FCEC63
:1047900026F0000C0001010E946F65EC25F000017D
:1047A000010E946F65EC25F00001060E946F65EC28
:1047B00025F00001946B65EC25F00001120E946F5A
:1047C00065EC25F00001230E946F65EC25F00001E7
:1047D000340E946F65EC25F00001560E946F65EC75
:1047E00025F00001946B65EC25F00001946B65ECFD
:1047F00025F00001800E946F65EC25F00001946BAC
:1048000065EC25F00001946B65EC25F00001946BDC
:1048100065EC25F00001946B65EC25F00001946BCC
:1048200065EC25F00C011D6B0C0E1D5D07E200010F
:10483000946B65EC25F00C011D2BF6D704C194F0A8
:1048400065EC25F005C194F065EC25F006C194F007
:1048500065EC25F007C194F065EC25F008C194F0F3
:1048600065EC25F009C194F065EC25F00C011D6B99
:10487000CA0E1D5D07E20001946B65EC25F00C018A
:104880001D2BF6D70001630E946F65EC25F0000137
:10489000820E946F65EC25F00001530E946F65EC69
:1048A00025F00001630E946F65EC25F00001350ED4
:1048B000946F65EC25F00001010E946F65EC25F016
:1048C000E7C194F065EC25F00101E70502E1020182
:1048D0005B930101E7051FE0D751D811D911DA1117
:1048E0001AE00001360E946F65EC25F00001040E0D
:1048F000946F65EC25F0D2C194F065EC25F0D1C140
:1049000094F065EC25F0D0C194F065EC25F0CFC1B2
:1049100094F065EC25F00001370E946F65EC25F0FE
:104920000001020E946F65EC25F00001010E946FFA
:1049300065EC25F00001030E946F65EC25F0030E85
:104940000101E75D1AE10001320E946F65EC25F07C
:104950000001040E946F65EC25F0D7C194F065EC6E
:1049600025F0D8C194F065EC25F0D9C194F065EC40
:1049700025F0DAC194F065EC25F00001946965EC4E
:0649800025F0EDEF25F02B
:0A4986000C01006B020E005D21E23F
:104990000051160DF3CFE9FFF4CFEAFF600EE926D0
:1049A000000EEA220C0EE926000EEA22EE6AED6AFB
:1049B0000051160DF3CFE9FFF4CFEAFF600EE926B0
:1049C000000EEA22150EE926000EEA22EF90002BD7
:1049D000DCD712000C01600E106F000E116F0F6B10
:1049E000020E0F5D5FE210CCE9FF11CCEAFF0C0E66
:1049F000E926000EEA22EECF00F0EFCF01F0026AC6
:104A0000036A005001100210031046E110CCE9FFC8
:104A100011CCEAFF0C0E8DC0EBFF0D0E8EC0EBFF2C
:104A200000018F51901119E00A0EE66EE66A8FC000
:104A3000E6FF90C0E6FF10CCE9FF11CCEAFF10CCF6
:104A400000F011CC01F010CCE6FF11CCE6FF10EC29
:104A500030F0026E060EE15E025010CCE9FF11CC80
:104A6000EAFF0A0E91C0EBFF0B0E92C0EBFF10CCD9
:104A7000E9FF11CCEAFF0E0EEB6A0F0EEB6A10CCC9
:104A8000E9FF11CCEAFF100EEB6A110EEB6A0FCCB6
:104A90008CF00C010F511200160E1027000E11237E
:104AA0000F2B9ED7FF0C00019351160DF3CFE9FF9A
:104AB000F4CFEAFF600EE926000EEA220C0EE9268A
:104AC000000EEA22EE6AED6A120000018C51160D0A
:104AD000F3CF19FCF4CF1AFC600E0C011927000E5D
:104AE0001A2319CCE9FF1ACCEAFF0E0EE926000EB4
:104AF000EA22EE50ED1030E10F01010E2B6F6AEC4F
:104B00001CF0E66E19CCE9FF1ACCEAFF120EE9267A
:104B1000000EEA22E552E750EF6E19CCE9FF1ACCFD
:104B2000EAFF120EEB50FF0801E1000C1C0E0F0112
:104B3000396F3A6B19CCE9FF1ACCEAFF120EEB5031
:104B40000F01386F7BEC1EF019CCE9FF1ACCEAFF9D
:104B5000130EEB6A140EEB6A94C049FFC4EC1FF00D
:104B600019CCE9FF1ACCEAFF130EE926000EEA225F
:104B7000EECF00F0EDCF01F0EE2AEF2219CCE9FFE5
:104B80001ACCEAFF0E0EE926000EEA22EECF02F062
:104B9000EFCF03F00250005C035001580AE319CC38
:104BA000E9FF1ACCEAFF0E0EE926000EEA22EE2AF1
:104BB000EF2219CCE9FF1ACCEAFF0E0EE926000E0F
:104BC000EA22EECF1BFCEDCF1CFC0C01160E1B5D88
:104BD000020E1C5901E301D8010C0F01010E2A6FCE
:104BE0003CEC1CF00009F9E000018C51160DF3CFEC
:104BF00017FCF4CF18FC600E0C011727000E1823C9
:104C000017CCE9FF18CCEAFF0C0EE926000EEA22C9
:104C1000EECF19F2EDCF1AF264EC31F0F3CF0FFCC6
:104C2000F4CF10FC17CCE9FF18CCEAFF0A0EE926F6
:104C3000000EEA22EECF19F2EDCF1AF264EC31F059
:104C4000F3CF11FCF4CF12FC17CCE9FF18CCEAFF2C
:104C50000E0EE926000EEA22EECF13FCEFCF14FC75
:104C6000080E0C011327000E1423156B166B140E7F
:104C70000F01396F3A6B17CCE9FF18CCEAFF120E1F
:104C8000EB500F01386F7BEC1EF013CC0CF214CC00
:104C90000DF20201110E0B6F17CCE9FF18CCEAFFE1
:104CA00017CC09F218CC0AF28CEC2DF013CC19F2C7
:104CB00014CC1AF264EC31F0F3CF13FCF4CF14FCF3
:104CC000080E0F014C6F4D6B0F010F0E4A6F0C0E4B
:104CD0004B6FC7EC1FF013EC1EF017CCE9FF18CC9C
:104CE000EAFF120EE926000EEA22EF6817CCE9FF70
:104CF00018CCEAFF0E0EEB6A0F0EEB6A120095C09D
:104D00008CF000018C51160DF3CFE9FFF4CFEAFFD0
:104D1000600EE926000EEA22100EE926000EEA22B5
:104D2000D880EE54000EED5401E3000C010C00019C
:104D30008C51160DF3CFE9FFF4CFEAFF600EE926A0
:104D4000000EEA22100EE926000EEA22EE50ED10C7
:104D500001E1000C8C51160DF3CFE9FFF4CFEAFF0F
:104D6000600EE926000EEA22150EE926000EEA2260
:104D7000EF50010B15E08C51160DF3CFE9FFF4CF86
:104D8000EAFF600EE926000EEA22150EE926000E63
:104D9000EA22EF90080E02010E6F0F6B18EC2EF056
:104DA000A2EC1FF096C0E9FF97C0EAFFEF6E00018A
:104DB0008C51160DF3CFE9FFF4CFEAFF600EE92620
:104DC000000EEA22100EE926000EEA22EE06EF5A45
:104DD0008C51160DF3CFE9FFF4CFEAFF600EE92600
:104DE000000EEA22100EE926000EEA22EE50ED1027
:104DF00002E1C3EC1CF0010C00018C51160DF3CF45
:104E0000E9FFF4CFEAFF600EE926000EEA22100E59
:104E1000E926000EEA22EE50ED1002E0C3EC1CF091
:104E200000018C51160DF3CFE9FFF4CFEAFF600EBD
:104E3000E926000EEA22100EE926000EEA22EE6AAA
:104E4000ED6A1200080E0F01476F486B0F01000E4C
:104E5000456F0C0E466FA5EC1FF000CC19F201CC8B
:104E60001AF264EC31F0F3CF00FCF4CF01FC02CC79
:104E700019F203CC1AF264EC31F0F3CF02FCF4CF58
:104E800003FC04CC19F205CC1AF264EC31F0F3CF38
:104E900004FCF4CF05FC0C01080E045F000E055B5A
:104EA0000651071101E188D006CC19F207CC1AF29D
:104EB00064EC31F0F3CF06FCF4CF07FC98C0E9FFB7
:104EC00099C0EAFF060EE926000EEA22EECF09FCA1
:104ED000EECF0AFCEECF0BFCEFCF0CFC9AC0E9FF43
:104EE0009BC0EAFFEFCF0DFC010EE926000EEA227F
:104EF000EFCF0EFC9AC0E9FF9BC0EAFF020EE92645
:104F0000000EEA22EFCF0FFC9AC0E9FF9BC0EAFF38
:104F1000030EE926000EEA22EFCF10FC0C01116B04
:104F2000110E126F9CC013FC9DC014FC9CC019F2A2
:104F30009DC01AF264EC31F0F3CF13FCF4CF14FCF3
:104F40000C0E0201216F226B0201090E1F6F0C0E65
:104F5000206FC4EC31F0F3CF15FCF4CF16FC0C013C
:104F6000151F161F060E02010E6F0F6B18EC2EF0A8
:104F700015CC49FFC4EC1FF0070E02010E6F0F6B3A
:104F800018EC2EF016CC49FFC4EC1FF002010E6B9A
:104F90000F6B18EC2EF09CC043FF9DC044FF39EC12
:104FA0001FF0F3CF15FCF4CF16FC0C010651F318DB
:104FB00016E10751161913E19AC0A2F09BC0A3F0A5
:104FC00098C0A0F099C0A1F00001000E9E6F0C0ED9
:104FD0009F6F2AD80C01086FFF0E085D03E1C3EC38
:104FE0001CF0010C0851160DF3CFE9FFF4CFEAFFD6
:104FF000600EE926000EEA22100EE926000EEA22D3
:1050000004CCEEFF05CCEDFF0851160DF3CFE9FF00
:10501000F4CFEAFF600EE926000EEA22150EE9261B
:10502000000EEA22EF80010C0C011869600E196F66
:10503000000E1A6F176B020E175D01E38CD019CCAE
:10504000E9FF1ACCEAFF0C0EE926000EEA22EECFA9
:1050500000F0EFCF01F09EC0E9FF9FC0EAFF020E13
:10506000E926000EEA22EECF02F0EFCF03F0025065
:1050700000186AE10350011867E119CCE9FF1ACC66
:10508000EAFF0A0EE926000EEA22EECF00F0EFCF8B
:1050900001F09EC0E9FF9FC0EAFFEECF02F0EFCF24
:1050A00003F0025000184EE1035001184BE119CCF7
:1050B000E9FF1ACCEAFF100EE926000EEA22EECF35
:1050C00004F0EFCF05F0066A076A045005100610D9
:1050D000071038E1A0C0E9FFA1C0EAFF060EE926EB
:1050E000000EEA22EECF00F0EECF01F0EECF02F09C
:1050F000EFCF03F019CCE9FF1ACCEAFF060EE92640
:10510000000EEA22EE500001001808E1EE500118EE
:1051100005E1EE50021802E1EE50031810E0A2C0C3
:10512000E9FFA3C0EAFFE868EE180CE1E868EE18B2
:1051300009E1E868EE1806E1E868EE1803E10C0101
:105140001751120017CC18FC0C01160E1927000E6F
:105150001A23172B70D7FF0E185D35E01851160D66
:10516000F3CF19FCF4CF1AFC600E1927000E1A2396
:105170000A0EE66EE66AA0C0E6FFA1C0E6FF19CC03
:10518000E9FF1ACCEAFF19CC00F01ACC01F019CCD7
:10519000E6FF1ACCE6FF10EC30F0026E060EE15E80
:1051A00002509EC0E9FF9FC0EAFFEECF00F0EFCFB4
:1051B00001F019CCE9FF1ACCEAFF0A0E00C0EBFFA0
:0C51C0000B0E01C0EBFF0C011851120097
:0451CC00150E0001BB
:1051D000A46FA56BA4EC00F00E01016F056B346B9E
:1051E000006B140E036F046B120001CEAAF0F8ECF2
:1051F00001F0000908E10E01346B070E076F056B23
:10520000006B066B010C01CEB9F0AFEC04F00009A5
:105210003EE09CEC3CF014C044FE15C045FE16C0B8
:1052200046FE17C047FE0001000EB76F0C0EB86FA8
:1052300001CEB6F054EC04F000090FE00E01345139
:10524000342BEA6A130FE96E0E0EEA2200CCEFFF50
:105250001F0E345DE8E1346BE6D701CEB0F0E9EC27
:1052600003F00A0E0C01005D48E10E013451EA6AB8
:10527000130FE96E0E0EEA22EF6A346B0ADA35CEAE
:105280004BFE36CE4CFECCD90E01076F36D00E0148
:10529000055133E09CEC3CF014C001FC15C002FC4D
:1052A00016C003FC17C004FC440EE96E0E0EEA6E35
:1052B000EE500C01145C016FEE501558026FEE5069
:1052C0001658036FEE501758046F500E015D460ECE
:1052D0000259000E0359000E04590FE39CEC3CF0F8
:1052E00014C044FE15C045FE16C046FE17C047FE5A
:1052F0000E01020E076F010E056F0E010551010A26
:1053000043E0050A0DE0040A5DE1086B9CEC3CF00B
:1053100014C044FE15C045FE16C046FE17C047FE29
:1053200001CEADF031EC03F0000901E1010C08CE33
:10533000E9FFEA6AE9BEEA68D890E936EA36B90ECA
:10534000E926010EEA22EECF05FCEDCF06FC0C01AA
:1053500005CCF6FF06CCF7FF052B000E0623080050
:10536000F5CF00FCF55007E000CCAFF001CEAEF079
:105370006CEC03F0ECD701CEACF089EC02F00E013E
:105380000B0E086F010E056F070E075D1BE007CEC1
:105390004AFE19D800090FE00B0E0E01085D03E06C
:1053A000040E056F04D0020E075D01E1056B070EC8
:1053B000076F066B010C0B0E0E01085D03E0040E77
:1053C000056FAED7010C0E014A51050A51E0060ADD
:1053D0004DE0070A34E0060A30E0030A18E0010A4B
:1053E00051E100810093010E086F0A0EE66EE66A35
:1053F00037CEE6FF38CEE6FF090EE66E0E0EE66EFD
:10540000C0EC30F0006E060EE15E0050010C00A111
:1054100012D037CE5AF138CE5BF10101090E586F28
:105420000E0E596F42EC13F0000904E00E010083E8
:10543000020E29D00E01060E26D045EF2AF03FCEEF
:10544000E6FF40CEE6FFAEEC35F0E552E552F3CF95
:1054500004FE41CEE6FF42CEE6FFAEEC35F0E5526B
:10546000E552F3CF03FE0E010A0E0DD07BEF2AF0BA
:105470000A0E086FFE0E025D07E002CEABF008ECEC
:1054800002F0010C050E086F010C0E010651030A13
:1054900021E0020A14E0010A2DE1020E065D02E19C
:1054A0000CEC35F0FE0E0E01025D0FE00CEC35F059
:1054B00002CEABF008EC02F00E01010E09D002CED4
:1054C000AAF0F8EC01F0000915E10E01030E086FD7
:1054D000066F000C01CEADF031EC03F000090AE0DC
:1054E00001CEAAF0F8EC01F0000904E001CEABF027
:1054F00008EC02F0000C0E010651020A3AE0030A21
:1055000025E0010A01E08BD000B302D0060E85D061
:10551000070E086F03CEA8F004CEA9F00151280DA4
:10552000F3CFE9FFF4CFEAFF000EE926070EEA22E7
:10553000EE52E9CFA6F0EACFA7F007EC01F00E019A
:10554000026FFE0E025D68E0010E11D002CEAAF0DD
:10555000F8EC01F0000963E00201355160E149EC2B
:1055600035F0F3CF48FEF4CF49FE0E01020E066F70
:10557000000C02CEB9F0AFEC04F000093CE09CEC6A
:105580003CF014C044FE15C045FE16C046FE17C0D0
:1055900047FE48CE3FF249CE40F24FEC35F00001D5
:1055A0000B0EB76F0C0EB86F02CEB6F054EC04F0D1
:1055B000000905E00BCC41F265EC35F0F0D77FEC4B
:1055C00035F0F3CF48FEF4CF49FE02CEB0F0E9EC5F
:1055D00003F001CEADF031EC03F0000920E0000152
:1055E000230EAF6F01CEAEF06CEC03F001CEACF049
:1055F00089EC02F0000C02CEAAF0F8EC01F00009F0
:105600000EE17FEC35F00CEC35F002CEABF008EC9F
:1056100002F00E01FE0E026F090E086F010C000C65
:105620000C01076B060EE76E0719E8AE02D0E734EF
:1056300002D0E750075D2CE2040EE66EE66A07CC66
:10564000E9FFEA6AE9BEEA68D890E936EA36AD0EC3
:10565000E926010EEA22EECF00F0EFCF01F0026A58
:1056600000C0E6FF01C0E6FF02C0E6FF4BCEE6FF4A
:105670004CCEE6FFF1EC2FF0036E070EE15E035017
:10568000000903E10C01075112000C01072BCAD7D6
:10569000060C0C010A6B130E076F0E0E086F07CC79
:1056A000E9FF08CCEAFFEF50200804E1072B000EC9
:1056B0000823F5D707CC35FE08CC36FE0E01010EC7
:1056C000436F07CCE9FF08CCEAFFEFCF09FCEF50AE
:1056D00039E00C010A51010A1CE0010A2FE1200EF9
:1056E000095D03E02C0E095D08E107CCE9FF08CC59
:1056F000EAFFEF6A010E0A6F21D00D0E095D03E08B
:105700000A0E095D1BE107CCE9FF08CCEAFFEF6A4E
:1057100015D0200E095D12E00E014351432BE96EB6
:10572000EA6AD890E936EA36350EE9260E0EEA2204
:1057300007CCEEFF08CCEDFF0C010A6B072B000E27
:065740000823BFD7120090
:0A5746001C0E0F01476F486B0F01A6
:10575000000E456F0C0E466FA5EC1FF0C3EC1CF05D
:105760000201000E4B6F0C0E4C6F19D90C01010E8B
:10577000001912E1015110E10451006E016A060E98
:1057800000180AE1015008E10551026E036A040E97
:10579000021801E1035001E0000C020E061908E1B5
:1057A000075106E146C2E9FF47C2EAFFEF6A13D09C
:1057B000010E061909E1075107E1010E46C2E9FF92
:1057C00047C2EAFFEF6E07D0020E46C2E9FF47C2AA
:1057D000EAFFEF6E000C180EE96E0C0EEA6EEE504A
:1057E000010100192BE1EE50011928E1EE500219D8
:1057F00025E1EE50031922E121E144C2E9FF45C24F
:10580000EAFF08CCEEFF09CCEEFF0ACCEEFF0BCC92
:10581000EEFF0CCCEEFF0DCCEEFF44C2E9FF45C21B
:10582000EAFF060EE926000EEA220ECCEEFF0FCCB0
:10583000EEFF10CCEEFF11CCEEFF010C000C0F01BF
:10584000010E2B6F6AEC1CF00C011C6FFF0E1C5D2F
:1058500001E1000C0F01396B3A6B1CCC38FF7BEC7B
:105860001EF0010E0C01006F016B026B080E036F3E
:10587000060E046F040E056F02014A050BE1010ECE
:105880000C01066F076B12691369146915691669B3
:10589000176914D0020E0C01066F076B48C2E9FFAE
:1058A00049C2EAFFEECF12FCEECF13FCEECF14FCA0
:1058B000EECF15FCEECF16FCEFCF17FC04C108FCB1
:1058C00005C109FC06C10AFC07C10BFC08C10CFCA0
:1058D00009C10DFC00C10EFC01C10FFC02C110FC8E
:1058E00003C111FC48C2E9FF49C2EAFF060EE926DE
:1058F000000EEA220E51EE18006E0F51EE18016EE6
:105900001051EE18026E1151EE18036E01010A518A
:1059100000160B5101160C5102160D5103160050C2
:1059200001100210031009E00EC118FC0FC119FC90
:1059300010C11AFC11C11BFC10D048C2E9FF49C2BA
:10594000EAFF060EE926000EEA22EECF18FCEECFA3
:1059500019FCEECF1AFCEFCF1BFC0201000E4B6FBF
:105960000C0E4C6F1CD81C0E0F01346F356B0F01E1
:10597000060E336F0F01120E316F0C0E326FB8EC42
:105980001DF01C0E0F014C6F4D6B0F01000E4A6F86
:105990000C0E4B6FC7EC1FF013EC1EF0010C4BC24A
:1059A000E9FF4CC2EAFFEECF19F2EDCF1AF264EC38
:1059B00031F0F3CF00F0F4CF01F04BC2E9FF4CC25D
:1059C000EAFFF3CFEEFF01C0EDFF4BC2E9FF4CC28F
:1059D000EAFF020EE926000EEA22EECF19F2EDCF21
:1059E0001AF264EC31F0F3CF00F0F4CF01F04BC2C7
:1059F000E9FF4CC2EAFF020EF3CFEBFF030E01C03A
:105A0000EBFF4BC2E9FF4CC2EAFF060EE926000E8F
:105A1000EA22EECF19F2EDCF1AF264EC31F0F3CFB7
:105A200000F0F4CF01F04BC2E9FF4CC2EAFF060ED2
:0C5A3000F3CFEBFF070E01C0EBFF1200EC
:045A3C00140E0F0134
:105A4000476F486B0F01020E456F0C0E466FA5ECB9
:105A50001FF0F00E0C010215400801E0000C0F0EC3
:105A60000215040DF3CF00F2F3500F013D6F3E6BB2
:105A70000F013B6B3C6BA1EC1EF0F3CF00FCF4CFAD
:105A800001FC020100510F01366F376B4FEC1EF025
:105A90000C010051011101E0000C0201020E106F17
:105AA0000C0E116FD1D80201015102110CE001C29C
:105AB000E9FF02C2EAFF12CCEEFF13CCEEFF14CCDA
:105AC000EEFF15CCEEFF03C2E9FF04C2EAFF060EAB
