:020000040000FA
:06000000DDEF40F01200EC
:0600080044EF18F01200A5
:06002A00070048820000FF
:10003000630200000400000026820000AD01000001
:1000400022000000228200005F0200000400000085
:10005000208200006702000002000000EE81000024
:100060000001000032000000EC810000FE010000F1
:1000700002000000E8810000F0070000040000001A
:100080000C01006B060E005D5EE20051280DF3CFFF
:1000900001FCF4CF02FC000E0127070E022301CC65
:1000A000E9FF02CCEAFF0A0EEF6E01CCE9FF02CCB9
:1000B000EAFF270EE926000EEA22EF9001CCE9FFC5
:1000C00002CCEAFF270EE926000EEA22EF8201CCDD
:1000D000E9FF02CCEAFF270EE926000EEA22EF84B0
:1000E00001CCE9FF02CCEAFF270EE926000EEA2246
:1000F000EF9801CCE9FF02CCEAFF270EE926000EBB
:10010000EA22EF9601CCE9FF02CCEAFF0F0EE926C6
:10011000000EEA22EF6801CCE9FF02CCEAFF230ED1
:10012000E926000EEA222C0EEE6E010EEE6EEE6A4D
:10013000EE6A01CCE9FF02CCEAFF100EEB6A110E69
:10014000EB6A002B9FD712000C01006B060E005DBE
:100150005DE20051280DF3CF01FCF4CF02FC000E4C
:100160000127070E022301CCE9FF02CCEAFFEF5082
:100170000A084AE101CCE9FF02CCEAFFEF6A01CCB0
:10018000E9FF02CCEAFF0B0EA4C0EBFF0C0EA5C0EA
:10019000EBFF01CCE9FF02CCEAFF0D0EEB6A0E0E7D
:1001A000EB6A01CCE9FF02CCEAFFEE52060EE9262B
:1001B000000EEA22EE6AEE6AEE6AEE6A01CCE9FF10
:1001C00002CCEAFF270EE926000EEA22EF8001CCDE
:1001D000E9FF02CCEAFF270EE926000EEA22EF969D
:1001E00001CCE9FF02CCEAFF0F0EE926000EEA225D
:1001F000EF6801CCE9FF02CCEAFF270EE926000EEA
:10020000EA22EF8200511200002BA0D7FE0C0C0155
:100210000A6B076B060E075D16E20751280DF3CF38
:1002200008FCF4CF09FC000E0827070E092308CCB0
:10023000E9FF09CCEAFFEF500A0803E1010E0A6F5B
:1002400002D0072BE7D70A5101E1FE0C0101FE2B7A
:10025000000EFF2308CCE9FF09CCEAFF0B0EFEC11C
:10026000EBFF0C0EFFC1EBFF880EFE5D130EFF5976
:1002700003E3FE69030EFF6F08CCE9FF09CCEAFF38
:10028000270EE926000EEA22EF9008CCE9FF09CC00
:10029000EAFF0D0EA8C0EBFF0E0EA9C0EBFF08CCC5
:1002A000E9FF09CCEAFF160EE926000EEA22EE2A43
:1002B000EE22EE22EE2208CCE9FF09CCEAFF1A0E6C
:1002C000E926000EEA22EE6AEE6AEE6AEE6A0A0E8D
:1002D000E66EE66AA6C0E6FFA7C0E6FF08CCE9FF27
:1002E00009CCEAFFEE52E9CF00F0EACF01F0E9CF06
:1002F000E6FFEACFE6FF2AEC34F0026E060EE15E7E
:100300000001D06BD16B0001CF690001020ECE6FEE
:1003100008CCE9FF09CCEAFF1A0EE926000EEA2212
:10032000EECFCAF0EECFCBF0EECFCCF0EFCFCDF0EA
:1003300008CCE9FF09CCEAFF160EE926000EEA22F6
:10034000EECFC6F0EECFC7F0EECFC8F0EFCFC9F0DA
:1003500008CCE9FF09CCEAFF0D0EE926000EEA22DF
:10036000EECFC4F0EDCFC5F008CCE9FF09CCEAFF31
:100370000B0EE926000EEA22EECFC2F0EDCFC3F05D
:1003800008CCE9FF09CCEAFFEE52E9CFC0F0EACF92
:10039000C1F056EC07F008CCE9FF09CCEAFF010EEA
:1003A000EF6E08CCE9FF09CCEAFF160EE926000E35
:1003B000EA22EE2AEE22EE22EE22B6EC40F015C042
:1003C00001F016C002F017C003F008CCE9FF09CC19
:1003D000EAFF1F0EE926000EEA2214C0EEFF01C05C
:1003E000EEFF02C0EEFF03C0EEFF0C01075112004A
:1003F0000001AA51280DF3CFE9FFF4CFEAFF000E68
:10040000E926070EEA22EF50030801E0000C010C78
:100410000001AB51280DF3CFBFFCF4CFC0FC000EA0
:100420000C01BF27070EC023BFCCE9FFC0CCEAFFF9
:10043000EF5003080DE0BFCCE9FFC0CCEAFFEF505E
:10044000020806E0BFCCD8F0C0CCD9F04BEF0AF0E0
:10045000ABC0B0F0BED90001D06BD16B0001CF6949
:100460000001110ECE6FBFCCE9FFC0CCEAFF1A0E1F
:10047000E926000EEA22EECFCAF0EECFCBF0EECFA7
:10048000CCF0EFCFCDF0BFCCE9FFC0CCEAFF160E29
:10049000E926000EEA22EECFC6F0EECFC7F0EECF8F
:1004A000C8F0EFCFC9F0BFCCE9FFC0CCEAFF0D0E1A
:1004B000E926000EEA22EECFC4F0EDCFC5F0BFCCA6
:1004C000E9FFC0CCEAFF0B0EE926000EEA22EECFD0
:1004D000C2F0EDCFC3F0BFCCE9FFC0CCEAFFEE52D3
:1004E000E9CFC0F0EACFC1F056EC07F0BFCCE9FF8E
:1004F000C0CCEAFF160EE926000EEA22EE2AEE2212
:10050000EE22EE22BFCCE9FFC0CCEAFF040EEF6E74
:1005100012000001AC51280DF3CFC8FCF4CFC9FC88
:10052000000E0C01C827070EC923C8CCE9FFC9CCAF
:10053000EAFF0F0EEB50FF0801E1000CC8CCE9FF09
:10054000C9CCEAFF270EE926000EEA22EF50020B83
:1005500001E1000CC8CCE9FFC9CCEAFF100EE92686
:10056000000EEA22EECFD0F0EDCFD1F0C8CCE9FFFB
:10057000C9CCEAFF0F0EEB500001CF6F0001180E3F
:10058000CE6F1A0EE926000EEA22EECFCAF0EECFA9
:10059000CBF0EECFCCF0EFCFCDF0C8CCE9FFC9CC9B
:1005A000EAFF160EE926000EEA22EECFC6F0EECFE5
:1005B000C7F0EECFC8F0EFCFC9F0C8CCE9FFC9CC87
:1005C000EAFF0D0EE926000EEA22EECFC4F0EDCFD1
:1005D000C5F0C8CCE9FFC9CCEAFF0B0EE926000E36
:1005E000EA22EECFC2F0EDCFC3F0C8CCE9FFC9CC10
:1005F000EAFFEE52E9CFC0F0EACFC1F056EC07F0C7
:10060000C8CCE9FFC9CCEAFF100EE926000EEA22A9
:10061000EECF00F0EFCF01F0026A036AC8CCE9FF29
:10062000C9CCEAFF160EE926000EEA220050EE269B
:100630000150EE220250EE220350EE22C8CCE9FF18
:10064000C9CCEAFF270EE926000EEA22EF92C8CCB9
:10065000E9FFC9CCEAFF270EE926000EEA22EF984F
:10066000010C0001AD51280DF3CFE9FFF4CFEAFFF3
:10067000000EE926070EEA22140EE926000EEA22F1
:10068000EE50ED1001E1000CAD51280DF3CFE9FF64
:10069000F4CFEAFF000EE926070EEA220F0EE92644
:1006A000000EEA22EF50FF0804E10F012B6BA9EFC7
:1006B00010F0AD51280DF3CFE9FFF4CFEAFF000EA3
:1006C000E926070EEA22270EE926000EEA22EF505D
:1006D000020B01E0010E12000001AE51280DF3CF14
:1006E000C6FCF4CFC7FC000E0C01C627070EC723BB
:1006F000C6CCE9FFC7CCEAFF140EE926000EEA22B9
:10070000EE50ED1001E1000CC6CCE9FFC7CCEAFFCA
:100710000F0EEB50FF082FE10F012C6BE0EC10F0F7
:10072000E66EC6CCE9FFC7CCEAFF0F0EE926000E45
:10073000EA22E552E750EF6EC6CCE9FFC7CCEAFFEC
:100740000F0EEB50FF0801E1000CC6CCE9FFC7CC4F
:10075000EAFF100EEB6A110EEB6A280E0F013A6FDA
:100760003B6BC6CCE9FFC7CCEAFF0F0EEB500F0185
:10077000396FACEC14F0C6CCE9FFC7CCEAFF270E0A
:10078000E926000EEA22EF88AFC04AFFA9EC16F076
:10079000C6CCE9FFC7CCEAFF140EE926000EEA2218
:1007A000EE06EF5AC6CCE9FFC7CCEAFF100EE926E9
:1007B000000EEA22EE2AED22EECF00F0EDCF01F09E
:1007C0000A0E005C020E015803E3AEC0ACF0A1DEDD
:1007D000010C0001B051280DF3CF85FCF4CF86FC4D
:1007E000000E0C018527070E862385CCE9FF86CCF9
:1007F000EAFF270EE926000EEA22EF50080B01E17E
:10080000000C3DEC11F085CCE9FF86CCEAFF270E09
:10081000E926000EEA22EF96010C0001B151280DE5
:10082000F3CF00FCF4CF01FC000E0C010027070EF3
:10083000012300CCE9FF01CCEAFF270EE926000ED8
:10084000EA22EF50080B2DE000CCE9FF01CCEAFFD3
:10085000270EE926000EEA22EF50040B0FE0140EDB
:1008600002010E6F0F6B32EC32F000CCE9FF01CCCD
:10087000EAFF270EE926000EEA22EF9400CCE9FFFA
:1008800001CCEAFF270EE926000EEA22EF88B4C069
:1008900048FFB5C049FFB2C046FFB3C047FF7CEF79
:1008A00016F0F36AF46A12000001B651280DF3CF76
:1008B00085FCF4CF86FC000E0C018527070E8623ED
:1008C00085CCE9FF86CCEAFF270EE926000EEA2256
:1008D000EF50080B43E085CCE9FF86CCEAFF270EFA
:1008E000E926000EEA22EF50040B0FE0140E02017D
:1008F0000E6F0F6B32EC32F085CCE9FF86CCEAFF4D
:10090000270EE926000EEA22EF9485CCE9FF86CC7B
:10091000EAFF120EE926000EEA22EE50ED100CE17D
:100920003DEC11F085CCE9FF86CCEAFF270EE926E5
:10093000000EEA22EF96000C85CCE9FF86CCEAFF98
:10094000120EE926000EEA22EE06EF5A6BEC16F0C4
:10095000B7C0E9FFB8C0EAFFEF6E010C000C000160
:10096000B951280DF3CFE9FFF4CFEAFF000EE926D5
:10097000070EEA22270EE926000EEA22EF50080BA6
:1009800001E0010E12000C010F6B006B060E005D02
:1009900001E3C0D10051280DF3CF09FCF4CF0AFCCC
:1009A000000E0927070E0A2309CCE9FF0ACCEAFF4B
:1009B000270EE926000EEA22EF50080B01E0A7D12E
:1009C00009CCE9FF0ACCEAFF270EE926000EEA224D
:1009D000EF50100B01E09BD109CCE9FF0ACCEAFFF4
:1009E000EF500A0801E193D109CCE9FF0ACCEAFFF4
:1009F000EF5000090CE109CCE9FF0ACCEAFF270E11
:100A0000E926000EEA22EF50010B01E080D1B6EC9E
:100A100040F014C005FC15C006FC16C007FC17C04A
:100A200008FC09CCE9FF0ACCEAFF1F0EE926000EFC
:100A3000EA22EE500C01145C016FEE501558026F63
:100A4000EE501658036FEE501758046F09CCE9FFAB
:100A50000ACCEAFF230EE926000EEA220151EE5CE1
:100A60000251EE580351EE580451EE5801E34FD1B4
:100A70000F01010E2B6FA9EC10F0000901E112002B
:100A8000B6EC40F014C000F015C001F016C002F042
:100A900017C003F009CCE9FF0ACCEAFF1F0EE926D4
:100AA000000EEA2214C0EEFF01C0EEFF02C0EEFF0E
:100AB00003C0EEFF09CCE9FF0ACCEAFF230EE926CA
:100AC000000EEA22D890EF36010EEB36020EEB361E
:100AD000030EEB3609CCE9FF0ACCEAFF1E0EE9262D
:100AE000000EEA22EF2A09CCE9FF0ACCEAFFEF5018
:100AF000090A01E18FD0010A01E182D00F0A01E168
:100B000095D0020A01E192D0030A01E18FD0020AD6
:100B10006EE0070A2DE0010A06E0030A01E08CD02E
:100B20000C01020E81D009CCE9FF0ACCEAFF1E0EAF
:100B3000EB50030803E30C01120E76D009CCE9FF59
:100B40000ACCEAFF270EE926000EEA22EF50010B3D
:100B500006E009CCE9FF0ACCEAFFEF6A6DD00C0190
:100B6000020E0F6F09CCE9FF0ACCEAFF010E50D04C
:100B700009CCE9FF0ACCEAFF1E0EEB5003081BE389
:100B800009CCE9FF0ACCEAFF0F0EEB50FF0810E09A
:100B90000F013A6B3B6B09CCE9FF0ACCEAFF0F0E61
:100BA000EB500F01396FACEC14F024EC13F044D08F
:100BB0000C01100E39D009CCE9FF0ACCEAFF0F0E68
:100BC000EB500F012D6F27EC11F009CCE9FF0ACC97
:100BD000EAFF0F0EE926000EEA22EF680C01110E63
:100BE0000F6F09CCE9FF0ACCEAFF040E11D009CC43
:100BF000E9FF0ACCEAFF1E0EEB50030817E312D000
:100C00000C01010E0F6F09CCE9FF0ACCEAFF090EB7
:100C1000EF6E12D009CCE9FF0ACCEAFF1E0EEB50B2
:100C2000030804E30C01010E0F6F06D009CCD8F0C5
:100C30000ACCD9F04BEC0AF00C010F5168E00FA977
:100C400011D009CCE9FF0ACCEAFF160EE926000E06
:100C5000EA22EECF0BFCEECF0CFCEECF0DFCEFCF7B
:100C60000EFC14D009CCE9FF0ACCEAFF160EE926E7
:100C7000000EEA22EFCF0BFCEE2AEFCF0CFCEE22A7
:100C8000EFCF0DFCEE22EFCF0EFCEF220001D06B78
:100C9000D16B0001CF690FCCCEF009CCE9FF0ACCB3
:100CA000EAFF1A0EE926000EEA22EECFCAF0EECFD6
:100CB000CBF0EECFCCF0EFCFCDF00BCCC6F00CCC20
:100CC000C7F00DCCC8F00ECCC9F009CCE9FF0ACCB6
:100CD000EAFF0D0EE926000EEA22EECFC4F0EDCFBA
:100CE000C5F009CCE9FF0ACCEAFF0B0EE926000E9D
:100CF000EA22EECFC2F0EDCFC3F009CCE9FF0ACC77
:100D0000EAFFEE52E9CFC0F0EACFC1F0CFD80C0134
:100D1000002B3CD61200BAC0E9FFBBC0EAFF060EAA
:100D2000E926000EEA22EECF14FCEECF15FCEECF42
:100D300016FCEFCF17FCBCC0E9FFBDC0EAFFEFCF48
:100D400018FC010EE926000EEA22EFCF19FCBCC008
:100D5000E9FFBDC0EAFF020EE926000EEA22EFCF4E
:100D60001AFCBCC0E9FFBDC0EAFF030EE926000E75
:100D7000EA22EFCF1BFC0C011C6B060E1D6FBEC0E0
:100D80001EFCBFC01FFCBEC019F2BFC01AF27EEC31
:100D900035F0F3CF1EFCF4CF1FFC0C0E0201216FC7
:100DA000226B0201140E1F6F0C0E206FDEEC35F06B
:100DB000F3CF21FCF4CF22FC0C01211F221FBEC067
:100DC00044FFBFC045FFD1EC15F0F3CF23FCF4CFB7
:100DD00024FC0C01F450215D03E02351225D63E10A
:100DE00002010E6B0F6B32EC32F0140E0F01486FE4
:100DF000496B0F01000E466F0C0E476F7CEC16F02E
:100E00000001000ED66F0C0ED76F6ADA0C010C5180
:100E1000F00BE842E842E842E842040DF350006E6D
:100E2000016A140E005E000E015A00C025FC00503D
:100E3000006E016AE8500001BE5DBE6F0150BF59EF
:100E4000BF6F140EBE5F000EBF5B0C010C51F00BA8
:100E5000E842E842E842E842040DF35002010E6F16
:100E60000F6B32EC32F0BAC0D4F0BBC0D5F0000149
:100E7000000ED26F0C0ED36F33D90C01206FFE0E13
:100E8000205D11E2BEC0DFF0BFC0E0F00001000E47
:100E9000DD6F0C0EDE6FBAC0DBF0BBC0DCF020CC27
:100EA000DAF07FDB010C3DEC11F0010C0F01010EBB
:100EB0002B6FA9EC10F00009F9E0FF0E0001CF5DE7
:100EC00007E10F01010E2C6FE0EC10F00001CF6F75
:100ED000FF0ECF5D01E11200140E0F013A6F3B6B64
:100EE000CFC039FFACEC14F0C2C087FCC3C088FC93
:100EF000C4C089FCC5C08AFCC6C08BFCC7C08CFCC2
:100F0000C8C08DFCC9C08EFCCAC08FFCCBC090FC91
:100F1000CCC091FCCDC092FC0C019391939393951E
:100F20009397CEC094FC7BEC11F0F3CF95FCF4CFFB
:100F300096FC0C01400EF35C020EF45805E3400EE3
:100F4000956F020E966F0DD0360ED8809555000E17
:100F5000965505E2360E955F000E965B02D0956BB6
:100F6000966B976B986B996B9A6B0001870ED66F97
:100F70000C0ED76FB5D9140E0001D027000ED12367
:100F8000CEA310D0040ED027000ED1230C01020EE8
:100F90009B6F040E9C6F020E9D6F400E9E6F939987
:100FA000938B03D00C019389939B938D939F00C1E6
:100FB0009FFC01C1A0FC02C1A1FC03C1A2FCC0C0F6
:100FC000E9FFC1C0EAFF060EE926000EEA22EECFD5
:100FD000A3FCEECFA4FCEECFA5FCEFCFA6FCA76B45
:100FE000060EA86FD0C0A9FCD1C0AAFCD0C019F2CF
:100FF000D1C01AF27EEC35F0F3CFA9FCF4CFAAFCF5
:101000000C0E0201216F226B02019F0E1F6F0C0E4E
:10101000206FDEEC35F0F3CF97FCF4CF98FC0C0199
:10102000971F981F97CC85FC98CC86FCD0C00CF2FB
:10103000D1C00DF20201060E0B6FC0C009F2C1C093
:101040000AF2A6EC31F0140E0F014D6F4E6B0F013A
:10105000870E4B6F0C0E4C6FB7EC16F00001CEA351
:101060000BD0040E0F014D6F4E6B0F019B0E4B6F9B
:101070000C0E4C6FB7EC16F0140E0F013A6F3B6B71
:10108000CFC039FFACEC14F0D0C044FFD1C045FF55
:10109000D1EC15F0F3CF85FCF4CF86FC240E0F01C4
:1010A0003A6F3B6BCFC039FFACEC14F086CC4AFFF3
:1010B000A9EC16F085CC4AFFA9EC16F00F013A6BAB
:1010C0003B6BCFC039FFACEC14F024EC13F00F01F4
:1010D000010E2B6FA9EC10F00009F9E024EF13F0DA
:1010E0000C01FE0E296F286B060E285D01E37FD0F0
:1010F0002851280DF3CF26FCF4CF27FC000E26271D
:10110000070E272326CCE9FF27CCEAFFEF500A0879
:101110006BE026CCE9FF27CCEAFF0B0EE926000E98
:10112000EA22EECF00F0EFCF01F0D2C0E9FFD3C04A
:10113000EAFF020EE926000EEA22EECF02F0EFCF20
:1011400003F00250001850E1035001184DE126CC85
:10115000E9FF27CCEAFFEF50000902E128CC29FC87
:1011600026CCE9FF27CCEAFF0D0EE926000EEA2285
:10117000EECF00F0EFCF01F0D2C0E9FFD3C0EAFF1D
:10118000EECF02F0EFCF03F0025000182DE1035034
:1011900001182AE1D4C0E9FFD5C0EAFF060EE9260E
:1011A000000EEA22EECF04F0EECF05F0EECF06F00F
:1011B000EFCF07F026CCE9FF27CCEAFFEE52060E70
:1011C000E926000EEA22EE50000104180DE1EE506F
:1011D00005180AE1EE50061807E1EE50071804E181
:1011E00003E10C01285112000C01282B7DD7295155
:1011F000280DF3CF26FCF4CF27FC000E2627070E80
:101200002723FE0E295D67E026CCE9FF27CCEAFF05
:10121000EF50000960E10A0EE66EE66AD4C0E6FF10
:10122000D5C0E6FF26CCE9FF27CCEAFFEE52E9CF96
:1012300000F0EACF01F0E9CFE6FFEACFE6FF2AECC3
:1012400034F0026E060EE15E0250D2C0E9FFD3C058
:10125000EAFF020EE926000EEA22EECF00F0EFCF01
:1012600001F026CCE9FF27CCEAFF0B0E00C0EBFF14
:101270000C0E01C0EBFFD2C0E9FFD3C0EAFFEECFF6
:1012800000F0EFCF01F026CCE9FF27CCEAFF0D0EEE
:1012900000C0EBFF0E0E01C0EBFF26CCE9FF27CC10
:1012A000EAFF270EE926000EEA22EF9626CCE9FF98
:1012B00027CCEAFF0F0EE926000EEA22EF6826CCC3
:1012C000E9FF27CCEAFF270EE926000EEA22EF828B
:1012D0000C0129511200FE0E295D01E1FF0CFE0CEC
:1012E000D6C0E9FFD7C0EAFFEECF19F2EDCF1AF270
:1012F0007EEC35F0F3CF00F0F4CF01F0D6C0E9FF7B
:10130000D7C0EAFFF3CFEEFF01C0EDFFD6C0E9FF83
:10131000D7C0EAFF020EE926000EEA22EECF19F24C
:10132000EDCF1AF27EEC35F0F3CF00F0F4CF01F000
:10133000D6C0E9FFD7C0EAFF020EF3CFEBFF030EE2
:1013400001C0EBFFD6C0E9FFD7C0EAFF040EE926D3
:10135000000EEA22EECF1BF2EECF1CF2EECF1DF212
:10136000EFCF1EF283EC35F014C000F015C001F091
:1013700016C002F017C003F0D6C0E9FFD7C0EAFFDD
:10138000040EE926000EEA2214C0EEFF01C0EEFFB3
:1013900002C0EEFF03C0EEFFD6C0E9FFD7C0EAFFF0
:1013A000080EE926000EEA22EECF1BF2EECF1CF269
:1013B000EECF1DF2EFCF1EF283EC35F014C000F03B
:1013C00015C001F016C002F017C003F0D6C0E9FF47
:1013D000D7C0EAFF080EE926000EEA2214C0EEFF8D
:1013E00001C0EEFF02C0EEFF03C0EEFFD6C0E9FF72
:1013F000D7C0EAFF0E0EE926000EEA22EECF19F260
:10140000EDCF1AF27EEC35F0F3CF00F0F4CF01F01F
:10141000D6C0E9FFD7C0EAFF0E0EF3CFEBFF0F0EE9
:1014200001C0EBFFD6C0E9FFD7C0EAFF100EE926E6
:10143000000EEA22EECF19F2EDCF1AF27EEC35F073
:10144000F3CF00F0F4CF01F0D6C0E9FFD7C0EAFF38
:10145000100EF3CFEBFF110E01C0EBFFD6C0E9FF7A
:10146000D7C0EAFF120EE926000EEA22EECF19F2EB
:10147000EDCF1AF27EEC35F0F3CF00F0F4CF01F0AF
:10148000D6C0E9FFD7C0EAFF120EF3CFEBFF130E71
:1014900001C0EBFF1200D8C0E9FFD9C0EAFF0F0E70
:1014A000EB50FF081CE0D8C0E9FFD9C0EAFF0F0EDF
:1014B000EB500F012D6F27EC11F0D8C0E9FFD9C018
:1014C000EAFF0F0EE926000EEA22EF68D8C0E9FF16
:1014D000D9C0EAFF270EE926000EEA22EF82D8C023
:1014E000E9FFD9C0EAFFEE52060EE926000EEA2215
:1014F000EE6AEE6AEE6AEE6AD8C0E9FFD9C0EAFF8A
:101500000D0EEB6A0E0EEB6AD8C0E9FFD9C0EAFFF8
:10151000270EE926000EEA22EF50080B02E03DEC10
:1015200011F0D8C0E9FFD9C0EAFF270EE926000E66
:10153000EA22EF96D8C0E9FFD9C0EAFF230EE926D8
:10154000000EEA222C0EEE6E010EEE6EEE6AEE6AD0
:10155000D8C0E9FFD9C0EAFF270EE926000EEA222B
:10156000EF98D8C0E9FFD9C0EAFF270EE926000EA0
:10157000EA22EF50010B06E0D8C0E9FFD9C0EAFF2C
:10158000EF6A06D0D8C0E9FFD9C0EAFF0A0EEF6EB5
:10159000D8C0E9FFD9C0EAFF100EEB6A110EEB6A62
:1015A00012000001DA51280DF3CF36FCF4CF37FCDE
:1015B000000E0C013627070E3723386B36CCE9FFB7
:1015C00037CCEAFF1E0EE926000EEA22EF6AB6ECDF
:1015D00040F014C000F015C001F016C002F017C0B2
:1015E00003F036CCE9FF37CCEAFF1F0EE926000EE8
:1015F000EA2214C0EEFF01C0EEFF02C0EEFF03C0FE
:10160000EEFF36CCE9FF37CCEAFF230EE926000EC9
:10161000EA222C0EEE6E010EEE6EEE6AEE6ADDC070
:10162000E9FFDEC0EAFF0D0EE926000EEA22EF50C8
:10163000040B19E03DEC11F036CCE9FF37CCEAFFA2
:10164000270EE926000EEA22EF50010B02E0000E01
:1016500001D0010EE66E36CCE9FF37CCEAFFE55249
:10166000E750EF6E120036CCE9FF37CCEAFF160EDA
:10167000E926000EEA22EECF2AFCEECF2BFCEECFBD
:101680002CFCEFCF2DFCDDC0E9FFDEC0EAFF0E0E23
:10169000E926000EEA22EECF04F0EFCF05F0066A4D
:1016A000076ADDC0E9FFDEC0EAFF080EE926000E8A
:1016B000EA22EE500C012A5D086EEE502B59096E9D
:1016C000EE502C590A6EEE502D590B6E0850045CEA
:1016D000006E09500558016E0A500658026E0B50F4
:1016E0000758036E36CCE9FF37CCEAFF100EE92627
:1016F000000EEA22EECF0CF0EFCF0DF00E6A0F6A6B
:101700000C50005C266F0D500158276F0E50025888
:10171000286F0F500358296F800E291509E036CC29
:10172000E9FF37CCEAFF140EEB6A150EEB6A0AD01C
:1017300036CCE9FF37CCEAFF140E26CCEBFF150EB2
:1017400027CCEBFF36CCE9FF37CCEAFFEF5001089E
:1017500001E084D0DDC0E9FFDEC0EAFF0D0EE9261E
:10176000000EEA22EF50020B02E13DEF11F0DFC064
:1017700004F0E0C005F0066A076ADDC0E9FFDEC0DC
:10178000EAFF040EE926000EEA22EE500424006E61
:10179000EE500520016EEE500620026EEE5007203E
:1017A000036E002A000E01220222032236CCE9FF3A
:1017B00037CCEAFF1A0EE926000EEA2200C0EEFF3F
:1017C00001C0EEFF02C0EEFF03C0EEFF36CCE9FF22
:1017D00037CCEAFF1A0EE926000EEA22EECF26FCED
:1017E000EECF27FCEECF28FCEFCF29FCDDC0E9FFD0
:1017F000DEC0EAFF0D0EE926000EEA22EF50100BC4
:1018000009E136CCE9FF37CCEAFF020EEF6E3DEC82
:1018100011F0D7D036CCE9FF37CCEAFF030EEF6EDC
:10182000100E386FDDC0E9FFDEC0EAFF0E0EE926BC
:10183000000EEA22EECF00F0EFCF01F036CCE9FF48
:1018400037CCEAFF140E00C0EBFF150E01C0EBFF12
:101850000001DF51E01101E04BD143D236CCE9FF6A
:1018600037CCEAFFEF50000901E0AFD03DEC11F0BA
:10187000DDC0E9FFDEC0EAFF0D0EE926000EEA2218
:10188000EF50020B03E10C01040E9DD0DFC004F009
:10189000E0C005F0066A076ADDC0E9FFDEC0EAFFC6
:1018A000040EE926000EEA22EE500424006EEE50EB
:1018B0000520016EEE500620026EEE500720036EEA
:1018C000002A000E01220222032236CCE9FF37CC87
:1018D000EAFF1A0EE926000EEA2200C0EEFF01C060
:1018E000EEFF02C0EEFF03C0EEFFDDC0E9FFDEC089
:1018F000EAFF0E0EE926000EEA22EECF00F0EFCF4F
:1019000001F036CCE9FF37CCEAFF140E00C0EBFF44
:10191000150E01C0EBFF0A0EE66EE66ADBC0E6FFBD
:10192000DCC0E6FF36CCE9FF37CCEAFFEE52E9CF68
:1019300000F0EACF01F0E9CFE6FFEACFE6FF2AECBC
:1019400034F0026E060EE15E0250DDC0E9FFDEC03B
:10195000EAFFEECF00F0EFCF01F036CCE9FF37CC55
:10196000EAFF0D0E00C0EBFF0E0E01C0EBFF36CC00
:10197000E9FF37CCEAFF020EEF6E36CCE9FF37CC39
:10198000EAFF160EE926000EEA22EFCF2AFCEE2A25
:10199000EFCF2BFCEE22EFCF2CFCEE22EFCF2DFC75
:1019A000EF2236CCE9FF37CCEAFF1A0EE926000E0B
:1019B000EA22EECF26FCEECF27FCEECF28FCEFCFBD
:1019C00029FC0C01120E386F47D236CCE9FF37CC18
:1019D000EAFF1A0EE926000EEA22EECF2EFCEECF29
:1019E0002FFCEECF30FCEFCF31FC36CCE9FF37CC0B
:1019F000EAFF160EE926000EEA22EECF32FCEECF09
:101A000033FCEECF34FCEFCF35FCDDC0E9FFDEC0A8
:101A1000EAFF040EE926000EEA22EECF26FCEECF06
:101A200027FCEECF28FCEFCF29FC0001DF510C0191
:101A300026270001E0510C012723000E282329232B
:101A400036CCE9FF37CCEAFF160EE926000EEA2273
:101A5000EECF2AFCEECF2BFCEECF2CFCEFCF2DFCF3
:101A6000DDC0E9FFDEC0EAFF040EE926000EEA222F
:101A7000EE502E1901E0E3D1EE502F1901E0DFD135
:101A8000EE50301901E0DBD1EE50311901E0D7D131
:101A900001E0D5D136CCE9FF37CCEAFFEF500208A0
:101AA00044E1DDC0E9FFDEC0EAFF0D0EE926000ECD
:101AB000EA22EF50100B01E114D136CCE9FF37CC0C
:101AC000EAFF1A0EE926000EEA2226CCEEFF27CC0A
:101AD000EEFF28CCEEFF29CCEEFF36CCE9FF37CC69
:101AE000EAFF030EEF6E0001DF51E01101E1F9D0D2
:101AF00036CCE9FF37CCEAFF270EE926000EEA22B2
:101B0000EF8636CCE9FF37CCEAFF120EDFC0EBFFE1
:101B1000130EE0C0EBFF36CCE9FF37CCEAFF270E0F
:101B2000E926000EEA22EF8497D136CCE9FF37CCC4
:101B3000EAFF1A0EE926000EEA2226CCEEFF27CC99
:101B4000EEFF28CCEEFF29CCEEFF36CCE9FF37CCF8
:101B5000EAFFEF50030801E0C7D0DDC0E9FFDEC0B7
:101B6000EAFF0D0EE926000EEA22EF50100B2FE0DF
:101B700036CCE9FF37CCEAFF270EE926000EEA2231
:101B8000EF50020B24E136CCE9FF37CCEAFF0F0E11
:101B9000EB50FF081CE036CCE9FF37CCEAFF0F0E14
:101BA000EB500F012D6F27EC11F036CCE9FF37CC4D
:101BB000EAFF0F0EE926000EEA22EF6836CCE9FFB5
:101BC00037CCEAFF270EE926000EEA22EF82DDC0BD
:101BD000E9FFDEC0EAFF0D0EE926000EEA22EF5013
:101BE000010B31E00C01110E386F36CCE9FF37CC18
:101BF000EAFF160EE926000EEA22EFCF2AFCEE2AB3
:101C0000EFCF2BFCEE22EFCF2CFCEE22EFCF2DFC02
:101C1000EF2236CCE9FF37CCEAFF1A0EE926000E98
:101C2000EA22EF2AEECF26FCEF22EECF27FCEF22AE
:101C3000EECF28FCEF22EFCF29FC36CCE9FF37CCE2
:101C4000EAFF090EEF6E0001DF51E0114AE036CCE9
:101C5000E9FF37CCEAFF270EE926000EEA22EF5013
:101C6000080B1FE136CCE9FF37CCEAFF270EE92647
:101C7000000EEA22EF8636CCE9FF37CCEAFF120EDF
:101C8000DFC0EBFF130EE0C0EBFF36CCE9FF37CC33
:101C9000EAFF270EE926000EEA22EF840C013889BC
:101CA000DBD036CCE9FF37CCEAFF160EE926000E72
:101CB000EA2232CCEEFF33CCEEFF34CCEEFF35CC53
:101CC000EEFF36CCE9FF37CCEAFF1A0EE926000E0C
:101CD000EA222ECCEEFF2FCCEEFF30CCEEFF31CC43
:101CE000EEFF3DEC11F0B8D036CCE9FF37CCEAFF7F
:101CF000EF5009080FE13DEC11F0DDC0E9FFDEC057
:101D0000EAFF0D0EE926000EEA22EF50100B01E16A
:101D1000A3D08ED036CCE9FF37CCEAFFEF500408D1
:101D200047E13DEC11F0DDC0E9FFDEC0EAFF0D0E3A
:101D3000E926000EEA22EF50010B28E00C01100EFC
:101D4000386F36CCE9FF37CCEAFF1A0EE926000ED1
:101D5000EA22EF2AEECF26FCEF22EECF27FCEF227D
:101D6000EECF28FCEF22EFCF29FCDDC0E9FFDEC07B
:101D7000EAFF0D0EE926000EEA22EF50100B58E1A3
:101D800036CCE9FF37CCEAFF060E10D0DDC0E9FF04
:101D9000DEC0EAFF0D0EE926000EEA22EF50100B1E
:101DA0005BE036CCE9FF37CCEAFF050EEF6E54D08E
:101DB00036CCE9FF37CCEAFFEF50050825E13DECD2
:101DC00011F0DDC0E9FFDEC0EAFF0D0EE926000ECE
:101DD000EA22EF50010B40E00C01100E386F36CCB8
:101DE000E9FF37CCEAFF1A0EE926000EEA22EF2AB5
:101DF000EECF26FCEF22EECF27FCEF22EECF28FC21
:101E0000EF22EFCF29FC14D036CCE9FF37CCEAFF24
:101E1000EF50060821E13DEC11F0DDC0E9FFDEC026
:101E2000EAFF0D0EE926000EEA22EF50100B14E037
:101E300036CCD8F037CCD9F04BEC0AF00DD03DECD5
:101E400011F00C01100E386F2ECC26FC2FCC27FC85
:101E500030CC28FC31CC29FC0C01385131E0000198
:101E6000D06BD16B0001CF6938CCCEF026CCCAF054
:101E700027CCCBF028CCCCF029CCCDF02ACCC6F0A6
:101E80002BCCC7F02CCCC8F02DCCC9F0DDC0E9FFBD
:101E9000DEC0EAFFEECFC4F0EDCFC5F0DDC0E9FF54
:101EA000DEC0EAFF020EE926000EEA22EECFC2F003
:101EB000EDCFC3F0DBC0C0F0DCC0C1F056EC07F0E2
:021EC00012000E
:0E1EC2008C8695969496949A9488200EC66EFF
:101ED0009E96C78CC79E0F011D0E4F6FDCEC16F04F
:101EE000006EE8CF06FC080E0C010615F4E1061D95
:101EF000010BF1E1D4EC16F00A0EE66ECDEC40F0E9
:101F0000E5520C01066B070E065D39E20651006EC4
:101F1000016A480E0102F3CF01F0020E0002F350F5
:101F20000126480E0002F3CF00F0F4500126026AA9
:101F3000036A080E0026100E0122000E0222032260
:101F40000651050DF3CFE9FFF4CFEAFF000EE926B5
:101F50000F0EEA2200C0EEFF01C0EDFF0651050D95
:101F6000F3CFE9FFF4CFEAFF000EE9260F0EEA22D5
:101F7000040EE926000EEA22EF80062BC4D70F01DB
:101F8000236B010E296F256B266B0F01536B0F011D
:101F9000080E526F41EC17F00F01536B0F01090E41
:101FA000526F41EC17F00F01070E536F0F010C0E2B
:101FB000526F41EC17F00F01100E536F0F010D0E11
:101FC000526F41EC17F00F01070E536F0F010A0E0D
:101FD000526F41EC17F00F01100E536F0F010B0EF3
:101FE000526F41EC17F00F01080E536F0F01040EF2
:101FF000526F41EC17F00F01100E536F0F01050ED9
:10200000526F41EC17F00F015B6B020E5C6F98ECA6
:1020100017F00F010D0E536F0F01526B41EC17F0CB
:102020000F01320E536F0F01020E526F41EC17F089
:102030000F01400E536F0F01030E526F41EC17F06A
:102040000F013F0E536F0F01090E526F41EC17F055
:102050000F01120E536F0F01060E526F41EC17F075
:102060000F010C0E536F0F01070E526F41EC17F06A
:102070000F01EE0E536F0F010A0E526F41EC17F075
:102080000F01050E536F0F010B0E526F41EC17F04D
:102090000F01040E5B6F030E5C6F98EC17F004C128
:1020A00053FF0F01040E526F41EC17F005C153FFAF
:1020B0000F01050E526F41EC17F006C153FF0F01DF
:1020C000020E526F41EC17F007C153FF0F01030ED0
:1020D000526F41EC17F008C153FF0F01526B41ECF6
:1020E00017F009C153FF0F01010E526F41EC17F0B9
:1020F0000F01120E4F6FDCEC16F0006EE8CF2AFFD6
:102100000F01596B010E5A6F0F01100E586F71ECD1
:1021100017F00F01720E596F040E5A6F0F01140E53
:10212000586F71EC17F00F015D6BA6EC17F00F0103
:10213000040E576F0F011F0E566F61EF17F00F015E
:10214000010E516F02EC17F0F350040B01E0010E89
:1021500012000F012B510AE00F011F0E4F6FDCEC34
:1021600016F0E850080B080A2AE0010C2451235D00
:102170000BE10F011F0E4F6FDCEC16F00001E85071
:10218000080B080A1CE0010C0C01010EAB6F070ED6
:10219000AB5D14E2AB51050DF3CFE9FFF4CFEAFFDD
:1021A000000EE9260F0EEA22040EE926000EEA22AE
:1021B000EF50010B01E0010CAB2BE9D7000E120030
:1021C0000F012C510AE00F011F0E4F6FDCEC16F0CF
:1021D000E850080B01E1000CFF0C0C01010EAB6F85
:1021E000070EAB5D33E2AB51050DF3CFE9FFF4CF42
:1021F000EAFF000EE9260F0EEA22040EE926000E81
:10220000EA22EF50010B20E0AB51050DF3CFE9FFBF
:10221000F4CFEAFF000EE9260F0EEA22040EE926AB
:10222000000EEA22EF90AB51050DF3CFE9FFF4CF9A
:10223000EAFF000EE9260F0EEA22040EE926000E40
:10224000EA22EF92AB511200AB2BCAD7FF0C0F0161
:102250002D51070811E32D51050DF3CFE9FFF4CF00
:10226000EAFF000EE9260F0EEA22040EE926000E10
:10227000EA22EF802DCF23FF12000F01295101E048
:102280001200010E296F25CF87FC26CF88FC0C0198
:10229000875F000E885B87CC00F088CC01F0026A73
:1022A000036AD880070E0054100E0154000E025429
:1022B000000E035404E2070E876F100E886F0F01A3
:1022C000400E576F0F011E0E566F61EC17F00C0E8B
:1022D0000F015B6F5C6B98EC17F087CC53FF0F011D
:1022E0000C0E526F41EC17F088CC53FF0F010D0E0E
:1022F000526F41EF17F00F01190E5B6F010E5C6F0B
:1023000098EC17F00F01190E4F6FDCEC16F0006E11
:10231000E8CFABFC0E0E0F015B6F5C6B98EC17F017
:102320000F010E0E4F6FDCEC16F0006EE8CFADFC27
:102330000F010F0E4F6FDCEC16F0006EE8CFAEFC15
:102340000F01190E5B6F010E5C6F98EC17F00F0117
:10235000190E4F6FDCEC16F0006E0C01AB51000152
:10236000005CD0E10C0E0F015B6F5C6B98EC17F01A
:102370000F010C0E4F6FDCEC16F0006EE8CFABFCDB
:102380000F010D0E4F6FDCEC16F0006EE8CFACFCC9
:102390000C01AD51AB5DAE51AC591BE2070E046EA2
:1023A000100E056E066A076AAB51AD5D086EAE5140
:1023B000AC55096E0A6A0B6A0850045C006E09503D
:1023C0000558016E0A500658026E0B500758036EEE
:1023D00014D0AB51AD1908E1AC51AE1905E1070EAF
:1023E000F36E100EF46E1200AD51AB5D006EAC5189
:1023F000AE55016E0006000E015A00C0F3FF01C089
:10240000F4FF12000F01190E5B6F010E5C6F98EC68
:1024100017F00F01190E4F6FDCEC16F0006E000183
:10242000005002E1000E94D00F01295103E125DF95
:10243000000E8ED025CF27FF26CF28FF0F015B6B24
:102440005C6B98EC17F025CF53FF0F01526B41ECFA
:1024500017F026CF53FF0F01010E526F41EC17F01A
:10246000140E0F01486F496B0F01000E466F0C0EE2
:10247000476F7CEC16F012CC19F213CC1AF27EECFA
:1024800035F0F3CF12FCF4CF13FC00CC00F001CCFC
:1024900001F0026A036AD880070E0054100E01543E
:1024A000000E0254000E03541BE30C010C010051FA
:1024B000010B16E10C010C010551800B11E10C011F
:1024C0000C010451100B0CE10C01EE0ED8800255EA
:1024D000050E035505E30C010C010451800B01E1CD
:1024E000FF0000CC25FF01CC26FF060EE66EE66A53
:1024F0000C0EE66E0C0EE66E2ECFE9FF2FCFEAFF34
:10250000E9CF00F0EACF01F000C0E6FF01C0E6FF2E
:102510002AEC34F0026E060EE15E025030CFE9FF85
:1025200031CFEAFFEF68080E0C01135D0DE10C01DD
:10253000125104E0060E0C01125D06E130CFE9FFF6
:1025400031CFEAFF12CCEFFF0F01296B010E00D053
:102550001200020E0F015B6F5C6B98EC17F00F011D
:102560002351050DF3CFE9FFF4CFEAFF000EE92672
:102570000F0EEA22EFCF53FF0F01020E526F41EC14
:1025800017F00F012351050DF3CFE9FFF4CFEAFF58
:10259000000EE9260F0EEA22010EE926000EEA22BD
:1025A000EFCF53FF0F01030E526F41EC17F00F01F5
:1025B0002351050DF3CFE9FFF4CFEAFF000EE92622
:1025C0000F0EEA22EECF00F0EFCF01F00E0E002644
:1025D000000E012200503527015036232351050DEE
:1025E000F3CFE9FFF4CFEAFF000EE9260F0EEA224F
:1025F000020EE926000EEA2235CFEEFF36CFEDFFC0
:102600000F014A6BA6DB060E0F014D6F4E6B32CFEA
:102610004BFF33CF4CFFABDB060E0F014D6F4E6B04
:102620000F01040E4B6F010E4C6FA1DB0F01080E62
:102630004A6F8FDB0F01345102E1000E01D0060E0C
:102640000F014A6FA9EF16F0040E0F015B6F5C6B70
:1026500098EC17F00F012351050DF3CFE9FFF4CFEC
:10266000EAFF000EE9260F0EEA22EFCF53FF0F011B
:10267000040E526F41EC17F00F012351050DF3CFFB
:10268000E9FFF4CFEAFF000EE9260F0EEA22010E61
:10269000E926000EEA22EFCF53FF0F01050E526F1D
:1026A00041EC17F00F012351050DF3CFE9FFF4CFF3
:1026B000EAFF000EE9260F0EEA22020EE926000EBE
:1026C000EA22EFCF53FF0F01060E526FDADB0F0144
:1026D0002351050DF3CFE9FFF4CFEAFF000EE92601
:1026E0000F0EEA22020EE926000EEA22010EE9266A
:1026F000000EEA22EFCF53FF0F01070E526FC1DB2E
:1027000023CF24FF0F012351050DF3CFE9FFF4CFB1
:10271000EAFF000EE9260F0EEA22040EE926000E5B
:10272000EA22EF820F011C0E4F6F46DB006E0001A4
:1027300000A20ED00F01800E576F0F011F0E566FB3
:10274000C0DB0F01800E556F0F011F0E546FA9DB08
:102750000F010A0E556F0F011C0E546FA2DB0F0103
:10276000080E576F0F011F0E566FABDB050E0F01E2
:102770002A5D01E0B1D00F011C0E4F6F1DDB006E12
:102780000A0E00010014F7E00F011C0E4F6F14DB5E
:10279000006E000100A2A0D00F01080E556F0F01BE
:1027A0001F0E546F7EDB0F015B6B5C6BC1DB0F0197
:1027B0004F6B02DB006EE8CFABFC0F01010E4F6FD9
:1027C000FBDA006EE8CFACFC0F01060E4F6FF4DAB7
:1027D000006EE8CFADFC0F01070E4F6FEDDA006E13
:1027E000E8CFAEFC0C01AD2B000EAE23ADCC53FFF9
:1027F0000F01526B46DBAECC53FF0F01010E526F3F
:1028000040DB070E0F01486F496B0F01AF0E466F9B
:102810000C0E476F71DA0C01B66B100EB65D51E20B
:102820000F011C0E4F6FC8DA006E0001E850020B5A
:1028300048E00C01B251200B44E00F01800E576FAD
:102840000F011F0E566F3DDB0F01800E556F0F01FC
:102850001F0E546F26DB0F010A0E556F0F011C0E61
:10286000546F1FDB0F01080E576F0F011F0E566FBD
:1028700028DB0F011C0E4F6F9FDA006E0A0E00015D
:102880000014F7E00F01080E556F0F011F0E546F73
:1028900008DBADCC53FF0F01526BF3DAAECC53FF24
:1028A0000F01010E526FEDDA070E0F01486F496BF1
:1028B0000F01AF0E466F0C0E476F1EDA0C01B62BE0
:1028C000ACD7ABCC53FF0F01526BDBDAACCC53FF70
:1028D0000F01010E526FD5DA1200140E0F01016ABA
:1028E0002725006E28510122005037250C01876FE3
:1028F00001500F0138210C01886F87CC00F0016E68
:10290000026A036AD880070E0054100E0154000EAC
:102910000254000E035404E2080E875F100E885B19
:102920000F015B6B5C6B04DB87CC53FF0F01526BB9
:10293000A8DA88CC53FF0F01010E526FA2DA87CCC0
:1029400053FF0F01020E526F9CDA88CC53FF0F0128
:10295000030E526F41EF17F039CF23FF0F013951AA
:10296000050DF3CFE9FFF4CFEAFF000EE9260F0EC5
:10297000EA22EECF00F0EFCF01F0010E0026000EAC
:1029800001220E0E0026000E012200503A270150AF
:102990003B23020E0F015B6F5C6BCADA3ACF53FF29
:1029A0000F01526B6EDA3BCF53FF0F01010E526FD6
:1029B00068DA3ACF53FF0F01020E526F62DA3BCF53
:1029C00053FF0F01030E526F41EF17F0140E0F016A
:1029D000016A2725006E2851012200503C250C0178
:1029E0002C6F01500F013D210C012D6F2CCC00F0FC
:1029F000016E026A036AD880070E0054100E01545B
:102A0000000E0254000E035404E2080E2C5F100E58
:102A10002D5B100E0F015B6F5C6B8ADA2CCC53FFC1
:102A20000F01100E526F2DDA2DCC53FF0F01110E36
:102A3000526F27DA3ECF00F03FCF01F00006000EC4
:102A4000015A00500C012C2701502D232CCC00F0F2
:102A50002DCC01F0026A036AD880070E0054100ED4
:102A60000154000E0254000E035404E2080E2C5FC1
:102A7000100E2D5B2CCC53FF0F01120E526F01DA9A
:102A80002DCC53FF0F01130E526FFBD90F01300EE7
:102A9000576F0F011F0E566F14DA0F011F0E4F6F85
:102AA0008BD9006E000100BAF8D70F01160E4F6FD8
:102AB00083D9006EE8CF2DFC0F01170E4F6F7CD924
:102AC000006EE8CF2CFCF36E2DCCF4FF12000F014A
:102AD0002351050DF3CFE9FFF4CFEAFF000EE926FD
:102AE0000F0EEA22EECF00F0EFCF01F00E0E00261F
:102AF000000E0122005040250C01C36F01500F0150
:102B000041210C01C46F010EC327000EC423100E17
:102B10000F015B6F5C6B0CDAC3CC53FF0F01100E1F
:102B2000526FAFD9C4CC53FF0F01110E526FA9D908
:102B300042CF00F043CF01F00006000E015A0050D2
:102B40000C01C3270150C423C3CC53FF0F01120E45
:102B5000526F97D9C4CC53FF0F01130E526F91D906
:102B60000F01300E576F0F011F0E566FAAD90F01BC
:102B70001F0E4F6F21D9006E000100BAF8D70F0168
:102B8000160E4F6F19D9006EE8CFC4FC0F01170E57
:102B90004F6F12D9006EE8CFC3FCF36EC4CCF4FFC4
:102BA00012000F014451451103E1F368F46812006B
:102BB000010E44190CE145510AE18DD8016E006AFD
:102BC000001E011E00C0F3FF01C0F4FF12000F0140
:102BD0005B6B5C6BADD90F014F6BEED8006EE8CF2D
:102BE000ABFC0F01010E4F6FE7D8006EE8CFACFCD5
:102BF000ABCC53FF0F01100E526F43D9ACCC53FF37
:102C00000F01110E526F3DD9ABCC00F0ACCC01F0EE
:102C1000026A036AD880070E0054100E0154000E99
:102C20000254000E035421E344CF00F045CF01F0DD
:102C30000006000E015A00500C01AB270150AC23D6
:102C4000ABCC00F0ACCC01F0026A036AD880070E6E
:102C50000054100E0154000E0254000E035411E2F1
:102C6000080EAB5F100EAC5B0CD044CF00F045CF2C
:102C700001F00006000E015A00500C01AB27015074
:102C8000AC23ABCC53FF0F01120E526FFAD8ACCC71
:102C900053FF0F01130E526FF4D80F01300E576F10
:102CA0000F011F0E566F0DD90F011F0E4F6F84D8E5
:102CB000006E000100BAF8D70F01160E4F6F7CD8D6
:102CC000006EE8CFABFC0F01170E4F6F75D8ABCC81
:102CD000F3FFF46E12008C969E963A0EC96E9EA675
:102CE000FED79E96C96A9EA6FED7C9CFADFC9E961A
:102CF0008C860C01AD5112008C969E963A0EC96ED0
:102D00000C01B76BB86B0F014607000E475B9EA620
:102D1000FED79E960F0148510C01B75D0F01495136
:102D20000C01B85910E2C96AB72B000EB8230F0185
:102D3000462B47239EA6FED7C95046CFE9FF47CF73
:102D4000EAFFEF6EE6D78C86B7CCF3FFB8CCF4FF82
:102D500012008C969E967A0EC96E9EA6FED79E96FF
:102D60004ACFC9FF9EA6FED79E968C8612008C96EF
:102D70009E967A0EC96E9EA6FED7C9CFC3FC9E96BC
:102D80000F014D514E110EE04BCFE9FF4CCFEAFF42
:102D9000EF50C96E4B2B000E4C234D074E5B9EA689
:102DA000FED7EBD78C8612008C969E96C9689EA69D
:102DB000FED79E968C8612008C969E964FCFC9FFAA
:102DC0009EA6FED79E96C96A9EA6FED7C9CFC5FC11
:102DD0009E968C860C01C55112008C969E9650CF03
:102DE000C9FF9EA6FED79E96C96A9EA6FED79E964E
:102DF000C96A9EA6FED7C9CF05FC9E968C860C019B
:102E0000055112000F01140E5B6F020E5C6F90D81B
:102E100051CF53FF0F01140E526F33D80F01010E23
:102E2000536F0F01120E526F2CD80F010A0E5B6FF9
:102E3000030E5C6F7DD80F010A0E506FCEDF006E5F
:102E4000000100B0F8D70F01140E5B6F020E5C6F2B
:102E50006FD80F01536B0F01120E526F12D80F0172
:102E6000180E506FBADF006EE8CF03FC0F01190E89
:102E7000506FB3DF006EE8CF04FC03CCF3FFF46EB9
:102E800012008C969E96400E0F015211C96E9EA69E
:102E9000FED79E9653CFC9FF9EA6FED79E968C86E0
:102EA00012008C969E96A00E0F015411C96E9EA61C
:102EB000FED79E9655CFC9FF9EA6FED79E968C86BE
:102EC00012008C969E96800E0F015611C96E9EA61A
:102ED000FED79E9657CFC9FF9EA6FED79E968C869C
:102EE00012000F01140E5B6F020E5C6F21D858CFD9
:102EF00053FF0F01140E526FC4DF59CF53FF0F0160
:102F0000160E526FBEDF5ACF53FF0F01170E526FCE
:102F1000B8DF0F010A0E5B6F030E5C6F09D80F015B
:102F20000A0E506F5ADF006E000100B0F8D7120091
:102F30000F01030E556F0F011F0E546FB2DF5CCFF0
:102F400057FF0F011F0E566F61EF17F00F010C0EA8
:102F5000556F0F011F0E546FA4DF0F01516B52DF2D
:102F6000F3CF01FCF4CF02FC020E0F015D5D06E120
:102F70000C010251010B0F015D6F0CD05D510C0172
:102F80000291E8B0028101CC59FF02CC5AFF0F0137
:102F9000586BA7DF0F01020E5B6F5C6FC9DF0F017B
:102FA000020E506F1ADF0C01006F0F015D510C0112
:102FB0000091E8B0008100CC53FF0F01020E526F68
:102FC00060DF0F015D5102E0150E01D0120E0F01FE
:102FD000536F0F01040E526F54DF0F01040E576F31
:102FE0000F011F0E566F61EF17F00F01040E556FA2
:102FF0000F011F0E546F55DF0F011D0E4F6FDCDEEA
:10300000006E000100B4F8D70F011F0E4F6FD4DE21
:10301000006E000100B6F8D70F01200E576F0F01A8
:103020001E0E566F61EF17F00F01200E556F0F0146
:103030001E0E546F36DF0F011D0E4F6FBDDE006E8A
:10304000000100A0F8D70F01040E576F0F011F0EEB
:10305000566F61EF17F00F01150E5B6F030E5C6F7B
:1030600067DF5ECF53FF0F01150E526F41EF17F070
:103070000F01150E5B6F030E5C6F5ADF0F01150E0B
:083080004F6F9ADEE8501200C8
:08308800D8CFE4FFE0CFE4FF24
:10309000E46EDACFE4FFE2CFDAFFE9CFE4FFEACF74
:1030A000E4FFF6CFE4FFF7CFE4FFF5CFE4FFF3CF83
:1030B000E4FFF4CFE4FFFACFE4FF00EE10F00B0ED4
:1030C000E80403E3EECFE4FFFBD700EE00F0100EC0
:1030D000E80403E3EECFE4FFFBD7E652BFEC40F099
:1030E000E55200EE0FF0100EE80403E3E5CFEDFF2C
:1030F000FBD700EE1AF00B0EE80403E3E5CFEDFF7B
:10310000FBD7E5CFFAFFE5CFF4FFE5CFF3FFE5CF3F
:10311000F5FFE5CFF7FFE5CFF6FFE5CFEAFFE5CF17
:10312000E9FFE5CFDAFFE550E5CFE0FFE5CFD8FFD7
:103130001000BFDBFBEC3BF0110EE66ECDEC40F077
:10314000E552330E006E710E016E026A00C0E6FF9A
:10315000E66E02C0E6FF8A0EE66E010EE66EB3EC86
:1031600034F0036E050EE15E035049EC3CF0ACEC2C
:1031700040F0AAEC38F0C7DB81B602D05CEC1EF060
:10318000D7EC3AF048EC1FF000EC2DF0010118B13B
:1031900005D0010E1D6F0201080E636FB6EC40F002
:1031A00001011E51145C006E1F511558016E205113
:1031B0001658026E21511758036E320E005C000E35
:1031C0000158000E0258000E03580BE3B6EC40F015
:1031D00014C01EF115C01FF116C020F117C021F157
:1031E0008870E2EC3AF074EC1FF00FEC2DF07FD910
:1031F00001011D510201665DD1E066C21DF1B60EEE
:10320000006E790E016E026A00C05DF2E8CF5EF2D8
:1032100046EC40F00101000E326F010E336F0ED804
:10322000C70E006E790E016E026A00C05DF2E8CF33
:103230005EF246EC40F093EC32F0B0D70C01100E89
:10324000066F000EE66E0C0EE66E32C1E9FF33C16A
:10325000EAFFEF50E66EE66A3DEC3AF0E552E552E1
:10326000E552E5520201000E5B6F0C0E5C6F31EC13
:1032700040F00C01056B000EE66E0C0EE66ECCEC19
:1032800034F0E552E552F3CF00F0F4CF01F00C0139
:10329000F350055D000EF45414E20551EA6A000F84
:1032A000E96E0C0EEA22EF50E66E0651062BEA6A32
:1032B0008A0FE96E010EEA22E552E750EF6E052B08
:1032C000DAD70651062BEA6A8A0FE96E010EEA2266
:1032D0002E0EEF6E01EC40F00009FCE102012E0E13
:1032E000576F14EC40F0000EE66E0C0EE66E32C125
:1032F000E9FF33C1EAFF010EE926000EEA22EF5092
:10330000E66EE66A3DEC3AF0E552E552E552E552EA
:103310000201000E5B6F0C0E5C6F31EC40F00C0193
:10332000056B000EE66E0C0EE66ECCEC34F0E5524A
:10333000E552F3CF00F0F4CF01F00C01F350055D3E
:10334000000EF45414E20551EA6A000FE96E0C0E07
:10335000EA22EF50E66E0651062BEA6A8A0FE96E02
:10336000010EEA22E552E750EF6E052BDAD706513F
:10337000062BEA6A8A0FE96E010EEA222E0EEF6E24
:1033800001EC40F00009FCE102012E0E576F14EC35
:1033900040F0000EE66E0C0EE66E32C1E9FF33C15E
:1033A000EAFF020EE926000EEA22EF50E66EE66A18
:1033B0003DEC3AF0E552E552E552E5520201000ECD
:1033C0005B6F0C0E5C6F31EC40F00C01056B000E76
:1033D000E66E0C0EE66ECCEC34F0E552E552F3CF1F
:1033E00000F0F4CF01F00C01F350055D000EF45431
:1033F00014E20551EA6A000FE96E0C0EEA22EF5062
:10340000E66E0651062BEA6A8A0FE96E010EEA2281
:10341000E552E750EF6E052BDAD70651062BEA6A24
:103420008A0FE96E010EEA222E0EEF6E01EC40F0DB
:103430000009FCE102012E0E576F14EC40F0000E63
:10344000E66E0C0EE66E32C1E9FF33C1EAFF030EF1
:10345000E926000EEA22EF50E66EE66A3DEC3AF00D
:10346000E552E552E552E5520201000E5B6F0C0E8B
:103470005C6F31EC40F00C01056B000EE66E0C0E3B
:10348000E66ECCEC34F0E552E552F3CF00F0F4CF29
:1034900001F00C01F350055D000EF45414E20551E7
:1034A000EA6A000FE96E0C0EEA22EF50E66E065152
:1034B000062BEA6A8A0FE96E010EEA22E552E7500E
:1034C000EF6E052BDAD7200E065D0AE20651062BB9
:1034D000EA6A8A0FE96E010EEA22200EEF6EF3D738
:1034E00049EC3CF001EC40F00009FCE11200C28222
:1034F000C2B2FED7C050F36EC080C082E850C06E2A
:10350000340EE66E010EE66EC3CFE6FFC4CFE6FFD3
:103510003DEC3AF0E552E552E552E55212003CC16D
:10352000E9FF3DC1EAFFEE50EFCFEAFFE96EEF5051
:10353000D00F0C01856FE850010A1AE0010A74E10E
:10354000020E0101EA6A3C25E96E3D51EA22EE5085
:10355000EFCFEAFFE96EEF50D00F0C01866FE85015
:10356000010A04E0010A60E188725ED088745CD0D0
:1035700001013E51020856E2040EEA6A3C25E96E5A
:103580003D51EA22EECFE6FFEFCFE6FFCCEC34F080
:10359000E552E552F3CF00F0F4CF01F0200EF35CDA
:1035A000000EF45824E2200EE66EE66AE66E8A0EFD
:1035B000E66E010EE66E78EC34F0006E050EE15E0C
:1035C0000050040E0101EA6A3C25E96E3D51EA22F1
:1035D000EECFE6FFEFCFE6FF8A0EE66E010EE66E57
:1035E00092EC34F0E552E552E552E55218D0200E47
:1035F000E66EE66A040E0101EA6A3C25E96E3D5179
:10360000EA22EECFE6FFEFCFE6FF8A0EE66E010E6E
:10361000E66E2AEC34F0006E060EE15E005049ECD6
:103620003CF002D0C1EC3CF00A0EE66EE66ACA0E2F
:10363000006E790E016E026A00C0E6FFE66E02C0FF
:10364000E6FF3CC1E9FF3DC1EAFFEECFE6FFEFCF69
:10365000E6FF55EC34F0036E070EE15E03501200F6
:1036600001013F51170A01E1B1D0010A01E176D011
:10367000190A68E0010A61E0030A5BE0090A55E003
:10368000060A31E0170A2BE0010A25E0070A1FE0CD
:10369000010A19E0030A13E0010A0DE0110A07E02C
:1036A000010A01E0CFD08850010B4FE149D088508A
:1036B000020B46E04AD08850040B42E046D08850C6
:1036C000080B3EE042D08850100B3AE03ED08850C4
:1036D000200B36E03AD08850400B32E036D088508C
:1036E000800B2EE032D04051EA6A340FE96E010EB1
:1036F000EA22EF5042C1E9FF43C1EAFFEF6E4051B9
:10370000EA6A340FE96E010EEA22EF5001E19AD025
:10371000402B000E41234051EA6A340FE96E010E3E
:10372000EA22EF5001E089D08DD08150080B08E0EB
:103730000CD08150040B04E008D08150020B05E14D
:10374000300E06D08150010B02E0310E01D0300E58
:1037500042C1E9FF43C1EAFFEF6E74D0405141110D
:1037600014E12D0E006E710E016E026A00C0E6FFBC
:10377000E66E02C0E6FF440EE66E010EE66EB3ECA6
:1037800034F0036E050EE15E035001014051EA6A18
:10379000440FE96E010EEA22EF5042C1E9FF43C136
:1037A000EAFFEF6E4051EA6A440FE96E010EEA2229
:1037B000EF5048E0402B000E41234051EA6A440F8D
:1037C000E96E010EEA22EF5038E13CD04051411140
:1037D00014E1210E006E710E016E026A00C0E6FF58
:1037E000E66E02C0E6FF440EE66E010EE66EB3EC36
:1037F00034F0036E050EE15E035001014051EA6AA8
:10380000440FE96E010EEA22EF5042C1E9FF43C1C5
:10381000EAFFEF6E4051EA6A440FE96E010EEA22B8
:10382000EF5010E0402B000E41234051EA6A440F54
:10383000E96E010EEA22EF5005E040C1F3FF41C1FD
:10384000F4FF1200F368F4681200030EE66EE66AF5
:10385000E90E006E790E016E026A00C0E6FFE66EA8
:1038600002C0E6FF58C1E6FF59C1E6FF0BEC34F099
:10387000036E070EE15E035000091AE1090EE66EC1
:10388000E66AED0E006E790E016E026A00C0E6FF78
:10389000E66E02C0E6FF5AC1E6FF5BC1E6FF0BEC35
:1038A00034F0036E070EE15E0350000901E1010CE4
:1038B000000C9A909A929A949A969A989A9A9A9CAC
:1038C0009A9E88908892889488968898889A889CEE
:1038D000889E400E9B6E890EC26E0B0EC16E2F0E1F
:1038E000926EBE0EC06EF19E200EAC6E900EAB6E50
:1038F000200EAF6ED56AF28EF28CC28EC282C2B238
:10390000FED7C29E1200010118810C01000E046F47
:10391000010E056F0001F36BF46B0001A00EF26F56
:10392000D5EC3DF0DFEC3DF00C01036F07EC3EF011
:10393000550E0C01035D25E1010E0001F36FF46BE0
:103940000001A00EF26FD5EC3DF00C01036B0351AA
:10395000006E016A1D0E005C000E015810E2DFECE3
:103960003DF0E66E0C0104CCE9FF05CCEAFF042B28
:10397000000E0523E552E750EF6E032BE8D707EF63
:103980003EF0C3EF1CF00C01000E016F010E026F40
:103990000001FC6BFD6B0001A00EFB6F2DEC3EF0F7
:1039A0000001550EFE6F37EC3EF00C01006B00512C
:1039B000006E016A1D0E005C000E01580EE201CC83
:1039C000E9FF02CCEAFF012B000E0223EFCFFEF04D
:1039D00037EC3EF00C01002BEAD749EF3EF05CC11A
:1039E00001FC5DC102FC0C01036B5CC1E9FF5DC120
:1039F000EAFFEFCF00FCEF5038E02E0E0C01005D27
:103A000028E101015CC1E9FF5DC1EAFF5C2B000E0A
:103A10005D23EF6A01CCE6FF02CCE6FFC8EC39F08B
:103A2000E552E552F350E66E5EC100F05FC101F071
:103A30000C010351032B0F010024E96E000E01203D
:103A4000EA6EE552E750EF6E5CC101FC5DC102FC1D
:103A500007D0300E005D03E30051390801E2000C8D
:103A600001015C2B000E5D23C0D701CCE6FF02CC28
:103A7000E6FFC8EC39F0E552E552F350E66E5EC160
:103A800000F05FC101F00C0103510F010024E96E49
:103A9000000E0120EA6EE552E750EF6E030E0C01B6
:103AA000035D01E0000C010C0DEC40F00009FCE0AE
:103AB00012EC40F00C01006F310E005D05E3390E91
:103AC000005D02E200511200390CC70E006E790E43
:103AD000016E026A00C05DF2E8CF5EF246EC40F093
:103AE000300E0101605DFF0FE96EEA6AD890E93699
:103AF000EA36220EE926010EEA22EECF00F0EFCFE1
:103B000001F0026A00C05DF201C05EF246EC40F0D6
:103B100001016051380A01E1CDD00F0A01E1C8D09E
:103B2000010A01E1C2D0030A01E1BCD0010A5FE051
:103B3000070A58E0010A51E0030A01E012008F0E63
:103B4000E66E0C0EE66E12C1E6FF13C1E6FF3DEC19
:103B50003AF0E552E552E552E55202018F0E5B6FF5
:103B60000C0E5C6F31EC40F001EC40F00009FCE120
:103B70000201290E576F14EC40F001EC40F00009EF
:103B8000FCE102013A0E576F14EC40F001EC40F0FA
:103B90000009FCE10201200E576F14EC40F0020115
:103BA000140E146F02018F0E126F0C0E136F1DECAA
:103BB00035F0000901E17FD08F0EE66E0C0EE66E47
:103BC000C8EC39F0E552E552F3CF12F1F4CF13F11E
:103BD000F4CF08F1F3CF09F112000C01000EA76F2A
:103BE000010E09D00C010E0EA76F010E04D00C01BE
:103BF0000A0EA76F010EA86FA7CC32F1E8CF33F100
:103C00001EEC19F001EC40F00009FCE10201290E64
:103C1000576F14EC40F001EC40F00009FCE10201A8
:103C20003A0E576F14EC40F001EC40F00009FCE153
:103C30000201200E576F14EC40F00201140E146FB5
:103C400002018F0E126F0C0E136F1DEC35F0010187
:103C5000A30E5E6F0C0E5F6F01018F0E5C6F0C0E7A
:103C60005D6FBDDE000911E14A0E006E7B0E016E34
:103C7000026A00C05DF2E8CF5EF246EC40F00DEC67
:103C800040F00009FCE012EF40F0A7CCE9FFA8CC1F
:103C9000EAFFA3CCEEFFA4CCEEFFA5CCEEFFA6CCB2
:103CA000EEFF1200010118811200010118911200AB
:103CB00075EF1EF068DE1200F70E006E790E016ED1
:103CC000026A00C05DF2E8CF5EF246EC40F0ECDE46
:103CD0000C01AC6F390EAC5D03E0ACCC60F1F5DEED
:103CE000380E0C01AC5DE8E112000C01006B046BB6
:103CF00063EC39F0F3CF02FCF4CF03FCB6EC40F0F8
:103D000014C087FC15C088FC16C089FC17C08AFC4B
:103D1000B6EC40F014C08BFC15C08CFC16C08DFCBA
:103D200017C08EFC870EE96E0C0EEA6EEE500C0189
:103D3000145C006EEE501558016EEE501658026E6F
:103D4000EE501758036E320E005C000E0158000E44
:103D50000258000E035814E3B6EC40F014C087FC80
:103D600015C088FC16C089FC17C08AFC01EC40F025
:103D70000009FCE10201150E576F14EC40F0887E3B
:103D80000DEC40F00009C4E00C01045101E07FD0CB
:103D90000DEC40F00009F8E0887E12EC40F00C01D8
:103DA000016F0051030A2DE0010A28E0030A21E017
:103DB000010502E1010E23D0040E015D10E1888EA1
:103DC00026EC39F001EC40F00009FCE10201060E9E
:103DD000576F14EC40F00C01010E046FD5D701ECC5
:103DE00040F00009FCE10201150E576F14EC40F0A1
:103DF000CBD7060E066F056B020E01D0030E006FC7
:103E0000C3D70551052BEA6A070FE96E0C0EEA22AB
:103E100001CCEFFF0551006E016A0134B5E200509C
:103E20008008000E0154B0E202CC3FF203CC40F215
:103E300069EC39F00C01060E066F016B0151006E42
:103E4000016AD890015004E6800E005C000E015813
:103E50000DE20151EA6A070FE96E0C0EEA22EFCF7C
:103E600041F27FEC39F00C01012BE8D799EC39F0E5
:103E7000F3CF02FCF4CF03FC01EC40F00009FCE1BD
:103E800006CC57F214EC40F00C01006B7DD7010C0E
:103E90000C01036B030E035D26E2500E0001A46FBC
:103EA000A56BA4EC00F0E66E0C0103510A0DF3CFF4
:103EB000E9FFF4CFEAFF610EE926010EEA22E5529E
:103EC000E750EF6E03510A0DF3CFE9FFF4CFEAFF9D
:103ED000610EE926010EEA22030EE926000EEA220F
:103EE000EF6A032BD7D712000C01CA6B030ECA5D11
:103EF00006E2CACC7FF104D80C01CA2BF7D7120016
:103F000001017F510A0DF3CF81FCF4CF82FC610ED9
:103F10000C018127010E8223686B81CCE9FF82CCE2
:103F2000EAFFEF500001AA6FF8EC01F000090AE186
:103F300081CCE9FF82CCEAFF030EE926000EEA22DB
:103F4000EF6A120081CCE9FF82CCEAFF030EEB504E
:103F5000090A01E10AD2080A01E1E0D10A0A01E1F5
:103F60001AD1090A01E1D5D0020A01E027D281CC99
:103F7000E9FF82CCEAFFEF500001B96FAFEC04F02B
:103F8000000901E11BD20C01010E686F666B676BC3
:103F90000C01640E665D000E675917E266CCB7F03F
:103FA00067CCB8F0662B000E6723000E0001B72720
:103FB0000C0EB82381CCE9FF82CCEAFFEF50000160
:103FC000B66F54EC04F00009E3E1000E0C01662525
:103FD000E96E0C0E6721EA6EEF6A81CCE9FF82CCB4
:103FE000EAFFEF500001B06FE9EC03F081CCE9FF8C
:103FF00082CCEAFF030EE926000EEA22020EEF6EE3
:104000000C010B0E7F6F81CCE9FF82CCEAFF090E19
:10401000E926000EEA22E9CF88F1EACF89F1010111
:104020007F0E866F0C0E876F0101690E846F0C0E78
:10403000856F0101000E826F0C0E836FE3DA0C01B5
:10404000656FE85001E0BAD17F51010813E27FCCDF
:104050003EF10101690E3C6F0C0E3D6F8FEC1AF0C2
:1040600081CCE9FF82CCEAFF090EE926000EEA22A4
:10407000030EEF6E69CC3BF26ACC3CF2B3EC38F045
:10408000F3CF00F0F4CF01F081CCE9FF82CCEAFF5E
:10409000010EF3CFEBFF020E01C0EBFF81CCE9FF75
:1040A00082CCEAFFEE52FF0EEE180DE1FF0EED1886
:1040B0000AE181CCE9FF82CCEAFF080EE926000E76
:1040C000EA22EF6A12D081CCE9FF82CCEAFFEE52FD
:1040D000EE50ED1014E181CCE9FF82CCEAFF080E2E
:1040E000E926000EEA22010EEF6E81CCE9FF82CCB8
:1040F000EAFF030EE926000EEA22020E5ED181CC11
:10410000E9FF82CCEAFF030EE926000EEA220B0E3D
:1041100054D181CCE9FF82CCEAFFEF500001AD6FB2
:1041200031EC03F0000901E149D181CCE9FF82CCF7
:10413000EAFF080EEB50E96EEA6AD890E936EA36F3
:104140005F0EE926020EEA22EECF83FCEDCF84FC5F
:104150000C0183CCF6FF84CCF7FF832B000E842365
:104160000800F5CF80FCF5500CE080CCAFF081CC9E
:10417000E9FF82CCEAFFEF500001AE6F6CEC03F078
:10418000E7D781CCE9FF82CCEAFFEF500001AC6FAA
:1041900089EC02F0E0D081CCE9FF82CCEAFFEF505D
:1041A0000001AD6F31EC03F0000901E107D10C0112
:1041B000010E686F81CCE9FF82CCEAFF090EEB505B
:1041C000030828E181CCE9FF82CCEAFF070EE9264B
:1041D000000EEA22010EEF6E806B8051006E016AC4
:1041E000840E005C000E01583CE28051F76A420FD9
:1041F000F66E7E0EF7220800F5CFAFF081CCE9FF16
:1042000082CCEAFFEF500001AE6F6CEC03F00C01C2
:10421000802BE3D781CCE9FF82CCEAFF070EE926A9
:10422000000EEA22EF6A806B8051006E016A1F0E59
:10423000005C000E015815E28051F76A220FF66EFD
:104240007E0EF7220800F5CFAFF081CCE9FF82CCDB
:10425000EAFFEF500001AE6F6CEC03F00C01802B15
:10426000E3D781CCE9FF82CCEAFF090EEB50140DB5
:10427000F3CFF6FFF4CFF7FF820EF6267D0EF7227E
:10428000F6CF83FCF7CF84FC0C0183CCF6FF84CC03
:10429000F7FF832B000E84230800F5CF80FCF55038
:1042A0000CE080CCAFF081CCE9FF82CCEAFFEF508C
:1042B0000001AE6F6CEC03F0E7D7806B8051006EAD
:1042C000016A040E005C000E015815E28051F76A85
:1042D000C70FF66E7E0EF7220800F5CFAFF081CC47
:1042E000E9FF82CCEAFFEF500001AE6F6CEC03F007
:1042F0000C01802BE3D781CCE9FF82CCEAFF040ECE
:10430000E926000EEA22030EEF6E81CCE9FF82CC93
:10431000EAFFE926000EEA22010E4FD081CCE9FF28
:1043200082CCEAFFEF500001B96FAFEC04F0000956
:1043300009E081CCE9FF82CCEAFFEF500001B06FC9
:10434000E9EC03F081CC80F182CC81F13CD800090A
:1043500035E026EC39F081CCE9FF82CCEAFF030E90
:10436000E926000EEA22090E28D081CCE9FF82CC92
:10437000EAFFEF500001AA6FF8EC01F000091EE01F
:1043800081CCE9FF82CCEAFFEF500001AD6F31EC48
:1043900003F0000913E081CCE9FF82CCEAFFEF5083
:1043A0000001AB6F08EC02F081CCE9FF82CCEAFFA0
:1043B000030EE926000EEA220A0EEF6E0C01685188
:1043C00001E0AAD5120080C1E9FF81C1EAFFEE52E7
:1043D000EECF3DF2EDCF3EF22DEC39F080C1E9FF9A
:1043E00081C1EAFF070EEB50000901E1CED080C188
:1043F000E9FF81C1EAFFEF500001AD6F31EC03F03E
:10440000000901E1EED00C01BF6B80C1E9FF81C161
:10441000EAFF040EEB5008080AE03EEC39F00C010C
:10442000C06F0201361D03E1371D01E1C2D080C11A
:10443000E9FF81C1EAFF040EEB50080A52E00E0AC0
:1044400029E0030A14E0060A01E08FD0250E0C01D2
:10445000C05D0AE180C1E9FF81C1EAFF040EE926DF
:10446000000EEA22050E80D0010EBF6F7ED0250E11
:104470000C01C05D03E1010EBF6F6DD0C0CCC2FC6A
:1044800080C1E9FF81C1EAFF040EE926000EEA229D
:10449000060E6AD0C0CCC1FCC0CC15F2C2CC16F25C
:1044A00046EC35F0E66E80C1E9FF81C1EAFF080EF7
:1044B000E926000EEA22E552E750EF6E80C1E9FFDF
:1044C00081C1EAFF040EE926000EEA22080EEF6E13
:1044D00080C1E9FF81C1EAFF050EEB6A060EEB6AB7
:1044E00044D00101C00E426F0C0E436F80C1E9FF42
:1044F00081C1EAFF050EE926000EEA22EECF40F167
:10450000EDCF41F180C1E9FF81C1EAFF080EEB5018
:1045100001013F6F30EC1BF0F3CF00F0F4CF01F05E
:1045200080C1E9FF81C1EAFF050EF3CFEBFF060E64
:1045300001C0EBFF0C01010EBF6F80C1E9FF81C11B
:10454000EAFF050EE926000EEA22FF0EEE180DE145
:10455000FF0EED180AE180C1E9FF81C1EAFF040EF8
:10456000E926000EEA22030EEF6E0C01BF5101E1B5
:104570003ED7C0CCAFF080C1E9FF81C1EAFFEF5068
:104580000001AE6F6CEC03F032D780C1E9FF81C14E
:10459000EAFFEF500001AD6F31EC03F0000921E0BC
:1045A0003EEC39F00C01C06F0201361D0EE1371DE3
:1045B0000CE15CEC39F080C1E9FF81C1EAFFEF500A
:1045C0000001AC6F89EC02F0010CC0CCAFF080C1EF
:1045D000E9FF81C1EAFFEF500001AE6F6CEC03F020
:1045E000D4D75CEC39F0F3CF00F0F4CF01F080C108
:1045F000E9FF81C1EAFF010EF3CFEBFF020E01C01C
:10460000EBFF000C0C01866B886B896B856B030ECE
:10461000E66EE66ACC0E006E7E0E016E026A00C087
:10462000E6FFE66E02C0E6FF82C1E6FF83C1E6FF59
:104630000BEC34F0036E070EE15E0350000908E155
:10464000040E01018227000E83230C01876B01D029
:10465000020C82C1E9FF83C1EAFFEF50200805E1A7
:104660000101822B000E8323F4D782C1E9FF83C1AD
:10467000EAFFEFCF8AFC200E0C018A5D01E195D0A4
:104680008A5101E192D00D0E8A5D01E18ED00A0EB1
:104690008A5D01E18AD086C1E9FF87C1EAFFEF5058
:1046A000855D01E382D08651020A30E0030A1DE0F5
:1046B000010A76E18551020D01018451F324E96E6E
:1046C0008551F420EA6E82C1EEFF83C1EDFF82C105
:1046D000E9FF83C1EAFFEFCF8AFC2F0E0C018A5D50
:1046E00041E05C0E8A5D5CE13DD08551852B020D79
:1046F00001018451F324E96E8551F420EA6E82C1F0
:10470000EEFF83C1EDFF0C01020E866F82C1E9FF4F
:1047100083C1EAFFEFCF8AFC3F0E8A5D1EE0260EC2
:104720008A5D1BE02B0E8A5D07E1200E82C1E9FF46
:1047300083C1EAFFEF6E34D02E0E8A5D0BE1850552
:1047400009E10101822B000E832382C188FC83C111
:1047500089FC26D03D0E8A5D08E182C1E9FF83C154
:10476000EAFFEF6A010E866F1BD02F0E8A5D03E011
:104770005C0E8A5D15E1010E0101016A8225006E61
:10478000835101220C018505020D01018451F3249E
:10479000E96E8551F420EA6E00C0EEFF01C0EDFF26
:1047A0000101822B000E832360D782C1E9FF83C100
:1047B000EAFFEF6A070E88C1E9FF89C1EAFFEF6EE1
:1047C0008851891142E088CCE6FF89CCE6FF08ECED
:1047D00035F0E552E552F3CF88FCF4CF89FC0C01AB
:1047E000620E8B6F7D0E8C6F8A6B8A51006E016A30
:1047F000080E005C000E015828E2030EE66EE66A21
:104800008BCC00F08CCC01F0026A8BCCE6FF8CCC18
:10481000E6FF02C0E6FF88CCE6FF89CCE6FF0BECA2
:1048200034F0036E070EE15E0350000907E188C112
:10483000E9FF89C1EAFF8ACCEFFF07D0040E0C0123
:104840008B27000E8C238A2BD0D70C01855130E1A9
:10485000090EE66EE66AD00E006E7E0E016E026AEA
:1048600000C0E6FFE66E02C0E6FF84C1E9FF85C135
:10487000EAFFEECFE6FFEFCFE6FF55EC34F0036E34
:10488000070EE15E035084C1E9FF85C1EAFFEE50E7
:10489000EFCFEAFFE96E090EE926000EEA22EF6A81
:1048A000010E88C1E9FF89C1EAFFEF6E0C01852B7B
:1048B00086C1E9FF87C1EAFF85CCEFFF875112006F
:1048C000080E0201635D01E11200FF0E645D04E069
:1048D00064C293F06DEC29F002016469636B666B4E
:1048E0006591120002016351070A01E122D1010A18
:1048F00001E1C4D0030A01E1A5D0010A01E179D0A8
:10490000070A51E0010A33E0030A08E0010A01E066
:1049100012000101D76BD86BD96BDA6B0C010069FF
:10492000016902690369046905690669076908691B
:104930000969430E0001916F926B0001000E8F6FA9
:104940000C0E906F440E00018D6F8E6B04EC29F0FD
:104950000201646FB6EC40F014C0E3F115C0E4F15D
:1049600016C0E5F117C0E6F10201020E636FB6EC66
:1049700040F00101E351145C006EE4511558016EE2
:10498000E5511658026EE6511758036E140E005C7E
:10499000000E0158000E0258000E035801E21ED10D
:1049A0000201030E69D001013C0ED36FD46BD56BAD
:1049B000D66B020165A102D0050E5ED064C28CF0F8
:1049C0000F01010E2B6FA9EC10F0000901E106D1D7
:1049D0000101010EE76FF8DAB6EC40F014C0E3F124
:1049E00015C0E4F116C0E5F117C0E6F10201040EAE
:1049F00043D0B6EC40F00101E351145C006EE45189
:104A00001558016EE5511658026EE6511758036E9F
:104A1000C80E005C000E0158000E0258000E03582C
:104A200003E30201030E636F64C295F099EC2AF070
:104A3000000901E1D3D0D3D8020801E0CFD00201B0
:104A4000050E636F64C28CF00F01010E2B6FA9EC91
:104A500010F0000901E1C2D00101030EE76FB4DAE2
:104A6000B6EC40F014C0E3F115C0E4F116C0E5F176
:104A700017C0E6F10201060E636F120064C295F0E2
:104A800099EC2AF0000939E0AAD80C010A6F060E49
:104A90000A5D02E160EF24F0050E0A5D49E164C29F
:104AA00093F06DEC29F002016469B6EC40F014C09B
:104AB000E3F115C0E4F116C0E5F117C0E6F102011B
:104AC000070E636FD7C100F1D8C101F1D9C102F15E
:104AD000DAC103F1DFC10AF1E0C10BF1E1C10CF170
:104AE000E2C10DF1DBC10EF1DCC10FF1DDC110F14E
:104AF000DEC111F16581662B1200B6EC40F00101B8
:104B0000E351145C006EE4511558016EE5511658DE
:104B1000026EE6511758036EC80E005C000E015875
:104B2000000E0258000E035859E30201030E636F92
:104B30001200B6EC40F00101E351145C0C010B6F64
:104B40000101E45115580C010C6F0101E551165893
:104B50000C010D6F0101E65117580C010E6F640E28
:104B60000B5D000E0C59000E0D59000E0E5936E368
:104B70000101D307000ED45BD55BD65B640E0C013C
:104B80000B5F000E0C5B0D5B0E5B0101D351D4116A
:104B9000D511D61103E10201010E636F640E0C0101
:104BA0000B5D000E0C59000E0D59000E0E59E0E27F
:104BB000B6EC40F00C010B51145C0101E36F0C01E9
:104BC0000C5115580101E46F0C010D5116580101EB
:104BD000E56F0C010E5117580101E66F12000C0130
:104BE000126B00010F0E966F0C0E976FB1EC2AF04E
:104BF000020E0C010F5D01E0C0D1106B0F0E105DB5
:104C00000AE200010F0E966F0C0E976FB1EC2AF0BE
:104C10000C01102BF3D7020165A30FD00C01106B10
:104C2000040E105D26E200010F0E966F0C0E976FBA
:104C3000B1EC2AF00C01102BF3D70001D70E966FC0
:104C4000010E976FB1EC2AF00001D80E966F010E9D
:104C5000976FB1EC2AF00001D90E966F010E976F95
:104C6000B1EC2AF00001DA0E966F010E976FB1ECED
:104C70002AF00C01106B080E105D0AE200010F0E05
:104C8000966F0C0E976FB1EC2AF00C01102BF3D736
:104C9000106B060E105D14E200010F0E966F0C0EE5
:104CA000976FB1EC2AF00C011051EA6A040FE96E1B
:104CB000010EEA22EF500F5D01E083D1102BE9D7FE
:104CC000106BCE0E105D0AE200010F0E966F0C0EF7
:104CD000976FB1EC2AF00C01102BF3D7136B000186
:104CE0000F0E966F0C0E976FB1EC2AF0000904E1DD
:104CF0000C01010E136F41D10C010F51330A01E178
:104D0000DAD0CC0A01E1D4D0C90A01E1A8D0350A31
:104D10005BE0020A20E0340A01E01AD100010F0E24
:104D2000966F0C0E976FB1EC2AF00C010F0501E0A5
:104D300048D10001120E966F0C0E976FB1EC2AF05D
:104D400002016551020B01E114D1020E0C01125D4A
:104D500001E00FD136D100010F0E966F0C0E976F48
:104D6000B1EC2AF0040E0C010F5D01E02AD1020122
:104D700065A310D00C01106B040E105D01E3F9D097
:104D800000010F0E966F0C0E976FB1EC2AF00C011C
:104D9000102BF2D70001DF0E966F010E976FB1EC6A
:104DA0002AF00001E00E966F010E976FB1EC2AF029
:104DB0000001E10E966F010E976FB1EC2AF0000131
:104DC000E20E966F010E70D00001110E966F0C0E60
:104DD000976FB1EC2AF0040E0C01115D01E2F1D0E5
:104DE000020165A30FD00C01106B040E105D26E2CA
:104DF00000010F0E966F0C0E976FB1EC2AF00C01AC
:104E0000102BF3D70001DB0E966F010E976FB1ECFC
:104E10002AF00001DC0E966F010E976FB1EC2AF0BC
:104E20000001DD0E966F010E976FB1EC2AF00001C4
:104E3000DE0E966F010E976FB1EC2AF0040E0C0196
:104E4000115F0C0111511107000901E192D000011D
:104E50000F0E966F0C0E976FB1EC2AF0F2D700018F
:104E60000F0E966F0C0E976FB1EC2AF0040E0C012A
:104E70000F5D01E0A6D00001170E966F0C0E976F24
:104E8000B1EC2AF00001160E966F0C0E976FB1EC84
:104E90002AF00001150E966F0C0E976FB1EC2AF0F8
:104EA0000001140E966F0C0E976FB1EC2AF061D0D2
:104EB000010E136F5ED000010F0E966F0C0E976FF0
:104EC000B1EC2AF0040E0C010F5D01E07AD0020172
:104ED00065A30FD00C01106B040E105D4AE20001B7
:104EE0000F0E966F0C0E976FB1EC2AF00C01102B81
:104EF000F3D70001D60E966F010E976FB1EC2AF032
:104F00000001D50E966F010E976FB1EC2AF00001EB
:104F1000D40E966F010E976FB1EC2AF00001D30EFC
:104F2000966F010E976FB1EC2AF0D880080E010140
:104F3000D355070ED455000ED555000ED65519E29F
:104F4000080ED35F070ED45B000ED55BD65B11D085
:104F50000001110E966F0C0E976FB1EC2AF00C0148
:104F600011511107000905E000010F0E966F0C0E9C
:104F7000F3D70C01135101E1B2D6020E125D0BE121
:104F800014CCCFF115CCD0F116CCD1F117CCD2F195
:104F90000201658311D0CF0EE96E010EEA6EEE506C
:104FA000141908E1EE50151905E1EE50161902E149
:104FB000EE50171901E0126B16EC2BF00C01125198
:104FC000120016EC2BF0000C0001010E946F7FEC28
:104FD00029F00001010E946F7FEC29F00001060E0C
:104FE000946F7FEC29F00001946B7FEC29F00001B5
:104FF000120E946F7FEC29F00001230E946F7FEC6A
:1050000029F00001340E946F7FEC29F00001560E58
:10501000946F7FEC29F00001946B7FEC29F0000184
:10502000946B7FEC29F00001800E946F7FEC29F0E7
:105030000001946B7FEC29F00001946B7FEC29F068
:105040000001946B7FEC29F00001946B7FEC29F058
:105050000001946B7FEC29F00C011D6B0C0E1D5DA3
:1050600007E20001946B7FEC29F00C011D2BF6D7B1
:1050700004C194F07FEC29F005C194F07FEC29F095
:1050800006C194F07FEC29F007C194F07FEC29F081
:1050900008C194F07FEC29F009C194F07FEC29F06D
:1050A0000C011D6BCA0E1D5D07E20001946B7FECC5
:1050B00029F00C011D2BF6D70001630E946F7FECD5
:1050C00029F00001820E946F7FEC29F00001530E4D
:1050D000946F7FEC29F00001630E946F7FEC29F050
:1050E0000001350E946F7FEC29F00001010E946FE2
:1050F0007FEC29F0E7C194F07FEC29F00101E7058E
:1051000002E1020165930101E7051FE0D751D811C3
:10511000D911DA111AE00001360E946F7FEC29F0F4
:105120000001040E946F7FEC29F0D2C194F07FEC63
:1051300029F0D1C194F07FEC29F0D0C194F07FEC3C
:1051400029F0CFC194F07FEC29F00001370E946F65
:105150007FEC29F00001020E946F7FEC29F0000132
:10516000010E946F7FEC29F00001030E946F7FEC29
:1051700029F0030E0101E75D1AE10001320E946F80
:105180007FEC29F00001040E946F7FEC29F0D7C169
:1051900094F07FEC29F0D8C194F07FEC29F0D9C1CC
:1051A00094F07FEC29F0DAC194F07FEC29F0000153
:0A51B00094697FEC29F007EF2AF064
:0651BA000C01006B020E67
:1051C000005D21E20051160DF3CFE9FFF4CFEAFFB5
:1051D000600EE926000EEA220C0EE926000EEA22F5
:1051E000EE6AED6A0051160DF3CFE9FFF4CFEAFF46
:1051F000600EE926000EEA22150EE926000EEA22CC
:10520000EF90002BDCD712000C01600E106F000E27
:10521000116F0F6B020E0F5D5FE210CCE9FF11CC36
:10522000EAFF0C0EE926000EEA22EECF00F0EFCFE7
:1052300001F0026A036A005001100210031046E1F7
:1052400010CCE9FF11CCEAFF0C0E8DC0EBFF0D0E68
:105250008EC0EBFF00018F51901119E00A0EE66E2F
:10526000E66A8FC0E6FF90C0E6FF10CCE9FF11CCE4
:10527000EAFF10CC00F011CC01F010CCE6FF11CC0D
:10528000E6FF2AEC34F0026E060EE15E025010CC0E
:10529000E9FF11CCEAFF0A0E91C0EBFF0B0E92C0A2
:1052A000EBFF10CCE9FF11CCEAFF0E0EEB6A0F0EFC
:1052B000EB6A10CCE9FF11CCEAFF100EEB6A110E7D
:1052C000EB6A0FCC8CF00C010F511200160E102758
:1052D000000E11230F2B9ED7FF0C00019351160DCA
:1052E000F3CFE9FFF4CFEAFF600EE926000EEA22D1
:1052F0000C0EE926000EEA22EE6AED6A12000001A9
:105300008C51160DF3CF19FCF4CF1AFC600E0C0172
:105310001927000E1A2319CCE9FF1ACCEAFF0E0E4A
:10532000E926000EEA22EE50ED1030E10F01010EE9
:105330002C6FE0EC10F0E66E19CCE9FF1ACCEAFF16
:10534000120EE926000EEA22E552E750EF6E19CC64
:10535000E9FF1ACCEAFF120EEB50FF0801E1000C46
:105360001C0E0F013A6F3B6B19CCE9FF1ACCEAFF18
:10537000120EEB500F01396FACEC14F019CCE9FFB1
:105380001ACCEAFF130EEB6A140EEB6A94C04AFFC4
:10539000A9EC16F019CCE9FF1ACCEAFF130EE926A6
:1053A000000EEA22EECF00F0EDCF01F0EE2AEF2260
:1053B00019CCE9FF1ACCEAFF0E0EE926000EEA220C
:1053C000EECF02F0EFCF03F00250005C0350015823
:1053D0000AE319CCE9FF1ACCEAFF0E0EE926000E0B
:1053E000EA22EE2AEF2219CCE9FF1ACCEAFF0E0ED0
:1053F000E926000EEA22EECF1BFCEDCF1CFC0C01CF
:10540000160E1B5D020E1C5901E301D8010C0F01A1
:10541000010E2B6FA9EC10F00009F9E000018C518E
:10542000160DF3CF17FCF4CF18FC600E0C011727F4
:10543000000E182317CCE9FF18CCEAFF0C0EE92662
:10544000000EEA22EECF19F2EDCF1AF27EEC35F023
:10545000F3CF0FFCF4CF10FC17CCE9FF18CCEAFF18
:105460000A0EE926000EEA22EECF19F2EDCF1AF26B
:105470007EEC35F0F3CF11FCF4CF12FC17CCE9FF32
:1054800018CCEAFF0E0EE926000EEA22EECF13FC3E
:10549000EFCF14FC080E0C011327000E1423156B1C
:1054A000166B140E0F013A6F3B6B17CCE9FF18CC4B
:1054B000EAFF120EEB500F01396FACEC14F013CC75
:1054C0000CF214CC0DF20201110E0B6F17CCE9FF98
:1054D00018CCEAFF17CC09F218CC0AF2A6EC31F08E
:1054E00013CC19F214CC1AF27EEC35F0F3CF13FC86
:1054F000F4CF14FC080E0F014D6F4E6B0F010F0E11
:105500004B6F0C0E4C6FB7EC16F024EC13F017CC6D
:10551000E9FF18CCEAFF120EE926000EEA22EF6836
:1055200017CCE9FF18CCEAFF0E0EEB6A0F0EEB6A00
:10553000120095C08CF000018C51160DF3CFE9FFDD
:10554000F4CFEAFF600EE926000EEA22100EE926EB
:10555000000EEA22D880EE54000EED5401E3000C58
:10556000010C00018C51160DF3CFE9FFF4CFEAFFD7
:10557000600EE926000EEA22100EE926000EEA224D
:10558000EE50ED1001E1000C8C51160DF3CFE9FF48
:10559000F4CFEAFF600EE926000EEA22150EE92696
:1055A000000EEA22EF50010B15E08C51160DF3CFDF
:1055B000E9FFF4CFEAFF600EE926000EEA22150E9D
:1055C000E926000EEA22EF90080E02010E6F0F6B23
:1055D00032EC32F06BEC16F096C0E9FF97C0EAFFB0
:1055E000EF6E00018C51160DF3CFE9FFF4CFEAFF07
:1055F000600EE926000EEA22100EE926000EEA22CD
:10560000EE06EF5A8C51160DF3CFE9FFF4CFEAFF07
:10561000600EE926000EEA22100EE926000EEA22AC
:10562000EE50ED1002E13DEC11F0010C00018C5147
:10563000160DF3CFE9FFF4CFEAFF600EE926000E66
:10564000EA22100EE926000EEA22EE50ED1002E0EA
:105650003DEC11F000018C51160DF3CFE9FFF4CFB2
:10566000EAFF600EE926000EEA22100EE926000E7F
:10567000EA22EE6AED6A1200080E0F01486F496BCC
:105680000F01000E466F0C0E476F7CEC16F000CC3D
:1056900019F201CC1AF27EEC35F0F3CF00FCF4CF16
:1056A00001FC02CC19F203CC1AF27EEC35F0F3CFF8
:1056B00002FCF4CF03FC04CC19F205CC1AF27EEC08
:1056C00035F0F3CF04FCF4CF05FC0C01080E045FA9
:1056D000000E055B0651071101E188D006CC19F2D6
:1056E00007CC1AF27EEC35F0F3CF06FCF4CF07FCC2
:1056F00098C0E9FF99C0EAFF060EE926000EEA22EB
:10570000EECF09FCEECF0AFCEECF0BFCEFCF0CFC8A
:105710009AC0E9FF9BC0EAFFEFCF0DFC010EE9261E
:10572000000EEA22EFCF0EFC9AC0E9FF9BC0EAFF11
:10573000020EE926000EEA22EFCF0FFC9AC0E9FF25
:105740009BC0EAFF030EE926000EEA22EFCF10FC11
:105750000C01116B110E126F9CC013FC9DC014FC48
:105760009CC019F29DC01AF27EEC35F0F3CF13FC09
:10577000F4CF14FC0C0E0201216F226B0201090E02
:105780001F6F0C0E206FDEEC35F0F3CF15FCF4CF5D
:1057900016FC0C01151F161F060E02010E6F0F6B73
:1057A00032EC32F015CC4AFFA9EC16F0070E0201DC
:1057B0000E6F0F6B32EC32F016CC4AFFA9EC16F0EC
:1057C00002010E6B0F6B32EC32F09CC044FF9DC0A7
:1057D00045FFD1EC15F0F3CF15FCF4CF16FC0C010E
:1057E0000651F31816E10751161913E19AC0A2F0F9
:1057F0009BC0A3F098C0A0F099C0A1F00001000EDA
:105800009E6F0C0E9F6F2AD80C01086FFF0E085D6B
:1058100003E13DEC11F0010C0851160DF3CFE9FF47
:10582000F4CFEAFF600EE926000EEA22100EE92608
:10583000000EEA2204CCEEFF05CCEDFF0851160D58
:10584000F3CFE9FFF4CFEAFF600EE926000EEA226B
:10585000150EE926000EEA22EF80010C0C011869F2
:10586000600E196F000E1A6F176B020E175D01E3C1
:105870008CD019CCE9FF1ACCEAFF0C0EE926000EF9
:10588000EA22EECF00F0EFCF01F09EC0E9FF9FC00B
:10589000EAFF020EE926000EEA22EECF02F0EFCF79
:1058A00003F0025000186AE10350011867E119CCB7
:1058B000E9FF1ACCEAFF0A0EE926000EEA22EECF33
:1058C00000F0EFCF01F09EC0E9FF9FC0EAFFEECFEE
:1058D00002F0EFCF03F0025000184EE10350011820
:1058E0004BE119CCE9FF1ACCEAFF100EE926000EB5
:1058F000EA22EECF04F0EFCF05F0066A076A045003
:1059000005100610071038E1A0C0E9FFA1C0EAFFAA
:10591000060EE926000EEA22EECF00F0EECF01F0EF
:10592000EECF02F0EFCF03F019CCE9FF1ACCEAFF7B
:10593000060EE926000EEA22EE500001001808E1EA
:10594000EE50011805E1EE50021802E1EE50031886
:1059500010E0A2C0E9FFA3C0EAFFE868EE180CE17E
:10596000E868EE1809E1E868EE1806E1E868EE1864
:1059700003E10C011751120017CC18FC0C01160E94
:105980001927000E1A23172B70D7FF0E185D35E06C
:105990001851160DF3CF19FCF4CF1AFC600E19271D
:1059A000000E1A230A0EE66EE66AA0C0E6FFA1C04A
:1059B000E6FF19CCE9FF1ACCEAFF19CC00F01ACCAB
:1059C00001F019CCE6FF1ACCE6FF2AEC34F0026EA7
:1059D000060EE15E02509EC0E9FF9FC0EAFFEECFD7
:1059E00000F0EFCF01F019CCE9FF1ACCEAFF0A0E64
:1059F00000C0EBFF0B0E01C0EBFF0C0118511200B1
:105A0000150E0001A46FA56BA4EC00F00E01016F50
:105A1000056B346B006B140E036F046B120001CE28
:105A2000AAF0F8EC01F0000908E10E01346B070E52
:105A3000076F056B006B066B010C01CEB9F0AFEC84
:105A400004F000093EE0B6EC40F014C044FE15C07E
:105A500045FE16C046FE17C047FE0001000EB76F98
:105A60000C0EB86F01CEB6F054EC04F000090FE054
:105A70000E013451342BEA6A130FE96E0E0EEA223E
:105A800000CCEFFF1F0E345DE8E1346BE6D701CEAA
:105A9000B0F0E9EC03F00A0E0C01005D48E10E01E4
:105AA0003451EA6A130FE96E0E0EEA22EF6A346B84
:105AB0000ADA35CE4BFE36CE4CFECCD90E01076F3E
:105AC00036D00E01055133E0B6EC40F014C001FCB5
:105AD00015C002FC16C003FC17C004FC440EE96E9E
