:020000040000FA
:060000002EEF68F0120073
:060008002EEF52F0120081
:06002A000500B0D000004B
:100030001502000004000000ACD000001102000016
:1000400004000000AAD00000FD0100000200000032
:1000500078D00000320100003200000074D00000AF
:08006000F00E00000400000096
:080068003C68746D6C3E3C68BD
:100070006561643E3C7469746C653E4D6963726F82
:1000800063686970205443502F4950205374616352
:100090006B204172636869746563747572653C2F87
:1000A0007469746C653E3C2F686561643E3C626FA8
:1000B0006479206267636F6C6F723D222346464607
:1000C000464646223E09093C7461626C6520626FB7
:1000D000726465723D2230222077696474683D2223
:1000E00031303025223E0909093C74723E09090964
:1000F000093C74643E09090909093C696D6720736C
:1001000072633D224D6368702E676966223E3C2F04
:10011000696D673E090909093C2F74643E090909A4
:10012000093C74642077696474683D22313030255D
:10013000223E09090909093C7020616C69676E3D1E
:10014000227269676874223E0909090909093C6637
:100150006F6E742073697A653D2236222066616372
:10016000653D224D532053616E732053657269665D
:10017000223E090909090909093C623E09090909E0
:10018000090909094D6963726F63686970205443F6
:10019000502F495020537461636B090909090909FB
:1001A000093C2F623E0909090909093C2F666F6E57
:1001B000743E09090909093C2F703E090909093CE7
:1001C0002F74643E0909093C2F74723E09093C2FC3
:1001D0007461626C653E09093C7461626C65206201
:1001E0006F726465723D2230222063656C6C7061B1
:1001F0006464696E673D2230222063656C6C7370A5
:100200006163696E673D2230222077696474683DBE
:10021000223130302522206667636F6C6F723D2279
:100220007768697465223E0909093C747220626727
:10023000636F6C6F723D222346463030303022208F
:100240006667636F6C6F723D227768697465223EE2
:10025000090909093C74642077696474683D223295
:100260003525223E09090909093C61206872656645
:100270003D22496E6465782E68746D223E09090935
:100280000909093C666F6E7420636F6C6F723D22C2
:1002900023464646464646223E09090909090909F8
:1002A0003C623E486F6D653C2F623E0909090909B1
:1002B000093C2F666F6E743E09090909093C2F61DC
:1002C0003E090909093C2F74643E090909093C7477
:1002D000642077696474683D22323525223E09091D
:1002E0000909093C6120687265663D2246656174B2
:1002F000757265732E68746D223E09090909090932
:100300003C666F6E7420636F6C6F723D22234646AD
:1003100046464646223E090909090909093C623E4A
:1003200046656174757265733C2F623E090909095F
:1003300009093C2F666F6E743E0909090909093CD9
:100340002F613E090909093C2F74643E0909090916
:100350003C74642077696474683D22323525223EFE
:10036000090909090909093C666F6E7420636F6CFD
:100370006F723D2223464646464646223E090909FB
:1003800009090909093C623E417263686974656341
:10039000747572653C2F623E090909090909093C17
:1003A0002F666F6E743E090909093C2F74643E097B
:1003B0000909093C74642077696474683D22323508
:1003C00025223E0909090909093C61206872656610
:1003D0003D22466F6F7470726E742E68746D223E8B
:1003E000090909090909093C666F6E7420636F6C7D
:1003F0006F723D2223464646464646223E0909097B
:1004000009090909093C623E537461636B20466F18
:100410006F747072696E743C2F623E090909090994
:1004200009093C2F666F6E743E0909090909093CE8
:100430002F613E090909093C2F74643E0909093CF2
:100440002F74723E09093C2F7461626C653E3C62F8
:10045000723E3C703E546865204D6963726F6368FC
:1004600069702045746865726E657420636F6E7480
:10047000726F6C6C65727320696E636F72706F72ED
:1004800061746573206E6561726C7920616C6C209B
:1004900045746865726E657420626C6F636B73205F
:1004A0006E656365737361727920746F20746F2059
:1004B000636F6D706C65746520616E20457468654E
:1004C000726E657420696E746572666163652E2054
:1004D000204F6E6C7920612066657720636F6D70A8
:1004E0006F6E656E74732C2061732073686F772C48
:1004F000206172652072657175697265642E3C2F8A
:10050000703E3C62723E3C696D67207372633D22AF
:10051000454E4332384A3630436F6E6E6563742EF3
:10052000706E67223E3C703E546865204D69637270
:100530006F63686970205443502F49502053746191
:10054000636B2075736573206120636F6F706572D4
:100550006174697665206D756C74697461736B691B
:100560006E67206D6574686F6420746F20736570AA
:10057000617261746520697473656C662066726F60
:100580006D20746865206D61696E206170706C69A2
:10059000636174696F6E2E20497420636C6F73659C
:1005A0006C7920666F6C6C6F777320746865202699
:1005B00071756F743B5443502F4950726566657274
:1005C000656E6365206D6F64656C2E2671756F7442
:1005D0003B20416C6C206D616A6F7220636F6D709F
:1005E0006F6E656E74732061726520696E2073652D
:1005F00070617261746520736F75726365206669DE
:100600006C65732E3C2F703E3C2F626F64793E3CCC
:100610002F68746D6C3E04FFFFFF25313704FFFF28
:10062000FF25303404FFFFFF25304404FFFFFF2582
:10063000304504FFFFFF25304604FFFFFF89504E81
:10064000470D0A1A0A0000000D49484452000002F2
:1006500055000001350800000000EB714AA90000B8
:1006600000097048597300000EC300000EC301C793
:100670006FA8640000163849444154789CED9DD918
:100680009AEC2A084679FF97B62F3A714405C42997
:10069000C5FF9DB32B150788598568A5BBC1994C2B
:1006A000DA82DD0E983E28A3CAA42FA3CAA42FA3E2
:1006B000CAA42FA3CAF4AAC302D05931AAE6EBBD3B
:1006C0001D00EF781F39EAD0C6A6539CD61D76C60A
:1006D000D4D1CB1238070753A508D591D7D713AC7F
:1006E000D6B8C7E115DC9983AE09D59117D8D36286
:1006F0009F55A13A952A55A84EBCC0AEAEA32AC3B9
:10070000EAC031D785EAC42BECEA32AA92BCEA4CA3
:10071000AA94A13AF00AFBBA8CAAFF3520F8B5E0FA
:100720007943AE0DD58197D8D76D549D2E2E54D1D7
:100730000AC61701FC9F7FDE297BB8422D9FDF454B
:10074000DB7F7C80F754F1E2FC4024E7B8E6BE2072
:10075000F61A18A2B8EBC71222C4AE1CB23655EF77
:100760006B8C1640F6F2542DCE71CD7D4250BC29D3
:10077000CF24270AAAE01DC65A930BC4A22AC62575
:10078000A72A1A1AA3EA7D5344273A55613E9CE2F0
:10079000E75C11A92A835049150A1FC31CD161E5E2
:1007A0004D55658589CB0F08B4024F91574114F818
:1007B0009326FDC995A859971E5F55AB2C905250B2
:1007C00055E455E5ACC835C7D271383D42016A528F
:1007D000157FB519DFF9822A750FE78916AB023547
:1007E00071513103031A552E25E33DE94F5567C07A
:1007F00038978224B5FA3055D9C2E45D10462019E5
:1008000055CE39D7DC97854A5E15ADA0FDB9F0F617
:10081000F354659F2AA3AA14972A4A8FE96B51FEC5
:100820002623CEA724C90C5AEB6FA6887955084F0A
:100830003E030385E8228A3712736A7EEFD456AAF4
:1008400092E5D2A9549D6CEE3EAA601E551096E921
:10085000CF2967546DED485955AAC0A83ADFDC6D21
:1008600054C1C458E520DB9037AA7677A4AC1D3379
:10087000A051755C47CADA431518556775A42C0159
:10088000559D2F56E854D91A70B8A343B1225295FA
:10089000ECBC57AA67070DAA5C20296C00D5FD980F
:1008A000AF5BA93A952BDA7E152852C5D5E7A91A70
:1008B000FB06FD60AA2084A6F01AA84A2FDBA8D266
:1008C00035F7A35465576D54D57AC9BFB4797A8684
:1008D0007C86AF64A693A5728DC491E853953B6462
:1008E00054B5FB8946CEBFBC411F33B7E88E9F4548
:1008F0005571CD4655BB1F2E55631937B9ED62AA08
:100900005A41134AA862F7B043A30A00A7CACF43CB
:100910008D111D31D9EEF098580568740E27D095C9
:10092000A151E50F89B14A6E3E7F52B2D5E55AAA70
:10093000DAC548748EF831AA907ED854C913AB74C6
:10094000ACC3435F4FB8ECC6AF4992AC1C6C066CAD
:10095000F7F3A2E337780B0B45AC92AED1FC58BF4E
:100960005BCBE58453357A988C2A757342ACD244BC
:10097000ED498403035569974655C5DC346DA56A76
:100980006437E96919A195C4AABAD1E36454299AD4
:100990001BDEA00C54B92456419E144FBAC67E0EDD
:1009A0004514EAE9FD54F5F2496573DEE4605FD46D
:1009B000F6B3A89ADACFFD54AD531EABE41D315AFD
:1009C000FF24554FE86E6D8F69AB7C266C91D20584
:1009D000618246D810485FDE5649BEC442F277A90C
:1009E0000A3942CF9C86C2FDCC370303A6997CEC22
:1009F000D41DF17976FAF27A05B9738C58554B66A5
:100A000092C46C241F1AD22CAAC06DA10A20FE9D8C
:100A1000E510DFC86986714FFE07010A47206A5555
:100A20003C0F279E013D13611129E1E44EAA449F2A
:100A30001FD9072EBE7B53855EA20BF1BA4155DE4E
:100A400018A2A76E5A36F2D2282AFBFF17E701999F
:100A500047EDB3F7C42A8753B576068CC3C3FFA10D
:100A6000BFE32855E9D764E02731D6B041952A4045
:100A7000005DA2495425C1B86B4E43100789C4D20A
:100A8000AA193046EA2DCAF32A480714206BEE7CD7
:100A9000E5E291C1BA0303FFD520A32AB45FAF8971
:100AA00054AD5E03036637CC2DCFAB0AACC07FBE1E
:100AB000FC6D4F436996584188305168EB5D421A8E
:100AC00014DFBE93C0BD5A73A8629AD3559881FEB5
:100AD0005FD698F3467B77B2551A256481410A5553
:100AE0002E8F550E2A8F3E2DD177A95AA562929747
:100AF000878834CD8F0215A93B34AF12F9312CA36E
:100B00004ADD9C10AB90577922687955E8C065544E
:100B10006D9351A56B6E2C520DB80E9051B5932B61
:100B2000C0E58BB3D761734AFDECB6513137981FDE
:100B30008F34CEA8DA37FB3967B14AD19CC29A4BC1
:100B4000E7319AAD29D5BF2BEDB34615C3DCF05A7A
:100B50007E0C85EFE75549DE39D00FC7A2DFD48E72
:100B60005D08BBDAB34C173B0BD27E4623DDE7A909
:100B70000AEBE16C653C972AF008C5F69DF497777F
:100B8000110D77DE8B3B62B6FE7E5E05D1BF2EFF78
:100B90005662BA52E3990BEA32AA1067DA6787669F
:100BA000C0742A12F5C3329950F54EC2850BEA760D
:100BB0007337943AE2B7FF816C3D4C3A71A05837D5
:100BC0000303BA389B5A18ABF651E552AA467B1B71
:100BD000F5E43902E4E6DF9557C53636E555200DD4
:100BE00012206E197A70C75105F99BE44034030353
:100BF0002E5D030346B6631716AF0117658E15B950
:100C000034AFE2B69D34267A5491CC4DD2E24F29CE
:100C10004295A89BA15B5BA78ADA81D874B737A3FA
:100C20006AD89C988DF1809153C56BDCEA571435D6
:100C3000CB9E8D2AB1B963D6806AC6057EE1AB7EB4
:100C4000A34A6E6E1755C50CA8657C882A346A19AC
:100C5000556C739BA882F2096325E3235425D3E1E5
:100C6000855421CEAF513103034AE740ED58750258
:100C700055F8D9A19D857780315CD515B2C46467DC
:100C8000613E6245AC92E6DDCA79D51933207A56C9
:100C90004815BCFFC59B91827E3826FDF2030322D6
:100CA00017365025C6EA9BD93A76564E95C3A89278
:100CB0002C52F98A3D5E4D95030429CC7D811F4756
:100CC00066EBE8D9B119D02D8C55CD6F97672A5EA8
:100CD0003A8F5011775376DDCDD7E0C86C1D3F2B8E
:100CE000A761D30CE832E717525520051E90F4E5B2
:100CF0006D0304B87BFE746533B1E6C7E7B3F53D19
:100D000079556263475E95C62A60FEA2A1C8FF645A
:100D1000FA86F854CB9134AFFAEC0CF846E5B5AB53
:100D2000FE7D33A08BC1A2FFA2A1322FC4A8EA622C
:100D3000F27DAA78E674B5C246CB5CC4469BAAACE9
:100D4000ED58AC8AA67FD10C58AF6F54ADB2D132FA
:100D500017479D385A9754A50F130E53F5369152E5
:100D600055696154ADB2513597AC428BBC2ACFFD69
:100D7000D03FF392051D07008EF230EBD0CE42300B
:100D80005C9E6677741A55512A961EBAF4B0B5CE99
:100D9000DE4755F681077FA7E14D8CFC953CFF624D
:100DA000B1AA61A0ED489A57115B955D48ED27FD0A
:100DB000A0CA7B5C46954257BBA8A26D56D56B284E
:100DC0005325190635AADA678DAAAEA2D844E3AA3C
:100DD000DF91A42E92AD0BDCC1EA9F4355BCB380DA
:100DE00046F9F1CCB04755FCDCFA4C25DD8F80C5C7
:100DF000A2AA36C124E99896942E6594AAB06C01F3
:100E00008CAAB1CF34C1B88BED4F0E5E79EFD23BD7
:100E10003118AB74A4745BA651E52A5489F91718EC
:100E2000773BA8E2C72B4164F849AA8A6F97C37938
:100E3000BD58DBE9249F116629ED7DF6470635AAEA
:100E4000D7AD52BFD3B2F5CA0C383059332C878393
:100E5000A554892F8C3D2C3F49552BAF6A0E9F5EC0
:100E6000B6BE3EAF5A13A532A3AA9DAAB99FAC8BBA
:100E7000CBB393D6800BA8DAB1065C34FDB9195414
:100E8000A9BA5E4C17E5D9E48496396139A5EAAA76
:100E900078819A93DE1A665AA07E8DBA9F0740DF4A
:100EA000185574153B0B3B8C1ED66112BFCBB33F5C
:100EB0004DD5F3F97D27F26851197FB2B5A8E26DDF
:100EC00046088D2CEAD06255D746B2F4289720996F
:100ED000B93D79557E9F008037A9D1BDA6D434AAEB
:100EE000BA3658542D4AD72B288767703227B91D38
:100EF000B66A521477BB9FAAC36CFC5305703A556F
:100F0000F9260AE0B5181D8ED58C46E784BCEA3078
:100F10001B3E93C2A87A13AD2DAA5CF37154A1674E
:100F20008DAA3A55A8B945B12A9751355B73A80ADD
:100F30008F71665BBB5BB2F55C0855D3F22A711DFD
:100F4000CBD6E9DA4251AE2CAF2AD02775A057D3C1
:100F5000A81AD511540DCBA8EA5435AA030432AA15
:100F60003A558D2A818CAA4E55A34A20A3AA53D55F
:100F7000A812E8D354DD62639FB94932AA0EB0B11A
:100F8000CFDC24195507D8D8676E9294A96A7FCD13
:100F900064549D666E922C561D60639FB949FA3465
:100FA0005547AE01FFA337BCDF8264DF851855D4F7
:100FB0003A4655D925BC2FF1D356A5B93DCF2C0CB7
:100FC000CBA8EA54DD4A15F6F0D30D32AA3A55679C
:100FD0005115664070D153E1F39ECC6B69C615EA9A
:100FE000D534AAA8B67C6802E76077AC32AAFAE6E4
:100FF000E8E594AA5BA95AF430A851D537A7AB0508
:1010000054B5D6804BB2AA8BA882F2C8A8629B3393
:10101000AAD20FDD69542195E5E1779A0AAAAEFCC0
:10102000E4CCA20A8E8B55B752B520B33A85AAEE0E
:1010300012F550AAC26FED8BFEC08B9E8D7195E6A6
:101040001670A54F15D967A8BE414E27B7EC8C3551
:10105000200304B7DEBDC746964CB6A12C3456DD3E
:101060004915A9571E5571AF075105FECF2B00FE3C
:10107000073AD8369485CD086B8DAA754A729C457F
:1010800055727C1055EF61F83D3FBDAEB651B50AC3
:101090002937ED1A29CE5F4F1540F8AB55CE1D1FED
:1010A000AB4AA820DCA8F7EB9DA41931536C195565
:1010B000D50CAA90B35BA91256DD3F030386779E39
:1010C0001B88FE7B8A4203041E34AA28EE1FE231ED
:1010D000AA2609CFD6FF4B32AAE249DCD7D033FA91
:1010E0001640E407B3FF6F52758B8DA6B9E76EBE4D
:1010F0002035A8123B5BDD25F254D5769214D4BC82
:10110000F8C669A36AC09CBFC100212F0C59618237
:10111000933858618EC454B1A354D407A73EE7F462
:101120003154859DCF10DAB56D0C2A35977E9ACB58
:10113000BC2AFB25B5A081551EA7FEA97A4A983D79
:10114000714D734E9F425598379C235FF33EAAB072
:1011500009E2BDDF6FD84A43964AAC7AAC96B10A31
:101160008C2AAC3CFAC0413E46E765EB3953FD168C
:101170004A1E44094F9C5771BF3A12CC9A5752F5F8
:10118000CE80103EF6FDAE36CE8045B05AE38102E9
:101190005542CFEFA42AA4265750E5F680F5AE0EAF
:1011A0009C7C06143A7D2555701F558E3E136A3B74
:1011B0005266EB8CC6429B35579A5B12BB63553621
:1011C00003039E9D573DEF374135B6B3A04C55FB09
:1011D000EC6EAA24557752B50DA9F07047B2C6A19E
:1011E00037175AE59C36AAE88ACCED63CA85A5B2C2
:1011F000513545DBA8DA0AD5597955FBAC51C532D2
:10120000B7395839A36A9AB667EB6BED07BB96AD51
:10121000F32AAE4811A42AA85A6BDE9BB5BCAA5F7C
:10122000DE377860B6BEC37CB06B5475CB9F9171CE
:10123000EE7D84A41824A32A377C625E856D7EEE41
:10124000A50A9C83F71F28DA1E4BD50F65EBB580E6
:1012500008C8D1A15451BBDA4AD54FED82562F169A
:101260004F648EA4EA8A5855F9068C24B2C5460705
:1012700031551C130DE3239792D83C802A00B831D6
:10128000AF62E1D1EA48D03EA38A65415454BDD84B
:101290007688DA47557CA63777336D282B0FA1A7C0
:1012A00050C5B320A6AADF643F5558136E9BDDD905
:1012B000BA5647ECF6CB6355BF09E46F92838D5461
:1012C0001D69A3616E1355485EC5B130892A774404
:1012D0005E758B8D86B94D332096AD332CCCA20A2A
:1012E0003D6B54B1CD89F3F52FCE80F8D9FDD93AB5
:1012F000BFEA66AA03045CD116FFFD5EDCE26C9DCA
:10130000D9C4A8A20B8D55DB9F5BB758C528A7543D
:10131000DD49D52EA22CAF1A29A754DD46D53EA40F
:101320009C5135524EA97A1F55795E05D8B077FB8E
:10133000B619505A4EA97AD00C08FEEEA62F6F337C
:1013400048A08C5B65B5733BA82396AD4FD411D9EB
:10135000FA73F81292BE388F40CC4D49D50B5786A0
:101360005FCD91A158550F8582106C544D30E773B5
:101370009C8CAA38883CC70CAADA77F62996E655E1
:10138000BA581955DAE64276E4BA54390E553D3F5B
:1013900086BEB1793D6FF74E9551A56B2EFA58C3B5
:1013A000F3344FB8C92555B53FC8B17C068CBA6037
:1013B00017619551E57E18551473C55451E655D9FA
:1013C000F20EC015639D479DE709332E556D571BDF
:1013D0005D08CA6886B65135EC39AF0F0D45C1A618
:1013E0009842C0DF6B7833A397A346ACAA5B68FA38
:1013F000A110ABB482955135AA243691F2DA5A5233
:10140000CCA85F9D60E2BC6ABA98576854D19599A0
:10141000A3818534E9DFABBA51AA21822B8C22A3A8
:101420006A9E90A5169B2B05A33AAD8CAA6601393E
:10143000580F2BEF5A628FEDE824AA78D9FAEF51B2
:10144000B54E89B9D908A346F55AF192F5D554BDE0
:101450007F48FD196364A7627AF00097FA30D99C3F
:1014600073EB907293A86A388F5ED806AAFC5DF57C
:1014700037F8ED67CD94F4C0ECD74493CD39377687
:1014800061CC89BA9876F3D7672723EDB139BF5578
:10149000CD578B2854C52DE751B52CD1D940955B3C
:1014A00092A8974643E8F7AF0EBDF20E55DC220234
:1014B0005590BF490E03043320B4A9C2C532D2EC03
:1014C00003045CE2C33C95D9BAB4A381A4129E7F05
:1014D000202D665025282252553F2BC9ABA0491517
:1014E000AF439E71E78DC206AAA65AEB185D4B5515
:1014F0003F3A24777A1E55DE19E61530AA4EA0EA47
:10150000F1F8F9370DECBF4B15A189FA0C18CDEEA7
:10151000F435A036556A336034C544191BE2C796CA
:10152000BC0AA38A9957898ABA4D54A9EA9B139693
:1015300053AA4EB9AB54AA16A5EB9DBC2A7E86AF22
:10154000D16AB8A8DBC4A8EA5B8B6640388BAAE1F5
:101550005693A852DD592098939553AA4E8D552E37
:1015600084AB371E6C91FC22348B784D8C2AB4D31B
:10157000942ADCDC925025D4AF5275AC8D822AF5CA
:10158000A15920A3EA6C1BFBCC8DC8A83ADBC63E50
:10159000732332AACEB6B1CFDC888CAAB36DEC33FC
:1015A00037A25FA5EAD835605D4615B589514597E4
:1015B00051456D6254D16554519B18557419554865
:1015C00093F617024655574615B58951957408CFBD
:1015D0006FC0F35BEAFFFFF8ADF65BF4AB541D6937
:1015E000E381C9FFE7203A36AAC84D8CAABC4394D0
:1015F000AA39E6E6C9A83AC846980163B0C2AFFA6C
:101600009CFAF48AA68CAA836C44203D3841F4A845
:1016100025D99C51951FFC76B6EED219309D030456
:101620008D2A6A13A32AEF10C21AF05DFA71D780CF
:1016300046557E207E1296995B1C49555B4655A304
:1016400009BAF9A93E125DAA2079183C1CBAF4B077
:1016500005A85125F0605EAC82F268FF48F0655441
:10166000093C50A00AFB691A67544D36B77F2CA776
:101670005285CE75F8E1FE91E0CBA81278202CEAD5
:10168000A7CF46D55C73FBC7529FAAE8108F55E8D9
:101690005CB87F24F832AA03041E8C1719555BCC62
:1016A000ED1FCBA954E1C9945135D9DCFEB1DC4022
:1016B000155A61FF48F06554093C30AA3A82E49516
:1016C000B49BFF9F6A86DD56523D88BE62E6F8B540
:1016D0004F46955C12AAFCE1FFFF48A3B21E841698
:1016E0002CBFF6C9A8922B713EF91218FB9AE7A7F6
:1016F000A8AABB6054759452051129182EF1CCE6A6
:101700001AA820F580F75B47F78FA5512557BCAC89
:10171000F51C81FF03037D58ED3406A15F5D7F2238
:10172000564D2DFA31AAA25855A99DD3528D55591F
:101730003DA30A7FF369AAFC1C584F979C5FD5BD57
:101740006B3BC83BA9D4BB710DD8FA4335B25638B0
:101750004ADFA6EA2873FBC7B2F1E0A4429151B573
:10176000C3DC1163D92184DD2A2A82EC64FD498619
:1017700023468229A3AAEE42158F4640A2062B8B50
:10178000553BCCED1ECBA94839A36A8FB9AD63395F
:101790001B296754ED31B7732C65C9388FC58F533A
:1017A000B55864BF665E34C1BC08ACC635E625DFFB
:1017B000A60A13E93A26F3B17F2CE7826554C92BB8
:1017C000B12A2AB4525623BAB6E26EBB55B9B380D9
:1017D000576D17DF27A3CAB9D9D9955125AFC4AA28
:1017E000A8D04A4FDA48E51D1A55F24AAC8A0AAD2C
:1017F00094444FBA896565114A555CC7A8D2A9A817
:10180000D04A4723731FB5154615E46FF29A57EB7C
:10181000D7A972630B4052915125AFC4AAA8D04AF0
:101820005373A7419B01D13A9FA7CA75E73476ABA2
:10183000786721922F75BF1EAB7E80AA5EB0D29AC8
:10184000208D2A6625564585566A6A70239BFF5A65
:101850001DC6074695626F65AB8D83B912296779FE
:10186000555CA73E4AE29A79AB5DE3299BDF841B76
:10187000A7B60B9A5422DF777ACDB219BB95923A6C
:10188000F0C85AD58ADA677F8A2AFA6D975125649B
:10189000514FC29F326DB432AA7A55A837FD52A477
:1018A0005C1B1DD522A3EABFFCFB4839A34A5BEDB4
:1018B000EBA0DFF3FBF2F4584695AE3AD7B1264FD2
:1018C000DF3E984695AEFAD7F10B601955BA3A6CDF
:1018D0006761135F4695AEE8591303032BB6138176
:1018E0002AB24B12FD5BF1004705ADA2FF3276AB89
:1018F000AA07887ACD6E1379138AD49984A9A4D1C2
:101900004355B88F10DEAB08DE4B86F8DAA153E4FE
:1019100080D66A148F9FA18A4CCA3852CEE3F3DC7A
:101920002FF8FFC7FF12BF71F9C8E223E37BBA5556
:10193000E440D44AE4DE2744D8599837F395AD9E65
:101940004F7E1CABE249665810FD87F051297A01A1
:1019500067B612B9F70975AE63769E9EE515D18D0F
:101960009A12ABC0BF1410348AB2D98FDA4AEEDFB4
:10197000F1FAFFE4C727D27BDFBF8EA5609579D54A
:10198000FF19A55815410B2E85B9511445234E2B2F
:10199000A17F172824BCFE4C5681D6CB5CB096EDB7
:1019A000B1FF079477464D92EB4691FF68F25A4992
:1019B000FDBB40E9A41F01862F6D6BBD4C4DD9F7CF
:1019C000EF83366CAB1709FD384A2555457ADCEDB7
:1019D000626ECABE1D29675471558D55E40E96EE90
:1019E0002C6C9251C5D31855CB771636C9A8E2296D
:1019F0009AF300A23F0941CCAB686957A8C9F7EF39
:101A000008B08C2AB15097697915D1800C0FA36A60
:101A1000B4D94E49A9625CAC6C54F68F65DD830382
:101A200004F97CA5C3FD599A013FEE9251D5F620E9
:101A30009E9FB3C9BA993968FB7197682993666FFD
:101A40005AAD3405FA92F9A17C5DBB64543595001A
:101A500082C42A65D70F1E099696CC809DF6278FE3
:101A600065420E7D06945A53EE6F97A454E103032A
:101A70008A9FFCFF86B891BB507C3842B33DBD675E
:101A800024DA9251F5FF312D3FAB287E009D670E81
:101A9000EE194BA38A2609551E9492B6E20304253B
:101AA0007DBD672C8D2A9A0304543548695035EA68
:101AB000C31132AA681AA28AD09B517552FFAB2477
:101AC000A4AAB200C213B0DE62E99EB134AA681AB9
:101AD000895584DE489B82F78CA5514593305BAFD6
:101AE0002CEAD019B0FBF5F13D636954D124DA59E1
:101AF000A8861F7C67A187D53D636954D1D45AF06D
:101B000057BFDDCA48A9577CEA76BEF3B9672C8D6A
:101B10002A9A245441BE05DAA0AAA8CBF3E13019D1
:101B200055343557FC44A8909A514117AA8BC612D8
:101B3000D0C36891FB0E515E83DFFFD56A07112287
:101B40005445CDE8741FAA1BC6B2B83EFC477521A8
:101B500006CAA8AA9512A1CA6A462709505D3496FA
:101B600045AC82E767ABB3F3E001E35DDB3D23D136
:101B7000562F8C14ACD41E4040A08A1A8CF870A644
:101B8000FC54977E70DED32F5146155A8EB282EEEA
:101B90002AE05029F870A412AA8AD3F0842CE6A572
:101BA0005D391288FA8184CC8A14AA1BC6B2CC1B78
:101BB00071AADE80EE8CAA4E0D322B42A82E1ACBD3
:101BC0003228A519FA3B0049D62EEBFF6A116310A3
:101BD000B133E10F03044A1A6D51731F6672FF3768
:101BE000A97E1D8069B026D787D364BBA03451AECF
:101BF000837EADB251B9672C8D2A9A8C2A8E8C2A9D
:101C00009A8C2A8E8C2A9A8C2A8E8C2A9A8C2A8ECE
:101C10008C2A9A8C2A8E8C2A9A8C2A8E8C2A9A8CC0
:101C20002A8E8C2A9A8C2A8E8CAAB6383BE1F46FC5
:101C30009699FBEAF2EDF84D32AA686A5E07FDAEAE
:101C400043F2A262FC441955267D19555D5182105C
:101C50007D7E924D6457CD7F46954953234F64B0A6
:101C6000EC4CEA77A54823441E46E1785F11A9E2CF
:101C70009F0304096F27D899D4EFED128ECBD9C3F7
:101C800099FFB49F51D5D61141E208271A8255A178
:101C9000EA97A8E2EC3F4D7362A79685AAAF50651C
:101CA000EA2B0F51133F030446D5CF685DA832AA33
:101CB0007E460B439551F533CA699A79E78D2A938D
:101CC000BE8C2A93BE8C2A93BE8C2A93BEFE000E35
:101CD00037C82B7809A5230000000049454E44AEC3
:101CE00042608204FFFFFF3C68746D6C3E3C686597
:101CF00061643E3C7469746C653E4D6963726F63E8
:101D0000686970205443502F495020537461636BAD
:101D10002046656174757265733C2F7469746C65D7
:101D20003E3C2F686561643E3C626F647920626767
:101D3000636F6C6F723D2223464646464646223EFE
:101D400009093C7461626C6520626F726465723D62
:101D50002230222077696474683D22313030252298
:101D60003E0909093C74723E090909093C74643E44
:101D700009090909093C696D67207372633D224DA9
:101D80006368702E676966223E3C2F696D673E0965
:101D90000909093C2F74643E090909093C7464204F
:101DA00077696474683D2231303025223E09090983
:101DB00009093C7020616C69676E3D227269676831
:101DC00074223E0909090909093C666F6E74207383
:101DD000697A653D22362220666163653D224D5356
:101DE0002053616E73205365726966223E090909AA
:101DF000090909093C623E09090909090909094D4E
:101E00006963726F63686970205443502F49502092
:101E1000537461636B090909090909093C2F623E82
:101E20000909090909093C2F666F6E743E09090901
:101E300009093C2F703E090909093C2F74643E09C9
:101E400009093C2F74723E09093C2F7461626C656C
:101E50003E09093C7461626C6520626F7264657250
:101E60003D2230222063656C6C70616464696E672A
:101E70003D2230222063656C6C73706163696E670C
:101E80003D2230222077696474683D22313030254C
:101E900022206667636F6C6F723D22776869746594
:101EA000223E0909093C7472206267636F6C6F728D
:101EB0003D222346463030303022206667636F6C07
:101EC0006F723D227768697465223E090909093CF1
:101ED00074642077696474683D22323525223E0996
:101EE000090909093C6120687265663D22496E64F2
:101EF00065782E68746D223E0909090909093C6656
:101F00006F6E7420636F6C6F723D222346464646A7
:101F10004646223E090909090909093C623E486F03
:101F20006D653C2F623E0909090909093C2F666F5E
:101F30006E743E09090909093C2F613E0909090926
:101F40003C2F74643E090909093C74642077696474
:101F500074683D22323525223E0909090909093CE8
:101F6000666F6E7420636F6C6F723D222346464627
:101F7000464646223E090909090909093C623E46CE
:101F8000656174757265733C2F623E090909090920
:101F9000093C2F666F6E743E090909093C2F746471
:101FA0003E090909093C74642077696474683D221C
:101FB000323525223E0909090909093C6120687268
:101FC00065663D22417263682E68746D223E090980
:101FD00009090909093C666F6E7420636F6C6F72A2
:101FE0003D2223464646464646223E09090909093E
:101FF0000909093C623E41726368697465637475DE
:1020000072653C2F623E090909090909093C2F66DE
:102010006F6E743E0909090909093C2F613E0909DF
:1020200009093C2F74643E090909093C746420774E
:10203000696474683D22323525223E09090909097F
:10204000093C6120687265663D22466F6F7470724C
:102050006E742E68746D223E090909090909093C4C
:10206000666F6E7420636F6C6F723D222346464626
:10207000464646223E09090909090909093C623E0A
:10208000537461636B20466F6F747072696E743C39
:102090002F623E090909090909093C2F666F6E7410
:1020A0003E0909090909093C2F613E090909093C52
:1020B0002F74643E0909093C2F74723E09093C2FB4
:1020C0007461626C653E3C62723E3C7461626C6538
:1020D00020626F726465723D2230222063656C6CF1
:1020E00070616464696E673D2230222063656C6CA8
:1020F00073706163696E673D223022207769647472
:10210000683D2231303025223E202020203C747250
:102110003E20202020202020203C74642077696409
:1021200074683D2231303025223E3C623E54686561
:10213000204D6963726F6368697020454E43323881
:102140004A363020616E6420504943313846393771
:102150004A36302066616D696C7920457468657215
:102160006E6574206D6F64756C65206F6666657250
:10217000733A3C2F623E3C2F74643E202020203C6A
:102180002F74723E202020203C74723E202020209C
:10219000202020203C74642077696474683D2231DB
:1021A00030302522206267636F6C6F723D222344BA
:1021B0003144314431223E2A2049454545203830BA
:1021C000322E3320636F6D7061746962696C69745B
:1021D000793C2F74643E202020203C2F74723E20D6
:1021E0002020203C74723E20202020202020203CF3
:1021F00074642077696474683D2231303025223E52
:102200002A203130426173652D5420706F72743C06
:102210002F74643E202020203C2F74723E2020200A
:10222000203C74723E20202020202020203C74641A
:102230002077696474683D2231303025222062673E
:10224000636F6C6F723D2223443144314431223E2E
:102250002A20384B6279746573206F66205352418F
:102260004D206275666665723C2F74643E202020A6
:10227000203C2F74723E202020203C74723E20208F
:102280002020202020203C74642077696474683DFD
:102290002231303025223E2A20496E7465726E61EB
:1022A0006C20444D41206D6F64756C6520666F72C3
:1022B00020666173742064617461206D6F76656D52
:1022C000656E743C2F74643E093C2F74723E093C69
:1022D00074723E09093C74642077696474683D2215
:1022E0003130302522206267636F6C6F723D22238C
:1022F000443144314431223E2A204861726477617E
:10230000726520617373697374656420495020633A
:102310006865636B73756D2063616C63756C617464
:10232000696F6E733C2F74643E202020203C2F7414
:10233000723E202020203C74723E2020202020204D
:1023400020203C74642077696474683D2231303009
:1023500025223E2A2050726F6772616D6D61626C3A
:102360006520726563656976652066696C7465725F
:1023700073206D696E696D697A696E6720756E7715
:10238000616E746564207061636B6574733C2F7457
:10239000643E093C2F74723E093C74723E09093C4C
:1023A00074642077696474683D22313030252220BE
:1023B0006267636F6C6F723D222344314431443154
:1023C000223E2A20355620746F6C6572616E74202F
:1023D000696E707574733C2F74643E202020203C1D
:1023E0002F74723E093C74723E09093C7464207774
:1023F000696474683D2231303025223E266E627356
:10240000703B3C2F74643E093C2F74723E093C744F
:10241000723E09093C74642077696474683D223116
:10242000303025223E0909093C623E4665617475DB
:1024300072657320737065636966696320746F20C9
:1024400074686520454E4332384A363020696E63E1
:102450006C7564653A3C2F623E09093C2F74643EFA
:10246000093C2F74723E093C74723E09093C746445
:102470002077696474683D223130302522206267FC
:10248000636F6C6F723D2223443144314431223EEC
:102490002A2053504920696E746572666163652015
:1024A0007769746820737065656473207570207433
:1024B0006F2032304D622F733C2F74643E093C2FE5
:1024C00074723E093C74723E20202020202020207F
:1024D0003C74642077696474683D22313030252271
:1024E0003E2A2032382070696E207061636B61670C
:1024F000653C2F74643E202020203C2F74723E20C7
:102500002020203C74723E3C74643E266E627370E0
:102510003B3C74643E3C2F74723E202020203C746F
:10252000723E3C74643E266E6273703B3C2F746452
:102530003E3C2F74723E202020203C74723E2020AE
:102540002020202020203C74642077696474683D3A
:102550002231303025223E3C7374726F6E673E54D8
:102560006865204D6963726F6368697020544350D9
:102570002F495020537461636B206F6666657273D8
:102580003A3C2F7374726F6E673E3C2F74643E202A
:102590002020203C2F74723E202020203C74723E6C
:1025A00020202020202020203C746420776964743F
:1025B000683D223130302522206267636F6C6F7274
:1025C0003D2223443144314431223E2A204E6F20A3
:1025D000726F79616C7479206F7220202020202026
:1025E00020206C6963656E7365206665653C2F7499
:1025F000643E202020203C2F74723E202020203C6E
:1026000074723E20202020202020203C74642077FB
:10261000696474683D2231303025223E2A20506F93
:10262000727461626C65206163726F7373204D69AF
:1026300063726F636869702050494331382C2050B1
:1026400049433234462C205049433234482C2064CC
:102650007350494333302C20616E642064735049B9
:102660004333332066616D696C79206F66206D6934
:1026700063726F636F6E74726F6C6C6572733C2FF4
:1026800074643E202020203C2F74723E20202020A5
:102690003C74723E20202020202020203C746420A6
:1026A00077696474683D2231303025222062676387
:1026B0006F6C6F723D2223443144314431223E2AF3
:1026C000204F75742D6F662D626F78207375707052
:1026D0006F72742020202020202020666F72204DF1
:1026E0006963726F63686970204331382C2043330B
:1026F0003020616E642048492054454348205049A9
:102700004343313820636F6D70696C6572733C2F81
:1027100074643E202020203C2F74723E2020202014
:102720003C74723E20202020202020203C74642015
:1027300077696474683D2231303025223E2A205268
:10274000544F5320696E646570656E64656E743CA9
:102750002F74643E202020203C2F74723E202020C5
:10276000203C74723E20202020202020203C7464D5
:102770002077696474683D223130302522206267F9
:10278000636F6C6F723D2223443144314431223EE9
:102790002A20496D706C656D656E747320636F6D72
:1027A000706C6574652054435020737461746520A7
:1027B0006D616368696E653C2F74643E2020202043
:1027C0003C2F74723E202020203C74723E2020203A
:1027D00020202020203C74642077696474683D22A6
:1027E00031303025223E2A204D756C7469706C653D
:1027F0002054435020616E642055445020736F6311
:102800006B65747320776974682073696D756C7477
:10281000616E656F75732020202020202020636F5B
:102820006E6E656374696F6E2F6D616E6167656D45
:10283000656E743C2F74643E202020203C2F7472FF
:102840003E202020203C74723E202020202020208A
:10285000203C74642077696474683D2231303025EF
:1028600022206267636F6C6F723D222344314431D2
:102870004431223E2A204D6F64756C61722064657C
:102880007369676E20746F20656173696C7920616C
:102890006464206E65772020202020202020636F34
:1028A0006D706F6E656E74733C2F74643E202020D3
:1028B000203C2F74723E202020203C74723E202049
:1028C0002020202020203C74642077696474683DB7
:1028D0002231303025223E2A20557365206974202C
:1028E000617320612070617274206F6620485454B7
:1028F00050205365727665722020202020202020F1
:1029000028696E636C7564656429206F7220616E3E
:102910007920637573746F6D205443502F49502094
:102920006261736564206170706C69636174696F62
:102930006E3C2F74643E202020203C2F74723E2079
:102940002020203C74723E20202020202020203C8B
:1029500074642077696474683D2231303025222008
:102960006267636F6C6F723D22234431443144319E
:10297000223E2A20496E636C7564657320706F7700
:10298000657266756C20616E642079657420736968
:102990006D706C65204D6963726F6368697020208B
:1029A00020202020202046696C65205379737465AF
:1029B0006D20284D504653293C2F74643E20202022
:1029C000203C2F74723E202020203C74723E202038
:1029D0002020202020203C74642077696474683DA6
:1029E0002231303025223E2A205043206261736517
:1029F000642070726F6772616D20746F20636F6EF8
:102A0000766572742050432066696C6573202020BF
:102A10002020202020696E746F204D50465320697D
:102A20006D6167653C2F74643E202020203C2F742C
:102A3000723E202020203C74723E20202020202046
:102A400020203C74642077696474683D2231303002
:102A50002522206267636F6C6F723D2223443144EC
:102A6000314431223E2A20496E636C7564656420CE
:102A70004D6F64756C65733A204D41432C20415273
:102A8000502C2049502C2049434D502C2054435069
:102A90002C205544502C20444843502C2046545060
:102AA0002C20495020476C65616E696E672C204868
:102AB0005454502C204D5046532C20416E6E6F754F
:102AC0006E63652E3C2F74643E202020203C2F74C2
:102AD000723E202020203C74723E202020202020A6
:102AE00020203C74642077696474683D2231303062
:102AF00025223E2A20426F6E7573206669726D77BB
:102B0000617265206D6F64756C65733A20657874C9
:102B100065726E616C205350492073657269616CF7
:102B200020454550524F4D2C205469636B204D6118
:102B30006E616765722C20586D6F64656D205265FB
:102B40006365697665723C2F74643E202020203CCA
:102B50002F74723E3C2F7461626C653E3C2F626F35
:102B600064793E3C2F68746D6C3E04FFFFFF3C6847
:102B7000746D6C3E3C686561643E3C7469746C6560
:102B80003E4D6963726F63686970205443502F49EA
:102B90005020537461636B20466F6F747072696E5E
:102BA000743C2F7469746C653E3C2F686561643EAB
:102BB0003C626F6479206267636F6C6F723D2223A1
:102BC000464646464646223E09093C7461626C65AB
:102BD00020626F726465723D2230222077696474CE
:102BE000683D2231303025223E0909093C74723E8D
:102BF000090909093C74643E09090909093C696D20
:102C000067207372633D224D6368702E6769662288
:102C10003E3C2F696D673E090909093C2F74643EEB
:102C2000090909093C74642077696474683D22319C
:102C3000303025223E09090909093C7020616C6980
:102C4000676E3D227269676874223E0909090909A5
:102C5000093C666F6E742073697A653D22362220C6
:102C6000666163653D224D532053616E7320536549
:102C7000726966223E090909090909093C623E098F
:102C8000090909090909094D6963726F6368697067
:102C9000205443502F495020537461636B09090934
:102CA000090909093C2F623E0909090909093C2F54
:102CB000666F6E743E09090909093C2F703E0909C7
:102CC00009093C2F74643E0909093C2F74723E09BE
:102CD000093C2F7461626C653E09093C7461626C49
:102CE0006520626F726465723D2230222063656CDC
:102CF0006C70616464696E673D2230222063656C8C
:102D00006C73706163696E673D223022207769645D
:102D100074683D223130302522206667636F6C6F06
:102D2000723D227768697465223E0909093C747214
:102D3000206267636F6C6F723D22234646303030ED
:102D40003022206667636F6C6F723D22776869740A
:102D500065223E090909093C746420776964746836
:102D60003D22323525223E09090909093C612068C6
:102D70007265663D22496E6465782E68746D223EE8
:102D80000909090909093C666F6E7420636F6C6F4D
:102D9000723D2223464646464646223E0909090917
:102DA0000909093C623E486F6D653C2F623E090986
:102DB000090909093C2F666F6E743E090909090962
:102DC0003C2F613E090909093C2F74643E09090939
:102DD000093C74642077696474683D223235252289
:102DE0003E09090909093C6120687265663D224671
:102DF000656174757265732E68746D223E090909E8
:102E00000909093C666F6E7420636F6C6F723D2216
:102E100023464646464646223E090909090909094C
:102E20003C623E46656174757265733C2F623E0973
:102E300009090909093C2F666F6E743E09090909E1
:102E400009093C2F613E090909093C2F74643E09B8
:102E50000909093C74642077696474683D2232353D
:102E600025223E0909090909093C61206872656645
:102E70003D22417263682E68746D223E090909097A
:102E80000909093C666F6E7420636F6C6F723D2296
:102E900023464646464646223E09090909090909CC
:102EA000093C623E4172636869746563747572655A
:102EB0003C2F623E090909090909093C2F666F6E1A
:102EC000743E0909090909093C2F613E09090909EC
:102ED0003C2F74643E090909093C746420776964D5
:102EE00074683D22323525223E090909090909097C
:102EF0003C666F6E7420636F6C6F723D2223464692
:102F000046464646223E09090909090909093C6263
:102F10003E537461636B20466F6F747072696E7498
:102F20003C2F623E090909090909093C2F666F6EA9
:102F3000743E090909093C2F74643E0909093C2FB4
:102F400074723E09093C2F7461626C653E3C62728A
:102F50003E3C7461626C6520626F726465723D22F2
:102F600031222063656C6C70616464696E673D2218
:102F700030222063656C6C73706163696E673D22FB
:102F800030222077696474683D2231303025226216
:102F90006F72646572636F6C6F723D2223303030E4
:102FA000303030223E202020203C74723E202020F1
:102FB00020202020203C74642077696474683D22BE
:102FC00032302522206267636F6C6F723D22234688
:102FD0004646463030223E3C7374726F6E673E4CFC
:102FE000617965723C2F7374726F6E673E3C2F740B
:102FF000643E20202020202020203C74642077691B
:103000006474683D2232302522206267636F6C6FE2
:10301000723D2223464646463030223E3C7374724F
:103020006F6E673E436F6D706F6E656E743C2F738D
:1030300074726F6E673E3C2F74643E202020202007
:103040002020203C74642077696474683D2232300B
:103050002522206267636F6C6F723D2223464646CD
:10306000463030223E3C7374726F6E673E524F4D55
:103070002028576F726473293C2F7374726F6E67C8
:103080003E3C2F74643E20202020202020203C74D1
:10309000642077696474683D22323025222062679B
:1030A000636F6C6F723D2223464646463030223EA7
:1030B0003C7374726F6E673E52414D202862797482
:1030C0006573293C2F7374726F6E673E3C2F746476
:1030D0003E20202020202020203C7464207769643A
:1030E00074683D2232302522206267636F6C6F72F4
:1030F0003D2223464646463030223E3C7374726F72
:103100006E673E436F6D6D656E743C2F7374726FA6
:103110006E673E3C2F74643E202020203C2F74724A
:103120003E202020203C74723E20202020202020A1
:10313000203C746420726F777370616E3D2232227E
:103140002077696474683D223230252220626763EB
:103150006F6C6F723D2223443144314431223E5022
:103160006879736963616C3C2F74643E2020202071
:10317000202020203C74642077696474683D2232EA
:10318000302522206267636F6C6F723D22234431C9
:1031900044314431223E45746865726E65743C2F3B
:1031A00074643E20202020202020203C746420775E
:1031B000696474683D2232302522206267636F6C37
:1031C0006F723D2223443144314431223E31333544
:1031D000383C2F74643E20202020202020203C7486
:1031E000642077696474683D22323025222062674A
:1031F000636F6C6F723D2223443144314431223E6F
:1032000035353C2F74643E20202020202020203C97
:1032100074642077696474683D223230252220620C
:1032200067636F6C6F723D22234431443144312215
:103230003E454E4332384A36303C2F74643E20209F
:1032400020203C2F74723E202020203C74723E20AF
:10325000202020202020203C7464206267636F6C53
:103260006F723D2223443144314431223E55534153
:1032700052543C2F74643E20202020202020203CEB
:103280007464206267636F6C6F723D222344314423
:10329000314431223E2D3C2F74643E2020202020DA
:1032A0002020203C7464206267636F6C6F723D2243
:1032B00023443144314431223E2D3C2F74643E205E
:1032C000202020202020203C7464206267636F6CE3
:1032D0006F723D2223443144314431223E536565AF
:1032E00020534C49503C2F74643E202020203C2F1A
:1032F00074723E202020203C74723E20202020202A
:103300002020203C746420726F777370616E3D22C0
:1033100033223E4E6574776F726B3C2F74643E208F
:10332000202020202020203C74643E534C49503CF7
:103330002F74643E20202020202020203C74643EF6
:103340003738303C2F74643E20202020202020205D
:103350003C74643E3132202B205478202620527851
:1033600020427566666572733C2F74643E2020208F
:1033700020202020203C74643E42756666657220E1
:1033800073697A6520697320757365722064656658
:10339000696E65643C2F74643E202020203C2F74AD
:1033A000723E202020203C74723E202020202020CD
:1033B00020203C74643E4152503C2F74643E2020D7
:1033C0002020202020203C74643E3332343C2F7473
:1033D000643E20202020202020203C74643E303C8D
:1033E0002F74643E20202020202020203C74643E46
:1033F000266E6273703B3C2F74643E202020203C7C
:103400002F74723E202020203C74723E2020202009
:10341000202020203C74643E4152505461736B3C28
:103420002F74643E20202020202020203C74643E05
:103430003135323C2F74643E202020202020202073
:103440003C74643E31313C2F74643E2020202020A7
:103450002020203C74643E266E6273703B3C2F74C7
:10346000643E202020203C2F74723E202020203CEF
:1034700074723E20202020202020203C7464207282
:103480006F777370616E3D223222206267636F6CCA
:103490006F723D2223443144314431223E496E74DF
:1034A00065726E65743C2F74643E202020202020BD
:1034B00020203C7464206267636F6C6F723D22232E
:1034C000443144314431223E49503C2F74643E2003
:1034D000202020202020203C7464206267636F6CD1
:1034E0006F723D2223443144314431223E33303522
:1034F0003C2F74643E20202020202020203C746437
:10350000206267636F6C6F723D2223443144314403
:1035100031223E323C2F74643E2020202020202087
:10352000203C7464206267636F6C6F723D22234499
:103530003144314431223E266E6273703B3C2F741D
:10354000643E202020203C2F74723E202020203C0E
:1035500074723E20202020202020203C74642062B1
:1035600067636F6C6F723D222344314431443122D2
:103570003E49434D503C2F74643E202020202020A3
:1035800020203C7464206267636F6C6F723D22235D
:10359000443144314431223E3234333C2F74643E52
:1035A00020202020202020203C7464206267636F4C
:1035B0006C6F723D2223443144314431223E303C11
:1035C0002F74643E20202020202020203C74642082
:1035D0006267636F6C6F723D222344314431443122
:1035E000223E266E6273703B3C2F74643E20202086
:1035F000203C2F74723E202020203C74723E2020FC
:103600002020202020203C746420726F777370612A
:103610006E3D2232223E5472616E73706F72743C42
:103620002F74643E20202020202020203C74643E03
:103630005443503C2F74643E202020202020202022
:103640003C74643E323532343C2F74643E2020207A
:1036500020202020203C74643E34323C2F74643E91
:1036600020202020202020203C74643E4561636897
:1036700020657874726120736F636B657420636F6B
:103680006E73756D657320333620627974657320AF
:103690006F662052414D3C2F74643E202020203C18
:1036A0002F74723E202020203C74723E2020202067
:1036B000202020203C74643E5544503C2F74643ECE
:1036C00020202020202020203C74643E3630383CCE
:1036D0002F74643E20202020202020203C74643E53
:1036E00032303C2F74643E20202020202020203CBB
:1036F00074643E4561636820657874726120736FFD
:10370000636B657420636F6E73756D6573203139FB
:10371000206279746573206F662052414D3C2F748E
:10372000643E202020203C2F74723E202020203C2C
:1037300074723E20202020202020203C74642072BF
:103740006F777370616E3D36206267636F6C6F7266
:103750003D2223443144314431223E4170706C6932
:10376000636174696F6E3C2F74643E2020202020BA
:103770002020203C7464206267636F6C6F723D226E
:1037800023443144314431223E485454503C2F7438
:10379000643E20202020202020203C74642062678A
:1037A000636F6C6F723D2223443144314431223EB9
:1037B0003931323C2F74643E2020202020202020EC
:1037C0003C7464206267636F6C6F723D22234431E6
:1037D00044314431223E31303C2F74643E2020205D
:1037E00020202020203C7464206267636F6C6F721D
:1037F0003D2223443144314431223E4D75737420BF
:10380000696E636C756465205443502C204D50469E
:10381000533C2F74643E202020203C2F74723E20A5
:103820002020203C74723E20202020202020203C9C
:103830007464206267636F6C6F723D22234431446D
:10384000314431223E444843503C2F74643E202092
:103850002020202020203C7464206267636F6C6FFE
:10386000723D2223443144314431223E3733383CC7
:103870002F74643E20202020202020203C746420CF
:103880006267636F6C6F723D22234431443144316F
:10389000223E32363C2F74643E20202020202020FF
:1038A000203C7464206267636F6C6F723D22234416
:1038B0003144314431223E4D75737420696E636C1E
:1038C000756465205544503C2F74643E20202020B0
:1038D0003C2F74723E202020203C74723E20202019
:1038E00020202020203C7464206267636F6C6F721C
:1038F0003D2223443144314431223E534E4D503C0D
:103900002F74643E20202020202020203C7464203E
:103910006267636F6C6F723D2223443144314431DE
:10392000223E323831393C2F74643E202020202042
:103930002020203C7464206267636F6C6F723D22AC
:1039400023443144314431223E32383C2F74643EAA
:1039500020202020202020203C7464206267636F98
:103960006C6F723D2223443144314431223E4D7507
:10397000737420696E636C756465205544502C2007
:103980004D5046533C2F74643E202020203C2F7421
:10399000723E202020203C74723E202020202020D7
:1039A00020203C7464206267636F6C6F723D222339
:1039B000443144314431223E46545020536572769E
:1039C00065723C2F74643E20202020202020203C63
:1039D0007464206267636F6C6F723D2223443144CC
:1039E000314431223E3633373C2F74643E20202050
:1039F00020202020203C7464206267636F6C6F720B
:103A00003D2223443144314431223E33353C2F742E
:103A1000643E20202020202020203C746420626707
:103A2000636F6C6F723D2223443144314431223E36
:103A30004D75737420696E636C75646520544350D2
:103A40002C204D5046533C2F74643E202020203CB7
:103A50002F74723E202020203C74723E20202020B3
:103A6000202020203C7464206267636F6C6F723D7D
:103A70002223443144314431223E495020476C6571
:103A8000616E696E673C2F74643E202020202020E8
:103A900020203C7464206267636F6C6F723D222348
:103AA000443144314431223E32303C2F74643E2054
:103AB000202020202020203C7464206267636F6CEB
:103AC0006F723D2223443144314431223E313C2F38
:103AD00074643E20202020202020203C746420623A
:103AE00067636F6C6F723D2223443144314431224D
:103AF0003E417070726F782E2073697A65202D2098
:103B000050617274206F6620537461636B204D6145
:103B10006E616765723C2F74643E202020203C2F2C
:103B200074723E202020203C74723E2020202020F1
:103B30002020203C7464206267636F6C6F723D22AA
:103B400023443144314431223E416E6E6F756E63C1
:103B5000653C2F74643E20202020202020203C74CF
:103B600064206267636F6C6F723D2223443144317D
:103B70004431223E3138373C2F74643E20202020CF
:103B8000202020203C7464206267636F6C6F723D5C
:103B90002223443144314431223E303C2F74643E70
:103BA00020202020202020203C7464206267636F46
:103BB0006C6F723D2223443144314431223E266EE3
:103BC0006273703B3C2F74643E202020203C2F7495
:103BD000723E202020203C74723E20202020202095
:103BE00020203C746420726F777370616E3D353EA7
:103BF0004F746865723C2F74643E20202020202082
:103C000020203C74643E46696C652053797374656A
:103C10006D20284D504653293C2F74643E202020AF
:103C200020202020203C74643E3237363C2F7464C0
:103C30003E20202020202020203C74643E353C2F54
:103C400074643E20202020202020203C74643E49C3
:103C50006E7465726E616C2050726F6772616D2058
:103C60004D656D6F72792053746F726167653C2F7B
:103C700074643E202020203C2F74723E202020209F
:103C80003C74723E20202020202020203C74643E82
:103C9000537461636B204D616E616765723C2F7474
:103CA000643E20202020202020203C74643E3239B5
:103CB000373C2F74643E20202020202020203C749C
:103CC000643E3132202B2049434D502042756666B8
:103CD00065723C2F74643E20202020202020203C50
:103CE00074643E49434D5020427566666572207388
:103CF000697A6520697320757365722064656669E9
:103D00006E65643C2F74643E202020203C2F74722A
:103D10003E202020203C74723E20202020202020A5
:103D2000203C74643E5469636B204D616E6167652D
:103D3000723C2F74643E20202020202020203C74E0
:103D4000643E33333C2F74643E202020202020200A
:103D5000203C74643E323C2F74643E20202020209E
:103D60002020203C74643E55736572206D6179207B
:103D700075736520637573746F6D205469636B2070
:103D80004D616E6167657220746F6F3C2F74643E85
:103D9000202020203C2F74723E202020203C747272
:103DA0003E20202020202020203C74643E48656C6A
:103DB0007065722F436F6D6D6F6E2066756E6374E4
:103DC000696F6E733C2F74643E20202020202020D9
:103DD000203C74643E3636303C2F74643E202020F4
:103DE00020202020203C74643E303C2F74643E2010
:103DF000202020202020203C74643E4E6F6E653CC5
:103E00002F74643E202020203C2F74723E202020FE
:103E1000203C74723E20202020202020203C74640E
:103E20003E53504920454550524F4D2053746F72B8
:103E300061676520526F7574696E65733C2F746499
:103E40003E20202020202020203C74643E3231314E
:103E50003C2F74643E20202020202020203C7464CD
:103E60003E34202B20454550524F4D20427566660A
:103E700065723C2F74643E20202020202020203CAE
:103E800074643E454550524F4D20427566666572DA
:103E90002073697A65206973207573657220646583
:103EA00066696E65643C2F74643E202020203C2FA0
:103EB00074723E202020203C74723E20202020205E
:103EC0002020203C746420636F6C7370616E3D220F
:103ED000352220626F72646572636F6C6F723D226F
:103EE00023464646464646223E3C656D3E3C73743C
:103EF000726F6E673E4E6F74653A3C2F7374726FCB
:103F00006E673E3C2F656D3E3C656D3E2020202057
:103F1000202020205573696E67204D6963726F639E
:103F2000686970204331382076332E303020436F5B
:103F30006D70696C6572207769746820616C6C20A3
:103F40006F7074696D697A6174696F6E2E2020419B
:103F50006C6C2076616C7565732061726520657389
:103F600074696D617465732E2020546865736520D3
:103F700076616C756573206D617920766172792048
:103F80006173206E65772066656174757265732054
:103F9000616E64206F7074696D697A6174696F6EA7
:103FA00073206172652061646465642E3C2F656DC9
:103FB0003E3C2F74643E202020203C2F74723E3CF7
:103FC0002F7461626C653E3C2F626F64793E3C2FBA
:103FD00068746D6C3E04FFFFFF3C68746D6C3E09B5
:103FE0003C626F64793E09093C623E4D6963726FC1
:103FF00063686970205443502F49502053746163A3
:104000006B3C2F623E3C62723E0909537461636BE4
:104010002076657273696F6E3A202531363C627284
:104020003E09094275696C6420646174653A202513
:1040300031373C62723E09093C62723E09093C66B6
:104040006F726D206D6574686F643D2267657422C0
:1040500020616374696F6E3D2230223E0909093C7C
:10406000623E416374696F6E733C2F623E3C6272C4
:104070003E090909546F67676C65204C4544733AE3
:104080003C62723E0909093C696E7075742074794E
:1040900070653D227375626D697422206E616D6575
:1040A0003D2231222076616C75653D224C454432BB
:1040B000223E3C2F696E7075743E0909093C696E99
:1040C00070757420747970653D227375626D6974C2
:1040D00022206E616D653D2230222076616C75650F
:1040E0003D224C454431223E3C2F696E7075743E32
:1040F00009093C2F666F726D3E09093C666F726D4F
:10410000206D6574686F643D226765742220616369
:1041100074696F6E3D2231223E0909095772697434
:104120006520746F204C43443A0909093C696E705C
:10413000757420747970653D227465787422206EE0
:10414000616D653D2233222073697A653D223136E7
:10415000223E3C2F696E7075743E0909093C696EF8
:1041600070757420747970653D227375626D697421
:10417000222076616C75653D225772697465223E16
:104180003C2F696E7075743E09093C2F666F726D25
:104190003E3C62723E09093C623E53746174757321
:1041A0003C2F623E3C62723E0909506F74303A20E7
:1041B0002530323C62723E0909427574746F6E7329
:1041C0003A20253046202530452025304420253012
:1041D000343C62723E09094C4544733A202531351E
:1041E000202531342025313320253132202531312D
:1041F0002025313020253031202530303C62723E80
:10420000093C2F626F64793E3C2F68746D6C3E04EC
:10421000FFFFFF3C68746D6C3E093C686561643E5D
:1042200009093C7469746C653E4D6963726F63681B
:104230006970205443502F495020537461636B20A0
:10424000486F6D653C2F7469746C653E09093C7359
:104250006372697074206C616E67756167653D2279
:104260004A617661536372697074223E0909097666
:10427000617209786D6C487474703B090909766144
:1042800072204F626A4172726179203D206E6577BB
:104290002041727261793B09090966756E63746920
:1042A0006F6E20476574586D6C487474704F626A05
:1042B0006563742868616E646C6572290909097BFD
:1042C000090909766172206F626A586D6C487474CE
:1042D00070203D206E756C6C3B0909096966286E7B
:1042E0006176696761746F722E7573657241676577
:1042F0006E742E696E6465784F6628224D53494569
:1043000022293E3D30290909097B09090976617294
:1043100020436C6173734E616D65203D20224D73A7
:10432000786D6C322E584D4C48545450223B09093C
:10433000096966286E6176696761746F722E6170B3
:104340007056657273696F6E2E696E6465784F661C
:1043500028224D53494520352E3522293E3D30290E
:104360000909097B090909436C6173734E616D6525
:10437000203D20224D6963726F736F66742E584D15
:104380004C48545450223B0909097D0909097472AB
:10439000790909097B0909096F626A586D6C4874CB
:1043A0007470203D206E657720416374697665588E
:1043B0004F626A65637428436C6173734E616D6507
:1043C000293B0909096F626A586D6C487474702E34
:1043D0006F6E726561647973746174656368616E30
:1043E0006765203D2068616E646C65723B09090950
:1043F00072657475726E206F626A586D6C48747461
:10440000703B0909097D09090963617463682865BE
:10441000290909097B090909616C6572742822451B
:1044200072726F723A2041637469766558207363C3
:1044300072697074696E67206D61792062652064AD
:10444000697361626C65642E22293B0909097265F2
:104450007475726E3B0909097D0909097D0909090D
:10446000656C73650909097B090909747279090981
:10447000097B0909096F626A586D6C487474702071
:104480003D206E657720584D4C48747470526571AC
:104490007565737428293B0909096F626A586D6C48
:1044A000487474702E6F6E6C6F6164203D2068617B
:1044B0006E646C65723B0909096F626A586D6C48DD
:1044C0007474702E6F6E6572726F72203D20686119
:1044D0006E646C65723B09090972657475726E20B1
:1044E0006F626A586D6C487474703B0909097D09E4
:1044F000090963617463682865290909097B090949
:1045000009616C65727428224572726F723A20429A
:10451000726F77736572206D6179206E6F7420629F
:104520006520737570706F72746564206F7220629D
:10453000726F777365722073656375726974792021
:104540007265737472696374696F6E7320617265EA
:1045500020746F6F20686967682E2020584D4C4882
:104560007474705265717565737428292073757041
:10457000706F7274206973207265717569726564F9
:104580002E22293B0909097D0909097D0909097DAF
:1045900009090966756E6374696F6E2053746174DE
:1045A000654368616E67656428290909097B090903
:1045B00009696628786D6C487474702E7265616440
:1045C000795374617465203D3D2034207C7C2078D3
:1045D0006D6C487474702E72656164795374617483
:1045E00065203D3D2022636F6D706C6574652229E6
:1045F0000909097B090909646F63756D656E742E7D
:10460000676574456C656D656E74427949642822EE
:104610007478744175746F55706461746553746116
:1046200074757322292E696E6E657248544D4C3D27
:10463000786D6C487474702E726573706F6E7365EC
:10464000546578743B090909786D6C48747470205E
:104650003D206E756C6C3B09090955706461746589
:1046600053746174757328293B0909097D09090987
:104670007D09090966756E6374696F6E20557064F3
:1046800061746553746174757328290909097B097C
:104690000909786D6C48747470203D204765745822
:1046A0006D6C487474704F626A65637428537461EA
:1046B00074654368616E676564293B090909786D13
:1046C0006C487474702E6F70656E282247455422B2
:1046D0002C20225374617475732E63676922202C19
:1046E0002074727565293B090909786D6C487474EA
:1046F000702E73656E64286E756C6C293B09090910
:104700007D09090966756E6374696F6E204765746B
:1047100053657276657246696C652846696C654EAC
:10472000616D652C2041737369676E546F290909A7
:10473000097B090909766172204E696674794F62B6
:104740006A203D206E6577204F626A656374282970
:104750003B0909094E696674794F626A2E584D4CBF
:10476000446576696365203D206E657720476574F2
:10477000586D6C487474704F626A65637428537422
:104780006174654368616E67656432293B09090994
:104790004E696674794F626A2E584D4C446576694D
:1047A00063652E6F70656E2822474554222C204683
:1047B000696C654E616D652C2074727565293B09C5
:1047C00009094E696674794F626A2E584D4C4465EA
:1047D000766963652E73656E64286E756C6C293B13
:1047E0000909094E696674794F626A2E54657874B6
:1047F000203D2041737369676E546F3B0909094F6F
:10480000626A41727261792E70757368284E6966AA
:1048100074794F626A293B0909097D09090966759E
:104820006E6374696F6E2053746174654368616E62
:104830006765643228290909097B090909666F72CD
:10484000286920696E204F626A4172726179290974
:1048500009097B0909096966284F626A4172726118
:10486000795B695D2E584D4C4465766963652E729F
:10487000656164795374617465203D3D2034207C0A
:104880007C204F626A41727261795B695D2E584D7E
:104890004C4465766963652E726561647953746111
:1048A0007465203D3D2022636F6D706C65746522D8
:1048B000290909097B0909096966284F626A417259
:1048C0007261795B695D2E5465787420213D2022E8
:1048D00022290909097B090909646F63756D656EF1
:1048E000742E676574456C656D656E7442794964B4
:1048F000284F626A41727261795B695D2E546578F6
:1049000074292E696E6E657248544D4C3D4F626A33
:1049100041727261795B695D2E584D4C44657669D0
:1049200063652E726573706F6E7365546578743B42
:104930000909097D0909096966284F626A4172728D
:1049400061795B695D2E54657874203D3D20227449
:1049500078744175746F55706461746553746174D3
:10496000757322290909097B09090947657453658B
:104970007276657246696C6528225374617475732A
:104980002E636769222C20227478744175746F55E8
:10499000706461746553746174757322293B0909ED
:1049A000097D09090964656C657465204F626A4177
:1049B000727261795B695D2E584D4C44657669630E
:1049C000653B09090964656C657465204F626A413D
:1049D000727261795B695D3B0909097D0909097D8D
:1049E0000909097D09093C2F7363726970743E09D6
:1049F0003C2F686561643E093C626F6479206267A0
:104A0000636F6C6F723D22776869746522206F6EE8
:104A10006C6F61643D225570646174655374617498
:104A2000757328293B204765745365727665724615
:104A3000696C65282756657273696F6E2E636769A6
:104A4000272C27747874537461636B56657273698D
:104A50006F6E27293B2047657453657276657246F1
:104A6000696C6528274275696C64446174652E63BE
:104A70006769272C277478744275696C6444617483
:104A80006527293B223E09093C7461626C652062FE
:104A90006F726465723D2230222077696474683DCC
:104AA0002231303025223E0909093C74723E090941
:104AB00009093C74643E09090909093C696D6720CC
:104AC0007372633D224D6368702E676966223E3CB7
:104AD0002F696D673E090909093C2F74643E090975
:104AE00009093C74642077696474683D2231303070
:104AF00025223E09090909093C7020616C69676E2D
:104B00003D227269676874223E0909090909093C56
:104B1000666F6E742073697A653D22362220666165
:104B200063653D224D532053616E73205365726956
:104B300066223E090909090909093C623E09090979
:104B400009090909094D6963726F63686970205426
:104B500043502F495020537461636B0909090909B7
:104B600009093C2F623E0909090909093C2F666FB2
:104B70006E743E09090909093C2F703E09090909AB
:104B80003C2F74643E0909093C2F74723E09093CAC
:104B90002F7461626C653E09093C7461626C65202A
:104BA000626F726465723D2230222063656C6C70A6
:104BB000616464696E673D2230222063656C6C73AA
:104BC000706163696E673D22302220776964746882
:104BD0003D223130302522206667636F6C6F723D55
:104BE000227768697465223E0909093C7472206263
:104BF00067636F6C6F723D2223464630303030223F
:104C0000206667636F6C6F723D22776869746522F6
:104C10003E090909093C74642077696474683D227F
:104C2000323525223E09090909093C666F6E742058
:104C3000636F6C6F723D2223464646464646223ECF
:104C40000909090909093C623E486F6D653C2F62FC
:104C50003E09090909093C2F666F6E743E0909096E
:104C6000093C2F74643E090909093C746420776982
:104C70006474683D22323525223E09090909093C40
:104C80006120687265663D22466561747572657360
:104C90002E68746D223E0909090909093C666F6E88
:104CA0007420636F6C6F723D22234646464646462B
:104CB000223E090909090909093C623E46656174F9
:104CC000757265733C2F623E0909090909093C2F79
:104CD000666F6E743E09090909093C2F613E090996
:104CE00009093C2F74643E090909093C7464207762
:104CF000696474683D22323525223E090909090993
:104D00003C6120687265663D22417263682E68745A
:104D10006D223E0909090909093C666F6E7420631A
:104D20006F6C6F723D2223464646464646223E0938
:104D30000909090909093C623E41726368697465A1
:104D400063747572653C2F623E0909090909093CC3
:104D50002F666F6E743E09090909093C2F613E09EF
:104D60000909093C2F74643E090909093C7464204F
:104D700077696474683D22323525223E09090909A4
:104D8000093C6120687265663D22466F6F747072DF
:104D90006E742E68746D223E0909090909093C6682
:104DA0006F6E7420636F6C6F723D222346464646D9
:104DB0004646223E090909090909093C623E537425
:104DC00061636B20466F6F747072696E743C2F6202
:104DD0003E0909090909093C2F666F6E743E0909ED
:104DE0000909093C2F613E090909093C2F74643EF9
:104DF0000909093C2F74723E09093C2F7461626CE9
:104E0000653E09093C62723E0909093C7461626CA5
:104E10006520626F726465723D2230222063656C8A
:104E20006C70616464696E673D2230222063656C3A
:104E30006C73706163696E673D223022207769640C
:104E400074683D2231303025223E090909093C743D
:104E5000723E09090909093C74642076616C69672E
:104E60006E3D22746F70222077696474683D22342D
:104E70003925223E0909090909093C623E57656C3A
:104E8000636F6D65213C2F623E0909090909093CE0
:104E900062723E09090909090909537461636B20AB
:104EA00076657273696F6E3A203C7370616E20692B
:104EB000643D22747874537461636B5665727369D0
:104EC0006F6E223E556E6B6E6F776E3C2F73706106
:104ED0006E3E3C62723E09090909090909094275D9
:104EE000696C6420646174653A203C7370616E2063
:104EF00069643D227478744275696C6444617465B8
:104F0000223E556E6B6E6F776E3C2F7370616E3EF6
:104F10003C62723E0909090909090909093C703E08
:104F200009090909090909090909546869732073FC
:104F300069746520697309090909090909090909D9
:104F40007573656420746F2064656D6F6E73747221
:104F50006174652074686520706F77657220616E7A
:104F600064206162696C6974696573206F66206191
:104F70006E2038206F722031362D6269740909095C
:104F800009090909090909656D6265646465642098
:104F9000776562207365727665722E205468697336
:104FA000207369746520697320706F77657264205F
:104FB00062792061204D6963726F63686970205067
:104FC0004943090909090909090909096D69637250
:104FD0006F636F6E74726F6C6C65722072756E6E3B
:104FE000696E672061204D6963726F636869702024
:104FF0005443502F495009090909090909090909A8
:10500000537461636B2E2045766572797468696E9E
:105010006720796F752073656520697320736572E9
:10502000766564207468726F756768206109090984
:10503000090909090909094D6963726F6368697093
:1050400020454E4332384A36302031304261736554
:105050002D542045746865726E657420636F6E749C
:10506000726F6C6C6572206F722074686520504995
:105070004331384639374A36302066616D696C797C
:105080002045746865726E6574206D6F64756C651B
:105090002E0909090909090909093C2F703E090966
:1050A000090909090909093C703E090909090909A1
:1050B0000909090954686520626F74746F6D207066
:1050C0006F7274696F6E206F6620746869732070E8
:1050D00061676520696C6C757374726174657309BE
:1050E0000909090909090909097265616C2D7469C1
:1050F0006D6520636F6E74726F6C206F66207468CC
:10510000652064656D6F20626F6172642E20546843
:1051100065202671756F743B5374617475732671C5
:10512000756F743B0909090909090909093C2F70C0
:105130003E0909090909090909093C2F74643E0956
:10514000090909093C74642076616C69676E3D2227
:10515000746F70222077696474683D223225223E84
:105160003C2F74643E09090909093C746420766186
:105170006C69676E3D22746F702220776964746871
:105180003D22343925223E0909090909093C703EAE
:105190000909090909090973656374696F6E207249
:1051A0006566726573686573207769746820626FDD
:1051B00061726420696E666F726D6174696F6E20D2
:1051C000706572696F646963616C6C79207573696D
:1051D0006E67204A61766153637269707420616EF4
:1051E0006409090909090909746865202671756F40
:1051F000743B416374696F6E732671756F743B20E5
:1052000073656374696F6E2069737375657320636A
:105210006F6D6D616E647320746F20746F67676C5F
:105220006520746865090909090909096F6E2D620D
:105230006F617264204C454473206F72204C43446C
:10524000207465787420286966204C4344206D6F73
:1052500064756C652069732070726573656E74295E
:105260002E0909090909093C2F703E090909090994
:10527000093C703E09090909090909596F7520633C
:10528000616E207075736820746865206F6E2D6282
:105290006F6172642073776974636828657329206D
:1052A0006F7220726F7461746520746865090909F2
:1052B00009090909706F74656E74696F6D657465AD
:1052C0007220616E642073656520746865206E6568
:1052D0007720646174612E20596F75206D617909A2
:1052E000090909090909616C736F20636C69636BB3
:1052F000206F6E206F6E65206F6620746865207465
:10530000776F204C454420636F6D6D616E64206241
:105310007574746F6E7320746F090909090909099E
:10532000746F67676C6520746865206F6E2D626F9F
:10533000617264204C4544732E0909090909093C2E
:105340002F703E0909090909093C703E4966207918
:105350006F75722062726F7773657220646F657308
:10536000206E6F7420737570706F727420414A41A3
:10537000582C20796F75206D6179207769736820CA
:10538000746F20736565203C6120687265663D22FC
:10539000496E6465782E636769223E74686973207C
:1053A000706167653C2F613E20666F7220616E20E0
:1053B000656173696C792072656672657368616294
:1053C0006C652073746174696320736E61707368B7
:1053D0006F74206F662074686520626F617264204C
:1053E0007374617465207769746820636F6E74727A
:1053F0006F6C206F7074696F6E732E09090909094B
:105400003C2F703E09090909093C2F74643E0909C3
:1054100009093C2F74723E0909093C2F7461626CC2
:10542000653E0909093C7461626C652063656C6CBA
:1054300070616464696E673D2233223E090909097F
:105440003C666F726D3E09090909093C74723E0998
:1054500009090909093C74643E090909090909098E
:105460003C623E416374696F6E733C2F623E090972
:10547000090909093C2F74643E09090909093C2FEF
:1054800074723E09090909093C74723E0909090947
:1054900009093C74643E546F67676C65204C454451
:1054A000733A3C2F74643E0909090909093C746484
:1054B0003E090909090909093C696E70757420746F
:1054C0007970653D22627574746F6E222076616C0E
:1054D00075653D224C45443222206F6E636C6963D2
:1054E0006B3D2247657453657276657246696C65DB
:1054F0002827303F313D4C454432272C272729228D
:105500003E3C2F696E7075743E09090909093C2FEC
:1055100074643E09090909093C74643E09090909D2
:105520000909093C696E70757420747970653D22B3
:10553000627574746F6E222076616C75653D224CC5
:1055400045443122206F6E636C69636B3D22476571
:105550007453657276657246696C652827303F30F2
:105560003D4C454431272C272729223E3C2F696E8C
:105570007075743E09090909093C2F74643E0909D4
:1055800009093C2F74723E090909093C74723E09ED
:10559000090909093C74643E577269746520746F87
:1055A000204C43443A3C2F74643E09090909093CE4
:1055B00074643E0909090909093C696E7075742013
:1055C000747970653D227465787422206E616D6512
:1055D0003D2233222069643D224C43445465787453
:1055E000222073697A653D223136223E3C2F696E56
:1055F0007075743E09090909093C2F74643E090954
:105600000909093C74643E0909090909093C696EE4
:1056100070757420747970653D22627574746F6E54
:10562000222076616C75653D22577269746522206F
:105630006F6E636C69636B3D224765745365727668
:10564000657246696C652827313F333D272B646FAF
:1056500063756D656E742E676574456C656D656EFA
:10566000744279496428274C434454657874272947
:105670002E76616C75652C272729223E3C2F696E9A
:105680007075743E09090909093C2F74643E0909C3
:1056900009093C2F74723E0909093C2F666F726D2F
:1056A0003E0909093C74723E090909093C74643ECB
:1056B000266E6273703B3C2F74643E0909093C2FCF
:1056C00074723E0909093C74723E090909093C7467
:1056D000643E09090909093C623E5374617475739B
:1056E0003C2F623E090909093C2F74643E090909EF
:1056F0003C2F74723E09093C2F7461626C653E094F
:10570000093C7370616E2069643D22747874417540
:10571000746F557064617465537461747573223E5F
:105720004C6F6164696E672E2E2E3C2F7370616E14
:105730003E093C2F626F64793E3C2F68746D6C3E6D
:1057400004FFFFFF25303004FFFFFF25303104FF49
:10575000FFFF474946383961E6003C00F700000387
:10576000040304030444445A6F6F5A8F8FAFFA0343
:10577000040304FFFFFFFFFFFF0000000000000024
:105780000000000000000000000000000000000019
:105790000000000000000000000000000000000009
:1057A00000000000000000000000000000000000F9
:1057B00000000000000000000000000000000000E9
:105A60000000000021F9030401000005002C0000E3
:105A70000000E6003C004008FF000B081C48B0A0F6
:105A8000C18308132A5CC8B0A1C38710234A9C486D
:105A9000B1A245010304326ADCC8B123010103034A
:105AA000070810306080C5932853AA5CC9D2A1C7EB
:105AB0008D03045F723439702348890072E6BC8913
:105AC0005080CE9C2D830A1D9A12A34C9A0A8D7E7B
:105AD0006CA894A7C29F03037E06201800EA4F8299
:105AE0005705FECC19A0ABD7AF02A3EAFCDA75EBE1
:105AF000D40255C7562D9B5627CDAD5CC97A0DEB08
:105B0000F6A0580067DBE6552B576A448D099522AD
:105B10000DACD169429B077F3A850B74A0DE815999
:105B2000EF9E657897B15FAD750FFAE45A40B2C346
:105B3000BB83438E15F818AD65B893552AED183A16
:105B4000A447C34463CB9E4D7BE20099B873177E94
:105B5000E8B30000015DA30E0840B32A49E1007CD0
:105B6000472D0B5C24729F5E9B13FFFD9BAE4FE0A5
:105B7000009047053E35BBEF91D3DF96FF15DEB5AC
:105B800079F6EC5DD18E3C1F5579C90037B7FF8699
:105B9000EF53FB79ECE5A9BBF75EBBBFFFFF000647
:105BA00028E08003041668206FBA25C8DA810C3615
:105BB000F8DF6D2FC1E6DA823D6DD45A608CD9C50D
:105BC000D8605F2125D2693BD1349C5C729154D05E
:105BD00070A70567108A298AE8D58523C227107720
:105BE0003216402359711127118430CDB81B43164A
:105BF00032B4DA853366B5594E254185199290E95C
:105C000044D74E9F6576E268BE398990679E3554C9
:105C10001988789146655B5752C9D26A121A84D89E
:105C200042236928E5934C125459938D99C6A59542
:105C3000A02124E69C621E39279B305279E44D60F6
:105C4000D2B61A6E3CF1881B9108B5C55F629C4DB7
:105C500049A4705A49C8DF5D0AE97850558E414918
:105C60005568325AAAA5952A9554264A2229D8D190
:105C7000A80EA6AAEAAAACB6EA6A8123E5FF66E204
:105C8000ABB4D69A52A9A6E6E69873B6F6EAAB8DFF
:105C9000B906BB1445D76959DEAFC8DA76E88AB8C9
:105CA00069D6E3435B2E5A909E6D266BAD4232A1BE
:105CB000EA23600B19AA2D9C701964596A59D98876
:105CC00067979D9DBBA8BAC9B1B967BAD5BAE9E7CC
:105CD00097EA4AF4DA990A19CAD4B3613A59194DC4
:105CE0007A9A546E958D6549D99A5835AAE4A53AA1
:105CF000816470B70D971412BCD5C9896EA02B8A28
:105D0000A925BE61FD88A6C709799BE89DE366AA1F
:105D100029C1EDDEF5ADBB5C821BF2680FE7AB2E4F
:105D2000A0F49EBB324169620BF295FC1246809D45
:105D30006B463BD89B4BA68C1A89E9517C615B343E
:105D4000F3C5D6566F4985B48A7566DCE891672D30
:105D5000DCDFA01909C93144CB250D51875AA5357F
:105D6000ADA270158A97A705ADEDD488E34A88DD0A
:105D7000B8E4AAB8627461E18D56595BEBFF061B6B
:105D8000D73D5F2BB883B80AABE0CDE97E88E97CCC
