:020000040000fa
:080000000002040000000000f2
:020000040000fa
:100400000fb9200080ff27000001880000000000d5
:10041000050007000c0007004a2802000000000049
:100420000040da000000fe004440a90080b6200031
:100430000000e0000300320000002000a00188005e
:100440004440a80000000600604225000100200092
:100450001600370062004000e080480091018800eb
:100460009001ba0062004000e080480091018800dd
:100470009002ba0062004000e08048000002eb00f9
:100480006028e10005003a008301e900070033001d
:10049000038009000059eb00040037006128e100e7
:1004a000010032000082eb00050007009101880086
:1004b0001001ba000200e000e6ff3a00000005006b
:1004c000910188008002780062004000e0804800ce
:1004d0003559ba008301e900080032002559ba00f5
:1004e0008301e900050032000400e000f4ff32005f
:1004f00015d9ba008301e900f1ff3a0000000600b7
:10050000800178000200e00003003200b159780059
:100510000201e900fdff3a000000060080017800ba
:100520000200e000070032001104e0000500320084
:10053000b15978000201e900020032001104e00024
:10054000fbff3a000200e000030032008059eb009c
:100550000201e900fdff3a0000000600ea874700bb
:10056000889fbe008a9fbe008c9fbe008e1f7800b1
:100570008006780001067800820478000004780084
:10058000010037000804e8001800fb00a80007007d
:100590000000e000fbff3a0098407800d0c2b300b2
:1005a00080cf50000400320000c0e900d0ef9f006f
:1005b00080cf500002003a00d1ef9f000804e8000d
:1005c0000900e00046003500e18f5400440032008d
:1005d00040022000808f540041003c000900e000f0
:1005e0000d003400f08f54001a003a0000c3b3002d
:1005f000984f100017003a009840900080c7b30051
:1006000080cf50001200320080c5b30080cf500070
:1006100010003a000e00370000c3b300984f1000de
:1006200002003200a90020000a0037009840900024
:1006300080c7b30080cf5000040032008900200042
:1006400080c5b30080cf500002003a0009012000ad
:100650000884e800d8b79f0000c3b300984f10008b
:1006600002003a00d84f1000feff32006055b8007b
:10067000080778000e003700fab79f008bbf9f0075
:10068000809a200000425200c4ef9f006149b900e7
:100690000a00be00840007004fea97000401fb0037
:1006a000cf91de0000054100818549000804e80083
:1006b0001800fb0066000700800078000901780040
:1006c000809a200069000700000278000000e00026
:1006d000e9ff3a005fb09700880f500005003a002c
:1006e0000c00e000010032000d0e78006000b80040
:1006f000270037008e005400d09c2000694078000d
:100700000000fb0000805000170033004240a900a9
:100710000f003c004fe997000200fb00cf80de0095
:100720000000550081805d00800f5500818f5d00c5
:10073000070039006149b900610007007fb19700e7
:100740008fb99700820f5000838f58000600320047
:1007500020022000505c88000085eb008085eb00c3
:10076000b3c2b300d3ef9f00d0c2b3005fea9700db
:10077000804f520002003a0060051500e0851d0020
:100780000c00e00001003200080e78000a00be00f4
:100790004f0778004f06be004f05be004f04be0055
:1007a000af00b100000006000200e0000b003200c4
:1007b0001042780091417800834f520003003200cc
:1007c0000080eb0006003900100005000000e80082
:1007d0008100e8000201e900f5ff3a000000eb00ab
:1007e0000000060000017800314978003204e00082
:1007f000fdff3a0000000600800078001004e000d1
:10080000020032005104e000feff3a000080500078
:1008100000000600800178000200e00003003200c2
:10082000815978000201e900fdff3a00000006004e
:100830006900e100040035006d00e10003003400b0
:100840000002b100010032000000050010000500a8
:10085000800078001104b100030035009101b1005f
:1008600001003c000050a000000006000200e00073
:100870000500320090cf1000040032000000e800b4
:100880000201e900fbff3a000000eb000000060057
:10089000605c80000000e000010032000000010008
:1008a000a0b8200000000600020ab900001bb90031
:1008b0000200b800810042008100430000000600f1
:1008c0006022b800060220000000d0008180d20023
:1008d0000482d2008582d2000000a00002025200f1
:1008e00083825a0003003b000202420083824a00d6
:1008f0000000a1000603e900f3ff3a000000060033
:100900000e00fa008e80e80000c0eb0080487800fe
:100910008e80e80000c0eb00904098008e80e800d8
:1009200000c0eb00a04098008e80e80000c0eb0003
:10093000b04098008e80e80000c0eb00c0409800f6
:100940008e80e80000c0eb00d04098000e82e800e6
:10095000e2578000f35780003058800041588000f3
:1009600000016100818161003058800041588000a1
:100970000080ea008180ea0000007100818071003f
:1009800030029800410298008e80e800f26527004e
:10099000c0b220003c210700004f780000c0eb00ef
:1009a0009e4f100074003200000000001e407800ce
:1009b0008ceab70010002000330507000000e000bb
:1009c000faff3200d0c4b3006e21070010c4b30098
:1009d0006c21070030c4b3006a21070000c2b300d5
:1009e0006821070010c4b3006621070040c6b300a9
:1009f0006421070040c6b3006221070020c7b3008e
:100a00006021070050c6b3005e21070030c7b30065
:100a10005c21070030c7b3005a210700a0c3b30010
:100a20005821070000c2b300562107000040eb0028
:100a3000404f98004e4890000080fb0001b020001d
:100a40000100400010407800ce0c07004d21070047
:100a50004e4890000080fb0001b0200001004000e3
:100a600010407800db0c0700462107004e4890003c
:100a70000040e800404f9800e64f5000030032006d
:100a8000d0c2b3003f210700eaff3700e0c2b30045
:100a90003c21070000c2b3003a210700d0c4b300d4
:100aa0003821070090c7b3003621070000c2b30009
:100ab0003421070090c4b3003221070000c5b30001
:100ac0003021070000c2b3002e21070010c4b3007c
:100ad0002c21070040c6b3002a21070040c6b300fe
:100ae0002821070020c7b3002621070050c6b30005
:100af0002421070030c7b3002221070030c7b3000c
:100b00002021070000c2b3001e21070080c6b300e9
:100b10001c21070010c6b3001a21070030c7b3001c
:100b20001821070000c2b3001621070030c6b30029
:100b30001421070080c6b3001221070010c6b300bd
:100b400010210700e0c6b3000e21070070c6b300f5
:100b50000c21070050c6b3000a21070040c6b300ad
:100b600008210700e0c2b300062107004421070066
:100b70001e407800f82007000080fa000000060000
:100b80002200fa00000f7800110798006400470067
:100b9000c1012000f00707003f050700640047007f
:100ba000b70007006400470011002000908f10007c
:100bb00008003a006400470040409000e64f5000b3
:100bc00004003a006400470050409000e44f500099
:100bd000030032000001eb000217980030003700dc
:100be0006400470030009000e20f500004003a001b
:100bf0009e0090000040eb00804878000e00370017
:100c00006400470030009000e10f500004003a00fb
:100c10009e00900010c0b3008048780006003700a6
:100c20009e00900020c0b300804878008001eb0057
:100c3000031798001a00370064004700400990002d
:100c4000d0099000e0578000f1578000800f5100dc
:100c5000818f590010003a009e0078006400470020
:100c6000680040001001be008288be002000900095
:100c7000a00098009e00780064004700700190007a
:100c800080099000b2009800c30098001300200073
:100c900003179800020037000000eb0000179800cf
:100ca0000e1090000080fa00000006002400fa00f8
:100cb000000f78002147980010002000a6040700cc
:100cc000006798000e609000e14f400003003a007a
:100cd0000000eb0010179800660037008000eb0062
:100ce0000e609000a7060700e400470010002000f7
:100cf00080087800e4004700008020009000980001
:100d0000e400470060c0b300c0409800e400470022
:100d100040c0b300d04098002e409000e14f5000fa
:100d200016003a00e400470010002000b0009800d0
:100d3000e400470000c0eb00a0509800e40047002a
:100d400000c0eb00b0509800e400470000c0eb008a
:100d5000c0509800e400470000c0eb00d05098005d
:100d6000e400470000c0eb00e0509800e4004700ba
:100d700000c0eb00f05098000a003700e400470084
:100d800020002000b000980064004700f2004000fe
:100d90001e0078001001be008288be002000900076
:100da000a0009800640047006800400002588000de
:100db000135880000288be0023588000230098004a
:100dc00064004700e2578000f357800072009800eb
:100dd00003089800640047009e00780070019000ae
:100de0008009900031009000c1009000000169006e
:100df0008181690030588000415880000000610006
:100e000081806100e00f5000e08f58000600320042
:100e100064004700525880006358800042089800e0
:100e20005308980006003700e40047001e007800d1
:100e300030019000c0019000c2089800d3089800cb
:100e4000640047000e000700640047007200400085
:100e5000c201200061c0b3004305070064004700e1
:100e6000c1012000890707007f050700130020004b
:100e7000131798001e1090000080fa000000060072
:100e80000200fa00881f7800000f78001e04780026
:100e90001e00780010007800e10b0700000c7800bd
:100ea0001e0478001e00780010009000dc0b070084
:100eb000100498001e0478001e0078003000900096
:100ec000d70b0700300498004f0478000080fa0028
:100ed000000006000000fa000000eb00205b880024
:100ee00000c0eb0066ebb70000c0eb0067ebb7009b
:100ef00000c0eb0068ebb70000c0eb0069ebb70087
:100f000000c0eb006aebb70000c0eb006bebb70072
:100f10006000b800605b8800715b88000080fa00a8
:100f2000000006000e00fa00205b80000000e000d8
:100f300014003a00ea0047000e00780010ff070096
:100f40000000e0001a0032002e4890000004e0008b
:100f50000a003a001e00be00305b8800415b88003a
:100f6000ae009000515b88003e009000ce009000e3
:100f7000605b8800715b88000d0037001000200066
:100f8000205b88008040eb000e00780047ff0700e0
:100f90000000e000030032000000eb00205b88004e
:100fa000030037008000eb00610798000200370063
:100fb00010002000600798006e0090000080fa008a
:100fc000000006000c00fa00000f78000e80e80018
:100fd0009e0078001101be00320098004300980086
:100fe0000e80e80011c0b30030ff07000080fa0057
:100ff000000006000a00fa00000f780011079800b0
:101000001e017800605b8000715b8000b20f5000b1
:10101000a28f580007003200625b8000735b800083
:101020005058800061588000800f5100818f590016
:101030000b003a001e0090003007980060b62000b8
:1010400040079800be0090004e0090000500090087
:10105000b0587800110020002107980002003700e6
:101060000000eb00200798002e0090000080fa009e
:10107000000006000800fa00000f78001e0fe900cb
:101080000080eb009e0f10001800320040c0b3003b
:10109000204798002e4090000040e900204798002b
:1010a000e14f4000f5ff32002067200001002000e2
:1010b00020079800310798002e009000be00900095
:1010c00061005000e08058000001be002207980037
:1010d000330798000080eb008080eb00800f510008
:1010e000818f5900f4ff3a00eaff37000080fa00d0
:1010f000000006000000fa00c05b8000e80f50000e
:101100000d003200a0b7200080c0eb0090cf10008f
:10111000020032007acbbf008f1f070000c0eb0037
:101120007aebb7000000eb00c05b88000040eb00ea
:101130007cebb7007b0ba9000080fa0000000600e2
:101140001200fa00c05b8000000f98008e0890002b
:10115000e38f5000420032000e089000e30f500071
:1011600007003e008e089000e18f5000140032000e
:101170000e089000e10f50002b003e000d003700dc
:101180008e089000e58f5000640032000e08900039
:10119000e40f50004b0036008e089000e68f5000a0
:1011a0006c0032000e089000e70f50009f003200e4
:1011b000d00037006000b800405a8800515a8800bb
:1011c00000c0eb00004f780000c0eb001047980013
:1011d00000c0eb002047980000c0eb0030479800ab
:1011e00000c0eb004047980000c0eb00504798005b
:1011f0000080eb008080eb003007980041079800ea
:10120000320420008e007800400420001e1f0700da
:101210007aebb700f21e0700e0598800f159880008
:1012200020002000c05b8800ed1e07000001be000a
:10123000e0598000f159800000015100818159007e
:101240003001200001002000800f5100818f5900e3
:10125000a800360030002000c05b8800a5003700e1
:10126000c003200001002000205a8800315a880065
:101270007bcbbf00614060000004e000030032004f
:1012800050002000c05b88009a0037007acbbf0076
:101290008ceab70010002000fb0207000000e0000d
:1012a0009400320010c0b300d0010700cc1e07002c
:1012b000e0598800f159880040002000c05b880098
:1012c0008c003700c61e07000001be00e0598000f8
:1012d000f15980000001510081815900700c2000fb
:1012e00001002000800f5100818f5900020036005c
:1012f00030002000c05b88007acbbf00921f07003f
:101300000000e0007b0032007c000700e24f50004c
:1013100078003a0050002000c05b88007acbbf0004
:101320008ceab70010002000d70207000000e000a0
:101330007000320030c0b300ac010700a81e0700e7
:10134000e0598800f159880060002000c05b8800e7
:10135000680037007acbbf007b1f07000000e00069
:101360002400320065000700204f98002e489000ae
:10137000e64f500002003a005eff07005d003700b4
:101380002e489000e54f50005a003a007acbbf003b
:10139000f11e070000c0eb007aebb700901e0700bb
:1013a000e0598800f159880070002000c05b880077
:1013b000405a8000515a8000e0578800f157880059
:1013c000805a8000915a8000305888004158880027
:1013d000605a8000715a8000505888006158880017
:1013e0007b0ba8007ccbbf000040e8007cebb70083
:1013f000400037007a1e07000001be00e05980005f
:10140000f15980000001510081815900700c2000c9
:1014100001002000800f5100818f590035003600f7
:1014200030002000c05b8800320037006c1e0700cf
:101430000001be00e0598000f15980000000510019
:101440008180590060079800710798006e01900034
:10145000fe0190003006200001002000800f5100a6
:10146000818f590023003600205a8000315a8000b5
:1014700061005000e0805800205a8800315a8800ee
:101480006e019000fe019000c0f92f00f1ff2f00c7
:1014900002004000838048006007980071079800b0
:1014a000205a8000315a8000e00f5000e08f580031
:1014b00002003a0010002000c05b88006e0190001e
:1014c000fe0190003006200001002000800f510036
:1014d000818f5900e4ff3e00411e07006e0190001d
:1014e000fe0190000200500083805800e0598800ff
:1014f000f15988000080fa00000006000e00fa0092
:101500000040eb00304798000e007800221f0700d3
:1015100020c0b3009e4f100017013a000040eb00be
:10152000104798001e409000ee4f500006003e000d
:101530000e007800181f07001e4090000040e800d1
:1015400010479800f7ff37007bcbbf006240600078
:101550000004e0000b0032000040eb001047980050
:101560001e409000e34f50000e003e000e00780039
:10157000091f07001e4090000040e8001047980037
:10158000f7ff370080b42000031f070090b420004d
:10159000011f0700a0b42000ff1e0700b0b4200008
:1015a000fd1e07000040eb00104798001e40900011
:1015b000e74f500006003e000e007800f61e0700c0
:1015c0001e4090000040e80010479800f7ff3700e9
:1015d0000040eb00104798001e409000e54f50007f
:1015e0000d003e000e007800eb1e07001e4090002c
:1015f0000080fb0001b02000010040001e41780087
:10160000904f5100f3003a001e4090000040e80067
:1016100010479800f0ff37000040eb00104798009b
:101620009e409000d0ccb30080cf500006003e001a
:101630000e007800d81e07001e4090000040e80011
:1016400010479800f6ff37000000eb0020079800d5
:101650000e007800d01e07000000e00003003a00f2
:101660001000200020079800c30037009e81fb0077
:101670006307980030032000ee009000808f500038
:1016800084003200300320006e019000800f510072
:1016900007003c00ee019000e18f51002500320070
:1016a0006e009000e30f50003f003200a5003700ad
:1016b00060032000ee009000808f50006100320037
:1016c000600320006e019000800f510005003c0077
:1016d00050032000ee019000808f51000600320080
:1016e00098003700f00f2000ee009000808f50002f
:1016f00065003200930037000e007800a61e070038
:1017000012c0b3009e4f1100b2003a0063004700c0
:10171000a11e07007bcbbf00624060000004e00018
:10172000920032003e409000e24f50008f003a009d
:10173000a80037000e007800971e070043c0b300d2
:101740009ecf1100a3003a007bcbbf006240600037
:101750000004e0000b0032000040eb00104798004e
:101760001e409000e34f500080003e000e007800c5
:10177000891e07001e4090000040e80010479800b6
:10178000f7ff370000b52000831e070010b52000ca
:10179000811e070020b520007f1e070030b5200005
:1017a0007d1e0700710037000e80e8007a1e0700da
:1017b0002e409000e34f5000860036007bcbbf00e8
:1017c000624060000004e0000b0032000040eb00cb
:1017d000104798001e409000e34f50000e003e005e
:1017e0000e0078006c1e07001e4090000040e800cc
:1017f00010479800f7ff3700c0b42000661e0700ae
:10180000d0b42000641e0700e0b42000621e070070
:10181000f0b42000601e07002e409000644050008d
:10182000204798002e4090000040e9002047980093
:10183000e14f40004d0032000e007800561e0700b8
:10184000f8ff37000e007800531e070040c0b300b9
:101850009e4f10005f003a006600470063004000a2
:101860004d1e0700660047000080e8004a1e070082
:10187000660047000000e800471e070066004700ba
:10188000451e07003900370010002000200798008f
:10189000360037000e0078003f1e070041c0b3003d
:1018a0009ecf10004b003a007bcbbf00624060002f
:1018b0000004e0000b0032000040eb0010479800ed
:1018c0001e409000e34f500028003e000e007800bc
:1018d000311e07001e4090000040e80010479800ad
:1018e000f7ff370070b420002b1e070060b4200003
:1018f000291e070050b42000271e070040b4200016
:10190000251e0700225a8000335a80008070200074
:1019100001002000800f5100818f59001300360014
:10192000808f2f00f1ff2f00225a8000335a800051
:101930000201400083814800225a8800335a8800ff
:101940000a0037000e80e800131e07002e409000aa
:101950000040e90020479800e14f400003003200ba
:101960000e0078000c1e0700f8ff37002e009000d4
:101970000000e00036ff32003e409000e24f500091
:1019800006003a003e009000ce009000005a880009
:10199000115a88007b2ba80009003700025a8000ea
:1019a000135a80003e009000ce009000800f51003e
:1019b000818f5900020032000040eb003047980050
:1019c000301e07003e4090000080fb00500798004a
:1019d000030037002b1e07008000eb005107980022
:1019e0005e0090000080fa00000006000200fa008d
:1019f000004f780010c0b300621d070010c0b30094
:101a0000601d070060c0b3005e1d07000040eb00d2
:101a10005c1d070020c1b3005a1d070030c2b3008f
:101a2000581d070040c3b300561d070060c5b30032
:101a3000541d07000040eb00521d07000040eb0062
:101a4000501d070000c8b3004e1d07000040eb000a
:101a50004c1d07000040eb004a1d07000040eb0052
:101a6000481d07000040eb00461d07000040eb004a
:101a7000441d07000040eb00104798001e409000f6
:101a8000eb4f500006003e000040eb003d1d0700fc
:101a90001e4090000040e80010479800f7ff370014
:101aa00000cbbf00371d070001cbbf00351d07006d
:101ab00002cbbf00331d070003cbbf00311d070061
:101ac00004cbbf002f1d070005cbbf002d1d070055
:101ad0000040eb00104798009e40900090ccb3006f
:101ae00080cf500006003e000040eb00251d07009f
:101af0001e4090000040e80010479800f6ff3700b5
:101b000030c6b3001f1d070020c8b3001d1d07000d
:101b100030c5b3001b1d070030c6b300191d0700f8
:101b200050c3b300171d070010c0b300151d0700f8
:101b30001e407800131d070010c0b3009e4f100018
:101b400001003a007b2ba90010c0b3009e4f10008b
:101b500011003200405a8000515a8000e00f5000be
:101b6000e08f58000c00320060c3b300051d070071
:101b700040c0b300031d070043cbbf00011d070099
:101b800042cbbf00ff1c070041cbbf00fd1c07007c
:101b900040cbbf00fb1c070070c3b300f91c07005b
:101ba00020c0b300f71c070010c0b300f51c0700ed
:101bb00030c0b300f31c070030c0b3009e4f1000cc
:101bc0000c003a0020c3b300ee1c070040c0b30075
:101bd000ec1c070048cbbf00ea1c070049cbbf0044
:101be000e81c07004acbbf00e61c07004bcbbf0038
:101bf000e41c070000c0eb00e21c0700201d0700ea
:101c00000080fa00000006000200fa00d5c2a80019
:101c1000d3c2a900dec2a900df02a900dee2a8004b
:101c20000000eb0000128800f00020001012880075
:101c30000000eb00201288004302a80042a2a80086
:101c400041e2a800d0c1b3004b040700004f780068
:101c50001e80fb00680060000000e000f9ff3a0011
:101c60001e80fb000080ea00610060000000e000d0
:101c7000f4ff3a002e04070010002000fdfc0700ce
:101c80000040eb00004f780060c0b3009e4f100092
:101c900014003e009e80fb00600020000008b80099
:101ca000439f2000030140009e80fb008024200011
:101cb0000008b80083002100030940009e80fb005b
:101cc000600020000008b800829f200082004000d1
:101cd000110078000000a000800878001e4fe80086
:101ce000e9ff37000040eb00f2e9b70010002000e8
:101cf000205188000000eb00005188008040eb007c
:101d000080c0b300870407008040eb0090c0b300a0
:101d10008404070071c0b300c0c0b3008104070091
:101d200001c1b300d0c0b3007e04070071c0b3008e
:101d3000a0c0b3007b04070001c1b300b0c0b30072
:101d40007804070081c0b30040c0b30075040700e9
:101d500001c1b30050c0b30072040700002020008e
:101d6000f0040700d1c0b3000040eb006d04070091
:101d700021c3b30020c0b3006a04070001c4b3004c
:101d800030c0b30067040700f1c3b30090c0b300d4
:101d90006404070021c1b30060c0b3006104070000
:101da000c1c0b30070c0b3005e040700e1ceb30051
:101db000a0c0b3005b04070051c0b300b0c0b300c3
:101dc0005804070040302000d604070001b020006e
:101dd0009140780040c0b3005204070011b02000c9
:101de0009140780050c0b3004e04070021b020009d
:101df0009140780020c0b3004a04070031b02000b1
:101e00009140780030c0b3004604070041b0200084
:101e1000914078000040eb004204070051b02000e0
:101e20009140780010c0b3003e04070020c1b30009
:101e3000d103070026eab7000110200000c1b3005b
:101e4000a10407002147200040c1b3009e04070001
:101e50000000eb00bd04070041c0b300f0c1b300b7
:101e6000760407000080fa00000006000000fa0077
:101e700010c0b3000c0407004200de0061006000e7
:101e80000080fa00000006000600fa00000f78004b
:101e90001e00e00009003200f0c1b300b6030700e5
:101ea0000080fb004300de000080fb000000a20079
:101eb0006100600020079800240037001ecabf00a0
:101ec000f249e30009003a00f0c1b300aa03070099
:101ed0000080fb004300de000080fb000000a20049
:101ee00061006000200798001800370010c0b300a0
:101ef000204798002e409000e64f500011003e0011
:101f00002e4090008080fb00600020000008b80098
:101f1000829f200002004000104078006140600075
:101f20000004e000030032001000200020079800a9
:101f3000060037002e4090000040e800204798003f
:101f4000ecff37000001eb00220798002e00900004
:101f50000080fa00000006000800fa00000f780078
:101f60001e00e0000d003200f0c1b3008203070044
:101f7000684060000004e00003003200f00f200021
:101f800030079800020037000001eb00320798008c
:101f90003e009000200798002b00370010c0b300cf
:101fa000204798002e409000e64f500024003e004d
:101fb0002e4090008080fb00600020000008b800e8
:101fc000829f2000020040001040780061406000c5
:101fd0000004e000160032002e4090008080fb00dc
:101fe000600020000008b800829f200082004000ae
:101ff000110078000000a100800878002e409000b9
:102000008080fb00600020000008b800829f200054
:1020100082004000110078000010a10080087800c4
:102020002e4090000080fb0020079800060037003b
:102030002e4090000040e80020479800d9ff37006c
:10204000f00f2000200798002e0090000080fa007a
:10205000000006000200fa00004f780070c0b300d4
:102060009e4f10000a003e009e80fb006000200092
:102070000008b800829f2000820040001100780014
:102080000000a000800878001e407800f2e9b70048
:102090000080fa00000006000200fa00240ae200b4
:1020a00014003a00100020002051880000518000e8
:1020b000000fe900700021009e0f100002003600a2
:1020c00070002100000f780001c4b300e0c1b3002c
:1020d000da030700c0002000120407009e407800c9
:1020e000c0c0b3008f0307009e409000d0c0b30073
:1020f0008c0307000080fa00000006000600fa00ca
:10210000901120000704070090c1b3001a030700d4
:10211000004f7800e000200002040700e0c0b30098
:102120001503070020479800f0c0b3001203070012
:102130003047980090112000fa03070090c1b300c7
:102140000d0307009e4f5000efff3a00c000200033
:10215000f4030700c0c0b30007030700004f780076
:10216000d0c0b30004030700104798001e00900081
:102170009e0f5000060036001e0090009e0050008a
:102180007000210001005000200798000a0037006d
:102190001e0090009e0f500003003a0070002100c6
:1021a00020079800040037001e0090001e00100059
:1021b0000000e900200798002e0090000080fa003f
:1021c000000006001a00fa00881f7800000f78004f
:1021d0001107980090112000d203070090c1b300ae
:1021e000e50207000004e00003003a000000eb00f5
:1021f000400f980058003700240ae20004003a001b
:10220000a5ff07000000eb00400f980052003700c8
:1022100000518000105188000000eb00c10307004e
:1022200001a22000914078000040eb003d03070030
:1022300011a220009140780010c0b30039030700bc
:102240006400470041012000430207006404470086
:102250006400470010089000f1060700100c980079
:10226000e400470070002100910f10001a003e00aa
:102270004e409000614060000004e00016003a000b
:1022800064004700200090004f00de000000e000e6
:1022900011003a0064004700200090004400de0076
:1022a000610060000000e0000b003a00640047009d
:1022b00090009000e05e2000808f500006003e00fd
:1022c00064004700200090004700de0061006000cd
:1022d0000000e00001003a000000fe00640047003a
:1022e000100078000051880064004700ec004000b6
:1022f000620020001e00780081f807009e00900018
:1023000000c0eb0080487800640047003050900027
:10231000e84f50000c003a00640047002050900045
:102320000004e000040032006400470020509000e8
:10233000e64f500004003a009e0090006400470001
:1023400020509000804878000000eb002051880069
:1023500010002000400f98004e0890004f047800b5
:102360000080fa00000006000800fa00000f780064
:1023700021479800220798002000200069030700e9
:10238000f2c9bf008080fb00600020000008b80098
:10239000429f2000020040009040780020c0b3001f
:1023a000e0020700f2c9bf008080fb00600020004f
:1023b0000008b800529f20000200400090407800c2
:1023c00030c0b300d7020700f2c9bf008080fb0015
:1023d000600020000008b800429f200082004000fa
:1023e0002e009000110040006e0040002007980071
:1023f000f2c9bf008080fb00600020000008b80028
:10240000629f200002004000ae00900001087800aa
:102410000040eb00fe010700610020001e00780074
:102420001a0207006100200000b020001702070018
:1024300080c0b300f60107002e4090000004e000c9
:102440000300320062c0b300624798000200370008
:102450000040eb00604798006e409000ec010700e0
:102460000080fa00000006000e00fa004000200084
:102470002c030700f2c9bf008080fb006000200031
:102480000008b800429f2000020040009040780001
:1024900040c0b300a3020700f2c9bf008080fb0068
:1024a000600020000008b800529f20000200400099
:1024b0009040780050c0b3009a020700f2c9bf00f4
:1024c0008080fb00600020000008b800629f2000b0
:1024d000020040009040780060c0b3009102070005
:1024e000f2c9bf008080fb00600020000008b80037
:1024f000729f2000020040009040780070c0b3003e
:1025000088020700f2c9bf001eeab700f2c9bf0087
:102510008080fb00600020000008b800829f20003f
:1025200082004000110078000010a00080087800b0
:10253000c0c1b30010020700624060000004e00068
:102540000600320001c8b300f0c1b300bb020700af
:1025500001c8b300f0c1b30095020700a1c0b300e9
:10256000c0c1b3009202070081c0b300f0c1b30044
:10257000b202070060a2200051c0b30090cf10004b
:1025800060003a00c0c1b300fb0107000080fb00ff
:102590006a0060000000e000faff3200c0c1b30032
:1025a000f5010700624060000004e00055003200c1
:1025b00081c0b300f0c1b3007d0207000000eb0052
:1025c000d80207000040eb00eb010700004f780045
:1025d00010c0b300e80107001047980060c0b300c6
:1025e000e50107002047980070c0b300e201070032
:1025f000304798001e0090000000e8001007980087
:10260000ae4090000040eb0046020700be40900044
:1026100010c0b3004302070064004700810020009f
:102620004d0107000040eb00404f98004e489000dd
:10263000ef4f50002d003e00c0c1b300ce01070097
:10264000624060000004e00028003200640047009f
:10265000100090004d00de00610060000000e0000e
:102660002200320001c8b300f0c1b30073020700ba
:1026700001c8b300f0c1b3004d020700a1c0b30010
:10268000c0c1b3004a02070081c0b300f0c1b3006b
:102690006a020700c0c1b300b70107000080fb0059
:1026a0006a0060000000e000faff320081c0b30061
:1026b000f0c1b3003e020700ae4090000040eb00c6
:1026c00018020700be40900010c0b30015020700ba
:1026d00064004700810020001f0107004e48900061
:1026e0000040e800404f9800d0ff37009e4078003f
:1026f0000040eb000b0207009e40900010c0b300aa
:10270000080207000080fa00000006000400fa003a
:10271000000f7800105180001e004000740040003f
:10272000100798009e00900070002100808f5000dc
:10273000040036001e00900081ff2e0001004000c2
:10274000100798000000eb0076020700ae409000f2
:102750000040eb00f3010700be40900010c0b30042
:10276000f0010700ae40900020c0b300ed0107006b
:10277000be40900030c0b300ea0107000080fa00bc
:10278000000006000400fa00004f780011079800ce
:102790001e407800f2e9b7009e80fb006000200038
:1027a0000008b800429f2000820040001e009000f8
:1027b000110040006f00400010079800200020002a
:1027c00058020700ae4090000040eb00d501070022
:1027d000be40900010c0b300d2010700ae40900090
:1027e00020c0b300cf010700be40900030c0b3004e
:1027f000cc0107000080fa00000006000600fa0085
:10280000000f780011079800105180001e00400052
:102810007400400020079800ae0090007000210076
:10282000808f5000040036002e00900081ff2e00a3
:102830000100400020079800000120003902070035
:10284000ce40900000c1b300b6010700de4090000a
:1028500010c1b300b3010700ae0090001e0090004d
:10286000008040000000e90020079800ae009000c2
:1028700070002100808f5000040036002e00900070
:1028800081ff2e000100400020079800ce409000fc
:1028900020c1b300a3010700de40900030c1b300a7
:1028a000a001070001c3b300f0c1b300e3010700ba
:1028b000f0c1b300300107000042b2000004e000a4
:1028c000fbff3a0060c1b3002b010700504798009e
:1028d00070c1b30028010700404798002e00900007
:1028e0000080fa00000006000600fa00000f7800e1
:1028f00011079800f2c9bf008080fb006000200033
:102900000008b800429f200002004000100078003c
:102910001e0040006f0040002007980000012000ca
:1029200000020700ce40900000c1b3007d01070007
:10293000de40900010c1b3007a010700ae009000a5
:102940001e009000008040000000e9002007980071
:10295000ce40900020c1b30072010700de4090001d
:1029600030c1b3006f01070001c3b300f0c1b30071
:10297000b2010700f0c1b300ff0007000042b2003f
:102980000004e000fbff3a0060c1b300fa0007005a
:102990005047980070c1b300f70007004047980007
:1029a0002e0090000080fa00000006000600fa00e9
:1029b000000f78001e00e00003003a000080eb00ea
:1029c0002007980042003700110020009e8f100061
:1029d00006003a00410007000080fb004800dd00cf
:1029e0000080ea0020079800390037000000eb0063
:1029f000cc0107000040eb00df00070020479800f3
:102a000010c0b300dc00070030479800ae409000d3
:102a100000c1b30043010700be40900010c1b300e5
:102a2000400107009e00900070002100808f500040
:102a30000d003e001e0090001e0040000000e90056
:102a4000100798009e00900070002100808f5000b9
:102a5000090036001e00900081ff2e00010040009a
:102a600010079800040037001e0090001e00400070
:102a70000000e90010079800ae40900020c1b300ac
:102a800028010700be40900030c1b30025010700b7
:102a900001c3b300f0c1b30068010700f0c1b30087
:102aa000b50007000042b2000004e000fbff3a005e
:102ab00060c1b300b00007002047980070c1b300a8
:102ac000ad000700304798001e00900020079800d6
:102ad0002e0090000080fa00000006000200fa00bc
:102ae000d5c2a9008540a900a0032000401288009b
:102af00085c0bf000080fb004200de000080fb00bc
:102b0000610060000000e000f9ff32004012800028
:102b1000004f78008540a9000000eb0040128800bb
:102b200085c0bf000080fb004200de000080fb008b
:102b3000610060000000e000f9ff320040128000f8
:102b4000004f78008540a900d5c2a8001e80fb0078
:102b50000080fa00000006000800fa00000f78006c
:102b600011079800d5c2a9008540a900a003200044
:102b7000401288000000eb00200798001e0fe900bb
:102b800085c0bf000080fb004200de000080fb002b
:102b9000610060000000e000f9ff32004012800098
:102ba000604798008540a900ae0090001e0090008c
:102bb000808f5000120031000000eb0040128800ae
:102bc0002e0090000000e800200798001e0fe8008b
:102bd00085c0bf000080fb004200de000080fb00db
:102be000610060000000e000f9ff32009e00780004
:102bf00040128000804878008540a900eaff370035
:102c0000d5c2a8002e0090000080fa000000060047
:102c10000200fa00004f7800d5c2a9008540a90043
:102c2000a00720004012880085c0bf000080fb0084
:102c30004200de000080fb00610060000000e00058
:102c4000f9ff320040128000104798008540a9002b
:102c50001e80fb004012880085c0bf000080fb0082
:102c60004200de000080fb00610060000000e00028
:102c7000f9ff320040128000104798008540a900fb
:102c8000d5c2a8000080fa00000006000600fa0085
:102c9000000f780011079800d5c2a9008540a9004f
:102ca000a00720004012880085c0bf000080fb0004
:102cb0004200de000080fb00610060000000e000d8
:102cc000f9ff320040128000404798008540a9007b
:102cd0001e0090000000e000120032001e0078008c
:102ce0001080fb00401288001e0fe8001e009000bc
:102cf0000000e9001007980085c0bf000080fb00bd
:102d00004200de000080fb00610060000000e00087
:102d1000f9ff320040128000404798008540a9002a
:102d2000ebff3700d5c2a8000080fa0000000600c3
:102d30000200fa00d5c2a9008540a900f00f2000ca
:102d40004012880085c0bf000080fb004200de000a
:102d50000080fb00610060000000e000f9ff32002d
:102d600040128000004f78008540a900d5c2a8001d
:102d70000080fa00000006000200fa00004f780010
:102d8000d5c2a9008540a9001e80fb004012880022
:102d900085c0bf000080fb004200de000080fb0019
:102da000610060000000e000f9ff32004012800086
:102db000104798008540a9000000eb0040128800f1
:102dc00085c0bf000080fb004200de000080fb00e9
:102dd000610060000000e000f9ff32004012800056
:102de000104798008540a900d5c2a8001e40900059
:102df0000080fa00000006000200fa00004f780090
:102e0000d5c2a9008540a9001e80fb0040128800a1
:102e100085c0bf000080fb004200de000080fb0098
:102e2000610060000000e000f9ff32004012800005
:102e3000104798008540a9000000eb004012880070
:102e400085c0bf000080fb004200de000080fb0068
:102e5000610060000000e000f9ff320040128000d5
:102e6000104798008540a9000000eb004012880040
:102e700085c0bf000080fb004200de000080fb0038
:102e8000610060000000e000f9ff320040128000a5
:102e9000104798008540a900d5c2a8001e409000a8
:102ea0000080fa00000006000400fa00004f7800dd
:102eb000402120009b0007009e40780040c1b300e5
:102ec0001800070011c0b30020c1b30015000700af
:102ed000a030200093000700a0c0b300c6ff070089
:102ee000614060000004e000fbff3a004021200048
:102ef0008c0007008040eb0020c1b30009000700f0
:102f000080c1b300bcff07002047980090c1b30008
:102f1000b9ff0700304798001e0090000080fa00bb
:102f2000000006000400fa00004f780011479800e6
:102f3000d5c2a9008540a90000c4b3001e4070009e
:102f40000080fb004012880085c0bf000080fb00ad
:102f50004200de000080fb00610060000000e00035
:102f6000f9ff320040128000204798008540a900f8
:102f70001e4090000080fb004012880085c0bf000a
:102f80000080fb004200de000080fb00610060006a
:102f90000000e000f9ff3200401280002047980056
:102fa0008540a900d5c2a8000080fa0000000600f4
:102fb0000400fa00004f780011479800d5c2a9001c
:102fc0008540a90000cab3001e4070000080fb00cd
:102fd0004012880085c0bf000080fb004200de0078
:102fe0000080fb00610060000000e000f9ff32009b
:102ff00040128000204798008540a9001e409000a4
:103000000080fb004012880085c0bf000080fb00ec
:103010004200de000080fb00610060000000e00074
:10302000f9ff320040128000204798008540a90037
:10303000d5c2a8000080fa00000006000400fa00d3
:10304000004f780011479800d5c2a9008540a9001b
:1030500000c8b3001e4070000080fb0040128800d2
:1030600085c0bf000080fb004200de000080fb0046
:10307000610060000000e000f9ff320040128000b3
:10308000204798008540a9001e4090000080fb006a
:103090004012880085c0bf000080fb004200de00b7
:1030a0000080fb00610060000000e000f9ff3200da
:1030b00040128000204798008540a900d5c2a80092
:1030c0000080fa00000006000400fa00004f7800bb
:1030d0001107980040212000120007009e40780050
:1030e00040c1b3008fff0700ae40900060c1b30045
:1030f0008cff0700be40900070c1b30089ff07003d
:10310000a030200007000700a0c0b3003aff07006e
:10311000614060000004e000fbff3a000080fa001c
:10312000000006000200fa00000f780031c0b30072
:10313000f0c1b3009eff07009e409000f0c1b300b5
:10314000beff07000080fa00000006000800fa0039
:10315000000f7800c1c0b300f0c1b30094ff0700b6
:103160000040eb0050ff07002007980020002000df
:103170009e0f100004003a002e0090004800de0070
:10318000610f60000b0037002e0090001e017800d8
:10319000e10061004809dd00f1ef2f00010060004f
:1031a0000200700020079800ae0090000040eb0085
:1031b000c5ff070020202000daff070020c0b30071
:1031c0000dff0700204798002e4090009e40780099
:1031d00061c16000e1cfb3000140600002407000b7
:1031e00020479800ae40900020c0b3004dff07007c
:1031f0001e00e0000300320052c1b3006247980095
:103200000200370020c1b30060479800ee409000f4
:1032100040c0b30043ff070041c0b300f0c1b3009a
:1032200086ff07000080fa00000006000000fa0098
:1032300041c0b300f0c1b3005dff0700d0c1b300cf
:10324000cdfe0700644060000004e000fbff3a0090
:1032500000000000f0c1b300c7fe07006840600036
:103260000004e000fbff3a0001c2b300e0c1b3007c
:1032700072ff07000080fa00000006000000fa005c
:1032800001c2b300e0c1b30049ff0700d0c1b300e1
:10329000b9fe0700614060000004e000fbff32005f
:1032a00041c0b300f0c1b30064ff07000080fa0022
:1032b000000006000200fa00004f780050312000a4
:1032c00098ff07009e40780050c1b30015ff07002b
:1032d0000080fa00000006000000fa0050312000d3
:1032e00090ff070050c1b300a3fe07000080fb0061
:1032f0000080fa00000006000000fa0050012000e3
:10330000790f070059e9b7000000eb00f04a880088
:103310000040eb0091e9b7000040eb0058e9b7002e
:1033200040012000e04a88000080fa00000006000a
:103330000c00fa0059c9bf00191007000000e00096
:103340000d003a000040eb0091e9b700700020004a
:10335000104b88000000eb00f04a88000040eb00b2
:1033600058e9b7000000eb00004b88001000200077
:10337000400798009900370059c9bf007e11070027
:103380000000e0002a00320095160700104d88006a
:10339000214d88008e00780059c9bf0040110700f8
:1033a0000000e000100032001299200092407800e6
:1033b000014078000080fb000397200003004000dc
:1033c0001e4878008140e8000149780010992000eb
:1033d000f1c1b30090cf1000eeff3a000040eb00c7
:1033e00091e9b700ebff370059c9bf00ea100700a9
:1033f000a2c0b3009e4f110028003a0091c9bf003f
:103400000080fb0003972000830040000040eb0099
:10341000804878000040eb0091e9b7008501070083
:10342000904c800066010700104b88001b0037009d
:103430005e09e200190032006916070010079800c3
:10344000210798001e019000ae019000104d8000f1
:10345000214d800000005100818059001007980024
:10346000210798001e019000ae019000f064240036
:1034700001002000800f5100818f590007003600a5
:1034800057160700104d8800214d880020002000ad
:10349000104b880010002000f04a8800f04a80009d
:1034a00050079800de009000e18f50002c003200a1
:1034b0005e0190000200e00004003200de01900096
:1034c000e48f510006003200420037000000eb009c
:1034d000204b880042160700104d8800214d8800bf
:1034e00059c9bf00441007000000e00003003a0083
:1034f000100020004007980038003700204b800063
:103500000000d00041ac2000010040001000780015
:1035100030079800660147001200780080007800ac
:1035200091407800014f78000000e8000009780021
:103530000104e000040032009e40780059c9bf0039
:1035400052100700f3ff370059c9bf00e00f070012
:10355000b0002000204b880010002000f04a8800b6
:10356000104b8000e70f50001a003200104b800013
:103570001d0007000000e00010003200204b80001a
:10358000eb0f50000300320040002000f04a88009a
:1035900005003700104b8000e20f500002003a0097
:1035a0000000eb00f04a880070002000104b8800fb
:1035b0000000eb00004b880006003700204b800025
:1035c000eb0f50000300320040002000f04a88005a
:1035d000c3ff370012002000420798004e00900001
:1035e0000080fa00000006000600fa00000f7800d4
:1035f0001e00780020079800ae009000e28f500077
:10360000300032002e009000e20f500007003e0014
:10361000ae0090000100e0000e0032002e0090008d
:10362000e10f50001400320042003700ae0090005d
:10363000e48f5000260032002e009000e30f50006f
:1036400030003600ae009000e58f500030003200b0
:10365000380037005809a8005829a9001000200098
:10366000204b8800a2002000a14c80006096200022
:10367000aaf307003100370058c9bf00614060005d
:103680000004e00003003a0060002000204b8800a6
:103690002a003700a14c80006096200067090700cf
:1036a0000000e000040032005829a800200020009b
:1036b000204b88002100370060002000204b88004c
:1036c0001e00370022000700100798001d00370079
:1036d000a20020008000eb00e04c80009ff3070078
:1036e0005de9b700a20020008000eb00f04c8000f4
:1036f0009af307005ce9b700a0002000204b880087
:103700000e00370043000700100798000d00370037
:10371000a0002000204b8800a0952000e1cfb3003e
:1037200090cf1000050032005ac9bf002d0f0700ce
:103730000200370050002000204b880010002000bd
:10374000100798001e0090000080fa00000006009c
:103750000200fa00004b8000000f78009e00780005
:10376000e18f5000150032001e0078000000e000dc
:10377000040032009e007800e38f500018003200f1
:1037800021003700004b8000e20f500001003a009a
:10379000b50b0700a0952000e1cfb30090cf10003b
:1037a0000a003200b00b07005ac9bf000d0f070016
:1037b00010002000004b8800130037005ac9bf00da
:1037c000f70e07000000e0000f003a003000200074
:1037d000204b880030002000004b88000a00370092
:1037e00059c9bf00840f07000000e0000600320046
:1037f00059c9bf00ea0e07000000e00002003200d5
:1038000059c9bf00f70e07000000eb000080fa0066
:10381000000006000600fa00004b80002007980018
:10382000ae009000e18f5000270032002e01900082
:103830000200e000040032002e009000e20f500071
:103840002c0032005900370058c9bf0062406000a8
:103850000004e00005003a0060002000204b8800d2
:10386000110020001107980052003700700020005e
:10387000204b880059c9bf008080fb00c002200097
:103880000008b8002285200002004000e14a8000c4
:10389000500e07005ae9b700a0952000e1cfb30011
:1038a00090cf10000300320010002000004b880071
:1038b0003e00370090002000204b880012002000be
:1038c000120798003b0037005ac9bf00b40e07002a
:1038d0000000e00035003200714be20033003a0096
:1038e000980b0700304d880020002000004b880016
:1038f0002e0037005ac9bf001f1007000000e0006b
:103900001b00320036150700104d8800214d88003d
:10391000304d8000900b07008e0078005ac9bf0020
:10392000df0f07000000e000030032001e407800b7
:103930009e0b0700f8ff3700b70b0700304d8800db
:103940005ac9bf00940f070059c9bf002a0f0700ca
:103950000000e0001500320031c2b30059c9bf00b9
:103960004a0f070059c9bf00d90e07000f003700e2
:103970005ac9bf008a0e07000000e0000b003a00a1
:10398000a50b0700380b07005ac9bf00950e0700aa
:10399000e0cfb3005ae9b70090002000204b880028
:1039a0001000200010079800020037008000eb0094
:1039b000110798001e0090000080fa000000060029
:1039c0000600fa00000f78000000eb0010079800d6
:1039d0001e009000e50f500011003e001e009000f8
:1039e0000000d00081ab2000010040004200200018
:1039f000900078001e0078006bf307000000e000e4
:103a000003003a001e0090002007980006003700cf
:103a10001e0090000000e80010079800ecff37003f
:103a200060002000200798002e0090000080fa001f
:103a3000000006000800fa000000eb0020079800d4
:103a400000972000000f78009e00780000c2b300ad
:103a5000914f100002003a001e0fe800faff3700f5
:103a60001e007800904c880010c0b300a0e9b70099
:103a70001e00780010407800204798000004e00005
:103a800033003200ae019000330798003e009000f2
:103a90000000e00004003200be019000e18f510000
:103aa0001900320028003700ae40900000c2b30079
:103ab00080cf500004003200ae409000c0c2b3007e
:103ac00080cf500006003a001e0078008040eb00d6
:103ad0000148780010002000200798001a003700e5
:103ae0002e409000ed4f5000030032002e40900019
:103af000ea4f500014003a009e0078000040eb00ae
:103b00008048780010003700ae40900000c2b3003b
:103b100080cf50000c003200029a200092407800c2
:103b2000014078000080fb000000d00023992000b5
:103b3000030040001e0878008140e8000149780039
:103b40000000eb00200798001e0fe800c8ff3700b8
:103b50000080fa00000006000600fa00000f78005e
:103b6000214798000040eb00404798002e4090000d
:103b70000040e90020479800e14f40001600320065
:103b80009e0078000040eb0080487800fd1607009a
:103b90000004e000fdff32000e17070030479800d8
:103ba0003e409000ed4f50000b0032003e40900030
:103bb000ea4f5000080032004e4090000040e800fc
:103bc000404798001e007800be40900001487800f1
:103bd0001e0fe800e5ff37004e4090000080fb001c
:103be0000080fa00000006000c00fa00000f7800c8
:103bf000110798000000eb00500798001e00e0003d
:103c0000290032000040eb0040479800007122007c
:103c1000400798004e409000e44f500029003e00bd
:103c20001e0078004e019000110009000280d800ab
:103c3000300798003e0090000000e00003003a00ca
:103c40005e0090000000e0000e0032008e81e8006f
:103c5000130178006e4090000043b00082007800ad
:103c6000804878000201e80082097800be009000d8
:103c70004e0090000008b8001e0f10001000200039
:103c8000500798004e009000a2002000110009008b
:103c90000280d800400798004e4090000040e800a5
:103ca00040479800dbff37008e81e8001300780062
:103cb0000001780001c3b300014978000000e8006a
:103cc000800978009e0090000040eb00804878005a
:103cd0000080fa00000006000200fa00000f7800e1
:103ce0009e40900060c4b30080cf500004003600b6
:103cf0001e40900001ceb3000140400010479800e4
:103d000060c4b3009e4f10000200360000ceb30026
:103d10001e4f40009e40900090c3b30080cf5000e3
:103d2000050036001e40900091ccb30001404000d9
:103d300010479800040037001e40900001cdb300ea
:103d4000014040001047980090c3b3009e4f100000
:103d50000300360090ccb3001e4f40000200370035
:103d600000cdb3001e4f40001e4090000080fb00bd
:103d70004400dd001e4070000080fb000080fa005f
:103d8000000006000400fa00004f78001e80fb00cf
:103d90004400de00004f780090c0b3009e4f10003a
:103da0000500360071c3b3001ec040000080fb0058
:103db000100798000400370001c3b3001ec0400084
:103dc0000080fb00100798001e0090000080fa00a1
:103dd000000006000400fa00004f78001e40780042
:103de0006f4f600091c0b3009ecf100005003600f9
:103df00071c3b3001ec040000080fb001007980094
:103e00000400370001c3b3001ec040000080fb0067
:103e1000100798001e0090000080fa0000000600c5
:103e20000600fa00000f78001e00780010079800c6
:103e30003e409000404798002e4090003047980048
:103e40004e409000204798001e0090000080fa002d
:103e5000000006000c00fa00008fbe001e00be002d
:103e60003007980041079800660047005007980007
:103e70005e0090003040900040479800de009000c7
:103e80005e00900010407800b04098005e00900006
:103e9000ce409000014878005e00900020409000e5
:103ea00040479800de0090005e00900010409000b7
:103eb000a04098005e009000ce4090001140980015
:103ec0003e009000ce0090000080fa000000060046
:103ed0001000fa00000f7800110798006000b80089
:103ee00060079800710798001e0090000000d10044
:103ef000200798001e007800300798002e009000e0
:103f00000000e90020079800e10f40000e00320099
:103f1000e6024700150278000400780010007800df
:103f20006101b8006e009000fe00900000004100aa
:103f30008180490060079800710798000482e800ba
:103f4000840a7800edff37001e00900061006000d9
:103f50000000e0000a0032003e00900010407800af
:103f60000081fb00030020006e009000fe00900026
:103f700000004100818049006007980071079800a7
:103f80006e009000fe0090004007980051079800d6
:103f90005e009000200798000000e0000f00320053
:103fa0000000eb00700798006e0090006101b800ff
:103fb0002e00900001002000020040008380480095
:103fc00060079800710798006e009000fe00900056
:103fd0004007980051079800edff37006e009000f1
:103fe0000080ea000080fa00000006000600fa00e7
:103ff000000f78001e007800200798002e00900027
:1040000010407800204798000004e00010003200c3
:10401000ae40900000c6b30080cf500008003400ce
:10402000ae409000a0c7b30080cf500004003c0019
:104030002e019000ae00900000ceb3001149400068
:104040002e0090000000e80020079800ebff3700ea
:104050001e0078000080fa00000006000200fa004e
:10406000881f78000040eb00004f780020c0b300ac
:104070009e4f100011003e009e80fb00e0002000db
:104080000008b800e2a8200002044000000520005b
:10409000150c0700004c78009e80fb00e00020001b
:1040a0000008b80022a92000820040000000eb00b8
:1040b000800878001e4fe800ecff37004f047800be
:1040c0000080fa00000006000200fa000040eb0049
:1040d000004f780020c0b3009e4f100004003e0047
:1040e0001e407800040007001e4fe800f9ff37006b
:1040f0000080fa00000006008c00fa00881f78009b
:10410000004f78009e80fb00e00020000008b8000f
:10411000e2a8200000004100308798000000eb007a
:10412000603798003e809000104078009c0c07009b
:104130000000e00004003a00be8090000000eb00a8
:10414000a00098001d0137003e80900020009000e4
:10415000508798005e809000e20f5000700032009f
:10416000de809000e28f500007003e005e819000ec
:104170000200e0000b0032005e809000e10f500072
:10418000ea0032000a013700de809000e98f50001b
:10419000f70032005e819000eb0f51008300320087
:1041a000030137003e80900010407800f20d0700b8
:1041b0000000e000fe003200100020006037980090
:1041c0000000eb0050379800de30900030062000f1
:1041d000808f50000d003e008e81e800a206200076
:1041e0000e014100120078008000780081804100bb
:1041f0000000e800000978003e8090001040780040
:10420000a70d07000000e000efff3a008e80e800f5
:104210005e309000808040000040eb0080487800d5
:104220003e809000104078005b0d0700be8090003b
:1042300020002000a0009800b0c0b30040479900c3
:104240003e8090006c004000420820000e014100ba
:10425000e10620008e8040000e82e8008001780098
:10426000040078006e010700403798004e3090003f
:104270000000e000ce003a004e409100e14f5000b7
:1042800007003600e00620000e004000ce409100fe
:1042900097040700be80900030c0b300c04898006b
:1042a0003e849000e00620000e00400010007800e0
:1042b00087080700100498003e80900010009000ce
:1042c000e10f400007003a00be8090000040eb0084
:1042d000b0489800be80900020002000a000980008
:1042e000b30037003e809000100090000000e00016
:1042f00007003a00be80900010c0b300b04898009c
:10430000be80900020002000a0009800a800370088
:10431000be809000b0002000a0009800a4003700ec
:104320003e80900010407800b30c07000000e000d1
:104330009f0032003e809000304890000080fb00db
:104340000000d000e1b7200001004000100078001c
:1043500040879800820820000e014100120078007a
:104360008000780091407800514799000000e800f3
:10437000000978000104e000050032003e80900052
:10438000de40910010407800c00c0700f1ff3700bc
:104390003e809000104078004d0c0700be809000d9
:1043a00090002000a0009800810037003e8090001f
:1043b00010407800900c07000000e0007c00320004
:1043c00010002000603798003e8090004048900028
:1043d000e34f500014003a003e80900011c0b3003b
:1043e000214898000040eb0050479900de409100c2
:1043f00030c8b30080cf50001e003e0081072d0062
:104400005e4091000080fb003e819000e0c078009b
:10441000124078009d0c07005e4091000040e800cb
:1044200050479900f1ff37003e8090008040eb003c
:10443000214898000040eb00504799005e409100f1
:10444000fe4f50000b003e0081052d005e409100a4
:104450000080fb003e819000e0c0780012407800b0
:104460008a0c07005e4091000040e8005047990028
:10447000f2ff37003e809000404890008080fb00b3
:10448000400120000008b800a2f62c000000410006
:1044900040879800820820000e0141001200780039
:1044a0008000780091407800514799000000e800b2
:1044b000000978000104e000050032003e80900011
:1044c000de40910010407800700c0700f1ff3700cb
:1044d0000040eb00504799005e409100e34f5000d0
:1044e0000b003e00d10f2d005e4091000080fb00cc
:1044f0003e819000e0c0780012407800630c070015
:104500005e4091000040e80050479900f2ff3700fc
:10451000be80900030c0b300e0409800be809000a4
:1045200010002000a0009800210037003e8090007d
:1045300010407800100d07000000e000030032007a
:104540003e80900010407800930c07003e80900061
:104550001d0007000000e0001500320042080700bf
:10456000be80900090002000a0009800100037004e
:104570003e80900010407800890b07000000e000aa
:104580000b0032003e809000104078001a0c0700ab
:104590000000e000060032003e80900010407800ed
:1045a000900b0700be809000a0002000a0009800a3
:1045b0006e3090000000e000d8fe3a004f04780012
:1045c0000080fa00000006000c00fa00881f780046
:1045d000000f78001e007800100090002d080700e2
:1045e0001e007800204890000004e0006d003200ba
:1045f0001e00780010407800ff0b07000000e0006c
:104600007e0032000000eb00100798001e007800ca
:1046100060409000e84f50000c0032002d08070069
:1046200040479800905b8000e10f400007003a008f
:104630003f0807001e00780010407800a40b070018
:104640001000200040079800710037001e0078001d
:10465000604090000080fb00500798005e009000d2
:10466000e50f5000190032005e009000e50f500089
:1046700004003c005e009000e30f50000800320090
:10468000400037005e009000e60f50001f0032002f
:104690005e009000e80f500029003200390037001a
:1046a000ce40900050c2b30080cf500004003a00ca
:1046b0009e00780050c0b300e04098003100370001
:1046c00010002000100798002e003700ce40900008
:1046d00050c2b30080cf500006003a001000200006
:1046e000100798009e00780030c0b300e0409800aa
:1046f000240037004e409000704798009e007800dc
:1047000060c0b300e04098001e0037004e409000ab
:10471000604798001e0478003e0090006efd070080
:10472000304c98009e00780080c0b300e0409800b4
:104730009e0078000000eb00c000980011003700d8
:104740001e047800640147001e0078009e01780076
:10475000c000900033489000d20307004004980046
:1047600010002000100798001e0078004000900004
:10477000e10f400003003a009e00780030c0b30013
:10478000e04098001e0090000000e00098ff32001a
:104790001e007800ce40900010407800bb0b070050
:1047a00093ff37001e00780010407800920b07003e
:1047b0000000e00011003200c607070040479800e3
:1047c000905b8000e10f400007003a00d807070027
:1047d0001e007800104078003d0b070010002000fc
:1047e000400798000a0037001e007800ce40900075
:1047f00010407800a50b0700eaff37001e04780080
:10480000cb070700100498000000eb004007980059
:104810004e0090004f0478000080fa00000006006f
:104820001600fa00000f7800110798002207980080
:10483000330798000040eb00104f98000000eb0099
:10484000600798000040eb00004f98003200200005
:1048500021102d001e007800d3ef07000000e000bb
:104860000300320020002000100f9800ce00370017
:104870009e007800648f40000000eb005007980015
:10488000000000009e00780000c2b300914f1000ad
:1048900002003a001e0fe800faff37001e00780001
:1048a00010407800604f9800ee48900000c2b300be
:1048b00080cf5000800032006e4890000004e0007d
:1048c0007d0032006e489000ed4f50007a003200bb
:1048d0006e489000ea4f500077003200ae00900022
:1048e0000e489000914f5000730031001e48900018
:1048f0000080fb00200f98002e089000e10f500070
:104900001f003200ae089000e18f500004003c0010
:104910002e0890000000e000050032006100370022
:10492000ae089000e28f5000210032005d00370099
:104930000e4890000080fb008000d0001e00900018
:10494000008040001e0878001e00780010407800ab
:10495000604f9800ee489000f0c2b30080cf500046
:1049600004003200ee489000c0c5b30080cf500074
:104970004c003a0010c0b300104f980049003700b7
:10498000e801470013417800024078000080fb00f6
:104990008000d0001e009000008040001e087800bb
:1049a0000241e8008249780020c0b300104f98000f
:1049b0001e00780010407800604f9800ee4890008c
:1049c000f0c3b30080cf500004003200ee489000e6
:1049d00060c2b30080cf500006003a001e0078008d
:1049e0008040eb000148780010c0b300104f9800e1
:1049f0002c003700ee489000b0c2b30080cf5000ca
:104a000004003a009e00780000c2b300804878009d
:104a100024003700ee489000e0c2b30080cf500081
:104a200007003a000e489000e14f500004003a00a1
:104a30001e0fe8001e00780060079800190037007c
:104a4000ee489000d0c3b30080cf500006003a007b
:104a50001e0078008040eb000148780010c0b300d1
:104a6000104f98000f003700ee489000f0c2b300de
:104a700080cf500004003200ee489000c0c5b30063
:104a800080cf500007003a000e4890000080fb00e5
:104a90008000d0001e009000008040000080e900ef
:104aa0001e08e8001e0fe8001e0078001040780085
:104ab000604f98007cff37009e0078000040eb00bc
:104ac00080487800be00900070c0b3008048780035
:104ad0006e0090000000e0001b0032006e009000ad
:104ae00042fd070060079800a0f42c00000f98001a
:104af0000040eb00604f98006e489000e74f500078
:104b000011003e00320020008e0890006e009000e0
:104b100025ef07000000e00004003a003e0090008e
:104b2000ee48900001487800070037000e0890001a
:104b300064004000000f98006e4890000040e800bc
:104b4000604f9800ecff37000e4890000004e00032
:104b500010003a001e0090009200200061102d000d
:104b60001000780066ee07001e009000100078002c
:104b7000e90040000040eb0080487800be00900053
:104b800010c0b300804878000e4890000040e80054
:104b9000004f98002e0090008e4890000148780049
:104ba0005e009000100f98001e0890000080fa0030
:104bb000000006003800fa00000f78001107980086
:104bc0002207980033079800440798006a004700be
:104bd00081002000e0f707000000eb00201f980094
:104be0002e0090009080fb004001200003f707009a
:104bf000101f9800ae0090002e009000104078002a
:104c0000e84850002e0090009080fb001e009000ad
:104c1000d1f707006a0047005c0007009e0078009b
:104c20006a0047001080fb0080087800be009000fa
:104c30006a0047002000900080087800ce009000b5
:104c40006a00470030009000800878000000eb0008
:104c5000301f98009e1890002e189000808f5000f2
:104c600002003a0010002000301f98003e1890000b
:104c70000080fa00000006003800fa00881f780063
:104c8000000f7800110798002207980063479800ea
:104c9000440798005507980010002000aef4070064
:104ca000607798006e709000e14f40003400320051
:104cb000410120006e709000b2f607006e40900037
:104cc0000080fb0068004000201f9800ec004700b7
:104cd0000040eb00904098006c004700ae40900010
:104ce00001487800ec0047000000eb0090009800bd
:104cf0006c004700ce009000210098006c00470037
:104d0000de009000310098006e4090000081fb00b2
:104d10006c00470068004000ae009000f8ed07000e
:104d20006c004700190007006e4090000080fb00f7
:104d30006801400011c0b3001e0078006b0007003e
:104d40006c004700ae189000d0f707006c044700d5
:104d5000ae18900040012000e3f607001004980010
:104d6000610120006e70900086f607006c0047001d
:104d70000080e80021002000c4f70700baf5070012
:104d80004f0478000080fa00000006000200fa00dc
:104d9000881f7800000f78001e0478001e0078003d
:104da000200090001efc0700200498001e047800dc
:104db0001e0078003000900019fc070030049800b5
:104dc0001e0478001e0078001000900014fc0700fc
:104dd000100498004f0478000080fa0000000600dc
:104de0002000fa00000f78001107980022079800b1
:104df000330798006a0047004101200056f707007a
:104e00006a0047009080fb00000f20008080600057
:104e100000042000808f5000030032000000eb00ef
:104e2000700f98002e0037006a004700104078008d
:104e30006f4060004200dd0084ebb70084cbbf0010
:104e40008080fb000000eb006cf607004007980034
:104e500084cbbf000080fb002cf607004e009000c2
:104e60000000e000030032000001eb00720f980028
:104e70001b0037006a0047006e0007001e00e000bc
:104e8000050032009e0078006a004700000990008b
:104e9000900990008288be009e0090006a00470042
:104ea00060019000f0019000b2009800c3009800eb
:104eb000ae0090006a0047001048900080487800db
:104ec000be0190006a01470084cbbf008080fb00d8
:104ed000120090008109500013002000730f980009
:104ee0007e0890000080fa00000006001a00fa0018
:104ef000881f7800000f780021479800220798004b
:104f000040c1b30084ebb700e600470050c4b300d3
:104f100080487800e60047000040eb009040980091
:104f2000e60047002e0090007400400090009800ba
:104f3000e6004700105c80000000e800105c88007c
:104f4000a0009800e60047000000eb00b0009800c9
:104f5000e600470040c6b30080489800660047005e
:104f6000ae40900011489800e60047000000eb00ba
:104f7000d000980066004700e2578000f357800099
:104f80006200980073009800e60047001e00780059
:104f900030019000c00190008208980093089800aa
:104fa00066004700230007002e00900074014000b7
:104fb0008040eb001e007800ebf40700660047001d
:104fc0004101200031f7070066044700410120003d
:104fd0000000eb0044f6070050049800a1002000f8
:104fe000f2c9bf00e7f50700660047006a0040000d
:104ff0002100200025f7070041012000f2c9bf0071
:10500000e0f507000000eb004f0478000080fa0094
:10501000000006000200fa00000f780084cbbf00f9
:105020000080fb001e004000b8f507000080fa0079
:10503000000006000200fa00881f7800000f7800c8
:105040001e0478001e0078001000900074fb07001a
:10505000100498001e0478001e00780020009000c4
:105060006ffb0700200498001e0478001e007800e3
:10507000500090006afb0700500498004f0478002d
:105080000080fa00000006000000fa000080fa002c
:10509000000006000000fa00ff0207000a120700e5
:1050a00040062000f3ef070041122d00a0ad2000c4
:1050b000cced07006a1207003a0f0700fa04070058
:1050c00020030700d5c2bf000080fb004500de00c2
:1050d0000080fb00610060000000e00001003a0079
:1050e0004004070017070700dcfb070082f80700f1
:1050f000a0588000610060000000e00004003a0059
:1051000010c0b3001aebb70080002000c05b88001d
:1051100000000000320f07000001be00e0588000d0
:10512000f1588000000151008181590010032000d6
:1051300001002000800f5100818f59000e003600c1
:10514000270f0700e0588800f1588800c2c2bf004e
:105150000080fb00610060000000a200614160006f
:10516000212c200091407800e0cfb30000c0600007
:1051700002407000c2e2b700fc060700d2fb070045
:105180006bf80700d40007001acbbf007c4be3008c
:10519000e0ff32007ccbbf001aebb70000112d00fe
:1051a00012110700c0af20000400070010122d00ec
:1051b0000e110700d2ed0700d6ff37000a00fa00f3
:1051c000881f7800000f780000c1b300104f9800ce
:1051d0008e80e8001e0078001080fb0082fa070035
:1051e0000e80e800011107000040eb00004f98001e
:1051f0000e4890000084fb000e80e8007eed070062
:10520000800f54001100310069024700944078007b
:10521000014078000080fb00a2ad20008201400028
:105220000e81e8000e4890000080fb000200400064
:10523000904978008140e800014a78000e489000cb
:105240000040e800004f9800e9ff3700e9014700ff
:1052500093407800014078000080fb00a4ad20005e
:1052600004014000e0c2b300004978008140e8003a
:10527000814978004a1107000004e000fdff3a0070
:10528000e0022000651107008e80e8001e00780013
:10529000104090000080fb0053fa07000e80e800e9
:1052a000d21007000040eb00004f98000e4890001d
:1052b0000084fb000e80e8004fed0700800f5400d3
:1052c00011003100690247009440780001407800e5
:1052d0000080fb00a2ad2000820140000e81e800aa
:1052e0000e4890000080fb000200400090497800ca
:1052f0008140e800014a78000e4890000040e80034
:10530000004f9800e9ff3700e9014700934078001b
:10531000014078000080fb00a4ad200004014000a3
:10532000e0c2b300004978008140e800814978007c
:105330001b1107000004e000fdff3a00e00220001e
:10534000361107008e80e8001e0078002040900093
:105350000080fb0024fa07000e80e800a31007007d
:105360000040eb00004f98000e4890000084fb00c6
:105370000e80e80020ed0700800f5400110031007e
:105380006902470094407800014078000080fb00eb
:10539000a2ad2000820140000e81e8000e4890007e
:1053a0000080fb0002004000904978008140e80046
:1053b000014a78000e4890000040e800004f980035
:1053c000e9ff3700e9014700934078000140780089
:1053d0000080fb00a4ad200004014000e0c2b30047
:1053e000004978008140e80081497800ec1007000e
:1053f0000004e000fdff3a00e00220000711070072
:105400008e80e8001e007800304090000080fb0095
:10541000f5f907000e80e800741007000040eb006b
:10542000004f98000e4890000084fb000e80e800ba
:10543000f1ec0700800f54001100310069024700b1
:1054400094407800014078000080fb00a2ad20006d
:10545000820140000e81e8000e4890000080fb00b1
:1054600002004000904978008140e800014a78003d
:105470000e4890000040e800004f9800e9ff370018
:10548000000000001e489000ff4f50000b003e003f
:10549000e901470093407800014078000080fb005c
:1054a000a4ad20000401400000c2b3000049780010
:1054b0008140e80081497800f2ff37006811070059
:1054c000b71007000004e000fdff3a004f04780029
:1054d0000080fa00000006000000fa0041b320003e
:1054e00000188000c0f907000080fa0000000600e4
:1054f0000a00fa00000f7800214798001e0078008b
:105500009000780000cdb300114040003047980073
:105510003e4090000080fb00400798004e00900045
:105520000000e00004003200ce009000e18f500047
:1055300033003200540037001e80e80090007800ed
:1055400000cdb30011404000404798004e4090000d
:105550000080fb00300798003e0090000000e00053
:1055600004003200be009000e18f500010003200b5
:105570001d003700c2c2bf000080fb000000d10048
:105580000080fb00610060000000a200614060003c
:105590000041d000212c200091407800d0cfb300f2
:1055a00000c0600002407000c2e2b7000e00370089
:1055b000c2c2bf000080fb004200de000080fb0092
:1055c000610060000000a200614060004201dd0057
:1055d000212c200091407800b0cfb30000c06000c3
:1055e00002407000c2e2b7001e007800a200200056
:1055f00051142d0010007800c1eb07002700370080
:105600002e409000e24f5000180036009e007800b7
:10561000648040001000780077ec0700ff0f500016
:105620000a003e000202200001022000a0ad20007e
:1056300078ec07009e0078006480400090007800bd
:10564000a0ad200067ec0700060037009e00780040
:10565000648040000202200090007800a0ad20008d
:10566000a7eb0700fe1007000100370087110700b5
:105670001e007800a200200051142d0010007800b8
:105680009feb0700050037001e007800a2002000f5
:1056900051142d001000780099eb07000080fa00eb
:1056a000000006003c00fa00004f78001107980047
:1056b000220798001e4078000081fb0003002000b4
:1056c000421f9800531f9800700120000100200025
:1056d0004e199000de199000800f5100818f590003
:1056e00051013e004e189000de189000006001004d
:1056f0001700370026003700a20037004a013700a4
:10570000bd00370048013700470137004601370028
:10571000450137004401370043013700420137009b
:1057200041013700c6003700d6003700e6003700d9
:10573000290037003a0037004b0037005c00370083
:105740006d0037007e003700f1003700130137008d
:10575000ae00900041079800c2c2bf000080fb006d
:10576000610060000000e0000300320012c3b300db
:10577000224f98000200370003c3b300234f980064
:10578000ae4890004e009000014878002601370096
:105790002e01900062079800c2c2bf000080fb008b
:1057a0000000d1000080fb00610060000000e0000c
:1057b0000300320013c3b300634f980002003700a8
:1057c00000c3b300604f98006e499000ee00900057
:1057d0008248780014013700ae019000030f980052
:1057e000c2c2bf000080fb004200de000080fb0060
:1057f000610060000000e0000300320010c3b3004d
:10580000205798000200370001c3b30021579800c9
:10581000ae5190000e099000034978000201370054
:105820002e009000200f9800c2c2bf000080fb0035
:105830004300de000080fb00610060000000e0002b
:105840000300320011c3b300615798000200370013
:1058500002c3b300625798006e509000ae099000ea
:1058600080497800f0003700ae009000410f9800aa
:10587000c2c2bf000080fb004400de000080fb00cd
:10588000610060000000e0000300320012c3b300ba
:10589000225f98000200370003c3b300235f980023
:1058a000ae5890004e08900001487800de003700a6
:1058b0002e019000620f9800c2c2bf000080fb0062
:1058c0004500de000080fb00610060000000e00099
:1058d0000300320013c3b300635f98000200370077
:1058e00000c3b300605f98006e599000ee0890000e
:1058f00082487800cc003700ae0190000317980072
:10590000c2c2bf000080fb004600de000080fb003a
:10591000610060000000e0000300320010c3b3002b
:10592000206798000200370001c3b3002167980088
:10593000ae6190000e11900003497800ba00370064
:105940002e00900020179800c2c2bf000080fb000c
:105950004700de000080fb000000e0000300320092
:1059600011c3b300616798000200370002c3b3009f
:10597000626798006e609000ae11900080497800d8
:10598000a9003700ae0090002e4090000080fb0080
:1059900042b3200002004000904878002e40900062
:1059a0000080fb0043b32000030040001004e0002f
:1059b00003003a000080eb00300798009c0037009d
:1059c0001e0090000000e800100798000080fb0017
:1059d00041b32000010040001004e00003003a0041
:1059e0000081eb0032079800910037001e00900004
:1059f000300798008e003700ae01900043179800e2
:105a0000d5c2bf000080fb004500de000080fb0027
:105a1000610060000000e0000300320010c3b3002a
:105a2000206f98000200370001c3b300216f980077
:105a3000ae6990004e119000034978007a0037005b
:105a40002e00900060179800c2c2bf000080fb00cb
:105a50004700de000080fb000000e0000300320091
:105a600011c3b300616f98000200370002c3b30096
:105a7000626f98006e689000ee1190008049780087
:105a800069003700ae009000011f9800d4c2bf002b
:105a90000080fb004700de000080fb000000e0000b
:105aa0000300320012c3b3002277980002003700cf
:105ab00003c3b30023779800ae7090000e189000d7
:105ac00001487800580037002e019000221f9800ee
:105ad000d4c2bf000080fb004600de000080fb0057
:105ae000610060000000e0000300320013c3b30057
:105af000637798000200370000c3b3006077980016
:105b00006e719000ae189000824878004600370011
:105b10001e0090000000e00003003a0041162d0036
:105b200000b220002feb0700ae0090002e40900046
:105b30000080fb0003b22000030040009048780082
:105b40002e4090000080fb0001b2200001004000c8
:105b50001004e00003003a000081eb0032079800d7
:105b6000330037001e0090000000e8001007980086
:105b70000080fb0003b22000030040001004e0009e
:105b800003003a000080eb0030079800280037003f
:105b90001e00900030079800250037001e0090007e
:105ba0000000e00003003a00a1162d0000b2200022
:105bb0000ceb0700ae0090002e4090000080fb0030
:105bc00002b2200002004000904878002e40900071
:105bd0000080fb0003b22000030040001004e0003e
:105be00003003a000080eb003007980010003700f7
:105bf0001e0090000000e800100798000080fb00e5
:105c000001b22000010040001004e00003003a004f
:105c10000081eb0032079800050037001e0090005d
:105c200030079800020037008081eb0033079800ae
:105c30003e0090000080fa00000006000600fa0016
:105c4000000f7800110798003200200061172d0026
:105c50001e007800d4ea07000000e00009003a00c6
:105c600092002000a1172d001e009000ceea070030
:105c70000000e00003003a00100020002007980018
:105c8000020037000000eb00200798002e00900073
:105c90000080fa00000006000000fa00c002a9001f
:105ca000c022a900c042a900c062a900c082a90008
:105cb000c0a2a900c0c2a900c202a900c222a900b4
:105cc000c242a900c262a900c282a900c2a2a90060
:105cd000c2c2a900c2e2a90070022000303a8800c6
:105ce0000000eb00203a88002ae3a800404e28007c
:105cf0000019880040402000101988003000210061
:105d0000201988000000eb00401988002ca3a9008e
:105d10002c83a9000002200080198800dea2a900bf
:105d2000de82a80010082000c011880000002800b2
:105d30008011880000402000901188000080fa0047
:105d4000000006000400fa00140ba800c0af2000f9
:105d5000100798008000eb0000cab300de020700c5
:105d6000e7020700004f7800fd02070050c5b300ae
:105d70009e4f100014003a001100200000cab3002a
:105d8000d50207000040eb00004f7800d0c1b300ff
:105d90009e4f10000a003e00d902070080417800a3
:105da0000e81e800120078008000780083487800b7
:105db0000000e800000978001e4fe800f3ff3700fc
:105dc000e702070001003700020007000080fa0028
:105dd000000006000400fa00c0af20001007980081
:105de0008000eb0000cab3002903070050c5b300d0
:105df000310307000040eb00004f7800d0c1b30032
:105e00009e4f100009003e000e80e80090007800d0
:105e1000114178008100e800010878000240780014
:105e2000250307001e4fe800f4ff37003203070088
:105e30000080fa00000006000e00fa00881f7800bb
:105e4000000f7800110798001e00780030079800b6
:105e50000040eb00004f98001e00780010407800d2
:105e6000404798000004e00026003200ce40900039
:105e7000e0c2b30080cf500015003a001e00780049
:105e8000800078000040eb00804878001e0fe8009a
:105e90009e01900068014700124078008040780021
:105ea0008180fb00038440000040e8000049780046
:105eb000a20020008000eb003e009000a7e9070050
:105ec000004c78001e007800300798000b00370067
