:020000040000fa
:080000000002040000000000f2
:020000040000fa
:100400002fb0200080ff27000001880000000000be
:10041000050007000c0007006c230200000000002c
:100420000040da000000fe004440a90000162d0044
:100430000000e0000300320020002000a00188003e
:100440004440a8000000060080bb2a0001002000f4
:100450001600370062004000e080480091018800eb
:100460009001ba0062004000e080480091018800dd
:100470009002ba0062004000e08048000002eb00f9
:100480006028e10005003a008301e900070033001d
:10049000038009000059eb00040037006128e100e7
:1004a000010032000082eb00050007009101880086
:1004b0001001ba000200e000e6ff3a00000005006b
:1004c000910188008002780062004000e0804800ce
:1004d0003559ba008301e900080032002559ba00f5
:1004e0008301e900050032000400e000f4ff32005f
:1004f00015d9ba008301e900f1ff3a0000000600b7
:10050000800178000200e00003003200b159780059
:100510000201e900fdff3a00000006000200e000d1
:100520000b0032001042780091417800834f520056
:10053000030032000080eb000600390010000500c7
:100540000000e8008100e8000201e900f5ff3a0040
:100550000000eb000000060000017800314978003f
:100560003204e000fdff3a00000006008000780041
:100570001004e000020032005104e000feff3a00e7
:100580000080500000000600800178000200e000ba
:1005900003003200815978000201e900fdff3a00b2
:1005a00000000600ea874700889fbe008a9fbe00c1
:1005b0008c9fbe008e1f78008006780001067800b0
:1005c0008204780000047800010037000804e80085
:1005d0001800fb00860007000000e000fbff3a0067
:1005e00098407800d0c2b30080cf500004003200a1
:1005f00000c0e900d0ef9f0080cf500002003a0019
:10060000d1ef9f000804e8000900e0004600350033
:10061000e18f54004400320040022000808f5400db
:1006200041003c000900e0000d003400f08f540050
:100630001a003a0000c3b300984f100017003a00a8
:100640009840900080c7b30080cf50001200320065
:1006500080c5b30080cf500010003a000e00370074
:1006600000c3b300984f100002003200a900200020
:100670000a0037009840900080c7b30080cf500038
:10068000040032008900200080c5b30080cf5000f4
:1006900002003a00090120000884e800d8b79f0052
:1006a00000c3b300984f100002003a00d84f10006a
:1006b000feff32006055b800080778000e003700d2
:1006c000fab79f008bbf9f00809520000042520028
:1006d000c4ef9f006149b9000a00be006200070034
:1006e0004fea97000401fb00cf91de0000054100b6
:1006f000818549000804e8001800fb004400070059
:1007000080007800090178008095200047000700ec
:10071000000278000000e000e9ff3a005fb09700b7
:10072000880f500005003a000c00e0000100320084
:100730000d0e78006000b800270037008e005400ce
:10074000d0972000694078000000fb000080500036
:10075000170033004240a9000f003c004fe997000a
:100760000200fb00cf80de000000550081805d00ac
:10077000800f5500818f5d00070039006149b90085
:100780003f0007007fb197008fb99700820f50009c
:10079000838f58000600320020022000e0578800b6
:1007a0000085eb008085eb00b3c2b300d3ef9f0060
:1007b000d0c2b3005fea9700804f520002003a00b7
:1007c00060051500e0851d000c00e000010032000e
:1007d000080e78000a00be004f0778004f06be00e2
:1007e0004f05be004f04be00af00b1000000060080
:1007f0006900e100040035006d00e10003003400f1
:100800000002b100010032000000050010000500e8
:10081000800078001104b100030035009101b1009f
:1008200001003c000050a000000006000200e000b3
:100830000500320090cf1000040032000000e800f4
:100840000201e900fbff3a000000eb000000060097
:10085000f05780000000e0000100320000000100bd
:10086000c0af200000000600020ab900001bb9005a
:100870000200b80081004200810043000000060031
:100880006022b800060220000000d0008180d20063
:100890000482d2008582d2000000a0000202520031
:1008a00083825a0003003b000202420083824a0016
:1008b0000000a1000603e900f3ff3a000000060073
:1008c0000e00fa008e80e80000c0eb00804878003f
:1008d0008e80e80000c0eb00904098008e80e80019
:1008e00000c0eb00a04098008e80e80000c0eb0044
:1008f000b04098008e80e80000c0eb00c040980037
:100900008e80e80000c0eb00d04098000e82e80026
:100910005254800063548000a0548000b154800081
:100920000001610081816100a0548000b154800009
:100930000080ea008180ea0000007100818071007f
:1009400030029800410298008e80e800f26527008e
:10095000c0b22000971b0700004f780000c0eb00da
:100960009e4f100074003200000000001e4078000e
:100970003ceab70010002000ee0407000000e00091
:10098000faff3200d0c4b300c91b070010c4b30083
:10099000c71b070030c4b300c51b070000c2b3006b
:1009a000c31b070010c4b300c11b070040c6b3003f
:1009b000bf1b070040c6b300bd1b070020c7b30024
:1009c000bb1b070050c6b300b91b070030c7b300fc
:1009d000b71b070030c7b300b51b0700a0c3b300a7
:1009e000b31b070000c2b300b11b07000040eb00bf
:1009f000404f98004e4890000080fb00e1a8200086
:100a00000100400010407800710a0700a81b070091
:100a10004e4890000080fb00e1a82000010040004b
:100a2000104078007e0a0700a11b07004e48900086
:100a30000040e800404f9800e64f500003003200ad
:100a4000d0c2b3009a1b0700eaff3700e0c2b30030
:100a5000971b070000c2b300951b0700d0c4b3006a
:100a6000931b070090c7b300911b070000c2b3009f
:100a70008f1b070090c4b3008d1b070000c5b30097
:100a80008b1b070000c2b300891b070010c4b30012
:100a9000871b070040c6b300851b070040c6b30094
:100aa000831b070020c7b300811b070050c6b3009b
:100ab0007f1b070030c7b3007d1b070030c7b300a2
:100ac0007b1b070000c2b300791b070080c6b30080
:100ad000771b070010c6b300751b070030c7b300b3
:100ae000731b070000c2b300711b070030c6b300c0
:100af0006f1b070080c6b3006d1b070010c6b30054
:100b00006b1b0700e0c6b300691b070070c6b3008b
:100b1000671b070050c6b300651b070040c6b30043
:100b2000631b0700e0c2b300611b07009f1b0700a7
:100b30001e407800531b07000080fa0000000600ea
:100b40002200fa00000f78001107980064004700a7
:100b5000c1012000ab070700fa040700640047004a
:100b6000b70007006400470011002000908f1000bc
:100b700008003a006400470040409000e64f5000f3
:100b800004003a006400470050409000e44f5000d9
:100b9000030032000001eb0002179800300037001c
:100ba0006400470030009000e20f500004003a005b
:100bb0009e0090000040eb00804878000e00370057
:100bc0006400470030009000e10f500004003a003c
:100bd0009e00900010c0b3008048780006003700e7
:100be0009e00900020c0b300804878008001eb0098
:100bf000031798001a00370064004700400990006e
:100c0000d00990005054800061548000800f510042
:100c1000818f590010003a009e0078006400470060
:100c2000680040001001be008288be0020009000d5
:100c3000a00098009e0078006400470070019000ba
:100c400080099000b2009800c300980013002000b3
:100c500003179800020037000000eb00001798000f
:100c60000e1090000080fa00000006002400fa0038
:100c7000000f780021479800100020006104070051
:100c8000006798000e609000e14f400003003a00ba
:100c90000000eb0010179800660037008000eb00a2
:100ca0000e60900062060700e4004700100020007c
:100cb00080087800e4004700008020009000980041
:100cc000e400470060c0b300c0409800e400470063
:100cd00040c0b300d04098002e409000e14f50003b
:100ce00016003a00e400470010002000b000980011
:100cf000e400470000c0eb00a0509800e40047006b
:100d000000c0eb00b0509800e400470000c0eb00ca
:100d1000c0509800e400470000c0eb00d05098009d
:100d2000e400470000c0eb00e0509800e4004700fa
:100d300000c0eb00f05098000a003700e4004700c4
:100d400020002000b000980064004700f20040003e
:100d50001e0078001001be008288be0020009000b6
:100d6000a0009800640047006800400072548000b2
:100d7000835480000288be009354800023009800b2
:100d80006400470052548000635480007200980051
:100d900003089800640047009e00780070019000ee
:100da0008009900031009000c100900000016900ae
:100db00081816900a0548000b1548000000061006e
:100dc00081806100e00f5000e08f58000600320083
:100dd00064004700c2548000d35480004208980049
:100de0005308980006003700e40047001e00780012
:100df00030019000c0019000c2089800d30898000c
:100e0000640047000e0007006400470072004000c5
:100e1000c201200061c0b300fe0407006400470067
:100e2000c1012000440707003a0507001300200015
:100e3000131798001e1090000080fa0000000600b2
:100e40000200fa00881f7800000f78001e04780066
:100e50001e0078001000780084090700000c78005c
:100e60001e0478001e007800100090007f09070023
:100e7000100498001e0478001e00780030009000d6
:100e80007a090700300498004f0478000080fa00c7
:100e9000000006000000fa000000eb000058880087
:100ea0000080fa00000006000e00fa0000588000e2
:100eb0000000e0000a003a00ea0047000e00780057
:100ec0001fff07000000e000100032002e489000d5
:100ed0000004e0000d0032001000200000588800df
:100ee0008040eb000e00780060ff07000000e0008b
:100ef000030032000000eb000058880003003700b8
:100f00000000eb006007980002003700100020008e
:100f1000600798006e0090000080fa000000060054
:100f20000800fa00000f78001e0fe9000080eb00b7
:100f30009e0f10001800320040c0b30020479800f8
:100f40002e4090000040e90020479800e14f40000b
:100f5000f5ff3200206720000100200020079800e4
:100f6000310798002e009000be00900061005000f4
:100f7000e08058000001be00220798003307980067
:100f80000080eb008080eb00800f5100818f5900c2
:100f9000f4ff3a00eaff37000080fa000000060084
:100fa0000000fa0050578000e80f50000d0032009a
:100fb000c0ae200080c0eb0090cf100002003200d5
:100fc000eccabf002f1a070000c0eb00eceab70024
:100fd0000000eb00505788000040eb00eeeab7003d
:100fe000ed0aa9000080fa00000006001200fa00d5
:100ff00050578000000f98008e089000e38f50003b
:10100000420032000e089000e30f500007003e003f
:101010008e089000e18f5000140032000e089000fe
:10102000e10f50002b003e000d0037008e089000ad
:10103000e58f5000640032000e089000e40f50006d
:101040004b0036008e089000e68f50006c00320096
:101050000e089000e70f50009f003200d0003700cc
:101060006000b800b0568800c156880000c0eb0090
:10107000004f780000c0eb001047980000c0eb0064
:101080002047980000c0eb003047980000c0eb00fc
:101090004047980000c0eb00504798000080eb00ec
:1010a0008080eb0030079800410798003204200050
:1010b0008e00780040042000be190700eceab7005b
:1010c00092190700505688006156880020002000c1
:1010d000505788008d1907000001be00505680004f
:1010e00061568000000151008181590030012000cb
:1010f00001002000800f5100818f5900a8003600a8
:101100003000200050578800a5003700c0032000a1
:101110000100200090568800a1568800edcabf004b
:10112000614060000004e000030032005000200035
:10113000505788009a003700eccabf003ceab7005d
:1011400010002000fb0207000000e00094003200c5
:1011500010c0b300d00107006c190700505688007a
:101160006156880040002000505788008c003700ee
:10117000661907000001be005056800061568000cd
:101180000001510081815900700c200001002000f5
:10119000800f5100818f590002003600300020007e
:1011a00050578800eccabf00321a07000000e00068
:1011b0007b0032007c000700e24f500078003a00cc
:1011c0005000200050578800eccabf003ceab7002e
:1011d00010002000d70207000000e000700032007d
:1011e00030c0b300ac010700481907005056880012
:1011f0006156880060002000505788006800370062
:10120000eccabf001b1a07000000e00024003200f7
:1012100065000700204f98002e489000e64f5000d0
:1012200002003a005eff07005d0037002e48900084
:10123000e54f50005a003a00eccabf009119070070
:1012400000c0eb00eceab7003019070050568800e8
:10125000615688007000200050578800b05680000a
:10126000c15680005054880061548800f0568000b8
:1012700001578000a0548800b1548800d0568000e7
:10128000e1568000c0548800d1548800ed0aa800bf
:10129000eecabf000040e800eeeab70040003700a9
:1012a0001a1907000001be005056800061568000e8
:1012b0000001510081815900700c200001002000c4
:1012c000800f5100818f590035003600300020001a
:1012d00050578800320037000c1907000001be008b
:1012e00050568000615680000000510081805900f6
:1012f00060079800710798006e019000fe01900051
:101300003006200001002000800f5100818f59001d
:101310002300360090568000a156800061005000e6
:10132000e080580090568800a15688006e01900019
:10133000fe019000c0f92f00f1ff2f0002004000d5
:1013400083804800600798007107980090568000dd
:10135000a1568000e00f5000e08f580002003a00d4
:1013600010002000505788006e019000fe01900090
:101370003006200001002000800f5100818f5900ad
:10138000e4ff3e00e11807006e019000fe019000ae
:101390000200500083805800505688006156880033
:1013a0000080fa00000006000e00fa000040eb008a
:1013b000304798000e007800c219070020c0b30023
:1013c0009e4f100017013a000040eb0010479800b4
:1013d0001e409000ee4f500006003e000e007800c8
:1013e000b81907001e4090000040e8001047980020
:1013f000f7ff3700edcabf00624060000004e00064
:101400000b0032000040eb00104798001e40900097
:10141000e34f50000e003e000e007800a9190700af
:101420001e4090000040e80010479800f7ff37008a
:1014300060ad2000a319070070ad2000a1190700be
:1014400080ad20009f19070090ad20009d19070076
:101450000040eb00104798001e409000e74f5000fe
:1014600006003e000e007800961907001e4090000e
:101470000040e80010479800f7ff37000040eb00fd
:10148000104798001e409000e54f50000d003e00b0
:101490000e0078008b1907001e4090000080fb00b2
:1014a000e1a82000010040001e417800904f51004b
:1014b000f3003a001e4090000040e80010479800fa
:1014c000f0ff37000040eb00104798009e4090006e
:1014d000d0ccb30080cf500006003e000e00780054
:1014e000781907001e4090000040e800104798005f
:1014f000f6ff37000000eb00200798000e00780090
:10150000701907000000e00003003a0010002000fe
:1015100020079800c30037009e81fb0063079800f6
:1015200030032000ee009000808f500084003200d5
:10153000300320006e019000800f510007003c0036
:10154000ee019000e18f5100250032006e00900006
:10155000e30f50003f003200a50037006003200079
:10156000ee009000808f5000610032006003200088
:101570006e019000800f510005003c0050032000d8
:10158000ee019000808f5100060032009800370075
:10159000f00f2000ee009000808f500065003200b8
:1015a000930037000e0078004619070012c0b30000
:1015b0009e4f1100b2003a00630047004119070036
:1015c000edcabf00624060000004e00092003200fb
:1015d0003e409000e24f50008f003a00a8003700d4
:1015e0000e0078003719070043c0b3009ecf1100ea
:1015f000a3003a00edcabf00624060000004e000b2
:101600000b0032000040eb00104798001e40900095
:10161000e34f500080003e000e00780029190700bb
:101620001e4090000040e80010479800f7ff370088
:10163000e0ad200023190700f0ad200021190700bc
:1016400000ae20001f19070010ae20001d19070072
:10165000710037000e80e8001a1907002e40900034
:10166000e34f500086003600edcabf0062406000c4
:101670000004e0000b0032000040eb00104798002f
:101680001e409000e34f50000e003e000e00780018
:101690000c1907001e4090000040e8001047980019
:1016a000f7ff3700a0ad200006190700b0ad2000fd
:1016b00004190700c0ad200002190700d0ad2000ba
:1016c000001907002e409000644050002047980009
:1016d0002e4090000040e90020479800e14f400074
:1016e0004d0032000e007800f6180700f8ff3700b2
:1016f0000e007800f318070040c0b3009e4f1000a2
:101700005f003a006600470063004000ed180700e4
:10171000660047000080e800ea18070066004700fe
:101720000000e800e718070066004700e51807001a
:1017300039003700100020002007980036003700dd
:101740000e007800df18070041c0b3009ecf1000e4
:101750004b003a00edcabf00624060000004e000a8
:101760000b0032000040eb00104798001e40900034
:10177000e34f500028003e000e007800d11807000b
:101780001e4090000040e80010479800f7ff370027
:1017900050ad2000cb18070040ad2000c91807004d
:1017a00030ad2000c718070020ad2000c518070085
:1017b00092568000a3568000807020000100200017
:1017c000800f5100818f590013003600808f2f0049
:1017d000f1ff2f0092568000a356800002014000c6
:1017e0008381480092568800a35688000a0037007b
:1017f0000e80e800b31807002e4090000040e9007a
:1018000020479800e14f4000030032000e007800ae
:10181000ac180700f8ff37002e0090000000e00031
:1018200036ff32003e409000e24f500006003a0082
:101830003e009000ce0090007056880081568800cf
:10184000ed2aa800090037007256800083568000f8
:101850003e009000ce009000800f5100818f590013
:10186000020032000040eb0030479800d01807001b
:101870003e4090000080fb005007980003003700b6
:10188000cb1807008000eb00510798005e00900025
:101890000080fa00000006000200fa00004f780005
:1018a00010c0b3000218070010c0b30000180700f2
:1018b00060c0b300fe1707000040eb00fc170700f4
:1018c00020c1b300fa17070030c2b300f8170700b1
:1018d00040c3b300f617070060c5b300f417070054
:1018e0000040eb00f21707000040eb00f017070084
:1018f00000c8b300ee1707000040eb00ec1707002c
:101900000040eb00ea1707000040eb00e817070073
:101910000040eb00e61707000040eb00e41707006b
:101920000040eb00104798001e409000eb4f500025
:1019300006003e000040eb00dd1707001e4090004f
:101940000040e80010479800f7ff37008ecabf003c
:10195000d71707008fcabf00d517070090cabf006e
:10196000d317070091cabf00d117070092cabf0062
:10197000cf17070093cabf00cd1707000040eb0048
:10198000104798009e40900090ccb30080cf50004c
:1019900006003e000040eb00c51707001e40900007
:1019a0000040e80010479800f6ff370030c6b3004b
:1019b000bf17070020c8b300bd17070030c5b3002c
:1019c000bb17070030c6b300b917070050c3b300f8
:1019d000b717070010c0b300b51707001e40780006
:1019e000b317070010c0b3009e4f100001003a006b
:1019f000ed2aa90010c0b3009e4f10001100320064
:101a0000b0568000c1568000e00f5000e08f5800b3
:101a10000c00320060c3b300a517070040c0b3003c
:101a2000a3170700d1cabf00a1170700d0cabf0083
:101a30009f170700cfcabf009d170700cecabf007f
:101a40009b17070070c3b3009917070020c0b300ad
:101a50009717070010c0b3009517070030c0b300f8
:101a60009317070030c0b3009e4f10000c003a00df
:101a700020c3b3008e17070040c0b3008c170700c7
:101a8000d6cabf008a170700d7cabf008817070049
:101a9000d8cabf0086170700d9cabf00841707003d
:101aa00000c0eb0082170700c01707000080fa0093
:101ab000000006000200fa00d5c2a800d3c2a900a7
:101ac000dec2a900df02a900dee2a8000000eb00f0
:101ad00000128800f0002000101288000000eb00c7
:101ae000201288004302a80042a2a80041e2a800f8
:101af000d0c1b3004b040700004f78001e80fb00ec
:101b0000680060000000e000f9ff3a001e80fb0062
:101b10000080ea00610060000000e000f4ff3a008d
:101b20002e04070010002000fdfc07000040eb0021
:101b3000004f780060c0b3009e4f100014003e00bc
:101b40009e80fb00600020000008b800439a20003f
:101b5000030140009e80fb00802420000008b800a4
:101b600083002100030940009e80fb0060002000ec
:101b70000008b800829a200082004000110078001e
:101b80000000a000800878001e4fe800e9ff370041
:101b90000040eb00a2e9b70010002000a04e880032
:101ba0000000eb00804e88008040eb0080c0b30056
:101bb000870407008040eb0090c0b3008404070056
:101bc00071c0b300c0c0b3008104070001c1b300fd
:101bd000d0c0b3007e04070071c0b300a0c0b30042
:101be0007b04070001c1b300b0c0b3007804070054
:101bf00081c0b30040c0b3007504070001c1b30049
:101c000050c0b3007204070000202000f004070059
:101c1000d1c0b3000040eb006d04070021c3b30046
:101c200020c0b3006a04070001c4b30030c0b30091
:101c300067040700f1c3b30090c0b3006404070059
:101c400021c1b30060c0b30061040700c1c0b3008c
:101c500070c0b3005e040700e1ceb300a0c0b300c3
:101c60005b04070051c0b300b0c0b30058040700c4
:101c700040302000d6040700e1a820009140780001
:101c800040c0b30052040700f1a820009140780042
:101c900050c0b3004e04070001a920009140780015
:101ca00020c0b3004a04070011a920009140780029
:101cb00030c0b3004604070021a9200091407800fd
:101cc0000040eb004204070031a920009140780059
:101cd00010c0b3003e04070020c1b300d1030700c9
:101ce000d6e9b7000110200000c1b300a10407002d
:101cf0002147200040c1b3009e0407000000eb0014
:101d0000bd04070041c0b300f0c1b3007604070072
:101d10000080fa00000006000000fa0010c0b300c6
:101d20000c0407004200de00610060000080fa0041
:101d3000000006000600fa00000f78001e00e00018
:101d400009003200f0c1b300b60307000080fb00b9
:101d50004300de000080fb000000a2006100600084
:101d60002007980024003700cec9bf00a249e30035
:101d700009003a00f0c1b300aa0307000080fb008d
:101d80004300de000080fb000000a2006100600054
:101d9000200798001800370010c0b30020479800b3
:101da0002e409000e64f500011003e002e40900063
:101db0008080fb00600020000008b800829a2000ac
:101dc0000200400010407800614060000004e00024
:101dd00003003200100020002007980006003700a2
:101de0002e4090000040e80020479800ecff3700ac
:101df0000001eb00220798002e0090000080fa00fe
:101e0000000006000800fa00000f78001e00e00045
:101e10000d003200f0c1b30082030700684060008b
:101e20000004e00003003200f00f200030079800ab
:101e3000020037000001eb00320798003e009000de
:101e4000200798002b00370010c0b30020479800ef
:101e50002e409000e64f500024003e002e4090009f
:101e60008080fb00600020000008b800829a2000fb
:101e70000200400010407800614060000004e00073
:101e8000160032002e4090008080fb006000200091
:101e90000008b800829a20008200400011007800fb
:101ea0000000a100800878002e4090008080fb0098
:101eb000600020000008b800829a200082004000e4
:101ec000110078000010a100800878002e409000da
:101ed0000080fb0020079800060037002e4090008d
:101ee0000040e80020479800d9ff3700f00f20009d
:101ef000200798002e0090000080fa0000000600e5
:101f00000200fa00004f780070c0b3009e4f10002e
:101f10000a003e009e80fb00600020000008b80020
:101f2000829a200082004000110078000000a0008a
:101f3000800878001e407800a2e9b7000080fa000f
:101f4000000006000200fa00d409e20014003a0082
:101f500010002000a04e8800804e8000000fe90095
:101f6000700021009e0f100002003600700021005a
:101f7000000f780001c4b300e0c1b300da0307002a
:101f8000c0002000120407009e407800c0c0b300cb
:101f90008f0307009e409000d0c0b3008c03070061
:101fa0000080fa00000006000600fa0090112000f0
:101fb0000704070090c1b3001a030700004f780020
:101fc000e000200002040700e0c0b3001503070092
:101fd00020479800f0c0b300120307003047980074
:101fe00090112000fa03070090c1b3000d03070011
:101ff0009e4f5000efff3a00c0002000f40307009e
:10200000c0c0b30007030700004f7800d0c0b30082
:1020100004030700104798001e0090009e0f500018
:10202000060036001e0090009e0050007000210047
:1020300001005000200798000a0037001e009000a1
:102040009e0f500003003a00700021002007980006
:10205000040037001e0090001e0010000000e90080
:10206000200798002e0090000080fa000000060073
:102070001a00fa00881f7800000f780011079800f6
:1020800090112000d203070090c1b300e5020700c1
:102090000004e00003003a000000eb00400f98004d
:1020a00058003700d409e20004003a00a5ff0700f9
:1020b0000000eb00400f980052003700804e800077
:1020c000904e88000000eb00c1030700019d200036
:1020d000914078000040eb003d030700119d200077
:1020e0009140780010c0b300390307006400470036
:1020f00041012000430207006404470064004700d8
:1021000010089000d9040700100c9800e400470064
:1021100070002100910f10001a003e004e40900008
:10212000614060000004e00016003a0064004700cf
:10213000200090004f00de000000e00011003a0097
:1021400064004700200090004400de006100600051
:102150000000e0000b003a0064004700900090008f
:10216000e05e2000808f500006003e0064004700c3
:10217000200090004700de00610060000000e000e9
:1021800001003a000000fe006400470010007800e3
:10219000804e880064004700ec0040006200200090
:1021a0001e007800d6f807009e00900000c0eb00eb
:1021b000804878006400470030509000e84f50009d
:1021c0000c003a0064004700205090000004e0003a
:1021d000040032006400470020509000e64f500099
:1021e00004003a009e0090006400470020509000d8
:1021f000804878000000eb00a04e8800100020000e
:10220000400f98004e0890004f0478000080fa00bc
:10221000000006000800fa00000f7800214798002f
:10222000220798002000200069030700a2c9bf0010
:102230008080fb00600020000008b800429a200067
:10224000020040009040780020c0b300e002070088
:10225000a2c9bf008080fb00600020000008b80019
:10226000529a2000020040009040780030c0b30035
:10227000d7020700a2c9bf008080fb0060002000d9
:102280000008b800429a2000820040002e00900012
:10229000110040006e00400020079800a2c9bf0056
:1022a0008080fb00600020000008b800629a2000d7
:1022b00002004000ae009000010878000040eb00f2
:1022c000fe010700610020001e0078001a020700ce
:1022d00061002000e0a820001702070080c0b300c2
:1022e000f60107002e4090000004e00003003200d9
:1022f00062c0b30062479800020037000040eb0064
:10230000604798006e409000ec0107000080fa00e2
:10231000000006000e00fa00400020002c03070019
:10232000a2c9bf008080fb00600020000008b80048
:10233000429a2000020040009040780040c0b30064
:10234000a3020700a2c9bf008080fb00600020003c
:102350000008b800529a2000020040009040780027
:1023600050c0b3009a020700a2c9bf008080fb00e2
:10237000600020000008b800629a200002004000bf
:102380009040780060c0b30091020700a2c9bf006e
:102390008080fb00600020000008b800729a2000d6
:1023a000020040009040780070c0b300880207002f
:1023b000a2c9bf00cee9b700a2c9bf008080fb0060
:1023c000600020000008b800829a200082004000cf
:1023d000110078000010a00080087800c0c1b30090
:1023e00010020700624060000004e00006003200b6
:1023f00001c8b300f0c1b300bb02070001c8b300bd
:10240000f0c1b30095020700a1c0b300c0c1b30082
:102410009202070081c0b300f0c1b300b20207000e
:10242000609d200051c0b30090cf100060003a00c2
:10243000c0c1b300fb0107000080fb006a00600020
:102440000000e000faff3200c0c1b300f501070050
:10245000624060000004e0005500320081c0b3001b
:10246000f0c1b3007d0207000000eb00d8020700b6
:102470000040eb00eb010700004f780010c0b300f4
:10248000e80107001047980060c0b300e5010700ad
:102490002047980070c0b300e20107003047980061
:1024a0001e0090000000e80010079800ae40900069
:1024b0000040eb0046020700be40900010c0b30091
:1024c0004302070064004700810020004d0107001f
:1024d0000040eb00404f98004e489000ef4f5000f6
:1024e0002d003e00c0c1b300ce0107006240600075
:1024f0000004e00028003200640047001000900053
:102500004d00de00610060000000e00022003200ab
:1025100001c8b300f0c1b3007302070001c8b300e3
:10252000f0c1b3004d020700a1c0b300c0c1b300a9
:102530004a02070081c0b300f0c1b3006a0207007d
:10254000c0c1b300b70107000080fb006a00600053
:102550000000e000faff320081c0b300f0c1b30018
:102560003e020700ae4090000040eb00180207005a
:10257000be40900010c0b300150207006400470081
:10258000810020001f0107004e4890000040e80035
:10259000404f9800d0ff37009e4078000040eb008d
:1025a0000b0207009e40900010c0b3000802070015
:1025b0000080fa00000006000400fa00000f780016
:1025c000904e80001e0040007400400010079800ec
:1025d0009e00900070002100808f500004003600a3
:1025e0001e00900081ff2e0001004000100798009f
:1025f0000000eb0076020700ae4090000040eb00c8
:10260000f3010700be40900010c0b300f0010700c6
:10261000ae40900020c0b300ed010700be40900026
:1026200030c0b300ea0107000080fa000000060095
:102630000400fa00004f7800110798001e4078004f
:10264000a2e9b7009e80fb00600020000008b800ef
:10265000429a2000820040001e00900011004000bd
:102660006f0040001007980020002000580207006b
:10267000ae4090000040eb00d5010700be40900046
:1026800010c0b300d2010700ae40900020c0b300dc
:10269000cf010700be40900030c0b300cc0107005e
:1026a0000080fa00000006000600fa00000f780023
:1026b00011079800904e80001e00400074004000fa
:1026c00020079800ae00900070002100808f50001d
:1026d000040036002e00900081ff2e000100400013
:1026e000200798000001200039020700ce4090002a
:1026f00000c1b300b6010700de40900010c1b30076
:10270000b3010700ae0090001e0090000080400062
:102710000000e90020079800ae0090007000210042
:10272000808f5000040036002e00900081ff2e00a4
:102730000100400020079800ce40900020c1b30067
:10274000a3010700de40900030c1b300a0010700e4
:1027500001c3b300f0c1b300e3010700f0c1b3004f
:10276000300107000042b2000004e000fbff3a0025
:1027700060c1b3002b0107005047980070c1b3003f
:1027800028010700404798002e0090000080fa00c2
:10279000000006000600fa00000f780011079800fc
:1027a000a2c9bf008080fb00600020000008b800c4
:1027b000429a200002004000100078001e004000f5
:1027c0006f00400020079800000120000002070071
:1027d000ce40900000c1b3007d010700de409000b4
:1027e00010c1b3007a010700ae0090001e009000f7
:1027f000008040000000e90020079800ce409000d3
:1028000020c1b30072010700de40900030c1b30068
:102810006f01070001c3b300f0c1b300b2010700ac
:10282000f0c1b300ff0007000042b2000004e00066
:10283000fbff3a0060c1b300fa0007005047980060
:1028400070c1b300f7000700404798002e009000c9
:102850000080fa00000006000600fa00000f780071
:102860001e00e00003003a000080eb002007980003
:1028700042003700110020009e8f100006003a0031
:10288000410007000080fb004800dd000080ea00f6
:1028900020079800390037000000eb00cc0107004a
:1028a0000040eb00df0007002047980010c0b30095
:1028b000dc00070030479800ae40900000c1b30034
:1028c00043010700be40900010c1b3004001070063
:1028d0009e00900070002100808f50000d003e008f
:1028e0001e0090001e0040000000e9001007980044
:1028f0009e00900070002100808f5000090036007b
:102900001e00900081ff2e0001004000100798007b
:10291000040037001e0090001e0040000000e90087
:1029200010079800ae40900020c1b30028010700b6
:10293000be40900030c1b3002501070001c3b300c1
:10294000f0c1b30068010700f0c1b300b500070093
:102950000042b2000004e000fbff3a0060c1b30097
:10296000b00007002047980070c1b300ad00070019
:10297000304798001e009000200798002e0090001d
:102980000080fa00000006000200fa00d5c2a9008b
:102990008540a900a00320004012880085c0bf0028
:1029a0000080fb004200de000080fb006100600050
:1029b0000000e000f9ff320040128000004f780074
:1029c0008540a9000000eb004012880085c0bf00d0
:1029d0000080fb004200de000080fb006100600020
:1029e0000000e000f9ff320040128000004f780044
:1029f0008540a900d5c2a8001e80fb000080fa0017
:102a0000000006000800fa00000f78001107980087
:102a1000d5c2a9008540a900a0032000401288006b
:102a20000000eb00200798001e0fe90085c0bf00e2
:102a30000080fb004200de000080fb0061006000bf
:102a40000000e000f9ff320040128000604798006b
:102a50008540a900ae0090001e009000808f5000bd
:102a6000120031000000eb00401288002e009000a0
:102a70000000e800200798001e0fe80085c0bf0096
:102a80000080fb004200de000080fb00610060006f
:102a90000000e000f9ff32009e0078004012800044
:102aa000804878008540a900eaff3700d5c2a80019
:102ab0002e0090000080fa00000006000200fa00dc
:102ac000004f7800d5c2a9008540a900a0072000ca
:102ad0004012880085c0bf000080fb004200de007d
:102ae0000080fb00610060000000e000f9ff3200a0
:102af00040128000104798008540a9001e80fb000e
:102b00004012880085c0bf000080fb004200de004c
:102b10000080fb00610060000000e000f9ff32006f
:102b200040128000104798008540a900d5c2a80037
:102b30000080fa00000006000600fa00000f78008e
:102b400011079800d5c2a9008540a900a007200060
:102b50004012880085c0bf000080fb004200de00fc
:102b60000080fb00610060000000e000f9ff32001f
:102b700040128000404798008540a9001e00900048
:102b80000000e000120032001e0078001080fb0000
:102b9000401288001e0fe8001e0090000000e900af
:102ba0001007980085c0bf000080fb004200de00d7
:102bb0000080fb00610060000000e000f9ff3200cf
:102bc00040128000404798008540a900ebff370085
:102bd000d5c2a8000080fa00000006000200fa003a
:102be000d5c2a9008540a900f00f2000401288003e
:102bf00085c0bf000080fb004200de000080fb00bb
:102c0000610060000000e000f9ff32004012800027
:102c1000004f78008540a900d5c2a8000080fa00c6
:102c2000000006000200fa00004f7800d5c2a9009b
:102c30008540a9001e80fb004012880085c0bf00af
:102c40000080fb004200de000080fb0061006000ad
:102c50000000e000f9ff32004012800010479800a9
:102c60008540a9000000eb004012880085c0bf002d
:102c70000080fb004200de000080fb00610060007d
:102c80000000e000f9ff3200401280001047980079
:102c90008540a900d5c2a8001e4090000080fa001f
:102ca000000006000200fa00004f7800d5c2a9001b
:102cb0008540a9001e80fb004012880085c0bf002f
:102cc0000080fb004200de000080fb00610060002d
:102cd0000000e000f9ff3200401280001047980029
:102ce0008540a9000000eb004012880085c0bf00ad
:102cf0000080fb004200de000080fb0061006000fd
:102d00000000e000f9ff32004012800010479800f8
:102d10008540a9000000eb004012880085c0bf007c
:102d20000080fb004200de000080fb0061006000cc
:102d30000000e000f9ff32004012800010479800c8
:102d40008540a900d5c2a8001e4090000080fa006e
:102d5000000006000400fa00004f78004021200027
:102d60009b0007009e40780040c1b3001800070098
:102d700011c0b30020c1b30015000700a03020002f
:102d800093000700a0c0b300c6ff070061406000c9
:102d90000004e000fbff3a00402120008c00070007
:102da0008040eb0020c1b3000900070080c1b300e0
:102db000bcff07002047980090c1b300b9ff07008f
:102dc000304798001e0090000080fa0000000600c6
:102dd0000400fa00004f780011479800d5c2a900fe
:102de0008540a90000c4b3001e4070000080fb00b5
:102df0004012880085c0bf000080fb004200de005a
:102e00000080fb00610060000000e000f9ff32007c
:102e100040128000204798008540a9001e40900085
:102e20000080fb004012880085c0bf000080fb00ce
:102e30004200de000080fb00610060000000e00056
:102e4000f9ff320040128000204798008540a90019
:102e5000d5c2a8000080fa00000006000400fa00b5
:102e6000004f780011479800d5c2a9008540a900fd
:102e700000cab3001e4070000080fb0040128800b2
:102e800085c0bf000080fb004200de000080fb0028
:102e9000610060000000e000f9ff32004012800095
:102ea000204798008540a9001e4090000080fb004c
:102eb0004012880085c0bf000080fb004200de0099
:102ec0000080fb00610060000000e000f9ff3200bc
:102ed00040128000204798008540a900d5c2a80074
:102ee0000080fa00000006000400fa00004f78009d
:102ef00011479800d5c2a9008540a90000c8b300b9
:102f00001e4070000080fb004012880085c0bf009a
:102f10000080fb004200de000080fb0061006000da
:102f20000000e000f9ff32004012800020479800c6
:102f30008540a9001e4090000080fb0040128800e0
:102f400085c0bf000080fb004200de000080fb0067
:102f5000610060000000e000f9ff320040128000d4
:102f6000204798008540a900d5c2a8000080fa003b
:102f7000000006000400fa00004f780011079800d6
:102f800040212000120007009e40780040c1b3009d
:102f90008fff0700ae40900060c1b3008cff0700b8
:102fa000be40900070c1b30089ff0700a030200030
:102fb00007000700a0c0b3003aff070061406000af
:102fc0000004e000fbff3a000080fa000000060069
:102fd0000200fa00000f780031c0b300f0c1b30066
:102fe0009eff07009e409000f0c1b300beff0700a7
:102ff0000080fa00000006000800fa00000f7800c8
:10300000c1c0b300f0c1b30094ff07000040eb0063
:1030100050ff070020079800200020009e0f10009e
:1030200004003a002e0090004800de00610f6000ae
:103030000b0037002e0090001e017800e1006100b7
:103040004809dd00f1ef2f00010060000200700070
:1030500020079800ae0090000040eb00c5ff07007d
:1030600020202000daff070020c0b3000dff07007a
:10307000204798002e4090009e40780061c160007b
:10308000e1cfb3000140600002407000204798008b
:10309000ae40900020c0b3004dff07001e00e000ce
:1030a0000300320052c1b3006247980002003700ab
:1030b00020c1b30060479800ee40900040c0b300cc
:1030c00043ff070041c0b300f0c1b30086ff070013
:1030d0000080fa00000006000000fa0041c0b300c2
:1030e000f0c1b3005dff0700d0c1b300cdfe070003
:1030f000644060000004e000fbff3a0000000000b4
:10310000f0c1b300c7fe0700684060000004e000a3
:10311000fbff3a0001c2b300e0c1b30072ff070039
:103120000080fa00000006000000fa0001c2b300af
:10313000e0c1b30049ff0700d0c1b300b9fe0700ea
:10314000614060000004e000fbff320041c0b300ba
:10315000f0c1b30064ff07000080fa000000060021
:103160000200fa00004f78005031200098ff07005d
:103170009e40780050c1b30015ff07000080fa00a0
:10318000000006000000fa005031200090ff070008
:1031900050c1b300a3fe07000080fb000080fa00ce
:1031a000000006000600fa00000f78002147980092
:1031b0000040eb00404798002e4090000040e9009e
:1031c00020479800e14f4000160032009e00780032
:1031d0000040eb0080487800b51307000004e000d1
:1031e000fdff3200c6130700304798003e409000b4
:1031f000ed4f50000b0032003e409000ea4f50006f
:10320000080032004e4090000040e800404798001f
:103210001e007800be409000014878001e0fe800b4
:10322000e5ff37004e4090000080fb000080fa0070
:10323000000006000c00fa00000f7800110798004b
:103240000000eb00500798001e00e000290032004b
:103250000040eb00404798000071220040079800b2
:103260004e409000e44f500029003e001e007800c0
:103270004e019000110009000280d800300798002c
:103280003e0090000000e00003003a005e00900065
:103290000000e0000e0032008e81e800130178008b
:1032a0006e4090000043b0008200780080487800b3
:1032b0000201e80082097800be0090004e009000f4
:1032c0000008b8001e0f10001000200050079800e2
:1032d0004e009000a2002000110009000280d800da
:1032e000400798004e4090000040e800404798009a
:1032f000dbff37008e81e8001300780000017800c2
:1033000001c3b300014978000000e800800978009b
:103310009e0090000040eb00804878000080fa009a
:10332000000006000200fa00000f78009e409000a6
:1033300060c4b30080cf5000040036001e409000ef
:1033400001ceb300014040001047980060c4b300b4
:103350009e4f10000200360000ceb3001e4f40000a
:103360009e40900090c3b30080cf5000050036000f
:103370001e40900091ccb3000140400010479800df
:10338000040037001e40900001cdb3000140400012
:103390001047980090c3b3009e4f10000300360002
:1033a00090ccb3001e4f40000200370000cdb300a8
:1033b0001e4f40001e4090000080fb004400dd00d6
:1033c0001e4070000080fb000080fa000000060034
:1033d0000400fa00004f78001e80fb004400de006d
:1033e000004f780090c0b3009e4f100005003600db
:1033f00071c3b3001ec040000080fb00100798009e
:103400000400370001c3b3001ec040000080fb0071
:10341000100798001e0090000080fa0000000600cf
:103420000400fa00004f78001e4078006f4f6000e3
:1034300091c0b3009ecf10000500360071c3b300e9
:103440001ec040000080fb001007980004003700f9
:1034500001c3b3001ec040000080fb0010079800ad
:103460001e0090000080fa00000006000600fa002e
:10347000000f78001e007800100798003e40900072
:10348000404798002e409000304798004e409000f2
:10349000204798001e0090000080fa0000000600ff
:1034a0000c00fa00008fbe001e00be00300798001e
:1034b0004107980066004700500798005e009000a2
:1034c0003040900040479800de0090005e00900081
:1034d00010407800b04098005e009000ce40900010
:1034e000014878005e00900020409000404798001e
:1034f000de0090005e00900010409000a040980018
:103500005e009000ce409000114098003e00900078
:10351000ce0090000080fa00000006001000fa00c3
:10352000000f7800110798006000b800600798004d
:10353000710798001e0090000000d100200798003d
:103540001e007800300798002e0090000000e9006f
:1035500020079800e10f40000e003200e60247000d
:103560001502780004007800100078006101b800ae
:103570006e009000fe009000000041008180490034
:1035800060079800710798000482e800840a7800b8
:10359000edff37001e009000610060000000e000b9
:1035a0000a0032003e009000104078000081fb00cd
:1035b000030020006e009000fe009000000041001b
:1035c0008180490060079800710798006e009000a4
:1035d000fe00900040079800510798005e009000a0
:1035e000200798000000e0000f0032000000eb0010
:1035f000700798006e0090006101b8002e009000e6
:10360000010020000200400083804800600798000d
:10361000710798006e009000fe009000400798002f
:1036200051079800edff37006e0090000080ea001f
:103630000080fa00000006000600fa00000f780083
:103640001e007800200798002e009000104078009f
:10365000204798000004e00010003200ae409000c7
:1036600000c6b30080cf500008003400ae40900088
:10367000a0c7b30080cf500004003c002e01900092
:10368000ae00900000ceb300114940002e00900023
:103690000000e80020079800ebff37001e007800cc
:1036a0000080fa00000006000200fa00881f78007f
:1036b0000040eb00004f780020c0b3009e4f100088
:1036c00011003e009e80fb00e00020000008b800d2
:1036d000e2a3200002044000000520008409070046
:1036e000004c78009e80fb00e00020000008b8003d
:1036f00022a42000820040000000eb008008780037
:103700001e4fe800ecff37004f0478000080fa00fd
:10371000000006000200fa000040eb00004f7800b5
:1037200020c0b3009e4f100004003e001e407800f1
:10373000040007001e4fe800f9ff37000080fa0080
:10374000000006008c00fa00881f7800004f780007
:103750009e80fb00e00020000008b800e2a32000eb
:1037600000004100308798000000eb0060379800af
:103770003e80900010407800980907000000e000ab
:1037800004003a00be8090000000eb00a00098000a
:103790001d0137003e809000200090005087980067
:1037a0005e809000e20f500070003200de809000da
:1037b000e28f500007003e005e8190000200e000b2
:1037c0000b0032005e809000e10f5000ea003200f2
:1037d0000a013700de809000e98f5000f7003200c8
:1037e0005e819000eb0f510083003200030137002f
:1037f0003e80900010407800ee0a07000000e000d4
:10380000fe00320010002000603798000000eb003e
:1038100050379800de30900030062000808f500036
:103820000d003e008e81e800a20620000e0141003e
:103830001200780080007800818041000000e800dc
:10384000000978003e80900010407800a30a07002d
:103850000000e000efff3a008e80e8005e3090004c
:10386000808040000040eb00804878003e8090005f
:1038700010407800570a0700be809000200020000a
:10388000a0009800b0c0b300404799003e8090006f
:103890006c004000420820000e014100e1062000bb
:1038a0008e8040000e82e8008001780004007800dd
:1038b0006c010700403798004e3090000000e00097
:1038c000ce003a004e409100e14f50000700360014
:1038d000e00620000e004000ce4091009304070057
:1038e000be80900030c0b300c04898003e84900075
:1038f000e00620000e00400010007800840707005a
:10390000100498003e80900010009000e10f4000ed
:1039100007003a00be8090000040eb00b0489800dd
:10392000be80900020002000a0009800b300370067
:103930003e809000100090000000e00007003a0078
:10394000be80900010c0b300b0489800be809000c8
:1039500020002000a0009800a8003700be80900042
:10396000b0002000a0009800a40037003e80900026
:1039700010407800af0907000000e0009f0032000f
:103980003e809000304890000080fb000000d00096
:1039900001af20000100400010007800408798002f
:1039a000820820000e01410012007800800078009b
:1039b00091407800514799000000e8000009780024
:1039c0000104e000050032003e809000de409100de
:1039d00010407800bc090700f1ff37003e809000de
:1039e0001040780049090700be8090009000200038
:1039f000a0009800810037003e80900010407800c1
:103a00008c0907000000e0007c003200100020005c
:103a1000603798003e80900040489000e34f50008f
:103a200014003a003e80900011c0b3002148980075
:103a30000040eb0050479900de40910030c8b300d1
:103a400080cf50001e003e00e11228005e40910031
:103a50000080fb003e819000e0c0780012407800ba
:103a6000990907005e4091000040e8005047990026
:103a7000f1ff37003e8090008040eb002148980025
:103a80000040eb00504799005e409100fe4f50000f
:103a90000b003e00e11028005e4091000080fb001a
:103aa0003e819000e0c0780012407800860907004f
:103ab0005e4091000040e80050479900f2ff370057
:103ac0003e809000404890008080fb004001200034
:103ad0000008b8000202280000004100408798005a
:103ae000820820000e01410012007800800078005a
:103af00091407800514799000000e80000097800e3
:103b00000104e000050032003e809000de4091009c
:103b1000104078006c090700f1ff37000040eb000f
:103b2000504799005e409100e34f50000b003e006b
:103b3000311b28005e4091000080fb003e81900018
:103b4000e0c07800124078005f0907005e409100f5
:103b50000040e80050479900f2ff3700be80900017
:103b600030c0b300e0409800be80900010002000fc
:103b7000a0009800210037003e809000104078009f
:103b80000c0a07000000e000030032003e809000b5
:103b9000104078008f0907003e8090001d0007004c
:103ba0000000e0001500320026070700be809000ec
:103bb00090002000a0009800100037003e80900088
:103bc00010407800850807000000e0000b0032007c
:103bd0003e80900010407800160907000000e000c9
:103be000060032003e809000104078008c080700ec
:103bf000be809000a0002000a00098006e309000d1
:103c00000000e000d8fe3a004f0478000080fa007f
:103c1000000006000c00fa00881f7800000f7800f2
:103c20001e00780010009000205788001e007800c9
:103c3000204890000004e0006c0032001e00780074
:103c400010407800fb0807000000e0007c00320014
:103c50000000eb00100798001e0078006040900004
:103c6000e84f50000b003200010707004047980062
:103c700020578000e10f400006003a001e00780047
:103c800010407800a10807001000200040079800ad
:103c9000700037001e007800604090000080fb003c
:103ca00050079800de009000e58f500019003200a8
:103cb0005e009000e50f500004003c00de00900024
:103cc000e38f500008003200400037005e00900093
:103cd000e60f50001f003200de009000e88f500019
:103ce0002900320039003700ce40900050c2b300a6
:103cf00080cf500004003a009e00780050c0b3000e
:103d0000e0409800310037001000200010079800b4
:103d10002e003700ce40900050c2b30080cf50003c
:103d200006003a0010002000100798009e0078005e
:103d300030c0b300e0409800240037004e409000af
:103d4000704798009e00780060c0b300e040980083
:103d50001e003700ce409000614798001e04780096
:103d60003e0090006ffd0700304c98009e007800e8
:103d700080c0b300e04098009e0078000000eb0097
:103d8000c0009800110037001e047800640147004d
:103d90001e0078009e017800c0009000334890001b
:103da000cf0307004004980010002000100798007f
:103db0001e00780040009000e10f400003003a0030
:103dc0009e00780030c0b300e04098001e009000d4
:103dd0000000e00099ff32001e007800ce40900005
:103de00010407800b808070094ff37001e007800e4
:103df000104078008f0807000000e000100032003b
:103e00009b0607004047980020578000e10f4000c4
:103e100006003a001e007800104078003b080700ba
:103e200010002000400798000a0037001e007800ac
:103e3000ce40900010407800a3080700ebff370049
:103e40001e00780021578000110098000000eb0050
:103e5000400798004e0090004f0478000080fa0060
:103e6000000006001600fa00000f78001107980005
:103e700022079800330798000040eb00104f98008d
:103e80000000eb00600798000040eb00004f980036
:103e900032002000811b28001e0078009ff10700df
:103ea0000000e0000300320020002000100f980006
:103eb000ce0037009e007800648f40000000eb00c9
:103ec00050079800000000009e00780000c2b30078
:103ed000914f100002003a001e0fe800faff370071
:103ee0001e00780010407800604f9800ee48900067
:103ef00000c2b30080cf5000800032006e489000b6
:103f00000004e0007d0032006e489000ed4f50004c
:103f10007a0032006e489000ea4f5000770032007d
:103f2000ae0090000e489000914f50007300310099
:103f30001e4890000080fb00200f98002e08900083
:103f4000e10f50001f003200ae089000e18f5000da
:103f500004003c002e0890000000e0000500320044
:103f600061003700ae089000e28f5000210032005f
:103f70005d0037000e4890000080fb008000d000fc
:103f80001e009000008040001e0878001e0078008f
:103f900010407800604f9800ee489000f0c2b300e7
:103fa00080cf500004003200ee489000c0c5b3003e
:103fb00080cf50004c003a0010c0b300104f980062
:103fc00049003700e80147001341780002407800bb
:103fd0000080fb008000d0001e00900000804000a8
:103fe0001e0878000241e8008249780020c0b30032
:103ff000104f98001e00780010407800604f980025
:10400000ee489000f0c3b30080cf500004003200af
:10401000ee48900060c2b30080cf500006003a0026
:104020001e0078008040eb000148780010c0b3000b
:10403000104f98002c003700ee489000b0c2b3003b
:1040400080cf500004003a009e00780000c2b30008
:104050008048780024003700ee489000e0c2b300aa
:1040600080cf500007003a000e489000e14f50000a
:1040700004003a001e0fe8001e0078006007980058
:1040800019003700ee489000d0c3b30080cf500035
:1040900006003a001e0078008040eb0001487800de
:1040a00010c0b300104f98000f003700ee4890008a
:1040b000f0c2b30080cf500004003200ee48900000
:1040c000c0c5b30080cf500007003a000e489000f2
:1040d0000080fb008000d0001e00900000804000a7
:1040e0000080e9001e08e8001e0fe8001e007800ae
:1040f00010407800604f98007cff37009e007800e9
:104100000040eb0080487800be00900070c0b30013
:10411000804878006e0090000000e0001b00320034
:104120006e00900044fd0700600798000000280022
:10413000000f98000040eb00604f98006e48900020
:10414000e74f500011003e00320020008e08900022
:104150006e009000f1f007000000e00004003a005b
:104160003e009000ee4890000148780007003700bc
:104170000e08900064004000000f98006e48900008
:104180000040e800604f9800ecff37000e489000b8
:104190000004e00010003a001e0090009200200091
:1041a000c11b280010007800d5f007001e00900009
:1041b00010007800e90040000040eb0080487800e3
:1041c000be00900010c0b300804878000e489000f8
:1041d0000040e800004f98002e0090008e489000ac
:1041e000014878005e009000100f98001e089000b3
:1041f0000080fa00000006003800fa00000f780086
:104200001107980022079800330798004407980088
:104210006a00470081002000faf907000000eb0067
:10422000201f98002e0090009080fb00400120008d
:104230001df90700101f9800ae0090002e0090009e
:1042400010407800e84850002e0090009080fb005d
:104250001e009000ebf907006a0047005c000700b1
:104260009e0078006a0047001080fb0080087800fc
:10427000be0090006a00470020009000800878008f
:10428000ce0090006a00470030009000800878005f
:104290000000eb00301f98009e1890002e18900030
:1042a000808f500002003a0010002000301f98005c
:1042b0003e1890000080fa00000006003800fa0066
:1042c000881f7800000f78001107980022079800d7
:1042d0006347980044079800550798001000200095
:1042e000c8f60700607798006e709000e14f4000bc
:1042f00034003200410120006e709000ccf80700bd
:104300006e4090000080fb0068004000201f980075
:10431000ec0047000040eb00904098006c00470024
:10432000ae40900001487800ec0047000000eb0030
:10433000900098006c004700ce009000210098008b
:104340006c004700de009000310098006e40900045
:104350000081fb006c00470068004000ae00900048
:1043600067f007006c004700190007006e409000de
:104370000080fb006801400011c0b3001e007800ff
:104380006b0007006c004700ae189000eaf90700c8
:104390006c044700ae18900040012000fdf80700b3
:1043a00010049800610120006e709000a0f80700d2
:1043b0006c0047000080e80021002000def90700c3
:1043c000d4f707004f0478000080fa0000000600d0
:1043d0000200fa00881f7800000f78001e047800a1
:1043e0001e0078002000900020fc070020049800a8
:1043f0001e0478001e007800300090001bfc0700af
:10440000300498001e0478001e0078001000900010
:1044100016fc0700100498004f0478000080fa0092
:10442000000006002000fa00000f78001107980035
:1044300022079800330798006a00470041012000d6
:1044400070f907006a0047009080fb00000f200011
:104450008080600000042000808f50000300320044
:104460000000eb00700f98002e0037006a00470034
:10447000104078006f4060004200dd00f6eab700af
:10448000f6cabf008080fb000000eb0086f8070042
:1044900040079800f6cabf000080fb0046f80700fe
:1044a0004e0090000000e000030032000001eb002d
:1044b000720f98001b0037006a0047006e0007006b
:1044c0001e00e000050032009e0078006a004700f0
:1044d00000099000900990008288be009e00900024
:1044e0006a00470060019000f0019000b20098005f
:1044f000c3009800ae0090006a004700104890008a
:1045000080487800be0190006a014700f6cabf00eb
:104510008080fb00120090008109500013002000f1
:10452000730f98007e0890000080fa0000000600db
:104530001a00fa00881f7800000f780021479800c1
:104540002207980040c1b300f6eab700e600470032
:1045500050c4b30080487800e60047000040eb00fc
:1045600090409800e60047002e0090007400400044
:1045700090009800e6004700a05780000000e80087
:10458000a0578800a0009800e60047000000eb005c
:10459000b0009800e600470040c6b300804898008d
:1045a00066004700ae40900011489800e6004700c2
:1045b0000000eb00d00098006600470052548000d5
:1045c000635480006200980073009800e600470082
:1045d0001e00780030019000c00190008208980011
:1045e0009308980066004700230007002e00900003
:1045f000740140008040eb001e00780005f70700c2
:1046000066004700410120004bf90700660447009f
:10461000410120000000eb005ef807005004980004
:10462000a1002000a2c9bf0001f8070066004700f2
:104630006a004000210020003ff9070041012000ee
:10464000a2c9bf00faf707000000eb004f04780092
:104650000080fa00000006000200fa00000f780057
:10466000f6cabf000080fb001e004000d2f7070022
:104670000080fa00000006000200fa00881f78009f
:10468000000f78001e0478001e00780010009000d3
:1046900076fb0700100498001e0478001e007800c6
:1046a0002000900071fb0700200498001e04780091
:1046b0001e007800500090006cfb0700500498002a
:1046c0004f0478000080fa00000006000000fa00a5
:1046d0000080fa00000006000000fa00e602070071
:1046e000c40e0700400620000df20700a11d28009f
:1046f00080a6200098ef0700240f0700f40b0700a6
:10470000fb03070007030700d5c2bf000080fb00c2
:104710004500de000080fb00610060000000e0005a
:1047200001003a00e203070088040700defb0700ef
:1047300010558000610060000000e00004003a00b5
:1047400010c0b300a8eab7008000200050578800ce
:1047500000000000ed0b07000001be005055800076
:104760006155800000015100818159001003200033
:1047700001002000800f5100818f59000e0036008b
:10478000e20b07005055880061558800c2c2bf0087
:104790000080fb00610060000000a2006141600039
:1047a000212c200091407800e0cfb30000c06000d1
:1047b00002407000c2e2b7006e040700d5fb07009c
:1047c000d4000700a8cabf00ee4ae300e1ff3200b0
:1047d000eecabf00a8eab700601c2800ce0d070093
:1047e000a0a8200004000700701d2800ca0d0700c3
:1047f00033f00700d7ff37000a00fa00881f78005f
:10480000000f780000c1b300104f98008e80e800c0
:104810001e0078001080fb0086fa07000e80e8007a
:10482000bd0d07000040eb00004f98000e489000bf
:104830000084fb000e80e8004cef0700800f54005e
:10484000110031006902470094407800014078006f
:104850000080fb0082a62000820140000e81e8005b
:104860000e4890000080fb00020040009049780054
:104870008140e800014a78000e4890000040e800be
:10488000004f9800e9ff3700e901470093407800a6
:10489000014078000080fb0084a620000401400055
:1048a000e0c2b300004978008140e8008149780007
:1048b000060e07000004e000fdff3a00e0022000c1
:1048c000210e07008e80e8001e0078001040900046
:1048d0000080fb0057fa07000e80e8008e0d0700ed
:1048e0000040eb00004f98000e4890000084fb0051
:1048f0000e80e8001def0700800f5400110031000a
:104900006902470094407800014078000080fb0075
:1049100082a62000820140000e81e8000e4890002f
:104920000080fb0002004000904978008140e800d0
:10493000014a78000e4890000040e800004f9800bf
:10494000e9ff3700e9014700934078000140780013
:104950000080fb0084a6200004014000e0c2b300f8
:10496000004978008140e80081497800d70d0700b0
:104970000004e000fdff3a00e0022000f20d070015
:104980008e80e8001e007800204090000080fb0030
:1049900028fa07000e80e8005f0d07000040eb00da
:1049a000004f98000e4890000084fb000e80e80045
:1049b000eeee0700800f540011003100690247003d
:1049c00094407800014078000080fb0082a620001f
:1049d000820140000e81e8000e4890000080fb003c
:1049e00002004000904978008140e800014a7800c8
:1049f0000e4890000040e800004f9800e9ff3700a3
:104a0000e901470093407800014078000080fb00f6
:104a100084a6200004014000e0c2b30000497800f1
:104a20008140e80081497800a80d07000004e000fb
:104a3000fdff3a00e0022000c30d07008e80e80071
:104a40001e007800304090000080fb00f9f907005c
:104a50000e80e800300d07000040eb00004f98008a
:104a60000e4890000084fb000e80e800bfee0700b7
:104a7000800f540011003100690247009440780013
:104a8000014078000080fb0082a6200082014000e7
:104a90000e81e8000e4890000080fb0002004000fc
:104aa000904978008140e800014a78000e48900063
:104ab0000040e800004f9800e9ff370000000000c8
:104ac0001e489000ff4f50000b003e00e9014700d8
:104ad00093407800014078000080fb0084a620000d
:104ae0000401400000c2b300004978008140e800a2
:104af00081497800f2ff3700240e0700730d07008c
:104b00000004e000fdff3a004f0478000080fa0046
:104b1000000006000000fa0021ac20000018800010
:104b2000c4f907000080fa00000006000a00fa003d
:104b3000000f7800214798001e0078009000780050
:104b400000cdb30011404000304798003e40900037
:104b50000080fb00400798004e0090000000e0003d
:104b600004003200ce009000e18f5000330032008c
:104b7000540037001e80e8009000780000cdb3009c
:104b800011404000404798004e4090000080fb00dc
:104b9000300798003e0090000000e0000400320062
:104ba000be009000e18f5000100032001d00370061
:104bb000c2c2bf000080fb000000d1000080fb00eb
:104bc000610060000000a200614060000041d00070
:104bd000212c200091407800d0cfb30000c06000ad
:104be00002407000c2e2b7000e003700c2c2bf0030
:104bf0000080fb004200de000080fb0061006000de
:104c00000000a200614060004201dd00212c200074
:104c100091407800b0cfb30000c060000240700047
:104c2000c2e2b7001e007800a2002000b11f2800d9
:104c30001000780032ee0700270037002e40900069
:104c4000e24f5000180036009e007800648040005b
:104c50001000780045ee0700ff0f50000a003e00ec
:104c6000020220000102200080a6200046ee07007c
:104c70009e007800648040009000780080a62000ac
:104c800035ee0700060037009e0078006480400083
:104c9000020220009000780080a6200018ee070095
:104ca000ba0d070001003700430e07001e00780010
:104cb000a2002000b11f28001000780010ee0700ad
:104cc000050037001e007800a2002000b11f280058
:104cd000100078000aee07000080fa0000000600cd
:104ce0003c00fa00004f7800110798002207980056
:104cf0001e4078000081fb0003002000421f980046
:104d0000531f980070012000010020004e199000f0
:104d1000de199000800f5100818f590051013e0033
:104d20004e189000de189000006001001700370058
:104d300026003700a20037004a013700bd003700c7
:104d40004801370047013700460137004501370069
:104d50004401370043013700420137004101370069
:104d6000c6003700d6003700e600370029003700bc
:104d70003a0037004b0037005c0037006d00370009
:104d80007e003700f100370013013700ae009000bd
:104d900041079800c2c2bf000080fb0061006000b4
:104da0000000e0000300320012c3b300224f98005d
:104db0000200370003c3b300234f9800ae489000b1
:104dc0004e00900001487800260137002e01900027
:104dd00062079800c2c2bf000080fb000000d10043
:104de0000080fb00610060000000e0000300320072
:104df00013c3b300634f98000200370000c3b30031
:104e0000604f98006e499000ee0090008248780054
:104e100014013700ae019000030f9800c2c2bf001a
:104e20000080fb004200de000080fb0061006000ab
:104e30000000e0000300320010c3b30020579800c8
:104e40000200370001c3b30021579800ae51900013
:104e50000e09900003497800020137002e009000ef
:104e6000200f9800c2c2bf000080fb004300de009c
:104e70000080fb00610060000000e00003003200e1
:104e800011c3b300615798000200370002c3b3009a
:104e9000625798006e509000ae09900080497800eb
:104ea000f0003700ae009000410f9800c2c2bf0072
:104eb0000080fb004400de000080fb006100600019
:104ec0000000e0000300320012c3b300225f98002c
:104ed0000200370003c3b300235f9800ae58900070
:104ee0004e08900001487800de0037002e01900047
:104ef000620f9800c2c2bf000080fb004500de00c8
:104f00000080fb00610060000000e0000300320050
:104f100013c3b300635f98000200370000c3b300ff
:104f2000605f98006e599000ee089000824878000b
:104f3000cc003700ae01900003179800c2c2bf003a
:104f40000080fb004600de000080fb006100600086
:104f50000000e0000300320010c3b3002067980097
:104f60000200370001c3b30021679800ae619000d2
:104f70000e11900003497800ba0037002e0090000f
:104f800020179800c2c2bf000080fb004700de006f
:104f90000080fb000000e0000300320011c3b300fa
:104fa000616798000200370002c3b300626798008f
:104fb0006e609000ae11900080497800a900370023
:104fc000ae0090002e4090000080fb0022ac20003c
:104fd00002004000904878002e4090000080fb00c6
:104fe00023ac2000030040001004e00003003a005e
:104ff0000080eb00300798009c0037001e009000f6
:105000000000e800100798000080fb0021ac2000a1
:10501000010040001004e00003003a000081eb00b2
:1050200032079800910037001e009000300798006a
:105030008e003700ae01900043179800d5c2bf0024
:105040000080fb004500de000080fb006100600086
:105050000000e0000300320010c3b300206f98008e
:105060000200370001c3b300216f9800ae699000c1
:105070004e119000034978007a0037002e0090000e
:1050800060179800c2c2bf000080fb004700de002e
:105090000080fb000000e0000300320011c3b300f9
:1050a000616f98000200370002c3b300626f98007e
:1050b0006e689000ee11900080497800690037001a
:1050c000ae009000011f9800d4c2bf000080fb001a
:1050d0004700de000080fb000000e000030032001b
:1050e00012c3b300227798000200370003c3b30055
:1050f00023779800ae7090000e1890000148780059
:10510000580037002e019000221f9800d4c2bf0023
:105110000080fb004600de000080fb0061006000b4
:105120000000e0000300320013c3b300637798006f
:105130000200370000c3b300607798006e719000e2
:10514000ae18900082487800460037001e0090009c
:105150000000e00003003a00a1212800e0aa20009e
:10516000fdec0700ae0090002e4090000080fb0098
:10517000e3aa200003004000904878002e409000f1
:105180000080fb00e1aa2000010040001004e000c4
:1051900003003a000081eb0032079800330037002b
:1051a0001e0090000000e800100798000080fb003f
:1051b000e3aa2000030040001004e00003003a00ce
:1051c0000080eb0030079800280037001e00900098
:1051d00030079800250037001e0090000000e00016
:1051e00003003a0001222800e0aa2000daec0700c0
:1051f000ae0090002e4090000080fb00e2aa20004c
:1052000002004000904878002e4090000080fb0093
:10521000e3aa2000030040001004e00003003a006d
:105220000080eb0030079800100037001e0090004f
:105230000000e800100798000080fb00e1aa2000b1
:10524000010040001004e00003003a000081eb0080
:1052500032079800050037001e00900030079800c4
:10526000020037008081eb00330798003e00900079
:105270000080fa00000006000000fa00c002a90049
:10528000c022a900c042a900c062a900c082a90032
:10529000c0a2a900c0c2a900c202a900c222a900de
:1052a000c242a900c262a900c282a900c2a2a9008a
:1052b000c2c2a900c2e2a90070022000303a8800f0
:1052c0000000eb00203a88002ae3a800404e2800a6
:1052d000001988004040200010198800300021008b
:1052e000201988000000eb00401988002ca3a900b9
:1052f0002c83a9000002200080198800dea2a900ea
:10530000de82a80010082000c011880000002800dc
:105310008011880000402000901188000080fa0071
:10532000000006000000fa00a20aa8000080fa00af
:10533000000006000e00fa00881f7800000f7800b9
:10534000110798001e007800300798000040eb001d
:10535000004f98001e0078001040780040479800e9
:105360000004e00026003200ce409000e0c2b3000e
:1053700080cf500015003a001e00780080007800b1
:105380000040eb00804878001e0fe8009e0190006e
:105390006801470012407800804078008180fb005f
:1053a000038440000040e80000497800a20020008b
:1053b0008000eb003e0090007aec0700004c780083
:1053c0001e007800300798000b003700ce40900098
:1053d000f0c2b30080cf500004003600ce409000f1
:1053e00090c3b30080cf5000030036000000eb00f4
:1053f00050079800140037001e0fe800d5ff370053
:105400009e0090000e4890000080fb0001044000c8
:10541000a20020008000eb003e00900061ec07003d
:10542000004c78000000eb00600798000e489000e8
:10543000e34f500002003a0010002000600798007f
:105440006e009000500798005e0090004f047800b6
:105450000080fa00000006000400fa0000000000ce
:10546000130b07000004e000fdff3200240b0700cf
:10547000004f780000c3b3009e4f100006003600b6
:1054800080c3b3009e4f100003003e001e80fb004f
:1054900010079800020037009003200010079800c2
:1054a0001e0090000080fa00000006001e00fa00b6
:1054b000000f7800701d2800970a07004147280058
:1054c0001e0078000000d00001004000e1f92f002c
:1054d00001004000100078008f0a07001e017800cc
:1054e000620f980040032000ee099000808f510069
:1054f0004300320040032000ee089000808f5000ef
:105500000d003e00200320006e099000800f510026
:105510003500320020032000ee099000808f5100fa
:1055200034003e0010032000ee089000808f5000f1
:105530000a0032005c003700600320006e09900012
:10554000800f51005700320060032000ee099000e8
:10555000808f510051003900530037008e80e800e1
:10556000e054800033f707000e80e8006a0a070065
:10557000d60a07000004e000fdff3a009002200078
:10558000f10a0700d10a07000004e000fdff3a001d
:10559000a0032000ec0a0700cc0a07000004e0008a
:1055a000fdff3a0000022000e70a07000e80e80035
:1055b00041c1b300fbf607000004e0003a003200ee
:1055c0000e80e800a20020008000eb00f5eb070051
:1055d000e05488009dcabf0092eab7009ccabf0091
:1055e00093eab70030003700a0a82000500f9800c1
:1055f0000500370080a92000500f980002003700f6
:1056000040a92000500f98005e0890007afc070027
:10561000ae0a07000004e000fdff3a0090022000ff
:10562000c90a0700a90a07000004e000fdff3a00cc
:10563000a0032000c40a0700a40a07000004e00039
:10564000fdff3a0000022000bf0a07000e80e800bc
:1056500041c1b300d3f60700f60047000e80e80012
:1056600034ff07000000e00007003a00404828002f
:10567000290a07008e0a07000004e000fdff32003f
:105680009f0a0700080037005e0890003e0990005e
:10569000ce0990000288be0003003700a20aa800cd
:1056a00001003700a20aa9000080fa0000000600ed
:1056b0000200fa0000000000c0222800160a0700bd
:1056c00065ff0700000f7800900320009e0f100078
:1056d000020032001e00780074ff070080032000e3
:1056e0009e0f1000f4ff3a000080fa000000060050
:1056f0000000fa000040eb00e3eab7000040eb00d6
:10570000e2eab700100020000080fa000000060066
:105710001800fa00000f7800e2cabf006140600084
:105720000004e000030032000000eb00300f98009e
:105730004100370000782e00100f98001e007800fe
:105740001004e00003003a008080eb00310f980065
:10575000390037001e007800b7f70700000f780007
:105760000e80e800020120009e08900064eb070014
:105770000e80e8001004e0001e003a001e007800d1
:105780007aeb0700405798004e509000ec4f5000c5
:1057900002003600c0c0b300405798004e50900041
:1057a0000081fb000e80e800e40040001e0078004d
:1057b0005aeb07000000e0000a003a000e80e80003
:1057c0001000900030578800e3cabf000040e80096
:1057d000e3eab7000e80e80010009000300f980058
:1057e000150037001e08900070004000100f980050
:1057f000dbff37000e80e80041c0b30090cf1000ff
:1058000008003a000e80e80010009000e10f400010
:10581000070032000e80e80010009000100f980082
:10582000cfff37000080eb00300f980002003700f8
:105830008080eb00310f98003e0890000080fa0055
:10584000000006000000fa000040eb00e8eab700a4
:10585000e20aa900e34ae20003003200e3cabf0003
:105860000040e900e3eab7000080fa00000006000b
:105870000200fa0020578000104f78002057800067
:105880000000e8002057880030c0b3009e4f100091
:1058900006003a0020578000104f78002057800003
:1058a0000000e800205788000500370040c0b30022
:1058b0009e4f100002003a000080eb002057880045
:1058c0001e80fb000080fa00000006000000fa00c5
:1058d000e20aa800000220000080fa000000060092
:1058e0000200fa00004f7800100020000080fa004b
:1058f000000006000000fa00205780000080fa0037
:10590000000006000400fa00000f78003057800005
:10591000205788000000eb00100798000e80e80078
:1059200090007800010178008100e800010878000b
:105930009e0f510002003200cdff0700f7ff370035
:10594000205780000080fa00000006000000fa00e6
:105950000000eb00405088000a0aa80055f007003c
:105960004ced07007a070700af0007000080fa003f
:10597000000006000a00fa00000000000000eb0032
:105980003007980040508000400798004e0090007b
:10599000e30f5000730032004e009000e30f500000
:1059a00004003e004e009000e10f50000e00360053
:1059b000350037004e009000e50f50002c003200fb
:1059c0004e009000e40f50007d0036004e00900025
:1059d000e60f50005a0032004e009000e70f5000d2
:1059e0004e00320084003700e4004700809d200014
:1059f0009ff107000000e0000d003a001055800004
:105a0000610060000000e0007b003200c2f007008f
:105a10000000e00078003a006000b80050548800b0
:105a2000615488000a0aa8005ded07007200370083
:105a300010002000300798004e4090000004e00065
:105a400003003a0020002000405088006a00370020
:105a50004e409000e64f500003003a0050002000f6
:105a6000405088006400370036f1070062003700bc
:105a70000ded07000000e0005f0032000000eb00c9
:105a8000405088005c00370064014700239e2000de
:105a9000819d20000e00780062fa07000000e000ff
:105aa0001a00320010002000300798004e4090008d
:105ab000e14f500003003a003000200040508800c1
:105ac0004d0037004e409000e64f500003003a0072
:105ad0006000200040508800470037004e40900092
:105ae000f14f500003003a00700020004050880041
:105af000410037000000eb003007980011f107006b
:105b00000000eb00405088003b0037000df107001b
:105b10000000eb004050880037003700124f800033
:105b20008e007800809d2000350807000000e0000e
:105b3000310032000000eb00405088002e0037009a
:105b4000124f80008e007800809d20001d0307000a
:105b50000000e000280032000000eb004050880008
:105b6000250037000000eb0040508800114f8000f6
:105b700080022000808f50000f003e00640047002c
:105b800064a0200043a02000229e2000419e20000f
:105b900099f907000000e000070032002e00900095
:105ba000e80f500004003a00100020003007980071
:105bb0004000200040508800e2f007000e0037004f
:105bc000100020005bf007000000e0000a00320037
:105bd0003550800024508000239e2000934178009f
:105be000429e20008000eb00809d2000b3f907005a
:105bf0000000eb00405088003e0090000000e000f4
:105c00005eff3a00f8010700f8ec0700edcabf009c
:105c1000614060000004e000010032000a0aa900af
:105c20000080fa00000006000400fa000040eb00cb
:105c3000004f780050c0b3009e4f10002a003e0075
:105c40009e80fb00c00220000008b80002852000f2
:105c500000004100100798009e009000a000200066
:105c6000800878009e009000511090000000a10074
:105c7000d01098009e009000511090000010a000dd
:105c8000d01098009e009000511090000020a000bd
:105c9000d01098009e009000511090000040a1008c
:105ca000d01098009e009000511090000030a1008c
:105cb000d01098009e00900000c0eb00805098002b
:105cc0001e019000c0122000010020003011980039
:105cd000411198009e0090000000eb009008980091
:105ce0001e4fe800d3ff37000080fa0000000600d6
:105cf0000800fa00000f78000040eb0020479800f1
:105d00002e409000e54f50002f003e002e409000a6
:105d10008080fb00c00220000008b800028520003f
:105d200000004100200798002e009000a1002000f4
:105d3000908f100020003a00ae0090000000eb00b1
:105d4000800878002e0090001e0178006200980004
:105d5000ae0090000000eb00f00098002e019000d3
:105d60006000b8004001980051019800ae0090001a
:105d7000511090000000a000d0109800ae009000dc
:105d8000511090000030a100d0109800ae0090009b
:105d900000c0eb0080509800ae00900051109000c1
:105da0000010a000d01098002e4090000080fb0052
:105db00030079800060037002e4090000040e800b1
:105dc00020479800ceff3700e00f200030079800f2
:105dd0003e0090000080fa00000006000400fa0077
:105de000004f78000000eb00100798009e80fb0039
:105df000c00220000008b800028520000200400018
:105e000031002000908f100002003a0012002000a4
:105e1000120798001e0090000080fa0000000600a3
:105e20000400fa00889fbe008a1f7800004f7800a7
:105e30009e80fb00c00220000008b8000285200000
:105e400000004100100798001e0090003100200063
:105e5000908f1000070032001e00900022002000ea
:105e6000900f1100030032001e009000270407006d
:105e7000220037001e407800d60007009e009000e8
:105e80001e0190001e0490009e0490001e009000d1
:105e90000085e8000000eb00801f78008f87e80095
:105ea00000c0eb00e0ff9f0013c1b300610b900046
:105eb000f10b9000420a9000d20a90007801900005
:105ec000e90090000a007800a9020700e487570063
