:020000040000fa
:080000000002040000000000f2
:020000040000fa
:100400002fb02000807f2200000188000000000043
:10041000050007000c000700e28502000000000054
:100420000040da000000fe004440a90000162d0044
:100430000000e0000300320000002000a00188005e
:100440004440a8000000060080362a000100200079
:100450001600370062004000e080480091018800eb
:100460009001ba0062004000e080480091018800dd
:100470009002ba0062004000e08048000002eb00f9
:100480006028e10005003a008301e900070033001d
:10049000038009000059eb00040037006128e100e7
:1004a000010032000082eb00050007009101880086
:1004b0001001ba000200e000e6ff3a00000005006b
:1004c000910188008002780062004000e0804800ce
:1004d0003559ba008301e900080032002559ba00f5
:1004e0008301e900050032000400e000f4ff32005f
:1004f00015d9ba008301e900f1ff3a0000000600b7
:10050000800178000200e00003003200b159780059
:100510000201e900fdff3a00000006000200e000d1
:100520000b0032001042780091417800834f520056
:10053000030032000080eb000600390010000500c7
:100540000000e8008100e8000201e900f5ff3a0040
:100550000000eb0000000600800178000200e000cf
:1005600003003200815978000201e900fdff3a00e2
:100570000000060000017800314978003204e000f4
:10058000fdff3a0000000600800078001004e00043
:10059000020032005104e000feff3a0000805000eb
:1005a00000000600ea874700889fbe008a9fbe00c1
:1005b0008c9fbe008e1f78008006780001067800b0
:1005c0008204780000047800010037000804e80085
:1005d0001800fb00860007000000e000fbff3a0067
:1005e00098407800d0c2b30080cf500004003200a1
:1005f00000c0e900d0ef9f0080cf500002003a0019
:10060000d1ef9f000804e8000900e0004600350033
:10061000e18f54004400320040022000808f5400db
:1006200041003c000900e0000d003400f08f540050
:100630001a003a0000c3b300984f100017003a00a8
:100640009840900080c7b30080cf50001200320065
:1006500080c5b30080cf500010003a000e00370074
:1006600000c3b300984f100002003200a900200020
:100670000a0037009840900080c7b30080cf500038
:10068000040032008900200080c5b30080cf5000f4
:1006900002003a00090120000884e800d8b79f0052
:1006a00000c3b300984f100002003a00d84f10006a
:1006b000feff32006055b800080778000e003700d2
:1006c000fab79f008bbf9f00809520000042520028
:1006d000c4ef9f006149b9000a00be006200070034
:1006e0004fea97000401fb00cf91de0000054100b6
:1006f000818549000804e8001800fb004400070059
:1007000080007800090178008095200047000700ec
:10071000000278000000e000e9ff3a005fb09700b7
:10072000880f500005003a000c00e0000100320084
:100730000d0e78006000b800270037008e005400ce
:10074000d0972000694078000000fb000080500036
:10075000170033004240a9000f003c004fe997000a
:100760000200fb00cf80de000000550081805d00ac
:10077000800f5500818f5d00070039006149b90085
:100780003f0007007fb197008fb99700820f50009c
:10079000838f58000600320020022000e0578800b6
:1007a0000085eb008085eb00b3c2b300d3ef9f0060
:1007b000d0c2b3005fea9700804f520002003a00b7
:1007c00060051500e0851d000c00e000010032000e
:1007d000080e78000a00be004f0778004f06be00e2
:1007e0004f05be004f04be00af00b1000000060080
:1007f0006900e100040035006d00e10003003400f1
:100800000002b100010032000000050010000500e8
:10081000800078001104b100030035009101b1009f
:1008200001003c000050a000000006000200e000b3
:100830000500320090cf1000040032000000e800f4
:100840000201e900fbff3a000000eb000000060097
:10085000f05780000000e0000100320000000100bd
:10086000c0af200000000600020ab900001bb9005a
:100870000200b80081004200810043000000060031
:100880006022b800060220000000d0008180d20063
:100890000482d2008582d2000000a0000202520031
:1008a00083825a0003003b000202420083824a0016
:1008b0000000a1000603e900f3ff3a000000060073
:020000040000fa
:020000040002f8
:04aff800fefb00005c
:020000040000fa
:020000040002f8
:04affc007fbf000013
:020000040000fa
:100008001ead00001ead00001ead00001ead0000bc
:100018001ead00001ead00001ead00001ead0000ac
:100028001ead00001ead00001ead000006ad0000b4
:100038001ead00001ead00001ead00001ead00008c
:100048001ead00001ead00001ead00001ead00007c
:100058001ead00001ead00001ead00001ead00006c
:100068001ead00001ead00001ead00001ead00005c
:100078001ead00001ead00001ead00001ead00004c
:100088001ead00001ead00001ead00001ead00003c
:100098001ead00001ead00001ead00001ead00002c
:1000a8001ead00001ead00001ead00001ead00001c
:1000b8001ead00001ead00001ead00001ead00000c
:1000c8001ead00001ead00001ead00001ead0000fc
:1000d8001ead00001ead00001ead00001ead0000ec
:1000e8001ead00001ead00001ead00001ead0000dc
:1000f8001ead00001ead00001ead00001ead0000cc
:100108001ead00001ead00001ead00001ead0000bb
:100118001ead00001ead00001ead00001ead0000ab
:100128001ead00001ead00001ead00001ead00009b
:100138001ead00001ead00001ead00001ead00008b
:100148001ead00001ead00001ead00001ead00007b
:100158001ead00001ead00001ead00001ead00006b
:100168001ead00001ead00001ead00001ead00005b
:100178001ead00001ead00001ead00001ead00004b
:100188001ead00001ead00001ead00001ead00003b
:100198001ead00001ead00001ead00001ead00002b
:1001a8001ead00001ead00001ead00001ead00001b
:1001b8001ead00001ead00001ead00001ead00000b
:1001c8001ead00001ead00001ead00001ead0000fb
:1001d8001ead00001ead00001ead00001ead0000eb
:1001e8001ead00001ead00001ead00001ead0000db
:0801f8001ead00001ead000069
:020000040000fa
:100208001ead00001ead00001ead00001ead0000ba
:100218001ead00001ead00001ead00001ead0000aa
:100228001ead00001ead00001ead000006ad0000b2
:100238001ead00001ead00001ead00001ead00008a
:100248001ead00001ead00001ead00001ead00007a
:100258001ead00001ead00001ead00001ead00006a
:100268001ead00001ead00001ead00001ead00005a
:100278001ead00001ead00001ead00001ead00004a
:100288001ead00001ead00001ead00001ead00003a
:100298001ead00001ead00001ead00001ead00002a
:1002a8001ead00001ead00001ead00001ead00001a
:1002b8001ead00001ead00001ead00001ead00000a
:1002c8001ead00001ead00001ead00001ead0000fa
:1002d8001ead00001ead00001ead00001ead0000ea
:1002e8001ead00001ead00001ead00001ead0000da
:1002f8001ead00001ead00001ead00001ead0000ca
:100308001ead00001ead00001ead00001ead0000b9
:100318001ead00001ead00001ead00001ead0000a9
:100328001ead00001ead00001ead00001ead000099
:100338001ead00001ead00001ead00001ead000089
:100348001ead00001ead00001ead00001ead000079
:100358001ead00001ead00001ead00001ead000069
:100368001ead00001ead00001ead00001ead000059
:100378001ead00001ead00001ead00001ead000049
:100388001ead00001ead00001ead00001ead000039
:100398001ead00001ead00001ead00001ead000029
:1003a8001ead00001ead00001ead00001ead000019
:1003b8001ead00001ead00001ead00001ead000009
:1003c8001ead00001ead00001ead00001ead0000f9
:1003d8001ead00001ead00001ead00001ead0000e9
:1003e8001ead00001ead00001ead00001ead0000d9
:0803f8001ead00001ead000067
:020000040000fa
:1008c0005458000054000000485400004d0000003f
:1008d000474900004600000043470000490000006f
:1008e0004a50000047000000434c00004100000057
:1008f000574100005600000000000000000000000a
:1009000074650000787400002f7000006c610000b6
:10091000696e000000000000000000000000000000
:100920000000000000000000746500007874000002
:100930002f680000746d00006c00000000000000d3
:1009400000000000000000000000000000000000a7
:10095000696d000061670000652f00006769000095
:100960006600000000000000000000000000000021
:1009700000000000000000007465000078740000b2
:100980002f680000746d00006c0000000000000083
:100990000000000000000000000000000000000057
:1009a000696d000061670000652f00006a7000003b
:1009b000656700000000000000000000000000006b
:1009c000000000000000000061700000706c00007a
:1009d0006963000061740000696f00006e2f000001
:1009e0006a610000766100002d7600006d00000055
:1009f00061750000646900006f2f0000782d000011
:100a00007761000076650000000000000000000033
:100a100000000000000000000000000000000000d6
:100a200000000000000000000000000000000000c6
:100a300000000000000000000000000000000000b6
:100a400048540000545000002f3100002e300000a8
:100a50002034000030340000204e00006f7400008d
:100a6000206600006f7500006e6400000d0a000033
:100a70000d0a00004e6f000074200000666f000039
:100a8000756e0000642e00000d0a00000048000092
:100a900054540000502f0000312e00003020000080
:100aa00035300000332000000d0a00000d0a000060
:100ab0005365000072760000696300006520000045
:100ac000556e000061760000616900006c610000f5
:100ad000626c0000650d00000a0000004854000030
:100ae000545000002f3100002e3000002032000052
:100af00030300000204f00004b0d00000a43000082
:100b00006f6e0000746500006e7400002d740000ac
:100b100079700000653a0000200000004854000091
:100b2000545000002f3100002e3000002032000011
:100b300030300000204f00004b0d00000a44000040
:100b400061740000653a00002057000065640000f1
:100b50002c200000303500002041000070720000a1
:100b6000203200003030000036200000303200001b
:100b70003a350000333a00003035000020470000cd
:100b80004d5400000d0a0000457800007069000017
:100b900072650000733a0000205700006564000091
:100ba0002c20000030350000204100007072000051
:100bb00020320000303000003620000030320000cb
:100bc0003a350000323a000030350000204700007e
:100bd0004d5400000d0a00004361000063680000ee
:100be000652d0000636f00006e740000726f0000de
:100bf0006c3a00002070000072690000766100000d
:100c0000746500000d0a0000436f00006e74000060
:100c1000656e0000742d000074790000706500009e
:100c20003a200000000d00000a0d00000a0000003c
:100c30004745000054000000494e000044450000b4
:100c4000582e0000485400004d0000004e65000082
:100c5000772000004950000020410000646400003b
:100c600072650000737300003a200000000d000060
:100c70000a0000005443000050530000746100005b
:100c8000636b000020760000332e00003630000039
:100c90002020000020200000202000002020000054
:100ca0002020000020200000202000002020000044
:100cb00020200000004900004e440000455800007c
:100cc0002e43000047490000004300004f4e000043
:100cd00046490000472e000043470000490000003d
:100ce000494e000044450000582e000043470000d4
:100cf00049000000763300002e360000300000006e
:100d00004a7500006c2000003132000020320000e3
:100d100030300000360000000d0a00000d0a00000f
:100d20000d4d000069630000726f000063680000f1
:100d30006970000020540000435000002f4900005b
:100d400050200000436f00006e66000069670000dd
:100d500020410000707000006c69000063610000b9
:100d6000746900006f6e00002028000076330000d8
:100d70002e360000302c0000204a0000756c000068
:100d800020310000322000003230000030360000f8
:100d9000290d00000a0d00000a090000313a000088
:100da00020430000686100006e67000065200000bd
:100db000426f000061720000642000007365000053
:100dc00072690000616c0000206e0000756d00000b
:100dd00062650000722e00000d0a0000093200005a
:100de0003a20000043680000616e00006765000063
:100df0002064000065660000617500006c740000ee
:100e0000204900005020000061640000647200006e
:100e100065730000732e00000d0a00000933000006
:100e20003a20000043680000616e00006765000022
:100e30002064000065660000617500006c740000ad
:100e40002067000061740000657700006179000090
:100e5000206100006464000072650000737300008c
:100e60002e0d00000a090000343a00002043000063
:100e7000686100006e670000652000006465000086
:100e800066610000756c000074200000737500003e
:100e9000626e000065740000206d00006173000048
:100ea0006b2e00000d0a0000093500003a200000fa
:100eb000456e0000616200006c6500002044000087
:100ec0004843000050200000262000004950000048
:100ed000204700006c650000616e0000696e000034
:100ee000672e00000d0a0000093600003a200000bd
:100ef0004469000073610000626c0000652000001e
:100f00004448000043500000202600002049000013
:100f100050200000476c0000656100006e69000011
:100f20006e6700002e0d00000a090000373a00002d
:100f3000204400006f7700006e6c00006f610000bd
:100f4000642000004d50000046530000206900005e
:100f50006d610000676500002e0d00000a090000a9
:100f6000383a000020530000617600006520000040
:100f70002620000051750000697400002e0d00004d
:100f80000a0d00000a4500006e7400006572000042
:100f900020610000206d0000656e000075200000db
:100fa000636800006f69000063650000202800008e
:100fb000312d0000382900003a200000000d00000b
:100fc0000a53000065720000696100006c20000097
:100fd0004e7500006d620000657200002028000060
:100fe000000d00000a440000656600006175000005
:100ff0006c74000020490000502000004164000093
:101000006472000065730000732000002800000077
:101010000d0a00004465000066610000756c000068
:1010200074200000476100007465000077610000d3
:1010300079200000416400006472000065730000c4
:1010400073200000280000000d0a00004465000025
:1010500066610000756c000074200000537500008c
:10106000626e000065740000204d00006173000096
:101070006b200000280000000d0a0000444800001a
:1010800043500000202600002049000050200000ae
:10109000476c0000656100006e6900006e6700002b
:1010a000206500006e610000626c00006564000055
:1010b0002e0d00000a0000000d0a00004448000048
:1010c000435000002026000020490000502000006e
:1010d000476c0000656100006e6900006e670000eb
:1010e0002064000069730000616200006c6500000c
:1010f000642e00000d0a0000000d00000a520000de
:101100006561000064790000207400006f20000019
:10111000646f0000776e00006c6f00006164000077
:10112000204d00005046000053200000696d000073
:1011300061670000652000002d200000557300004d
:1011400065200000586d00006f640000656d0000b0
:1011500020700000726f0000746f0000636f000069
:101160006c2e00000d0a0000000d00000a4e000069
:101170006f77000020720000756e00006e6900003d
:101180006e67000020610000707000006c69000054
:1011900063610000746900006f6e00002e2e000075
:1011a0002e0d00000a000000df870000f18700001c
:1011b00008880000248800003c8800005c8800004b
:1011c0007d880000b58800000d0a0000496e00000f
:1011d000766100006c69000064200000696e000008
:1011e00070750000742000007265000063650000e7
:1011f0006976000065640000202d00002049000091
:101200006e7000007574000020690000676e0000b9
:101210006f720000656400002e0d00000a5000008f
:101220007265000073730000206100006e79000099
:10123000206b000065790000207400006f20000022
:10124000636f00006e740000696e00007565000039
:101250002e2e00002e0d00000a0000003c68000049
:10126000746d00006c3e00003c6800006561000089
:10127000643e00003c740000697400006c6500006e
:101280003e4d000069630000726f0000636800005b
:101290006970000020540000435000002f490000f6
:1012a0005020000053740000616300006b200000b8
:1012b000417200006368000069740000656300000b
:1012c00074750000726500003c2f00007469000016
:1012d000746c0000653e00003c2f00006865000053
:1012e000616400003e3c0000626f00006479000011
:1012f00020620000676300006f6c00006f720000e6
:101300003d220000234600004646000046460000fd
:10131000462200003e090000093c00007461000004
:10132000626c000065200000626f000072640000c3
:10133000657200003d22000030220000207700008e
:1013400069640000746800003d2200003130000034
:1013500030250000223e000009090000093c000081
:10136000747200003e09000009090000093c0000f9
:10137000746400003e09000009090000090900002a
:101380003c6900006d67000020730000726300007c
:101390003d2200004d630000687000002e670000d1
:1013a00069660000223e00003c2f0000696d0000cd
:1013b000673e000009090000090900003c2f0000f9
:1013c000746400003e09000009090000093c0000a7
:1013d00074640000207700006964000074680000f5
:1013e0003d2200003130000030250000223e000088
:1013f0000909000009090000093c000070200000f4
:10140000616c0000696700006e3d00002272000000
:101410006967000068740000223e000009090000ae
:1014200009090000090900003c6600006f6e000019
:1014300074200000736900007a6500003d220000fe
:10144000362200002066000061630000653d000058
:10145000224d000053200000536100006e73000015
:10146000205300006572000069660000223e000003
:10147000090900000909000009090000093c0000f1
:10148000623e000009090000090900000909000086
:10149000090900004d690000637200006f630000dd
:1014a000686900007020000054430000502f0000c5
:1014b000495000002053000074610000636b00007d
:1014c000090900000909000009090000093c0000a1
:1014d0002f6200003e090000090900000909000010
:1014e000093c00002f6600006f6e0000743e000093
:1014f0000909000009090000093c00002f700000e4
:101500003e09000009090000093c00002f7400009a
:10151000643e000009090000093c00002f7400002f
:10152000723e0000090900003c2f000074610000b9
:10153000626c0000653e0000090900003c74000078
:10154000616200006c650000206200006f720000a4
:1015500064650000723d000022300000222000007f
:10156000636500006c6c0000706100006464000042
:10157000696e0000673d000022300000222000005c
:10158000636500006c6c0000737000006163000014
:10159000696e0000673d000022300000222000003c
:1015a0007769000064740000683d0000223100008b
:1015b0003030000025220000206600006763000034
:1015c0006f6c00006f7200003d2200007768000021
:1015d00069740000652200003e090000090900004e
:1015e0003c7400007220000062670000636f00001e
:1015f0006c6f0000723d0000222300004646000090
:10160000303000003030000022200000666700000b
:10161000636f00006c6f0000723d000022770000d5
:101620006869000074650000223e0000090900009e
:10163000090900003c740000642000007769000084
:1016400064740000683d000022320000352500006f
:10165000223e00000909000009090000093c0000c1
:101660006120000068720000656600003d220000f5
:10167000496e000064650000782e00006874000068
:101680006d2200003e090000090900000909000060
:10169000093c0000666f00006e74000020630000cb
:1016a0006f6c00006f7200003d22000023460000b6
:1016b0004646000046460000462200003e09000063
:1016c0000909000009090000090900003c62000046
:1016d0003e4800006f6d0000653c00002f62000076
:1016e0003e0900000909000009090000093c00004a
:1016f0002f6600006f6e0000743e000009090000b4
:1017000009090000093c00002f6100003e090000ab
:1017100009090000093c00002f740000643e00002d
:1017200009090000090900003c7400006420000061
:101730007769000064740000683d000022320000f8
:1017400035250000223e00000909000009090000bb
:10175000093c00006120000068720000656600001e
:101760003d220000466500006174000075720000b3
:10177000657300002e680000746d0000223e0000ba
:101780000909000009090000090900003c66000081
:101790006f6e000074200000636f00006c6f00002b
:1017a000723d00002223000046460000464600002d
:1017b00046460000223e0000090900000909000019
:1017c00009090000093c0000623e00004665000077
:1017d0006174000075720000657300003c2f00000a
:1017e000623e000009090000090900000909000023
:1017f0003c2f0000666f00006e7400003e09000080
:101800000909000009090000093c00002f610000df
:101810003e09000009090000093c00002f74000087
:10182000643e000009090000090900003c74000042
:10183000642000007769000064740000683d0000c7
:101840002232000035250000223e00000909000078
:101850000909000009090000093c0000666f00004a
:101860006e740000206300006f6c00006f72000057
:101870003d22000023460000464600004646000088
:10188000462200003e090000090900000909000085
:1018900009090000093c0000623e0000417200009e
:1018a00063680000697400006563000074750000df
:1018b000726500003c2f0000623e00000909000034
:1018c0000909000009090000093c00002f6600001a
:1018d0006f6e0000743e0000090900000909000055
:1018e0003c2f0000746400003e090000090900005c
:1018f000093c000074640000207700006964000067
:10190000746800003d2200003235000025220000ee
:101910003e0900000909000009090000093c000017
:101920006120000068720000656600003d22000032
:10193000466f00006f740000707200006e7400004b
:101940002e680000746d0000223e000009090000ae
:101950000909000009090000093c0000666f000049
:101960006e740000206300006f6c00006f72000056
:101970003d22000023460000464600004646000087
:10198000462200003e090000090900000909000084
:1019900009090000093c0000623e00005374000089
:1019a000616300006b200000466f00006f74000050
:1019b00070720000696e0000743c00002f6200002d
:1019c0003e0900000909000009090000090900009a
:1019d0003c2f0000666f00006e7400003e0900009e
:1019e0000909000009090000093c00002f610000fe
:1019f0003e09000009090000093c00002f740000a6
:101a0000643e000009090000093c00002f7400003a
:101a1000723e0000090900003c2f000074610000c4
:101a2000626c0000653e00003c620000723e0000f7
:101a30003c7000003e54000068650000204d00002e
:101a400069630000726f0000636800006970000045
:101a50002045000074680000657200006e6500009b
:101a600074200000636f00006e740000726f00004d
:101a70006c6c00006572000073200000696e00004d
:101a8000636f0000727000006f72000061740000ec
:101a900065730000206e000065610000726c00003c
:101aa00079200000616c00006c200000457400008b
:101ab00068650000726e000065740000206200001e
:101ac0006c6f0000636b0000732000006e65000007
:101ad00063650000737300006172000079200000ec
:101ae000746f0000207400006f200000636f00001e
:101af0006d7000006c6500007465000020610000de
:101b00006e2000004574000068650000726e0000e1
:101b100065740000206900006e74000065720000aa
:101b200066610000636500002e200000204f000069
:101b30006e6c0000792000006120000066650000e6
:101b400077200000636f00006d7000006f6e000072
:101b5000656e0000747300002c20000061730000ab
:101b600020730000686f0000772c000020610000e7
:101b70007265000020720000657100007569000048
:101b800072650000642e00003c2f0000703e0000d3
:101b90003c620000723e00003c6900006d6700007e
:101ba00020730000726300003d220000454e0000db
:101bb00043320000384a000036300000436f000016
:101bc0006e6e000065630000742e0000706e0000f1
:101bd000672200003e3c0000703e00005468000098
:101be000652000004d690000637200006f63000013
:101bf000686900007020000054430000502f00006e
:101c0000495000002053000074610000636b000025
:101c10002075000073650000732000006120000043
:101c2000636f00006f700000657200006174000057
:101c300069760000652000006d7500006c7400007e
:101c400069740000617300006b6900006e6700003a
:101c5000206d000065740000686f000064200000c3
:101c6000746f000020730000657000006172000056
:101c70006174000065200000697400007365000055
:101c80006c66000020660000726f00006d2000008e
:101c900074680000652000006d610000696e00003e
:101ca00020610000707000006c690000636100003a
:101cb000746900006f6e00002e200000497400005f
:101cc000206300006c6f0000736500006c790000f9
:101cd000206600006f6c00006c6f000077730000de
:101ce0002074000068650000202600007175000067
:101cf0006f7400003b540000435000002f49000067
:101d0000507200006566000065720000656e00009c
:101d100063650000206d00006f640000656c0000ca
:101d20002e260000717500006f7400003b2000003b
:101d3000416c00006c2000006d6100006a6f0000c3
:101d400072200000636f00006d7000006f6e000075
:101d5000656e000074730000206100007265000071
:101d6000206900006e2000007365000070610000b3
:101d70007261000074650000207300006f75000040
:101d80007263000065200000666900006c65000059
:101d9000732e00003c2f0000703e00003c2f00001e
:101da000626f0000647900003e3c00002f68000074
:101db000746d00006c3e000004ff0000ffff000097
:101dc0002531000037040000ffff0000ff25000060
:101dd0003034000004ff0000ffff00002530000049
:101de00044040000ffff0000ff2500003045000014
:101df00004ff0000ffff0000253000004604000043
:101e0000ffff0000ff890000504e0000470d00005a
:101e10000a1a00000a000000000000000d4900003e
:101e2000484400005200000000020000550000007d
:101e30000001000035080000000000000000000064
:101e4000eb7100004aa9000000000000000900003a
:101e50007048000059730000000000000ec300002d
:101e6000000000000ec3000001c700006fa80000c2
:101e700064000000001600003849000044410000e2
:101e8000547800009ced00009dd900009aec000001
:101e90002a08000046790000ff970000b62f0000d6
:101ea0003a71000044050000c4290000c5ff00008d
:101eb0009db300002b150000078800005985000025
:101ec00068a50000bbc10000994c0000da82000048
:101ed000dd0e0000983e000028a30000caa4000008
:101ee0002fa30000caa400002fa30000caa4000072
:101ef0002fa30000caf40000aac3000002d0000013
:101f000059310000aae60000ebbd00001d000000f2
:101f1000ef7800001f390000ead00000c6a60000dc
:101f2000539c0000d61d000076c60000d4d10000ee
:101f3000cb1200003807000007530000a50800007e
:101f4000d5910000d7d7000013ac0000d6b8000030
:101f5000c7e1000015dc000099830000ae09000015
:101f6000d591000017d80000d36200009f550000f3
:101f7000a13a0000952a000055a800004ebc0000c0
:101f8000c0ae0000aea300002ac30000eac00000fb
:101f900031d7000085ea0000c42b0000ecea000005
:101fa00032aa000092bc0000ea4c0000aa94000093
:101fb000a13a0000f00a0000fbba00008caa000061
:101fc000ff35000020f80000b5e000007943000074
:101fd000ae0d0000d581000097d80000d76d00003d
:101fe000549d00002e2e000054d100000ac60000af
:101ff00017010000fc9f00007fde0000297b00002d
:10200000b84200002d9f0000df450000db7f00008c
:102010007c800000f7540000f1e20000fc4000006a
:1020200024e70000b8e60000be200000f61a000019
:1020300018a20000b8eb0000c712000022c4000084
:10204000ae1c0000b236000055ef00006b8c0000a3
:1020500016400000f6f20000542d0000ce71000082
:10206000cd7d000042500000bc290000cf240000bc
:10207000270a0000aae000001dc600005a930000d5
:102080000bc40000a22a0000c6250000a72a0000f9
:102090001a1a0000a3ea00007d5300004427000044
:1020a0003a550000613e00009ce20000e75c000041
:1020b00011a900002a83000050490000150a000001
:1020c0001fc300001cd1000061e500004d55000059
:1020d0006585000089cb00000f080000b4020000f5
:1020e0004f9100005741000014f8000093260000b3
:1020f000fdc9000095a80000599700001e5f000070
:1021000055ab00002c9000005250000055e4000038
:1021100055e50000acc8000035c70000d2710000d2
:10212000383d0000420100006a520000157f0000a7
:10213000b5190000dff90000822a0000750f0000c9
:10214000e789000016ab0000023500007151000065
:1021500031030000031a0000552e000025e30000a3
:102160003de900004f55000067c0000038970000af
:1021700082240000b5fa000030550000d9c20000ea
:10218000e45d0000104600002019000055ce00005c
:1021900039d70000dc970000854a00005e1500007a
:1021a000ada00000fdb90000f0f60000f3540000ff
:1021b000659f00002aa30000aa140000972a0000cf
:1021c0004a8f0000e96b000051fe0000262300004a
:1021d000cea7000024c900000c5a0000eb6f0000dd
:1021e000a688000079550000084f00003e0300005b
:1021f00003850000e82200008a3700001273000007
:102200006a7e0000efd4000056aa000092e50000ac
:10221000d2a90000549d00006cee00003eaa000010
:10222000601e00005510000096e90000cf29000054
:10223000675400006ded00004859000055aa0000e9
:10224000c0a800003adf0000dc6d000054c10000af
:10225000c4580000e5200000db90000037aa000011
:1022600076770000a4ac00001d330000a0510000f0
:10227000755c000047ca0000da4300001518000032
:102280005567000075a400002c010000559d00005a
:102290002f560000e8540000d91a000070b8000062
:1022a000a3430000b122000052950000ecbc0000e6
:1022b00057aa0000670700000daa00005c2000007c
:1022c000296c000000d50000fd980000af5b000005
:1022d000a93a0000952b0000da7e000015280000c6
:1022e00052c50000d5e70000a91a0000fb06000057
:1022f000fd600000aa20000084a60000f01a000083
:10230000a84a00002fdb0000a8d2000035f700002b
:10231000a3540000655700006d540000d57a0000fa
:10232000c9bf0000b47900007a8600007c860000f6
:10233000af640000a6930000a57200008dc40000e9
:1023400091e80000539500003b64000054b5000084
:10235000fb89000046ce0000bfbc0000411f00000a
:1023600033b70000e88e00009f4500005571000063
:10237000cd46000055bb00001f2e00005563000035
:1023800019370000b9ed000062aa00005a410000b0
:10239000134a0000a8620000f7b0000043a3000049
:1023a0000a000000a7ca0000cf4300008d11000002
:1023b0001d310000d9ee0000f09800005805000023
:1023c000687400000e270000d0950000a1510000a5
:1023d000e50f000089b100004a6e00003e7f00005a
:1023e00052b20000d5e500005aaa0000dac500008c
:1023f000487400008ef8000031aa0000907e0000b2
:10240000d8540000c9130000ab740000acc3000036
:10241000435f00004fb80000ecc60000af49000069
:1024200092ac00001c6c0000066c0000f7f300008a
:10243000a2e30000377800000b0b000045ac000061
:1024400092ae0000d1fc000058bf00005bcb000042
:10245000e5840000533500007a9800008c2a0000c3
:102460007573000042ac0000d2440000ed4900004a
:1024700084030000035500006997000046550000e2
:10248000c5dc0000346d0000a56a00006437000060
:10249000e969000019a1000095c40000aaba000073
:1024a000d1e3000064540000299a00001bde000004
:1024b000a00c000054b9000024560000419e00000a
:1024c000144f0000bac600007e0e00004514000044
:1024d000eae90000fd540000f5f200004965000043
:1024e00073de0000e46000005fd40000f6b300007b
:1024f000a89a0000dacf0000fd540000ad530000a0
:102500001eab0000e41d0000315a0000ff24000053
:10251000554f0000e86e00006d8f000069ab0000b1
:102520007c2600006c910000d20500006182000052
:1025300046d80000104800005fde00005649000049
:10254000bec4000042f2000077a900000a39000072
:1025500042cf00009c860000c2fd0000cc37000086
:1025600003030000a69900007cec0000d41d0000cd
:10257000f179000076fa0000f27a000005b9000057
:10258000738c0000585500004b66000092c4000098
:102590006c2400001f1a0000d22c0000aac000000a
:1025a0006da100000a200000fe9d0000e510000063
:1025b000dfc8000069860000714f0000fe070000c0
:1025c000010a0000472000006a5500003c0f00008f
:1025d000279e0000013d000013610000112900004a
:1025e000e1e400004eaa0000449f00001fd9000053
:1025f000072e0000be7b0000538500005ea2000095
:102600000bf10000ba41000055de000018a20000e6
:10261000a76e00005a360000f2d20000282a0000ff
:10262000fbff000017e700000199000047ed0000e4
:10263000b3f70000c42a000087530000b5760000fd
:10264000068c0000c3c30000ffa10000bfe3000030
:1026500028550000e9d7000064e0000027310000a1
:10266000d6b00000419500002a400000005d000047
:10267000a249000054250000c1b800006b4e0000c4
:102680004310000007890000c4d20000aa1900000e
:1026900030460000ea2d0000caf300002a4800007e
:1026a00007140000206b0000ee7c0000e5e2000053
:1026b00091c10000ba03000003ff0000d520000014
:1026c000a32a0000b45f0000af89000054ad0000f1
:1026d0005e0300000366000037cc00002dcf000031
:1026e000ab0a0000acc000007fbe0000fc6d000023
:1026f0004f430000699600005841000088300000f8
:1027000051680000eb5d0000421a000014df000079
:10271000be930000c0bd00005a730000a862000014
:102720009ad300005598000081fe00005fd600009b
:1027300098f30000467b000077b20000551a0000b5
:1027400025640000814100000a5500002e8f000022
:10275000550e00002a8f00003e2d0000d1770000aa
:10276000a95a0000a5620000929700008788000027
:1027700034cd00008f02000015a900003b3400009a
:10278000af120000f93100002ca300004add000068
:102790009c100000ab9000005779000022680000f8
:1027a00079550000e8c00000655400006d930000fa
:1027b00051a500006b6e00002c5200000db8000007
:1027c0000e90000051b50000932b0000c0e5000002
:1027d0008bb30000d7610000734a0000fdec0000dd
:1027e000b651000031370000981f00008f34000000
:1027f000cea80000da370000fb39000067b1000006
:102800004ad100009cc200009a4b0000e731000052
:102810009aad000029d50000bf2b0000edb30000e9
:1028200046150000c3dc0000f05a00007e0c0000da
:1028300085ef0000e755000049de000039d00000b8
:102840000fc70000a2df0000d48e00005d0800006a
:10285000bbda0000b34c0000173b00000bd20000b5
:102860007e46000023dd0000e7a900000aeb00001f
:10287000e16c0000653c0000972a0000f0080000b1
:10288000c5f600009df4000097770000110d0000d0
:1028900077de00008b3b000062b60000fe7e000089
:1028a0005e050000d1bf00002eff00005662000050
:1028b000ba520000e39900000bea000032aa0000bf
:1028c00010670000da67000087660000c07400002f
:1028d0002a120000f5c300003299000050f50000f4
:1028e0004ec20000850b0000ea760000733700003e
:1028f000943a0000e2b70000ff8100006c3d000048
:102900004c3a000071a0000058370000030300009b
:10291000ba3800009b5a000018ab0000f6510000c6
:10292000e5520000aa4600007b1b0000f5e4000011
:1029300039020000e4e60000df95000057c5000002
:1029400036360000e5550000200d00001220000082
:102950006e1900007a700000c751000005f90000f0
:102960009be4000040340000030300002e5d0000e3
:102970000303000046b600006317000016af000016
:1029800001170000658e000015b9000034af00008b
:10299000e2b600009d340000267a00005491000049
:1029a000cc4d0000d2e200004f290000429500000b
:1029b000a89b0000a15b00005ba700008ada000072
:1029c00081d8000074b7000037a300006ad8000067
:1029d0009c9800008df100008091000053c500001c
:1029e0006bdc0000ea57000014350000cb9e0000ad
:1029f0008d2a0000b1b9000063d60000806a000093
:102a0000c60500007ee10000ab7e0000a34a000086
:102a10006e6e000017550000c50c0000a865000090
:102a20007c8800002a3400006a190000556c000000
:102a3000739b0000a8820000f209000063250000db
:102a4000e323000054250000d3e10000855400007a
:102a500021ce0000af51000031030000034a000006
:102a6000e7400000ed5800007502000055f8000036
:102a7000d9a100009d85000077800000315c000036
:102a8000d5150000b2c4000064670000613e00007c
:102a900062450000ac920000e6dd0000ca7900004b
:102aa000d5190000332000007a56000048150000b8
:102ab000bcff0000c59b0000918200007e38000032
:102ac00026fd0000f203000003220000173600007c
:102ad00050250000c6ea00009bd900003a760000ad
:102ae000564e000095c30000a89200002c52000032
:102af000f98a00003d5e00004d95000003040000cf
:102b000029cc00007d8100001f47000066eb00001b
:102b1000e8d90000b1190000d02d00008c5500004c
:102b2000cd6f0000976700002a5e00003a8f00001a
:102b3000501100007753000076dd0000cdd7000073
:102b4000e0c800006c1d00003f2b0000a7610000e2
:102b5000d30c0000e8320000e717000052550000d7
:102b6000200500001e900000f4e500006d03000049
:102b700004b800007bfe00007465000033b1000063
:102b8000e6c70000e7b30000f53d000079550000fe
:102b900062630000475e000095c600002a600000e6
:102ba000fea20000a1c80000ff640000fa86000039
:102bb000f8540000cb91000034af0000faec0000a4
:102bc0000cf8000046e50000b5ab0000fe7d0000fb
:102bd00033a000008bc10000a2ff0000a2a10000f2
:102be000322f0000c4a80000ea620000f27d00005d
:102bf000aa780000e6740000b5c2000046cb0000d1
:102c00005cc40000469b0000aaac0000ed58000028
:102c1000ac8a0000a67f0000d10c000058af000075
:102c20006f540000adb20000d13200001747000021
:102c30009d3800005a97000054a500000f130000b3
:102c40000e530000f5360000915200005569000057
:102c500061540000adb200005135000097ac000097
:102c6000428b0000bc2a0000cffd0000d03f0000d6
:102c7000f3920000051d0000070000008ef2000026
:102c800030eb0000d0ce0000423000005c9e00001f
:102c900066770000741a0000555100002a96000063
:102ca0001eba0000f4b00000b5ce0000de47000000
:102cb00055f60000810700007fa70000e14d0000ed
:102cc0008cfc0000953c0000ff620000b1aa0000ef
:102cd00061a00000ed4800009a570000115b000061
:102ce000955d000048ed000027fd0000a0ca00002f
:102cf0007b5c00004695000042570000bba8000026
:102d0000a26d000056d500006b280000532500007e
:102d10001906000035aa0000da6700008daa00003d
:102d2000aea20000d8440000e3aa0000df9100003a
:102d3000a42e000092ad00000bdc0000c1ea0000f0
:102d40009f43000055bc0000b380000046f900001e
:102d5000f1cc0000b047000055fc0000dcfa000098
:102d60004c250000dd8f000080c50000a2aa0000f5
:102d700036c1000024e9000098960000942e00005f
:102d800065940000aab000006c0100008caa00004d
:102d9000b1cf000034c10000b88b0000ed4f00003f
:102da0000e5e000079ef0000d23b000031180000f9
:102db000ab740000a47400005ba6000051e50000a5
:102dc0002a54000089f9000017180000773b000022
:102dd000a8e20000c72b000041640000f849000091
:102de000aa8a00006f970000c3790000bd58000058
:102df000dbe90000249f00001166000029ed0000bf
:102e00007df600004706000035aa0000d7ad00009f
:102e100052bf0000d3b20000f5ca00000c38000019
:102e200030590000332c000087830000a5540000b7
:102e3000892f00008c3d00002c3f00004955000008
:102e40002baf00006a0e00009f5e0000b6be0000bf
:102e50003eaf00005a130000a5320000a3aa0000f4
:102e60009daa0000b99f0000ac8b0000cbb300000e
:102e700093d60000800b0000a8da0000b106000025
:102e80005c340000fdb9000019540000a9ba00002c
:102e90005e4c000017e50000d9e4000084960000b5
:102ea0003961000039a50000eaaa0000788100001d
:102eb0009a930000de1a0000665a0000a07e00000f
:102ec0008dba00009f07000040df00001855000089
:102ed000741500003b0b00003b8c00001ed6000068
:102ee00061120000bfcb0000b33f00004dd50000d1
:102ef000f3f900007d270000f2680000511900007e
:102f00007fb20000b5a80000e26d00004608000096
:102f10008d2c0000ead0000062550000d74600006a
:102f2000b2f400002897000020990000b93d00008d
:102f3000795500007e9f00000080000037a9000046
:102f4000d1bd0000a6d4000034aa0000ba360000ab
:102f5000585400002d4a0000d72b0000288700009d
:102f60006770000032270000b91d0000b66a00003b
:102f70005214000077bb00009faa0000c36c000041
:102f8000fc530000057000003a550000f9260000cf
:102f90000ae00000b51800001d8e0000d58c00006e
:102fa00046e7000084bc0000ea3000001b3e000041
:102fb00093c20000a87a000013ad00002daa000003
:102fc0005cf3000071540000a16700008daa0000ae
:102fd0003a550000a8b9000045b100002a9700004a
:102fe000513500005b730000a80a00008f710000db
:102ff000665b0000bb5b0000b2f500005c080000ef
:1030000055d30000f22a0000711d0000cbd600004d
:10301000e9da000042510000ae2c0000af2a0000a7
:10302000d027000075a0000057d30000a81a0000a8
:10303000d5110000540d0000cba80000ea54000098
:1030400035aa00000304000032aa00003a5500002f
:103050008d2a0000818c0000aa4e000055a30000bc
:103060004a200000a3aa000053d50000a8120000c7
:10307000e8d3000054dd0000626300009fb9000047
:1030800049320000aa0e0000b0b10000cfdc000001
:103090002419000055070000d8d80000676e000012
:1030a00092940000a96a00007fcd000064540000e3
:1030b0009d6600006e9200002c5600001d6000000e
:1030c000639f0000b9490000fa3400005547000032
:1030d000ae010000ffa3000037bc0000df8200004b
:1030e00064df00008518000055d400003a46000057
:1030f00055d9000025bc00002ff10000d356000078
:10310000a5b900003dcf00002c0c0000cba80000aa
:10311000ea540000dd4a000015f60000f0d300007c
:103120000d320000aa3a000055670000511500005a
:103130006640000070d1000053e10000f39e0000e3
:10314000cc6b000069c6000015ea0000d534000011
:10315000aaa80000b67c000068020000e76000003a
:1031600077ac000032aa0000fae60000e8e50000b3
:1031700094aa00005ba900005af4000030a80000e7
:1031800051d5000037a70000ab05000054b5000082
:10319000d68000004bb20000aa8b0000a88200007d
:1031a000f2c80000a86200009b330000aad2000011
:1031b0000fdd00006954000021950000e5e10000ea
:1031c000779a00000aaa0000aefc0000e4cc0000e0
:1031d000a20a00008e8b000055b7000052b5000017
:1031e00020b300003a850000aaee000012f50000ae
:1031f00050aa0000c26f0000ed8b0000fec000006e
:103200008b9e00008d71000095e600001670000096
:10321000a54f000015d9000067a80000be410000be
:103220004e270000b7ec00008c35000020030000a2
:1032300004b70000debd0000c7460000964c000049
:10324000b6a100002c34000056dd00004915000036
:10325000a95700001e55000071af00000751000083
:1032600005fe0000cf2b000000fe0000073a000022
:10327000d836000094850000cd0800006b8d00005a
:10328000aa7500004a7200009c45000055720000bb
:103290007c10000055ef000061f800003d3f000089
:1032a000bdae0000b6510000b50a0000293700008d
:1032b000ed1a000029ce00005f4f0000154000000d
:1032c000f8ab000055ce00001d1f0000ab4a000007
:1032d000a8200000dca80000f7eb00009da400007f
:1032e00019310000536c000019550000d50c000086
:1032f000aa900000b35b0000a912000056dd000098
:103300003f03000003860000779e00001b8800003a
:10331000fe7b00008a420000030400001e3400000f
:10332000aa280000ee1f0000e2310000aa260000db
:1033300009cf0000d6ff00004b320000aae20000d7
:1033400049dc0000d7d0000033fa0000164000002e
:10335000e4070000b3ff00006f520000758b00000f
:103360008da60000b9e700006ebe00002035000009
:10337000a81200003b5b0000dd250000f2540000b5
:10338000d576000092140000d4bc0000f8c60000fe
:1033900069a300006ac000009cbf0000c1000000db
:1033a000212f00000c5900006182000093380000ba
:1033b000586100008ec4000054b10000a354000006
:1033c000d4070000a73e0000e7f4000031540000dd
:1033d000859d0000cf100000dab500006d0c0000e4
:1033e0002a350000977e00009acb0000bc2a00001e
:1033f000fb250000b5a00000815500001ea70000bd
:10340000fea900007a4a0000983d0000714d0000be
:10341000734e00009f42000055980000379c00004a
:10342000235f0000f33e0000aab0000009e20000a4
:10343000bddf00006fd800004a430000964a00003c
:10344000ac7a0000ac960000b10a00008c2a0000a3
:10345000ac3c0000fac00000413e000046e700001e
:1034600065eb000039530000fd1600004a1e000005
:10347000440900004f9c000057710000bf3a000053
:1034800012cc00009a57000052f50000ce800000d8
:10349000103e0000f6fd0000ae360000ce800000b9
:1034a00045b000005ae300008102000055420000d0
:1034b000cfef0000a42a0000a4260000575000000f
:1034c000e5f6000080f50000ae0e00009c7c0000d8
:1034d000061400003a7d000025550000701f000012
:1034e000558e00003e1300006a3b0000526600004b
:1034f000eb8c0000c64200009b350000579a00008c
:103500005b120000bb63000055360000030300009f
:103510009e9d0000573d0000ef3700004135000040
:10352000b6b30000a04c000055fb0000ec6e00009c
:10353000aa2400005577000052b500000da9000034
:10354000f070000047b20000c6a10000371700006d
:103550005ae500009c360000aae800008acc000072
:10356000ed630000ca850000a5b2000051350000df
:1035700045db0000a8da00000ad5000059790000f8
:1035800055fb0000ac510000c5320000b739000007
:1035900058390000a36a00009ab6000067eb0000eb
:1035a0006bed000007bb000096ad0000f32a0000a1
:1035b000ae48000011a400002aa800005a6b0000c9
:1035c000de9b0000b5bc0000aa5f0000de370000f3
:1035d00078600000b6be0000c37c0000b06b000045
:1035e00054750000cb9f000091710000ee7d00003b
:1035f00084a4000018240000a32a0000377c0000e7
:10360000625e0000856d00007eee0000a50a0000ed
:103610009c830000f71f000028da00001e4b00000a
:10362000d50f000065eb0000b580000008c8000061
:10363000d1a1000054510000bbda00004ad50000bf
:103640004fed0000825600002f1600004f6400006e
:103650008ea40000ea8a000058550000f906000018
:103660008c240000b2c50000460700003155000060
:103670001c1300000de300002397000092d8000007
:103680003c8000002a000000b8310000af6200005a
:10369000e1d10000ea480000d03e0000a38a00000b
:1036a0006541000054540000bdd800007688000039
:1036b000da470000557c0000a63700007733000091
:1036c0006d2800002b0f0000a1a7000050c50000ce
:1036d000b3200000a6aa0000df6400003f550000f0
:1036e000581300006e9b0000ddd90000ba560000a0
:1036f00047ec0000f6cb000063550000bf09000056
:10370000e46f0000928300008d5400001d690000ea
:10371000a36100006e130000554800005ec5000064
:10372000b1300000892a0000774400005e75000077
:103730008b8d000086b900004d33000020960000fc
:10374000ad3300002ccc0000a20a00003d6b00004d
:1037500054b10000cd890000f3f500002fce000029
:1037600080f80000d9fd0000d93a0000bfea00004f
:1037700066aa0000030400005cd1000016ff0000f0
:10378000fd5e0000dce200006c9d0000d9c400007a
:10379000a8a200000b8d000055db00009f5b00001d
:1037a000b7580000c5280000a7540000dd490000fc
:1037b000d52e0000a22c0000af1a000029a700009f
:1037c00054dd000046d500003ea400009c510000de
:1037d000355200004ea900007a1f00005579000004
:1037e0005e050000d8b0000077fb0000b6190000ad
:1037f000505a00004ea900007ad000000c080000ca
:10380000feee0000a62f00006f33000048a000006d
:103810008c5b000065b50000733b0000a82300002e
:1038200096ad00004fd4000011d90000fa730000db
:10383000f812000092be0000388f000040cc00005b
:103840004d490000d50b0000578600005fcd0000f9
:1038500091a10000585500000f8500008210000063
:103860006c5400004d300000e77300009c8c000099
:10387000aa380000883c0000c70c0000aada00004b
:1038800077f6000029960000e6550000ba580000bf
:1038900019550000dae6000042760000e4ba0000a4
:1038a000543900000e5500003d3f000086be000068
:1038b000b17900003d6f0000f74e00009551000007
:1038c000a56b00002efa000058c30000f33400007e
:1038d0004fb80000c925000055b500003fc80000e2
:1038e000b17c0000068c0000ba6000001761000087
:1038f00095510000e57e000018550000147300008b
:10390000c554000051e6000055d90000f20e000039
:10391000c0150000639d0000479d0000e7090000fe
:10392000332e0000556d0000571b00005d0800009d
:10393000ca68000086b6000051350000ec3900006e
:10394000af0f00000d450000c1a600009842000026
:10395000c0df00006b78000033a3000097a30000d5
:1039600046ac0000aa5b000068fa0000a11000004d
:10397000abb400008295000051350000aa2400007d
:1039800036910000f2da00005a520000cca8000084
:103990005f9d000060e20000bc6a0000ba98000071
:1039a0005768000054d1000095990000a3810000e1
:1039b00085340000e9df0000abba000051aa000026
:1039c000218200002b8c000022a300006a9e0000d0
:1039d00090a50000169b00002b050000a33a0000f4
:1039e000ad8c0000aa66000001390000580f0000ed
:1039f0002bef00005a6200008fed0000e824000069
:103a0000aa780000d9fa0000ef510000b54e00007e
:103a100089b90000d9080000a3460000f55a00004b
:103a2000f1920000f5d5000054bd00007f48000071
:103a3000fd19000063640000a76200007af0000036
:103a400000970000fa300000d99c000073eb0000e2
:103a50009072000093a800006a3800008f5e00009a
:103a6000d8060000aafc00005df5000037f8000051
:103a7000ed670000cd940000f4c00000ecd700001a
:103a800044930000cd3900003776000061cc00007f
:103a900089ba000098760000f3d70000672700007d
:103aa00023ed0000b1390000bf550000cd570000e4
:103ab0008b28000054c500002de7000051b5000020
:103ac0002cd10000d9400000955b000092a80000b6
:103ad0009746000043e80000f7af00000ebd00006d
:103ae000f20e000055dc000022020000559000009c
:103af000bf4900000e0300000433000020b40000a2
:103b0000a9c20000c5320000d2ec0000030400008e
:103b10005ce20000c33c000095d90000bab400008c
:103b2000a3810000a41200009e7f0000202d000051
:103b3000665000002528000022520000553f00007a
:103b40002bc90000aba0000049150000af430000e6
:103b50009e710000e78d0000c2060000aaa60000ca
:103b60005aeb0000185d00004b5500003f3a000082
:103b7000247700007a1e000055de000019e60000e0
:103b800015300000aa4e0000a0ea0000f1f8000085
:103b9000f93700000dec0000bf4b000015a100003c
:103ba00089fa00000c180000cdee0000f43500008a
:103bb000a0360000556a00003360000034c50000e4
:103bc000441900001be20000c7960000bc0a000078
:103bd000a38a000099570000898a0000ba4d0000ae
:103be00054a90000ea9b00001396000053aa0000ad
:103bf0004eb90000ab540000aa160000a5eb00006f
:103c00009dbc00002a7e000086af0000d16a000043
:103c1000b8a80000dbc40000a8ea00005b8b00002d
:103c200066400000388b0000aae1000056930000b7
:103c3000a8520000dd590000209800009395000074
:103c400053aa00004e8d0000552e000084ab0000ea
:103c5000371e00006c910000fc220000348b000035
:103c6000784d00008c2a0000b4d30000942a000094
:103c7000dcdc00009250000025d40000af520000b0
:103c800075ac00008d8200002af50000a1590000eb
:103c900020a30000ea6c00001bfb0000cc8d00009c
:103ca000c8a800003adb0000c63e000073230000f5
:103cb00032aa0000ceb60000b1cf0000dc880000c0
:103cc0008caa0000b36d0000ec33000037a20000a6
:103cd0005fa50000ead80000356000005d460000e6
:103ce00015b50000895100004597000051450000be
:103cf0006d62000054d1000065540000519b00002b
:103d000018550000741900005548000093f6000093
:103d100017020000465500005746000015b5000088
:103d2000895100009574000008cf00006fc00000aa
:103d3000f35b0000eaff0000fff80000adf60000b2
:103d40005bf40000ab5400001d690000e38100003b
:103d5000c9ff0000e72000003a360000aac80000b2
:103d60004d8c0000aabc000043940000aa3900005a
:103d7000e6e60000c9a800003ac800004698000026
:103d800001630000b0c20000affa00009cfa00001e
:103d9000f48a0000a68c0000aa8300006c44000096
:103da000203d000038410000f4a8000025d90000a3
:103db0009c510000951f0000fc760000b6ee00004c
:103dc000d2190000309d0000030400008d2a00007d
:103dd0006a130000a32a0000ef100000c21a0000be
:103de000f05d0000fa710000d78000004655000029
:103df0007e2000007e120000969900005b1c0000ef
:103e0000495500005b46000055a3000009ba0000b8
:103e1000f9a900003e1200005daa00002079000010
:103e2000183c00001cba0000f4b0000005a8000017
:103e300051250000f06000005eac000082f200003e
:103e400068ff000048f0000065540000093c0000d5
:103e500050a000000afb0000691a0000675400002f
:103e60004d360000b77f00002ca7000052850000ef
:103e7000ce750000f8e10000fe910000e0cb0000ec
:103e8000a8120000782000002cea0000a7cf000054
:103e900046d500005c730000fbc70000529f000085
:103ea000aae80000108f000055e800005cb8000090
:103eb0007f240000f8320000aa030000041e000066
:103ec0008c170000195500005bcc0000ed1f0000ae
:103ed000cba9000054e10000c99400005135000056
:103ee000d9dc0000feb10000dc400000155a0000e3
:103ef00061ff000048f0000065540000093c00002c
:103f000030aa00003a820000e4950000b49b000053
:103f1000ff9f00006a860000dd560000523d000051
:103f200088be000062e60000f8b500004f460000c1
:103f3000955c000012aa0000fce10000ffff0000f9
:103f400048a30000b21e0000841600002cbf000031
:103f5000f6c90000a89200002b7100003ef9000095
:103f600012180000fb9a0000e7a70000a8aa0000b2
:103f7000bb60000054750000945200000511000061
:103f8000291800002ef10000cce600001aa800005d
:103f900020f5000080f700005b470000f78f00006d
:103fa000a551000025570000bcac0000f51c000026
:103fb00081ff0000030300007d580000ed34000085
:103fc00006a100005f5d00007f220000564d00004a
:103fd0002dfa000031aa0000a258000055a90000e7
:103fe0009dd30000528d0000555900003da30000f4
:103ff0000a7f0000f3690000aafc00001c580000c2
:104000004f9700009c5f0000d5bd00006b3b000097
:10401000c83b0000a9d40000bb7100000dd800000f
:10402000fa43000035b20000563800004adf0000b5
:10403000a6ea000028730000fbc70000b2f10000f0
:10404000e0a400004291000051b50000c3dc000074
:1040500011630000d921000084dd00002a2a00003d
:1040600082ec000064fd0000498600002346000049
:1040700082290000a3aa0000ee420000158f000074
:1040800046400000a20600002b8b0000553b0000bc
:10409000cced00001ecb0000a948000039a30000b1
:1040a0006a8f0000b9ad0000633900001b290000d1
:1040b00067540000ed310000b77300002c6500006c
:1040c000c93800008fc500008f530000b5580000ac
:1040d00064bf0000665e000034c10000bc08000040
:1040e000acc6000035e6000025df0000a60a00008f
:1040f00013e900003a260000f3b100007f2c000015
:10410000e782000065540000c92b0000b12a0000be
:104110002ab400005256000023ba0000b6e20000a4
:104120006ebb000055b90000b3800000576d000061
:1041300017df000027a30000cab90000d9d900008a
:104140009551000025af0000c4aa0000a8d00000cf
:104150004a4f0000da480000e51d00001a55000033
:10416000f24a0000ac8a00000aad0000944400004e
:104170004fba000089650000651100004a55000033
:104180005cc70000a8d20000a9a80000d04a000027
:1041900047230000731f0000b515000046150000fe
:1041a000e46f0000f29a000057eb0000d7a900006e
:1041b000726300000b400000529100005125000086
:1041c000afc40000aaa80000d04a0000537300004a
:1041d000a74100009b010000d13a00009fa700000a
:1041e000ca750000e734000076ab00007867000075
:1041f000219200002f750000bf1e0000ab7e000062
:1042000080aa00005eb00000d29a0000208d00005d
:104210002a6600002556000045850000566a000009
:104220006a700000239b0000ff5a00001dc60000ba
:1042300007460000956200006f650000ab8d00002e
:1042400083b900001229000067790000555c000066
:10425000a73e00004ae200009a790000ab5d000032
:10426000e32900009bdf0000841b0000a7b60000cc
:104270000b9a000054220000df7700007acd000086
:10428000b2190000bb950000923a0000f0c800008f
:104290005ad500008ada0000677f00008a2a0000f1
:1042a000fa6d00009751000025640000514f000096
:1042b000c29f0000326d0000b4320000aa7a0000f4
:1042c00055a8000037fd000052a400005c1b000050
:1042d0001dd5000022a30000eabf0000fcfb000087
:1042e00048390000a34a00005bed0000eba000008d
:1042f000dff30000fbf20000f458000046950000d8
:10430000ae3a0000d7b10000264f0000df3e0000ab
:104310009846000095ae0000fad70000f10b0000af
:104320006019000055ba00003a6c00006761000097
:10433000135f000046950000aee80000591300002e
:10434000030300002bb60000138100002ab2000016
:104350004b120000fd5b0000f1000000470500006b
:10436000ada20000ff32000076ab0000aa070000fb
:10437000887a0000cd6e000013790000138a0000d7
:10438000d499000084a90000a4d100004355000086
:10439000b88f000010de0000ab080000de4b00000c
:1043a00086f80000daa1000053e4000080d6000087
:1043b0006a1400008f9f0000a18a00004cca000010
:1043c00038520000cee30000f3dc00002ff80000bc
:1043d000ffc70000ff120000bf710000f9c8000015
:1043e000e2230000e37b0000ba550000e440000037
:1043f000d44a0000e4de000027440000d859000041
:1044000098370000f3950000ad9e00004f7e00003d
:104410001cab0000e24900006658000010fd0000df
:1044200087f00000512900007a01000067b6000003
:1044300012b90000f709000075ae000063760000b5
:104440009e9e0000e5150000d18d00009a1200002c
:10445000abc00000bf140000103400008ab200009e
:10446000d98f0000da4a0000eedf0000f1fa000008
:10447000ffe40000c7270000d27b0000dfbf000080
:104480008ea500006095000079d50000ff1900009e
:10449000a5580000154100000b2e000085b9000052
:1044a00051140000452300004e2b0000a17f0000a6
:1044b0001728000024bc0000fe4c000056810000bc
:1044c000d6cb00005cb0000096ed0000b1ff00000c
:1044d00007940000774600004d920000eb46000074
:1044e00091ff000068f200005a490000fdbb000087
:1044f00040e90000a41f0000018600002f6d0000ad
:104500006bbd00004c4d0000d9f70000ef830000a8
:10451000366c0000ab17000009fd0000384a0000af
:1045200025550000457a0000dced0000626e0000b9
:10453000cabe00001d29000067540000715500002c
:104540008d550000e40e000096ee00002c6c00007b
:1045500092510000c5d3000018550000cb77000031
:1045600016360000c9a80000e22900009af30000f6
:1045700000a200003f09000041cc0000ab68000031
:1045800069570000a8c90000f7ef000008b000005c
:104590008c2a0000b15000009769000079150000d6
:1045a000d18000000c0f0000a36a0000b4d9000005
:1045b0004e490000a96200005cac00006c54000091
:1045c000f68f000065dd00008303000004f90000a1
:1045d0007ca50000c3fd0000599a0000013f0000c7
:1045e000ee92000051d50000f62000009e9f0000d2
:1045f000b3c90000ba99000039680000fb710000df
:104600009768000029930000666f00005aad000013
:1046100034050000fa920000f9a100007c5d000062
:10462000bb640000543500009500000082c4000007
:104630002a650000d70f00001e09000096960000b2
:10464000cc8000009df60000278f0000654200002e
:104650000e7d0000069400005a530000ee6f00002b
:1046600097a4000054e10000030300008a9f0000ab
:10467000fcff000086b8000091bb0000507c0000e9
:1046800038420000b33d0000bd67000024da00009e
:1046900092510000f5ff0000312d00003fab0000fb
:1046a000287e0000009d0000670e0000ee1900004b
:1046b0004ba300008a260000095500001e9400004c
:1046c00092b60000e2030000042500007dbd00005a
:1046d000672c00008d2a00009a030000045400009b
:1046e000354800006950000035ea0000c3110000a1
:1046f00032aa0000681a0000a28a0000d09b0000c5
:104700005175000052ff0000ab240000a4aa000075
:10471000b2000000c2130000b0de000062e9000039
:104720009eb1000034aa0000681a000089550000fc
:1047300084de0000489b000082f700008ca500008a
:1047400051450000933000005baf00002cea0000f0
:10475000d0190000b0fb0000f5f100003d6300003f
:1047600069540000d1240000da590000a886000036
:104770001f7c000067a1000087d500003d6300009a
:1047800069540000d1d400005af0000057bf000067
:10479000ddca000048a90000577c0000ea7600004e
:1047a000bef30000b96700002c8d00002a9a0000bb
:1047b0002454000041be000005da0000a0aa000059
:1047c000a8cb0000f3e100003019000055340000d0
:1047d00035570000fc440000a89000009a510000ea
:1047e00041170000aa8b0000c6120000d0c30000d1
:1047f00068910000fb0e0000515e000083df0000a6
:10480000ffd500006a070000112200005445000097
:10481000cde80000741f0000aa1b0000c6b2000013
:10482000b83e0000fc4700007521000006ca0000e9
:10483000a8aa000095120000a1ca00006a46000064
:1048400027090000505d00003496000045ac0000d0
:1048500082e7000067ab0000b3f30000e001000056
:10486000e35d0000db3d000023d10000562f000077
:104870008c140000acd400001e40000040a00000da
:104880008a1a00008cf8000070a60000fc5400009a
:10489000977e000070de0000d32f0000514600001c
:1048a000155a00008eb2000082ee00002ae00000df
:1048b00050290000f8700000a4120000aa8a00002d
:1048c000d3f00000842c0000e6a500005d39000054
:1048d00012880000fa81000084cc00008a140000d5
:1048e000aa1b0000c6b20000cc1b000071aa000089
:1048f000de800000ee8c0000aa4e00000d320000a9
:104900002b420000a82e00001acb00003228000025
:10491000a5190000fa3b000000490000d62e000057
:10492000ebff00006a11000063100000b1330000cb
:10493000e10f0000030400004a1a00006d5100005e
:10494000731f000066720000ff370000a97e0000a0
:104950001d80000069b0000026d7000087d300004a
:1049600064bb0000a034000051ae0000837e000054
:10497000adb2000051b90000672c00008d2a000084
:104980009a8c00002a8e00008c2a00009a8c00006d
:104990002a8e00008c2a00009a8c00002a8e0000cb
:1049a0008c2a00009a8c00002a8e00008c2a0000bd
:1049b0009a8c00002a8e00008c2a00009a8c00003d
:1049c0002a8e00008c2a00009a8c00002a8e00009b
:1049d0008c2a00009a8c00002a8e00008caa00000d
:1049e000b63800003be10000f46f0000969900002b
:1049f000fbea0000f2ed0000f84d000032aa0000d2
:104a0000686a00005e070000fdae000043f200008f
:104a1000a2620000fc44000019550000267d000041
:104a2000195500005d510000821000007d7e0000dd
:104a3000924d000064570000cd7f000046950000b5
:104a400049530000234f000064b00000ec4c00000c
:104a5000ea770000a5480000234400001e4600003d
:104a6000e17800005f110000a9e200009f03000050
:104a7000040900006f270000d8990000d4ef00005f
:104a8000ed1200008ecb0000d9c3000099ff00009a
:104a9000b49f000051d50000d611000041e2000093
:104aa000082700001a82000055a10000ea970000c4
:104ab000a8e20000ec3f00004d73000062a7000078
:104ac00096850000aaaf000050650000ea2b0000a8
:104ad0000f510000133f00000304000046d5000002
:104ae000cf6800005da8000032aa00007e460000ea
:104af0000b43000095510000f5330000ca69000027
:104b00009a790000e78d00002a930000be8c000017
:104b10002a930000be8c00002a930000be8c000087
:104b20002a930000befe0000000e000037c80000ff
:104b30002b78000009a50000230000000000000001
:104b400000490000454e000044ae000042600000f5
:104b500082040000ffff0000ff3c000068740000ba
:104b60006d6c00003e3c0000686500006164000060
:104b70003e3c000074690000746c0000653e00005b
:104b80004d690000637200006f63000068690000f7
:104b90007020000054430000502f000049500000d6
:104ba0002053000074610000636b00002046000089
:104bb000656100007475000072650000733c0000c0
:104bc0002f740000697400006c6500003e3c00001a
:104bd0002f68000065610000643e00003c62000038
:104be0006f6400007920000062670000636f0000be
:104bf0006c6f0000723d000022230000464600005a
:104c00004646000046460000223e0000090900001a
:104c10003c740000616200006c65000020620000ce
:104c20006f72000064650000723d000022300000d9
:104c3000222000007769000064740000683d0000d5
:104c40002231000030300000252200003e09000023
:104c5000090900003c740000723e000009090000d0
:104c6000090900003c740000643e000009090000ce
:104c700009090000093c0000696d00006720000080
:104c800073720000633d0000224d00006368000065
:104c9000702e000067690000662200003e3c0000a4
:104ca0002f6900006d6700003e090000090900003f
:104cb000093c00002f740000643e00000909000058
:104cc000090900003c7400006420000077690000be
:104cd00064740000683d00002231000030300000a4
:104ce000252200003e090000090900000909000012
:104cf0003c700000206100006c690000676e0000dd
:104d00003d22000072690000676800007422000004
:104d10003e0900000909000009090000093c0000e3
:104d2000666f00006e74000020730000697a000056
:104d3000653d000022360000222000006661000070
:104d4000636500003d2200004d5300002053000029
:104d5000616e00007320000053650000726900005e
:104d6000662200003e090000090900000909000050
:104d7000090900003c6200003e090000090900002a
:104d80000909000009090000094d000069630000dd
:104d9000726f00006368000069700000205400001a
:104da000435000002f4900005020000053740000c1
:104db000616300006b090000090900000909000097
:104dc000090900003c2f0000623e000009090000b4
:104dd00009090000090900003c2f0000666f00006f
:104de0006e7400003e090000090900000909000076
:104df0003c2f0000703e0000090900000909000076
:104e00003c2f0000746400003e0900000909000006
:104e10003c2f0000747200003e090000093c0000b5
:104e20002f740000616200006c6500003e09000004
:104e3000093c000074610000626c00006520000005
:104e4000626f000072640000657200003d22000085
:104e50003022000020630000656c00006c700000d0
:104e600061640000646900006e6700003d2200007c
:104e70003022000020630000656c00006c730000ad
:104e800070610000636900006e6700003d22000051
:104e90003022000020770000696400007468000080
:104ea0003d220000313000003025000022200000ab
:104eb00066670000636f00006c6f0000723d0000c9
:104ec000227700006869000074650000223e00003f
:104ed00009090000093c0000747200002062000013
:104ee000676300006f6c00006f7200003d220000dd
:104ef0002346000046300000303000003022000021
:104f000020660000676300006f6c00006f72000095
:104f10003d220000776800006974000065220000ef
:104f20003e09000009090000093c0000746400000b
:104f30002077000069640000746800003d220000d2
:104f400032350000252200003e090000090900005a
:104f5000090900003c610000206800007265000043
:104f6000663d0000224900006e6400006578000084
:104f70002e680000746d0000223e00000909000048
:104f800009090000090900003c6600006f6e00007e
:104f900074200000636f00006c6f0000723d000021
:104fa0002223000046460000464600004646000018
:104fb000223e00000909000009090000090900005b
:104fc000093c0000623e0000486f00006d65000073
:104fd0003c2f0000623e00000909000009090000a2
:104fe000090900003c2f0000666f00006e7400008d
:104ff0003e09000009090000090900003c2f0000db
:10500000613e000009090000090900003c2f000072
:10501000746400003e09000009090000093c00001a
:105020007464000020770000696400007468000068
:105030003d22000032350000252200003e0900001c
:105040000909000009090000093c0000666f000022
:105050006e740000206300006f6c00006f7200002f
:105060003d22000023460000464600004646000060
:10507000462200003e09000009090000090900005d
:10508000090900003c6200003e4600006561000026
:105090007475000072650000733c00002f62000010
:1050a0003e0900000909000009090000093c000050
:1050b0002f6600006f6e0000743e000009090000ba
:1050c000090900003c2f0000746400003e09000044
:1050d00009090000093c000074640000207700000a
:1050e00069640000746800003d2200003235000051
:1050f000252200003e0900000909000009090000fe
:10510000093c000061200000687200006566000034
:105110003d22000041720000636800002e6800001c
:10512000746d0000223e000009090000090900001a
:1051300009090000093c0000666f00006e74000061
:10514000206300006f6c00006f7200003d220000c1
:105150002346000046460000464600004622000066
:105160003e090000090900000909000009090000c2
:10517000093c0000623e00004172000063680000cc
:1051800069740000656300007475000072650000ba
:105190003c2f0000623e00000909000009090000e0
:1051a00009090000093c00002f6600006f6e000036
:1051b000743e000009090000090900000909000007
:1051c0003c2f0000613e00000909000009090000b1
:1051d0003c2f0000746400003e0900000909000033
:1051e000093c00007464000020770000696400003e
:1051f000746800003d2200003235000025220000c6
:105200003e0900000909000009090000093c0000ee
:105210006120000068720000656600003d22000009
:10522000466f00006f740000707200006e74000022
:105230002e680000746d0000223e00000909000085
:105240000909000009090000093c0000666f000020
:105250006e740000206300006f6c00006f7200002d
:105260003d2200002346000046460000464600005e
:10527000462200003e09000009090000090900005b
:1052800009090000093c0000623e00005374000060
:10529000616300006b200000466f00006f74000027
:1052a00070720000696e0000743c00002f62000004
:1052b0003e09000009090000090900000909000071
:1052c0003c2f0000666f00006e7400003e09000075
:1052d0000909000009090000093c00002f610000d5
:1052e0003e09000009090000093c00002f7400007d
:1052f000643e000009090000093c00002f74000012
:10530000723e0000090900003c2f0000746100009b
:10531000626c0000653e00003c620000723e0000ce
:105320003c740000616200006c65000020620000b7
:105330006f72000064650000723d000022300000c2
:1053400022200000636500006c6c000070610000aa
:1053500064640000696e0000673d000022300000b8
:1053600022200000636500006c6c00007370000078
:1053700061630000696e0000673d0000223000009c
:10538000222000007769000064740000683d00007e
:105390002231000030300000252200003e200000b5
:1053a00020200000203c0000747200003e2000001d
:1053b000202000002020000020200000203c0000d1
:1053c00074640000207700006964000074680000c5
:1053d0003d2200003130000030250000223e000058
:1053e0003c6200003e54000068650000204d000053
:1053f00069630000726f000063680000697000005c
:10540000204500004e430000323800004a360000bc
:1054100030200000616e0000642000005049000050
:105420004331000038460000393700004a3600009a
:1054300030200000666100006d6900006c7900009a
:105440002045000074680000657200006e65000071
:10545000742000006d6f0000647500006c65000032
:10546000206f00006666000065720000733a00005d
:105470003c2f0000623e00003c2f000074640000de
:105480003e20000020200000203c00002f7400007f
:10549000723e000020200000202000003c7400002c
:1054a000723e00002020000020200000202000008c
:1054b000202000003c740000642000007769000098
:1054c00064740000683d00002231000030300000ac
:1054d0002522000020620000676300006f6c00005e
:1054e0006f7200003d2200002344000031440000a0
:1054f00031440000312200003e2a00002049000013
:10550000454500004520000038300000322e0000e4
:1055100033200000636f00006d70000061740000b4
:1055200069620000696c000069740000793c000049
:105530002f740000643e00002020000020200000a6
:105540003c2f0000747200003e200000202000006c
:10555000203c0000747200003e200000202000006b
:105560002020000020200000203c00007464000087
:105570002077000069640000746800003d2200008c
:105580003130000030250000223e00002a200000bb
:105590003130000042610000736500002d540000ae
:1055a000207000006f720000743c00002f74000037
:1055b000643e000020200000202000003c2f00005e
:1055c000747200003e20000020200000203c0000fb
:1055d000747200003e200000202000002020000007
:1055e00020200000203c00007464000020770000b0
:1055f00069640000746800003d2200003130000042
:10560000302500002220000062670000636f000068
:105610006c6f0000723d0000222300004431000046
:105620004431000044310000223e00002a200000e6
:10563000384b0000627900007465000073200000a0
:105640006f66000020530000524100004d20000012
:105650006275000066660000657200003c2f000065
:10566000746400003e20000020200000203c000068
:105670002f740000723e0000202000002020000057
:105680003c740000723e000020200000202000003a
:1056900020200000202000003c7400006420000056
:1056a0007769000064740000683d0000223100004a
:1056b00030300000252200003e2a00002049000072
:1056c0006e740000657200006e6100006c200000c6
:1056d000444d0000412000006d6f00006475000023
:1056e0006c650000206600006f72000020660000fc
:1056f00061730000742000006461000074610000a8
:10570000206d00006f760000656d0000656e000082
:10571000743c00002f740000643e0000093c00004f
:105720002f740000723e0000093c000074720000fb
:105730003e090000093c000074640000207700006e
:1057400069640000746800003d22000031300000f0
:10575000302500002220000062670000636f000017
:105760006c6f0000723d00002223000044310000f5
:105770004431000044310000223e00002a20000095
:1057800048610000726400007761000072650000eb
:1057900020610000737300006973000074650000ed
:1057a000642000004950000020630000686500008c
:1057b000636b0000737500006d20000063610000e2
:1057c0006c630000756c000061740000696f00007c
:1057d0006e7300003c2f0000746400003e20000047
:1057e00020200000203c00002f740000723e0000ca
:1057f00020200000202000003c740000723e0000c9
:105800002020000020200000202000002020000098
:105810003c7400006420000077690000647400009c
:10582000683d0000223100003030000025220000d9
:105830003e2a000020500000726f000067720000d6
:10584000616d00006d610000626c00006520000069
:105850007265000063650000697600006520000045
:10586000666900006c74000065720000732000001f
:105870006d6900006e6900006d6900007a690000c2
:105880006e670000207500006e770000616e0000fa
:10589000746500006420000070610000636b00000c
:1058a00065740000733c00002f740000643e00002b
:1058b000093c00002f740000723e0000093c00000b
:1058c000747200003e090000093c0000746400008e
:1058d0002077000069640000746800003d22000029
:1058e00031300000302500002220000062670000f7
:1058f000636f00006c6f0000723d00002223000007
:10590000443100004431000044310000223e0000d8
:105910002a20000035560000207400006f6c000043
:1059200065720000616e000074200000696e000066
:1059300070750000747300003c2f00007464000058
:105940003e20000020200000203c00002f740000ba
:10595000723e0000093c0000747200003e09000025
:10596000093c0000746400002077000069640000b6
:10597000746800003d220000313000003025000036
:10598000223e0000266e000062730000703b0000a3
:105990003c2f0000746400003e0900003c2f000012
:1059a000747200003e0900003c740000723e00006a
:1059b000090900003c7400006420000077690000c1
:1059c00064740000683d00002231000030300000a7
:1059d000252200003e090000090900003c62000089
:1059e0003e460000656100007475000072650000ad
:1059f000732000007370000065630000696600009a
:105a000069630000207400006f20000074680000cb
:105a100065200000454e000043320000384a000077
:105a200036300000206900006e6300006c750000d5
:105a3000646500003a3c00002f6200003e0900004f
:105a4000093c00002f740000643e0000093c000087
:105a50002f740000723e0000093c000074720000c8
:105a60003e090000093c000074640000207700003b
:105a700069640000746800003d22000031300000bd
:105a8000302500002220000062670000636f0000e4
:105a90006c6f0000723d00002223000044310000c2
