:100000000CEF00F000FF0000FACFF3FEFBCFF2FE92
:04001000C5EDEBF05F
:1000180000EE10F012EEECF0EE6AE550E150FCE173
:10002800E250FAE10F6A0EEE4DF08A0EEE6AE8062B
:08003800FDE10EEE4AF0040E9A
:10004000F66E000EF76E10EE03F033EC00F001EEEA
:1000500000F0BA0EF66E0F0EF76E10EE45F033ECB0
:1000600000F0FDEFEBF00900F5CFEEFFE550E150B9
:08007000FAE1E250F8E1120090
:10008000EECFE6FFE82EFCD7000C0E014D6BFF0E05
:10009000E8CFF4F1E8CFF5F1E8CFF6F1E8CFF7F1EA
:1000A000E8CFF8F1E8CFF9F101EEFAF0EE6AEE6A86
:1000B000EE6AEE6A12002CD000011B0E256F000EB6
:1000C000266F1A0E276F000E286F02ECD9F0006E13
:1000D00000C002F0036A035002102FE000011A5121
:1000E00012E11B0EE96E000EEA6E11EEF4F0060E40
:1000F00040EC00F021C0FAF122C0FBF123C0FCF17A
:1001000024C0FDF1010C010EE8CF4DFE05D0000C1E
:100110004DCEE8FF000AD0E000011B0E256F000E57
:10012000266F276B69ECD9F0006E00C002F0036AFD
:1001300003500210ECE00E014D6B010C140014C0D2
:10014000E9FF15C0EAFFEECF1AF0EECF1BF0EECFBD
:100150001CF0EECF1DF00001140E256F000E266F6F
:10016000010E276F69EFD9F0140014C0E9FF15C024
:10017000EAFF0101FA51EE1808E1FB51EE1805E122
:10018000FC51EE1802E1FD51EE180EE001EE34F0E4
:10019000FA51EE1808E1FB51EE1805E1FC51EE189A
:1001A00002E1FD51EE180AE101EEF4F016C0E1FFA4
:1001B00017C0E2FF060E40EC00F0010C000C8A862E
:1001C00093969496949A9488200EC66E9E960F01EC
:1001D000C78DC79F1D0EA1EC06F00001146F14B768
:1001E000F9D714C000F0016A001C026E011C036EF6
:1001F00002B0F0D797EC06F0010E0001156F166BF8
:100200003CECD0F0D96A480E026E020E036ED9CFD4
:1002100000F0016A2CECD0F0080E0424006E100EE1
:100220000520016ED950050D750EF324E96E010EFF
:10023000F420EA6E00C0EEFF01C0EDFFD950050DBD
:10024000790EF324E96E010EF420EA6EEF50FE0BF6
:100250000109EF6ED92A060ED964D5D70E014F6B6E
:10026000010EE8CF52FE01EE73F0EE6AEE6A000175
:10027000FD6B080EFDEC06F00001FD6B090EFDECB8
:1002800006F0070E0001FD6F0C0EFDEC06F0100EDF
:100290000001FD6F0D0EFDEC06F0070E0001FD6F75
:1002A0000A0EFDEC06F0100E0001FD6F0B0EFDECCA
:1002B00006F0080E0001FD6F040EFDEC06F0100EB6
:1002C0000001FD6F050EFDEC06F00001FD6B020E56
:1002D000FE6F62EC07F00D0E0001FD6F000EFDECED
:1002E00006F0320E0001FD6F020EFDEC06F0400E2E
:1002F0000001FD6F030EFDEC06F03F0E0001FD6FE7
:10030000090EFDEC06F0120E0001FD6F060EFDEC6D
:1003100006F00C0E0001FD6F070EFDEC06F0EE0E70
:100320000001FD6F0A0EFDEC06F0050E0001FD6FE9
:100330000B0EFDEC06F00001040EFD6F030EFE6FC8
:1003400062EC07F02AC1FDF0040EFDEC06F02BC1B3
:10035000FDF0050EFDEC06F02CC1FDF0020EFDECEB
:1003600006F02DC1FDF0030EFDEC06F02EC1FDF0F0
:10037000000EFDEC06F02FC1FDF0010EFDEC06F0C5
:10038000120EA1EC06F0E8CF50FE0001186B010E32
:10039000196F100E3FEC07F00001720E186F040E7B
:1003A000196F140E3FEC07F0000E6AEC07F0A5EF92
:1003B00007F0010EC9EC06F00030026E0230010BAE
:1003C0001200000908E01F0EA1EC06F0006E000EFE
:1003D00000A6010E120051CEE8FF0E014F6308D0B7
:1003E0001F0EA1EC06F0006E000E00A6010E12001A
:1003F000010ED96ED950050D790EF324E96E010E68
:10040000F420EA6EEF50006E00B0010CD92A060EFF
:10041000D964F0D7000C000907E01F0EA1EC06F02C
:10042000006E00B6FF0C000C010ED96ED950050D00
:10043000790EF324E96E010EF420EA6EEF50006E9F
:1004400000A016D0D950050D790EF324E96E010EE7
:10045000F420EA6EFE0EEF16D950050D790EF32446
:10046000E96E010EF420EA6EFD0EEF16D95012006F
:10047000D92A060ED964DAD7FF0CD96E080ED960D6
:100480001200D950050D790EF324E96E010EF42007
:10049000EA6EEF50FE0B0109EF6ED9CF4FFE12004E
:1004A0000E015253D8A41200010EE8CF52FE73C1C0
:1004B00000F074C101F0FF0E002400019F6FFF0ED9
:1004C0000120A06F100EA05D080ED8B49F5D04E35C
:1004D000070E9F6F100EA06F400E0001FF6F1E0EE3
:1004E00029EC07F00C0E0001FD6FFE6B62EC07F0CB
:1004F00000019F51FD6F0C0EFDEC06F00001A051B4
:10050000FD6F0D0EFDEF06F00001190EFD6F010EDF
:10051000FE6F62EC07F0190EA1EC06F00001E06F2F
:100520000E0EFD6FFE6B62EC07F00E0EA1EC06F0F6
:100530000001DE6F0F0EA1EC06F00001DF6F190E57
:10054000FD6F010EFE6F62EC07F0190EFADB000181
:10055000E019E1E10C0EFD6FFE6B62EC07F00C0E92
:10056000F0DB0001E06F0D0EECDB0001E16FDF510D
:10057000E15D02E1DE51E05D11E2DEC002F0DFC0CC
:1005800003F0E051025EE151035A070E006E100EB7
:10059000016E0250005E0350015A12000001E15149
:1005A000DF1902E1E051DE1905E1070E006E100EC1
:1005B000016E1200E0C000F0E1C001F00001DE5168
:1005C000005EDF51015AFF0E00060120016E12008D
:1005D0001A000001190EFD6F010EFE6F62EC07F0AC
:1005E000190EAFDB000901E1000C0E01525302E1CC
:1005F00057DF000C73C171F174C172F10001FD6B22
:10060000FE6B62EC07F073C1FDF0000EF6DB74C107
:10061000FDF0010EF2DB00011E0EEA6F000EEB6F23
:10062000140EEC6FED6B2DDB30C0F9F031C0FAF039
:1006300028ECDBF000C030F001C031F000EE1EF01D
:10064000EE52100EED5C080ED8B4EF5C14E200011F
:100650001EB111D0000123BF0ED0000122B90BD072
:1006600000EE20F0EE52050EED5CEF0ED8B4EF5C1C
:1006700002E2000122AFFF001EC073F11FC074F13F
:100680001AC0AAF01BC0ABF000012A0EAC6F000E1E
:10069000AD6F060EAE6FAF6BCDECD0F01CC0E1FFBE
:1006A0001DC0E2FFFF0EE76E00013151080A07E1AD
:1006B000305103E03051060AD8B430C0E7FF0E01D4
:1006C000526B010CF700020E0001FD6FFE6BFADBAE
:1006D0004FCEE8FF050D750EF324E96E010EF420F0
:1006E000EA6EEF500001FD6F020E87DB4FCEE8FF90
:1006F000050D760EF324E96E010EF420EA6EEF503C
:100700000001FD6F030E79DB4FCEE8FF050D750E7E
:10071000F324E96E010EF420EA6EEECF00F0EDCF87
:1007200001F00E0E0026000E012200010050FA27F3
:100730000150FB234FCEE8FF050D770EF324E96E41
:10074000010EF420EA6EFAC0EEFFFBC0EDFF000ED2
:10075000BEDAF7C0FCF0F8C0FDF0060E0001FE6F37
:10076000FF6BC9DA00012A0EFC6F010EFD6F060E49
:10077000FE6FFF6BC0DA080EAADA0001F95102E041
:10078000060EA5D2000EA3D2040E0001FD6FFE6B73
:1007900099DB4FCEE8FF050D750EF324E96E010ECF
:1007A000F420EA6EEF500001FD6F040E26DB4FCE01
:1007B000E8FF050D760EF324E96E010EF420EA6ED3
:1007C000EF500001FD6F050E18DB4FCEE8FF050D61
:1007D000770EF324E96E010EF420EA6EEF5000016B
:1007E000FD6F060E0ADB4FCEE8FF050D780EF324F1
:1007F000E96E010EF420EA6EEF500001FD6F070E66
:10080000FCDA4FCE51FE4FCEE8FF050D790EF324F2
:10081000E96E010EF420EA6EEF50FD0B0209EF6E57
:100820001C0E8FDA006E00A20AD0800E0001FF6F4E
:100830001F0E0FDB800E0001FF6F1F0EF4DA0A0E91
:100840000001FF6F1C0EEFDA080E0001FF6F1F0E94
:1008500000DB50CEE8FF050AD8A412001C0E71DAA6
:100860000A0B1C0EFCE06DDA006E00A21200080EEE
:100870000001FF6F1F0ED7DA0001FD6BFE6B22DB5C
:10088000000E5FDA0001DF6F010E5BDA0001E06F3E
:10089000060E57DA0001E16F070E53DA0001E26F2E
:1008A000E14BE22BE151FD6F000EA7DA0001E251AE
:1008B000FD6F010EA2DA0001E30EEA6F000EEB6F8E
:1008C000070EEC6FED6BDDD90001DE6B1C0E39DA23
:1008D000006E00A238D00001E6AB35D0800E0001DA
:1008E000FF6F1F0EB6DA800E0001FF6F1F0E9BDA3E
:1008F0000A0E0001FF6F1C0E96DA080E0001FF6F52
:100900001F0EA7DA1C0E1DDA0A0BFCE0080E000110
:10091000FF6F1F0E88DA0001E151FD6F000E6DDAE6
:100920000001E251FD6F010E68DA0001E30EEA6F8B
:10093000000EEB6F070EEC6FED6BA3D90001DE2B01
:100940000F0EDE65C3D70001DF51FD6F000E55DAD3
:100950000001E051FD6F010E50D2A00071C100F006
:1009600072C101F00001A0510026A1510122140E14
:100970000024A26F000E0120A36F100EA35D080ECD
:10098000D8B4A25D04E3F80EA227EF0EA323000162
:10099000FD6BFE6B97DA0001A251FD6F000E2DDAA0
:1009A0000001A351FD6F010E28DA0001A251FD6F75
:1009B000020E23DA0001A3512ED0F700D96ED9CF51
:1009C0004FFED950050D750EF324E96E010EF4208B
:1009D000EA6EEECF00F0EDCF01F00F0E0026000E14
:1009E000012200010050F7270150F823020EFD6F8D
:1009F000FE6B68DA0001F751FD6F000EFED90001B1
:100A0000F851FD6F010EF9D90001F751FD6F020E8B
:100A1000F4D90001F851FD6F030EEFD1500071C100
:100A200000F072C101F00001505100265151012225
:100A3000140E0024546F000E0120556F100E555DEA
:100A4000080ED8B4545D04E3F80E5427EF0E552376
:100A5000100E0001FD6FFE6B35DA00015451FD6F81
:100A6000100ECBD900015551FD6F110EC6D90001F2
:100A7000FF0E5225006EFF0E5321016E00505427C9
:100A800001505523100E555D080ED8B4545D04E393
:100A9000F80E5427EF0E552300015451FD6F120E2E
:100AA000ACD900015551FD6F130EA7D9300E0001CE
:100AB000FF6F1F0ECED91F0E44D9006E00BAFBD7B0
:100AC000160E3FD90001556F170E3BD90001546F28
:100AD00054C000F055C001F01200F7004FCEE8FFFF
:100AE000050D750EF324E96E010EF420EA6EEECFCB
:100AF00000F0EDCF01F00001F7510026F85101227E
:100B00000F0E0024FB6F000E0120FC6F100EFD6F16
:100B1000FE6BD8D90001FB51FD6F100E6ED900019C
:100B2000FC51FD6F110E69D90001FF0EF925006E11
:100B3000FF0EFA21016E0050FB270150FC23FB51F0
:100B4000FD6F120E5AD90001FC51FD6F130E55D9DD
:100B5000300E0001FF6F1F0E7CD91F0EF2D8006E01
:100B600000BAFBD7160EEDD80001FC6F170EE9D8BE
:100B70000001FB6FFBC000F0FCC001F01200DE00C2
:100B80000001DF51DE1104E1FF0E00680168120070
:100B90000001DE05DF1106E161D8016E006A001E6A
:100BA000011E12000001FD6BFE6B8CD9000EC9D82E
:100BB0000001E06F010EC5D80001E16FE051FD6F4B
:100BC000100E1BD90001E151FD6F110E16D9000165
:100BD000100EE15D080ED8B4E05D14E2FF0EDE25D4
:100BE000006EFF0EDF21016E0050E0270150E1236F
:100BF000100EE15D080ED8B4E05D0FE3F80EE027BB
:100C0000EF0E0AD00001FF0EDE25006EFF0EDF2181
:100C1000016E0050E0270150E1230001E051FD6F1B
:100C2000120EEBD80001E151FD6F130EE6D8300E25
:100C30000001FF6F1F0E0DD91F0E83D8006E00BA82
:100C4000FBD7160E7ED80001E06F170E7AD8000190
:100C5000E16FE0C000F0E1C001F012008A969E96BC
:100C60003A0EC96E9EA6FED7C950D96E9E96C96A25
:100C70009EA6FED7C950D96E9E968A86D95012007C
:100C8000EA008A969E963A0EC96EF36AF46AEAC042
:100C9000E1FFEBC0E2FFE5529EA6FED7C950D96E38
:100CA0009E960001ED51F45C02E1EC51F35C09E227
:100CB000C96AF34AF42AE6529EA6FED7C9CFE7FFD7
:100CC000EFD78A86F3CF00F0F4CF01F01200D96E8F
:100CD0008A969E967A0EC96E9EA6FED7C950E16E80
:100CE0009E96D950C96E9EA6FED7C950D96E9E96C3
:100CF0008A861200FC008A969E967A0EC96EFCC007
:100D0000E1FFFDC0E2FF9EA6FED7C950D96E9E96B8
:100D10000001FF51FE1109E0E750C96EE652FE07DF
:100D2000D8A0FF079EB6F1D7FDD78A8612008A9613
:100D30009E96C9689EA6FED7C950D96E9E968A8691
:100D400012008A969E96C96E9EA6FED7C950D96E8D
:100D50009E96C96A9EA6FED7C950D96E9E968A866F
:100D6000D95012008A969E96C96E9EA6FED7C9508B
:100D7000D96E9E96C96A9EA6FED7C950D96E9E9618
:100D8000C96A9EA6FED7C950D96E9E968A86D9504A
:100D9000120000011A6F140EFD6F020EFE6F92D842
:100DA00000011A51FD6F140E28D8010E0001FD6FCD
:100DB000120E23D800010A0EFD6F030EFE6F82D8BB
:100DC0000A0ED0DF006E00B0FBD70001140EFD6FDD
:100DD000020EFE6F77D80001FD6B120E0ED8180EB2
:100DE000C1DF00011B6F190EBDDF00011C6F1BC0AE
:100DF00000F01CC001F01200FD00D96E8A969E968C
:100E0000D9504009C96E9EA6FED7C950D96E9E968C
:100E10000001FD51C96E9EA6FED7C950D96E9E969F
:100E20008A861200FF00D96E8A969E96D950A00934
:100E3000C96E9EA6FED7C950D96E9E960001FF517D
:100E4000C96E9EA6FED7C950D96E9E968A8612009C
:100E5000FF00D96E8A969E96D9508009C96E9EA6CB
:100E6000FED7C950D96E9E960001FF51C96E9EA64D
:100E7000FED7C950D96E9E968A86120018000001CE
:100E80001A6F140EFD6F020EFE6F1CD800011A516E
:100E9000FD6F140EB2DF00011851FD6F160EADDFAD
:100EA00000011951FD6F170EA8DF00010A0EFD6F3A
:100EB000030EFE6F07D80A0E55DF006E00A0120069
:100EC000FAD7FD00030E0001FF6F1F0EACDF00011B
:100ED000FE513DD00001156F0C0EFF6F1F0EA3DFFA
:100EE000000E57DF00C016F001C017F000011551C9
:100EF000020A04E11751010B156F0CD000011751C4
:100F00001519FE0B1519176F16C018F017C019F038
:100F1000000EB5DF0001020EFD6FFE6FD3DF020E83
:100F200021DFE16E0001E1501519FE0B1519E16E8C
:100F3000E150FD6F020E61DF0001155102E1120E5A
:100F400001D0150EFD6F040E58DF040E0001FF6F77
:100F50001F0E7FD7040E0001FF6F1F0E64DF1D0EF2
:100F6000F0DE006E00B4FBD71F0EEBDE006E00B6A5
:100F7000FBD7200E0001FF6F1E0E6BD7200E000165
:100F8000FF6F1E0E50DF1D0EDCDE006E00A0FBD7D3
:100F9000DCD7E16E0001150EFD6F030EFE6F92DFD0
:100FA000E1500001FD6F150E28D70001150EFD6FF1
:100FB000030EFE6F87DF150EC4D619100A10051038
:100FC0000F10001014101E1092102A104310D11090
:100FD00067107D10B610AA104D103A1077125012FB
:100FE0000A0A050F0004A3000000FFFFFF000A0A21
:100FF00005010000000000000000000000000400E7
:10100000504F5254005155495400504153530053CE
:10101000544F520041424F52005553455200323214
:10102000302052656164790D0A00323330204C6FF4
:101030006767656420696E0D0A00323030206F6B7F
:101040000D0A00323231204279650D0A000D0A3254
:101050003236205472616E7366657220436F6D7014
:101060006C6574650D0A00353032204E6F7420694E
:101070006D706C656D656E7465640D0A0035333096
:10108000204C6F67696E2072657175697265640DB9
:101090000A003333312050617373776F72642072AA
:1010A000657175697265640D0A0031323520446FCF
:1010B0006E652E0D0A00313530205472616E7366F4
:1010C000657272696E6720646174612E2E2E0D0A3E
:1010D00000353030200D0A005458540048544D005B
:1010E00047494600434749004A504700434C4100A6
:1010F0005741560000000000746578742F706C61D1
:10110000696E000000000000000000007465787443
:101110002F68746D6C0000000000000000000000EB
:10112000696D6167652F6769660000000000000057
:1011300000000000746578742F68746D6C00000006
:101140000000000000000000696D6167652F6A7093
:101150006567000000000000000000006170706C16
:1011600069636174696F6E2F6A6176612D766D00B7
:10117000617564696F2F782D7761766500000000D6
:10118000000000000000000000000000000000005F
:101190000000000000000000485454502F312E3051
:1011A00020323030204F4B0D0A436F6E74656E74E1
:1011B0002D747970653A2000485454502F312E30E8
:1011C00020323030204F4B0D0A446174653A20576D
:1011D00065642C203035204170722032303036204A
:1011E00030323A35333A303520474D540D0A457880
:1011F00070697265733A205765642C203035204140
:10120000707220323030362030323A35323A303552
:1012100020474D540D0A43616368652D636F6E74FA
:10122000726F6C3A20707269766174650D0A436F53
:101230006E74656E742D747970653A20000D0A0D18
:101240000A0047455400494E4445582E48544D0025
:10125000485454502F312E3020353033200D0A0D94
:101260000A5365727669636520556E617661696CB3
:1012700061626C650D0A00485454502F312E3020A5
:10128000343034204E6F7420666F756E640D0A0D15
:101290000A4E6F7420666F756E642E0D0A004E65DF
:1012A0007720495020416464726573733A20000DC1
:1012B0000A00494E4445582E43474900434F4E4685
:1012C00049472E43474900494E4445582E43474914
:1012D00000667470006D6963726F63686970000DF9
:1012E0000A0D0A0D4D6963726F636869702054437B
:1012F000502F495020436F6E666967204170706CB3
:1013000069636174696F6E202876332E36302C2025
:101310004A756C2031322032303036290D0A0D0AE0
:1013200009313A204368616E676520426F617264DB
:101330002073657269616C206E756D6265722E0D29
:101340000A09323A204368616E6765206465666108
:10135000756C7420495020616464726573732E0D3E
:101360000A09333A204368616E67652064656661E7
:10137000756C74206761746577617920616464724B
:101380006573732E0D0A09343A204368616E6765F0
:101390002064656661756C74207375626E65742077
:1013A0006D61736B2E0D0A09353A20456E61626CD2
:1013B000652044484350202620495020476C6561F1
:1013C0006E696E672E0D0A09363A204469736162B0
:1013D0006C652044484350202620495020476C65C6
:1013E000616E696E672E0D0A09373A20446F776E79
:1013F0006C6F6164204D50465320696D6167652EA6
:101400000D0A09383A205361766520262051756906
:10141000742E0D0A0D0A456E7465722061206D658B
:101420006E752063686F6963652028312D38293A0D
:101430002000D114BA149E14E31454153315FB1470
:1014400074150D0A496E76616C696420696E707559
:1014500074207265636569766564202D20496E701D
:1014600075742069676E6F7265642E0D0A5072651F
:10147000737320616E79206B657920746F20636FC0
:101480006E74696E75652E2E2E0D0A004A756C20DD
:10149000313220323030360076332E3630000D0AAD
:1014A00044656661756C7420476174657761792065
:1014B000416464726573732028000D0A4465666197
:1014C000756C7420495020416464726573732028E0
:1014D000000D0A53657269616C204E756D6265720C
:1014E0002028000D0A44656661756C74205375628E
:1014F0006E6574204D61736B2028000D0A52656182
:10150000647920746F20646F776E6C6F6164204D16
:1015100050465320696D616765202D205573652005
:10152000586D6F64656D2070726F746F636F6C2E91
:101530000D0A000D0A4448435020262049502047F8
:101540006C65616E696E672064697361626C656465
:101550002E0D0A000D0A44484350202620495020F1
:10156000476C65616E696E6720656E61626C65646B
:101570002E0D0A000D0A4E6F772072756E6E696E21
:1015800067206170706C69636174696F6E2E2E2EB6
:041590000D0A000040
:020000040001F9
:10A02200D96E390ED96401D006D0300ED96001D074
:10A0320002D0D8801200D8901200EFCF00F0EE2AA2
:10A04200EFCF01F0000EEE22EFCF02F0EE22EFCFC3
:10A0520003F0EE22120002500002F3CF04F0F4CF1C
:10A0620005F002500102F350052603500002F3509E
:10A0720005261200150000011551006E1651016EE1
:10A082001507000E165B01500010D8B41200040E22
:10A09200D96ED906D928EFE0900E006E010E016E3E
:10A0A200000E026A036A0006D8A00106D8A00206C2
:10A0B200D8A00306EEE3F7D7790ED66EFE0ED76E62
:10A0C200070ED56E0F01D58FF285F28B1200F8C202
:10A0D20000F0F9C201F0FAC202F0FBC203F0120072
:10A0E2000F01F2A51200FE0ED76E790ED66E020196
:10A0F200F82B000EF923FA23FB230F01F29512002D
:10A10200A400A4C0D9FFA5C0DAFF0001A6C0F6FFD3
:10A11200A7C0F7FFA64BA72BD9CFE9FFDACFEAFFFB
:10A12200D94ADA2A0F0EF76403D00800F55005D099
:10A13200F6CFE1FFF7CFE2FFE750EF6EEF50E5E138
:10A14200A4C000F0A5C001F01200AE00AEC0F3FF43
:10A15200AFC0F4FFF3CFF6FFF4CFF7FFF34AF42AD0
:10A162000F0EF76403D00800F55005D0F6CFE9FFD3
:10A17200F7CFEAFFEF500009EDE1F3CF00F0F4CFA3
:10A1820001F00001AE51005EAF51015AFF0E000610
:10A192000120016E1200AA00ACC0F3FFADC0F4FFB3
:10A1A200AAC0D9FFABC0DAFF0001AE51006EAF51B9
:10A1B200016EAE07000EAF5B0150001019E0F3CF45
:10A1C200F6FFF4CFF7FFF34AF42AD9CFE9FFDACF4B
:10A1D200EAFFD94ADA2A0F0EF76403D00800F550D5
:10A1E20005D0F6CFE1FFF7CFE2FFE750EF6EDCD705
:10A1F200AAC000F0ABC001F01200066A046A056A48
:10A202000250031003E1006A016A000C1F0E0612DD
:10A21200D890062A02360336FCE303320232025099
:10A22200005C0350015804E3016E0250005ED880C6
:10A2320004360536062E06BAF0D706AE05D0041E41
:10A24200042AD8B40506051F0450026E0550036E99
:10A2520006AC000C001E002AD8B40106011E000C38
:10A26200AE0005D00001AE4BAF2BB04BB12B0001BD
:10A27200B207B22925E0B0C0F6FFB1C0F7FF0F0E5A
:10A28200F76403D00800F55005D0F6CFE9FFF7CF09
:10A29200EAFFEF50016EAEC0F6FFAFC0F7FF0F0E40
:10A2A200F76403D00800F55005D0F6CFE9FFF7CFE9
:10A2B200EAFFEF50006E0150005CD96ED950D2E037
:10A2C2000001B307B329D3E1D9CF00F0016A00BE80
:10A2D200010612001B001BC0D9FF1CC0DAFF0001DF
:10A2E20020511F111DE01F07D8A020071DC0F6FF37
:10A2F2001EC0F7FF1D4B1E2BD9CFE9FFDACFEAFFB5
:10A30200D94ADA2A0F0EF76403D00800F55005D0B7
:10A31200F6CFE1FFF7CFE2FFE750EF6EEF50DFE15C
:10A3220000011F51006E2051016E1F07000E205BBD
:10A332000150001008E0D9CFE9FFDACFEAFFD94A8D
:10A34200DA2AEF6AEDD71BC000F01CC001F0120040
:10A35200370037C0F6FF38C0F7FF0F0EF76403D09F
:10A362000800F55005D0F6CFE9FFF7CFEAFFEF502E
:10A37200D96ED950200A03E0D950090A04E100013C
:10A38200374B382BE6D700013B6B3C6B396BD9500E
:10A392002D0A02E1392B1BD0D9502B0A1AE10001F8
:10A3A20016D00A0E026E036A3BC000F03CC001F0F8
:0EA3B2002CECD0F000013A510424006E000E95
:10A3C0000520016ED00E00243B6FFF0E01203C6F74
:10A3D000374B382B37C0F6FF38C0F7FF0F0EF76446
:10A3E00003D00800F55005D0F6CFE9FFF7CFEAFF1C
:10A3F000EF5000013A6F3A5111ECD0F0D3E2000176
:10A4000039513BC000F007E03CC001F0001E011EC6
:10A41000004A012A12003CC001F012000F01000E98
:10A42000ACA3010E12004F0EAB160F01AC9BCF0E6A
:10A430009D1612009E38006E0030010B1200AE50C7
:10A440001200AD6E12001400D96A14C0E1FF15C0ED
:10A45000E2FF00011651D95CD8B01200EBDF000911
:10A46000FDE0EDDFE96EE9CFE7FFE652D92AF1D74B
:10A470003700D4DF0009FDE137C0E9FF38C0EAFF4B
:10A48000EF50DFDF37C0E9FF38C0EAFF0001374B8C
:10A49000382BEF50D8B41200ECD73000BFDF0009E2
:10A4A000FDE130C0F6FF31C0F7FF0F0EF76403D0B7
:10A4B0000800F55005D0F6CFE9FFF7CFEAFFEF50DF
:10A4C000C0DF000130C0F6FF31C0F7FF304B312B49
:10A4D0000F0EF76403D00800F55005D0F6CFE9FF62
:10A4E000F7CFEAFFEF500009D8B41200D7D78A8817
:10A4F000939894969488949A210EC66E9E960F0116
:10A50000C78DC79F1200A200A2C0F4F2A3C0F5F24B
:10A510000201B40EF66F0E0EF76F000C0201F75138
:10A520000E0AB40ED8B4F61916E1F4C2AEF0F5C2B4
:10A53000AFF00001A80EB06F0E0EB16F0C0EB26F2F
:10A54000000E14D802010C0EF427000EF523A80EFD
:10A55000F66F0E0EF76FF6C2E9FFF7C2EAFF0201CF
:10A56000F64BF72BEF501200000CAE008A98030E4A
:10A57000C96EB0C0E1FFB1C0E2FF9EA6FED7C950D0
:10A58000D96E9E960001AF51C96E9EA6FED7C950E6
:10A59000D96E9E960001AE51C96E9EA6FED7C950D7
:10A5A000D96E9E960001B207B22906E0C96A9EA63E
:10A5B000FED7C9CFE6FFF5D78A88000CC100C1C01D
:10A5C000F4F2C2C0F5F20201A80EF66F0E0EF76F9C
:10A5D000000CD96EF6C2E9FFF7C2EAFFD9CFEFFF50
:10A5E0000201F62B000EF723F7510E0AB40ED8B471
:10A5F000F619D8B40AD8000C0201F7510E0AA80EB9
:10A60000D8B4F619D8A401D8000C8A98060EC96EE1
:10A610009EA6FED7C950D96E9E968A888A98020E49
:10A62000C96E9EA6FED7C950D96E9E96F5C2C9FFC7
:10A630009EA6FED7C950D96E9E96F4C2C9FF9EA6AB
:10A64000FED7C950D96E9E96A80E006E0E0E016EF2
:10A6500000500201F65DD96ED95002EEF4F0EE26FC
:10A66000000EED22A80EF66F0E0EF76FD906D92850
:10A6700010E0F6C2E9FFF7C2EAFFEF50C96E02012F
:10A68000F62B000EF7239EA6FED7C950E16E9E96CC
:10A69000EDD78A880201A80EF66F0E0EF76F000E36
:10A6A00004D80009D8B41200FAD78A98050EC96EEA
:10A6B0009EA6FED7C950D96E9E96C96A9EA6FED7A1
:10A6C000C950D96E9E968A88D9A0000C040C00014E
:10A6D00016691769186919691A691B6930C104F08C
:10A6E00031C105F032C106F033C107F0041E051E6A
:10A6F000061E071E01EE26F030C1E8FFEE14006EC4
:10A7000031C1E8FFEE14016E32C1E8FFEE14026EB3
:10A7100033C1E8FFED14036EED52ED52045000100A
:10A720001C6F055001101D6F065002101E6F075060
:10A7300003101F6F2C0E296F0B0E2A6F160E2B6F36
:10A74000000E2C6F5F0E2D6F760E2E6FE5ECDEF097
:10A750000001146F1429D8B4120014C0D6FE010EE3
:10A76000E1EC01F00009F9E04D0E4DECDFF0410E97
:10A770004DECDFF0430E4DECDFF0200E4DECDFF042
:10A78000410E4DECDFF0640E4DECDFF0640E4DEC4D
:10A79000DFF0720E4DECDFF0650E4DECDFF0730E66
:10A7A0004DECDFF0730E4DECDFF03A0E4DECDFF0C8
:10A7B000200E4DECDFF00001156B0001155101EE8C
:10A7C0002AF0E926000EEA22EF5004ECDBF04DEC13
:10A7D000DFF00001155101EE2AF0E926000EEA2211
:10A7E000EF5016ECDBF04DECDFF00001152B1551AE
:10A7F000060A04E02D0E4DECDFF0DFD72E0E4DECF7
:10A80000DFF0200E4DECDFF04D0E4DECDFF0790E59
:10A810004DECDFF0200E4DECDFF0490E4DECDFF09B
:10A82000500E4DECDFF0200E4DECDFF0410E4DEC04
:10A83000DFF0640E4DECDFF0640E4DECDFF0720ED5
:10A840004DECDFF0650E4DECDFF0730E4DECDFF0FC
:10A85000730E4DECDFF0200E4DECDFF0680E4DEC8A
:10A86000DFF0610E4DECDFF0730E4DECDFF0200EEB
:10A870004DECDFF0630E4DECDFF0680E4DECDFF0D9
:10A88000610E4DECDFF06E0E4DECDFF0670E4DEC1F
:10A89000DFF0650E4DECDFF0640E4DECDFF02E0EB8
:10A8A0004DECDFF0D3ECDFF00001145140EFDFF0AE
:10A8B0001A000001280EEA6F000EEB6F080EEC6F15
:10A8C000ED6B41EC06F00001246B256B140E506F0C
:10A8D000516B1EC0E9FF1FC0EAFFEF50526F536B70
:10A8E0000FEC05F000C026F001C027F01EC0E1FF0C
:10A8F0001FC0E2FFF80EE7261CC0EAF01DC0EBF017
:10A90000E7500001EC6FED6B41EC06F00001280E02
:10A91000506F000E516F8FD81AC0E9FF1BC0EAFFBD
:10A9200028C0EFFF20C0E9FF21C0EAFF2CC0EEFFE6
:10A930002DC0EDFF22C0E9FF23C0EAFF2EC0EEFFCD
:10A940002FC0EDFF000127512611000ED8B4010ED3
:10A9500012001A00010E0BEC02F00001246F2429F2
:10A96000D8B41200140EF76FF86B2451DEEC04F02B
:10A970000001080E1F25256F266B000E2623286B6D
:10A980001C51276F296B2A6B20C02BF021C02CF0A3
:10A9900022C02DF023C02EF02F0EAA6F000EAB6F39
:10A9A0001DC0ACF01EC0ADF01F51AE6FAF6BCDEC53
:10A9B000D0F00001270E506F000E516F3CD81AC026
:10A9C000DEF01BC0DFF0010E0001E06F080E1F2556
:10A9D000E16FE26B000EE22330ECD8F00001270EAD
:10A9E000FC6F000EFD6F25C0FEF026C0FFF07BEC73
:10A9F00006F0140E0001F76FF86B25C0F9F026C0C1
:10AA0000FAF06EEC05F000C029F001C02AF0160E35
:10AA10000001F76FF86B2451DEEC04F00001290E01
:10AA2000FC6F000EFD6F020EFE6FFF6B7BEC06F0FD
:10AA3000C4EF03F05000000100EE04F05051E9268D
:10AA40005151EA22EECFF9F0EDCFFAF028ECDBF02D
:10AA5000000100EE04F05051E9265151EA2200C0F5
:10AA6000EEFF01C0EDFF00EE06F05051E926515116
:10AA7000EA22EECFF9F0EDCFFAF028ECDBF000019E
:10AA800000EE06F05051E9265151EA2200C0EEFFD7
:10AA900001C0EDFF00EE02F05051E9265151EA22CB
:10AAA000EECFF9F0EDCFFAF028ECDBF0000100EE8C
:10AAB00002F05051E9265151EA2200C0EEFF01C0D8
:10AAC000EDFF12000E01B46B0E01B581DFEC00F05A
:10AAD00045EC00F0CAECDEF0DEEFF0F00001146BA4
:10AAE000F1D00001EA0E1A6F010E1B6F150E1C6FDC
:10AAF000000E1D6FE9EC02F0006E00C002F0036A68
:10AB00000350021013E101013EA1F3D0D9EC01F092
:10AB1000000901E0EED001EE26F0EE6AEE6AEE6A80
:10AB2000EE6A0E01B58159ECE2F0E3D0010E0001AE
:10AB3000146F155102E1020E3BD000011551060AB7
:10AB400002E1050E35D050EC02F0D3D05BEC00F002
:10AB5000000901E1CED033D00001160E1A6F000EAD
:10AB60001B6FEA0E1C6F010E1D6F150E1E6F000E7F
:10AB70001F6FE40E206F010E216FBBECD7F0006E4B
:10AB800000C002F0036A035002101CE0010E000135
:10AB9000146F150502E1030E0BD000011551060AD2
:10ABA00002E1060E05D000011551110A04E1070E5D
:10ABB000E8CFB4FE9ED00001146B50EC02F00E0101
:10ABC000B46B97D050EC02F0FAD70001EA0E1A6F7E
:10ABD000010E1B6F160E1C6F000E1D6F00EE1EF097
:10ABE000E4C1EEFFE5C1EDFFD6ECE0F011D00001CD
:10ABF000EA0E1A6F010E1B6F160E1C6F000E1D6FF2
:10AC000000EE1EF0E4C1EEFFE5C1EDFFAAECF6F0A8
:10AC1000006E00C002F0036A035002109AD70E01C2
:10AC2000B46B0101000EE55D290ED8B4E45D27E2A6
:10AC30000001150E1A6F000E1B6FB60E1C6F0E0E64
:10AC40001D6FE40E1E6F010E1F6FE60E206F010ECA
:10AC5000216FE80E226F010E236F59ECD4F0006EC5
:10AC600000C002F0036A0350021009E00001155110
:10AC7000080A05E1010E146F040EE8CFB4FE50EC93
:10AC800002F037D0010EE1EC01F00009000132E0E2
:10AC9000EA0E1A6F010E1B6F1C6BB60E1D6F0E0EA7
:10ACA0001E6FE4C11FF000EE20F0E6C1EEFFE7C129
:10ACB000EDFF00EE22F0E8C1EEFFE9C1EDFFAAECE6
:10ACC000D4F07DD7B4CEE8FF000A01E10AD7010A2B
:10ACD00001E107D7030A01E13FD7010AA0E0070A13
:10ACE000D1E0010A01E132D7030A81E0010A01E162
:10ACF0006CD70001145101E0F1D6FFECF4F070ECD8
:10AD0000E2F00E014CA112000E01B59112000E01ED
:10AD1000A76B0E01A66B180E77ECD2F0010C9A000F
:10AD20000E01A6A103D0006A016A1200200E0001E4
:10AD30009D6F9E6B9AC0E9FF9BC0EAFFEF5004E154
:10AD4000FF0E0068016812009AC0AEF09BC0AFF021
:10AD5000DFECDBF000C09AF001C09BF09DC0AEF0CC
:10AD60009EC0AFF000019F0EB06F000EB16F0F0ECE
:10AD7000B26FA00EB6ECD2F000019F5132E19AC042
:10AD8000AEF09BC0AFF0A7ECD0F0005000019C6F7C
:10AD90000C0E9C6501D09C6F9AC0AEF09BC0AFF0CA
:10ADA0000001A20EB06F000EB16F9C51B26FB36B79
:10ADB00032ECD1F0015000100EE1A0C010F0A1C0A3
:10ADC00011F00E01010EA72B00EEA0F0EECF00F067
:10ADD000EDCF01F012000F0E00019D27000E9E2303
:10ADE000BDD700019F51040A0DE100EEA0F0EE5224
:10ADF000ED1CFF0ED8B4EF1809E0A0C09DF0A1C073
:10AE00009EF0ACD7FF0E006801681200FF0E0068CC
:10AE1000016812000E01A56B0E01A6910E01A75349
:10AE2000D8B41200010EA7071200A000A0C012F0B3
:10AE3000A1C013F0A0C0A2F0A1C0A3F0A00E84ECAA
:10AE4000D2F0006E00C002F0036A03500210000E40
:10AE5000D8B4010E12008EECD2F00001A06F0001F8
:10AE6000122B000E13230001A051030A09E18EECFE
:10AE7000D2F00001A06F0001122B000E132309D0A5
:10AE80000001A051040A05E1FF0EE8CF12F0E8CF5F
:10AE900013F00001A0511200B4ECD2F012C000F087
:10AEA00013C001F012000E01A681200E006E016A8F
:10AEB0001200BF00BFC012F0C0C013F0BFC0A5FE9B
:10AEC0000E013F0EA517BFC0C1F0C0C0C2F0A00E5A
:10AED000DFECD2F0006E00C002F0036A03500210F3
:10AEE000000ED8B4010E12000001BF6FBF51E9EC93
:10AEF000D2F0000901E0000C0E01A52B0001122B7D
:10AF0000000E13233F0E0E01A565010C08D812C0D8
:10AF1000C1F013C0C2F0A00EDFECD2F0010C0E01A4
:10AF2000A56BFCECD2F0A00E55ECD3F00009FBE1D0
:10AF300012C000F013C001F01200140010C0A0F005
:10AF400011C0A1F073DF0001146B156B00011451E7
:10AF5000006E1551016E144B152B151902E1145199
:10AF6000001802E078DFF2D797DF12C000F013C0BC
:10AF700001F012001A000001240EEA6F000EEB6FC0
:10AF8000140EEC6FED6B41EC06F000012451F00B58
:10AF9000400A01E0000C24C000F00F0E0016D8900B
:10AFA0000036D8900034E8CF87FE0001506B516B1B
:10AFB00087CE52F0536B0FEC05F000C022F001C0B9
:10AFC00023F087CEE8FF0001A06FA16BAEEC04F088
:10AFD00000012351221101E0000C0001240EF76F43
:10AFE000000EF86FC7D81AC0E1FF1BC0E2FFE250A5
:10AFF000E1100CE0E1CFE9FFE2CFEAFF34C0EEFF61
:10B0000035C0EEFF36C0EEFF37C0EEFF000100EEA8
:10B0100006F01C51E9261D51EA2230C0EEFF31C076
:10B02000EEFF32C0EEFF33C0EEFF1EC0E9FF1FC0CF
:10B03000EAFF2DC0EFFF87CEE8FF00EE26F0EECF4F
:10B0400000F0EDCF01F0005E000E015A20C0E9FFD4
:10B0500021C0EAFF00C0EEFF01C0EDFF010CDE00E1
:10B06000140EE8CF87FE450E0001E36FE46B140E6B
:10B07000E125E56F000EE221E66F0101FE2B000ED7
:10B08000FF2300EEE7F0FEC1EEFFFFC1EDFF000180
:10B09000E96BEA6B640EEB6FE051EC6FED6BEE6BFE
:10B0A00000EEEFF026C1EEFF27C1EEFF28C1EEFF54
:10B0B00029C1EEFF00EE06F0DE51E926DF51EA225B
:10B0C000EECFF3F0EECFF4F0EECFF5F0EECFF6F0FA
:10B0D000E30EF76F000EF86F4DD8DEC0F7F0DFC05B
:10B0E000F8F00001F96B140EE125FA6F000EE22171
:10B0F000FB6F63EC03F00001E30EFC6F000EFD6FCD
:10B10000140EFE6FFF6B7BEC06F00001F76BF86B23
:10B11000140EF96FFA6B6EEC05F000C0EDF001C093
:10B12000EEF00A0E0001F76FF86B4FCEE8FFDEEC91
:10B1300004F00001ED0EFC6F000EFD6F020EFE6FBD
:10B14000FF6B7BEC06F0140E0001F76FF86B4FCE2F
:10B15000E8FFDEEC04F0006A016A12009E0087CE70
:10B16000E8FF00019E25A06F000E9F21A16FAEEFAA
:10B1700004F0F700000100EE02F0F751E926F85163
:10B18000EA22EECFF9F0EDCFFAF028ECDBF0000187
:10B1900000EE02F0F751E926F851EA2200C0EEFF76
:10B1A00001C0EDFF00EE04F0F751E926F851EA2264
:10B1B000EECFF9F0EDCFFAF028ECDBF0000100EE75
:10B1C00004F0F751E926F851EA2200C0EEFF01C071
:10B1D000EDFF00EE0AF0F751E926F851EA22EECF32
:10B1E000F9F0EDCFFAF028ECDBF0000100EE0AF008
:10B1F000F751E926F851EA2200C0EEFF01C0EDFF49
:10B20000120025000001290EEA6F000EEB6F1C0EE4
:10B21000EC6FED6B41EC06F050EC02F00001290EF2
:10B22000456F000E466F05D900EE29F0EE50010A79
:10B23000ED1007E100012D51060A03E12E51040A29
:10B2400001E0000C27C0E1FF28C0E2FF25C0D9FFC4
:10B2500026C0DAFF00EE2FF0EE50020AED1002E1F8
:10B26000000E07D000EE2FF0EE50010AED1003E1C2
:10B27000010EE76E03D0020EE76E000C01EE26F021
:10B280000001EE50411908E1EE50421905E1EE507F
:10B29000431902E1EE5044191AE1310EE96E000E35
:10B2A000EA6ED9CFE1FFDACFE2FF060E40EC00F004
:10B2B00000EE06F0D950E926DA50EA2237C0EEFF58
:10B2C00038C0EEFF39C0EEFF3AC0EEFF010C000CB3
:10B2D0002500010E0BEC02F00001286F282901E186
:10B2E000000C0001F76BF86B2851DEEC04F0010E46
:10B2F0000001296F2A6B2B6B080E2C6F060E2D6F29
:10B30000040E2E6F25C0D9FF26C0DAFF27050AE1FB
:10B31000010E2F6F306B3B693C693D693E693F69A7
:10B3200040690FD0020E00012F6F306BD9CFE9FFBB
:10B33000DACFEAFF3B0EE16E000EE26E060E40EC45
:10B3400000F02A0EE96E010EEA6E310EE16E000E7B
:10B35000E26E060E40EC00F000EE37F026C1EEFF84
:10B3600027C1EEFF28C1EEFF29C1EEFF00EE06F077
:10B37000D950E926DA50EA220001EE503719006E62
:10B38000EE503819016EEE503919026EED503A192F
:10B39000036EED52ED5230C1E8FF0014046E31C16E
:10B3A000E8FF0114056E32C1E8FF0214066E33C1D6
:10B3B000E8FF0314076E07500410051006100BE099
:10B3C00000EE41F034C1EEFF35C1EEFF36C1EEFFB5
:10B3D00037C1EEFF0ED000EE06F0D950E926DA5064
:10B3E000EA22EECF41F0EECF42F0EECF43F0EECFC7
:10B3F00044F00001290E456F000E466F1AD8000177
:10B400003B0EF76F000EF86F060EF96F1C0EFA6F09
:10B41000FB6B63EC03F00001290EFC6F000EFD6F67
:10B420001C0EFE6FFF6B7BEC06F0C4EC03F0010C0E
:10B43000450045C0E9FF46C0EAFFEECFF9F0EDCF89
:10B44000FAF028ECDBF045C0E9FF46C0EAFF00C097
:10B45000EEFF01C0EDFF000100EE02F04551E926CC
:10B460004651EA22EECFF9F0EDCFFAF028ECDBF00E
:10B47000000100EE02F04551E9264651EA2200C0E3
:10B48000EEFF01C0EDFF00EE06F04551E926465102
:10B49000EA22EECFF9F0EDCFFAF028ECDBF0000174
:10B4A00000EE06F04551E9264651EA2200C0EEFFC3
:10B4B00001C0EDFF120030000001346B0AD0000122
:10B4C000342B30C0E9FF31C0EAFF33C0EFFF304B0F
:10B4D000312B00013207322913E030C0E9FF31C0BF
:10B4E000EAFFEF6A1AECD2F00009FCE01FECD2F0A0
:10B4F0000001336F33510D0A03E033510A0ADFE1D3
:10B500000001345112003700E96A39C0E1FF3AC046
:10B51000E2FF00013851371144E0D96A100EF66E8F
:10B52000270EF76EF6CF02F0F7CF03F037C000F02A
:10B5300038C001F0FEECD0F004C03BF005C03CF098
:10B5400000013C513B11D8B4E95019E0E1CFE9FFCB
:10B55000E2CFEAFFE14AE22A3B51300FEF6EF6CF2D
:10B5600002F0F7CF03F03BC000F03CC001F02CEC40
:10B57000D0F00450375F0550385B010EE96E0A0EBB
:10B58000026E036AF6CF00F0F7CF01F0FEECD0F0C8
:10B5900004C0F6FF05C0F7FFD92A040ED964C2D74C
:10B5A00008D0E1CFE9FFE2CFEAFFE14AE22A300E1C
:10B5B000EF6E000EE76A1200A000460E0001A165C2
:10B5C00002D0E00EA127460E0001A06502D0E00ED9
:10B5D000A027390E0001A16502D0C90E02D0D00EFD
:10B5E0000001A127390E0001A06502D0C90E02D0CA
:10B5F000D00E0001A027A1C000F0003AF00E001606
:10B600000001A05100101200D96ED93A0F0ED916C0
:10B610000A0ED96002D0300E01D0370ED9CF00F01B
:10B62000016A0026000E012200501200D96E0F0E92
:10B63000D9160A0ED96002D0300E01D0370ED9CFFC
:10B6400000F0016A0026000E012200501200F900ED
:10B65000F9C0FBF0FAC0FCF00001FC51D96EFB51BF
:10B66000FC6FD950FB6FFBC000F0FCC001F0120072
:10B67000E000E0C0E4F0E1C0E5F0E2C0E6F0E3C0E5
:10B68000E7F0E40ED96E000EDA6E00EE03F0D9504A
:10B69000E926DA50EA22EF50E16E00EE03F0D950CD
:10B6A000E926DA50EA22DFCFEFFFE1CFDFFF00EE3D
:10B6B00002F0D950E926DA50EA22EF50F36E10EE8C
:10B6C00001F0D950E126DA50E22200EE02F0D95022
:10B6D000E926DA50EA22E7CFEFFF00EE01F0D95079
:10B6E000E926DA50EA22F3CFEFFFE4C000F0E5C02C
:10B6F00001F0E6C002F0E7C003F01200DE00000136
:10B70000E66BE76BE86BE96BD890E131F46EE03102
:10B71000F36EDEC0E1FFDFC0E2FFF350006EF450D5
:10B72000016EF306000EF45A0150001018E0E1CF4C
:10B73000E9FFE2CFEAFF020EE126000EE222EECFA1
:10B7400000F0EDCF01F0026A036A00010050E62725
:10B750000150E7230250E8230350E923DED700011C
:10B76000E0A109D0E750E627010ED8B0E727D8B00E
:10B77000E827D8B0E927E6C0E2F0E7C0E3F0E8C088
:10B78000E4F0E9C0E5F0E4C0F3FFE5C0F4FFF450F5
:10B79000F3100EE00001E86BE96BE651F324E66F6D
:10B7A000E751F420E76FE86BD8B0E82BE96BE3D7FB
:10B7B0000001E61D006EE71D016E1200AE00AEC076
:10B7C000E1FFAFC0E2FFE750D96ED9500AE0600E4A
:10B7D000D96405D07B0ED96002D0E00EE726E65290
:10B7E000F2D7AEC000F0AFC001F01200150E00019C
:10B7F000156F166B37ECF1F0E8CF57FE0E015A6B60
:10B800000E01586B0E01556B0101140ECE6F000E28
:10B81000CF6B120057CEE8FF60ECF2F000090CE1AC
:10B820000E01586B070EE8CF53FE0E015A6B0E0146
:10B83000556B0E015B6B010C57CEE8FFF0ECF4F09A
:10B84000000947E068ECD0F000C0D2F101C0D3F1AC
:10B8500002C0D4F103C0D5F10001140E9A6F000E9E
:10B860009B6F57CEE8FF98ECF4F0006E00C002F03A
:10B87000036A0350021011E058CEE8FF0EEE66F0A6
:10B88000E926000EEA2214C0EFFF0E01582B58CE15
:10B89000E8FF1F0AE1E1586BDFD757CEE8FF2BEC3A
:10B8A000F4F0000114510A0A01E0BDD058CEE8FFBF
:10B8B0000EEE66F0E926000EEA22EF6A0E01586BE2
:10B8C00025DAD6C11BF0D7C11CF0FCD9E8CF53FE56
:10B8D000AAD00E015A5301E1A6D068ECD0F000C006
:10B8E00015F001C016F002C017F003C018F0150ED5
:10B8F000E96E000EEA6ED2C1E8FFEE5ED3C1E8FF4A
:10B90000EE5AD4C1E8FFEE5AD5C1E8FFED5AED5228
:10B91000ED520001000E185D08E1000E175D05E113
:10B92000460E165D02E1500E155D7DE368ECD0F029
:10B9300000C0D2F101C0D3F102C0D4F103C0D5F1EF
:10B94000020EE8CF53FE010EE8CF5AFE6CD00E0176
:10B95000566B68ECD0F000C0D2F101C0D3F102C048
:10B96000D4F103C0D5F157CEE8FF7FECF3F0000926
:10B9700001E1010C56CEE8FF020D0C0EF324E96E36
:10B98000010EF420EA6EEECF19F0EDCF1AF00001AF
:10B9900019C0F6FF1AC0F7FF194B1A2B0F0EF764E8
:10B9A00003D00800F55005D0F6CFE9FFF7CFEAFF46
:10B9B000EF50146F145108E000011451A06F57CEDE
:10B9C000E8FFA7ECF3F0E3D757CEE8FFE3ECF2F0A3
:10B9D0000B0EE8CF56FE010EE8CF5AFE53CEE8FF1D
:10B9E000070A29E053CEE8FF27D8000914E056CE15
:10B9F000E8FF0B0A04E0040EE8CF5AFE06D053CE4F
:10BA0000E8FF020A02E10E015A6B070EE8CF53FE6F
:10BA10000E015B6B010C56CEE8FF0B0A0CE0040E26
:10BA2000E8CF5AFEA0D75ACEE8FF000A90E0010AFC
:10BA3000D5E0050A98E0010CD96E58D00E01558169
:10BA40005593010EE8CF56FE00015C0E1B6F0E0EE3
:10BA50001C6F00EE1DF0D8C1EEFFD9C1EDFF0A0E3C
:10BA60001F6F206B6CECD1F0010C0E0155B102D0B0
:10BA7000060E17D000015C0E1B6F0E0E1C6F00EE41
:10BA80001DF0D8C1EEFFD9C1EDFF25ECEEF0006E40
:10BA900000C002F0036A03500210EAE00E01558371
:10BAA000020EE8CF56FE010C2FD0E0C137F0E1C105
:10BAB00038F0AAECD1F000C0CFF1E2C137F0E3C119
:10BAC00038F0AAECD1F000C0CEF10A0EEAD757D078
:10BAD0000A0EE8CF56FE54CEE8FFFE0A14E054CE1C
:10BAE000E8FF6FECF2F0010C050EDBD7D950A6E0B1
:10BAF000010ABBE0030AD8E0010AE9E0070AD5E041
:10BB0000010AE6E0F1D7010C31D05BCEE8FF020A72
:10BB1000D8B40AECD7F054CEE8FFFE0A10E00AECE5
:10BB2000D7F054CEE8FF6FECF2F0010EE8CF5BFEE9
:10BB3000000C54CEE8FF60ECF2F000091FE1030EA8
:10BB4000E8CF56FEE8CF5BFE000C57CEE8FF7FEC57
:10BB5000F3F0000913E057CEE8FF60ECF2F00009C3
:10BB60000DE057CEE8FF6FECF2F0000C5BCEE8FF83
:10BB7000000ACBE0010ADDE0020AE7E0000C97D002
:10BB80000E0155B304D0060EE8CF56FE010C070E89
:10BB9000E8CF56FE57CEE8FF280D010EF324000132
:10BBA0001C6F020EF4201D6F00EE1EF0CEC1EEFFE2
:10BBB000CFC1EDFF8CECF1F0E8CF54FE54CEE8FF9E
:10BBC000FE0A04E0010EE8CF5BFE000C090EE8CF90
:10BBD00056FE010C54CEE8FF60ECF2F0000970E074
:10BBE0000E01A7536DE153ECD7F000C0D0F101C0B6
:10BBF000D1F1020EE8D754CEE8FFF0ECF4F00009E2
:10BC000041E068ECD0F000C0D2F101C0D3F102C035
:10BC1000D4F103C0D5F1D0C1BFF0D1C1C0F05AEC0E
:10BC2000D7F000011B0E9A6F000E9B6F54CEE8FFF9
:10BC300098ECF4F0006E00C002F0036A03500210AA
:10BC400005E000011B5174ECD7F0EBD78FECD7F077
:10BC500000C0D0F101C0D1F154CEE8FF2BECF4F0DC
:10BC600057CEE8FF7FECF3F000092AE0230E000135
:10BC7000A06F57CEE8FFA7ECF3F057CEE8FFE3EC58
:10BC8000F2F0000C54CEE8FF60ECF2F0000918E18D
:10BC90008FECD7F00AECD7F054CEE8FF6FECF2F05F
:10BCA000FE0EE8CF54FE090EE8CF56FE010C5BCE27
:10BCB000E8FF000A01E164D7010A8CE0030A9BE077
:10BCC000000C1B0000011D6B1BC0AEF01CC0AFF0D0
:10BCD00000011D51020D000EF324E96E010EF42047
:10BCE000EA6EEECFB0F0EDCFB1F0040EB26FB36BF1
:10BCF00032ECD1F00150001003E100011D5112009F
:10BD000000011D2B050E1D65DFD7060CE96A660EC6
:10BD1000E16E0E0EE26EE750200A02E1E652FBD71A
:10BD2000E1CFD6F1E2CFD7F1010EE8CF59FE28D00E
:10BD3000D950200A03E0D9502C0A05E1000EE76E25
:10BD4000010EE96E1CD0D9500D0A03E0D9500A0A41
:10BD500016E1000EE76E13D0D950200A10E059CE3C
:10BD6000E8FF020DD60EF324E96E010EF420EA6E10
:10BD7000E1CFEEFFE2CFEDFF0E01592BE96AE6526B
:10BD8000E750D96ED950D8B41200E950D1E0010A79
:10BD9000E3E0F5D7D96AD950160D510EF324E96EB8
:10BDA000010EF420EA6EEE6AED6AD950160D5A0EB5
:10BDB000F324E96E010EF420EA6EFE0EEF16D92A86
:10BDC000010ED964E8D712002900450EE16E010E7C
:10BDD000E26E00012F6B00EE0CF0E150E926E2501C
:10BDE000EA22EE50ED1042E100EE0CF0E150E926BF
:10BDF000E250EA2229C0EEFF2AC0EDFFE1CF30F089
:10BE0000E2CF31F000012C512B110DE030C0AAF02F
:10BE100031C0ABF02BC0ACF02CC0ADF00A0EAE6F51
:10BE2000AF6BCDECD0F030C0E1FF31C0E2FF00EEEF
:10BE30000AF0E150E926E250EA222DC0EEFF2EC0C2
:10BE4000EDFF00EE0EF0E150E926E250EA22EE6A44
:10BE5000ED6A00EE10F0E150E926E250EA22EE6AC7
:10BE6000ED6A2FC0D6FE00012F511200160EE126FA
:10BE7000000EE22200012F2B010E2F65ACD7FF0C24
:10BE8000D96ED950160D510EF324E96E010EF4202F
:10BE9000EA6E000EEE6AED6A120000012B6FD6CE3C
:10BEA000E8FF160D450EF324E16E010EF420E26E5C
:10BEB000E1CF2CF0E2CF2DF000EE0EF0E150E926BC
:10BEC000E250EA22EE50ED102EE1010E0BEC02F0F2
:10BED000006E000100EE12F02C51E9262D51EA22ED
:10BEE00000C0EFFF00EE12F02C51E9262D51EA229E
:10BEF000EF50006E002801E1000C1C0E0001F76FEE
:10BF0000F86B00EE12F02C51E9262D51EA22EF5089
:10BF1000DEEC04F0000100EE13F02C51E9262D5167
:10BF2000EA22EE6AED6A00012B5167EC06F02CC0A4
:10BF3000E1FF2DC0E2FF00EE0EF0E150E926E250F5
:10BF4000EA22EECF00F0EDCF01F000EE13F0E15069
:10BF5000E926E250EA22EFCF02F0EE2AEFCF03F01B
:10BF6000000EED220150035C02E10050025C09E387
:10BF700000EE0EF0E150E926E250EA22EE2A000E31
:10BF8000ED2200EE0EF0E150E926E250EA22EECF7B
:10BF9000F3FFEDCFF4FF020EF45C160ED8B4F35CA1
:10BFA000D8B001D8010C010EE1EC01F00009FBE072
:10BFB000D6CEE8FF160D450EF32400012E6F010EBC
:10BFC000F4202F6F00EE0CF02E51E9262F51EA22BB
:10BFD000EECFF9F0EDCFFAF028ECDBF000C030F056
:10BFE00001C031F0000100EE0AF02E51E9262F5178
:10BFF000EA22EECFF9F0EDCFFAF028ECDBF000C04A
:10C0000032F001C033F0000100EE0EF02E51E926AF
:10C010002F51EA22EECF00F0EDCF01F0080E002400
:10C02000346F000E0120356F366B376B140EF76FCF
:10C03000F86B00EE12F02E51E9262F51EA22EF5054
:10C04000DEEC04F02EC0DEF02FC0DFF0110E000198
:10C05000E06F34C0E1F035C0E2F030ECD8F034C02D
:10C06000F9F035C0FAF028ECDBF000C034F001C084
:10C0700035F00001300EFC6F000EFD6F080EFE6FF4
:10C08000FF6B7BEC06F0C4EC03F02EC0E1FF2FC089
:10C09000E2FF00EE12F0E150E926E250EA22FF0E44
:10C0A000EF6E00EE0EF0E150E926E250EA22000EBB
:10C0B000EE6AED6A1200E8CFD6FED6CEE8FF160D86
:10C0C000550EF324E96E010EF420EA6EEE50ED10E9
:10C0D000000ED8A4010E12003200D6CEE8FF160DD5
:10C0E000550EF324E96E010EF420EA6EEE50ED10C9
:10C0F00001E1000CD6CEE8FF160D5A0EF324E96ECE
:10C10000010EF420EA6EEF50006E00A011D0D6CEE2
:10C11000E8FF160D5A0EF324E96E010EF420EA6EC4
:10C12000FE0EEF16080E00019E6F9F6BAFECD8F06D
:10C130002EEC06F032C0E9FF33C0EAFFEF6ED6CE38
:10C14000E8FF160D550EF324E96E010EF420EA6E99
:10C15000EE06000EED5AD6CEE8FF160D550EF3246E
:10C16000E96E010EF420EA6EEE50ED10D8B450ECFA
:10C1700002F0010CD6CEE8FF160D550EF324E96E41
:10C18000010EF420EA6EEE50ED10D8A450EC02F04F
:10C19000D6CEE8FF160D550EF324E96E010EF420FD
:10C1A000EA6E000EEE6AED6A12001A000001230E1C
:10C1B000EA6F000EEB6F080EEC6FED6B41EC06F0D2
:10C1C00023C0F9F024C0FAF028ECDBF000C023F023
:10C1D00001C024F025C0F9F026C0FAF028ECDBF00D
:10C1E00000C025F001C026F027C0F9F028C0FAF001
:10C1F00028ECDBF0F80E00240001276FFF0E012071
:10C20000286F00EE29F0EE50ED1001E187D029C033
:10C21000F9F02AC0FAF028ECDBF000C029F001C0E8
:10C220002AF0000100EE06F01A51E9261B51EA221D
:10C23000EECF2BF0EECF2CF0EECF2DF0EECF2EF098
:10C240001CC0E1FF1DC0E2FFE7502F6F00EE01F0C0
:10C25000E150E926E250EA22EF50306F00EE02F0A2
:10C26000E150E926E250EA22EF50316F00EE03F090
:10C27000E150E926E250EA22EF50326F336B110EA3
:10C28000346F1EC035F01FC036F035C0F9F036C02F
:10C29000FAF028ECDBF000C035F001C036F0000108
:10C2A0002B0EDE6F000EDF6F0C0EE06FE16B7FEC8C
:10C2B000DBF0001C0001216F011C226F060E9E6F37
:10C2C0009F6BAFECD8F00001215167EC06F0070E30
:10C2D00000019E6F9F6BAFECD8F00001225167EC1C
:10C2E00006F000019E6B9F6BAFECD8F01EC0DEF035
:10C2F0001FC0DFF0C0EC05F000C021F001C022F04B
:10C3000000EE29F00001EE522251ED1821C0E8FFA5
:10C31000D8B4EF1803E050EC02F0010C0001230E3A
:10C32000376F000E386F1AC039F01BC03AF01CC0CE
:10C330003BF01DC03CF022D80001206F202903E112
:10C3400050EC02F0010C00012051160D550EF324A3
:10C35000E96E010EF420EA6E27C0EEFF28C0EDFF63
:10C360002051160D5A0EF324E96E010EF420EA6EE8
:10C37000EF50FE0B0109EF6E010C370000013D6923
:10C38000450ED96E010EDA6EF36A000110EE02F06E
:10C390003751E1263851E22200EE0CF0D950E9265F
:10C3A000DA50EA22EE52E652E550ED18E7CFE8FF08
:10C3B000D8B4EF1848E137C0E9FF38C0EAFF10EE03
:10C3C0000AF0D950E126DA50E222E652EE52ED5060
:10C3D000E518EFCFE8FFD8B4E71832E100EE10F02F
:10C3E000D950E926DA50EA22EE50ED1029E110EE9C
:10C3F00006F03951E1263A51E22200EE06F0D9501A
:10C40000E926DA50EA22EE50E61808E1EE50E61886
:10C4100005E1EE50E61802E1EE50E6180FE03BC0F1
:10C42000E9FF3CC0EAFFEE1CFF0ED8B4EE18FF0E89
:10C43000D8B4EE18FF0ED8B4EE1802E1F350120093
:10C44000F35000013D6F160ED926000EDA22F32AB2
:10C45000010EF3649AD700013D2928E03D51160DE5
:10C46000450EF324E96E010EF420EA6EE9CFAAF03E
:10C47000EACFABF0E9CF3EF0EACF3FF039C0ACF005
:10C480003AC0ADF00A0EAE6FAF6BCDECD0F037C056
:10C49000E9FF38C0EAFF000110EE0AF03E51E12644
:10C4A0003F51E222EECFE6FFEDCFE5FF00013D5127
:10C4B00012004ACEE8FF080AD8B412004BCE00F0B2
:10C4C000002804E04BCEE8FF40ECDFF0FF0EE8CFA1
:10C4D0004BFE0E014A6B0E014E6B0E014C91120089
:10C4E0007DD101EEC6F0EE6AEE6AEE6AEE6A0001F8
:10C4F0001F692069216922692369246925692669E0
:10C5000027692869440E296F2A6B1F0E2B6F000EB6
:10C510002C6F430E2D6F2E6BE5ECDEF0E8CF4BFE5B
:10C5200068ECD0F000C0B6F101C0B7F102C0B8F1BC
:10C5300003C0B9F1020EE8CF4AFE68ECD0F0B6C1F4
:10C54000E8FF005C046EB7C1E8FF0158056EB8C192
:10C55000E8FF0258066EB9C1E8FF0358076E000EE7
:10C56000075C08E1000E065C05E1000E055C02E1D7
:10C57000140E045CD8A01200030EE8CF4AFE12008D
:10C580000101BD6BBC6BBB6B3C0EBA6F0E014CA1C5
:10C5900004D0050EE8CF4AFE12004BCED6FE010EA7
:10C5A000E1EC01F00009D8B41200010E27DB68ECC1
:10C5B000D0F000C0B6F101C0B7F102C0B8F103C0BD
:10C5C000B9F1040EE8CF4AFE120068ECD0F0B6C113
:10C5D000E8FF005C046EB7C1E8FF0158056EB8C102
:10C5E000E8FF0258066EB9C1E8FF0358076E000E57
:10C5F000075C08E1000E065C05E1000E055C02E147
:10C60000C80E045C03E3030EE8CF4AFE4BCEE8FFFE
:10C610005BECE0F00009D8B41200FAD8020AD8A402
:10C620001200050EE8CF4AFE4BCED6FE010EE1EC1D
:10C6300001F00009D8B41200030EE0DA68ECD0F083
:10C6400000C0B6F101C0B7F102C0B8F103C0B9F142
:10C65000060EE8CF4AFE12004BCEE8FF5BECE0F09E
:10C6600000093EE0D5D800011A6F1A51060A01E10F
:10C6700020D700011A51050AD8A412004BCEE8FFBA
:10C6800040ECDFF0FF0EE8CF4BFE68ECD0F000C0CE
:10C69000B6F101C0B7F102C0B8F103C0B9F1070E9D
:10C6A000E8CF4AFEC6C126F1C7C127F1C8C128F1AB
:10C6B000C9C129F1CAC130F1CBC131F1CCC132F1CC
:10C6C000CDC133F1C2C134F1C3C135F1C4C136F1BA
:10C6D000C5C137F10E014C810E01010E4E2B120027
:10C6E00068ECD0F0B6C1E8FF005C046EB7C1E8FFAB
:10C6F0000158056EB8C1E8FF0258066EB9C1E8FFDF
:10C700000358076E000E075C08E1000E065C05E1A9
:10C71000000E055C02E1C80E045CD8A01200030EF6
:10C72000E8CF4AFE120068ECD0F0B6C1E8FF005C2A
:10C7300000011B6FB7C1E8FF01581C6FB8C1E8FFCB
:10C7400002581D6FB9C1E8FF03581E6F000E1E5D31
:10C7500008E1000E1D5D05E1000E1C5D02E1640EA6
:10C760001B5DD8A012000101BA07000EBB5BBC5BC9
:10C77000BD5B00019C0E1B27FF0E1C231D231E23E7
:10C780000101BA51BB11BC11BD1103E1010EE8CF8B
:10C790004AFE0001000E1E5D08E1000E1D5D05E170
:10C7A000000E1C5D02E1640E1B5DDDE268ECD0F062
:10C7B000000EE96E000EEA6E00011B51EE5CE8CF40
:10C7C000B6F11C51EE58E8CFB7F11D51EE58E8CF45
:10C7D000B8F11E51EE58E8CFB9F112004ACEE8FF89
:10C7E000000A01E17ED6010A01E181D6030A01E1D6
:10C7F000A4D6010A01E1C4D6070A01E1E6D6010A7E
:10C8000001E112D7030A01E127D7010A8CE01200E7
:10C8100000012B6B2D0E326F000E336F6DECE0F0CC
:10C8200000012D51020A01E0C2D12C6B00012D0E36
:10C83000326F000E336F6DECE0F000012C2B0E0E0A
:10C840002C65F4D70E014CA30FD000012C6B000116
:10C850002D0E326F000E336F6DECE0F000012C2BCB
:10C86000030E2C65F4D71CD00001C60E326F010EEA
:10C87000336F6DECE0F00001C70E326F010E336FC5
:10C880006DECE0F00001C80E326F010E336F6DECFD
:10C89000E0F00001C90E326F010E336F6DECE0F075
:10C8A00000012C6B00012D0E326F000E336F6DEC0A
:10C8B000E0F000012C2B070E2C65F4D72C6B000147
:10C8C0002D0E326F000E336F6DECE0F000012C5135
:10C8D00001EE2AF0E926000EEA22EF502D1901E0C0
:10C8E0008AD12C2B050E2C65EAD72C6B00012D0E5E
:10C8F000326F000E336F6DECE0F000012C2BCD0E8B
:10C900002C65F4D7296B00012D0E326F000E336FAA
:10C910006DECE0F0006E00C002F0036A03500210FC
:10C9200001E02ED1010ED96E42D100012D0E326FE1
:10C93000000E336F6DECE0F000012D0501E05BD1DE
:10C940002B0E326F000E336F6DECE0F00E014CA336
:10C950002AD100012B51020A01E025D14CD100015E
:10C960002D0E326F000E336F6DECE0F000012D5193
:10C97000040A01E040D10E014CA30FD000012C6B42
:10C9800000012D0E326F000E336F6DECE0F00001F0
:10C990002C2B030E2C65F4D706D10001CA0E326F82
:10C9A000010E336F6DECE0F00001CB0E326F010E23
:10C9B000336F6DECE0F00001CC0E326F010E336F7F
:10C9C0006DECE0F00001CD0E326F010E336F6DECB7
:10C9D000E0F0E9D000012A0E326F000E336F6DECEB
:10C9E000E0F0030E00012A6506D10E014CA30FD022
:10C9F00000012C6B00012D0E326F000E336F6DECB9
:10CA0000E0F000012C2B030E2C65F4D71CD00001A4
:10CA1000C20E326F010E336F6DECE0F00001C30EF9
:10CA2000326F010E336F6DECE0F00001C40E326F17
:10CA3000010E336F6DECE0F00001C50E326F010E98
:10CA4000336F6DECE0F0FC0E00012A2700012A078D
:10CA50002A2901E1A9D02D0E326F000E336F6DEC43
:10CA6000E0F0F4D700012D0E326F000E336F6DEC45
:10CA7000E0F000012D51040A01E0BDD0310E326F0B
:10CA8000000E336F6DECE0F00001300E326F000EDF
:10CA9000336F6DECE0F000012F0E326F000E336F3C
:10CAA0006DECE0F000012E0E326F000E336F6DEC76
:10CAB000E0F079D0010E0001296F75D000012D0E34
:10CAC000326F000E336F6DECE0F000012D51040A5F
:10CAD00001E091D00E014CA30FD000012C6B00019E
:10CAE0002D0E326F000E336F6DECE0F000012C2B39
:10CAF000030E2C65F4D757D00001BD0E326F010E26
:10CB0000336F6DECE0F00001BC0E326F010E336F3D
:10CB10006DECE0F00001BB0E326F010E336F6DEC77
:10CB2000E0F00001BA0E326F010E336F6DECE0F0F1
:10CB300001EEBDF0000EED5C08E1000EED5C05E1DC
:10CB4000070EED5C02E1090EEF5C2DE30101F80E2A
:10CB5000BA27BB23FF0EBC23BD2325D000012A0E1C
:10CB6000326F000E336F6DECE0F000012A072A29C6
:10CB70001BE02D0E326F000E336F6DECE0F0F5D739
:10CB800000012D51010A01E1EAD6020A01E122D792
:10CB9000300A94E0060A01E1C8D6030A01E162D72F
:10CBA000C90A88E0DBD70001295101E1ACD60001B8
:10CBB0002B51020A0BE12EC0BEF12FC0BFF130C0D5
:10CBC000C0F131C0C1F10E014C8310D001EEBEF0B6
:10CBD0000001EE502E1908E1EE502F1905E1EE503C
:10CBE000301902E1EE503119D8A42B6BBAECE0F009
:10CBF00000012B511200BAECE0F0000C0001296F8B
:10CC0000010E4DECDFF0010E4DECDFF0060E4DECA9
:10CC1000DFF0000E4DECDFF0120E4DECDFF0230ED6
:10CC20004DECDFF0340E4DECDFF0560E4DECDFF046
:10CC3000000E4DECDFF0000E4DECDFF0800E4DEC01
:10CC4000DFF0000E4DECDFF0000E4DECDFF0000EDB
:10CC50004DECDFF0000E4DECDFF0000E4DECDFF0A0
:10CC600000012A6B000E4DECDFF000012A2B0B0EA9
:10CC70002A65F8D72AC1E8FF4DECDFF02BC1E8FFA9
:10CC80004DECDFF02CC1E8FF4DECDFF02DC1E8FFEB
:10CC90004DECDFF02EC1E8FF4DECDFF02FC1E8FFD7
:10CCA0004DECDFF000012A6B000E4DECDFF00001CF
:10CCB0002A2BC90E2A65F8D7630E4DECDFF0820EE1
:10CCC0004DECDFF0530E4DECDFF0630E4DECDFF07A
:10CCD000350E4DECDFF0010E4DECDFF00001295177
:10CCE0004DECDFF00001290502E10E014C9300013B
:10CCF00029051CE00101C651C711C811C91116E070
:10CD0000360E4DECDFF0040E4DECDFF0C1C1E8FF54
:10CD10004DECDFF0C0C1E8FF4DECDFF0BFC1E8FF34
:10CD20004DECDFF0BEC1E8FF4DECDFF0370E4DEC0F
:10CD3000DFF0020E4DECDFF0010E4DECDFF0030EE4
:10CD40004DECDFF000012951030A16E1320E4DECE3
:10CD5000DFF0040E4DECDFF0C6C1E8FF4DECDFF074
:10CD6000C7C1E8FF4DECDFF0C8C1E8FF4DECDFF0D4
:10CD7000C9C1E8FF4DECDFF0FF0E4DECDFF0D3EF63
:10CD8000DFF00001146B500E0001156F166B37ECCD
:10CD9000F1F0006E000114510A0D980EF324E96EB3
:10CDA000010EF420EA6E00C0EFFF14510A0D9B0E35
:10CDB000F324E96E010EF420EA6EEF6A142B020EE2
:10CDC0001465E1D712000001146B0001145106D85C
:10CDD0000001142B020E1465F8D71200E16EE15029
:10CDE0000A0D980EF32400011D6F010EF4201E6F32
:10CDF0000001166B1DC0E9FF1EC0EAFFEF5060EC9A
:10CE0000F2F0000901E019D2000100EE03F01D511B
:10CE1000E9261E51EA22000EEF6A12001DC0E9FF4A
:10CE20001EC0EAFFEF50F0ECF4F0000901E119D266
:10CE3000010E0001166F196B1A6B0001000E1A5DCE
:10CE4000640ED8B4195D1AE21951006E1A51016EC0
:10CE5000194B1A2B350E00249A6F000E01209B6F80
:10CE60001DC0E9FF1EC0EAFFEF5098ECF4F0006E21
:10CE700000C002F0036A03500210DFE1000100EE7F
:10CE800035F01951E9261A51EA22EF6A1DC0E9FF6F
:10CE90001EC0EAFFEF502BECF4F0000100EE03F0AF
:10CEA0001D51E9261E51EA22020EEF6E0B0E176F7E
:10CEB000350E9A6F000E9B6F1F0E9C6F000E9D6FBC
:10CEC000170E9E6F000E9F6F090E1D25A06F000E9E
:10CED0001E21A16FEFDA0001156F155101E0C1D1DC
:10CEE000010E176511D01F0E9A6F000E9B6F175120
:10CEF0009C6FF1ECECF0000100EE09F01D51E92609
:10CF00001E51EA22030EEF6E1FC09AF020C09BF064
:10CF100090ECD6F0000100EE01F01D51E9261E5103
:10CF2000EA2200C0EEFF01C0EDFF1DC0E1FF1EC000
:10CF3000E2FF00EE01F0E150E926E250EA22EE5273
:10CF4000ED1CFF0ED8B4EF1811E100EE08F0E1502F
:10CF5000E926E250EA22000EEF6E00EE03F0E15007
:10CF6000E926E250EA22020EEF6E7BD100EE01F0DC
:10CF7000E150E926E250EA22EE50ED1008E100EE21
:10CF800008F0E150E926E250EA22010EE5D700EE72
:10CF900003F0E150E926E250EA220B0EE5D71DC06E
:10CFA000E9FF1EC0EAFFEF507FECF3F0000901E15A
:10CFB00058D1000100EE08F01D51E9261E51EA2269
:10CFC000EF50020D220EF324E96E010EF420EA6EFA
:10CFD000EECF1BF0EDCF1CF000011BC0F6FF1CC014
:10CFE000F7FF1B4B1C2B0F0EF76403D00800F55006
:10CFF00005D0F6CFE9FFF7CFEAFFEF50E16EE15041
:10D000000BE0E1500001A06F1DC0E9FF1EC0EAFF68
:10D01000EF50A7ECF3F0E0D71DC0E9FF1EC0EAFF18
:10D02000EF50E3ECF2F0DED01DC0E9FF1EC0EAFFD6
:10D03000EF507FECF3F0000901E113D1010E000184
:10D04000166F1DC0E1FF1EC0E2FF00EE09F0E150C7
:10D05000E926E250EA22EF50030A24E100EE07F04D
:10D06000E150E926E250EA22010EEF6E186B18C07B
:10D0700000F0016A0050B80FF66E0150F76E110E05
:10D08000F7220800F5500001A06F1DC0E9FF1EC087
:10D09000EAFFEF50A7ECF3F00001182B830E1865A0
:10D0A000E6D723D000EE07F0E150E926E250EA226D
:10D0B000EF6A0001186B18C000F0016A0050980F69
:10D0C000F66E0150F76E110EF7220800F5500001C0
:10D0D000A06F1DC0E9FF1EC0EAFFEF50A7ECF3F000
:10D0E0000001182B1E0E1865E6D7000100EE09F0AE
:10D0F0001D51E9261E51EA22EF50140DF80EF324BB
:10D100001B6F100EF4201C6F00011BC0F6FF1CC02B
:10D11000F7FF1B4B1C2B0F0EF76403D00800F550D4
:10D1200005D0F6CFE9FFF7CFEAFFEF50E16EE1500F
:10D130000BE0E1500001A06F1DC0E9FF1EC0EAFF37
:10D14000EF50A7ECF3F0E0D70001186B18C000F027
:10D15000016A00503D0FF66E0150F76E120EF72275
:10D160000800F5500001A06F1DC0E9FF1EC0EAFFD6
:10D17000EF50A7ECF3F00001182B030E1865E6D76B
:10D180001DC0E1FF1EC0E2FF00EE04F0E150E92601
:10D19000E250EA22030EEF6E00EE03F0E150E926C2
:10D1A000E250EA22010EE0D61DC0E9FF1EC0EAFFF0
:10D1B000EF50F0ECF4F0000907E01DC0E9FF1EC0DD
:10D1C000EAFFEF502BECF4F01DC09AF01EC09BF06C
:10D1D0004ED8006E00C002F0036A0350021041E016
:10D1E0000AECD7F0000100EE03F01D51E9261E51B4
:10D1F000EA22090EB9D61DC0E9FF1EC0EAFFEF50B2
:10D2000060ECF2F000092DE01DC0E9FF1EC0EAFF4E
:10D21000EF507FECF3F0000924E01DC0E9FF1EC0D1
:10D22000EAFFEF506FECF2F0000100EE03F01D5149
:10D23000E9261E51EA220A0E97D6000100EE03F0FD
:10D240001D51E9261E51EA22EF5001E1E7D5010AFE
:10D25000ABE0030A01E1A3D60B0ACDE0020A01E12B
:10D26000E3D600011651D8B41200C2D59A000001CD
:10D2700000EE01F09A51E9269B51EA22EECFA0F090
:10D28000EDCFA1F016ECD7F0000100EE07F09A51B7
:10D29000E9269B51EA22EF5001E0CCD0F3D0000107
:10D2A0009C6B00EE04F09A51E9269B51EA22EF5064
:10D2B000080A01E19ED02BECD7F000019D6F000120
:10D2C000131DFF0ED8B4121901E093D04CECD7F027
:10D2D0009AC0E9FF9BC0EAFFEF50E3ECF2F0010CCB
:10D2E00000019D51250A08E100EE04F0E150E92615
:10D2F000E250EA22050E11D0010E00019C6F8ED083
:10D3000000019D51250A0BE1010E9C6F00EE04F017
:10D31000E150E926E250EA22030EEF6E7FD00001D1
:10D320009D519F6F00EE04F0E150E926E250EA22A1
:10D33000060EF3D700019D519E6F9EC0A0F09FC0C6
:10D34000A1F0DDECDAF0006E000100EE08F09A5179
:10D35000E9269B51EA2200C0EFFF9AC0E1FF9BC083
:10D36000E2FF00EE04F0E150E926E250EA22080E66
:10D37000EF6E00EE05F0E150E926E250EA22000EE1
:10D38000EE6EED6E4BD0000100EE05F09A51E926ED
:10D390009B51EA22EECFA0F0EDCFA1F09D0EA26F3F
:10D3A000000EA36F00EE08F09A51E9269B51EA2285
:10D3B000EF502DECEDF0000100EE05F09A51E9265A
:10D3C0009B51EA2200C0EEFF01C0EDFF010E9C6FF1
:10D3D0009AC0E1FF9BC0E2FF00EE05F0E150E926B4
:10D3E000E250EA22EE52ED1CFF0ED8B4EF1816E11F
:10D3F0008DD79AC0E1FF9BC0E2FF00EE04F0E15040
:10D40000E926E250EA22EF50030A01E169D7060A51
:10D4100001E176D7030A8EE00E0AB5E000019C51C7
:10D4200009E09D51A06F9AC0E9FF9BC0EAFFEF5051
:10D43000A7ECF3F09AC0E9FF9BC0EAFFEF507FEC46
:10D44000F3F0000928E02BD72BECD7F000019D6FFB
:10D450000001131DFF0ED8B412190AE14CECD7F0ED
:10D460009AC0E9FF9BC0EAFFEF50E3ECF2F0010C39
:10D4700000019D51A06F9AC0E9FF9BC0EAFFEF50E9
:10D48000A7ECF3F09AC0E9FF9BC0EAFFEF507FECF6
:10D49000F3F00009D9E14CECD7F0000100EE01F007
:10D4A0009A51E9269B51EA2200C0EEFF01C0EDFF30
:10D4B000000C9A000001A36BA86BA96BA46B9AC027
:10D4C000AEF09BC0AFF0420EB06F120EB16F030E04
:10D4D000B26FB36B32ECD1F0015000100BE19AC087
:10D4E000E1FF9BC0E2FF040EE126000EE2220001F4
:10D4F000A26B02D0020CE652E750200AFCE089D071
:10D500009EC0E9FF9FC0EAFFEF500001A45D01E368
:10D510008FD077D00001D890A435006E016A013613
:10D520009C510024E96E9D510120EA6EE1CFEEFF8F
:10D53000E2CFEDFFE750A56FA5512F0A21E0A551DD
:10D540005C0A66E11DD00001D890A435006E016A26
:10D5500001369C510024E96E9D510120EA6EE1CF15
:10D56000EEFFE2CFEDFFA42B020EA36FE750000108
:10D57000A56FA5513F0A03E0A551260A04E1E76A19
:10D58000010E000119D00001A5512B0A03E1200E64
:10D59000E76E3ED00001A5512E0A08E1A40506E180
:10D5A000E652E1CFA8F0E2CFA9F032D00001A551B8
:10D5B0003D0A04E1E76A010EA36F2AD00001A551DC
:10D5C0002F0A03E0A5515C0A23E1E1CF00F0E2CF8E
:10D5D00001F0002A000E01220001D890A435026E4D
:10D5E000036A03369C5102269D510322FE0E02243B
:10D5F000E96EFF0E0320EA6E00C0EEFF01C0EDFFF2
:10D6000007D00001A35186E0010A9DE0030AAEE0C5
:10D61000E652E7500001A56FA551200A09E0A55187
:10D6200007E0A5510D0A04E0A5510A0A01E068D7F8
:10D63000E76AA0C0E9FFA1C0EAFF070EEF6E000194
:10D64000A951A81131E0A8C0AEF0A9C0AFF0DFEC3D
:10D65000DBF000C0A8F001C0A9F00001D80EA66F51
:10D66000100EA76FA56BA8C0AEF0A9C0AFF0A6C002
:10D67000B0F0A7C0B1F0030E0001B26FB36B32EC93
:10D68000D1F00150001007E1A0C0E9FFA1C0EAFFFE
:10D69000A5C0EFFF09D0040E0001A627000EA723A6
:10D6A000A52B070EA565DFD70001A45128E19CC07A
:10D6B000E9FF9DC0EAFFEECFAAF0EDCFABF0460E3A
:10D6C000AC6F120EAD6F090EAE6FAF6BCDECD0F03C
:10D6D0009CC0E9FF9DC0EAFFEECF00F0EDCF01F066
:10D6E000090E0024E96E000E0120EA6EEF6AA0C068
:10D6F000E9FFA1C0EAFF010EEF6E0001A42B9EC05E
:10D70000E9FF9FC0EAFFA4C0EFFF0001A251120091
:10D7100071ECD0F0D7CEF3FFD8CEF4FFD9CEF5FF21
:10D72000DACEF6FFDBCEF7FFDCCEF8FFDDCE00F081
:10D73000DECE01F0DFCE02F0E0CE03F0E1CE04F069
:10D74000E2CE05F0E3CE06F0E4CE07F0E5CE08F039
:10D75000E6CE09F0E7CE0AF0E8CE0BF0E9CE0CF009
:10D76000EACE0DF0EBCE0EF0ECCEDAFFEDCED9FF27
:10D77000EECEE2FFEFCEE1FFF0CEEAFFF1CEE9FF21
:10D78000F2CEFBFFF3CEFAFF11000600E9CFF1FE67
:10D79000EACFF0FEE1CFEFFEE2CFEEFED9CFEDFE15
:10D7A000DACFECFE0EC0EBFE0DC0EAFE0CC0E9FEC7
:10D7B0000BC0E8FE0AC0E7FE09C0E6FE08C0E5FEB1
:10D7C00007C0E4FE06C0E3FE05C0E2FE04C0E1FEC1
:10D7D00003C0E0FE02C0DFFE01C0DEFE00C0DDFED1
:10D7E000F8CFDCFEF7CFDBFEF6CFDAFEF5CFD9FEC1
:10D7F000F4CFD8FEF3CFD7FE8BD74BDA5DECD0F069
:10D8000087ECD6F06CDA81A00AECF0F062ECD5F08F
:10D81000C1ECE6F0F6ECDBF001013EB106D0010E02
:10D82000E8CF88FE080EE8CF4AFE68ECD0F0F0C2E0
:10D83000E8FF005C046EF1C2E8FF0158056EF2C219
:10D84000E8FF0258066EF3C2E8FF0358076E000EA9
:10D85000075C08E1000E065C05E1000E055C02E1D4
:10D86000320E045C0BE368ECD0F000C0F0F201C0B3
:10D87000F1F202C0F2F203C0F3F283706EECD5F065
:10D88000E3ECE6F00AECDCF094D84ECEE8FF0E01B3
:10D890008819CBE04ECE88FE00019E0E306F120E2E
:10D8A000316F4EECD2F00001260E306F010E316F59
:10D8B0000BD80001AF0E306F120E316F4EECD2F06C
:10D8C00067ECD3F0B2D7300030C0E9FF31C0EAFFD7
:10D8D000EF500001376F386B320E396F000E3A6F20
:10D8E00084ECDAF00001320E376F000E386F39EC3D
:10D8F000D2F00EECD2F00009FCE12E0E21ECD2F0B9
:10D90000000100EE01F03051E9263151EA22EF50DA
:10D91000376F386B320E396F000E3A6F84ECDAF0E5
:10D920000001320E376F000E386F39ECD2F00EEC7A
:10D93000D2F00009FCE12E0E21ECD2F0000100EE45
:10D9400002F03051E9263151EA22EF50376F386B3F
:10D95000320E396F000E3A6F84ECDAF00001320EAD
:10D96000376F000E386F39ECD2F00EECD2F00009B0
:10D97000FCE12E0E21ECD2F0000100EE03F030515C
:10D98000E9263151EA22EF50376F386B320E396F8A
:10D99000000E3A6F84ECDAF00001320E376F000EA1
:10D9A000386F39ECD2F00EECD2F00009D8B4120086
:10D9B000FAD70F01C2830F01C2B3FDD7C050F36E77
:10D9C0000F01C081C083F350C06EC3CF37F0C4CF06
:10D9D00038F00001890E396F0E0E3A6F84EFDAF0DD
:10D9E0009A009AC0E1FF9BC0E2FFE6CF00F0E5CFCE
:10D9F00001F000C0E9FF01C0EAFFEF50D00FD96E7F
:10DA000028D000EE02F0E150E926E250EA22EECF03
:10DA100000F0EDCF01F000C0E9FF01C0EAFFEF50D8
:10DA2000D00FD96E04D0837206D0837404D0D9503D
:10DA3000FAE0010AFAE0E6CFAAF0E5CFABF0000188
:10DA4000B20EAC6F120EAD6F0A0EAE6FAF6BCDEFB4
:10DA5000D0F0D950D6E0EFD7A000E16EC1D083A0BE
:10DA600009D045D083A206D042D083A403D03FD0B2
:10DA700083B63DD0300E3CD083A8FCD738D083AAE3
:10DA8000F9D735D083ACF6D732D083BE30D0F2D7B9
:10DA90000001A0510EEE89F0E926000EEA22EFCF38
:10DAA000DFFFA0510EEE89F0E926000EEA22EF50CA
:10DAB00004E1FF0E0068016812000001A04BA12BD9
:10DAC000A0510EEE89F0E926000EEA22EF5004E1A3
:10DAD000FF0E006801681200A0C000F0A1C001F0B4
:10DAE000120003D081B003D0C5D781A0C3D7310EB7
:10DAF000DF6EA6D00001A151A0110AE1910EA46F22
:10DB00000E0EA56F980EA66F140EA76F82ECD0F0C4
:10DB10000001A0511EEE91F0E126000EE222A2C00B
:10DB2000E9FFA3C0EAFFE7CFEFFFA0510EEE91F0AF
:10DB3000E926000EEA22EF5004E1FF0E00680168BA
:10DB400012000001A04BA12BA0510EEE91F0E9268E
:10DB5000000EEA22EF5004E1FF0E00680168120097
:10DB6000A0C000F0A1C001F012000001A151A0115D
:10DB70000AE1910EA46F0E0EA56F8C0EA66F140E07
:10DB8000A76F82ECD0F00001A0511EEE91F0E126CB
:10DB9000000EE222A2C0E9FFA3C0EAFFE7CFEFFF39
:10DBA000A0510EEE91F0E926000EEA22EF5004E1BA
:10DBB000FF0E0068016812000001A04BA12BA051CC
:10DBC0000EEE91F0E926000EEA22EF5004E1FF0E7E
:10DBD000006801681200A0C000F0A1C001F01200AE
:10DBE000A2C0D9FFA3C0DAFFE15001E138D7010A92
:10DBF00001E138D7030A01E14BD7060A01E171D7E9
:10DC0000090A01E16FD7030A01E16CD7010A01E1BA
:10DC10006CD71F0A01E129D7010A01E129D7030ABC
:10DC200001E12AD7010A01E12AD7070A01E12AD72F
:10DC3000010A01E12AD7030A01E15CD7010A95E054
:10DC4000FF0E0068016812001B001BC0AEF01CC074
:10DC5000AFF00001D10EB06F120EB16F030EB26FB4
:10DC6000B36B32ECD1F00150001012E11DC0AEF0E8
:10DC70001EC0AFF00001D50EB06F120EB16F090ECD
:10DC8000B26FB36B32ECD1F00150001001E1010C26
:10DC9000000C95909592959495969598959A959C4B
:10DCA000959E83908392839483968398839A839C92
:10DCB000839E400E9B6E010EC26E0E0EC16E230E31
:10DCC000926EBE0EC06E0F01F19F200EAC6E900ED4
:10DCD000AB6E1F0EAF6ED56AF28FF28D120001018E
:10DCE0003E810001260E156F010E166FA26BA36B0D
:10DCF000A00E84ECD2F08EECD2F00001146FB4ECE4
:10DD0000D2F000011451550A18E1010EA26FA36B65
:10DD1000A00E84ECD2F00001146B8EECD2F015C092
:10DD2000E9FF16C0EAFFEF6E0001154B162B142B0E
:10DD30001C0E1465F2D7B4EFD2F00001260E316F3D
:10DD4000010E326FC16BC26BA00EDFECD2F0550E2C
:10DD5000E9ECD2F00001306B31C0E9FF32C0EAFFDC
:10DD60000001314B322BEF50E9ECD2F00001302BA7
:10DD70001C0E3065F1D7FCEFD2F0300030C0E1FF6F
:10DD800031C0E2FFE1CF35F0E2CF36F00001346B75
:10DD9000E750D96ED95033E0D9502E0A26E1E1CFB1
:10DDA000E9FFE2CFEAFFE14AE22AEF6AE1CF30F091
:10DDB000E2CF31F035C037F036C038F0AAECD1F000
:10DDC00000C002F0000134513225E96E000E33210B
:10DDD000EA6E02C0EFFF342B30C0E1FF31C0E2FF3A
:10DDE000E1CF35F0E2CF36F008D0300ED96001D067
:10DDF000000C390ED96401D0000CE652C9D735C0E9
:10DE000037F036C038F0AAECD1F000C002F00001C3
:10DE100034513225E96E000E3321EA6E02C0EFFF65
:10DE20003451030A000ED8B4010E12001AECD2F0DD
:10DE30000009FCE01FECD2F00001156F300E1565F3
:10DE4000390C390E1561390C155112000001156F8E
:10DE5000AF0E306F120E316F4EECD2F00001D89041
:10DE60001535006E016A01360050320FF66E015012
:10DE7000F76E140EF7229E0EF626FF0EF72209000B
:10DE8000F5CF30F00900F5CF31F04EECD2F0AED046
:10DE900038C137F039C138F000011C0E396F000E5F
:10DEA0003A6F84ECDAF000011C0E376F000E386F09
:10DEB00039ECD2F00EECD2F00009FCE1290E21EC95
:10DEC000D2F00EECD2F00009FCE13A0E21ECD2F0D7
:10DED0000EECD2F00009FCE1200E21ECD2F00001A2
:10DEE0001C0E306F000E316F140E326F5CECDAF0E6
:10DEF000006E00C002F0036A03500210D8B4120092
:10DF000000011C0E376F000E386FAAECD1F000C074
:10DF100038F101C039F139C12EF138C12FF11200A9
:10DF2000260EE96E010E07D0340EE96E010E03D005
:10DF3000300EE96E010EEA6EE9CF30F0EACF31F033
:10DF4000E9CF16F0EACF17F0BFDC0EECD2F00009F3
:10DF5000FCE1290E21ECD2F00EECD2F00009FCE13C
:10DF60003A0E21ECD2F00EECD2F00009FCE1200ECA
:10DF700021ECD2F000011C0E306F000E316F140E38
:10DF8000326F5CECDAF000011C0E306F000E316F66
:10DF9000180E326F000E336FF1DE006E00C002F01B
:10DFA000036A035002100DE10001420E306F140E9F
:10DFB000316F4EECD2F01AECD2F00009FCE01FEF0A
:10DFC000D2F016C0E9FF17C0EAFF18C0EEFF19C073
:10DFD000EEFF1AC0EEFF1BC0EEFF120001013E81F2
:10DFE000120001013E9112002AD0A7D6000115515E
:10DFF000310A01E14DD7030A93E0010A95E0070ACF
:10E0000097E0010AEBE0030AECE0010AEDE00F0AF9
:10E01000ECE012000001DF0E306F120E316F4EEC9B
:10E02000D2F004DF0001146F1451390A02E01451D8
:10E030000DDF00011451380AD8B41200EBD70001EB
:10E04000336B316B53ECD7F000C035F001C036F0C4
:10E0500068ECD0F000C03BF001C03CF002C03DF0E5
:10E0600003C03EF068ECD0F000C037F001C038F0DB
:10E0700002C039F003C03AF000013B51375D006E39
:10E080003C513859016E3D513959026E3E513A5951
:10E09000036E000E035C08E1000E025C05E1000E59
:10E0A000015C02E1320E005C12E368ECD0F000C0CB
:10E0B0003BF001C03CF002C03DF003C03EF00EEC6E
:10E0C000D2F00009FCE1150E21ECD2F0837E1AECAF
:10E0D000D2F000096FE1C6D71AECD2F000096AE06D
:10E0E000837E1FECD2F00001346F3351010A23E02C
:10E0F000030A27E0010A28E0340503E1010E336F2B
:10E1000059D000013451040A0EE1838E0AECD7F095
:10E110000EECD2F00009FCE1060E21ECD2F0010E6B
:10E120000001316F47D00EECD2F00009FCE1150E72
:10E1300021ECD2F03FD0060ED96E0001326B020EF8
:10E14000DED7030E0001DBD70001325100EE3FF0B5
:10E15000E926000EEA2234C0EFFF322B800E326532
:10E1600029D035C0BFF036C0C0F05AECD7F0060E4B
:10E170000001306F346B0001345100EE3FF0E926AE
:10E18000000EEA22EF5074ECD7F00001342B7F0E22
:10E190003465F1D78FECD7F000C035F001C036F010
:10E1A0000EECD2F00009FCE10001305121ECD2F07C
:10E1B0000001336B000131518FE0010CD96AD95055
:10E1C000280D000EF324E16E020EF420E26E0A0E1A
:10E1D000E76E00EE27F0E150E926E250EA22FE0E5B
:10E1E000EF1600EE27F0E150E926E250EA22EF5068
:10E1F000FD0B0209EF6E00EE27F0E150E926E25038
:10E20000EA22EF50FB0B0409EF6E00EE27F0E1501D
:10E21000E926E250EA22EF0EEF1600EE27F0E15079
:10E22000E926E250EA22F70EEF1600EE0FF0E15079
:10E23000E926E250EA22FF0EEF6E00EE23F0E150F5
:10E24000E926E250EA222C0EEE6E010EEE6EEE6A28
:10E25000ED6A00EE10F0E150E926E250EA22EE6AA3
:10E26000ED6AD92A050ED964AAD712001500D96A19
:10E27000D950280D000EF324E16E020EF420E26E58
:10E28000E7500A0A43E1E76A00EE0BF0E150E926A5
:10E29000E250EA2215C0EEFF16C0EDFF00EE0DF0D1
:10E2A000E150E926E250EA22EE6AED6A00EE07F05C
:10E2B000E150E926E250EA22EE6AEE6AEE6AED6A81
:10E2C00000EE27F0E150E926E250EA22EF50FE0B83
:10E2D0000109EF6E00EE27F0E150E926E250EA2254
:10E2E000F70EEF1600EE0FF0E150E926E250EA22B9
:10E2F000FF0EEF6E00EE27F0E150E926E250EA2231
:10E30000EF50FD0B0209EF6ED9501200D92A050E0D
:10E31000D964AED7FE0C1C00D96A0001206B000145
:10E320002051280D000EF324E16E020EF420E26E5F
:10E33000E7500A0A03E1010ED96E05D00001202B37
:10E34000050E2065ECD7D95001E1FE0C0101432BED
:10E35000000E442300EE0BF0E150E926E250EA22E1
:10E3600043C1EEFF44C1EDFF130E445D880ED8B4E7
:10E37000435D03E34369030E446F00EE27F0E15071
:10E38000E926E250EA22FE0EEF1600EE0DF0E15013
:10E39000E926E250EA221EC0EEFF1FC0EDFF00EEAC
:10E3A00016F0E150E926E250EA22EE2A000EEE22B3
:10E3B000EE22ED22ED52ED5200EE1AF0E150E92688
:10E3C000E250EA22EE6AEE6AEE6AED6AE1280001A6
:10E3D000AA6F000EE220AB6FE1CF21F0E2CF22F076
:10E3E0001CC0ACF01DC0ADF00A0EAE6FAF6BCDEC33
:10E3F000D0F021C0D9FF22C0DAFFD9280001A66FD2
:10E40000000EDA20A76F00EE0BF0D950E926DA50A3
:10E41000EA22EECFA8F0EDCFA9F000EE0DF0D95032
:10E42000E926DA50EA22EECFAAF0EDCFABF000EE0B
:10E4300016F0D950E926DA50EA22EECFACF0EECF52
:10E44000ADF0EECFAEF0EECFAFF000EE1AF0D95057
:10E45000E926DA50EA22EECFB0F0EECFB1F0EECFFF
:10E46000B2F0EECFB3F0020EB46FB569B66BB76B16
:10E470006CECF7F021C0E1FF22C0E2FF010EE76E75
:10E4800000EE16F0E150E926E250EA22EE2A000EF4
:10E49000EE22EE22ED22ED52ED5268ECD0F00001BA
:10E4A00000EE1FF02151E9262251EA2200C0EEFFC2
:10E4B00001C0EEFF02C0EEFF03C0EEFF20511200CC
:10E4C000D96ED950280D000EF324E96E020EF42007
:10E4D000EA6EEF50030A000ED8B4010E1200E96E86
:10E4E000E950280D000EF324D96E020EF420DA6EE6
:10E4F000E95000019A6FD9CF9BF0DACF9CF0DF5042
:10E50000030A09E0DF50020A06E09BC09DF09CC0B0
:10E510009EF0EDEFF9F000019A519DD99BC0E1FF0B
:10E520009CC0E2FFE1280001A66F000EE220A76F69
:10E5300000EE0BF0E150E926E250EA22EECFA8F01F
:10E54000EDCFA9F000EE0DF0E150E926E250EA220D
:10E55000EECFAAF0EDCFABF000EE16F0E150E926D9
:10E56000E250EA22EECFACF0EECFADF0EECFAEF05F
