:100000000CEF00F000FF0000FACF5FFFFBCF5EFFB8
:0400100065EDE6F0C4
:1000180000EE10F012EEE0F0EE6AE550E150FCE17F
:10002800E250FAE10F6A0EEEF9F04A0EEE6AE806BF
:08003800FDE10EEEF6F0040EEE
:10004000F66E000EF76E10EE03F033EC00F001EEEA
:1000500000F0DE0EF66E0F0EF76E10EE21F033ECB0
:1000600000F09DEFE6F00900F5CFEEFFE550E1501E
:08007000FAE1E250F8E1120090
:10007E0002500002F3CF04F0F4CF05F0025001025B
:10008E00F350052603500002F35005261200AE0071
:10009E0005D00001AE4BAF2BB04BB12B0001B20718
:1000AE00B22925E0B0C0F6FFB1C0F7FF0F0EF7641E
:1000BE0003D00800F55005D0F6CFE9FFF7CFEAFFE1
:1000CE00EF50016EAEC0F6FFAFC0F7FF0F0EF76434
:1000DE0003D00800F55005D0F6CFE9FFF7CFEAFFC1
:1000EE00EF50006E0150005CD96ED950D2E0000185
:1000FE00B307B329D3E1D9CF00F0016A00BE0106E0
:10010E0012000F01000EACA3010E12004F0EAB1623
:10011E000F01AC9BCF0E9D1612009E38006E003064
:10012E00010B1200AE501200AD6E12001400D96A0F
:10013E0014C0E1FF15C0E2FF00011651D95CD8B022
:10014E001200EBDF0009FDE0EDDFE96EE9CFE7FF1E
:10015E00E652D92AF1D73700D4DF0009FDE137C0C6
:10016E00E9FF38C0EAFFEF50DFDF37C0E9FF38C0E4
:10017E00EAFF0001374B382BEF50D8B41200ECD702
:10018E003000BFDF0009FDE130C0F6FF31C0F7FFE0
:10019E000F0EF76403D00800F55005D0F6CFE9FF37
:1001AE00F7CFEAFFEF50C0DF000130C0F6FF31C0DD
:1001BE00F7FF304B312B0F0EF76403D00800F550CC
:1001CE0005D0F6CFE9FFF7CFEAFFEF500009D8B41C
:1001DE001200D7D78A8693969496949A9488200E76
:1001EE00C66E9E960F01C78DC79F1D0EB3EC06F00F
:1001FE000001146F14B7F9D714C000F0016A001C87
:10020E00026E011C036E02B0F0D7A9EC06F0010ECF
:10021E000001156F166BC7ECD8F0D96A480E026E46
:10022E00020E036ED9CF00F0016A3FEC00F0080E0B
:10023E000424006E100E0520016ED950050D510ECE
:10024E00F324E96E010EF420EA6E00C0EEFF01C049
:10025E00EDFFD950050D550EF324E96E010EF42075
:10026E00EA6EEF50FE0B0109EF6ED92A060ED96425
:10027E00D5D70E01FB6B010EE8CFFEFE01EE4FF05F
:10028E00EE6AEE6A0001FD6B080E0FEC07F000013E
:10029E00FD6B090E0FEC07F0070E0001FD6F0C0E43
:1002AE000FEC07F0100E0001FD6F0D0E0FEC07F0B6
:1002BE00070E0001FD6F0A0E0FEC07F0100E000185
:1002CE00FD6F0B0E0FEC07F0080E0001FD6F040E14
:1002DE000FEC07F0100E0001FD6F050E0FEC07F08E
:1002EE000001FD6B020EFE6F74EC07F00D0E0001A7
:1002FE00FD6F000E0FEC07F0320E0001FD6F020EC7
:10030E000FEC07F0400E0001FD6F030E0FEC07F02F
:10031E003F0E0001FD6F090E0FEC07F0120E0001EB
:10032E00FD6F060E0FEC07F00C0E0001FD6F070EB1
:10033E000FEC07F0EE0E0001FD6F0A0E0FEC07F04A
:10034E00050E0001FD6F0B0E0FEC07F00001040E01
:10035E00FD6F030EFE6F74EC07F008C1FDF0040E86
:10036E000FEC07F009C1FDF0050E0FEC07F00AC106
:10037E00FDF0020E0FEC07F00BC1FDF0030E0FECBB
:10038E0007F00CC1FDF0000E0FEC07F00DC1FDF0F3
:10039E00010E0FEC07F0120EB3EC06F0E8CFFCFEE8
:1003AE000001186B010E196F100E51EC07F00001D1
:1003BE00720E186F040E196F140E51EC07F0000E2A
:1003CE007CEC07F0B7EF07F0010EDBEC06F0003027
:1003DE00026E0230010B1200000908E01F0EB3EC92
:1003EE0006F0006E000E00A6010E1200FDCEE8FF14
:1003FE000E01FB6308D01F0EB3EC06F0006E000E6C
:10040E0000A6010E1200010ED96ED950050D550E23
:10041E00F324E96E010EF420EA6EEF50006E00B088
:10042E00010CD92A060ED964F0D7000C000907E09A
:10043E001F0EB3EC06F0006E00B6FF0C000C010EA2
:10044E00D96ED950050D550EF324E96E010EF42028
:10045E00EA6EEF50006E00A016D0D950050D550E65
:10046E00F324E96E010EF420EA6EFE0EEF16D9505B
:10047E00050D550EF324E96E010EF420EA6EFD0E05
:10048E00EF16D9501200D92A060ED964DAD7FF0C0E
:10049E00D96E080ED9601200D950050D550EF324F1
:1004AE00E96E010EF420EA6EEF50FE0B0109EF6EBD
:1004BE00D9CFFBFE12000E01FE53D8A41200010E7E
:1004CE00E8CFFEFE4FC100F050C101F0FF0E002438
:1004DE0000019F6FFF0E0120A06F100EA05D080E91
:1004EE00D8B49F5D04E3070E9F6F100EA06F400EF1
:1004FE000001FF6F1E0E3BEC07F00C0E0001FD6FAE
:10050E00FE6B74EC07F000019F51FD6F0C0E0FECAB
:10051E0007F00001A051FD6F0D0E0FEF07F0000167
:10052E00190EFD6F010EFE6F74EC07F0190EB3EC91
:10053E0006F00001E06F0E0EFD6FFE6B74EC07F01F
:10054E000E0EB3EC06F00001DE6F0F0EB3EC06F0EC
:10055E000001DF6F190EFD6F010EFE6F74EC07F0D8
:10056E00190EFADB0001E019E1E10C0EFD6FFE6BD6
:10057E0074EC07F00C0EF0DB0001E06F0D0EECDBFF
:10058E000001E16FDF51E15D02E1DE51E05D11E25C
:10059E00DEC002F0DFC003F0E051025EE151035A0B
:1005AE00070E006E100E016E0250005E0350015ACF
:1005BE0012000001E151DF1902E1E051DE1905E1FF
:1005CE00070E006E100E016E1200E0C000F0E1C0CA
:1005DE0001F00001DE51005EDF51015AFF0E0006F0
:1005EE000120016E12001A000001190EFD6F010E9E
:1005FE00FE6F74EC07F0190EAFDB000901E1000C81
:10060E000E01FE5302E157DF000C4FC14DF150C1F8
:10061E004EF10001FD6BFE6B74EC07F04FC1FDF067
:10062E00000EF6DB50C1FDF0010EF2DB00011E0ED6
:10063E00EA6F000EEB6F140EEC6FED6B2DDB30C01E
:10064E00F9F031C0FAF0CBECE1F000C030F001C0AF
:10065E0031F000EE1EF0EE52100EED5C080ED8B426
:10066E00EF5C14E200011EB111D0000123BF0ED0C9
:10067E00000122B90BD000EE20F0EE52050EED5C1B
:10068E00EF0ED8B4EF5C02E2000122AFFF001EC0F5
:10069E004FF11FC050F11AC0AEF01BC0AFF00001F9
:1006AE002A0EB06F000EB16F060EB26FB36B58EC20
:1006BE00D9F01CC0E1FF1DC0E2FFFF0EE76E000186
:1006CE003151080A07E1305103E03051060AD8B41F
:1006DE0030C0E7FF0E01FE6B010CF700020E0001A9
:1006EE00FD6FFE6BFADBFBCEE8FF050D510EF3241A
:1006FE00E96E010EF420EA6EEF500001FD6F020E5E
:10070E0087DBFBCEE8FF050D520EF324E96E010EDA
:10071E00F420EA6EEF500001FD6F030E79DBFBCE85
:10072E00E8FF050D510EF324E96E010EF420EA6E7A
:10073E00EECF00F0EDCF01F00E0E0026000E0122DE
:10074E0000010050FA270150FB23FBCEE8FF050DF8
:10075E00530EF324E96E010EF420EA6EFAC0EEFF9A
:10076E00FBC0EDFF000EBEDAF7C0FCF0F8C0FDF0E6
:10077E00060E0001FE6FFF6BC9DA0001080EFC6F5A
:10078E00010EFD6F060EFE6FFF6BC0DA080EAADAC1
:10079E000001F95102E0060EA5D2000EA3D2040EFE
:1007AE000001FD6FFE6B99DBFBCEE8FF050D510ED0
:1007BE00F324E96E010EF420EA6EEF500001FD6F96
:1007CE00040E26DBFBCEE8FF050D520EF324E96E78
:1007DE00010EF420EA6EEF500001FD6F050E18DBDE
:1007EE00FBCEE8FF050D530EF324E96E010EF42047
:1007FE00EA6EEF500001FD6F060E0ADBFBCEE8FF3E
:10080E00050D540EF324E96E010EF420EA6EEF503E
:10081E000001FD6F070EFCDAFBCEFDFEFBCEE8FFFE
:10082E00050D550EF324E96E010EF420EA6EEF501D
:10083E00FD0B0209EF6E1C0E8FDA006E00A20AD0BD
:10084E00800E0001FF6F1F0E0FDB800E0001FF6F89
:10085E001F0EF4DA0A0E0001FF6F1C0EEFDA080EFF
:10086E000001FF6F1F0E00DBFCCEE8FF050AD8A4C7
:10087E0012001C0E71DA0A0B1C0EFCE06DDA006E13
:10088E0000A21200080E0001FF6F1F0ED7DA000142
:10089E00FD6BFE6B22DB000E5FDA0001DF6F010ED7
:1008AE005BDA0001E06F060E57DA0001E16F070E0A
:1008BE0053DA0001E26FE14BE22BE151FD6F000EC6
:1008CE00A7DA0001E251FD6F010EA2DA0001E30E7C
:1008DE00EA6F000EEB6F070EEC6FED6BDDD90001CA
:1008EE00DE6B1C0E39DA006E00A238D00001E6ABCA
:1008FE0035D0800E0001FF6F1F0EB6DA800E00019C
:10090E00FF6F1F0E9BDA0A0E0001FF6F1C0E96DAA8
:10091E00080E0001FF6F1F0EA7DA1C0E1DDA0A0B60
:10092E00FCE0080E0001FF6F1F0E88DA0001E15196
:10093E00FD6F000E6DDA0001E251FD6F010E68DAF7
:10094E000001E30EEA6F000EEB6F070EEC6FED6B1E
:10095E00A3D90001DE2B0F0EDE65C3D70001DF51D8
:10096E00FD6F000E55DA0001E051FD6F010E50D201
:10097E00A0004DC100F04EC101F00001A0510026B3
:10098E00A1510122140E0024A26F000E0120A36FAC
:10099E00100EA35D080ED8B4A25D04E3F80EA227D4
:1009AE00EF0EA3230001FD6BFE6B97DA0001A2513F
:1009BE00FD6F000E2DDA0001A351FD6F010E28DA36
:1009CE000001A251FD6F020E23DA0001A3512ED0B9
:1009DE00F700D96ED9CFFBFED950050D510EF32479
:1009EE00E96E010EF420EA6EEECF00F0EDCF01F0CD
:1009FE000F0E0026000E012200010050F7270150B5
:100A0E00F823020EFD6FFE6B68DA0001F751FD6FE1
:100A1E00000EFED90001F851FD6F010EF9D900014B
:100A2E00F751FD6F020EF4D90001F851FD6F030E60
:100A3E00EFD150004DC100F04EC101F000015051F8
:100A4E00002651510122140E0024546F000E012075
:100A5E00556F100E555D080ED8B4545D04E3F80EB4
:100A6E005427EF0E5523100E0001FD6FFE6B35DA85
:100A7E0000015451FD6F100ECBD900015551FD6F81
:100A8E00110EC6D90001FF0E5225006EFF0E532126
:100A9E00016E0050542701505523100E555D080E5F
:100AAE00D8B4545D04E3F80E5427EF0E552300011D
:100ABE005451FD6F120EACD900015551FD6F130E3E
:100ACE00A7D9300E0001FF6F1F0ECED91F0E44D9CD
:100ADE00006E00BAFBD7160E3FD90001556F170EE8
:100AEE003BD90001546F54C000F055C001F0120004
:100AFE00F700FBCEE8FF050D510EF324E96E010E53
:100B0E00F420EA6EEECF00F0EDCF01F00001F751C8
:100B1E000026F85101220F0E0024FB6F000E01205B
:100B2E00FC6F100EFD6FFE6BD8D90001FB51FD6FEF
:100B3E00100E6ED90001FC51FD6F110E69D9000126
:100B4E00FF0EF925006EFF0EFA21016E0050FB27F5
:100B5E000150FC23FB51FD6F120E5AD90001FC51BE
:100B6E00FD6F130E55D9300E0001FF6F1F0E7CD98D
:100B7E001F0EF2D8006E00BAFBD7160EEDD800018C
:100B8E00FC6F170EE9D80001FB6FFBC000F0FCC034
:100B9E0001F01200DE000001DF51DE1104E1FF0E54
:100BAE000068016812000001DE05DF1106E161D860
:100BBE00016E006A001E011E12000001FD6BFE6B2D
:100BCE008CD9000EC9D80001E06F010EC5D8000106
:100BDE00E16FE051FD6F100E1BD90001E151FD6F69
:100BEE00110E16D90001100EE15D080ED8B4E05DAD
:100BFE0014E2FF0EDE25006EFF0EDF21016E0050A7
:100C0E00E0270150E123100EE15D080ED8B4E05D3F
:100C1E000FE3F80EE027EF0E0AD00001FF0EDE25DF
:100C2E00006EFF0EDF21016E0050E0270150E12320
:100C3E000001E051FD6F120EEBD80001E151FD6F86
:100C4E00130EE6D8300E0001FF6F1F0E0DD91F0ECA
:100C5E0083D8006E00BAFBD7160E7ED80001E06F67
:100C6E00170E7AD80001E16FE0C000F0E1C001F08C
:100C7E0012008A969E963A0EC96E9EA6FED7C9504F
:100C8E00D96E9E96C96A9EA6FED7C950D96E9E96FB
:100C9E008A86D9501200EA008A969E963A0EC96E3E
:100CAE00F36AF46AEAC0E1FFEBC0E2FFE5529EA6EA
:100CBE00FED7C950D96E9E960001ED51F45C02E14B
:100CCE00EC51F35C09E2C96AF34AF42AE6529EA695
:100CDE00FED7C9CFE7FFEFD78A86F3CF00F0F4CF68
:100CEE0001F01200D96E8A969E967A0EC96E9EA655
:100CFE00FED7C950E16E9E96D950C96E9EA6FED7FC
:100D0E00C950D96E9E968A861200FC008A969E96CF
:100D1E007A0EC96EFCC0E1FFFDC0E2FF9EA6FED7B3
:100D2E00C950D96E9E960001FF51FE1109E0E750A1
:100D3E00C96EE652FE07D8A0FF079EB6F1D7FDD7C3
:100D4E008A8612008A969E96C9689EA6FED7C950BC
:100D5E00D96E9E968A8612008A969E96C96E9EA619
:100D6E00FED7C950D96E9E96C96A9EA6FED7C950A7
:100D7E00D96E9E968A86D95012008A969E96C96E14
:100D8E009EA6FED7C950D96E9E96C96A9EA6FED75C
:100D9E00C950D96E9E96C96A9EA6FED7C950D96E05
:100DAE009E968A86D950120000011A6F140EFD6F9E
:100DBE00020EFE6F92D800011A51FD6F140E28D844
:100DCE00010E0001FD6F120E23D800010A0EFD6FF9
:100DDE00030EFE6F82D80A0ED0DF006E00B0FBD776
:100DEE000001140EFD6F020EFE6F77D80001FD6B31
:100DFE00120E0ED8180EC1DF00011B6F190EBDDFCB
:100E0E0000011C6F1BC000F01CC001F01200FD00A1
:100E1E00D96E8A969E96D9504009C96E9EA6FED767
:100E2E00C950D96E9E960001FD51C96E9EA6FED781
:100E3E00C950D96E9E968A861200FF00D96E8A9688
:100E4E009E96D950A009C96E9EA6FED7C950D96EDE
:100E5E009E960001FF51C96E9EA6FED7C950D96E4F
:100E6E009E968A861200FF00D96E8A969E96D9505B
:100E7E008009C96E9EA6FED7C950D96E9E960001F6
:100E8E00FF51C96E9EA6FED7C950D96E9E968A8610
:100E9E001200180000011A6F140EFD6F020EFE6F85
:100EAE001CD800011A51FD6F140EB2DF000118514B
:100EBE00FD6F160EADDF00011951FD6F170EA8DF85
:100ECE0000010A0EFD6F030EFE6F07D80A0E55DFE6
:100EDE00006E00A01200FAD7FD00030E0001FF6F96
:100EEE001F0EACDF0001FE513DD00001156F0C0E40
:100EFE00FF6F1F0EA3DF000E57DF00C016F001C0FC
:100F0E0017F000011551020A04E11751010B156F7C
:100F1E000CD0000117511519FE0B1519176F16C0BD
:100F2E0018F017C019F0000EB5DF0001020EFD6FAC
:100F3E00FE6FD3DF020E21DFE16E0001E1501519C5
:100F4E00FE0B1519E16EE150FD6F020E61DF00011F
:100F5E00155102E1120E01D0150EFD6F040E58DF71
:100F6E00040E0001FF6F1F0E7FD7040E0001FF6FEE
:100F7E001F0E64DF1D0EF0DE006E00B4FBD71F0ED9
:100F8E00EBDE006E00B6FBD7200E0001FF6F1E0ECB
:100F9E006BD7200E0001FF6F1E0E50DF1D0EDCDE24
:100FAE00006E00A0FBD7DCD7E16E0001150EFD6FC1
:100FBE00030EFE6F92DFE1500001FD6F150E28D774
:100FCE000001150EFD6F030EFE6F87DF150EC4D6E2
:100FDE009F1178110A0A050F0004A3000000FFFFFD
:100FEE00FF000A0A050100000000000000000000DA
:100FFE0000005458540048544D004749460043479A
:10100E0049004A504700434C4100574156000000EA
:10101E000000746578742F706C61696E00000000BA
:10102E00000000000000746578742F68746D6C0009
:10103E0000000000000000000000696D6167652F70
:10104E006769660000000000000000000000746583
:10105E0078742F68746D6C000000000000000000B2
:10106E000000696D6167652F6A706567000000009A
:10107E000000000000006170706C69636174696F3C
:10108E006E2F6A6176612D766D00617564696F2FC2
:10109E00782D7761766500000000000000000000EA
:1010AE000000000000000000000000000000000032
:1010BE000000485454502F312E3020323030204F03
:1010CE004B0D0A436F6E74656E742D747970653AAC
:1010DE002000485454502F312E3020323030204FC3
:1010EE004B0D0A446174653A205765642C203035E7
:1010FE002041707220323030362030323A35333A59
:10110E00303520474D540D0A457870697265733A33
:10111E00205765642C2030352041707220323030DB
:10112E00362030323A35323A303520474D540D0A9A
:10113E0043616368652D636F6E74726F6C3A2070D5
:10114E007269766174650D0A436F6E74656E742DE7
:10115E00747970653A20000D0A0D0A004745540057
:10116E00494E4445582E48544D00485454502F3142
:10117E002E3020353033200D0A0D0A5365727669F4
:10118E00636520556E617661696C61626C650D0AEE
:10119E0000485454502F312E3020343034204E6FAE
:1011AE007420666F756E640D0A0D0A4E6F7420669C
:1011BE006F756E642E0D0A004E65772049502041E2
:1011CE006464726573733A20000D0A00494E4445FB
:1011DE00582E43474900434F4E4649472E434749F1
:1011EE0000494E4445582E434749000D0A0D0A0D3D
:1011FE004D6963726F63686970205443502F495074
:10120E0020436F6E666967204170706C696361740C
:10121E00696F6E202876332E36302C204A756C205E
:10122E0031312032303036290D0A0D0A09313A207B
:10123E004368616E676520426F61726420736572E8
:10124E0069616C206E756D6265722E0D0A09323AF7
:10125E00204368616E67652064656661756C7420F5
:10126E00495020616464726573732E0D0A09333A16
:10127E00204368616E67652064656661756C7420D5
:10128E006761746577617920616464726573732E2A
:10129E000D0A09343A204368616E676520646566FD
:1012AE0061756C74207375626E6574206D61736BFD
:1012BE002E0D0A09353A20456E61626C6520444850
:1012CE004350202620495020476C65616E696E6739
:1012DE002E0D0A09363A2044697361626C6520440A
:1012EE00484350202620495020476C65616E696E38
:1012FE00672E0D0A09373A20446F776E6C6F616462
:10130E00204D50465320696D6167652E0D0A0938D0
:10131E003A2053617665202620517569742E0D0A88
:10132E000D0A456E7465722061206D656E752063C1
:10133E00686F6963652028312D38293A2000EB1338
:10134E00D413B813FD136E144D1415148E140D0A08
:10135E00496E76616C696420696E70757420726571
:10136E00636569766564202D20496E7075742069F9
:10137E00676E6F7265642E0D0A507265737320610D
:10138E006E79206B657920746F20636F6E74696E51
:10139E0075652E2E2E0D0A004A756C2031312032C5
:1013AE003030360076332E3630000D0A44656661D5
:1013BE00756C74204761746577617920416464723D
:1013CE006573732028000D0A44656661756C742080
:1013DE00495020416464726573732028000D0A53CE
:1013EE00657269616C204E756D6265722028000D04
:1013FE000A44656661756C74205375626E6574205F
:10140E004D61736B2028000D0A526561647920745A
:10141E006F20646F776E6C6F6164204D5046532061
:10142E00696D616765202D2055736520586D6F6459
:10143E00656D2070726F746F636F6C2E0D0A000DE8
:10144E000A44484350202620495020476C65616E5F
:10145E00696E672064697361626C65642E0D0A00A3
:10146E000D0A44484350202620495020476C6561A0
:10147E006E696E6720656E61626C65642E0D0A0082
:10148E000D0A4E6F772072756E6E696E67206170F1
:10149E00706C69636174696F6E2E2E2E0D0A003C9E
:1014AE0068746D6C3E3C686561643E3C7469746C36
:1014BE00653E4D6963726F63686970205443502FA7
:1014CE00495020537461636B20417263686974657F
:1014DE0063747572653C2F7469746C653E3C2F683D
:1014EE006561643E3C626F6479206267636F6C6F06
:1014FE00723D2223464646464646223E09093C7424
:10150E0061626C6520626F726465723D22302220CA
:10151E0077696474683D2231303025223E0909090D
:10152E003C74723E090909093C74643E09090909B3
:10153E00093C696D67207372633D224D6368702E9E
:10154E00676966223E3C2F696D673E090909093CB1
:10155E002F74643E090909093C7464207769647428
:10156E00683D2231303025223E09090909093C70B7
:10157E0020616C69676E3D227269676874223E094C
:10158E0009090909093C666F6E742073697A653D15
:10159E0022362220666163653D224D532053616ED3
:1015AE0073205365726966223E0909090909090902
:1015BE003C623E09090909090909094D6963726FFF
:1015CE0063686970205443502F49502053746163EF
:1015DE006B090909090909093C2F623E0909090924
:1015EE0009093C2F666F6E743E09090909093C2FE3
:1015FE00703E090909093C2F74643E0909093C2F04
:10160E0074723E09093C2F7461626C653E09093C97
:10161E007461626C6520626F726465723D22302265
:10162E002063656C6C70616464696E673D22302264
:10163E002063656C6C73706163696E673D22302246
:10164E002077696474683D22313030252220666728
:10165E00636F6C6F723D227768697465223E09096B
:10166E00093C7472206267636F6C6F723D22234671
:10167E00463030303022206667636F6C6F723D22C9
:10168E007768697465223E090909093C74642077FC
:10169E00696474683D22323525223E09090909091B
:1016AE003C6120687265663D22496E6465782E68DD
:1016BE00746D223E0909090909093C666F6E742092
:1016CE00636F6C6F723D2223464646464646223E67
:1016DE00090909090909093C623E486F6D653C2FED
:1016EE00623E0909090909093C2F666F6E743E09AD
:1016FE00090909093C2F613E090909093C2F746447
:10170E003E090909093C74642077696474683D22B6
:10171E00323525223E09090909093C6120687265A6
:10172E00663D2246656174757265732E68746D220E
:10173E003E0909090909093C666F6E7420636F6CD6
:10174E006F723D2223464646464646223E09090909
:10175E00090909093C623E46656174757265733C00
:10176E002F623E0909090909093C2F666F6E743E06
:10177E000909090909093C2F613E090909093C2F8C
:10178E0074643E090909093C7464207769647468BD
:10179E003D22323525223E090909090909093C660F
:1017AE006F6E7420636F6C6F723D22234646464601
:1017BE004646223E09090909090909093C623E41CA
:1017CE0072636869746563747572653C2F623E0955
:1017DE000909090909093C2F666F6E743E0909094A
:1017EE00093C2F74643E090909093C746420776929
:1017FE006474683D22323525223E0909090909091A
:10180E003C6120687265663D22466F6F7470726E21
:10181E00742E68746D223E090909090909093C668E
:10182E006F6E7420636F6C6F723D22234646464680
:10183E004646223E09090909090909093C623E5337
:10184E007461636B20466F6F747072696E743C2F97
:10185E00623E090909090909093C2F666F6E743E3B
:10186E000909090909093C2F613E090909093C2F9B
:10187E0074643E0909093C2F74723E09093C2F74A9
:10188E0061626C653E3C62723E3C703E54686520FF
:10189E004D6963726F636869702045746865726E16
:1018AE00657420636F6E74726F6C6C6572732069F1
:1018BE006E636F72706F7261746573206E656172A4
:1018CE006C7920616C6C2045746865726E6574204D
:1018DE00626C6F636B73206E65636573736172798F
:1018EE0020746F20746F20636F6D706C657465204B
:1018FE00616E2045746865726E657420696E7465DC
:10190E0072666163652E20204F6E6C7920612066B1
:10191E00657720636F6D706F6E656E74732C2061CA
:10192E00732073686F772C206172652072657175F4
:10193E00697265642E3C2F703E3C62723E3C696D4E
:10194E0067207372633D22454E4332384A36304328
:10195E006F6E6E6563742E706E67223E3C703E54E1
:10196E006865204D6963726F6368697020544350D7
:02197E002F49EF
:101980005020537461636B2075736573206120630D
:101990006F6F7065726174697665206D756C7469BE
:1019A0007461736B696E67206D6574686F64207411
:1019B0006F20736570617261746520697473656C02
:1019C000662066726F6D20746865206D61696E2097
:1019D0006170706C69636174696F6E2E2049742048
:1019E000636C6F73656C7920666F6C6C6F777320B6
:1019F000746865202671756F743B5443502F4950AD
:101A00007265666572656E6365206D6F64656C2EC8
:101A10002671756F743B20416C6C206D616A6F722A
:101A200020636F6D706F6E656E74732061726520D8
:101A3000696E20736570617261746520736F757271
:101A400063652066696C65732E3C2F703E3C2F6287
:101A50006F64793E3C2F68746D6C3E04FFFFFF2578
:101A6000313704FFFFFF25303404FFFFFF253044EA
:101A700004FFFFFF25304504FFFFFF25304604FF2C
:101A8000FFFF89504E470D0A1A0A0000000D494811
:101A9000445200000255000001350800000000EB30
:101AA000714AA9000000097048597300000EC30074
:101AB000000EC301C76FA8640000163849444154A2
:101AC000789CED9DD99AEC2A084679FF97B62F3A73
:101AD000714405C429C5FF9DB32B15078859856836
:101AE000A5BBC1994CDA82DD0E983E28A3CAA42F6B
:101AF000A3CAA42FA3CAA42FA3CAF4AAC302D0596D
:101B000031AAE6EBBD1D00EF781F39EAD0C6A65317
:101B10009CD61D76C6D4D1CB1238070753A508D55D
:101B200091D7D713ACD6B8C7E115DC9983AE09D5E8
:101B30009117D8D3629F55A13A952A55A84EBCC09B
:101B4000AEAEA32AC3EAC031D785EAC42BECEA3291
:101B5000AA92BCEA4CAA94A13AF00AFBBA8CAAFF5A
:101B60003520F8B5E07943AE0DD58197D8D76D54BF
:101B70009D2E2E54D10AC61701FC9F7FDE297BB80B
:101B8000422D9FDF45DB7F7C80F754F1E2FC40244F
:101B9000E7B8E6BE20F61A18A2B8EBC71222C4AE08
:101BA0001CB23655EF6B8C1640F6F2542DCE71CD2B
:101BB0007D4250BC29CF24270AAAE01DC65A930BA8
:101BC000C4A22AC625A72A1A1AA3EA7D5344273A93
:101BD00055613E9CE2E75C11A92A835049150A1F12
:101BE000C31CD161E54D55658589CB0F08B4024F03
:101BF00091574114F89326FDC995A859971E5F5532
:101C0000AB2C90525055E455E5ACC835C7D271386D
:101C10003D42016A52157FB519DFF9822A750FE737
:101C20008916AB023571513103031A552E25E33D58
:101C3000E94F5567C038978224B5FA3055D9C2E4C8
:101C40005D1046201955CE39D7DC97854A5E15AD13
:101C5000A0FDB9F0F6F354659F2AA3AA14972A4A67
:101C60008FE96B51FE2623CEA724C90C5AEB6FA631
:101C7000887955084F3E030385E8228A3712736A34
:101C80007EEFD456AA92E5D2A9549D6CEE3EAA608E
:101C90001E551096E9CF2967546DED485955AAC0D5
:101CA000A83ADFDC6D54C1C458E520DB9037AA7632
:101CB00077A4AC1D33A051755C47CADA431518559B
:101CC0006775A42C01559D2F56E854D91A70B8A3F6
:101CD00043B1225295ECBC57AA67070DAA5C202994
:101CE0006C00D5FD98AF5BA93A952BDA7E1528528A
:101CF000C5D5E7A91AFB06FD60AA2084A6F01AA89C
:101D00004A2FDBA8D235F7A35465576D54D57AC94D
:101D1000BFB4797A867C86AF64A693A5728DC49190
:101D2000E853953B6454B5FB8946CEBFBC411F3395
:101D3000B7E88E9F455571CD4655BB1F2E5563198B
:101D400037B9ED62AA5A41134AA862F7B043A30A11
:101D500000A7CACF438D111D31D9EEF09858056800
:101D6000740E27D095A151E50F89B14A6E3E7F527E
:101D7000B2D5E55AAADAC548748EF831AA907ED851
:101D800054C913AB74ACC3435F4FB8ECC6AF4992B0
:101D9000AC1C6C066CF7F3A2E337780B0B45AC92E6
:101DA000AED1FC58BF5BCBE58453357A988C2A754D
:101DB0007342ACD244ED498403035569974655C537
:101DC000DC346DA56A6437E96919A195C4AABAD152
:101DD000E36454299A1BDEA00C54B92456419E1486
:101DE0004FBAC67E0E4514EAE9FD54F5F249657313
:101DF000DEE4605FD4F6B3A89ADACFFD54AD531E8B
:101E0000ABE41D315AFF24554FE86E6D8F69AB7CF2
:101E1000266C91D205618246D810485FDE5649BED5
:101E2000C442F277A90A3942CF9C86C2FDCC37035F
:101E300003A6997CECD41DF17976FAF27A05B97390
:101E40008C58554B6692C46C241F1AD22CAAC06DB4
:101E5000A10A20FE9DE510DFC86986714FFE0701CB
:101E60000A47206A553C0F279E013D13611129E165
:101E7000E44EAA449F1FD9072EBE7B53855EA20B5A
:101E8000F1BA4155DE18A2A76E5A36F2D2282AFBC3
:101E9000FF17E7019947EDB3F7C42A8753B57606D4
:101EA0008CC3C3FFA1BFE32855E9D764E02731D62F
:101EB000B041952A40005DA2495425C1B86B4E43FC
:101EC000100789C4D2AA193046EA2DCAF32A480756
:101ED00014206BEE7CE5E291C1BA0303FFD520A389
:101EE0002AB45FAF8954AD5E03036637CC2DCFAB08
:101EF0000AACC07FBEFC6D4F436996584188305193
:101F000068EB5D421A14DFBE93C0BD5A73A8629A93
:101F1000D3559881FE5FD698F3467B77B2551A2544
:101F20006481410A552E8F550E2A8F3E2DD177A9F7
:101F30005AA5629297878834CD8F0215A93B34AF9A
:101F400012F9312CA34ADD9C10AB905779226879A5
:101F500055E8C065546D9351A56B6E2C520DB80EAB
:101F60009051B5932BC0E58BB3D761734AFDECB6A6
:101F7000513137981F8F34CEA8DA37FB3967B14A11
:101F8000D19CC29A4BE7319AAD29D5BF2BEDB34610
:101F900015C3DCF05A7E0C85EFE75549DE39D00FCA
:101FA000C7A2DFD48E5D08BBDAB34C173B0BD27EE1
:101FB0004623DDE7A90AEBE16C653C972AF008C5EA
:101FC000F69DF49777110D77DE8B3B62B6FE7E5E51
:101FD00005D1BF2EFF5662BA52E3990BEA32AA101E
:101FE00067DA678766C0742A12F5C3329950F54ED6
:101FF000C2850BEA767337943AE2B7FF816C3D4CA9
:102000003A71A058370303BA389B5A18ABF651E51A
:1020100052AA467B1BF5E43902E4E6DF9557C53644
:1020200036E555200D12206E197A70C75105F99BBF
:10203000E4403403032E5D030346B6631716AF0175
:1020400017658E15B934AFE2B69D34267A5491CC1B
:102050004DD2E24F294295A89BA15B5BA78ADA810A
:10206000D874B737A36AD89C988DF1809153C56B0B
:10207000DCEA571435CB9E8D2AB1B963D6806AC687
:10208000057EE1AB7EA34A6E6E1755C50CA8657C34
:10209000882A346A19556C739BA882F2096325E378
:1020A000235425D3E1855421CEAF513103034AE7B0
:1020B00040ED58750255F8D9A19D857780315CD5E2
:1020C00015B2C46467613E6245AC92E6DDCA79D55B
:1020D0001933207A564815BCFFC59B91827E38265D
:1020E000FDF203032217365025C6EA9BD93A7656ED
:1020F0004E95C3A8922C52F98A3D5E4D9503042952
:10210000CC7D811F4766EBE8D9B119D02D8C55CD18
:102110006F97672A5E3A8F5011775376DDCDD7E0FF
:10212000C86C1D3F2BA761D30CE832E7175255202E
:10213000051E90F4E56D0304B87BFE746533B1E6CB
:10214000C7E7B3F53D79556263475E95C62A60FEE1
:10215000A2A1C8FF64FA86F854CB9134AFFAEC0C14
:10216000F846E5B5ABFE7D33A08BC1A2FFA2A1323C
:102170002FC4A8EA62F27DAA78E674B5C246CB5CA9
:10218000C4469BAAACED58AC8AA67FD10C58AF6F61
:1021900054ADB2D13217479D385A9754A50F130E3C
:1021A00053F536915255696154ADB2513597AC42F1
:1021B0008BBC2ACFFDD03FF392051D07008EF23075
:1021C000EBD0CE42305C9E6677741A55512A961E2B
:1021D000BAF4B0B5CEDE4755F681077FA7E14D8C46
:1021E000FC953CFF62B1AA61A0ED489A57115B953E
:1021F0005D48ED27FDA0CA7B5C46954257BBA8A26F
:102200006D56D56B285325190635AADA678DAAAE07
:10221000A2D844E3AADF91A42E92AD0BDCC1EA9FC1
:102220004355BCB38046F9F1CCB04755FCDCFA4CC1
:1022300025DD8F80C5A2AA36C124E99896942E6523
:1022400094AAB06C018CAAB1CF34C1B88BED4F0EFB
:102250005E79EFD23B3118AB74A4745BA651E52ACA
:102260005489F91718773BA8E2C72B4164F849AAAB
:102270008A6F97C379BD58DBE9249F116629ED7DEC
:10228000F6470635AAD7AD52BFD3B2F5CA0C3830DF
:1022900059332C8783A554892F8C3D2C3F49552BCE
:1022A000AF6A0E9F5EB6BE3EAF5A13A532A3AA9D7B
:1022B000AAB99FAC8BCBB393D6800BA8DAB1065CDE
:1022C00034FDB91954A9BA5E4C17E5D9E48496399E
:1022D0006139A5EAAA78819A93DE1A665AA07E8DA2
:1022E000BA9F0740DF185574153B0B3B8C1ED66117
:1022F00012BFCBB33F4DD5F3F97D27F26851197F5B
:10230000B2B5A8E26D46088D2CEAD06255D746B228
:10231000F428972099B93D79557E9F008037A9D13F
:10232000BDA6D434AABA3658542D4AD72B2887676D
:10233000703227B91DB66A521477BB9FAAC36CFCD2
:102340005305703A55F9260AE0B5181D8ED58C460E
:10235000E784BCEA301B3E93C2A87A13AD2DAA5C79
:10236000F37154A1678DAA3A55A8B945B12A97517E
:10237000355B73A80A8F71665BBB5BB2F55C085571
:10238000D3F22A711DCBD6E9DA4251AE2CAF2AD056
:102390002775A057D3A81AD511540DCBA8EA5435E8
:1023A000AA030432AA3A558D2A818CAA4E55A34A13
:1023B00020A3AA53D5A812E8D354DD62639FB9497C
:1023C00032AA0EB0B1CFDC24195507D8D8676E9267
:1023D00094A96A7FCD64549D666E922C561D6063ED
:1023E0009FB949FA345547AE01FFA337BCDF826479
:1023F000DF851855D43A4655D925BC2FF1D356A5BB
:10240000B93DCF2C0CCBA8EA54DD4A15F6F0D30D1C
:1024100032AA3A55675115664070D153E1F39ECC0C
:102420006B69C615EAD534AAA8B67C6802E760775E
:10243000AC32AAFAE6E8E594AA5BA95AF430A851AE
:10244000D537A7AB0554B5D6804BB2AA8BA882F27C
:10245000C8A8629B33AAD20FDD69542195E5E177C4
:102460009A0AAAAEFCE4CCA20A8E8B55B752B520CC
:10247000B33A85AAEE12F550AAC26FED8BFEC08B5F
:102480009E8D7195E61670A54F15D967A8BE414E71
:1024900027B7EC8C35200304B7DEBDC746964CB693
:1024A000A12C3456DD4915A9571E5571AF075105AA
:1024B000FECF2B00FE073AD8369485CD086B8DAA47
:1024C000754A729C4555727C1055EF61F83D3FBDD1
:1024D000AEB651B50A2937ED1A29CE5F4F1540F82F
:1024E000AB55CE1D1FAB4AA820DCA8F7EB9DA41965
:1024F00031536C1955D50CAA90B35BA91256DD3F28
:10250000030386779E1B88FE7B8A4203041E34AA3F
:1025100028EE1FE231AA2609CFD6FF4B32AAE249A4
:10252000DCD7D033FA1640E407B3FF6F52758B8DBA
:10253000A6B9E76EBE2035A8123B5BDD25F254D567
:10254000769214D4BCF8C669A36AC09CBFC10021AE
:102550002F0C596182933858618EC454B1A354D45E
:1025600007A73EE7F43154859DCF10DAB56D0C2AEC
:1025700035977E9ACBBC2AFB25B5A081551EA7FEB8
:10258000A97A4A983D714D734E9F425598379C23C6
:102590005FF33EAAB009E2BDDF6FD84A43964AAC6A
:1025A0007AAC96B10A8C2AAC3CFAC0413E46E7654B
:1025B000EB3953FD164A1E44094F9C5771BF3A121E
:1025C000CC9A5752F5CE80103EF6FDAE36CE804501
:1025D000B05AE381025542CFEFA42AA4265750E512
:1025E000F680F5AE0E9C7C06143A7D2555701F557D
:1025F0008E3E136A3B5266EB8CC6429B35579A5B04
:1026000012BB63553603039E9D573DEF374135B6E8
:10261000B3A04C55FBEC6EAA24557752B50DA9F02A
:102620007047B2C6A137175AE59C36AAE88ACCEDA6
:1026300063CA85A5B2513545DBA8DA0AD559795563
:10264000FBAC51C532B7395839A36A9AB667EB6B00
:10265000ED07BB96ADF32AAE4811A42AA85A6BDE4B
:102660009BB5BCAA5FDE377860B6BEC37CB06B5446
:1026700075CB9F9171EE7D84A41824A32A377C62C8
:102680005E856D7EEEA50A9C83F71F28DA1E4BD56A
:102690000F65EBB58008C8D1A15451BBDA4AD54FBC
:1026A000ED82562F164F648EA4EA8A5855F9068C8F
:1026B00024B2C5460731551C130DE3239792D83C2D
:1026C000802A00B831AF62E1D1EA48D03EA38A65E2
:1026D000415454BDD87688DA47557CA63777336D98
:1026E000282B0FA1A750C5B320A6AADF643F5558D9
:1026F000136E9BDDD9BA5647ECF6CB6355BF09E4A0
:102700006F92838D541D69A3616E1355485EC5B1E8
:1027100030892A77445E758B8D86B94D332096AD0E
:10272000332CCCA20A3D6B54B1CD89F3F52FCE806A
:10273000F8D9FDD93ABFEA66AA03045CD116FFFDB9
:102740005EDCE26C9DD9C4A8A20B8D55DB9F5BB704
:1027500058C528A754DD49D52EA22CAF1A29A75455
:10276000DD46D53EA49C5135524EA97A1F55795E5F
:1027700005D8B077FBB619505A4EA97AD00C08FE8E
:10278000EEA62F6F3348A08C5B65B5733BA82396EC
:10279000AD4FD411D9FA73F81292BE388F40CC4D98
:1027A00049D50B57865FCD91A158550F8582106C86
:1027B000544D30E7739C8CAA38883CC70CAADA7752
:1027C000F62996E655BA581955DAE64276E4BA542F
:1027D000390E553D3F86BEB1793D6FF74E9551A5F7
:1027E0006B2EFA58C3F3344FB8C92555B53FC8B15D
:1027F0007C068CBA6017619551E57E18551473C537
:102800005451E655D9F20EC015639D479DE7093333
:102810002E556D571B5D08CA6886B65135EC39AF29
:102820000F0D45C1A69842C0DF6B7833A397A3462E
:10283000ACAA5B68FAA110ABB482955135AA2436D4
:1028400091F2DA5A52CCA85F9D60E2BC6ABA9857FE
:102850006854D19599A3818534E9DFABBA51AA2197
:10286000822B8C22A36A9E90A5169B2B05A33AADC2
:102870008CAA660139580F2BEF5A628FEDE824AA13
:1028800078D9FAEF51B54E89B9D908A346F55AF16E
:1028900092F5D554BD7F48FD196364A7627AF000B4
:1028A00097FA30D99C73EB907293A86A388F5ED8F0
:1028B00006AAFC5DF537F8ED67CD94F4C0ECD7447B
:1028C00093CD39377661CC89BA9876F3D7672723C9
:1028D000EDB139BF55CD578B2854C52DE751B52CD7
:1028E000D1D940955B92A8974643E8F7AF0EBDF269
:1028F0000E55DC22025590BF490E03043320B4A9C3
:10290000C2C532D2EC03045CE2C33C95D9BAB4A38D
:1029100081A4129E7F202D665025282252553F2BE0
:10292000C9ABA04915AF439E71E78DC206AAA65A4E
:10293000EB185D4B553F3A24777A1E55DE19E615A4
:1029400030AA4EA0EAF1F8F9370DECBF4B15A1897A
:10295000FA0C18CDEEF435A036556A336034C54410
:10296000191BE2C796BC0AA38A9957898ABA4D54A3
:10297000A9EA9B139653AA4EB9AB54AA16A5EB9D90
:10298000BC2A7E86AFD16AB8A8DBC4A8EA5B8B6696
:1029900040388BAAE15693A852DD5920989395535D
:1029A000AA4E8D552E84AB371E6C91FC22348B7849
:1029B0004D8C2AB4D3942ADCDC925025D4AF5275C6
:1029C000AC8D822AF5A15920A3EA6C1BFBCC8DC8E3
:1029D000A83ADBC63E732332AACEB6B1CFDC888CD0
:1029E000AAB36DEC3337A25FA5EAD835605D461512
:1029F000B58951459751456D6254D16554519B1825
:102A0000557419554893F617024655574615B5891A
:102A100051957408CF6FC0F35BEAFFFFF8ADF65B2A
:102A2000F4AB541D69E381C9FFE7203A36AAC84DCB
:102A30008CAABC4394AA39E6E6C9A83AC8469801CC
:102A400063B0C2AFFA9CFAF48AA68CAA836C4420C5
:102A50003D3841F4A825D99C51951FFC76B6EED29D
:102A600019309D03048D2A6A13A32AEF10C21AF0AD
:102A70005DFA71D78046557E207E1296995B1C497F
:102A8000555B4655A309BAF9A93E125DAA207918EB
:102A90003C1CBAF4B005A85125F0605EAC82F26827
:102AA000FF48F06554093C50A00AFB691A67544D71
:102AB00036B77F2CA75285CE75F8E1FE91E0CBA802
:102AC0001278202CEAA7CF46D55C73FBC7529FAA89
:102AD000E8108F55E85CB87F24F832AA03041E8CF6
:102AE0001719555BCCED1FCBA954E1C9945135D9C9
:102AF000DCFEB1DC40155A61FF48F06554093C30FA
:102B0000AA3A82E495B49BFF9F6A86DD56523D88BF
:102B1000BE62E6F8B54F46955C12AAFCE1FFFF489D
:102B2000A3B21E84162CBFF6C9A8922B713EF912CF
:102B300018FB9AE7A7A8AABB6054759452051129FF
:102B4000182EF1CCE61AA820F580F75B47F78FA581
:102B5000512557BCACF51C81FF03037D58ED3406AD
:102B6000A15F5D7F22564D2DFA31AAA25855A99D2D
:102B7000D3528D55593DA30A7FF369AAFC1C584FC7
:102B8000979C5FD5BD6B3BC83BA9D4BB710DD8FAF0
:102B90004335B256384ADFA6EA2873FBC7B2F1E0E4
:102BA000A4429151B5C3DC1163D92184DD2A2A8264
:102BB000EC64FD498623468229A3AAEE42158F467E
:102BC00040A2062B8B553BCCED1ECBA94839A36AFE
:102BD0008FB9AD63391B296754ED31B7732C65C9C3
:102BE000388FC58F53B55864BF665E34C1BC08AC1E
:102BF000C635E625DFA60A13E93A26F3B17F2CE7AE
:102C0000826554C92BB12A2AB4525623BAB6E26E51
:102C1000BB55B9B380576D17DF27A3CAB9D9D9956A
:102C20005125AFC4AAA8D04A4FDA48E51D1A55F27B
:102C30004AAC8A0AAD94444FBA896565114A555C1D
:102C4000C7A8D2A9A8D04A4723731FB5154615E4D3
:102C50006FF29A57EBD7A972630B4052915125AF8F
:102C6000C4AAA8D04A5373A7419B01D13A9FA7CACF
:102C700075E73476AB786721922F75BF1EAB7E80E7
:102C8000AA5EB0D29A208D2A6625564585566A6A74
:102C900070239BFF5A1DC6074695626F65AB8D83F7
:102CA000B912296779555CA73E4AE29A79AB5DE390
:102CB000299BDF841BA7B60B9A5422DF777ACDB20B
:102CC00019BB95923AF0C85AD58ADA677F8A2AFAF0
:102CD0006D97512564514FC29F326DB432AA7A5517
:102CE000A837FD52A45C1B1DD522A3EABFFCFB48FC
:102CF00039A34A5BEDEBA0DFF3FBF2F4584695AE47
:102D00003AD7B1264FDF3E984695AEFAD7F10B6021
:102D10001955BA3A6C6761135F4695AEE8591303CB
:102D2000032BB613812AB24B12FD5BF1004705ADB0
:102D3000A2FF3276ABAA07887ACD6E1379138AD4B4
:102D40009984A9A4D14355B88F10DEAB08DE4B8619
:102D5000F8DAA153E480D66A148F9FA18A4CCA384E
:102D600052CEE3F3DC2FF8FFC7FF12BF71F9C8E2C0
:102D700023E37BBA55E440D44AE4DE2744D859988B
:102D800037F395AD9E4F7E1CABE249665810FD8728
:102D9000F051297A0167B612B9F70975AE63769ECC
:102DA0009EE515D18D9A12ABC0BF1410348AB2D9EA
:102DB0008FDA4AEEDFF1FAFFE4C727D27BDFBF8E5E
:102DC000A5609579D5FF19A55815410B2E85B951E8
:102DD0001445234E2BA17F172824BCFE4C5681D6C8
:102DE000CB5CB096EDB1FF079477464D92EB4691E0
:102DF000FF68F25A49FDBB40E9A41F01862F6D6BA5
:102E0000BD4C4DD9F7EF83366CAB1709FD384A2519
:102E100055457ADCED626ECABE1D29675471558D29
:102E200055E40E96EE2C6C9251C5D31855CB7716FF
:102E300036C9A8E2299AF300A23F0941CCAB6869E0
:102E400057A8C9F7EF08B08C2AB15097697915D106
:102E5000800C0FA36AB4D94E49A9625CAC6C54F6DD
:102E60008F65DD830304F97CA5C3FD599A013FEE0C
:102E70009251D5F6209E9FB3C9BA993968FB7197D4
:102E8000682993666F5AAD3405FA92F9A17C5DBB4F
:102E9000645435950082C42A65D70F1E099696CCD6
:102EA000809DF6278F65420E7D06945A53EE6F97EC
:102EB000A454E103038A9FFCFF86B891BB507C3881
:102EC00042B33DBD6724DA9251F5FF312D3FAB2867
:102ED0007E009D670EEE194BA38A2609551E94921B
:102EE000B6E20304257DBD672C8D2A9A0304543570
:102EF00048695035EAC31132AA681AA28AD09B5198
:102F00007552FFAB24A4AAB200C213B0DE62E99EE0
:102F1000B134AA681A895584DE489B82F78CA55182
:102F20004593305BAF2CEAD019B0FBF5F13D6369F6
:102F300054D124DA59A8861F7C67A187D53D6369DF
:102F400054D1D45AF057BFDDCA48A9577CEA76BE9F
:102F5000F3B9672C8D2A9A245441BE05DAA0AAA899
:102F6000CBF3E1301955343557FC44A8909A5141C0
:102F700017AA8BC612D0C36891FB0E515E83DFFF88
:102F8000D56A0711225445CDE8741FAA1BC6B2B8F2
:102F90003EFC47752106CAA8AA9512A1CA6A46270F
:102FA00009505D349645AC82E767ABB3F3E001E3CB
:102FB0005DDB3D23D1562F8C14ACD41E4040A08A3B
:102FC0001A8CF870A6FC54977E70DED32F514615EC
:102FD0005A8EB282EE2AE05029F870A412AA8AD33F
:102FE000F0842CE6A55D391288FA8184CC8A14AA73
:102FF0001BC6B2CC1B71AADE80EE8CAA4E0D322B02
:1030000042A82E1ACB3228A519FA3B0049D62EEB3E
:10301000FF6A116310B133E10F03044A1A6D517353
:103020001F6672FF37A97E1D8069B026D787D364DB
:10303000BBA03451AE837EADB251B9672C8D2A9AB4
:103040008C2A8E8C2A9A8C2A8E8C2A9A8C2A8E8C88
:103050002A9A8C2A8E8C2A9A8C2A8E8C2A9A8C2ACE
:103060008E8C2A9A8C2A8E8C2A9A8C2A8E8CAAB6BE
:10307000383BE1F46F9699FBEAF2EDF84D32AA681D
:103080006A5E07FDAE43F2A262FC441955267D1923
:10309000555D5182107D7E924D6457CD7F46954996
:1030A00053234F64B0EC4CEA77A54823441E46E115
:1030B000785F11A9E29F0304096F27D899D4EFED37
:1030C000128ECBD9C399FFB49F51D5D61141E208D6
:1030D000271A8255A1EA97A8E2EC3F4D7362A796A2
:1030E00085AAAF5065EA2B0F51133F030446D5CF95
:1030F000685DA832AA7E460B439551F533CA699A9A
:1031000079E78D2A93BE8C2A93BE8C2A93BE8C2A93
:1031100093BEFE000E37C82B7809A52300000000DF
:1031200049454E44AE42608204FFFFFF3C68746D27
:103130006C3E3C686561643E3C7469746C653E4DF0
:103140006963726F63686970205443502F4950203F
:10315000537461636B2046656174757265733C2FAF
:103160007469746C653E3C2F686561643E3C626FB7
:103170006479206267636F6C6F723D222346464616
:10318000464646223E09093C7461626C6520626FC6
:10319000726465723D2230222077696474683D2232
:1031A00031303025223E0909093C74723E09090973
:1031B000093C74643E09090909093C696D6720737B
:1031C00072633D224D6368702E676966223E3C2F14
:1031D000696D673E090909093C2F74643E090909B4
:1031E000093C74642077696474683D22313030256D
:1031F000223E09090909093C7020616C69676E3D2E
:10320000227269676874223E0909090909093C6646
:103210006F6E742073697A653D2236222066616381
:10322000653D224D532053616E732053657269666C
:10323000223E090909090909093C623E09090909EF
:10324000090909094D6963726F6368697020544305
:10325000502F495020537461636B0909090909090A
:10326000093C2F623E0909090909093C2F666F6E66
:10327000743E09090909093C2F703E090909093CF6
:103280002F74643E0909093C2F74723E09093C2FD2
:103290007461626C653E09093C7461626C65206210
:1032A0006F726465723D2230222063656C6C7061C0
:1032B0006464696E673D2230222063656C6C7370B4
:1032C0006163696E673D2230222077696474683DCE
:1032D000223130302522206667636F6C6F723D2289
:1032E0007768697465223E0909093C747220626737
:1032F000636F6C6F723D222346463030303022209F
:103300006667636F6C6F723D227768697465223EF1
:10331000090909093C74642077696474683D2232A4
:103320003525223E09090909093C61206872656654
:103330003D22496E6465782E68746D223E09090944
:103340000909093C666F6E7420636F6C6F723D22D1
:1033500023464646464646223E0909090909090907
:103360003C623E486F6D653C2F623E0909090909C0
:10337000093C2F666F6E743E09090909093C2F61EB
:103380003E090909093C2F74643E090909093C7486
:10339000642077696474683D22323525223E09092C
:1033A000090909093C666F6E7420636F6C6F723D8A
:1033B0002223464646464646223E0909090909098E
:1033C000093C623E46656174757265733C2F623ECE
:1033D0000909090909093C2F666F6E743E0909093C
:1033E000093C2F74643E090909093C74642077691B
:1033F0006474683D22323525223E0909090909090C
:103400003C6120687265663D22417263682E687473
:103410006D223E090909090909093C666F6E74208D
:10342000636F6C6F723D2223464646464646223EF7
:1034300009090909090909093C623E417263686981
:10344000746563747572653C2F623E090909090948
:1034500009093C2F666F6E743E0909090909093C88
:103460002F613E090909093C2F74643E09090909C5
:103470003C74642077696474683D22323525223EAD
:103480000909090909093C6120687265663D2246FF
:103490006F6F7470726E742E68746D223E09090924
:1034A000090909093C666F6E7420636F6C6F723D89
:1034B0002223464646464646223E0909090909098D
:1034C00009093C623E537461636B20466F6F7470F0
:1034D00072696E743C2F623E090909090909093CA9
:1034E0002F666F6E743E0909090909093C2F613E78
:1034F000090909093C2F74643E0909093C2F7472BB
:103500003E09093C2F7461626C653E3C62723E3C30
:103510007461626C6520626F726465723D22302254
:103520002063656C6C70616464696E673D22302253
:103530002063656C6C73706163696E673D22302235
:103540002077696474683D2231303025223E202086
:1035500020203C74723E20202020202020203C741B
:10356000642077696474683D2231303025223E3C06
:10357000623E546865204D6963726F6368697020AC
:10358000454E4332384A363020616E6420504943FC
:1035900031384639374A36302066616D696C79209A
:1035A00045746865726E6574206D6F64756C652016
:1035B0006F66666572733A3C2F623E3C2F74643EC0
:1035C000202020203C2F74723E202020203C74724A
:1035D0003E20202020202020203C74642077696435
:1035E00074683D223130302522206267636F6C6F32
:1035F000723D2223443144314431223E2A20494540
:103600004545203830322E3320636F6D7061746908
:1036100062696C6974793C2F74643E202020203CE0
:103620002F74723E202020203C74723E20202020E7
:10363000202020203C74642077696474683D223126
:10364000303025223E2A203130426173652D5420CE
:10365000706F72743C2F74643E202020203C2F74C5
:10366000723E202020203C74723E2020202020200A
:1036700020203C74642077696474683D22313030C6
:103680002522206267636F6C6F723D2223443144B0
:10369000314431223E2A20384B6279746573206FA1
:1036A00066205352414D206275666665723C2F74E8
:1036B000643E202020203C2F74723E202020203C9D
:1036C00074723E20202020202020203C746420772B
:1036D000696474683D2231303025223E2A20496ECB
:1036E0007465726E616C20444D41206D6F64756C21
:1036F0006520666F72206661737420646174612056
:103700006D6F76656D656E743C2F74643E093C2F59
:1037100074723E093C74723E09093C7464207769F6
:103720006474683D223130302522206267636F6CFB
:103730006F723D2223443144314431223E2A2048D5
:103740006172647761726520617373697374656413
:1037500020495020636865636B73756D2063616CED
:1037600063756C6174696F6E733C2F74643E2020C6
:1037700020203C2F74723E202020203C74723E207A
:10378000202020202020203C746420776964746805
:103790003D2231303025223E2A2050726F677261FF
:1037A0006D6D61626C652072656365697665206622
:1037B000696C74657273206D696E696D697A696E82
:1037C0006720756E77616E746564207061636B65E8
:1037D00074733C2F74643E093C2F74723E093C7430
:1037E000723E09093C74642077696474683D223133
:1037F00030302522206267636F6C6F723D22234454
:103800003144314431223E2A20355620746F6C6594
:1038100072616E7420696E707574733C2F74643EAF
:10382000202020203C2F74723E093C74723E09090E
:103830003C74642077696474683D223130302522FD
:103840003E266E6273703B3C2F74643E093C2F74BD
:10385000723E093C74723E09093C746420776964C5
:1038600074683D2231303025223E0909093C623E10
:103870004665617475726573207370656369666906
:103880006320746F2074686520454E4332384A3691
:103890003020696E636C7564653A3C2F623E09099D
:1038A0003C2F74643E093C2F74723E093C74723E96
:1038B00009093C74642077696474683D22313030B2
:1038C0002522206267636F6C6F723D22234431446E
:1038D000314431223E2A2053504920696E7465726A
:1038E00066616365207769746820737065656473C9
:1038F00020757020746F2032304D622F733C2F740E
:10390000643E093C2F74723E093C74723E202020B4
:1039100020202020203C74642077696474683D2254
:1039200031303025223E2A2032382070696E2070D6
:1039300061636B6167653C2F74643E202020203CEE
:103940002F74723E202020203C74723E3C74643EF2
:10395000266E6273703B3C74643E3C2F74723E2052
:103960002020203C74723E3C74643E266E6273706C
:103970003B3C2F74643E3C2F74723E202020203C40
:1039800074723E20202020202020203C7464207768
:10399000696474683D2231303025223E3C73747274
:1039A0006F6E673E546865204D6963726F63686926
:1039B00070205443502F495020537461636B206F23
:1039C00066666572733A3C2F7374726F6E673E3C25
:1039D0002F74643E202020203C2F74723E20202033
:1039E000203C74723E20202020202020203C746443
:1039F0002077696474683D22313030252220626767
:103A0000636F6C6F723D2223443144314431223E56
:103A10002A204E6F20726F79616C7479206F72204A
:103A2000202020202020206C6963656E736520664D
:103A300065653C2F74643E202020203C2F74723E2C
:103A4000202020203C74723E202020202020202096
:103A50003C74642077696474683D223130302522DB
:103A60003E2A20506F727461626C65206163726FD0
:103A70007373204D6963726F6368697020504943A6
:103A800031382C205049433234462C20504943329F
:103A900034482C20647350494333302C20616E64C9
:103AA00020647350494333332066616D696C79201B
:103AB0006F66206D6963726F636F6E74726F6C6C8A
:103AC0006572733C2F74643E202020203C2F74725A
:103AD0003E202020203C74723E20202020202020E8
:103AE000203C74642077696474683D22313030254D
:103AF00022206267636F6C6F723D22234431443130
:103B00004431223E2A204F75742D6F662D626F78E6
:103B100020737570706F7274202020202020202068
:103B2000666F72204D6963726F63686970204331FC
:103B3000382C2043333020616E642048492054459E
:103B400043482050494343313820636F6D70696C9E
:103B50006572733C2F74643E202020203C2F7472C9
:103B60003E202020203C74723E2020202020202057
:103B7000203C74642077696474683D2231303025BC
:103B8000223E2A2052544F5320696E646570656E40
:103B900064656E743C2F74643E202020203C2F749A
:103BA000723E202020203C74723E202020202020C5
:103BB00020203C74642077696474683D2231303081
:103BC0002522206267636F6C6F723D22234431446B
:103BD000314431223E2A20496D706C656D656E74EA
:103BE0007320636F6D706C6574652054435020734F
:103BF00074617465206D616368696E653C2F7464DF
:103C00003E202020203C2F74723E202020203C7437
:103C1000723E20202020202020203C7464207769E0
:103C20006474683D2231303025223E2A204D756C67
:103C30007469706C652054435020616E6420554453
:103C40005020736F636B6574732077697468207399
:103C5000696D756C74616E656F757320202020200E
:103C6000202020636F6E6E656374696F6E2F6D61C7
:103C70006E6167656D656E743C2F74643E20202014
:103C8000203C2F74723E202020203C74723E202065
:103C90002020202020203C74642077696474683DD3
:103CA000223130302522206267636F6C6F723D22B3
:103CB00023443144314431223E2A204D6F64756CD7
:103CC00061722064657369676E20746F206561732B
:103CD000696C7920616464206E6577202020202043
:103CE000202020636F6D706F6E656E74733C2F744F
:103CF000643E202020203C2F74723E202020203C57
:103D000074723E20202020202020203C74642077E4
:103D1000696474683D2231303025223E2A20557373
:103D20006520697420617320612070617274206F56
:103D300066204854545020536572766572202020C6
:103D4000202020202028696E636C7564656429201A
:103D50006F7220616E7920637573746F6D205443A8
:103D6000502F4950206261736564206170706C69E6
:103D7000636174696F6E3C2F74643E202020203C88
:103D80002F74723E202020203C74723E2020202080
:103D9000202020203C74642077696474683D2231BF
:103DA00030302522206267636F6C6F723D2223449E
:103DB0003144314431223E2A20496E636C7564657A
:103DC0007320706F77657266756C20616E64207900
:103DD00065742073696D706C65204D6963726F63E3
:103DE000686970202020202020202046696C6520F2
:103DF00053797374656D20284D504653293C2F74B8
:103E0000643E202020203C2F74723E202020203C45
:103E100074723E20202020202020203C74642077D3
:103E2000696474683D2231303025223E2A20504397
:103E30002062617365642070726F6772616D2074B7
:103E40006F20636F6E766572742050432066696CD4
:103E500065732020202020202020696E746F204D63
:103E600050465320696D6167653C2F74643E202085
:103E700020203C2F74723E202020203C74723E2073
:103E8000202020202020203C7464207769647468FE
:103E90003D223130302522206267636F6C6F723DA6
:103EA0002223443144314431223E2A20496E636C3E
:103EB00075646564204D6F64756C65733A204D417F
:103EC000432C204152502C2049502C2049434D5026
:103ED0002C205443502C205544502C20444843500F
:103EE0002C204654502C20495020476C65616E6947
:103EF0006E672C20485454502C204D5046532C2093
:103F0000416E6E6F756E63652E3C2F74643E20208B
:103F100020203C2F74723E202020203C74723E20D2
:103F2000202020202020203C74642077696474685D
:103F30003D2231303025223E2A20426F6E7573209B
:103F40006669726D77617265206D6F64756C6573FB
:103F50003A2065787465726E616C20535049207305
:103F6000657269616C20454550524F4D2C20546953
:103F7000636B204D616E616765722C20586D6F64B4
:103F8000656D2052656365697665723C2F74643E89
:103F9000202020203C2F74723E3C2F7461626C659F
:103FA0003E3C2F626F64793E3C2F68746D6C3E041A
:103FB000FFFFFF3C68746D6C3E3C686561643E3C8D
:103FC0007469746C653E4D6963726F6368697020D3
:103FD0005443502F495020537461636B20466F6FD8
:103FE000747072696E743C2F7469746C653E3C2FFA
:103FF000686561643E3C626F6479206267636F6CE0
:104000006F723D2223464646464646223E09093CFB
:104010007461626C6520626F726465723D22302249
:104020002077696474683D2231303025223E0909C9
:10403000093C74723E090909093C74643E09090986
:1040400009093C696D67207372633D224D63687096
:104050002E676966223E3C2F696D673E0909090992
:104060003C2F74643E090909093C74642077696433
:1040700074683D2231303025223E09090909093C86
:104080007020616C69676E3D227269676874223EB8
:104090000909090909093C666F6E742073697A651C
:1040A0003D22362220666163653D224D53205361D7
:1040B0006E73205365726966223E09090909090970
:1040C000093C623E09090909090909094D69637238
:1040D0006F63686970205443502F495020537461B6
:1040E000636B090909090909093C2F623E0909099D
:1040F0000909093C2F666F6E743E09090909093CDC
:104100002F703E090909093C2F74643E0909093CD6
:104110002F74723E09093C2F7461626C653E090977
:104120003C7461626C6520626F726465723D22301E
:10413000222063656C6C70616464696E673D223037
:10414000222063656C6C73706163696E673D223019
:10415000222077696474683D223130302522206640
:1041600067636F6C6F723D227768697465223E09E0
:1041700009093C7472206267636F6C6F723D222381
:1041800046463030303022206667636F6C6F723D78
:10419000227768697465223E090909093C74642024
:1041A00077696474683D22323525223E0909090980
:1041B000093C6120687265663D22496E6465782E0F
:1041C00068746D223E0909090909093C666F6E741D
:1041D00020636F6C6F723D22234646464646462258
:1041E0003E090909090909093C623E486F6D653CB1
:1041F0002F623E0909090909093C2F666F6E743E5A
:1042000009090909093C2F613E090909093C2F7474
:10421000643E090909093C74642077696474683D47
:1042200022323525223E09090909093C61206872BC
:1042300065663D2246656174757265732E68746D9E
:10424000223E0909090909093C666F6E7420636FF3
:104250006C6F723D2223464646464646223E090979
:1042600009090909093C623E466561747572657306
:104270003C2F623E0909090909093C2F666F6E74DB
:104280003E0909090909093C2F613E090909093C50
:104290002F74643E090909093C74642077696474C9
:1042A000683D22323525223E0909090909093C6188
:1042B00020687265663D22417263682E68746D22C3
:1042C0003E090909090909093C666F6E7420636F8C
:1042D0006C6F723D2223464646464646223E0909F9
:1042E0000909090909093C623E41726368697465FC
:1042F00063747572653C2F623E0909090909090951
:104300003C2F666F6E743E0909090909093C2F614B
:104310003E090909093C2F74643E090909093C74E6
:10432000642077696474683D22323525223E09098C
:1043300009090909093C666F6E7420636F6C6F721E
:104340003D2223464646464646223E0909090909BA
:104350000909093C623E537461636B20466F6F74B8
:104360007072696E743C2F623E09090909090909D6
:104370003C2F666F6E743E090909093C2F74643E38
:104380000909093C2F74723E09093C2F7461626C63
:10439000653E3C62723E3C7461626C6520626F7285
:1043A0006465723D2231222063656C6C70616464C7
:1043B000696E673D2230222063656C6C73706163A7
:1043C000696E673D2230222077696474683D22312E
:1043D00030302522626F72646572636F6C6F723D5C
:1043E0002223303030303030223E202020203C74D8
:1043F000723E20202020202020203C7464207769F9
:104400006474683D2232302522206267636F6C6FCE
:10441000723D2223464646463030223E3C7374723B
:104420006F6E673E4C617965723C2F7374726F6E6C
:10443000673E3C2F74643E20202020202020203C1A
:1044400074642077696474683D22323025222062CA
:1044500067636F6C6F723D222346464646303022BA
:104460003E3C7374726F6E673E436F6D706F6E6526
:104470006E743C2F7374726F6E673E3C2F74643E93
:1044800020202020202020203C7464207769647440
:10449000683D2232302522206267636F6C6F723D67
:1044A0002223464646463030223E3C7374726F6E7D
:1044B000673E524F4D2028576F726473293C2F730B
:1044C00074726F6E673E3C2F74643E202020202063
:1044D0002020203C74642077696474683D22323067
:1044E0002522206267636F6C6F723D222346464629
:1044F000463030223E3C7374726F6E673E52414DBF
:1045000020286279746573293C2F7374726F6E670B
:104510003E3C2F74643E20202020202020203C742C
:10452000642077696474683D2232302522206267F6
:10453000636F6C6F723D2223464646463030223E02
:104540003C7374726F6E673E436F6D6D656E743C45
:104550002F7374726F6E673E3C2F74643E20202070
:10456000203C2F74723E202020203C74723E20207C
:104570002020202020203C746420726F77737061AB
:104580006E3D2232222077696474683D22323025E4
:1045900022206267636F6C6F723D22234431443185
:1045A0004431223E506879736963616C3C2F7464B6
:1045B0003E20202020202020203C74642077696445
:1045C00074683D2232302522206267636F6C6F72FF
:1045D0003D2223443144314431223E4574686572A2
:1045E0006E65743C2F74643E202020202020202003
:1045F0003C74642077696474683D2232302522203F
:104600006267636F6C6F723D2223443144314431E1
:10461000223E313335383C2F74643E202020202048
:104620002020203C74642077696474683D22323015
:104630002522206267636F6C6F723D2223443144F0
:10464000314431223E35353C2F74643E20202020F9
:10465000202020203C74642077696474683D2232F5
:10466000302522206267636F6C6F723D22234431D4
:1046700044314431223E454E4332384A36303C2F95
:1046800074643E202020203C2F74723E2020202085
:104690003C74723E20202020202020203C74642086
:1046A0006267636F6C6F723D222344314431443141
:1046B000223E55534152543C2F74643E202020200A
:1046C000202020203C7464206267636F6C6F723D11
:1046D0002223443144314431223E2D3C2F74643E28
:1046E00020202020202020203C7464206267636FFB
:1046F0006C6F723D2223443144314431223E2D3CC3
:104700002F74643E20202020202020203C74642030
:104710006267636F6C6F723D2223443144314431D0
:10472000223E53656520534C49503C2F74643E2013
:104730002020203C2F74723E202020203C74723EAA
:1047400020202020202020203C746420726F77736A
:1047500070616E3D2233223E4E6574776F726B3C02
:104760002F74643E20202020202020203C74643EB2
:10477000534C49503C2F74643E20202020202020A0
:10478000203C74643E3738303C2F74643E20202037
:1047900020202020203C74643E3132202B2054788D
:1047A000202620527820427566666572733C2F740D
:1047B000643E20202020202020203C74643E42754E
:1047C000666665722073697A652069732075736502
:1047D0007220646566696E65643C2F74643E2020B7
:1047E00020203C2F74723E202020203C74723E20FA
:1047F000202020202020203C74643E4152503C2F39
:1048000074643E20202020202020203C74643E330D
:1048100032343C2F74643E20202020202020203C75
:1048200074643E303C2F74643E20202020202020E1
:10483000203C74643E266E6273703B3C2F74643E71
:10484000202020203C2F74723E202020203C7472B7
:104850003E20202020202020203C74643E415250E5
:104860005461736B3C2F74643E2020202020202054
:10487000203C74643E3135323C2F74643E2020204D
:1048800020202020203C74643E31313C2F74643E53
:1048900020202020202020203C74643E266E62735D
:1048A000703B3C2F74643E202020203C2F74723ECD
:1048B000202020203C74723E202020202020202018
:1048C0003C746420726F777370616E3D22322220D7
:1048D0006267636F6C6F723D22234431443144310F
:1048E000223E496E7465726E65743C2F74643E207E
:1048F000202020202020203C7464206267636F6C9D
:104900006F723D2223443144314431223E49503CB0
:104910002F74643E20202020202020203C7464201E
:104920006267636F6C6F723D2223443144314431BE
:10493000223E3330353C2F74643E2020202020203E
:1049400020203C7464206267636F6C6F723D222389
:10495000443144314431223E323C2F74643E2020A5
:104960002020202020203C7464206267636F6C6FDD
:10497000723D2223443144314431223E266E62731B
:10498000703B3C2F74643E202020203C2F74723EEC
:10499000202020203C74723E202020202020202037
:1049A0003C7464206267636F6C6F723D22234431F4
:1049B00044314431223E49434D503C2F74643E20E3
:1049C000202020202020203C7464206267636F6CCC
:1049D0006F723D2223443144314431223E3234331C
:1049E0003C2F74643E20202020202020203C746432
:1049F000206267636F6C6F723D22234431443144FF
:104A000031223E303C2F74643E2020202020202084
:104A1000203C7464206267636F6C6F723D22234494
:104A20003144314431223E266E6273703B3C2F7418
:104A3000643E202020203C2F74723E202020203C09
:104A400074723E20202020202020203C746420729C
:104A50006F777370616E3D2232223E5472616E73C5
:104A6000706F72743C2F74643E2020202020202020
:104A7000203C74643E5443503C2F74643E202020FC
:104A800020202020203C74643E323532343C2F7488
:104A9000643E20202020202020203C74643E3432BC
:104AA0003C2F74643E20202020202020203C746471
:104AB0003E4561636820657874726120736F636B33
:104AC000657420636F6E73756D6573203336206275
:104AD00079746573206F662052414D3C2F74643E9B
:104AE000202020203C2F74723E202020203C747215
:104AF0003E20202020202020203C74643E5544503D
:104B00003C2F74643E20202020202020203C746410
:104B10003E3630383C2F74643E2020202020202058
:104B2000203C74643E32303C2F74643E20202020B0
:104B3000202020203C74643E4561636820657874C1
:104B4000726120736F636B657420636F6E73756D34
:104B50006573203139206279746573206F66205245
:104B6000414D3C2F74643E202020203C2F74723E27
:104B7000202020203C74723E202020202020202055
:104B80003C746420726F777370616E3D362062678B
:104B9000636F6C6F723D2223443144314431223EB5
:104BA0004170706C69636174696F6E3C2F74643E10
:104BB00020202020202020203C7464206267636F26
:104BC0006C6F723D2223443144314431223E4854BB
:104BD00054503C2F74643E20202020202020203C74
:104BE0007464206267636F6C6F723D2223443144AA
:104BF000314431223E3931323C2F74643E20202032
:104C000020202020203C7464206267636F6C6F72E8
:104C10003D2223443144314431223E31303C2F7413
:104C2000643E20202020202020203C7464206267E5
:104C3000636F6C6F723D2223443144314431223E14
:104C40004D75737420696E636C75646520544350B0
:104C50002C204D5046533C2F74643E202020203C95
:104C60002F74723E202020203C74723E2020202091
:104C7000202020203C7464206267636F6C6F723D5B
:104C80002223443144314431223E444843503C2F96
:104C900074643E20202020202020203C7464206268
:104CA00067636F6C6F723D2223443144314431227B
:104CB0003E3733383C2F74643E20202020202020B3
:104CC000203C7464206267636F6C6F723D222344E2
:104CD0003144314431223E32363C2F74643E202030
:104CE0002020202020203C7464206267636F6C6F5A
:104CF000723D2223443144314431223E4D75737458
:104D000020696E636C756465205544503C2F746453
:104D10003E202020203C2F74723E202020203C7416
:104D2000723E20202020202020203C7464206267D6
:104D3000636F6C6F723D2223443144314431223E13
:104D4000534E4D503C2F74643E20202020202020C4
:104D5000203C7464206267636F6C6F723D22234451
:104D60003144314431223E323831393C2F74643E73
:104D700020202020202020203C7464206267636F64
:104D80006C6F723D2223443144314431223E32382B
:104D90003C2F74643E20202020202020203C74647E
:104DA000206267636F6C6F723D222344314431444B
:104DB00031223E4D75737420696E636C7564652095
:104DC0005544502C204D5046533C2F74643E2020B7
:104DD00020203C2F74723E202020203C74723E2004
:104DE000202020202020203C7464206267636F6CA8
:104DF0006F723D2223443144314431223E465450A7
:104E0000205365727665723C2F74643E202020200A
:104E1000202020203C7464206267636F6C6F723DB9
:104E20002223443144314431223E3633373C2F74FF
:104E3000643E20202020202020203C7464206267D3
:104E4000636F6C6F723D2223443144314431223E02
:104E500033353C2F74643E20202020202020203C2D
:104E60007464206267636F6C6F723D222344314427
:104E7000314431223E4D75737420696E636C7564E4
:104E800065205443502C204D5046533C2F74643EB3
:104E9000202020203C2F74723E202020203C747261
:104EA0003E20202020202020203C74642062676364
:104EB0006F6C6F723D2223443144314431223E49AC
:104EC0005020476C65616E696E673C2F74643E20AC
:104ED000202020202020203C7464206267636F6CB7
:104EE0006F723D2223443144314431223E32303C02
:104EF0002F74643E20202020202020203C74642039
:104F00006267636F6C6F723D2223443144314431D8
:104F1000223E313C2F74643E20202020202020207F
:104F20003C7464206267636F6C6F723D222344316E
:104F300044314431223E417070726F782E20736983
:104F40007A65202D2050617274206F662053746141
:104F5000636B204D616E616765723C2F74643E2007
:104F60002020203C2F74723E202020203C74723E72
:104F700020202020202020203C7464206267636F62
:104F80006C6F723D2223443144314431223E416EE4
:104F90006E6F756E63653C2F74643E202020202068
:104FA0002020203C7464206267636F6C6F723D2226
:104FB00023443144314431223E3138373C2F74642C
:104FC0003E20202020202020203C74642062676343
:104FD0006F6C6F723D2223443144314431223E30A4
:104FE0003C2F74643E20202020202020203C74642C
:104FF000206267636F6C6F723D22234431443144F9
:1050000031223E266E6273703B3C2F74643E20203A
:1050100020203C2F74723E202020203C74723E20C1
:10502000202020202020203C746420726F77737031
:10503000616E3D353E4F746865723C2F74643E204E
:10504000202020202020203C74643E46696C65208E
:1050500053797374656D20284D504653293C2F7445
:10506000643E20202020202020203C74643E3237E3
:10507000363C2F74643E20202020202020203C74C9
:10508000643E353C2F74643E2020202020202020C8
:105090003C74643E496E7465726E616C2050726F30
:1050A0006772616D204D656D6F72792053746F72F8
:1050B0006167653C2F74643E202020203C2F747271
:1050C0003E202020203C74723E20202020202020E2
:1050D000203C74643E537461636B204D616E616764
:1050E00065723C2F74643E20202020202020203C2C
:1050F00074643E3239373C2F74643E2020202020D7
:105100002020203C74643E3132202B2049434D50F6
:10511000204275666665723C2F74643E2020202014
:10512000202020203C74643E49434D502042756647
:105130006665722073697A6520697320757365727C
:1051400020646566696E65643C2F74643E2020208F
:10515000203C2F74723E202020203C74723E202080
:105160002020202020203C74643E5469636B204D35
:10517000616E616765723C2F74643E2020202020A0
:105180002020203C74643E33333C2F74643E202046
:105190002020202020203C74643E323C2F74643E4A
:1051A00020202020202020203C74643E557365720E
:1051B000206D61792075736520637573746F6D2040
:1051C0005469636B204D616E6167657220746F6F07
:1051D0003C2F74643E202020203C2F74723E2020FF
:1051E00020203C74723E20202020202020203C746F
:1051F000643E48656C7065722F436F6D6D6F6E20F5
:1052000066756E6374696F6E733C2F74643E202004
:105210002020202020203C74643E3636303C2F7401
:10522000643E20202020202020203C74643E303C1E
:105230002F74643E20202020202020203C74643ED7
:105240004E6F6E653C2F74643E202020203C2F74EE
:10525000723E202020203C74723E202020202020FE
:1052600020203C74643E53504920454550524F4DD8
:105270002053746F7261676520526F7574696E6533
:10528000733C2F74643E20202020202020203C747A
:10529000643E3231313C2F74643E20202020202097
:1052A00020203C74643E34202B20454550524F4D05
:1052B000204275666665723C2F74643E2020202073
:1052C000202020203C74643E454550524F4D2042E2
:1052D00075666665722073697A65206973207573D7
:1052E000657220646566696E65643C2F74643E2057
:1052F0002020203C2F74723E202020203C74723EDF
:1053000020202020202020203C746420636F6C73B8
:1053100070616E3D22352220626F72646572636F28
:105320006C6F723D2223464646464646223E3C6509
:105330006D3E3C7374726F6E673E4E6F74653A3C9F
:105340002F7374726F6E673E3C2F656D3E3C656DCA
:105350003E20202020202020205573696E67204D9C
:105360006963726F63686970204331382076332E29
:10537000303020436F6D70696C6572207769746896
:1053800020616C6C206F7074696D697A6174696FEB
:105390006E2E2020416C6C2076616C7565732061E7
:1053A000726520657374696D617465732E20205475
:1053B000686573652076616C756573206D61792011
:1053C00076617279206173206E65772066656174FD
:1053D0007572657320616E64206F7074696D697A8F
:1053E0006174696F6E7320617265206164646564C5
:1053F0002E3C2F656D3E3C2F74643E202020203CC7
:105400002F74723E3C2F7461626C653E3C2F626F5C
:1054100064793E3C2F68746D6C3E04FFFFFF3C686E
:10542000746D6C3E093C626F64793E09093C623ED2
:105430004D6963726F63686970205443502F4950FF
:1054400020537461636B3C2F623E3C62723E0909DB
:10545000537461636B2076657273696F6E3A2025B1
:1054600031363C62723E09094275696C64206461A0
:1054700074653A202531373C62723E09093C6272FC
:105480003E09093C666F726D206D6574686F643DFE
:10549000226765742220616374696F6E3D22302239
:1054A0003E0909093C623E416374696F6E733C2F8B
:1054B000623E3C62723E090909546F67676C652061
:1054C0004C4544733A3C62723E0909093C696E706E
:1054D000757420747970653D227375626D697422EC
:1054E000206E616D653D2231222076616C75653DCF
:1054F000224C454432223E3C2F696E7075743E0941
:1055000009093C696E70757420747970653D227369
:1055100075626D697422206E616D653D22302220B6
:1055200076616C75653D224C454431223E3C2F69C5
:105530006E7075743E09093C2F666F726D3E0909E5
:105540003C666F726D206D6574686F643D2267659F
:10555000742220616374696F6E3D2231223E090915
:1055600009577269746520746F204C43443A0909E5
:10557000093C696E70757420747970653D2274659C
:10558000787422206E616D653D2233222073697A22
:10559000653D223136223E3C2F696E7075743E099E
:1055A00009093C696E70757420747970653D2273C9
:1055B00075626D6974222076616C75653D22577243
:1055C000697465223E3C2F696E7075743E09093C12
:1055D0002F666F726D3E3C62723E09093C623E531B
:1055E00074617475733C2F623E3C62723E090950CF
:1055F0006F74303A202530323C62723E09094275A0
:1056000074746F6E733A202530462025304520256E
:105610003044202530343C62723E09094C454473C5
:105620003A202531352025313420253133202531CC
:1056300032202531312025313020253031202530D0
:10564000303C62723E093C2F626F64793E3C2F68A9
:10565000746D6C3E04FFFFFF3C68746D6C3E093C4A
:10566000686561643E09093C7469746C653E4D6906
:1056700063726F63686970205443502F4950205300
:105680007461636B20486F6D653C2F7469746C6541
:105690003E09093C736372697074206C616E6775B2
:1056A0006167653D224A6176615363726970742255
:1056B0003E09090976617209786D6C487474703B13
:1056C000090909766172204F626A4172726179201C
:1056D0003D206E65772041727261793B0909096648
:1056E000756E6374696F6E20476574586D6C48748D
:1056F00074704F626A6563742868616E646C657269
:10570000290909097B090909766172206F626A58C3
:105710006D6C48747470203D206E756C6C3B09098B
:10572000096966286E6176696761746F722E757398
:1057300065724167656E742E696E6465784F662880
:10574000224D53494522293E3D30290909097B094B
:10575000090976617220436C6173734E616D652037
:105760003D20224D73786D6C322E584D4C48545468
:1057700050223B0909096966286E61766967617480
:105780006F722E61707056657273696F6E2E696EDE
:105790006465784F6628224D53494520352E3522C1
:1057A000293E3D30290909097B090909436C6173C8
:1057B000734E616D65203D20224D6963726F736F7A
:1057C00066742E584D4C48545450223B0909097DAB
:1057D0000909097472790909097B0909096F626A63
:1057E000586D6C48747470203D206E65772041635D
:1057F00074697665584F626A65637428436C617397
:10580000734E616D65293B0909096F626A586D6CB9
:10581000487474702E6F6E7265616479737461740C
:10582000656368616E6765203D2068616E646C65C4
:10583000723B09090972657475726E206F626A584D
:105840006D6C487474703B0909097D09090963612D
:105850007463682865290909097B090909616C6570
:10586000727428224572726F723A204163746976AD
:10587000655820736372697074696E67206D617911
:105880002062652064697361626C65642E22293B25
:1058900009090972657475726E3B0909097D090968
:1058A000097D090909656C73650909097B090909FD
:1058B0007472790909097B0909096F626A586D6C6C
:1058C00048747470203D206E657720584D4C4874A4
:1058D00074705265717565737428293B0909096FE5
:1058E000626A586D6C487474702E6F6E6C6F616470
:1058F000203D2068616E646C65723B0909096F6226
:105900006A586D6C487474702E6F6E6572726F7227
:10591000203D2068616E646C65723B0909097265FF
:105920007475726E206F626A586D6C487474703B47
:105930000909097D090909636174636828652909F2
:1059400009097B090909616C657274282245727224
:105950006F723A2042726F77736572206D617920A1
:105960006E6F7420626520737570706F72746564F9
:10597000206F722062726F77736572207365637532
:1059800072697479207265737472696374696F6E79
:10599000732061726520746F6F20686967682E20BC
:1059A00020584D4C48747470526571756573742835
:1059B0002920737570706F7274206973207265711D
:1059C00075697265642E22293B0909097D09090957
:1059D0007D0909097D09090966756E6374696F6E31
:1059E0002053746174654368616E67656428290992
:1059F00009097B090909696628786D6C4874747017
:105A00002E72656164795374617465203D3D203464
:105A1000207C7C20786D6C487474702E7265616493
:105A2000795374617465203D3D2022636F6D706C05
:105A300065746522290909097B090909646F637581
:105A40006D656E742E676574456C656D656E744228
:105A500079496428227478744175746F5570646153
:105A6000746553746174757322292E696E6E657244
:105A700048544D4C3D786D6C487474702E7265734B
:105A8000706F6E7365546578743B090909786D6CA5
:105A900048747470203D206E756C6C3B0909095583
:105AA000706461746553746174757328293B0909C6
:105AB000097D0909097D09090966756E6374696FB5
:105AC0006E20557064617465537461747573282910
:105AD0000909097B090909786D6C48747470203DC7
