:020000040000FA
:06000000AEEF33F0120028
:0600080035EF0AF01200C2
:06002A000A000968000055
:10003000A502000001000000056800009E0200000B
:100040000400000004680000A40200000100000099
:10005000E0670000C801000024000000DC67000029
:100060009A02000004000000DA6700005E0F000042
:100070000200000090670000AD0000004A00000090
:1000800069560000A3020000010000008E67000016
:10009000FE010000020000008A670000F007000077
:0400A0000400000058
:0C00A4000C01006B060E005D35E20051FF
:1000B000280DF3CF01FCF4CF02FC000E0127070E40
:1000C0000223A4EC08F00A0EEF6E0FEC0AF0EF909A
:1000D0000FEC0AF0EF820FEC0AF0EF840FEC0AF05D
:1000E000EF980FEC0AF0EF96A4EC08F0F1EC08F0B2
:1000F00008E0A4EC08F09EEC08F0A4EC08F0B0ECEA
:1001000009F0A4EC08F0DBEC09F0A4EC08F04EECEC
:1001100009F00C01002BC8D712000C01006B060E71
:10012000005D42E20051280DF3CF01FCF4CF02FC48
:10013000000E0127070E0223A9EC08F0EF500A0871
:1001400031E1A9EC08F0EF6AA9EC08F00B0E00C150
:10015000EBFF0C0E01C1EBFFA9EC08F00D0EEB6AF2
:100160000E0EEB6AA9EC08F0EE52ECEC09F053EC41
:1001700009F015EC0AF0EF8015EC0AF0EF96A9EC07
:1001800008F0F1EC08F008E0A9EC08F09EEC08F0AB
:10019000A9EC08F0B0EC09F015EC0AF0EF820C01C4
:1001A00000511200002BBBD7FE0C0C010A6B076B31
:1001B000060E075D14E20751280DF3CF08FCF4CFBB
:1001C00009FC000E0827070E09235CEC08F0EF502D
:1001D0000A0803E1010E0A6F02D0072BE9D70A5182
:1001E00001E1FE0C0101FE2B000EFF235CEC08F088
:1001F0000B0EFEC1EBFF0C0EFFC1EBFF880EFE5D88
:10020000130EFF5903E3FE69030EFF6F5CEC08F069
:1002100067EC09F0EF905CEC08F00D0E04C1EBFF09
:100220000E0E05C1EBFFDFEC09F058EC09F05CECB9
:1002300008F01A0E33EC08F053EC09F00A0EE66EE3
:10024000E66A02C1E6FF03C1E6FF5CEC08F066EC7B
:1002500008F0EBEC08F00101020E2A6F5CEC08F0EC
:10026000BAEC09F0DFEC09F0C8EC08F05CEC08F03F
:10027000BEEC09F05CEC08F0C2EC09F05CEC08F0B4
:10028000C1EC08F05CEC08F0010EEF6EDFEC09F059
:1002900058EC09F087EC33F0D1EC09F05CEC08F095
:1002A0001F0ED8EC09F00C01075112000101065194
:1002B00052EC08F0EF50030801E0000C010C0101C2
:1002C0000751280DF3CFBFFCF4CFC0FC000E0C018A
:1002D000BF27070EC023B7EC08F0EF5003080BE070
:1002E000B7EC08F0EF50020806E0BFCC34F1C0CC08
:1002F00035F178EF06F007C10CF1FDD8EBEC08F012
:100300000101110E2A6FB7EC08F0BAEC09F0B7EC56
:1003100008F00CEC0AF0C8EC08F0B7EC08F0BEEC02
:1003200009F0B7EC08F0C2EC09F0B7EC08F0C1EC4A
:1003300008F0B7EC08F00CEC0AF058EC09F0B7EC58
:1003400008F0040EEF6E120001010851280DF3CFE2
:10035000C8FCF4CFC9FC000E0C01C827070EC92346
:1003600078EC08F0F1EC08F001E1000C78EC08F012
:1003700005EC0AF0020B01E1000C78EC08F0100E1D
:1003800033EC08F0EECF2CF1EDCF2DF178EC08F046
:100390000F0EEB5001012B6F0101180E2A6FBAEC02
:1003A00009F078EC08F00CEC0AF0C8EC08F078ECF6
:1003B00008F0BEEC09F078EC08F0C2EC09F078EC3B
:1003C00008F0C1EC08F078EC08F0100E18EC0AF018
:1003D000026A036A78EC08F00CEC0AF00050EE2692
:1003E0000150EE220250EE220350EE2278EC08F08B
:1003F00067EC09F0EF9278EC08F067EC09F0EF9801
:10040000010C0101095152EC08F0140EF2EC09F054
:1004100001E1000C095152EC08F00F0E33EC08F02A
:10042000EF50FF0804E10F012A6B21EF10F0095192
:1004300052EC08F005EC0AF0020B01E0010E12008C
:1004400001010A51280DF3CFC6FCF4CFC7FC000E02
:100450000C01C627070EC723BCEC08F0140EF2EC03
:1004600009F001E1000CBCEC08F0F1EC08F01FE130
:100470000F012B6B43EC10F0E66EBCEC08F00F0E96
:1004800033EC08F0E552E750EF6EBCEC08F0F1EC0D
:1004900008F001E1000CBCEC08F04EEC09F0280E6D
:1004A0000F01396F3A6BBCEC08F033EC09F0BCEC8F
:1004B00008F067EC09F0EF880BC149FFA9EC12F0D6
:1004C000BCEC08F0140E33EC08F0EE06EF5ABCEC6E
:1004D00008F0100E33EC08F0EE2AED22EECF00F01B
:1004E000EDCF01F00A0E005C020E015803E30AC1D1
:1004F00008F12ADF010C01010C51280DF3CF85FC16
:10050000F4CF86FC000E0C018527070E862385CCD0
:10051000E9FF86CCEAFF05EC0AF0080B01E1000CCC
:100520006CEC10F085CCE9FF86CCEAFF67EC09F0B3
:10053000EF96010C01010D51280DF3CF00FCF4CF13
:1005400001FC000E0C010027070E01231EEC0AF02F
:1005500005EC0AF0080B1DE01EEC0AF005EC0AF0B1
:10056000040B08E0140E2EEC09F01EEC0AF067EC08
:1005700009F0EF941EEC0AF067EC09F0EF8810C167
:1005800047FF11C148FF0EC145FF0FC146FF8AEF6B
:1005900012F0F36AF46A120001011251280DF3CF30
:1005A00085FCF4CF86FC000E0C018527070E862300
:1005B000E6EC08F005EC0AF0080B2BE0E6EC08F09E
:1005C00005EC0AF0040B08E0140E2EEC09F0E6EC42
:1005D00008F067EC09F0EF94E6EC08F0120EF2EC8C
:1005E00009F008E16CEC10F0E6EC08F067EC09F0BB
:1005F000EF96000CE6EC08F0120E33EC08F0EE0675
:10060000EF5A87EC12F013C1E9FF14C1EAFFEF6E55
:10061000010C000C0101155152EC08F005EC0AF038
:10062000080B01E0010E12000C010F6B006B060EAF
:10063000005D01E31BD10051280DF3CF09FCF4CF7D
:100640000AFC000E0927070E0A2323EC0AF0080B08
:1006500001E009D123EC0AF0100B01E004D13CECDD
:1006600008F0EF500A0801E1FED03CEC08F0EF5032
:10067000000905E123EC0AF0010B01E0F4D087EC5E
:1006800033F014C005FC15C006FC16C007FC17C0EB
:1006900008FC3CEC08F01F0E1BEC0AF00C01145C8B
:1006A000016FEE501558026FEE501658036FEE5062
:1006B0001758046F3CEC08F0230E33EC08F001519E
:1006C000EE5C0251EE580351EE580451EE5801E32E
:1006D000CAD002EC09F001E11200F5EC08F03CECA4
:1006E00008F01F0ED8EC09F03CEC08F0230E33ECB8
:1006F00008F0D890EF36010EEB36020EEB36030E03
:10070000EB363CEC08F01E0E33EC08F0EF2A3CEC24
:1007100008F0EF50090A5DE0010A53E00F0A60E0BB
:10072000020A5EE0030A5CE0020A47E0070A1CE0F6
:10073000010A05E0030A59E10C01020E4FD0C6EC94
:1007400009F003E30C01120E49D023EC0AF0010B6F
:1007500004E03CEC08F0EF6A48D00C01020E0F6F89
:100760003CEC08F0010E33D0C6EC09F012E33CEC8F
:1007700008F0F1EC08F00AE00F01396B3A6B3CEC41
:1007800008F033EC09F08BEC11F02FD00C01100EB7
:1007900025D03CEC08F0F1EC08F008E03CEC08F067
:1007A0009EEC08F03CEC08F0B0EC09F00C01110EE6
:1007B0000F6F3CEC08F0040E0AD0C6EC09F010E311
:1007C0000BD00C01010E0F6F3CEC08F0090EEF6E20
:1007D0000CD0C6EC09F004E30C01010E0F6F05D03C
:1007E00009CC34F10ACC35F183DA0C010F513BE02E
:1007F0000FA90DD03CEC08F00CEC0AF0EECF0BFC8E
:10080000EECF0CFCEECF0DFCEFCF0EFC10D03CEC8D
:1008100008F00CEC0AF0EFCF0BFCEE2AEFCF0CFC4B
:10082000EE22EFCF0DFCEE22EFCF0EFCEF22EBEC31
:1008300008F00FCC2AF13CEC08F0BAEC09F00BCC34
:1008400022F10CCC23F10DCC24F10ECC25F13CECA3
:1008500008F0BEEC09F03CEC08F0C2EC09F03CEC0E
:1008600008F0C1EC08F00C01002BE1D6120016C113
:10087000E9FF17C1EAFFECEC09F0EECF14FCEECF74
:1008800015FCEECF16FCEFCF17FC18C1E9FF19C11C
:10089000EAFFEECF18FCEECF19FCEECF1AFCEFCF3B
:1008A0001BFC0C011C6B060E1D6F1AC11EFC1BC12C
:1008B0001FFC1AC181F21BC182F299EC2FF0F3CF19
:1008C0001EFCF4CF1FFC0C0E0201896F8A6B020123
:1008D000140E876F0C0E886FCDEC2FF0F3CF21FC38
:1008E000F4CF22FC0C01211F221F1AC143FF1BC1A0
:1008F00044FF48EC12F0F3CF23FCF4CF24FC0C01AE
:10090000F450215D55E12351225D52E10101FA6B62
:10091000FB6BE0EC29F0140E0F01476F486B0F01E1
:10092000000E456F0C0E466F8AEC12F00101000EAE
:10093000326F0C0E336FABD917EC09F0006E016A01
:10094000140E005E000E015A00C025FC0050006E1F
:10095000016AE85001011A5D1A6F01501B591B6FA3
:10096000140E1A5F000E1B5B17EC09F02EEC09F059
:1009700016C130F117C131F10101000E2E6F0C0EBE
:100980002F6F16D90C01206FFE0E205D11E01AC1E9
:100990003BF11BC13CF10101000E396F0C0E3A6FA7
:1009A00016C137F117C138F120CC36F1CCD9010C82
:1009B0006CEC10F0010C02EC09F0FDE0FF0E0101FF
:1009C0002B5D07E10F01010E2B6F43EC10F00101CD
:1009D0002B6FFF0E2B5D01E11200140EF0DB1EC128
:1009E00087FC1FC188FC20C189FC21C18AFC22C16F
:1009F0008BFC23C18CFC24C18DFC25C18EFC26C13F
:100A00008FFC27C190FC28C191FC29C192FC0C01EC
:100A100093919393939593972AC194FC8DEC10F046
:100A2000F3CF95FCF4CF96FC0C01400EF35C020E64
:100A3000F45805E3400E956F020E966F0DD0360EFA
:100A4000D8809555000E965505E2360E955F000E3E
:100A5000965B02D0956B966B976B986B996B9A6BC4
:100A60000101870E326F0C0E336F11D9140E010184
:100A70002C27000E2D232AA310D0040E2C27000EA5
:100A80002D230C01020E9B6F040E9C6F020E9D6FB6
:100A9000400E9E6F9399938B03D00C019389939B87
:100AA000938D939FADC09FFCAEC0A0FCAFC0A1FCD6
:100AB000B0C0A2FC1CC1E9FF1DC1EAFFECEC09F0CB
:100AC000EECFA3FCEECFA4FCEECFA5FCEFCFA6FCAF
:100AD000A76B060EA86F2CC1A9FC2DC1AAFC2CC1C6
:100AE00081F22DC182F299EC2FF0F3CFA9FCF4CF63
:100AF000AAFC0C0E0201896F8A6B02019F0E876FA0
:100B00000C0E886FCDEC2FF0F3CF97FCF4CF98FC50
:100B10000C01971F981F97CC85FC98CC86FC2CC1A4
:100B2000F8F12DC1F9F10101060EF76F1CC1F5F1C5
:100B30001DC1F6F160EC29F0140E0F014C6F4D6BE6
:100B40000F01870E4A6F0C0E4B6FACEC12F00101D7
:100B50002AA30BD0040E0F014C6F4D6B0F019B0E9F
:100B60004A6F0C0E4B6FACEC12F0140E28DB2CC14C
:100B700043FF2DC144FF48EC12F0F3CF85FCF4CFC6
:100B800086FC240E1CDB86CC49FFA9EC12F085CC38
:100B900049FFA9EC12F00F01396B3A6B2BC138FFFA
:100BA000BFEC11F08BEC11F02DDBFEE08BEF11F0C0
:100BB0000C01FE0E296F286B060E285D44E22851B9
:100BC00040DB9BDAEF500A083BE097DA0B0EEFECC4
:100BD00009F0020E48DA4DDB33E10350011830E131
:100BE0008CDAEF50000902E128CC29FC86DA0D0EE0
:100BF000EFEC09F03EDB24E10350011821E130C1A4
:100C0000E9FF31C1EAFFE8DBEECF04F0EECF05F0FB
:100C1000EECF06F0EFCF07F070DAEE52DDDBEE50EC
:100C2000000104180DE1EE5005180AE1EE50061817
:100C300007E1EE50071804E103E10C01285112000E
:100C40000C01282BB9D7FE0E295D01E1FE0C2951BC
:100C5000F8DA0A0EE66EE66A30C1E6FF31C1E6FF59
:100C60004CDA34DA025029DBA5DA47DA09DB45DA57
:100C70002EDBEF9642DAB5DA04E03FDA5FDA3DDAEE
:100C80006FDB3BDA24DBEF820C012951120063DBBE
:100C9000F8D9F3CFEEFF01C0EDFF5DDB020E92DB72
:100CA000020EF3CFEBFF030EB4DA040EDCD92ADA1E
:100CB000040E7EDB50DB080ED6D924DA080E78DB72
:100CC0004ADB0E0E7FDB0E0EF3CFEBFF0F0EA1DA29
:100CD000100E78DB100EF3CFEBFF110E9ADA120E26
:100CE00071DB120EF3CFEBFF130E01C0EBFF12000E
:100CF000E8D977DA06E0E5D921DAE3D931DBA9DBF7
:100D0000EF82DFD9EE5268DBCEDADBD90D0EEB6A6B
:100D10000E0EEB6AD6D979DB080B02E06CEC10F012
:100D200098DBEF96CED947DB94DBEF98CAD96DDB21
:100D3000010B03E0C6D9EF6A03D0C3D90A0EEF6EE8
:100D4000C0D94EEF09F001013651280DF3CF36FC22
:100D5000F4CF37FC000E0C013627070E3723386B13
:100D600086D91E0E80D9EF6A40DA81D91F0E20DBAA
:100D70007ED921DBA7DA040B0EE06CEC10F06CDB03
:100D8000010B02E0000E01D0010EE66E70D9E552B3
:100D9000E750EF6E1200C9DA0E0E65D9EECF04F0FF
:100DA000EFCF05F0066A076A78D9080E44DB0C011C
:100DB0002A5D086EEE502B59096EEE502C590A6EC2
:100DC000EE502D590B6E0850045C006E095005580A
:100DD000016E0A500658026E0B500758036E47D931
:100DE000100E41D9EECF0CF0EFCF0DF00E6A0F6A66
:100DF0000C50005C266F0D500158276F0E500258A2
:100E0000286F0F500358296F800E291506E02FD93F
:100E1000140EEB6A150EEB6A07D029D9140E26CCF6
:100E2000EBFF150E27CCEBFFFDDA01081EE14ADAD5
:100E3000020B05E1EDDA100B01E114D11CD04ADA06
:100E4000D4DAAFD90FDB06E112D9020EEF6E6CECEB
:100E500010F029D00CD9030EEF6E100E386F84DA23
:100E600001013B513C1164E19FD0DCDA00091FE134
:100E7000CFDA020B03E10C01040E17D02BDA74DA7F
:100E80000A0EE66EE66A37C1E6FF38C1E6FFEFD824
:100E90001DD9025002D98ED9EAD8F2D9E8D8020E6B
:100EA000EF6E34DA7ED90C01120E386FBAD09DDAAB
:100EB000EECF2EFCEECF2FFCEECF30FCEFCF31FC8F
:100EC000C5DAEECF32FCEECF33FCEECF34FCEFCF01
:100ED00035FCE3D8040EC7D864D901013B510C019D
:100EE000262701013C510C012723000E282329232A
:100EF0001CDA040EA0DA2E1901E086D0EE502F196C
:100F000001E082D0EE50301901E07ED0EE50311970
:100F100001E07AD001E078D085DA02080BE1A2DAAC
:100F200043E00EDA030EEF6E01013B513C113CE051
:100F300060DA77D005DAEF50030839E193DA0CE094
:100F40008BDA020B09E193D84CD906E090D8F6D899
:100F50008ED806DA84DAEF82B5D9010B08E00C01ED
:100F6000110E386FD3D9DDD882D8090EEF6E01018A
:100F70003B513C1119E070DA080B04E13ADA0C013C
:100F800038894FD063DA32CCEEFF33CCEEFF34CC6D
:100F9000EEFF35CCEEFF29DA2ECCEEFF2FCCEEFFA4
:100FA00030CCEEFF31CCEEFF6CEC10F03AD03ADAF8
:100FB000090804E12DDA100B34E020D033DA0408FC
:100FC0000FE126DA010B06E0E6D94CDA17E14FD83B
:100FD000060E04D047DA25E04AD8050EEF6E21D080
:100FE00021DA050805E114DA010B1BE0D4D906D09B
:100FF00019DA060816E10CDA100B13E036CC34F1DE
:1010000037CC35F175DE0DD06CEC10F00C01100E04
:10101000386F2ECC26FC2FCC27FC30CC28FC31CCD2
:1010200029FC0C0138511EE0D6D838CC2AF126CC48
:1010300026F127CC27F128CC28F129CC29F12ACC7C
:1010400022F12BCC23F12CCC24F12DCC25F125D869
:10105000E4D823D8020E07D8E5D837C11CF138C12F
:101060001DF1A9DC1200E926000EEA22120036CC9E
:10107000E9FF37CCEAFF120009CCE9FF0ACCEAFF0E
:101080001200EECF81F2EDCF82F299EC2FF0F3CF88
:1010900000F0F4CF01F0ABEF09F039C1E9FF3AC13C
:1010A000EAFF1200280DF3CFE9FFF4CFEAFF000EAC
:1010B000E926070EEA22120008CCE9FF09CCEAFF74
:1010C000120034C1E9FF35C1EAFF1200EE52E9CF48
:1010D00000F0EACF01F0E9CFE6FFEACFE6FF00EC4F
:1010E00028F0026E060EE15E120014C0EEFF6DD114
:1010F000C8CCE9FFC9CCEAFF120026CCE9FF27CC17
:10110000EAFF1200EECF83F2EECF84F2EECF85F24B
:10111000EFCF86F29EEC2FF014C000F042D9ABEF77
:1011200009F0EF2AEECF26FCEF22EECF27FCEF22CC
:10113000EECF28FCEF22EFCF29FC12000F0EEB5070
:101140000F012C6F62EF10F001CCE9FF02CCEAFF37
:10115000120001CCE9FF02CCEAFF1200EECF26F12B
:10116000EECF27F1EECF28F1EFCF29F11200BFCC5F
:10117000E9FFC0CCEAFF1200C6CCE9FFC7CCEAFF0A
:101180001200EE52E9CF1CF1EACF1DF1DBEF04F0C3
:10119000EECF22F1EECF23F1EECF24F1EFCF25F108
:1011A0001200EECF26FCEECF27FCEECF28FCEFCFCF
:1011B00029FC1200EECF00F0EFCF01F012000F017A
:1011C000396F3A6B2BC138FFBFEF11F085CCE9FFC7
:1011D00086CCEAFF120001012C6B2D6B01012B69FB
:1011E00012000F0EEB50FF08120087EC33F014C012
:1011F00000F0D1EF09F02C0EEE6E010EEE6EEE6AED
:10120000EE6A12000F01010E2A6F21EC10F00009A6
:10121000120001C0EBFFABEF09F0EECF20F1EDCFF4
:1012200021F11200EECF1EF1EDCF1FF112000C01E3
:101230000C51F00BE842E842E842E842040DF3505A
:101240001200280DF3CF26FCF4CF27FC000E262732
:10125000070E2723120000C0EEFFB7D00101FA6F7E
:10126000FB6BE0EF29F00F0EEB500F01386FBFEF73
:1012700011F0EECF02F0EFCF03F002500018120091
:101280000D0E00C0EBFF0E0E01C0EBFF1200140E9E
:1012900000C0EBFF150E01C0EBFF1200100EEB6A51
:1012A000110EEB6A1200EE6AEE6AEE6AEE6A120046
:1012B000EE2AEE22EE22EE2212002EC1E9FF2FC10D
:1012C000EAFF1200EADE0D0ECEDEEF501200270E0E
:1012D00033EF08F03BC104F03CC105F0066A076A31
:1012E000DCDE040EA8D80424006EEE500520016E4A
:1012F000EE500620026EEE500720036E002A000E0C
:1013000001220222032271D82BEF09F09FD8EFCFE0
:101310002AFCEE2AEFCF2BFCEE22EFCF2CFCEE22A4
:10132000EFCF2DFCEF22F5EF09F090D8EECF2AFC9D
:10133000EECF2BFCEECF2CFCEFCF2DFC4DEF08F0C9
:1013400054D826CCEEFF27CCEEFF28CCEEFF29CCDC
:10135000EEFF37EF08F032C1E9FF33C1EAFF1200B8
:101360000F0E81DEEF68120098DE0E0E61D87FDE70
:1013700047EF09F01A0E77DEAEEF08F00D0E73DEC0
:101380000DEF09F00B0E6FDE12EF09F075DE1E0E89
:10139000EB50030812000C01100E386F26D891EFA5
:1013A00008F015C001F016C002F017C003F01200DB
:1013B0005ADE75EF08F0230E56DEFBEF08F07CDEF8
:1013C0000CEF0AF050DE41EF08F001C0EEFF02C062
:1013D000EEFF03C0EEFF1200060E33EF08F028D830
:1013E0005DEF09F028D8ED10120041DE1A0E33EF40
:1013F00008F035D8EF863BDE120E3BC1EBFF130E33
:101400003CC1EBFF2CD8EF84120061DFEF501200DB
:101410006CEC10F062EF09F0160E33EF08F094DE7A
:1014200067EF09F024DEEF50120093DE67EF09F05A
:101430001ADEDAEF08F017DEEE50120000CCE9FFFA
:1014400001CCEAFF120018DE05EF0AF010DE0CEF07
:101450000AF037DE67EF09F00ADE05EF0AF007DE73
:0A14600067EF09F02FDF100B1200F8
:06146A00D8CFE4FFE0CF43
:10147000E4FFE46EDACFE4FFE2CFDAFFE9CFE4FF86
:10148000EACFE4FFF6CFE4FFF7CFE4FFF5CFE4FFC8
:10149000F3CFE4FFF4CFE4FFFACFE4FF00EE10F067
:1014A0000B0EE80403E3EECFE4FFFBD700EE00F001
:1014B000100EE80403E3EECFE4FFFBD7E65290EC16
:1014C00033F0E55200EE0FF0100EE80403E3E5CF31
:1014D000EDFFFBD700EE1AF00B0EE80403E3E5CFB7
:1014E000EDFFFBD7E5CFFAFFE5CFF4FFE5CFF3FF44
:1014F000E5CFF5FFE5CFF7FFE5CFF6FFE5CFEAFF54
:10150000E5CFE9FFE5CFDAFFE550E5CFE0FFE5CF36
:10151000D8FF10006CD97DEC33F052EC2DF0100E9A
:10152000E66EE66A940E006E470E9FEC0EF0CE0E4D
:10153000E66E000EE66E2BEC28F01DEC0FF022ECB0
:101540000FF07FD981A604DB44EC2CF074EC13F08F
:10155000C7EC1DF00001C3B105D0010EDE6F020122
:10156000080E9E6F87EC33F00001DF51145C006EB3
:10157000E0511558016EE1511658026EE251DDEC52
:101580000EF00BE387EC33F014C0DFF015C0E0F091
:1015900016C0E1F017C0E2F0837E50EC2CF08CEC2A
:1015A00013F0D6EC1DF0F2EC26F0CFEC23F034D89B
:1015B0000001DE510201A15DD5E0A1C2DEF0460EC0
:1015C000006E540EA9DB0101AD0E6E6F000E6F6F41
:1015D00007D8570E006E540E9FDB7DEC26F0C2D765
:1015E0004FEC0FF0A1DB19EC0FF0FDE1B8DB010EC1
:1015F00058EC0FF019EC0FF0FDE1B1DB020E58ECE6
:101600000FF019EC0FF0FDE1AADB030E58EC0FF020
:1016100019EC0FF0FDE11200C282C2B2FED7C05039
:10162000F36EC080C082E850C06E700EE66E010E90
:10163000E66EC3CFE6FFC4CFE6FF42EF0FF078C1FE
:10164000E9FF79C1EAFF29EC0FF00C01856FE85042
:1016500013E1020E0101EA6A7825E96E7951EA2266
:1016600029EC0FF00C01866FE850010A04E0010A32
:1016700003E1837C01D0837A0A0EE66EE66A5A0E95
:10168000006E540E5CDB78C1E9FF79C1EAFFEECF52
:10169000E6FFEFCFE6FF2BEC28F01DEF0FF0010186
:1016A0007B51170A6BE0010A59E0190A4FE0010A61
:1016B00048E0030A42E0090A3CE0060A30E0170A63
:1016C0002AE0010A24E0070A1EE0010A18E0030AE2
:1016D00012E0010A0CE0110A06E0010A63E18350FE
:1016E000800B37E131D08350400B2EE032D0835055
:1016F000200B2AE02ED08350100B26E02AD08350F6
:10170000080B22E026D08350040B1EE022D0835029
:10171000020B1AE01ED08350010B16E01AD03FDBFB
:1017200046DB3DDB3FE07C2B000E7D2338DB35E1E3
:1017300039D08150080B08E00CD08150040B04E034
:1017400008D08150020B05E1300E06D08150010B0C
:1017500002E0310E01D0300E2ADB24D07C517D1105
:1017600005E18E0E006E470EEADA32DBA6DB1AE0E8
:101770007C2B000E7D23EBDA10E114D07C517D111F
:1017800005E1790E006E470EDADA22DB96DB0AE01D
:101790007C2B000E7D23DBDA05E07CC1F3FF7DC1ED
:1017A000F4FF1200F368F4681200030EE66EE66AB6
:1017B000790E006E540EC3DA94C1E6FF95C1E6FFC0
:1017C000E1EC27F03ADB000911E1090EE66EE66A6A
:1017D0007D0E006E540EB3DA96C1E6FF97C1E6FFA8
:1017E000E1EC27F02ADB000901E1010C000C959ED9
:1017F000959C959A95989596959495929590839E9B
:10180000839C839A83988396839483928390400EDB
:101810009B6E890EC26E0B0EC16E2F0E926EBE0EA7
:10182000C06EF19E200EAC6E900EAB6E1F0EAF6EB2
:10183000D56AF28EF28CC28EC282C2B2FED7C29E2E
:1018400012000001C3810C01AD0E046F000E056F84
:101850000201126B05DB6CEC30F00C01036F8BECBA
:1018600030F0550E0C01035D1BE1010E0201126FF9
:10187000F7DA0C01036B0351F9DA10E26CEC30F08B
:10188000E66E0C0104CCE9FF05CCEAFF042B000E48
:101890000523E552E750EF6E032BEDD78BEF30F0C9
:1018A00052EF0CF00C01AD0E016F000E026FADDABD
:1018B000550E1D6FBEEC30F00C01006B0051D6DAF6
:1018C0000EE201CCE9FF02CCEAFF012B000E02235D
:1018D000EFCF1DF2BEEC30F00C01002BEFD7CAEFBA
:1018E00030F098C101FC99C102FC0C01036B98C156
:1018F000E9FF99C1EAFFEFCF00FCEF5021E02E0E87
:101900000C01005D11E1010198C1E9FF99C1EAFFF5
:10191000982B000E9923EF6A29DA032B80DA98C1FD
:1019200001FC99C102FC07D0300E005D03E30051B9
:10193000390801E2000C0101982B000E9923D7D73A
:1019400015DA6DDA030E0C01035D01E0000C010CE9
:10195000DAEC32F0000932E181B6FAD787EC33F0E5
:1019600014C001FC15C002FC16C003FC17C004FC27
:1019700081B6EED787EC33F00C010151145C006E98
:1019800002511558016E03511658026E0451175832
:10199000036ED880900E0054010E0154000E0254C4
:1019A000000E0354E5E231DA1D6BBEEC30F0CAECF8
:1019B00030F0100E006E460EAFD9CAD7E3EC32F00D
:1019C0000C01006F300E005D05E33A0E005D02E28F
:1019D000005112003A0C570E006E540E9DD9300E75
:1019E00001019C5DE96EEA6AD890E936EA36E30EB9
:1019F000E926000EEA22EECF00F0EFCF01F0026AF6
:101A000000C05CFF01C05DFF17EC33F001019C5189
:101A1000300A01E19BD0090A01E196D0010A01E1F7
:101A200090D00F0A01E18AD0010A57E0030A50E082
:101A3000010A49E0070A42E0010A23E0030A01E043
:101A400012001BDAC4C0E6FFC5C0E6FF1BDA0F01B7
:101A50008F0E5A6F0C0E5B6F02EC33F01ADA140E15
:101A600096D9000974E009DA35EC2BF0E552E5521D
:101A7000F3CFC4F0F4CFC5F0F4CFB5F0F3CFB6F0A8
:101A800012000F01CE0E5A6F000E5B6F02EC33F0A6
:101A900000DA100E7CD90C018F5159E0100EE66E61
:101AA000E66AEBD9CE0EE66E000EE66E00EC28F08C
:101AB000006E060EE15E005022EF0FF00C01AD0E3D
:101AC000A76F000E0ED00C01BB0EA76F000E09D041
:101AD0000C01B70EA76F000E04D00C01BF0EA76F4C
:101AE000000EA86FA7CC6EF1E8CF6FF179DDD1D9E8
:101AF000140E4DD90101A30E9A6F0C0E9B6F0101BC
:101B00008F0E986F0C0E996FECDE00090AE11F0E24
:101B1000006E560E01D9DAEC32F00009FCE0E3EF7A
:101B200032F0A7CCE9FFA8CCEAFFA3CCEEFFA4CC0F
:101B3000EEFFA5CCEEFFA6CCEEFF12000001C381A4
:101B400012000001C3911200BAEF0DF0ABDE1200DB
:101B5000870E006E540EE0D8FBDE0C01AE6F3A0E1D
:101B6000AE5D03E0AECC9CF136DF300E0C01AE5D15
:101B7000EFE112000C01006B046BF0EC2DF0F3CFE1
:101B800002FCF4CF03FC2FD987EC33F014C08BFC9C
:101B900015C08CFC16C08DFC17C08EFC870EE96E3C
:101BA0000C0EEA6EEE500C01145C006EEE501558EF
:101BB000016EEE501658026EEE50FFD809E313D9AD
:101BC00038D9FEE10F01150E566FE5EC32F0837245
:101BD000DAEC32F00009D8E00C01045101E079D0D0
:101BE000DAEC32F00009F8E08372E3EC32F00C0139
:101BF000016F0051030A29E0010A24E0030A1DE0F5
:101C0000010502E1010E1FD0040E015D0EE1838289
:101C1000C5EC2DF00ED9FEE10F01060E566FE5EC76
:101C200032F00C01010E046FD7D703D9FEE10F018A
:101C3000150E566FE5EC32F0CFD7060E066F056B2A
:101C4000020E01D0030E006FC7D70551052BEA6ABB
:101C5000070FE96E0C0EEA2201CCEFFF0551006E72
:101C6000016A0134B9E200508008000E0154B4E268
:101C700002CC7BFE03CC7CFEF6EC2DF00C01060EB4
:101C8000066F016B0151006E016AD890015004E6A5
:101C9000800E005C000E01580DE20151EA6A070F48
:101CA000E96E0C0EEA22EFCF7DFE0CEC2EF00C015B
:101CB000012BE8D726EC2EF0F3CF02FCF4CF03FC87
:101CC000B8D8FEE106CC56FFE5EC32F00C01006B13
:101CD00083D7010C0F0E92D8EF6A9DC1E6FF9EC11B
:101CE000E6FFDDEC28F0E552E5520C01006B0F0E2B
:101CF000005D11E2005182D8EF500AE10F0E0C0195
:101D0000005D09E20051002B79D8200EEF6EF6D766
:101D10000C01002BECD71200016E026A00C05CFFC0
:101D2000E8CF5DFF17EF33F0EF50E66EE66AAAD812
:101D30000F01000E5A6F0C0E5B6F02EF33F0016E55
:101D4000026A00C0E6FFE66E02C0E6FF12007C51A8
:101D5000EA6A800FE96E010EEA22EF5012000F01CD
:101D60002E0E566FE5EC32F04FEF0FF001CCE6FF90
:101D700002CCE6FF35EC2BF0E552E552F350E66E6F
:101D80009AC100F09BC101F00C0103511200556F84
:101D90000F018F0E536F0C0E546FA7EF32F07C5172
:101DA000EA6A700FE96E010EEA22EF5012007EC15E
:101DB000E9FF7FC1EAFFEF6E12001758036E320E83
:101DC000005C000E0158000E0258000E035812006D
:101DD000800EE66E010EE66E88EC28F0036E050EAE
:101DE000E15E0350120087EC33F014C087FC15C08D
:101DF00088FC16C089FC17C08AFC12000101EA6A3F
:101E00009D25E96E9E51EA22120002011B6B1C6B9C
:101E10000201A00E1A6FB7EC30F0020112000F01A0
:101E20000024E96E000E0120EA6EE552E750EF6EE5
:101E30001200CEEC32F000091200036E070EE15ED4
:101E4000035012000101CE0E9D6F000E9E6F6AEFCF
:101E50000EF0EE50EFCFEAFFE96EEF50D00F120018
:101E6000136B0201A00E116F62EF30F0006E016A79
:101E7000310E005C000E015812008F0EE66E0C0E43
:101E8000E66E1200AAEC2BF0E552E552E552E5525F
:101E900012000C0E006E460E3FDF0F011200000E06
:101EA000E66E0C0EE66E6EC1E9FF6FC1EAFF12002E
:101EB000E926000EEA2294EF0EF0010148DF77DFF9
:041EC000A7EF0EF08A
:0C1EC40089908992929092920E01FE8B00
:101ED0000E01FDA1FDD70A0EE66E9EEC33F0E55231
:101EE0000C01056B070E0C01055D3EE20C0105516E
:101EF000006E016A480E0102F3CF01F0020E0002EB
:101F0000F3500126480E0002F3CF00F0F4500126F2
:101F1000026A036A080E0026100E0122000E022239
:101F2000000E03220C010551050DF3CFE9FFF4CF9C
:101F3000EAFF000EE9260F0EEA2200C0EEFF01C004
:101F4000EDFF0C010551050DF3CFE9FFF4CFEAFFDA
:101F5000000EE9260F0EEA22040EE926000EEA2200
:101F6000EF800C01052BBED70F01236B0F01010E73
:101F7000296F0F01256B266B0E01E86BE96B0E01D3
:101F8000070EEC6F0E01100EED6F0E01070EEA6FDB
:101F9000100EEB6F0E01080EE46F100EE56F0E01D0
:101FA0000D0EA06F00000E01320EA26F00000E0198
:101FB000400EA36F00000E013F0EA96F00000E013E
:101FC000120EA66F00000E010C0EA76F00000E018E
:101FD000EE0EAA6F00000E01050EAB6F0000B1C03F
:101FE00084FE0000B2C085FE0000B3C082FE000087
:101FF000B4C083FE0000B5C080FE0000B6C081FE04
:1020000000000F01506B010E516F0F01100E4F6F4A
:10201000D1DA0F01720E506F040E516F0F01140EC2
:102020004F6FC8DA0F01526BD2DA0E01DF85120052
:102030000F01010E4E6FA6DAF350040B01E0010E02
:1020400012000F012A5106E00E01DF51080B080AA9
:1020500019E0010C2451235D06E10E01DF51080B4C
:10206000080A10E0010C0C01010EAB6F070EAB5D0E
:1020700008E2AB512BDBEF50010B01E0010CAB2B65
:10208000F5D7000E12000F012B5106E00E01DF51B3
:10209000080B01E1000CFF0C0C01010EAB6F070EE9
:1020A000AB5D0FE2AB5112DBEF50010B08E0AB511F
:1020B0000DDBEF90AB510ADBEF92AB511200AB2B73
:1020C000EED7FF0C0F012C51070805E32C51FEDA67
:1020D000EF802CCF23FF12000F01295101E01200E5
:1020E000010E296F25CF87FC26CF88FC0C01875F66
:1020F000000E885B87CC00F088CC01F0B6DA04E2F1
:10210000070E876F100E886F0E01FE8D87CCECFED8
:1021100088CCEDFE0E01FC9D1200D9CEABFCEECEBC
:10212000ADFCEFCEAEFC0C01AB510E01D95DF5E17B
:10213000ECCEABFCEDCEACFC0C01AD51AB5DAE51C9
:10214000AC5911E2070E046E100E056EAB51AD5D79
:10215000086EAE51AC55096E0850045C006E095013
:102160000558016E14D0AB51AD1908E1AC51AE1950
:1021700005E1070EF36E100EF46E1200AD51AB5D6B
:10218000006EAC51AE55016E0006000E015A00C043
:10219000F3FF01C0F4FF12000E01D95102E1000E5D
:1021A00085D00F01295103E197DF000E7FD025CFA5
:1021B00027FF26CF28FF25CFE0FE26CFE1FE140E15
:1021C0000F01476F486B0F01000E456F0C0E466FF5
:1021D000A1D912CC81F213CC82F299EC2FF0F3CF7B
:1021E00012FCF4CF13FC00CC00F001CC01F0026A29
:1021F000036AD880070E0054100E0154000E0254DA
:10220000000E03541BE30C010C010051010B16E1FD
:102210000C010C010551800B11E10C010C01045162
:10222000100B0CE10C01EE0ED8800255050E035583
:1022300005E30C010C010451800B01E1FF0000CC0F
:1022400025FF01CC26FF060EE66EE66A0C0EE66E52
:102250000C0EE66E2DCFE9FF2ECFEAFFE9CF00F09E
:10226000EACF01F000C0E6FF01C0E6FF00EC28F075
:10227000026E060EE15E02502FCFE9FF30CFEAFF7B
:10228000EF68080E0C01135D0DE10C01125104E022
:10229000060E0C01125D06E12FCFE9FF30CFEAFFF9
:1022A00012CCEFFF0F01296B010E00D0120018DADB
:1022B000EECFE2FEEDCFE3FE2351CDD9F4D93427A2
:1022C0000150352306DA34CFEEFF35CFEDFF0F0195
:1022D000496B3FD9060E0F014C6F4D6B31CF4AFF52
:1022E00032CF4BFF39D9060E0F014C6F4D6B0F01EA
:1022F000B10E4A6F000E4B6F2FD90F01080E496FB8
:1023000028D90F01335102E1000E01D0060E0F0152
:10231000496FA9EF12F0E4D9EECFE4FEEDCFE5FE70
:10232000D8D9EECFE6FEEDCFE7FE23CF24FF235131
:10233000CDD9EF820E01FCA304D0FC930E01DF8FF8
:10234000DF9F0E01DF871200B8D936250C01876F99
:1023500001500F0137210C01886F87CC00F0016E0E
:1023600084D904E2080E875F100E885B87CCE0FEFC
:1023700088CCE1FE87CCE2FE88CCE3FE120038CFA9
:1023800023FF0F01385167D9EECF00F0EFCF01F0F6
:10239000010E0026000E01220E0E0026000E012264
:1023A0000050392701503A2339CFE0FE3ACFE1FE01
:1023B00039CFE2FE3ACFE3FE12007FD93B250C0174
:1023C0002C6F01500F013C210C012D6F2CCC00F023
:1023D000016E4BD904E2080E2C5F100E2D5B2CCC45
:1023E000F0FE2DCCF1FE3DCF00F03ECF01F0000617
:1023F000000E015A00502C2701502D232CCC00F048
:102400002DCC01F032D904E2080E2C5F100E2D5BAA
:102410002CCCF2FE2DCCF3FE0E01DF89DF8BDFBB6F
:10242000FED7F6CE2DFCF7CE2CFC2CCCF3FF2DCC1A
:10243000F4FF120055D937D93F250C01C36F015065
:102440000F0140210C01C46F010EC327000EC423ED
:10245000C3CCF0FEC4CCF1FE41CF00F042CF01F07E
:102460000006015A0050C3270150C423C3CCF2FE1A
:10247000C4CCF3FE0E01DF89DF8BDFBBFED7F6CEC7
:10248000C4FCF7CEC3FCC3CCF3FFC4CCF4FF1200F2
:102490000F014351441103E1F368F4681200010E87
:1024A00043190CE144510AE132D8016E006A001E62
:1024B000011E00C0F3FF01C0F4FF1200E0CEABFC30
:1024C000E1CEACFCE0CEF0FEE1CEF1FEE0CE00F0DD
:1024D000E1CE01F0CAD80CE3D4D8ABCC00F0ACCC40
:1024E00001F0C3D806E2080EAB5F100EAC5B01D062
:1024F000C8D8ABCCF2FEACCCF3FE0E01DF89DF8B8B
:10250000DFBBFED7F6CEF3FFF7CEF4FF12000E01CD
:10251000FA51120047CF2CFC48CF2DFC0C012CCCDB
:1025200000F02DCC01F02C07000E2D5B00500110A7
:102530000BE00F0145CFE9FF46CFEAFF452B000E28
:102540004623FACEEFFFEAD747CFF3FF48CFF4FF99
:10255000120049CFFAFE12000F014CCF00F04DCF10
:1025600001F04C07000E4D5B005001100AE04ACF0D
:10257000E9FF4BCFEAFF4A2B000E4B23EFCFFAFEC9
:10258000EBD712004ECFB4FE00000E01010EB26F69
:1025900000000E018AB1FDD70E01B26B0000B8CE6B
:1025A00003FC0000B9CE04FC03CCF3FF04CCF4FF21
:1025B00000D012004FCFB4FE000050CFB6FE000096
:1025C00051CFB7FE00000E018AB1FDD712000E01F7
:1025D000DF950E01DF970F014E6BD4DFF3CF00FCC8
:1025E000F4CF01FC0F0152510C010191E8B00181BF
:1025F00000CC50FF01CC51FF0F014F6BDBDFA2CEAF
:1026000002FC0C0102910F01525102E00C01028107
:1026100002CCA2FE00000F01525102E0150E01D0C3
:10262000120E0E01A46F0E01DF8512000E01DF9560
:102630000E01FDB5FDD70E01DFB7FDD70E01FE9BE4
:1026400012000E01FE8BE80EE66EBAEC33F0E55296
:102650000E01DF851200050DF3CFE9FFF4CFEAFF8D
:10266000000EE9260F0EEA221200026A036AD880E1
:10267000070E0054100E0154000E0254000E0354B5
:10268000120043CF00F044CF01F00006000E015AC3
:1026900000500C01AB270150AC231200040EE926B8
:1026A000000EEA221200EECF00F0EFCF01F00E0E86
:1026B0000026000E012200501200140E0F01016AC4
:1026C0002725006E2851012200501200C4DF4EEF72
:1026D00013F02351C0DF020EE926000EEA22120099
:0826E0000F0123512BEF13F051
:0826E8000C01036B030E035DFE
:1026F00012E2500E0101006F016B8DEC00F0E66EEE
:102700000C0129DBE552E750EF6E25DB030EF8DA0A
:10271000EF6A032BEBD712000C01CA6B030ECA5DE4
:1027200006E2CACCBDF104D80C01CA2BF7D71200BF
:102730000101BD510A0DF3CF81FCF4CF82FC9F0E45
:102740000C018127010E8223686BD0DA1FDB03E1C5
:1027500051DBEF6A1200CADA030EEB50090A01E1FD
:1027600020D1080A01E10DD10A0A01E1A9D0090A24
:1027700001E188D0020A01E022D1B8DA0EDB01E1E2
:102780001ED10C01010E686F666B676B0C01640E45
:10279000665D000E675914E266CC13F167CC14F144
:1027A000662B000E6723000E010113270C0E142365
:1027B0009DDAEF500101126FCCEC02F00009E6E166
:1027C000000E0C016625E96E0C0E6721EA6EEF6AB9
:1027D00019DB10DB020EEF6E0C010B0E7F6F86DA39
:1027E000090E8EDAE9CFC6F1EACFC7F101017F0EFB
:1027F000C46F0C0EC56F0101690EC26F0C0EC36F62
:102800000101000EC06F0C0EC16F7BD90C01656F0A
:10281000E85001E0D4D07F5101080EE27FCC7AF17C
:102820000101690E786F0C0E796F1FEC0BF05EDA08
:10283000090E66DA020EEF6E69CC77FE6ACC78FE7E
:102840005BEC2DF0BFDA52DAAFDA50DAEE52FF0E5F
:10285000EE1808E1FF0EED1805E148DA080E50DA2F
:10286000EF6A0AD043DAEE52EE50ED1008E13EDA9C
:10287000080E46DA010EEF6EBDDA020E9FD0BADA0C
:102880000B0E9CD0D5DA01E19AD030DA080EEB506D
:10289000E96EEA6AD890E936EA369A0EE926020E1F
:1028A000EA22EECF83FCEDCF84FC48DA02E0B0DA16
:1028B000FCD71CDAEF500101086FA4EC01F06ED0D8
:1028C000B7DA01E17CD00C01010E686F0FDA090E56
:1028D000EB50020815E10ADA070E12DA010EEF6E6C
:1028E000806B8051006E016A840E005C000E0158FE
:1028F0001BE28051F76A8E0FF66E630E72DAF1D723
:10290000F5D9070EFDD9EF6A806B8051006E016A20
:102910001F0E005C000E015807E28051F76A6E0F2F
:10292000F66E630E5EDAF1D7E1D9090EEB50140DA5
:10293000F3CFF6FFF4CFF7FFA60EF626620EF722CE
:10294000F6CF83FCF7CF84FCF9D902E061DAFCD73B
:10295000806B8051006E016A040E005C000E01580D
:1029600007E28051F76A130FF66E640E3ADAF1D778
:10297000BDD9040EC5D9030EEF6EB8D9C1D9010E69
:102980001DD0B4D90ADA01E03DDA81CCBEF182CCA7
:10299000BFF11AD8000913E0C5EC2DF02BDA090EAF
:1029A0000DD0A4D9F3D90BE043DA09E09FD9EF5059
:1029B0000101076F5FEC01F01DDA0A0EEF6E0C01EA
:1029C000685101E0C1D6120096D9EE52EECF79FEE1
:1029D000EDCF7AFECCEC2DF08ED9070EEB5000092E
:1029E00001E177D088D995D901E185D00C01BF6B81
:1029F00082D9040EEB50080804E0DDD902E1731D12
:102A00006FE079D9040EEB50080A34E00E0A1AE0A0
:102A1000030A0CE0060A58E1250E0C01C05D03E133
:102A2000EDD9050E50D0010EBF6F4ED0250E0C0112
:102A3000C05D03E1010EBF6F44D0C0CCC2FCDED943
:102A4000060E41D0C0CCC1FCC0CC7DF2C2CC7EF21F
:102A500061EC2FF0E66E4FD9080E52D9E552E750DF
:102A6000EF6ECCD9080EEF6E46D9050EEB6A060E56
:102A7000EB6A2AD00101C00E7E6F0C0E7F6F3BD92E
:102A8000050E3ED9EECF7CF1EDCF7DF134D9080EA5
:102A9000EB5001017B6F4FEC0BF094D92CD9050E54
:102AA000F3CFEBFF060E01C0EBFF0C01010EBF6F71
:102AB00022D9050E25D9FF0EEE1806E1FF0EED18FE
:102AC00003E19CD9030EEF6E0C01BF518BE0A5D939
:102AD00089D711D91ED90FE06ED90BE1731D09E119
:102AE000EDEC2DF008D9EF500101086FA4EC01F0D6
:102AF000010C93D9EED7EDEC2DF064D9FCD854D964
:102B0000000C0C01866B886B896B856B030EE66E7F
:102B1000E66A180E006E640E31D9C0C1E6FFC1C16D
:102B2000E6FF24D908E1040E0101C027000EC123ED
:102B30000C01876B01D0020CFCD8EF50200802E199
:102B400046D9FAD778D9200E0C018A5D5EE08A5109
:102B50005CE00D0E8A5D59E00A0E8A5D56E0C4C144
:102B6000E9FFC5C1EAFFEF50855D4FE28651020AD9
:102B700015E0030A0DE0010A46E1855153D95BD9FE
:102B80002F0E0C018A5D28E05C0E8A5D3CE124D0AA
:102B90008551852B47D90C01020E866F4CD93F0E0B
:102BA0008A5D18E0260E8A5D15E02B0E8A5D04E131
:102BB000200EBFD8EF6E27D02E0E8A5D08E1850566
:102BC00006E105D9C0C188FCC1C189FC1CD03D0EFD
:102BD0008A5D05E1AED8EF6A010E866F14D02F0E24
:102BE0008A5D03E05C0E8A5D0EE1010E0101016A5F
:102BF000C025006EC15101220C01850591D800C08D
:102C0000EEFF01C0EDFFE3D89DD793D8EF6A090E20
:102C1000E3D8EF6E8851891139E088CCE6FF89CC82
:102C2000E6FFDDEC28F0E552E552F3CF88FCF4CF67
:102C300089FC0C017E0E8B6F620E8C6F8A6B8A5141
:102C4000006E016A0A0E005C000E01581FE2030EBE
:102C5000E66EE66A8BCC00F08CCC01F0026A8BCC7D
:102C6000E6FF8CCCE6FF02C0E6FF88CCE6FF89CC0D
:102C7000E6FF7CD804E1B0D88ACCEFFF07D0040E81
:102C80000C018B27000E8C238A2BD9D70C01855180
:102C900025E1090EE66EE66A1C0E006E640E6ED823
:102CA000C2C1E9FFC3C1EAFFEECFE6FFEFCFE6FF07
:102CB0002BEC28F0036E070EE15E0350C2C1E9FF62
:102CC000C3C1EAFFEE50EFCFEAFFE96E090E18D854
:102CD000EF6A010E81D8EF6E0C01852BC4C1E9FFAC
:102CE000C5C1EAFF85CCEFFF8751120081CCE9FF17
:102CF00082CCEAFF1200BEC1E9FFBFC1EAFF1200A9
:102D0000E926000EEA221200EF5001010A6F20EFBF
:102D100002F0EF500101096F01EC02F0000912000E
:102D2000020D0101C251F324E96EC351F420EA6E91
:102D30001200C0C1E9FFC1C1EAFF12000C0183CC3F
:102D4000F6FF84CCF7FF832B000E84230800F5CF19
:102D500080FCF550120003510A0DF3CFE9FFF4CFC8
:102D6000EAFF9F0EE926010EEA221200E1EC27F0AD
:102D7000036E070EE15E035000091200016E026A45
:102D800000C0E6FFE66E02C0E6FF1200EF50010150
:102D9000066F56EC01F000091200EF500101156FAB
:102DA0000AEC03F000091200010EF3CFEBFF020E54
:102DB00001C0EBFF1200DDEC2DF00C01C06F0E0125
:102DC000721D1200F3CF00F0F4CF01F012000101E8
:102DD000C02B000EC1231200C6C1E9FFC7C1EAFF24
:102DE0001200F7220800F5CF0BF180DF8DDF0C0118
:102DF000802B12007BDF030E80EF16F07CDF040EC9
:102E000080EF16F073DFEF5001010C6F7BEF02F0E3
:102E100080CC0BF16BDF84EF16F0C0CC0BF16BDFD5
:102E200084EF16F07DDFC0C1EEFFC1C1EDFF1200DF
:0E2E30005DDF89EF16F07DDFEFCF8AFC120028
:022E3E00080E7C
:102E400002019E5D01E11200FF0E9F5D04E09FC242
:102E50005FFE13EC1BF002019F699E6BA16BA091BA
:102E6000120002019E51070A01E1C1D0010A70E07F
:102E7000030A63E0010A4CE0070A33E0010A29E093
:102E8000030A08E0010A01E012000201276B286B27
:102E9000296B2A6B0C0100690169026903690469E5
:102EA00005690669076908690969430E0E015D6FC6
:102EB0005E6B0E01000E5B6F0C0E5C6F440E0E011C
:102EC000596F5A6BC5EC1AF002019F6FEBDA020ED4
:102ED0009E6FF4DA140E07DB01E2D2D00201030E7A
:102EE00035D002013C0E236F246B256B266B02014B
:102EF000A0A102D0050E2AD007DB01E1C1D002015A
:102F0000010E3C6F25DA0201376BCCDA040E1ED0BD
:102F1000D5DAC80EE8DA03E30201030E9E6F9FC202
:102F200061FEDAEC1BF0000901E1AAD0AAD8020880
:102F300001E0A6D00201050E9E6FE6DA01E1A0D005
:102F40000201030E3C6F04DAADDA060E9E6F12002A
:102F50009FC261FEDAEC1BF0000941E092D80C013F
:102F60000A6F060E0A5D02E11FEF17F0050E0A5DFB
:102F70003DE19FC25FFE13EC1BF002019F6992DAF4
:102F8000070E9E6F020137A108D027C2ADF028C2FC
:102F9000AEF029C2AFF02AC2B0F037A508D02FC2D8
:102FA000B7F030C2B8F031C2B9F032C2BAF037A3CC
:102FB00008D02BC2BBF02CC2BCF02DC2BDF02EC27B
:102FC000BEF037A708D033C2BFF034C2C0F035C25C
:102FD000C1F036C2C2F00201A081A12B12006EDA4C
:102FE000C80E81DA4DE30201030E9E6F120087ECDA
:102FF00033F002013851145C0C010B6F020139519E
:1030000015580C010C6F02013A5116580C010D6F46
:1030100002013B5117580C010E6F640E81DA30E348
:1030200002012307000E245B255B265B640E0C0166
:103030000B5F000E0C5B0D5B0E5B02012351241134
:103040002511261103E10201010E9E6F640E0C0191
:1030500067DAE6E287EC33F00C010B51145C0201F5
:10306000386F0C010C5115580201396F0C010D51CC
:10307000165802013A6F0C010E51175802013B6FAE
:1030800012000C01126B00DA020E0C010F5D01E060
:1030900038D1106B0F0E105D02E256DAFBD7020139
:1030A000A0A307D00C01106B040E105D14E24CDAE3
:1030B000FBD70E01270E626F020EF1D9280E626F48
:1030C000020EEDD9290E626F020EE9D92A0E626F47
:1030D000020E23DA37810C01106B080E105D02E23C
:1030E00033DAFBD7106B060E105D0EE2CDD90C0162
:1030F0001051EA6AB10FE96E000EEA22EF500F5D3F
:1031000001E023D1102BEFD7106BCE0E105D02E241
:103110001BDAFBD7136BB8D9000904E10C01010ECF
:10312000136FEFD00C010F51330A01E1AAD0CC0A82
:1031300001E1A4D0C90A01E18CD0300A64E0050A9B
:103140003BE0020A18E0340A01E0CBD09DD90C0123
:103150000F0501E0FAD00E01120E626F0C0EF8D9C5
:103160000201A051020B01E1C8D0020E0C01125D58
:1031700001E0C3D0EAD0EFD901E0E7D00201A0A37B
:1031800008D00C01106B040E105D01E3B6D0DCD941
:10319000FAD70E012F0E626F020E81D9300E626FC8
:1031A000020E7DD9310E626F020E79D9320E626F36
:1031B000020EB3D93785A1D09ED901E2C6D0020153
:1031C000A0A307D00C01106B040E105D14E2BCD953
:1031D000FBD70E012B0E626F020E61D92C0E626FAF
:1031E000020E5DD92D0E626F020E59D92E0E626F3E
:1031F000020E93D93783040E0C01115FA0D901E1AF
:103200007CD042D9FBD777D901E29FD00201A0A39D
:1032100007D00C01106B040E105D14E295D9FBD79A
:103220000E01330E626F020E3AD9340E626F020E37
:1032300036D9350E626F020E32D9360E626F020E2B
:103240006CD93787040E0C01115F79D956E01CD96F
:10325000FCD781D901E079D00E01170E626F0C0EF8
:103260001ED9160E626F0C0E1AD9150E626F0C0E57
:1032700016D9140E626F0C0E6BD93FD0010E136F6E
:103280003CD069D962E10201A0A307D00C01106B08
:10329000040E105D32E258D9FBD70E01260E626F84
:1032A000020EFDD8250E626F020EF9D8240E626F51
:1032B000020EF5D8230E626F020E4AD9D880080E8E
:1032C00002012355070E2455000E2555000E2655E4
:1032D00014E2080E235F070E245B000E255B265BBD
:1032E0000CD00E01110E626F0C0E32D928D905E0F8
:1032F0000E010F0E626F0C0EF8D70C01135101E195
:103300000AD7020E125D0BE114CC1FF215CC20F28D
:1033100016CC21F217CC22F20201A08311D01F0E8D
:10332000E96E020EEA6EEE50141908E1EE5015191E
:1033300005E1EE50161902E1EE50171901E0126B8B
:1033400005EC1CF00C011251120005EC1CF0000CF5
:103350000E01010E9FD8010E9DD8060E9BD8BED837
:10336000120E98D8230E96D8340E94D8560EF8D84C
:10337000800EF6D8B3D8B2D8606B26EC1BF00C01E7
:103380000F6B0C0E0F5D02E2D3D8FBD7B1C060FE0D
:1033900026EC1BF0B2C060FE26EC1BF0B3C060FE52
:1033A00026EC1BF0B4C060FE26EC1BF0B5C060FE3E
:1033B00026EC1BF0B6C060FE26EC1BF00C010F6B78
:1033C000CA0E0F5D02E2B4D8FBD70E01630E62D8BD
:1033D000820E60D8530E5ED8630E5CD8350E5AD874
:1033E000010E606F26EC1BF03CC260FE26EC1BF069
:1033F00002013C0502E10201A09302013C0518E034
:103400002751281129112A1113E00E01360EACD8CC
:1034100022C260FE26EC1BF021C260FE26EC1BF0EF
:1034200020C260FE26EC1BF01FC260FE26EC1BF0E3
:103430000E01370E2FD8040E2DD8010E2BD8030EF7
:1034400029D8060E27D80C0E606F26EC1BF0030E51
:1034500002013C5D13E10E01320E86D827C260FEE8
:1034600026EC1BF028C260FE26EC1BF029C260FE91
:1034700026EC1BF02AC260FE26EC1BF00E016069F0
:1034800026EC1BF074EF1BF00E010F0E626F0C0E9A
:10349000A8EF1AF0606F26EC1BF00E01120058D84E
:1034A0000E01120087EC33F014C038F215C039F267
:1034B00016C03AF217C03BF20201120087EC33F05B
:1034C00002013851145C006E39511558016E3A51A1
:1034D0001658026E3B511758036E1200606B26ECB3
:1034E0001BF00E011200005C000E0158000E025885
:1034F000000E035812000E01110E626F0C0E28D838
:10350000040E0C01115D12009FC258FE0F01010E46
:103510002A6F21EC10F0000912001AD802011200E3
:103520000B5D000E0C59000E0D59000E0E591200C5
:103530000E01606B26EC1BF00C010F2B12000C012E
:1035400011511107000912009FDF0C01102B12000E
:10355000636FE4EF1BF098DF040E0C010F5D1200A7
:1035600099DFBCDF6EEF1AF095DF040E606F26EF77
:023570001BF04E
:0E3572000C01006B040E005D06E200CC5FFE53
:1035800052D80C01002BF7D712000C01000E396F36
:103590000E0E3A6F386B040E385D44E2AEDA0C0E54
:1035A000EEDAEFCF01F0026A036A00500110021058
:1035B000031032E1A2DA0C0E59CEEBFF0D0E5ACEFB
:1035C000EBFF0E015B515C1111E00A0EE66EE66A3C
:1035D0005BCEE6FF5CCEE6FF90DA39CC00F03ACC69
:1035E00001F039CCE6FF3ACCE6FFA5DA86DA0A0E1E
:1035F0005DCEEBFF0B0E5ECEEBFF7FDA0E0EEB6ABD
:103600000F0EEB6A7ADA100EEB6A110EEB6A38CC09
:1036100058FE0C0138511200160E3927000E3A23BD
:10362000382BB9D7FF0C0E015F514FDA0C0E57DA69
:10363000EE6AED6A5F5149DA060E51DAEE6AEE6A19
:10364000EE6AEE6A5F5193DAEF9012000E01585164
:10365000160DF3CF48FCF4CF49FC000E0C014827AF
:103660000E0E492388DAEE50ED101DE10F01010E18
:103670002B6F43EC10F0E66E36DA120E30DAE552BC
:10368000E750EF6E30DA120EEB50FF0801E1000C4C
:103690001C0E0F01396F3A6B26DA54DA24DA130E56
:1036A000EB6A140EEB6A60CE49FFA9EC12F01BDA4C
:1036B000130E65DAEDCF01F0EE2AEF225CDA30DA94
:1036C000005C0350015803E356DAEE2AEF2253DA86
:1036D000EECF4AFCEDCF4BFC0C01160E4A5D020EFC
:1036E0004B5901E301D8010C0F01010E2A6F21ECA7
:1036F00010F00009F9E00E015851160DF3CF40FC0F
:10370000F4CF41FC000E0C0140270E0E4123F0D9EE
:103710000C0EE5D91DDAF3CF38FCF4CF39FCE8D92B
:103720000A0EDDD915DAF3CF3AFCF4CF3BFCE0D931
:103730000E0ED5D9EECF3CFCEFCF3DFC080E0C01B0
:103740003C27000E3D233E6B3F6B140E0F01396F7B
:103750003A6BCED9F7D93CCCF8F13DCCF9F1010167
:10376000110EF76FC5D940CCF5F141CCF6F160EC04
:1037700029F03CCC81F23DCC82F299EC2FF0F3CFD2
:103780003CFCF4CF3DFC080E0F014C6F4D6B0F015C
:10379000380E4A6F0C0E4B6FACEC12F08BEC11F044
:1037A000A7D9120E9CD9EF68A3D90E0EEB6A0F0EA3
:1037B000EB6A120061CE58FED6D9D880EE54000EC6
:1037C000ED5401E3000C010CCED9EE50ED1001E1F7
:1037D000000C5851CCD9EF50010B05E05851C7D916
:1037E000EF90080EA3D987EC12F062CEE9FF63CE0A
:1037F000EAFFEF6EB8D9EE06EF5A5851C4D9EE5031
:10380000ED1002E16CEC10F0010CADD9EE50ED10B2
:1038100002E06CEC10F0A7D9EE6AED6A1200080E17
:103820000F01476F486B0F01000E456F0C0E466F7E
:103830008AEC12F000CC81F201CC82F299EC2FF0EC
:10384000F3CF00FCF4CF01FC02CC81F203CC82F276
:1038500099EC2FF0F3CF02FCF4CF03FC04CC81F2FF
:1038600005CC82F299EC2FF0F3CF04FCF4CF05FCE9
:103870000C01080E045F000E055B065107116FE096
:1038800006CC81F207CC82F299EC2FF0F3CF06FC44
:10389000F4CF07FC64CEE9FF65CEEAFF060E1FD920
:1038A000EECF09FCEECF0AFCEECF0BFCEFCF0CFC09
:1038B00055D9EFCF0DFC010E12D9EFCF0EFC4ED92A
:1038C000020E0DD9EFCF0FFC49D9030E08D9EFCF67
:1038D00010FC0C01116B110E126F68CE13FC69CE37
:1038E00014FC68CE81F269CE82F299EC2FF0F3CF0E
:1038F00013FCF4CF14FC0C0E0201896F8A6B0201D9
:10390000090E876F0C0E886FCDEC2FF0F3CF15FCEE
:10391000F4CF16FC0C01151F161F060E07D915CC87
:1039200049FFA9EC12F0070E01D916CC49FFA9EC0A
:1039300012F00101FA6BFB6BE0EC29F068CE43FF5B
:1039400069CE44FF48EC12F0F3CF15FCF4CF16FC1F
:103950000C010651F31816E10751161913E166CE52
:103960006EFE67CE6FFE64CE6CFE65CE6DFE0E0100
:10397000000E6A6F0C0E6B6F12D80C01086FFF0EF1
:10398000085D03E16CEC10F0010C0851FCD804CC8C
:10399000EEFF05CCEDFF0851EAD8EF80010C0C01D9
:1039A0001869000E196F0E0E1A6F176B040E175D53
:1039B0005CE2A8D80C0E93D8AAD8020E90D8B0D842
:1039C00000184CE10350011849E19CD80A0E87D831
:1039D0009ED8A6D8001840E1035001183DE192D8C6
:1039E000100E7DD8EECF04F0EFCF05F0066A076A1F
:1039F00004500510061007102FE16CCEE9FF6DCEC4
:103A0000EAFF060EBCD8EECF01F0EECF02F0EFCF0A
:103A100003F078D8060E63D8EE500001001808E1D4
:103A2000EE50011805E1EE50021802E1EE500318C5
:103A300010E06ECEE9FF6FCEEAFFE868EE180CE109
:103A4000E868EE1809E1E868EE1806E1E868EE18A3
:103A500003E10C011751120017CC18FC0C01160ED3
:103A60001927000E1A23172BA1D7FF0E185D2AE085
:103A70001851160DF3CF19FCF4CF1AFC000E1927BC
:103A80000E0E1A230A0EE66EE66A6CCEE6FF6DCEC7
:103A9000E6FF38D819CC00F01ACC01F019CCE6FFBB
:103AA0001ACCE6FF48D86ACEE9FF6BCEEAFFEECF2C
:103AB00000F0EFCF01F026D80A0E00C0EBFF0B0E8E
:103AC00001C0EBFF0C0118511200160DF3CFE9FFF6
:103AD000F4CFEAFF000EE9260E0EEA221200E926D4
:103AE000000EEA22120048CCE9FF49CCEAFF12009E
:103AF00040CCE9FF41CCEAFF120039CCE9FF3ACCD7
:103B0000EAFF120019CCE9FF1ACCEAFF1200EECF4F
:103B100000F0EFCF01F06ACEE9FF6BCEEAFF1200B2
:103B2000EECF02F0EFCF03F0025012000101FA6F66
:103B3000FB6BE0EF29F000EC28F0026E060EE15E70
:103B400002501200120EEB500F01386FBFEF11F050
:103B5000EECF81F2EDCF82F299EF2FF066CEE9FF42
:103B600067CEEAFF12000E015851C3EF1DF0ADDF22
:103B7000150E6FEF1DF0B7DF0E0E6FEF1DF0AFDF0C
:0E3B8000EECF00F01200A1DF100E6FEF1DF06F
:023B8E00150E12
:103B90000101006F016B8DEC00F00001616F656B3E
:103BA000946B606B140E636F646B120061C006F15E
:103BB00056EC01F0000908E10001946B070E676FF5
:103BC000656B606B666B010C61C015F10AEC03F06C
:103BD000000935E048DA0101000E136F0C0E146F76
:103BE00061C012F1CCEC02F000090FE00001945129
:103BF000942BEA6A730FE96E000EEA2200CCEFFF05
:103C00001F0E945DE8E1946BE6D761C00CF17BEC8C
:103C100002F00A0E0C01005D3FE100019451EA6AD6
:103C2000730FE96E000EEA22EF6A946BCED995C04D
:103C3000ABF096C0ACF090D90001676F2DD00001B9
:103C400065512AE087EC33F014C001FC15C002FC7A
:103C500016C003FC17C004FCA40EE96E000EEA6E49
:103C6000EE500C01145C016FEE501558026FEE50CF
:103C70001658036FEE501758046F500E015D460E34
:103C80000259000E0359000E045906E3ECD9000155
:103C9000020E676F010E656F00016551010A36E083
:103CA000050A04E0040A50E1686BDDD9E7D901E1B7
:103CB000010C68C0E9FFEA6AE9BEEA68D890E93613
:103CC000EA36D40EE926010EEA22EECF05FCEDCF4E
:103CD00006FC0C0105CCF6FF06CCF7FF052B000E09
:103CE00006230800F5CF00FCF55007E000CC0BF1EF
:103CF00061C00AF120EC02F0ECD761C008F1A4EC3D
:103D000001F000010C0E686F010E656F070E675D14
:103D10001BE067C0AAF019D800090FE00C0E0001E3
:103D2000685D03E0040E656F04D0020E675D01E17B
:103D3000656B070E676F666B010C0C0E0001685D0A
:103D400003E0040E656FB2D7010C0001AA51050A09
:103D500051E0060A4DE0070A34E0060A30E0030AA3
:103D600018E0010A51E160816093010E686F0A0E4C
:103D7000E66EE66A97C0E6FF98C0E6FF690EE66E5B
:103D8000000EE66EAFEC28F0006E060EE15E00500D
:103D9000010C60A112D097C096F198C097F1010173
:103DA000690E946F000E956FD5EC0BF0000904E0DE
:103DB00000016083020E29D00001060E26D007EF15
:103DC0001FF09FC0E6FFA0C0E6FF35EC2BF0E552E8
:103DD000E552F3CF64F0A1C0E6FFA2C0E6FF35ECE8
:103DE0002BF0E552E552F3CF63F000010B0E0DD03E
:103DF00030EF1FF00B0E686FFE0E625D07E062C0D1
:103E000007F15FEC01F0010C050E686F010C000179
:103E10006651030A18E0020A0FE0010A20E1020ECF
:103E2000665D02E1C5EC2DF0FE0E0001625D06E06C
:103E300036D90001010E05D027D911E10001030E8A
:103E4000686F666F000C1AD90AE061C006F156EC83
:103E500001F0000904E061C007F15FEC01F0000C23
:103E600000016651020A37E0030A26E0010A73E105
:103E700060B302D0060E6DD0070E686F63C004F108
:103E800064C005F16151280DF3CFE9FFF4CFEAFFDB
:103E9000000EE926070EEA22EE52E9CF02F1EACF40
:103EA00003F1D5EC00F00001626FFE0E625D02E0EE
:103EB000010E0FD00A0E4DD0E7D84DE00E01715122
:103EC0004AE1F0EC2DF0F3CFA8F0F4CFA9F0000117
:103ED000020E666F000C62C015F10AEC03F00009D7
:103EE0002FE0C1D8A8C07BFEA9C07CFEF6EC2DF067
:103EF00001010B0E136F0C0E146F62C012F1CCECAB
:103F000002F0000905E00BCC7DFE0CEC2EF0F0D7A2
:103F100026EC2EF0F3CFA8F0F4CFA9F062C00CF19C
:103F20007BEC02F0ABD817E00101230E0B6F61C0F0
:103F30000AF120EC02F061C008F1A4EC01F0000CE1
:103F4000A3D809E126EC2EF0AAD80001FE0E626F7C
:103F5000090E686F010C000C0C01076B060EE76E72
:103F60000719E8AE02D0E73402D0E750075D2CE233
:103F7000040EE66EE66A07CCE9FFEA6AE9BEEA6883
:103F8000D890E936EA36C80EE926010EEA22EECFCD
:103F900000F0EFCF01F0026A00C0E6FF01C0E6FFCB
:103FA00002C0E6FFABC0E6FFACC0E6FFE1EC27F0E5
:103FB000036E070EE15E0350000903E10C01075197
:103FC00012000C01072BCAD7060C0C010A6B730EEA
:103FD000076F000E086F5ED8EF50200804E1072B32
:103FE000000E0823F8D707CC95F008CC96F0000116
:103FF000010EA36F4FD8EFCF09FCEF5033E00C0157
:104000000A51010A16E0010A29E1200E095D03E0C8
:104010002C0E095D05E13ED8EF6A010E0A6F1ED035
:104020000D0E095D03E00A0E095D18E133D8EF6A51
:1040300015D0200E095D12E00001A351A32BE96EFB
:10404000EA6AD890E936EA36950EE926000EEA22A9
:1040500007CCEEFF08CCEDFF0C010A6B072B000E1E
:104060000823C8D7120087EC33F014C0A4F015C0A1
:10407000A5F016C0A6F017C0A7F0120061C009F1A4
:1040800001EC02F00009120062C006F156EC01F0EA
:104090000009120007CCE9FF08CCEAFF1200C5ECCA
:0A40A0002DF062C007F15FEF01F0A0
:0640AA003FC23DF240C2DE
:1040B0003EF20201A46B12000201A451050A01E1C3
:1040C00041D1010A01E17AD0070A41E0010A29E061
:1040D000030A0BE0010A01E036D10201BF0E776F3F
:1040E000000E786F5CEC32F05CD00201440E7B6F06
:1040F000020E7C6F0201BF0E796F000E7A6F72ECB8
:1041000032F0000904E18BD901E31DD160D0BFC0BA
:104110004AF2C0C04BF2C1C04CF2C2C04DF2020123
:10412000A42B350E0E015D6F5E6B0E01440E5B6FAE
:10413000020E5C6F0E01596B5A6BC5EC1AF002014E
:10414000436FFF0E435D01E1FED00201A42B43C289
:1041500058FE0F01010E2A6F21EC10F0000901E159
:10416000F2D00E01120E606F26EC1BF00E01340E21
:10417000606F6ED9606B6CD9606B26EC1BF089D9CF
:1041800088D987D986D93DC252F23EC253F2DCD8D3
:104190000E01606B5DD9010E606F26EC1BF074ECB4
:1041A0001BF087EC33F014C04EF215C04FF216C06E
:1041B00050F217C051F20201A42B000C43C261FE61
:1041C000DAEC1BF0000906E12AD901E3BCD00201B8
:1041D000A407000C0E01210E626F0C0E1DD9200EDB
:1041E000626F0C0E19D9230E626F0C0E15D9220EB8
:1041F000626F0C0E11D9250E626F0C0E0DD9240EB4
:10420000626F0C0E09D9270E626F0C0E05D9260EAF
:10421000626F0C0E01D9290E626F0C0EFDD8280EAC
:10422000626F0C0EF9D82B0E626F0C0EF5D82A0EA9
:10423000626F0C0E3AD90C0124CC00F025CC01F0B1
:104240002407000E255B0050011009E00201546BA9
:10425000556BBED80E0121D9DFD81FD9EBD726CC9C
:1042600000F027CC01F02607000E275B005001105C
:104270005FE00E012D0E626F0C0ECED82C0E626F19
:104280000C0ECAD82F0E626F0C0EC6D82E0E626F9F
:104290000C0EC2D8310E626F0C0EBED8300E626F9B
:1042A0000C0EBAD8350E626F0C0EB6D8340E626F93
:1042B0000C0EB2D8330E626F0C0EAED8320E626F97
:1042C0000C0EAAD8370E626F0C0EA6D8360E626F8F
:1042D0000C0EEBD80C01010E2E1919E12F5117E12C
:1042E000010E301914E1315112E1040E36190FE1BB
:1042F00037510DE1B7D8E4EC1BF0B4D8010EBBD8B0
:10430000B1D8020EB8D8AED8030EB5D811D00C0172
:1043100036CC00F037CC01F03607000E375B00508A
:1043200001109DE00E011D0E626F0C0EBED8EFD77E
:1043300005EC1CF043C25FFE13EC1BF00201436965
:104340000201A42B010C000C52C200FC53C201FC60
:104350000C0100CCE9FF01CCEAFF002B000E012389
:10436000EFCF02FC025106E02E0E025D03E02F0E9D
:10437000025DEEE1020152510C01005D006E01513F
:1043800002015355016E0006000E015A00C003FCE5
:1043900000C060FE26EC1BF00C010351030700096E
:1043A0000BE0020152C2E9FF53C2EAFF522B000E9A
:1043B0005323EFCF60FEEED7025108E02F0E025DCF
:1043C00005E00201522B000E5323C2D749EF22F021
:1043D0000201545155110DE154D81DE00C0100515A
:1043E00000070009F9E00E01010E626F0C0E5DD8A6
:1043F000F5D747D810E00C01005100070009F9E09B
:1044000054C262FE55C263FEE4EC1BF00201542B61
:10441000000E5523F0D7120048D80E01120087EC89
:1044200033F002014E51145C006E4F511558016E6D
:1044300050511658026E51511758036ED880C80E4D
:104440000054000E0154000E0254000E03541200DA
:1044500026EC1BF00E01010E606F26EC1BF019D844
:104460000E01120041C2E9FF42C2EAFF41C262FEF0
:1044700042C263FE12000E016227000E6323E4EFC6
:104480001BF00E01000E626F0C0E0FD80C010051D4
:1044900012000E01606B26EF1BF01F0E626F0C0EF8
:1044A000BBDF1E0E626F0C0E1200636FE4EF1BF099
:1044B000323030204F6B0D0A003432352043616EAC
:1044C0002774206372656174652064617461207370
:1044D0006F636B65742E2020496E6372656173652E
:1044E000204D41585F534F434B4554532E0D0A0006
:1044F0000D0A323236205472616E73666572204343
:104500006F6D706C6574650D0A0031323520446F33
:104510006E650D0A00313530205472616E73666528
:104520007272696E6720646174612E2E2E0D0A000E
:10453000353330204C6F67696E2072657175697212
:1045400065640D0A00353032204E6F7420696D703D
:104550006C656D656E7465640D0A00353030200D34
:104560000A00323231204279650D0A0032333020A0
:104570004C6F6767656420696E0D0A003333312024
:1045800050617373776F72642072657175697265BB
:10459000640D0A003232302052656164790D0A00E0
:1045A00041424F5200504F52540053544F52005109
:1045B00055495400504153530055534552004854F7
:1045C00054502F312E3020353033200D0A0D0A5330
:1045D00065727669636520556E617661696C6162AA
:1045E0006C650D0A00485454502F312E3020343061
:1045F00034204E6F7420666F756E640D0A0D0A4E7E
:104600006F7420666F756E642E0D0A00293A2000C3
:104610000D0A0D0A425554544F4E302068656C64A3
:1046200020666F72206D6F7265207468616E203431
:10463000207365636F6E64732E2020454550524F82
:104640004D20636F6E74656E74732065726173655F
:10465000642E0D0A0D0A000D0A52656164792074FA
:104660006F20646F776E6C6F6164204D50465320ED
:10467000696D616765202D2055736520586D6F64E5
:10468000656D2070726F746F636F6C2E0D0A000D74
:104690000A44484350202620495020476C65616EEB
:1046A000696E672064697361626C65642E0D0A002F
:1046B0000D0A44484350202620495020476C65612C
:1046C0006E696E6720656E61626C65642E0D0A000E
:1046D0000D0A44656661756C7420444E5320536521
:1046E0007276657220416464726573732028000DD0
:1046F0000A44656661756C74205375626E6574203A
:104700004D61736B2028000D0A44656661756C74F9
:1047100020476174657761792041646472657373C1
:104720002028000D0A44656661756C74204950208C
:10473000416464726573732028000D0A486F7374B6
:10474000204E616D652028000D0A53657269616C09
:10475000204E756D6265722028000D0A4E6F77201D
:1047600072756E6E696E67206170706C69636174DA
:10477000696F6E2E2E2E0D0A004175672031342090
:10478000323030362030393A31393A3130007633F0
:0E4790002E3735004D434850424F41524400F1
:02479E00020116
:1047A000A351020A1BE0030A05E0010A01E012001E
:1047B000A32B1200890E0E015D6F5E6B0E015B6B09
:1047C0005C6B0E01596F5A6BC5EC1AF00201956FC4
:1047D000FF0E955D01E112000201A32B95C261FE5F
:1047E000DAEC1BF0000901E112000E01060E626F07
:1047F0000C0E18D9050E626F0C0E14D9080E626FDC
:104800000C0E10D9070E626F0C0E0CD90A0E626FD7
:104810000C0E08D9090E626F0C0E04D90C0E626FD3
:104820000C0E00D90B0E626F0C0EFCD80E0E626FD0
:104830000C0EF8D80D0E626F0C0EF4D8100E626FCD
:104840000C0EF0D80F0E626F0C0E636FE4EC1BF0D1
:104850000C0109CC00F00ACC01F00907000E0A5B3C
:104860000050011001E17ED00201110E986F0C0E74
:10487000996F9DD80E01000E626F0C0ED3D8020EF8
:10488000626F0C0ECFD8010E626F0C0ECBD8040EE7
:10489000626F0C0EC7D8030E626F0C0E636FE4ECF0
:1048A0001BF00C01200E0119D3E10251D1E1010EE0
:1048B0000319CEE10451CCE1CE0EE66E000EE66E99
:1048C000110EE66E0C0EE66E68EC28F0E552E5522D
:1048D000E552E5520009BCE195C258FE0F01010EF8
:1048E0002A6F21EC10F00009F7E00C01076B840E31
:1048F000086F06CC60FE26EC1BF005CC60FE26ECB3
:104900001BF008CC60FE26EC1BF007CC60FE26EC0A
:104910001BF084D883D899D80201CE0E966F000E72
:10492000976F22D87BD80E01200E8CD88ED876D8DF
:104930000E01060E87D80E01600E84D86FD8ADC068
:1049400060FE26EC1BF0AEC060FE26EC1BF0AFC094
:1049500060FE26EC1BF0B0C060FE26EC1BF074EC91
:104960001BF076D705EF1CF00E01200E6BD80C0162
:10497000216B100E215D19E2020196C2E9FF97C278
:10498000EAFF962B000E9723EFCF22FC0C01223971
:104990000F0B410F0E0156D80F0E0C012215410FBF
:1049A0000E0150D80C01212BE4D70EEF25F00201A7
:1049B0009851991111E10E01210E626F0C0E636F77
:1049C000E4EC1BF00C0121512107000926E00E0147
:1049D000220E626F0C0EF3D70E01210E626F0C0EC9
:1049E000636FE4EC1BF00C0121512107000915E075
:1049F0001ED82239F00B236F210719D82351221119
:104A0000E66E020198C2E9FF99C2EAFF982B000EF8
:104A10009923E552E750EF6EE6D712000E01606B66
:104A200026EF1BF0636FE4EC1BF00E0112000E0189
:104A3000220E626F0C0E636FE4EC1BF0410E0C0152
:104A4000225F1200606F26EF1BF0E8DF0E01010EFF
:0C4A5000F9DFE4DFE3DFE2DF0EEF25F02A
:044A5C001C0E0F011C
:104A6000476F486B0F01000E456F0C0E466F8AECC6
:104A700012F06CEC10F00001000EFE6F0C0EFF6FD8
:104A8000FFD80C01010E001912E1015110E104518F
:104A9000006E016A060E00180AE1015008E1055196
:104AA000026E036A040E021801E1035001E0000CDB
:104AB000020E061905E1075103E110D9EF6A0DD086
:104AC000010E061906E1075104E1010E07D9EF6E48
:104AD00004D0020E03D9EF6E000C180EE96E0C0E16
:104AE000EA6EEE500001AD1928E1EE50AE1925E155
:104AF000EE50AF1922E1EE50B0191FE11EE1F7C0F0
:104B0000E9FFF8C0EAFF08CCEEFF09CCEEFF0ACCC3
:104B1000EEFF0BCCEEFF0CCCEEFF0DCCEEFFF7C0A2
:104B2000E9FFF8C0EAFFE4D80ECCEEFF0FCCEEFFB1
:104B300010CCEEFF11CCEEFF010C000C0F01010EAA
:104B40002B6F43EC10F00C011C6FFF0E1C5D01E19C
:104B5000000C0F01396B3A6B1CCC38FFBFEC11F025
:104B6000010E0C01006F016B026B080E036F060E45
:104B7000046F040E056F0001FD050BE1010E0C0131
:104B8000066F076B1269136914691569166917694D
:104B900014D0020E0C01066F076BFBC0E9FFFCC0CE
:104BA000EAFFEECF12FCEECF13FCEECF14FCEECFFB
:104BB00015FCEECF16FCEFCF17FCB1C008FCB2C05D
:104BC00009FCB3C00AFCB4C00BFCB5C00CFCB6C0F9
:104BD0000DFCADC00EFCAEC00FFCAFC010FCB0C0F1
:104BE00011FC76D80E51EE18006E0F51EE18016EC2
:104BF0001051EE18026E1151EE18036E0001B751FC
:104C00000016B8510116B9510216BA5103160050D8
:104C100001100210031009E0BBC018FCBCC019FC55
:104C2000BDC01AFCBEC01BFC09D052D8EECF18FC88
:104C3000EECF19FCEECF1AFCEFCF1BFC0001000EEB
:104C4000FE6F0C0EFF6F1CD81C0E0F01346F356BFE
:104C50000F01060E336F0F01120E316F0C0E326F03
:104C600057EC11F01C0E0F014C6F4D6B0F01000E35
:104C70004A6F0C0E4B6FACEC12F08BEC11F0010C88
:104C800032D81AD8F3CFEEFF01C0EDFF2CD8020EB8
:104C9000E926000EEA2210D8020EF3CFEBFF030E36
:104CA00001C0EBFF20D824D807D8060EF3CFEBFFC6
:104CB000070E01C0EBFF1200EECF81F2EDCF82F2C2
:104CC00099EC2FF0F3CF00F0F4CF01F073EF26F062
:104CD000FBC0E9FFFCC0EAFF78EF26F0F9C0E9FF6E
:104CE000FAC0EAFF1200FEC0E9FFFFC0EAFF1200AF
:0A4CF000060EE926000EEA2212006B
:064CFA000A0EE66EE66AF8
:104D0000E668010EE66E0C0EE66E4EEC28F0006EC4
:104D1000050EE15E00500AD9010E5B6F0C0E5C6F50
:104D20000E012C0E596F0B0E5A6FC5EC1AF00C01C8
:104D3000006FFF0E005D01E1120000CC58FEFDD8AF
:104D4000FCE00C010B6B0B51FFD805E20B51E5D8D1
:104D50000C010B2BF8D7FFD80C010B6B0C010B517E
:104D6000C4D80C010B51CDD80C010B2B060E0B5DDA
:104D700004E00E012D0EF9D8F1D70E010D0EB2D8B8
:104D80000A0EB0D8440EAED8480EACD8430EAAD8FE
:104D9000500EA8D82F0EA6D8500EA4D86F0EA2D8A9
:104DA000770EDFD8720E9ED8200EDBD8760ED9D8BB
:104DB0006E0E98D8740E96D8200E94D86F0E92D896
:104DC000630E90D8630E8ED8750E8CD8720E8AD86A
:104DD000720EC7D8640EC9D874EC1BF000CC5FFE0D
:104DE00013EF1BF00201A551030A01E17AD0010A79
:104DF00030E0030A16E0010A01E0120097D85B6B6D
:104E00005C6B0E015F0E596F760E5A6FC5EC1AF08F
:104E10000201A26FFF0EA25D01E112000201A52BAB
:104E20001200A2C261FEDAEC1BF0000901E11200DF
:104E30000E01000E626F0C0E636FE4EC1BF005ECCC
:104E40001CF0440E0C01005D01E012000201A52BD4
:104E50001200A2C258FE71D801E112000C01006BD1
:104E6000005172D805E2005158D80C01002BF8D738
:104E700072D80C01006B0C01005137D80C010051A5
:104E800040D80C01002B060E005D04E00E012D0E33
:104E90006CD8F1D760D80A0EE66EE66A3E0EE66E72
:104EA000010EE66E0201A251160DF3CFE9FFF4CF19
:104EB000EAFF000EE9260E0EEA22E9CF00F0EACF63
:104EC00001F0E9CFE6FFEACFE6FF00EC28F0026E42
:104ED000060EE15E025074EC1BF00201010EA56F9C
:104EE0001200120042D80E011200EA6AB10FE96EF8
:104EF000000EEA22EFCF7FF27EEC2FF00E01B5EF2D
:104F000027F0EA6AB10FE96E000EEA22EFCF80F2D5
:104F10008CEC2FF00E01B5EF27F0EA6ACE0FE96EA8
:104F2000000EEA22EFCF60FE26EF1BF00E015F0EAF
:104F30005D6F760E5E6F0E0112000F01010E2A6F7B
:104F400021EC10F000091200006E016A0F0E005CE7
:104F5000000E015812000E010D0EC4DF0A0EB5EF4F
:104F600027F0C0DF650E72EF27F0606F26EF1BF0B1
:104F7000D9CFE6FFDACFE6FFFA0EE3CFD9FFFB0E7B
:104F8000E3CFDAFFFC0EE3CFE9FFFD0EE3CFEAFF4C
:104F9000F80EE35003E1F90EE35008E0F80EE306E3
:104FA00002E2F90EE306DE50EE5CF2E0F36EFF0E75
:104FB000E3CFDAFFE552FF0EE3CFD9FFE552F3501E
:104FC0001200FB0EE3CFF6FFFC0EE3CFF7FFFD0E62
:104FD000E3CFF8FFFE0EE3CFE9FFFF0EE3CFEAFFDA
:104FE000F90EE35003E1FA0EE35009E0F90EE3068F
:104FF00002E2FA0EE3060900F550EE5CF1E0120061
:10500000D9CFE6FFDACFE6FFFA0EE3CFD9FFFB0EEA
:10501000E3CFDAFFFC0EE3CFE9FFFD0EE3CFEAFFBB
:10502000E9CFF3FFEACFF4FFF80EE35003E1F90E06
:10503000E35008E0F80EE30602E2F90EE306DECFE5
:10504000EEFFF2D7FF0EE3CFDAFFE552FF0EE3CF1C
:10505000D9FFE5521200FB0EE3CFF6FFFC0EE3CFC3
:10506000F7FFFD0EE3CFF8FFFE0EE3CFE9FFFF0EE3
:10507000E3CFEAFFE9CFF3FFEACFF4FFF90EE35005
:1050800003E1FA0EE35009E0F90EE30602E2FA0E3C
:10509000E3060900F5CFEEFFF1D71200FE0EE3CFD5
:1050A000E9FFFF0EE3CFEAFFE9CFF3FFEACFF4FF1A
:1050B000FB0EE35003E1FC0EE35009E0FB0EE306B8
:1050C00002E2FC0EE306FD0EE350EE6EF1D7120095
:1050D000D9CFE6FFDACFE6FFFA0EE3CFD9FFFB0E1A
:1050E000E3CFDAFFFC0EE3CFE9FFFD0EE3CFEAFFEB
:1050F000DE50EF5C02E1EE66FBD7F36EFF0EE3CF0E
:10510000DAFFE552FF0EE3CFD9FFE552F35012006C
:10511000FB0EE3CFF6FFFC0EE3CFF7FFFD0EE3CF70
:10512000F8FFFE0EE3CFE9FFFF0EE3CFEAFFE9CF82
:10513000F3FFEACFF4FF0900F5CFEFFFEE66FBD7F0
:105140001200FE0EE3CFE9FFFF0EE3CFEAFFF36AA2
:10515000F46AEE5203E0F34AF42AFBD71200D9CFE7
:10516000E6FFDACFE6FFFA0EE3CFD9FFFB0EE3CF7F
:10517000DAFFFC0EE3CFE9FFFD0EE3CFEAFFE9CF54
:10518000F3FFEACFF4FFF80EE35003E1F90EE3502A
:105190000BE0F80EE30602E2F90EE306DECFEFFFC6
:1051A000EE66F1D7DD52EFD7FF0EE3CFDAFFE5521F
:1051B000FF0EE3CFD9FFE5521200FE0EE3CFE9FF69
:1051C000FF0EE3CFEAFFE9CFF3FFEACFF4FF610E72
:1051D000EF5C05E67B0EEF5C02E7DF0EEF16EE52AA
:0451E000F6E11200E2
:0C51E400140E0F01476F486B0F01020E04
:1051F000456F0C0E466F8AEC12F0F00E0C01021592
:10520000400801E0000C0F0E0215040DF3CFECF185
:10521000F3500F013D6F3E6B0F013B6B3C6BDDECC0
:1052200011F0F3CF00FCF4CF01FC0101EC510F01B0
:10523000366F376BA4EC11F00C010051011101E045
:10524000000C0101020EFC6F0C0EFD6FC5D80101B0
:10525000ED51EE110CE0EDC1E9FFEEC1EAFF12CC19
:10526000EEFF13CCEEFF14CCEEFF15CCEEFFEFC13A
:10527000E9FFF0C1EAFF060EE926000EEA220ECC95
:10528000EEFF0FCCEEFF10CCEEFF11CCEEFFF1C124
:10529000E9FFF2C1EAFF0BCCEFFFEC51026E036AAB
:1052A0000C010250045D006E03500559016EF3C1FC
:1052B000E9FFF4C1EAFF00C0EEFF01C0EDFF010C01
:1052C0000101140EEC6F0C01450EAB6FAC6B140EAC
:1052D0000101F8250C01AD6F000E0101F9210C014F
:1052E000AE6F0F015E2B000E5F235ECFAFFC5FCF72
:1052F000B0FC0C01B16BB26B640EB36FF7C1B4FCC0
:10530000B56BB66BADC0B7FCAEC0B8FCAFC0B9FCF6
:10531000B0C0BAFCF5C1E9FFF6C1EAFF060EE92606
:10532000000EEA22EECFBBFCEECFBCFCEECFBDFC04
:10533000EFCFBEFC0101AB0EFC6F0C0EFD6F4CD825
:10534000140E0101F8250F01346F000E0101F9213F
:105350000F01356F0F01336BF5C1E9FFF6C1EAFFAD
:10536000F5C131FFF6C132FF57EC11F0140E0F01F9
:105370004C6F4D6B0F01AB0E4A6F0C0E4B6FACECCC
:1053800012F0140E0F01416F426B0F013F6B406B27
:105390001AEC12F0F3CFB5FCF4CFB6FC0A0E43D8EA
:1053A000020E0F014C6F4D6B0F01B50E4A6F0C0EC4
:1053B0004B6FACEC12F0140E36D8F36AF46A12009C
:1053C0000101EC51FA250F01366F000E0101FB219E
:1053D0000F01376FA4EF11F031D8020E15D8020E6D
:1053E000F3CFEBFF030E26D8040E0ED8040EF3CF36
:1053F000EBFF050E1FD80A0E07D80A0EF3CFEBFFFE
:105400000B0E01C0EBFF1200E926000EEA22EECFE0
:1054100081F2EDCF82F299EC2FF0F3CF00F0F4CFD0
:1054200001F01EEF2AF00F01396F3A6B23CF38FFDE
:10543000BFEF11F001C0EBFF1EEF2AF0FCC1E9FF46
:06544000FDC1EAFF1200AD
:0A5446004E65772049502041646450
:10545000726573733A20000D0A00494E4445582E78
:1054600043474900434F4E4649472E434749004969
:105470004E4445582E43474900667470006D696379
:10548000726F63686970000D0A0D0A0D4D696372D1
:105490006F63686970205443502F495020436F6EEA
:1054A000666967204170706C69636174696F6E2012
:1054B0002876332E37352C20417567203134203241
:1054C000303036290D0A0D0A09313A204368616EE1
:1054D000676520426F6172642073657269616C2038
:1054E0006E756D6265722E0D0A09323A204368614D
:1054F0006E676520426F61726420486F7374204E3E
:10550000616D652E0D0A09333A204368616E676547
:105510002064656661756C74204950206164647212
:105520006573732E0D0A09343A204368616E67650E
:105530002064656661756C74206761746577617954
:1055400020616464726573732E0D0A09353A204335
:1055500068616E67652064656661756C742073753B
:10556000626E6574206D61736B2E0D0A09363A20E8
:105570004368616E67652064656661756C7420447C
:105580004E53207365727665722061646472657330
:10559000732E0D0A09373A20456E61626C6520440E
:1055A000484350202620495020476C65616E696E43
:1055B000672E0D0A09383A2044697361626C6520D0
:1055C00044484350202620495020476C65616E694D
:1055D0006E672E0D0A09393A20446F776E6C6F6141
:1055E00064204D50465320696D6167652E0D0A0990
:1055F000303A2053617665202620517569742E0D4E
:105600000A0D0A456E7465722061206D656E752005
:1056100063686F6963652028312D30293A20000DB9
:105620000A496E76616C696420696E7075742072C7
:1056300065636569766564202D20496E70757420F8
:1056400069676E6F7265642E0D0A50726573732000
:10565000616E79206B657920746F20636F6E746959
:095660006E75652E2E2E0D0A0058
:015669000040
:06566A00FF0EE3CFEAFF92
:10567000E552FF0EE3CFE9FFE552E66AE66AD9CFCD
:10568000E6FFDACFE6FFFC0EE124D96EFF0EE22042
:10569000DA6EE66AE66AE66A200EEF5C06E0090E5C
:1056A000EF5C03E0EF6603D03FD0EE50F5D72D0E50
:1056B000EF5C03E1FF0EE32A03D02B0EEF5C01E168
:1056C000EE502F0EEF6424D03A0EEF6021D0D89028
:1056D000F90EE336FA0EE336FD0EDECFE3FFFE0EE3
:1056E000DDCFE3FFD890F90EE336FA0EE336D8901B
:1056F000F90EE336FA0EE336FD0EE350DE26FE0E1B
:10570000E350DD22300EEE5CDE26000EDD22D9D71E
:10571000FF0EE3CFE8FFE85207E0F90EE31EE32AAD
:10572000FA0ED8B4E306E31EE552E552E552FF0E49
:10573000E3CFDAFFE552FF0EE3CFD9FFE552E1CF29
:10574000E9FFE2CFEAFFED52ED52EECFF3FFEFCFEC
:10575000F4FF1200D9CFE6FFDACFE6FFFA0EE3CF6F
:10576000D9FFFB0EE3CFDAFFFD0EE35209E72D0E62
:10577000DE6EFC0EE31EE32AFD0ED8B4E306E31E44
:10578000E652E652E652FD0EE124E76EFF0EE220FD
:10579000E46EE652F70EE3CFE6FFF70EE3CFE6FF47
:1057A0001AEC2CF0F90EE124E96EFF0EE220EA6E0D
:1057B0000AEC2CF00AE107EC2CF009E10AEC2CF0E1
:1057C00008E107EC2CF007E108D015EC2CF010EC08
:1057D0002CF015EC2CF010EC2CF015EC2CF0DE6A13
:1057E000F90EE126FF0EE222FF0EE3CFDAFFE552CB
:1057F000FF0EE3CFD9FFE552FC0EE124E96EFF0E68
:10580000E220EA6EEECFF3FFEFCFF4FF1200EF38A5
:105810000F0B1200EF500F0B02E1EE52D884120072
:10582000EF380F0B300FDE6E1200EE500F0B300F03
:10583000DE6E1200FC0EE3CFE9FFFD0EE3CFEAFFC0
:10584000100EE66EEE6AEE6AEF6AD890FD0EE33651
:10585000FE0EE336ED36ED36EF36FF0EE30609E0D9
:105860003BEC2CF0EE523BEC2CF0EE523BEC2CF0EF
:10587000EDD7E56E1200030EEF24E8B6EF6E300EA2
:08588000EF24E8BEEF6E000CFE
:0858880001013D6B0001C38327
:1058900062EC0FF013EC32F0B9EC1AF052EF00F0BA
:1058A0000C01476B01013D51040A01E1CCD0070A0C
:1058B00001E199D0050A01E183D0010A6EE0050AF1
:1058C0003BE0070A33E0050A03E0010A01E0DCD00F
:1058D0000F01460E2F6F0C0E306F0F013E0E2D6F15
:1058E000010E2E6FCCEC10F0000911E10001C3A1F4
:1058F000CBD018EC10F0000901E0C6D00001AD6B70
:10590000AE6BAF6BB06BC3831FEC17F0BDD00C0157
:10591000010E476F465103E10101020E38D0060E19
:10592000465D01E08DD00101050E31D020EC32F052
:10593000000901E1A9D0A6D00101480EF36F010EC4
:10594000F46F0101460EF16F0C0EF26F01013E0E75
:10595000EF6F010EF06F0101420EED6F0C0EEE6F56
:10596000F2EC28F0000916E00C01010E476F460525
:1059700003E10101030E0BD0060E465D03E10101B8
:10598000060E05D0110E465D04E10101070E3D6FC4
:105990007BD0476B6CEC10F075D048C168FE49C1F4
:1059A00069FE0E01420E666F0C0E676F0E013E0E11
:1059B000646F010E656F0FEC1CF0000965E062D0AA
:1059C00048C11AF149C11BF10101420E186F0C0EBA
:1059D000196F01013E0E166F010E176F37EC04F0C0
:1059E000000952E04FD03D6B280ED8804855000E7C
:1059F000495526E302016C0E5E6F010E5F6F0201D6
:105A00006A0E5C6F010E5D6F0201480E5A6F010E47
:105A10005B6F02014A0E586F010E596F0201460E6C
:105A2000566F0C0E576F60EC2EF0000909E0080E5F
:105A30000C01465D05E1010E476F0101040E3D6F4B
:105A40006CEC10F021D00F01010E2A6F21EC10F048
:105A500000091AE06CC168F26DC169F26AC166F2B0
:105A60006BC167F248C165F202014A0E636F010E15
:105A7000646F0201626B02013E0E606F010E616F86
:105A8000B2EC2EF001013D6B0C01475101E008D74B
:105A900014EC03F031EC17F00201A0A102D00001D8
:045AA000C39312009A
