:020000040000FA
:06000000F7EF43F01200CF
:060008008CEF0FF0120066
:06002A000A009A880000A4
:10003000C80200000100000096880000C102000014
:1000400004000000A3690000C702000001000000D6
:1000500072880000C8010000240000006E880000C3
:10006000BD020000040000006C8800005E0F00006C
:100070000200000022880000AD0000004A000000DD
:10008000C3780000C60200000100000020880000C4
:10009000FE010000020000001C880000F0070000C4
:0400A0000400000058
:0C00A4000C01006B060E005D71E20051C3
:1000B000280DF3CF01FCF4CF02FC000E0127070E40
:1000C000022301CCE9FF02CCEAFF0A0EEF6E01CC5D
:1000D000E9FF02CCEAFF270EE926000EEA22EF90A4
:1000E00001CCE9FF02CCEAFF270EE926000EEA2246
:1000F000EF8201CCE9FF02CCEAFF270EE926000ED1
:10010000EA22EF8401CCE9FF02CCEAFF270EE926C0
:10011000000EEA22EF9801CCE9FF02CCEAFF270E9D
:10012000E926000EEA22EF9601CCE9FF02CCEAFFB5
:100130000F0EEB50FF0813E001CCE9FF02CCEAFF01
:100140000F0EEB500F012C6F84EC22F001CCE9FF75
:1001500002CCEAFF0F0EE926000EEA22EF6801CC7E
:10016000E9FF02CCEAFF230EE926000EEA222C0E5C
:10017000EE6E010EEE6EEE6AEE6A01CCE9FF02CC85
:10018000EAFF100EEB6A110EEB6A0C01002B8CD704
:1001900012000C01006B060E005D70E20051280D8C
:1001A000F3CF01FCF4CF02FC000E0127070E02235F
:1001B00001CCE9FF02CCEAFFEF500A085DE101CC77
:1001C000E9FF02CCEAFFEF6A01CCE9FF02CCEAFFCB
:1001D0000B0E00C1EBFF0C0E01C1EBFF01CCE9FFE0
:1001E00002CCEAFF0D0EEB6A0E0EEB6A01CCE9FFC2
:1001F00002CCEAFFEE52060EE926000EEA22EE6A73
:10020000EE6AEE6AEE6A01CCE9FF02CCEAFF270E45
:10021000E926000EEA22EF8001CCE9FF02CCEAFFDA
:10022000270EE926000EEA22EF9601CCE9FF02CC68
:10023000EAFF0F0EEB50FF0813E001CCE9FF02CC00
:10024000EAFF0F0EEB500F012C6F84EC22F001CC73
:10025000E9FF02CCEAFF0F0EE926000EEA22EF6862
:1002600001CCE9FF02CCEAFF270EE926000EEA22C4
:10027000EF820C0100511200002B8DD7FE0C0C01F7
:100280000A6B076B060E075D16E20751280DF3CFC8
:1002900008FCF4CF09FC000E0827070E092308CC40
:1002A000E9FF09CCEAFFEF500A0803E1010E0A6FEB
:1002B00002D0072BE7D70A5101E1FE0C0101FE2B0A
:1002C000000EFF2308CCE9FF09CCEAFF0B0EFEC1AC
:1002D000EBFF0C0EFFC1EBFF880EFE5D130EFF5906
:1002E00003E3FE69030EFF6F08CCE9FF09CCEAFFC8
:1002F000270EE926000EEA22EF9008CCE9FF09CC90
:10030000EAFF0D0E04C1EBFF0E0E05C1EBFF08CC9A
:10031000E9FF09CCEAFF160EE926000EEA22EE2AD2
:10032000EE22EE22EE2208CCE9FF09CCEAFF1A0EFB
:10033000E926000EEA22EE6AEE6AEE6AEE6A0A0E1C
:10034000E66EE66A02C1E6FF03C1E6FF08CCE9FFFC
:1003500009CCEAFFEE52E9CF00F0EACF01F0E9CF95
:10036000E6FFEACFE6FF95EC36F0026E060EE15EA0
:1003700001012C6B2D6B01012B690101020E2A6F0B
:1003800008CCE9FF09CCEAFF1A0EE926000EEA22A2
:10039000EECF26F1EECF27F1EECF28F1EFCF29F106
:1003A00008CCE9FF09CCEAFF160EE926000EEA2286
:1003B000EECF22F1EECF23F1EECF24F1EFCF25F1F6
:1003C00008CCE9FF09CCEAFF0D0EE926000EEA226F
:1003D000EECF20F1EDCF21F108CCE9FF09CCEAFF07
:1003E0000B0EE926000EEA22EECF1EF1EDCF1FF133
:1003F00008CCE9FF09CCEAFFEE52E9CF1CF1EACFC5
:100400001DF183EC07F008CCE9FF09CCEAFF010EEF
:10041000EF6E08CCE9FF09CCEAFF160EE926000EC4
:10042000EA22EE2AEE22EE22EE22D0EC43F015C0B4
:1004300001F016C002F017C003F008CCE9FF09CCA8
:10044000EAFF1F0EE926000EEA2214C0EEFF01C0EB
:10045000EEFF02C0EEFF03C0EEFF0C0107511200D9
:1004600001010651280DF3CFE9FFF4CFEAFF000E9A
:10047000E926070EEA22EF50030801E0000C010C08
:1004800001010751280DF3CFBFFCF4CFC0FC000ED3
:100490000C01BF27070EC023BFCCE9FFC0CCEAFF89
:1004A000EF5003080DE0BFCCE9FFC0CCEAFFEF50EE
:1004B000020806E0BFCC34F1C0CC35F169EF0AF098
:1004C00007C10CF1BED901012C6B2D6B01012B6909
:1004D0000101110E2A6FBFCCE9FFC0CCEAFF1A0E52
:1004E000E926000EEA22EECF26F1EECF27F1EECF7D
:1004F00028F1EFCF29F1BFCCE9FFC0CCEAFF160EFF
:10050000E926000EEA22EECF22F1EECF23F1EECF64
:1005100024F1EFCF25F1BFCCE9FFC0CCEAFF0D0EEF
:10052000E926000EEA22EECF20F1EDCF21F1BFCC7B
:10053000E9FFC0CCEAFF0B0EE926000EEA22EECF5F
:100540001EF1EDCF1FF1BFCCE9FFC0CCEAFFEE52A8
:10055000E9CF1CF1EACF1DF183EC07F0BFCCE9FF36
:10056000C0CCEAFF160EE926000EEA22EE2AEE22A1
:10057000EE22EE22BFCCE9FFC0CCEAFF040EEF6E04
:10058000120001010851280DF3CFC8FCF4CFC9FCBB
:10059000000E0C01C827070EC923C8CCE9FFC9CC3F
:1005A000EAFF0F0EEB50FF0801E1000CC8CCE9FF99
:1005B000C9CCEAFF270EE926000EEA22EF50020B13
:1005C00001E1000CC8CCE9FFC9CCEAFF100EE92616
:1005D000000EEA22EECF2CF1EDCF2DF1C8CCE9FFD1
:1005E000C9CCEAFF0F0EEB5001012B6F0101180E71
:1005F0002A6F1A0EE926000EEA22EECF26F1EECF80
:1006000027F1EECF28F1EFCF29F1C8CCE9FFC9CC13
:10061000EAFF160EE926000EEA22EECF22F1EECF17
:1006200023F1EECF24F1EFCF25F1C8CCE9FFC9CCFF
:10063000EAFF0D0EE926000EEA22EECF20F1EDCF03
:1006400021F1C8CCE9FFC9CCEAFF0B0EE926000E68
:10065000EA22EECF1EF1EDCF1FF1C8CCE9FFC9CCE5
:10066000EAFFEE52E9CF1CF1EACF1DF183EC07F06F
:10067000C8CCE9FFC9CCEAFF100EE926000EEA2239
:10068000EECF00F0EFCF01F0026A036AC8CCE9FFB9
:10069000C9CCEAFF160EE926000EEA220050EE262B
:1006A0000150EE220250EE220350EE22C8CCE9FFA8
:1006B000C9CCEAFF270EE926000EEA22EF92C8CC49
:1006C000E9FFC9CCEAFF270EE926000EEA22EF98DF
:1006D000010C01010951280DF3CFE9FFF4CFEAFF26
:1006E000000EE926070EEA22140EE926000EEA2281
:1006F000EE50ED1001E1000C0951280DF3CFE9FF98
:10070000F4CFEAFF000EE926070EEA220F0EE926D3
:10071000000EEA22EF50FF0804E10F012A6B13EFED
:1007200022F00951280DF3CFE9FFF4CFEAFF000EC4
:10073000E926070EEA22270EE926000EEA22EF50EC
:10074000020B01E0010E120001010A51280DF3CF46
:10075000C6FCF4CFC7FC000E0C01C627070EC7234A
:10076000C6CCE9FFC7CCEAFF140EE926000EEA2248
:10077000EE50ED1001E1000CC6CCE9FFC7CCEAFF5A
:100780000F0EEB50FF082FE10F012B6B41EC22F015
:10079000E66EC6CCE9FFC7CCEAFF0F0EE926000ED5
:1007A000EA22E552E750EF6EC6CCE9FFC7CCEAFF7C
:1007B0000F0EEB50FF0801E1000CC6CCE9FFC7CCDF
:1007C000EAFF100EEB6A110EEB6A280E0F01396F6B
:1007D0003A6BC6CCE9FFC7CCEAFF0F0EEB500F0116
:1007E000386F52EC24F0C6CCE9FFC7CCEAFF270EE5
:1007F000E926000EEA22EF880BC149FF9BEC25F0A9
:10080000C6CCE9FFC7CCEAFF140EE926000EEA22A7
:10081000EE06EF5AC6CCE9FFC7CCEAFF100EE92678
:10082000000EEA22EE2AED22EECF00F0EDCF01F02D
:100830000A0E005C020E015803E30AC108F1A1DEB2
:10084000010C01010C51280DF3CF85FCF4CF86FC7F
:10085000000E0C018527070E862385CCE9FF86CC88
:10086000EAFF270EE926000EEA22EF50080B01E10D
:10087000000C9AEC22F085CCE9FF86CCEAFF270E2B
:10088000E926000EEA22EF96010C01010D51280D18
:10089000F3CF00FCF4CF01FC000E0C010027070E83
:1008A000012300CCE9FF01CCEAFF270EE926000E68
:1008B000EA22EF50080B2DE000CCE9FF01CCEAFF63
:1008C000270EE926000EEA22EF50040B0FE0140E6B
:1008D0000101FA6FFB6BA2EC38F000CCE9FF01CC10
:1008E000EAFF270EE926000EEA22EF9400CCE9FF8A
:1008F00001CCEAFF270EE926000EEA22EF8810C19C
:1009000047FF11C148FF0EC145FF0FC146FF7CEFF5
:1009100025F0F36AF46A120001011251280DF3CF99
:1009200085FCF4CF86FC000E0C018527070E86237C
:1009300085CCE9FF86CCEAFF270EE926000EEA22E5
:10094000EF50080B43E085CCE9FF86CCEAFF270E89
:10095000E926000EEA22EF50040B0FE0140E01010D
:10096000FA6FFB6BA2EC38F085CCE9FF86CCEAFF8E
:10097000270EE926000EEA22EF9485CCE9FF86CC0B
:10098000EAFF120EE926000EEA22EE50ED100CE10D
:100990009AEC22F085CCE9FF86CCEAFF270EE92607
:1009A000000EEA22EF96000C85CCE9FF86CCEAFF28
:1009B000120EE926000EEA22EE06EF5A79EC25F037
:1009C00013C1E9FF14C1EAFFEF6E010C000C010135
:1009D0001551280DF3CFE9FFF4CFEAFF000EE92609
:1009E000070EEA22270EE926000EEA22EF50080B36
:1009F00001E0010E12000C010F6B006B060E005D92
:100A000001E3C9D10051280DF3CF09FCF4CF0AFC52
:100A1000000E0927070E0A2309CCE9FF0ACCEAFFDA
:100A2000270EE926000EEA22EF50080B01E0B0D1B4
:100A300009CCE9FF0ACCEAFF270EE926000EEA22DC
:100A4000EF50100B01E0A4D109CCE9FF0ACCEAFF7A
:100A5000EF500A0801E19CD109CCE9FF0ACCEAFF7A
:100A6000EF5000090CE109CCE9FF0ACCEAFF270EA0
:100A7000E926000EEA22EF50010B01E089D1D0EC0B
:100A800043F014C005FC15C006FC16C007FC17C0D7
:100A900008FC09CCE9FF0ACCEAFF1F0EE926000E8C
:100AA000EA22EE500C01145C016FEE501558026FF3
:100AB000EE501658036FEE501758046F09CCE9FF3B
:100AC0000ACCEAFF230EE926000EEA220151EE5C71
:100AD0000251EE580351EE580451EE5801E358D13B
:100AE0000F01010E2A6F13EC22F0000901E1120040
:100AF000D0EC43F014C000F015C001F016C002F0B5
:100B000017C003F009CCE9FF0ACCEAFF1F0EE92663
:100B1000000EEA2214C0EEFF01C0EEFF02C0EEFF9D
:100B200003C0EEFF09CCE9FF0ACCEAFF230EE92659
:100B3000000EEA22D890EF36010EEB36020EEB36AD
:100B4000030EEB3609CCE9FF0ACCEAFF1E0EE926BC
:100B5000000EEA22EF2A09CCE9FF0ACCEAFFEF50A7
:100B6000090A01E198D0010A01E18BD00F0A01E1E5
:100B70009ED0020A01E19BD0030A01E198D0020A4B
:100B800001E176D0070A2DE0010A06E0030A01E040
:100B900094D00C01020E89D009CCE9FF0ACCEAFFFF
:100BA0001E0EEB50030803E30C01120E7ED009CC9D
:100BB000E9FF0ACCEAFF270EE926000EEA22EF50F1
:100BC000010B06E009CCE9FF0ACCEAFFEF6A75D019
:100BD0000C01020E0F6F09CCE9FF0ACCEAFF010EEF
:100BE00058D009CCE9FF0ACCEAFF1E0EEB500308EF
:100BF0001BE309CCE9FF0ACCEAFF0F0EEB50FF081C
:100C000010E00F01396B3A6B09CCE9FF0ACCEAFF1F
:100C10000F0EEB500F01386F52EC24F0EAEC23F08A
:100C20004CD00C01100E41D009CCE9FF0ACCEAFFF0
:100C30000F0EEB50FF0813E009CCE9FF0ACCEAFFE6
:100C40000F0EEB500F012C6F84EC22F009CCE9FF62
:100C50000ACCEAFF0F0EE926000EEA22EF680C012B
:100C6000110E0F6F09CCE9FF0ACCEAFF040E11D078
:100C700009CCE9FF0ACCEAFF1E0EEB50030817E38C
:100C800012D00C01010E0F6F09CCE9FF0ACCEAFF6C
:100C9000090EEF6E12D009CCE9FF0ACCEAFF1E0E56
:100CA000EB50030804E30C01010E0F6F06D009CCD2
:100CB00034F10ACC35F169EC0AF00C010F5168E00F
:100CC0000FA911D009CCE9FF0ACCEAFF160EE926DC
:100CD000000EEA22EECF0BFCEECF0CFCEECF0DFCAB
:100CE000EFCF0EFC14D009CCE9FF0ACCEAFF160EB8
:100CF000E926000EEA22EFCF0BFCEE2AEFCF0CFC28
:100D0000EE22EFCF0DFCEE22EFCF0EFCEF22010121
:100D10002C6B2D6B01012B690FCC2AF109CCE9FF5B
:100D20000ACCEAFF1A0EE926000EEA22EECF26F1DF
:100D3000EECF27F1EECF28F1EFCF29F10BCC22F146
:100D40000CCC23F10DCC24F10ECC25F109CCE9FF1C
:100D50000ACCEAFF0D0EE926000EEA22EECF20F1C2
:100D6000EDCF21F109CCE9FF0ACCEAFF0B0EE92611
:100D7000000EEA22EECF1EF1EDCF1FF109CCE9FF04
:100D80000ACCEAFFEE52E9CF1CF1EACF1DF1BBD845
:100D90000C01002B33D6120016C1E9FF17C1EAFF80
:100DA000060EE926000EEA22EECF14FCEECF15FC6B
:100DB000EECF16FCEFCF17FC18C1E9FF19C1EAFF0F
:100DC000EECF18FCEECF19FCEECF1AFCEFCF1BFCD8
:100DD0000C011C6B060E1D6F1AC11EFC1BC11FFCF3
:100DE0001AC1A4F21BC1A5F2B7EC3EF0F3CF1EFC72
:100DF000F4CF1FFC0C0E0201AC6FAD6B0201140EA0
:100E0000AA6F0C0EAB6F17EC3FF0F3CF21FCF4CFC1
:100E100022FC0C01211F221F1AC143FF1BC144FFEA
:100E200010EC25F0F3CF23FCF4CF24FC0C01F4509C
:100E3000215D66E12351225D63E10101FA6BFB6BE9
:100E4000A2EC38F0140E0F01476F486B0F01000E33
:100E5000456F0C0E466F7CEC25F00101000E326FE1
:100E60000C0E336F5BDA0C010C51F00BE842E842D8
:100E7000E842E842040DF350006E016A140E005E71
:100E8000000E015A00C025FC0050006E016AE850B7
:100E900001011A5D1A6F01501B591B6F140E1A5F66
:100EA000000E1B5B0C010C51F00BE842E842E842DB
:100EB000E842040DF3500101FA6FFB6BA2EC38F02D
:100EC00016C130F117C131F10101000E2E6F0C0E69
:100ED0002F6F33D90C01206FFE0E205D11E01AC177
:100EE0003BF11BC13CF10101000E396F0C0E3A6F52
:100EF00016C137F117C138F120CC36F170DB010C87
:100F00009AEC22F0010C0F01010E2A6F13EC22F073
:100F10000009F9E0FF0E01012B5D07E10F01010E51
:100F20002B6F41EC22F001012B6FFF0E2B5D01E1D5
:100F30001200140E0F01396F3A6B2BC138FF52ECBF
:100F400024F01EC187FC1FC188FC20C189FC21C17F
:100F50008AFC22C18BFC23C18CFC24C18DFC25C1E1
:100F60008EFC26C18FFC27C190FC28C191FC29C1B1
:100F700092FC0C0193919393939593972AC194FCBF
:100F8000C5EC22F0F3CF95FCF4CF96FC0C01400E9B
:100F9000F35C020EF45805E3400E956F020E966F57
:100FA0000DD0360ED8809555000E965505E2360EBA
:100FB000955F000E965B02D0956B966B976B986B66
:100FC000996B9A6B0101870E326F0C0E336FA6D9A5
:100FD000140E01012C27000E2D232AA310D0040E7D
:100FE0002C27000E2D230C01020E9B6F040E9C6F0C
:100FF000020E9D6F400E9E6F9399938B03D00C0150
:101000009389939B938D939FADC09FFCAEC0A0FC32
:10101000AFC0A1FCB0C0A2FC1CC1E9FF1DC1EAFF2A
:10102000060EE926000EEA22EECFA3FCEECFA4FCCA
:10103000EECFA5FCEFCFA6FCA76B060EA86F2CC1C8
:10104000A9FC2DC1AAFC2CC1A4F22DC1A5F2B7ECBC
:101050003EF0F3CFA9FCF4CFAAFC0C0E0201AC6F5A
:10106000AD6B02019F0EAA6F0C0EAB6F17EC3FF039
:10107000F3CF97FCF4CF98FC0C01971F981F97CCE7
:1010800085FC98CC86FC2CC1F8F12DC1F9F1010149
:10109000060EF76F1CC1F5F11DC1F6F116EC38F024
:1010A000140E0F014C6F4D6B0F01870E4A6F0C0E23
:1010B0004B6F9EEC25F001012AA30BD0040E0F010B
:1010C0004C6F4D6B0F019B0E4A6F0C0E4B6F9EECDD
:1010D00025F0140E0F01396F3A6B2BC138FF52EC1B
:1010E00024F02CC143FF2DC144FF10EC25F0F3CFB9
:1010F00085FCF4CF86FC240E0F01396F3A6B2BC1AF
:1011000038FF52EC24F086CC49FF9BEC25F085CCCF
:1011100049FF9BEC25F00F01396B3A6B2BC138FF6F
:1011200052EC24F0EAEC23F00F01010E2A6F13ECCD
:1011300022F00009F9E0EAEF23F00C01FE0E296F1E
:10114000286B060E285D01E37FD02851280DF3CFD0
:1011500026FCF4CF27FC000E2627070E272326CCDB
:10116000E9FF27CCEAFFEF500A086BE026CCE9FF45
:1011700027CCEAFF0B0EE926000EEA22EECF00F0A4
:10118000EFCF01F02EC1E9FF2FC1EAFF020EE926E1
:10119000000EEA22EECF02F0EFCF03F0025000186B
:1011A00050E1035001184DE126CCE9FF27CCEAFFBE
:1011B000EF50000902E128CC29FC26CCE9FF27CC1E
:1011C000EAFF0D0EE926000EEA22EECF00F0EFCF87
:1011D00001F02EC1E9FF2FC1EAFFEECF02F0EFCF01
:1011E00003F0025000182DE1035001182AE130C12C
:1011F000E9FF31C1EAFF060EE926000EEA22EECF32
:1012000004F0EECF05F0EECF06F0EFCF07F026CCDE
:10121000E9FF27CCEAFFEE52060EE926000EEA228D
:10122000EE50000104180DE1EE5005180AE1EE50F1
:10123000061807E1EE50071804E103E10C012851FC
:1012400012000C01282B7DD7FE0E295D01E1FE0C5A
:101250002951280DF3CF26FCF4CF27FC000E2627BA
:10126000070E27230A0EE66EE66A30C1E6FF31C19B
:10127000E6FF26CCE9FF27CCEAFFEE52E9CF00F0EB
:10128000EACF01F0E9CFE6FFEACFE6FF95EC36F0D2
:10129000026E060EE15E02502EC1E9FF2FC1EAFF89
:1012A000EECF00F0EFCF01F026CCE9FF27CCEAFF2C
:1012B0000D0E00C0EBFF0E0E01C0EBFF26CCE9FFC8
:1012C00027CCEAFF270EE926000EEA22EF9626CC6D
:1012D000E9FF27CCEAFF0F0EEB50FF0813E026CC06
:1012E000E9FF27CCEAFF0F0EEB500F012C6F84ECC7
:1012F00022F026CCE9FF27CCEAFF0F0EE926000EEC
:10130000EA22EF6826CCE9FF27CCEAFF270EE92680
:10131000000EEA22EF820C012951120032C1E9FFCE
:1013200033C1EAFFEECFA4F2EDCFA5F2B7EC3EF069
:10133000F3CF00F0F4CF01F032C1E9FF33C1EAFF8F
:10134000F3CFEEFF01C0EDFF32C1E9FF33C1EAFF89
:10135000020EE926000EEA22EECFA4F2EDCFA5F2AE
:10136000B7EC3EF0F3CF00F0F4CF01F032C1E9FF6B
:1013700033C1EAFF020EF3CFEBFF030E01C0EBFF18
:1013800032C1E9FF33C1EAFF040EE926000EEA226A
:10139000EECFA6F2EECFA7F2EECFA8F2EFCFA9F2F2
:1013A000BCEC3EF014C000F015C001F016C002F015
:1013B00017C003F032C1E9FF33C1EAFF040EE9268A
:1013C000000EEA2214C0EEFF01C0EEFF02C0EEFFE5
:1013D00003C0EEFF32C1E9FF33C1EAFF080EE92680
:1013E000000EEA22EECFA6F2EECFA7F2EECFA8F2E1
:1013F000EFCFA9F2BCEC3EF014C000F015C001F034
:1014000016C002F017C003F032C1E9FF33C1EAFF92
:10141000080EE926000EEA2214C0EEFF01C0EEFF1E
:1014200002C0EEFF03C0EEFF32C1E9FF33C1EAFFA5
:101430000E0EE926000EEA22EECFA4F2EDCFA5F2C1
:10144000B7EC3EF0F3CF00F0F4CF01F032C1E9FF8A
:1014500033C1EAFF0E0EF3CFEBFF0F0E01C0EBFF1F
:1014600032C1E9FF33C1EAFF100EE926000EEA227D
:10147000EECFA4F2EDCFA5F2B7EC3EF0F3CF00F043
:10148000F4CF01F032C1E9FF33C1EAFF100EF3CF10
:10149000EBFF110E01C0EBFF32C1E9FF33C1EAFFE0
:1014A000120EE926000EEA22EECFA4F2EDCFA5F24D
:1014B000B7EC3EF0F3CF00F0F4CF01F032C1E9FF1A
:1014C00033C1EAFF120EF3CFEBFF130E01C0EBFFA7
:1014D000120034C1E9FF35C1EAFF0F0EEB50FF08DF
:1014E0001CE034C1E9FF35C1EAFF0F0EEB500F01DC
:1014F0002C6F84EC22F034C1E9FF35C1EAFF0F0EF6
:10150000E926000EEA22EF6834C1E9FF35C1EAFF9F
:10151000270EE926000EEA22EF8234C1E9FF35C129
:10152000EAFFEE52060EE926000EEA22EE6AEE6AA5
:10153000EE6AEE6A34C1E9FF35C1EAFF0D0EEB6ACF
:101540000E0EEB6A34C1E9FF35C1EAFF270EE9262A
:10155000000EEA22EF50080B02E09AEC22F034C1B0
:10156000E9FF35C1EAFF270EE926000EEA22EF96D1
:1015700034C1E9FF35C1EAFF230EE926000EEA2255
:101580002C0EEE6E010EEE6EEE6AEE6A34C1E9FFCD
:1015900035C1EAFF270EE926000EEA22EF9834C192
:1015A000E9FF35C1EAFF270EE926000EEA22EF50D7
:1015B000010B06E034C1E9FF35C1EAFFEF6A06D04E
:1015C00034C1E9FF35C1EAFF0A0EEF6E34C1E9FF0D
:1015D00035C1EAFF100EEB6A110EEB6A1200010131
:1015E0003651280DF3CF36FCF4CF37FC000E0C013A
:1015F0003627070E3723386B36CCE9FF37CCEAFFA6
:101600001E0EE926000EEA22EF6AD0EC43F014C069
:1016100000F015C001F016C002F017C003F036CC80
:10162000E9FF37CCEAFF1F0EE926000EEA2214C0BC
:10163000EEFF01C0EEFF02C0EEFF03C0EEFF36CCAE
:10164000E9FF37CCEAFF230EE926000EEA222C0E32
:10165000EE6E010EEE6EEE6AEE6A39C1E9FF3AC136
:10166000EAFF0D0EE926000EEA22EF50040B19E006
:101670009AEC22F036CCE9FF37CCEAFF270EE926B8
:10168000000EEA22EF50010B02E0000E01D0010E25
:10169000E66E36CCE9FF37CCEAFFE552E750EF6E55
:1016A000120036CCE9FF37CCEAFF160EE926000E11
:1016B000EA22EECF2AFCEECF2BFCEECF2CFCEFCFB4
:1016C0002DFC39C1E9FF3AC1EAFF0E0EE926000EF2
:1016D000EA22EECF04F0EFCF05F0066A076A39C1BF
:1016E000E9FF3AC1EAFF080EE926000EEA22EE50B1
:1016F0000C012A5D086EEE502B59096EEE502C59E4
:101700000A6EEE502D590B6E0850045C006E0950A5
:101710000558016E0A500658026E0B500758036EAA
:1017200036CCE9FF37CCEAFF100EE926000EEA229C
:10173000EECF0CF0EFCF0DF00E6A0F6A0C50005C8C
:10174000266F0D500158276F0E500258286F0F500A
:101750000358296F800E291509E036CCE9FF37CCF4
:10176000EAFF140EEB6A150EEB6A0AD036CCE9FFDD
:1017700037CCEAFF140E26CCEBFF150E27CCEBFF7F
:1017800036CCE9FF37CCEAFFEF50010801E091D0F9
:1017900039C1E9FF3AC1EAFF0D0EE926000EEA223F
:1017A000EF50020B0FE19AEC22F039C1E9FF3AC188
:1017B000EAFF0D0EE926000EEA22EF50100B01E1C0
:1017C000AAD38CD03BC104F03CC105F0066A076A7D
:1017D00039C1E9FF3AC1EAFF040EE926000EEA2208
:1017E000EE500424006EEE500520016EEE500620EF
:1017F000026EEE500720036E002A000E0122022224
:10180000032236CCE9FF37CCEAFF1A0EE926000E98
:10181000EA2200C0EEFF01C0EEFF02C0EEFF03C0EF
:10182000EEFF36CCE9FF37CCEAFF1A0EE926000EB0
:10183000EA22EECF26FCEECF27FCEECF28FCEFCF3E
:1018400029FC39C1E9FF3AC1EAFF0D0EE926000E75
:10185000EA22EF50100B09E136CCE9FF37CCEAFF62
:10186000020EEF6E9AEC22F0D7D036CCE9FF37CCDF
:10187000EAFF030EEF6E100E386F39C1E9FF3AC16F
:10188000EAFF0E0EE926000EEA22EECF00F0EFCFBF
:1018900001F036CCE9FF37CCEAFF140E00C0EBFFB5
:1018A000150E01C0EBFF01013B513C1101E04BD192
:1018B00043D236CCE9FF37CCEAFFEF50000901E014
:1018C000AFD09AEC22F039C1E9FF3AC1EAFF0D0E20
:1018D000E926000EEA22EF50020B03E10C01040E90
:1018E0009DD03BC104F03CC105F0066A076A39C1CE
:1018F000E9FF3AC1EAFF040EE926000EEA22EE50A3
:101900000424006EEE500520016EEE500620026E9B
:10191000EE500720036E002A000E0122022203224D
:1019200036CCE9FF37CCEAFF1A0EE926000EEA2290
:1019300000C0EEFF01C0EEFF02C0EEFF03C0EEFFED
:1019400039C1E9FF3AC1EAFF0E0EE926000EEA228C
:10195000EECF00F0EFCF01F036CCE9FF37CCEAFF55
:10196000140E00C0EBFF150E01C0EBFF0A0EE66E71
:10197000E66A37C1E6FF38C1E6FF36CCE9FF37CC6F
:10198000EAFFEE52E9CF00F0EACF01F0E9CFE6FF3F
:10199000EACFE6FF95EC36F0026E060EE15E0250ED
:1019A00039C1E9FF3AC1EAFFEECF00F0EFCF01F015
:1019B00036CCE9FF37CCEAFF0D0E00C0EBFF0E0E70
:1019C00001C0EBFF36CCE9FF37CCEAFF020EEF6E29
:1019D00036CCE9FF37CCEAFF160EE926000EEA22E4
:1019E000EFCF2AFCEE2AEFCF2BFCEE22EFCF2CFC20
:1019F000EE22EFCF2DFCEF2236CCE9FF37CCEAFF09
:101A00001A0EE926000EEA22EECF26FCEECF27FCC6
:101A1000EECF28FCEFCF29FC0C01120E386F47D215
:101A200036CCE9FF37CCEAFF1A0EE926000EEA228F
:101A3000EECF2EFCEECF2FFCEECF30FCEFCF31FC03
:101A400036CCE9FF37CCEAFF160EE926000EEA2273
:101A5000EECF32FCEECF33FCEECF34FCEFCF35FCD3
:101A600039C1E9FF3AC1EAFF040EE926000EEA2275
:101A7000EECF26FCEECF27FCEECF28FCEFCF29FCE3
:101A800001013B510C01262701013C510C01272388
:101A9000000E2823292336CCE9FF37CCEAFF160EA7
:101AA000E926000EEA22EECF2AFCEECF2BFCEECF89
:101AB0002CFCEFCF2DFC39C1E9FF3AC1EAFF040E3F
:101AC000E926000EEA22EE502E1901E0E3D1EE5095
:101AD0002F1901E0DFD1EE50301901E0DBD1EE50DB
:101AE000311901E0D7D101E0D5D136CCE9FF37CCAF
:101AF000EAFFEF50020844E139C1E9FF3AC1EAFFC9
:101B00000D0EE926000EEA22EF50100B01E114D170
:101B100036CCE9FF37CCEAFF1A0EE926000EEA229E
:101B200026CCEEFF27CCEEFF28CCEEFF29CCEEFF33
:101B300036CCE9FF37CCEAFF030EEF6E01013B51D3
:101B40003C1101E1F9D036CCE9FF37CCEAFF270E92
:101B5000E926000EEA22EF8636CCE9FF37CCEAFF11
:101B6000120E3BC1EBFF130E3CC1EBFF36CCE9FF7D
:101B700037CCEAFF270EE926000EEA22EF8497D140
:101B800036CCE9FF37CCEAFF1A0EE926000EEA222E
:101B900026CCEEFF27CCEEFF28CCEEFF29CCEEFFC3
:101BA00036CCE9FF37CCEAFFEF50030801E0C7D09D
:101BB00039C1E9FF3AC1EAFF0D0EE926000EEA221B
:101BC000EF50100B2FE036CCE9FF37CCEAFF270EA1
:101BD000E926000EEA22EF50020B24E136CCE9FFA1
:101BE00037CCEAFF0F0EEB50FF081CE036CCE9FFC4
:101BF00037CCEAFF0F0EEB500F012C6F84EC22F074
:101C000036CCE9FF37CCEAFF0F0EE926000EEA22B8
:101C1000EF6836CCE9FF37CCEAFF270EE926000E45
:101C2000EA22EF8239C1E9FF3AC1EAFF0D0EE92647
:101C3000000EEA22EF50010B31E00C01110E386F5B
:101C400036CCE9FF37CCEAFF160EE926000EEA2271
:101C5000EFCF2AFCEE2AEFCF2BFCEE22EFCF2CFCAD
:101C6000EE22EFCF2DFCEF2236CCE9FF37CCEAFF96
:101C70001A0EE926000EEA22EF2AEECF26FCEF220A
:101C8000EECF27FCEF22EECF28FCEF22EFCF29FC8E
:101C900036CCE9FF37CCEAFF090EEF6E01013B516C
:101CA0003C114AE036CCE9FF37CCEAFF270EE926A3
:101CB000000EEA22EF50080B1FE136CCE9FF37CCCB
:101CC000EAFF270EE926000EEA22EF8636CCE9FF6E
:101CD00037CCEAFF120E3BC1EBFF130E3CC1EBFF0A
:101CE00036CCE9FF37CCEAFF270EE926000EEA22C0
:101CF000EF840C013889DBD036CCE9FF37CCEAFF22
:101D0000160EE926000EEA2232CCEEFF33CCEEFFAF
:101D100034CCEEFF35CCEEFF36CCE9FF37CCEAFF12
:101D20001A0EE926000EEA222ECCEEFF2FCCEEFF93
:101D300030CCEEFF31CCEEFF9AEC22F0B8D036CCAE
:101D4000E9FF37CCEAFFEF5009080FE19AEC22F0E7
:101D500039C1E9FF3AC1EAFF0D0EE926000EEA2279
:101D6000EF50100B01E1A3D08ED036CCE9FF37CC79
:101D7000EAFFEF50040847E19AEC22F039C1E9FF8D
:101D80003AC1EAFF0D0EE926000EEA22EF50010BE0
:101D900028E00C01100E386F36CCE9FF37CCEAFF93
:101DA0001A0EE926000EEA22EF2AEECF26FCEF22D9
:101DB000EECF27FCEF22EECF28FCEF22EFCF29FC5D
:101DC00039C1E9FF3AC1EAFF0D0EE926000EEA2209
:101DD000EF50100B58E136CCE9FF37CCEAFF060E86
:101DE00010D039C1E9FF3AC1EAFF0D0EE926000E15
:101DF000EA22EF50100B5BE036CCE9FF37CCEAFF6C
:101E0000050EEF6E54D036CCE9FF37CCEAFFEF5029
:101E1000050825E19AEC22F039C1E9FF3AC1EAFF51
:101E20000D0EE926000EEA22EF50010B40E00C01F6
:101E3000100E386F36CCE9FF37CCEAFF1A0EE926D0
:101E4000000EEA22EF2AEECF26FCEF22EECF27FC8F
:101E5000EF22EECF28FCEF22EFCF29FC14D036CCB6
:101E6000E9FF37CCEAFFEF50060821E19AEC22F0B7
:101E700039C1E9FF3AC1EAFF0D0EE926000EEA2258
:101E8000EF50100B14E036CC34F137CC35F169EC5F
:101E90000AF00DD09AEC22F00C01100E386F2ECC07
:101EA00026FC2FCC27FC30CC28FC31CC29FC0C01A3
:101EB000385131E001012C6B2D6B01012B6938CCBD
:101EC0002AF126CC26F127CC27F128CC28F129CCE1
:101ED00029F12ACC22F12BCC23F12CCC24F12DCCCE
:101EE00025F139C1E9FF3AC1EAFFEECF20F1EDCF8C
:101EF00021F139C1E9FF3AC1EAFF020EE926000EDD
:101F0000EA22EECF1EF1EDCF1FF137C11CF138C12F
:081F10001DF183EC07F0120043
:081F1800D8CFE4FFE0CFE4FFA5
:101F2000E46EDACFE4FFE2CFDAFFE9CFE4FFEACFF5
:101F3000E4FFF6CFE4FFF7CFE4FFF5CFE4FFF3CF04
:101F4000E4FFF4CFE4FFFACFE4FF00EE10F00B0E55
:101F5000E80403E3EECFE4FFFBD700EE00F0100E41
:101F6000E80403E3EECFE4FFFBD7E652D9EC43F0FD
:101F7000E55200EE0FF0100EE80403E3E5CFEDFFAD
:101F8000FBD700EE1AF00B0EE80403E3E5CFEDFFFC
:101F9000FBD7E5CFFAFFE5CFF4FFE5CFF3FFE5CFC1
:101FA000F5FFE5CFF7FFE5CFF6FFE5CFEAFFE5CF99
:101FB000E9FFE5CFDAFFE550E5CFE0FFE5CFD8FF59
:101FC0001000E1DBAAEC3FF0110EE66EE7EC43F007
:101FD000E552820E006E690E016E026A00C0E6FFD5
:101FE000E66E02C0E6FF000EE66E020EE66E3EEC06
:101FF00037F0036E050EE15E0350F8EC3FF0C6ECDF
:1020000043F032EC3AF0100EE66EE66A780E006E9F
:10201000690E016E026A00C0E6FFE66E02C0E6FFCE
:10202000CE0EE66E000EE66EC0EC36F0036E070EC6
:10203000E15E03500101CE0E9D6F000E9E6F17EC06
:1020400017F0CBDB81B602D02BEC16F071EC3DF033
:1020500048EC17F046EC2AF00001C3B105D0010EA0
:10206000DE6F0201080EC16FD0EC43F00001DF51BA
:10207000145C006EE0511558016EE1511658026E65
:10208000E2511758036E320E005C000E0158000E2C
:102090000258000E03580BE3D0EC43F014C0DFF0FD
:1020A00015C0E0F016C0E1F017C0E2F088707DECDA
:1020B0003DF074EC17F055EC2AF087EC32F0B5ECFB
:1020C0002FF07FD90001DE510201C45DCDE0C4C212
:1020D000DEF0A00E006E760E016E026A00C05CFF9C
:1020E000E8CF5DFF60EC43F00101AD0E6E6F000EB6
:1020F0006F6F0ED8B10E006E760E016E026A00C0D0
:102100005CFFE8CF5DFF60EC43F080EC31F0ACD7D2
:102110000C01100E066F000EE66E0C0EE66E6EC120
:10212000E9FF6FC1EAFFEF50E66EE66AD7EC3CF0DC
:10213000E552E552E552E5520F01000E5A6F0C0EC2
:102140005B6F4BEC43F00C01056B000EE66E0C0E62
:10215000E66E57EC37F0E552E552F3CF00F0F4CFDE
:1021600001F00C01F350055D000EF45414E205512A
:10217000EA6A000FE96E0C0EEA22EF50E66E065195
:10218000062BEA6A000FE96E020EEA22E552E750DA
:10219000EF6E052BDAD70651062BEA6A000FE96EBF
:1021A000020EEA222E0EEF6E17EC43F00009FCE15E
:1021B0000F012E0E566F2EEC43F0000EE66E0C0E45
:1021C000E66E6EC1E9FF6FC1EAFF010EE926000E5F
:1021D000EA22EF50E66EE66AD7EC3CF0E552E552B3
:1021E000E552E5520F01000E5A6F0C0E5B6F4BEC7F
:1021F00043F00C01056B000EE66E0C0EE66E57EC1C
:1022000037F0E552E552F3CF00F0F4CF01F00C01C6
:10221000F350055D000EF45414E20551EA6A000F14
:10222000E96E0C0EEA22EF50E66E0651062BEA6AC2
:10223000000FE96E020EEA22E552E750EF6E052B21
:10224000DAD70651062BEA6A000FE96E020EEA227F
:102250002E0EEF6E17EC43F00009FCE10F012E0E7D
:10226000566F2EEC43F0000EE66E0C0EE66E6EC15D
:10227000E9FF6FC1EAFF020EE926000EEA22EF50E5
:10228000E66EE66AD7EC3CF0E552E552E552E552DF
:102290000F01000E5A6F0C0E5B6F4BEC43F00C01FC
:1022A000056B000EE66E0C0EE66E57EC37F0E5524D
:1022B000E552F3CF00F0F4CF01F00C01F350055DCF
:1022C000000EF45414E20551EA6A000FE96E0C0E98
:1022D000EA22EF50E66E0651062BEA6A000FE96E1D
:1022E000020EEA22E552E750EF6E052BDAD70651CF
:1022F000062BEA6A000FE96E020EEA222E0EEF6E3E
:1023000017EC43F00009FCE10F012E0E566F2EEC86
:1023100043F0000EE66E0C0EE66E6EC1E9FF6FC173
:10232000EAFF030EE926000EEA22EF50E66EE66AA7
:10233000D7EC3CF0E552E552E552E5520F01000EB4
:102340005A6F0C0E5B6F4BEC43F00C01056B000EEB
:10235000E66E0C0EE66E57EC37F0E552E552F3CF21
:1023600000F0F4CF01F00C01F350055D000EF454C1
:1023700014E20551EA6A000FE96E0C0EEA22EF50F2
:10238000E66E0651062BEA6A000FE96E020EEA229B
:10239000E552E750EF6E052BDAD7200E065D0AE214
:1023A0000651062BEA6A000FE96E020EEA22200EA1
:1023B000EF6EF3D7F8EC3FF017EC43F00009FCE1C7
:1023C0001200C282C2B2FED7C050F36EC080C0827B
:1023D000E850C06E700EE66E010EE66EC3CFE6FFEB
:1023E000C4CFE6FFD7EC3CF0E552E552E552E552AA
:1023F000120078C1E9FF79C1EAFFEE50EFCFEAFFA2
:10240000E96EEF50D00F0C01856FE850010A1AE019
:10241000010A74E1020E0101EA6A7825E96E795138
:10242000EA22EE50EFCFEAFFE96EEF50D00F0C0139
:10243000866FE850010A04E0010A60E188725ED00C
:1024400088745CD001017A51020856E2040EEA6AEF
:102450007825E96E7951EA22EECFE6FFEFCFE6FF6D
:1024600057EC37F0E552E552F3CF00F0F4CF01F02E
:10247000200EF35C000EF45824E2200EE66EE66AAD
:10248000E66E000EE66E020EE66EE3EC36F0006ECF
:10249000050EE15E0050040E0101EA6A7825E96E3E
:1024A0007951EA22EECFE6FFEFCFE6FF000EE66EAF
:1024B000020EE66E1DEC37F0E552E552E552E552AC
:1024C00018D0200EE66EE66A040E0101EA6A78254D
:1024D000E96E7951EA22EECFE6FFEFCFE6FF000E7C
:1024E000E66E020EE66E95EC36F0006E060EE15ECC
:1024F0000050F8EC3FF002D075EC40F00A0EE66EAA
:10250000E66AB40E006E760E016E026A00C0E6FF47
:10251000E66E02C0E6FF78C1E9FF79C1EAFFEECFBF
:10252000E6FFEFCFE6FFC0EC36F0036E070EE15E8C
:102530000350120001017B51170A01E1B1D0010AD9
:1025400001E176D0190A68E0010A61E0030A5BE064
:10255000090A55E0060A31E0170A2BE0010A25E0D6
:10256000070A1FE0010A19E0030A13E0010A0DE05F
:10257000110A07E0010A01E0CFD08850010B4FE1BA
:1025800049D08850020B46E04AD08850040B42E004
:1025900046D08850080B3EE042D08850100B3AE0FD
:1025A0003ED08850200B36E03AD08850400B32E0C5
:1025B00036D08850800B2EE032D07C51EA6A700F02
:1025C000E96E010EEA22EF507EC1E9FF7FC1EAFF0A
:1025D000EF6E7C51EA6A700FE96E010EEA22EF504D
:1025E00001E19AD07C2B000E7D237C51EA6A700FAA
:1025F000E96E010EEA22EF5001E089D08DD08150C2
:10260000080B08E00CD08150040B04E008D0815086
:10261000020B05E1300E06D08150010B02E0310EB5
:1026200001D0300E7EC1E9FF7FC1EAFFEF6E74D0AA
:102630007C517D1114E1720E006E690E016E026A0A
:1026400000C0E6FFE66E02C0E6FF800EE66E010EF9
:10265000E66E3EEC37F0036E050EE15E03500101BD
:102660007C51EA6A800FE96E010EEA22EF507EC1CA
:10267000E9FF7FC1EAFFEF6E7C51EA6A800FE96EE5
:10268000010EEA22EF5048E07C2B000E7D237C51A6
:10269000EA6A800FE96E010EEA22EF5038E13CD081
:1026A0007C517D1114E15D0E006E690E016E026AAF
:1026B00000C0E6FFE66E02C0E6FF800EE66E010E89
:1026C000E66E3EEC37F0036E050EE15E035001014D
:1026D0007C51EA6A800FE96E010EEA22EF507EC15A
:1026E000E9FF7FC1EAFFEF6E7C51EA6A800FE96E75
:1026F000010EEA22EF5010E07C2B000E7D237C516E
:10270000EA6A800FE96E010EEA22EF5005E07CC113
:10271000F3FF7DC1F4FF1200F368F4681200030EAA
:10272000E66EE66AD30E006E760E016E026A00C097
:10273000E6FFE66E02C0E6FF94C1E6FF95C1E6FF44
:1027400076EC36F0036E070EE15E035000091AE1E5
:10275000090EE66EE66AD70E006E760E016E026A0C
:1027600000C0E6FFE66E02C0E6FF96C1E6FF97C135
:10277000E6FF76EC36F0036E070EE15E03500009CB
:1027800001E1010C000C9A909A929A949A969A9868
:102790009A9A9A9C9A9E889088928894889688980B
:1027A000889A889C889E400E9B6E890EC26E0B0E86
:1027B000C16E2F0E926EBE0EC06EF19E200EAC6EDC
:1027C000900EAB6E200EAF6ED56AF28EF28CC28E7A
:1027D000C282C2B2FED7C29E12000001C3810C01A8
:1027E000AD0E046F000E056F0201356B366B0201F2
:1027F000A00E346F9AEC40F0A4EC40F00C01036F93
:10280000CCEC40F0550E0C01035D25E1010E0201F8
:10281000356F366B0201A00E346F9AEC40F00C015C
:10282000036B0351006E016A310E005C000E01580B
:1028300010E2A4EC40F0E66E0C0104CCE9FF05CCFC
:10284000EAFF042B000E0523E552E750EF6E032B41
:10285000E8D7CCEF40F02DEF14F00C01AD0E016F76
:10286000000E026F02013E6B3F6B0201A00E3D6F36
:10287000F8EC40F00201550E406F02EC41F00C0103
:10288000006B0051006E016A310E005C000E0158B1
:102890000EE201CCE9FF02CCEAFF012B000E02237D
:1028A000EFCF40F202EC41F00C01002BEAD714EF1D
:1028B00041F098C101FC99C102FC0C01036B98C165
:1028C000E9FF99C1EAFFEFCF00FCEF5038E02E0E90
:1028D0000C01005D28E1010198C1E9FF99C1EAFFFF
:1028E000982B000E9923EF6A01CCE6FF02CCE6FF9D
:1028F00062EC3CF0E552E552F350E66E9AC100F00E
:102900009BC101F00C010351032B0F010024E96E60
:10291000000E0120EA6EE552E750EF6E98C101FC0F
:1029200099C102FC07D0300E005D03E30051390865
:1029300001E2000C0101982B000E9923C0D701CCB5
:10294000E6FF02CCE6FF62EC3CF0E552E552F350C4
:10295000E66E9AC100F09BC101F00C0103510F011A
:102960000024E96E000E0120EA6EE552E750EF6E9A
:10297000030E0C01035D01E0000C010C23EC43F09D
:10298000000941E181B6FAD7D0EC43F014C001FC54
:1029900015C002FC16C003FC17C004FC81B6EED7BC
:1029A000D0EC43F00C010151145C006E025115583B
:1029B000016E03511658026E04511758036ED880E9
:1029C000900E0054010E0154000E0254000E0354E8
:1029D000E5E202013E6B3F6B0201A00E3D6FF8EC99
:1029E00040F00201406B02EC41F014EC41F0F40EB7
:1029F000006E670E016E026A00C05CFFE8CF5DFFEB
:102A000060EC43F0BBD72CEC43F00C01006F300EB0
:102A1000005D05E33A0E005D02E2005112003A0C3F
:102A2000B10E006E760E016E026A00C05CFFE8CF48
:102A30005DFF60EC43F0300E01019C5DE96EEA6AD7
:102A4000D890E936EA36E30EE926000EEA22EECF08
:102A500000F0EFCF01F0026A00C05CFF01C05DFF33
:102A600060EC43F001019C51300A01E1F2D0090A07
:102A700001E1EDD0010A01E1E7D00F0A01E1E1D067
:102A8000010A01E193D0030A01E18BD0010A01E1BF
:102A900083D0070A01E17BD0010A41E0030A01E08B
:102AA00012008F0EE66E0C0EE66EC4C0E6FFC5C0C7
:102AB000E6FFD7EC3CF0E552E552E552E5520F0156
:102AC0008F0E5A6F0C0E5B6F4BEC43F0F00E006EE6
:102AD000670E016E026A00C05CFFE8CF5DFF60EC2C
:102AE00043F00F01140E556F0F018F0E536F0C0E34
:102AF000546FF0EC42F0000901E1ACD08F0EE66EAD
:102B00000C0EE66E62EC3CF0E552E552F3CFC4F0F9
:102B1000F4CFC5F0F4CFB5F0F3CFB6F012000F014B
:102B2000CE0E5A6F000E5B6F4BEC43F0F00E006E52
:102B3000670E016E026A00C05CFFE8CF5DFF60ECCB
:102B400043F00F01100E556F0F018F0E536F0C0ED7
:102B5000546FF0EC42F00C018F5101E17BD0100E6C
:102B6000E66EE66A8F0EE66E0C0EE66ECE0EE66E32
:102B7000000EE66E95EC36F0006E060EE15E00503B
:102B80000101CE0E9D6F000E9E6F17EF17F00C0126
:102B9000AD0EA76F000E0ED00C01BB0EA76F000E7E
:102BA00009D00C01B70EA76F000E04D00C01BF0EA8
:102BB000A76F000EA86FA7CC6EF1E8CF6FF188EC7D
:102BC00010F0F00E006E670E016E026A00C05CFF2E
:102BD000E8CF5DFF60EC43F00F01140E556F0F015D
:102BE0008F0E536F0C0E546FF0EC42F00101A30EE8
:102BF0009A6F0C0E9B6F01018F0E986F0C0E996FE0
:102C000058DE000911E1790E006E780E016E026A3D
:102C100000C05CFFE8CF5DFF60EC43F023EC43F0C5
:102C20000009FCE02CEF43F0A7CCE9FFA8CCEAFFB9
:102C3000A3CCEEFFA4CCEEFFA5CCEEFFA6CCEEFF1E
:102C400012000001C38112000001C391120044EF81
:102C500016F003DE1200E10E006E760E016E026ABF
:102C600000C05CFFE8CF5DFF60EC43F087DE0C0145
:102C7000AE6F3A0EAE5D03E0AECC9CF1D1DE300E0D
:102C80000C01AE5DE8E112000C01006B046BEBEC93
:102C90003AF0F3CF02FCF4CF03FCD0EC43F014C0C5
:102CA00087FC15C088FC16C089FC17C08AFCD0ECD4
:102CB00043F014C08BFC15C08CFC16C08DFC17C0F3
:102CC0008EFC870EE96E0C0EEA6EEE500C01145C61
:102CD000006EEE501558016EEE501658026EEE5012
:102CE0001758036E320E005C000E0158000E025899
:102CF000000E035814E3D0EC43F014C087FC15C059
:102D000088FC16C089FC17C08AFC17EC43F0000948
:102D1000FCE10F01150E566F2EEC43F0887C23EC7E
:102D200043F00009C4E00C01045101E07FD023EC22
:102D300043F00009F8E0887C2CEC43F00C01016FB3
:102D40000051030A2DE0010A28E0030A21E00105F1
:102D500002E1010E23D0040E015D10E1888CAEEC7F
:102D60003AF017EC43F00009FCE10F01060E566F34
:102D70002EEC43F00C01010E046FD5D717EC43F095
:102D80000009FCE10F01150E566F2EEC43F0CBD776
:102D9000060E066F056B020E01D0030E006FC3D73F
:102DA0000551052BEA6A070FE96E0C0EEA2201CCE9
:102DB000EFFF0551006E016A0134B5E20050800852
:102DC000000E0154B0E202CC7BFE03CC7CFEF1ECA1
:102DD0003AF00C01060E066F016B0151006E016A9C
:102DE000D890015004E6800E005C000E01580DE200
:102DF0000151EA6A070FE96E0C0EEA22EFCF7DFE61
:102E000007EC3BF00C01012BE8D721EC3BF0F3CFB2
:102E100002FCF4CF03FC17EC43F00009FCE106CC04
:102E200056FF2EEC43F00C01006B7DD7010C0F0E0A
:102E30000101EA6A9D25E96E9E51EA22EF6A9DC171
:102E4000E6FF9EC1E6FF93EC37F0E552E5520C0138
:102E5000006B0F0E005D1BE200510101EA6A9D2527
:102E6000E96E9E51EA22EF500FE10F0E0C01005D5A
:102E70000EE20051002B0101EA6A9D25E96E9E5188
:102E8000EA22200EEF6EF1D70C01002BE2D71200E0
:102E90000C01036B030E035D26E2500E0101006F6F
:102EA000016BC9EC00F0E66E0C0103510A0DF3CF83
:102EB000E9FFF4CFEAFF9F0EE926010EEA22E55270
:102EC000E750EF6E03510A0DF3CFE9FFF4CFEAFFAD
:102ED0009F0EE926010EEA22030EE926000EEA22E1
:102EE000EF6A032BD7D712000C01CA6B030ECA5D21
:102EF00006E2CACCBDF104D80C01CA2BF7D71200E8
:102F00000101BD510A0DF3CF81FCF4CF82FC9F0E6D
:102F10000C018127010E8223686B81CCE9FF82CCF2
:102F2000EAFFEF500101066F30EC02F000090AE100
:102F300081CCE9FF82CCEAFF030EE926000EEA22EB
:102F4000EF6A120081CCE9FF82CCEAFF030EEB505E
:102F5000090A01E10AD2080A01E1E0D10A0A01E105
:102F60001AD1090A01E1D5D0020A01E027D281CCA9
:102F7000E9FF82CCEAFFEF500101156FE7EC04F0A6
:102F8000000901E11BD20C01010E686F666B676BD3
:102F90000C01640E665D000E675917E266CC13F1F2
:102FA00067CC14F1662B000E6723000E0101132776
:102FB0000C0E142381CCE9FF82CCEAFFEF50010113
:102FC000126F8CEC04F00009E3E1000E0C016625A1
:102FD000E96E0C0E6721EA6EEF6A81CCE9FF82CCC4
:102FE000EAFFEF5001010C6F21EC04F081CCE9FF06
:102FF00082CCEAFF030EE926000EEA22020EEF6EF3
:103000000C010B0E7F6F81CCE9FF82CCEAFF090E29
:10301000E926000EEA22E9CFC6F1EACFC7F10101A5
:103020007F0EC46F0C0EC56F0101690EC26F0C0ECE
:10303000C36F0101000EC06F0C0EC16FE3DA0C010B
:10304000656FE85001E0BAD17F51010813E27FCCEF
:103050007AF10101690E786F0C0E796FF9EC11F0BD
:1030600081CCE9FF82CCEAFF090EE926000EEA22B4
:10307000020EEF6E69CC77FE6ACC78FE3BEC3AF03C
:10308000F3CF00F0F4CF01F081CCE9FF82CCEAFF6E
:10309000010EF3CFEBFF020E01C0EBFF81CCE9FF85
:1030A00082CCEAFFEE52FF0EEE180DE1FF0EED1896
:1030B0000AE181CCE9FF82CCEAFF080EE926000E86
:1030C000EA22EF6A12D081CCE9FF82CCEAFFEE520D
:1030D000EE50ED1014E181CCE9FF82CCEAFF080E3E
:1030E000E926000EEA22010EEF6E81CCE9FF82CCC8
:1030F000EAFF030EE926000EEA22020E5ED181CC21
:10310000E9FF82CCEAFF030EE926000EEA220B0E4D
:1031100054D181CCE9FF82CCEAFFEF500101096F65
:1031200069EC03F0000901E149D181CCE9FF82CCCF
:10313000EAFF080EEB50E96EEA6AD890E936EA3603
:10314000BD0EE926020EEA22EECF83FCEDCF84FC11
:103150000C0183CCF6FF84CCF7FF832B000E842375
:103160000800F5CF80FCF5500CE080CC0BF181CC51
:10317000E9FF82CCEAFFEF5001010A6FA4EC03F0F3
:10318000E7D781CCE9FF82CCEAFFEF500101086F5D
:10319000C1EC02F0E0D081CCE9FF82CCEAFFEF5035
:1031A0000101096F69EC03F0000901E107D10C018D
:1031B000010E686F81CCE9FF82CCEAFF090EEB506B
:1031C000020828E181CCE9FF82CCEAFF070EE9265C
:1031D000000EEA22010EEF6E806B8051006E016AD4
:1031E000840E005C000E01583CE28051F76A200F0B
:1031F000F66E840EF7220800F5CF0BF181CCE9FFC3
:1032000082CCEAFFEF5001010A6FA4EC03F00C013D
:10321000802BE3D781CCE9FF82CCEAFF070EE926B9
:10322000000EEA22EF6A806B8051006E016A1F0E69
:10323000005C000E015815E28051F76A000FF66E2F
:10324000840EF7220800F5CF0BF181CCE9FF82CC88
:10325000EAFFEF5001010A6FA4EC03F00C01802B90
:10326000E3D781CCE9FF82CCEAFF090EEB50140DC5
:10327000F3CFF6FFF4CFF7FF380EF626830EF722D2
:10328000F6CF83FCF7CF84FC0C0183CCF6FF84CC13
:10329000F7FF832B000E84230800F5CF80FCF55048
:1032A0000CE080CC0BF181CCE9FF82CCEAFFEF503F
:1032B00001010A6FA4EC03F0E7D7806B8051006E28
:1032C000016A040E005C000E015815E28051F76A95
:1032D000A50FF66E840EF7220800F5CF0BF181CC16
:1032E000E9FF82CCEAFFEF5001010A6FA4EC03F082
:1032F0000C01802BE3D781CCE9FF82CCEAFF040EDE
:10330000E926000EEA22030EEF6E81CCE9FF82CCA3
:10331000EAFFE926000EEA22010E4FD081CCE9FF38
:1033200082CCEAFFEF500101156FE7EC04F00009D1
:1033300009E081CCE9FF82CCEAFFEF5001010C6F7C
:1033400021EC04F081CCBEF182CCBFF13CD8000965
:1033500035E0AEEC3AF081CCE9FF82CCEAFF030E17
:10336000E926000EEA22090E28D081CCE9FF82CCA2
:10337000EAFFEF500101066F30EC02F000091EE099
:1033800081CCE9FF82CCEAFFEF500101096F69ECC3
:1033900003F0000913E081CCE9FF82CCEAFFEF5093
:1033A0000101076F40EC02F081CCE9FF82CCEAFF1B
:1033B000030EE926000EEA220A0EEF6E0C01685198
:1033C00001E0AAD51200BEC1E9FFBFC1EAFFEE527B
:1033D000EECF79FEEDCF7AFEB5EC3AF0BEC1E9FF53
:1033E000BFC1EAFF070EEB50000901E1CED0BEC11C
:1033F000E9FFBFC1EAFFEF500101096F69EC03F07B
:10340000000901E1EED00C01BF6BBEC1E9FFBFC1F5
:10341000EAFF040EEB5008080AE0C6EC3AF00C0193
:10342000C06F0E01721D03E1731D01E1C2D0BEC168
:10343000E9FFBFC1EAFF040EEB50080A52E00E0A92
:1034400029E0030A14E0060A01E08FD0250E0C01E2
:10345000C05D0AE1BEC1E9FFBFC1EAFF040EE92673
:10346000000EEA22050E80D0010EBF6F7ED0250E21
:103470000C01C05D03E1010EBF6F6DD0C0CCC2FC7A
:10348000BEC1E9FFBFC1EAFF040EE926000EEA2231
:10349000060E6AD0C0CCC1FCC0CCA0F2C2CCA1F256
:1034A0007FEC3EF0E66EBEC1E9FFBFC1EAFF080E49
:1034B000E926000EEA22E552E750EF6EBEC1E9FFB1
:1034C000BFC1EAFF040EE926000EEA22080EEF6EE5
:1034D000BEC1E9FFBFC1EAFF050EEB6A060EEB6A4B
:1034E00044D00101C00E7E6F0C0E7F6FBEC1E9FF9C
:1034F000BFC1EAFF050EE926000EEA22EECF7CF1FD
:10350000EDCF7DF1BEC1E9FFBFC1EAFF080EEB5070
:1035100001017B6F9AEC12F0F3CF00F0F4CF01F0D1
:10352000BEC1E9FFBFC1EAFF050EF3CFEBFF060EF8
:1035300001C0EBFF0C01010EBF6FBEC1E9FFBFC1AF
:10354000EAFF050EE926000EEA22FF0EEE180DE155
:10355000FF0EED180AE1BEC1E9FFBFC1EAFF040E8C
:10356000E926000EEA22030EEF6E0C01BF5101E1C5
:103570003ED7C0CC0BF1BEC1E9FFBFC1EAFFEF509F
:1035800001010A6FA4EC03F032D7BEC1E9FFBFC14D
:10359000EAFFEF500101096F69EC03F0000921E037
:1035A000C6EC3AF00C01C06F0E01721D0EE1731DE6
:1035B0000CE1E4EC3AF0BEC1E9FFBFC1EAFFEF5015
:1035C0000101086FC1EC02F0010CC0CC0BF1BEC1CF
:1035D000E9FFBFC1EAFFEF5001010A6FA4EC03F05D
:1035E000D4D7E4EC3AF0F3CF00F0F4CF01F0BEC151
:1035F000E9FFBFC1EAFF010EF3CFEBFF020E01C0EE
:10360000EBFF000C0C01866B886B896B856B030EDE
:10361000E66EE66AAA0E006E840E016E026A00C0B3
:10362000E6FFE66E02C0E6FFC0C1E6FFC1C1E6FFED
:1036300076EC36F0036E070EE15E0350000908E1F8
:10364000040E0101C027000EC1230C01876B01D0BD
:10365000020CC0C1E9FFC1C1EAFFEF50200805E13B
:103660000101C02B000EC123F4D7C0C1E9FFC1C1C5
:10367000EAFFEFCF8AFC200E0C018A5D01E195D0B4
:103680008A5101E192D00D0E8A5D01E18ED00A0EC1
:103690008A5D01E18AD0C4C1E9FFC5C1EAFFEF50EC
:1036A000855D01E382D08651020A30E0030A1DE005
:1036B000010A76E18551020D0101C251F324E96E40
:1036C000C351F420EA6EC0C1EEFFC1C1EDFFC0C11D
:1036D000E9FFC1C1EAFFEFCF8AFC2F0E0C018A5D22
:1036E00041E05C0E8A5D5CE13DD08551852B020D89
:1036F0000101C251F324E96EC351F420EA6EC0C146
:10370000EEFFC1C1EDFF0C01020E866FC0C1E9FFE3
:10371000C1C1EAFFEFCF8AFC3F0E8A5D1EE0260E94
:103720008A5D1BE02B0E8A5D07E1200EC0C1E9FF18
:10373000C1C1EAFFEF6E34D02E0E8A5D0BE1850524
:1037400009E10101C02B000EC123C0C188FCC1C129
:1037500089FC26D03D0E8A5D08E1C0C1E9FFC1C1E8
:10376000EAFFEF6A010E866F1BD02F0E8A5D03E021
:103770005C0E8A5D15E1010E0101016AC025006E33
:10378000C15101220C018505020D0101C251F32432
:10379000E96EC351F420EA6E00C0EEFF01C0EDFFF8
:1037A0000101C02B000EC12360D7C0C1E9FFC1C118
:1037B000EAFFEF6A090EC6C1E9FFC7C1EAFFEF6E73
:1037C0008851891142E088CCE6FF89CCE6FF93EC72
:1037D00037F0E552E552F3CF88FCF4CF89FC0C01B9
:1037E000100E8B6F830E8C6F8A6B8A51006E016A8C
:1037F0000A0E005C000E015828E2030EE66EE66A2F
:103800008BCC00F08CCC01F0026A8BCCE6FF8CCC28
:10381000E6FF02C0E6FF88CCE6FF89CCE6FF76EC47
:1038200036F0036E070EE15E0350000907E1C6C1E2
:10383000E9FFC7C1EAFF8ACCEFFF07D0040E0C01F5
:103840008B27000E8C238A2BD0D70C01855130E1B9
:10385000090EE66EE66AAE0E006E840E016E026A16
:1038600000C0E6FFE66E02C0E6FFC2C1E9FFC3C1C9
:10387000EAFFEECFE6FFEFCFE6FFC0EC36F0036ED7
:10388000070EE15E0350C2C1E9FFC3C1EAFFEE507B
:10389000EFCFEAFFE96E090EE926000EEA22EF6A91
:1038A000010EC6C1E9FFC7C1EAFFEF6E0C01852B0F
:1038B000C4C1E9FFC5C1EAFF85CCEFFF8751120003
:1038C000080E0201C15D01E11200FF0EC25D04E0BD
:1038D000C2C25FFE92EC26F00201C269C16BC46BEA
:1038E000C39112000201C151070A01E136D1010A58
:1038F00001E1C6D0030A01E1A7D0010A01E17BD0B2
:10390000070A51E0010A33E0030A08E0010A01E076
:10391000120002014A6B4B6B4C6B4D6B0C01006942
:10392000016902690369046905690669076908692B
:103930000969430E0E015D6F5E6B0E01000E5B6F39
:103940000C0E5C6F440E0E01596F5A6B29EC26F079
:103950000201C26FD0EC43F014C05BF215C05CF200
:1039600016C05DF217C05EF20201020EC16FD0EC0C
:1039700043F002015B51145C006E5C511558016EFE
:103980005D511658026E5E511758036E140E005C9E
:10399000000E0158000E0258000E035801E232D109
:1039A0000201030E6BD002013C0E466F476B486B61
:1039B000496B0201C3A102D0050E60D0C2C258FEFD
:1039C0000F01010E2A6F13EC22F0000901E11AD158
:1039D0000201010E5F6F65DB02015A6BD0EC43F010
:1039E00014C05BF215C05CF216C05DF217C05EF247
:1039F0000201040E43D0D0EC43F002015B51145C91
:103A0000006E5C511558016E5D511658026E5E5184
:103A10001758036EC80E005C000E0158000E0258C5
:103A2000000E035803E30201030EC16FC2C261FE20
:103A3000DFEC27F0000901E1E5D0E5D8020801E05C
:103A4000E1D00201050EC16FC2C258FE0F01010E86
:103A50002A6F13EC22F0000901E1D4D00201030E19
:103A60005F6F1FDBD0EC43F014C05BF215C05CF25B
:103A700016C05DF217C05EF20201060EC16F1200A1
:103A8000C2C261FEDFEC27F000094BE0BCD80C019C
:103A90000A6F060E0A5D02E160EF1CF0050E0A5D7A
:103AA0005BE1C2C25FFE92EC26F00201C269D0EC7B
:103AB00043F014C05BF215C05CF216C05DF217C093
:103AC0005EF20201070EC16F02015AA108D04AC27C
:103AD000ADF04BC2AEF04CC2AFF04DC2B0F05AA543
:103AE00008D052C2B7F053C2B8F054C2B9F055C2B0
:103AF000BAF05AA308D04EC2BBF04FC2BCF050C2BD
:103B0000BDF051C2BEF05AA708D056C2BFF057C28E
:103B1000C0F058C2C1F059C2C2F00201C381C42B27
:103B20001200D0EC43F002015B51145C006E5C515A
:103B30001558016E5D511658026E5E511758036E8E
:103B4000C80E005C000E0158000E0258000E03580B
:103B500059E30201030EC16F1200D0EC43F00201E1
:103B60005B51145C0C010B6F02015C5115580C0188
:103B70000C6F02015D5116580C010D6F02015E5170
:103B800017580C010E6F640E0B5D000E0C59000EE1
:103B90000D59000E0E5936E302014607000E475B31
:103BA000485B495B640E0C010B5F000E0C5B0D5B08
:103BB0000E5B0201465147114811491103E1020110
:103BC000010EC16F640E0C010B5D000E0C59000E4E
:103BD0000D59000E0E59E0E2D0EC43F00C010B51F0
:103BE000145C02015B6F0C010C51155802015C6FF3
:103BF0000C010D51165802015D6F0C010E51175842
:103C000002015E6F12000C01126B0E010F0E626F4B
:103C10000C0E636FF7EC27F0020E0C010F5D01E054
:103C200019D2106B0F0E105D0AE20E010F0E626FBB
:103C30000C0E636FF7EC27F00C01102BF3D7020189
:103C4000C3A30FD00C01106B040E105D28E20E010F
:103C50000F0E626F0C0E636FF7EC27F00C01102B48
:103C6000F3D70E014A0E626F020E636FF7EC27F076
:103C70000E014B0E626F020E636FF7EC27F00E0120
:103C80004C0E626F020E636FF7EC27F00E014D0EC3
:103C9000626F020E636FF7EC27F002015A810C018C
:103CA000106B080E105D0AE20E010F0E626F0C0E13
:103CB000636FF7EC27F00C01102BF3D7106B060E97
:103CC000105D14E20E010F0E626F0C0E636FF7ECC5
:103CD00027F00C011051EA6AB10FE96E000EEA22DA
:103CE000EF500F5D01E0DAD1102BE9D7106BCE0E4B
:103CF000105D0AE20E010F0E626F0C0E636FF7EC9F
:103D000027F00C01102BF3D7136B0E010F0E626F0F
:103D10000C0E636FF7EC27F0000904E10C01010EB3
:103D2000136F98D10C010F51330A01E131D1CC0A44
:103D300001E12BD1C90A01E1FFD0300A01E1AFD086
:103D4000050A60E0020A20E0340A01E06ED10E01AB
:103D50000F0E626F0C0E636FF7EC27F00C010F056E
:103D600001E09CD10E01120E626F0C0E636FF7EC36
:103D700027F00201C351020B01E168D1020E0C01D0
:103D8000125D01E063D18AD10E010F0E626F0C0E3D
:103D9000636FF7EC27F0040E0C010F5D01E07ED19C
:103DA0000201C3A310D00C01106B040E105D01E3DF
:103DB0004DD10E010F0E626F0C0E636FF7EC27F002
:103DC0000C01102BF2D70E01520E626F020E636FC0
:103DD000F7EC27F00E01530E626F020E636FF7ECE3
:103DE00027F00E01540E626F020E636FF7EC27F09E
:103DF0000E01550E626F020E636FF7EC27F00201A1
:103E00005A8524D10E01110E626F0C0E636FF7EC10
:103E100027F0040E0C01115D01E240D10201C3A3A1
:103E20000FD00C01106B040E105D28E20E010F0E76
:103E3000626F0C0E636FF7EC27F00C01102BF3D7B9
:103E40000E014E0E626F020E636FF7EC27F00E014B
:103E50004F0E626F020E636FF7EC27F00E01500EEB
:103E6000626F020E636FF7EC27F00E01510E626F66
:103E7000020E636FF7EC27F002015A83040E0C0167
:103E8000115F0C0111511107000901E1DFD00E0192
:103E90000F0E626F0C0E636FF7EC27F0F2D70E0176
:103EA000110E626F0C0E636FF7EC27F0040E0C011D
:103EB000115D01E2F3D00201C3A30FD00C01106B1E
:103EC000040E105D28E20E010F0E626F0C0E636F80
:103ED000F7EC27F00C01102BF3D70E01560E626F92
:103EE000020E636FF7EC27F00E01570E626F020EA1
:103EF000636FF7EC27F00E01580E626F020E636FCE
:103F0000F7EC27F00E01590E626F020E636FF7ECAB
:103F100027F002015A87040E0C01115F0C011151A8
:103F20001107000901E192D00E010F0E626F0C0E15
:103F3000636FF7EC27F0F2D70E010F0E626F0C0ED5
:103F4000636FF7EC27F0040E0C010F5D01E0A6D0C3
:103F50000E01170E626F0C0E636FF7EC27F00E0167
:103F6000160E626F0C0E636FF7EC27F00E01150E44
:103F7000626F0C0E636FF7EC27F00E01140E626F88
:103F80000C0E636FF7EC27F061D0010E136F5ED05B
:103F90000E010F0E626F0C0E636FF7EC27F0040E2C
:103FA0000C010F5D01E07AD00201C3A30FD00C0118
:103FB000106B040E105D4AE20E010F0E626F0C0EC4
:103FC000636FF7EC27F00C01102BF3D70E01490EAD
:103FD000626F020E636FF7EC27F00E01480E626FFE
:103FE000020E636FF7EC27F00E01470E626F020EB0
:103FF000636FF7EC27F00E01460E626F020E636FDF
:10400000F7EC27F0D880080E02014655070E4755F9
:10401000000E4855000E495519E2080E465F070E7E
:10402000475B000E485B495B11D00E01110E626FB9
:104030000C0E636FF7EC27F00C011151110700090A
:1040400005E00E010F0E626F0C0EF3D70C01135139
:1040500001E15BD6020E125D0BE114CC42F215CCED
:1040600043F216CC44F217CC45F20201C38311D0BF
:10407000420EE96E020EEA6EEE50141908E1EE509F
:10408000151905E1EE50161902E1EE50171901E07D
:10409000126B5CEC28F00C01125112005CEC28F061
:1040A000000C0E01010E606FC5EC26F00E01010E32
:1040B000606FC5EC26F00E01060E606FC5EC26F0B1
:1040C0000E01606BC5EC26F00E01120E606FC5ECA0
:1040D00026F00E01230E606FC5EC26F00E01340EA3
:1040E000606FC5EC26F00E01560E606FC5EC26F031
:1040F0000E01606BC5EC26F00E01606BC5EC26F07E
:104100000E01800E606FC5EC26F00E01606BC5ECF1
:1041100026F00E01606BC5EC26F00E01606BC5EC5D
:1041200026F00E01606BC5EC26F00E01606BC5EC4D
:1041300026F00C010F6B0C0E0F5D07E20E01606B99
:10414000C5EC26F00C010F2BF6D7B1C060FEC5EC14
:1041500026F0B2C060FEC5EC26F0B3C060FEC5EC30
:1041600026F0B4C060FEC5EC26F0B5C060FEC5EC1C
:1041700026F0B6C060FEC5EC26F00C010F6BCA0E2F
:104180000F5D07E20E01606BC5EC26F00C010F2BF2
:10419000F6D70E01630E606FC5EC26F00E01820E9D
:1041A000606FC5EC26F00E01530E606FC5EC26F073
:1041B0000E01630E606FC5EC26F00E01350E606FC8
:1041C000C5EC26F00E01010E606FC5EC26F05FC253
:1041D00060FEC5EC26F002015F0502E10201C39317
:1041E00002015F051FE04A514B114C114D111AE0BD
:1041F0000E01360E606FC5EC26F00E01040E606FE6
:10420000C5EC26F045C260FEC5EC26F044C260FE57
:10421000C5EC26F043C260FEC5EC26F042C260FE4B
:10422000C5EC26F00E01370E606FC5EC26F00E01CE
:10423000040E606FC5EC26F00E01010E606FC5EC38
:1042400026F00E01030E606FC5EC26F00E01060E7F
:10425000606FC5EC26F00E010C0E606FC5EC26F009
:10426000030E02015F5D1AE10E01320E606FC5ECB4
:1042700026F00E01040E606FC5EC26F04AC260FE07
:10428000C5EC26F04BC260FEC5EC26F04CC260FEC9
:10429000C5EC26F04DC260FEC5EC26F00E0160694B
:0842A000C5EC26F04DEF27F0FC
:0842A800899089929290929294
:1042B0000E01FE8B0E01FDA1FDD70A0EE66EE7ECA6
:1042C00043F0E5520C01056B070E0C01055D3EE263
:1042D0000C010551006E016A480E0102F3CF01F096
:1042E000020E0002F3500126480E0002F3CF00F048
:1042F000F4500126026A036A080E0026100E0122FD
:10430000000E0222000E03220C010551050DF3CF11
:10431000E9FFF4CFEAFF000EE9260F0EEA2200C003
:10432000EEFF01C0EDFF0C010551050DF3CFE9FFD4
:10433000F4CFEAFF000EE9260F0EEA22040EE9266A
:10434000000EEA22EF800C01052BBED70F01236B74
:104350000F01010E296F0F01256B266B0E01E86B13
:10436000E96B0E01070EEC6F0E01100EED6F0E01E2
:10437000070EEA6F100EEB6F0E01080EE46F100EC1
:10438000E56F0E010D0EA06F00000E01320EA26F40
:1043900000000E01400EA36F00000E013F0EA96F3A
:1043A00000000E01120EA66F00000E010C0EA76F8A
:1043B00000000E01EE0EAA6F00000E01050EAB6F9D
:1043C0000000B1C084FE0000B2C085FE0000B3C092
:1043D00082FE0000B4C083FE0000B5C080FE000075
:1043E000B6C081FE00000F01506B010E516F0F012E
:1043F000100E4F6FD1DB0F01720E506F040E516F14
:104400000F01140E4F6FC8DB0F01526BD2DB0E0190
:10441000DF8512000F01010E4E6FA6DBF350040B77
:1044200001E0010E12000F012A5106E00E01DF51DA
:10443000080B080A25E0010C2451235D06E10E015A
:10444000DF51080B080A1CE0010C0C01010EAB6FD8
:10445000070EAB5D14E2AB51050DF3CFE9FFF4CFCE
:10446000EAFF000EE9260F0EEA22040EE926000EEE
:10447000EA22EF50010B01E0010CAB2BE9D7000E53
:1044800012000F012B5106E00E01DF51080B01E174
:10449000000CFF0C0C01010EAB6F070EAB5D33E29D
:1044A000AB51050DF3CFE9FFF4CFEAFF000EE9268B
:1044B0000F0EEA22040EE926000EEA22EF50010B4D
:1044C00020E0AB51050DF3CFE9FFF4CFEAFF000E7A
:1044D000E9260F0EEA22040EE926000EEA22EF90EA
:1044E000AB51050DF3CFE9FFF4CFEAFF000EE9264B
:1044F0000F0EEA22040EE926000EEA22EF92AB51DB
:104500001200AB2BCAD7FF0C0F012C51070811E387
:104510002C51050DF3CFE9FFF4CFEAFF000EE92699
:104520000F0EEA22040EE926000EEA22EF802CCFBD
:1045300023FF12000F01295101E01200010E296F23
:1045400025CF87FC26CF88FC0C01875F000E885B97
:1045500087CC00F088CC01F0026A036AD880070E8D
:104560000054100E0154000E0254000E035404E2D5
:10457000070E876F100E886F0E01FE8D87CCECFE44
:1045800088CCEDFE0E01FC9D1200D9CEABFCEECE28
:10459000ADFCEFCEAEFC0C01AB510E01D95DF5E1E7
:1045A000ECCEABFCEDCEACFC0C01AD51AB5DAE5135
:1045B000AC5911E2070E046E100E056EAB51AD5DE5
:1045C000086EAE51AC55096E0850045C006E09507F
:1045D0000558016E14D0AB51AD1908E1AC51AE19BC
:1045E00005E1070EF36E100EF46E1200AD51AB5DD7
:1045F000006EAC51AE55016E0006000E015A00C0AF
:10460000F3FF01C0F4FF12000E01D95102E1000EC8
:1046100085D00F01295103E18DDF000E7FD025CF1A
:1046200027FF26CF28FF25CFE0FE26CFE1FE140E80
:104630000F01476F486B0F01000E456F0C0E466F60
:104640005BDA12CCA4F213CCA5F2B7EC3EF0F3CFB8
:1046500012FCF4CF13FC00CC00F001CC01F0026A94
:10466000036AD880070E0054100E0154000E025445
:10467000000E03541BE30C010C010051010B16E169
:104680000C010C010551800B11E10C010C010451CE
:10469000100B0CE10C01EE0ED8800255050E0355EF
:1046A00005E30C010C010451800B01E1FF0000CC7B
:1046B00025FF01CC26FF060EE66EE66A0C0EE66EBE
:1046C0000C0EE66E2DCFE9FF2ECFEAFFE9CF00F00A
:1046D000EACF01F000C0E6FF01C0E6FF95EC36F03E
:1046E000026E060EE15E02502FCFE9FF30CFEAFFE7
:1046F000EF68080E0C01135D0DE10C01125104E08E
:10470000060E0C01125D06E12FCFE9FF30CFEAFF64
:1047100012CCEFFF0F01296B010E00D012000F0128
:104720002351050DF3CFE9FFF4CFEAFF000EE92690
:104730000F0EEA22EECFE2FEEDCFE3FE2351050D90
:10474000F3CFE9FFF4CFEAFF000EE9260F0EEA22CD
:10475000EECF00F0EFCF01F00E0E0026000E01228A
:1047600000503427015035232351050DF3CFE9FFC5
:10477000F4CFEAFF000EE9260F0EEA22020EE92628
:10478000000EEA2234CFEEFF35CFEDFF0F01496B6B
:10479000D2D9060E0F014C6F4D6B31CF4AFF32CF8D
:1047A0004BFFCCD9060E0F014C6F4D6B0F01B10EB4
:1047B0004A6F000E4B6FC2D90F01080E496FBBD96B
:1047C0000F01335102E1000E01D0060E0F01496FB7
:1047D0009BEF25F00F012351050DF3CFE9FFF4CF37
:1047E000EAFF000EE9260F0EEA22EECFE4FEEDCF3F
:1047F000E5FE2351050DF3CFE9FFF4CFEAFF000EEC
:10480000E9260F0EEA22020EE926000EEA22EECF7A
:10481000E6FEEDCFE7FE23CF24FF2351050DF3CFB6
:10482000E9FFF4CFEAFF000EE9260F0EEA22040E9C
:10483000E926000EEA22EF820E01FCA304D0FC93CD
:104840000E01DF8FDF9F0E01DF871200140E0F01B4
:10485000016A2725006E28510122005036250C01DF
:10486000876F01500F0137210C01886F87CC00F052
:10487000016E026A036AD880070E0054100E0154BC
:10488000000E0254000E035404E2080E875F100E5F
:10489000885B87CCE0FE88CCE1FE87CCE2FE88CC4A
:1048A000E3FE120038CF23FF0F013851050DF3CF7F
:1048B000E9FFF4CFEAFF000EE9260F0EEA22EECF61
:1048C00000F0EFCF01F0010E0026000E01220E0EC7
:1048D0000026000E01220050392701503A2339CF1B
:1048E000E0FE3ACFE1FE39CFE2FE3ACFE3FE12001E
:1048F000140E0F01016A2725006E28510122005075
:104900003B250C012C6F01500F013C210C012D6F38
:104910002CCC00F0016E026A036AD880070E0054A6
:10492000100E0154000E0254000E035404E2080E4F
:104930002C5F100E2D5B2CCCF0FE2DCCF1FE3DCF6C
:1049400000F03ECF01F00006000E015A00502C2767
:1049500001502D232CCC00F02DCC01F0026A036A0B
:10496000D880070E0054100E0154000E0254000EA1
:10497000035404E2080E2C5F100E2D5B2CCCF2FECB
:104980002DCCF3FE0E01DF89DF8BDFBBFED7F6CE29
:104990002DFCF7CE2CFC2CCCF3FF2DCCF4FF120019
:1049A0000F012351050DF3CFE9FFF4CFEAFF000E0D
:1049B000E9260F0EEA22EECF00F0EFCF01F00E0E47
:1049C0000026000E012200503F250C01C36F01504C
:1049D0000F0140210C01C46F010EC327000EC42338
:1049E000C3CCF0FEC4CCF1FE41CF00F042CF01F0C9
:1049F0000006015A0050C3270150C423C3CCF2FE65
:104A0000C4CCF3FE0E01DF89DF8BDFBBFED7F6CE11
:104A1000C4FCF7CEC3FCC3CCF3FFC4CCF4FF12003C
:104A20000F014351441103E1F368F4681200010ED1
:104A300043190CE144510AE15CD8016E006A001E82
:104A4000011E00C0F3FF01C0F4FF1200E0CEABFC7A
:104A5000E1CEACFCE0CEF0FEE1CEF1FEE0CE00F027
:104A6000E1CE01F0026A036AD880070E0054100EEE
:104A70000154000E0254000E035421E343CF00F012
:104A800044CF01F00006000E015A00500C01AB2784
:104A90000150AC23ABCC00F0ACCC01F0026A036A4D
:104AA000D880070E0054100E0154000E0254000E60
:104AB000035411E2080EAB5F100EAC5B0CD043CF79
:104AC00000F044CF01F00006000E015A00500C0126
:104AD000AB270150AC23ABCCF2FEACCCF3FE0E0105
:104AE000DF89DF8BDFBBFED7F6CEF3FFF7CEF4FF17
:104AF00012000E01FA51120047CF2CFC48CF2DFCBA
:104B00000C012CCC00F02DCC01F02C07000E2D5BFD
:104B1000005001100BE00F0145CFE9FF46CFEAFF3F
:104B2000452B000E4623FACEEFFFEAD747CFF3FF1F
:104B300048CFF4FF120049CFFAFE12000F014CCF0C
:104B400000F04DCF01F04C07000E4D5B00500110FE
:104B50000AE04ACFE9FF4BCFEAFF4A2B000E4B2376
:104B6000EFCFFAFEEBD712004ECFB4FE00000E01DD
:104B7000010EB26F00000E018AB1FDD70E01B26BBB
:104B80000000B8CE03FC0000B9CE04FC03CCF3FF58
:104B900004CCF4FF00D012004FCFB4FE000050CF81
:104BA000B6FE000051CFB7FE00000E018AB1FDD75E
:104BB00012000E01DF950E01DF970F014E6BD4DF5F
:104BC000F3CF00FCF4CF01FC0F0152510C01019115
:104BD000E8B0018100CC50FF01CC51FF0F014F6BB9
:104BE000DBDFA2CE02FC0C0102910F01525102E068
:104BF0000C01028102CCA2FE00000F01525102E022
:104C0000150E01D0120E0E01A46F0E01DF851200E9
:104C10000E01DF950E01FDB5FDD70E01DFB7FDD703
:104C20000E01FE9B12000E01FE8BE80EE66E03ECF9
:0A4C300044F0E5520E01DF8512008A
:064C3A000C01006B040EEA
:104C4000005D06E200CC5FFE6DD80C01002BF7D7AB
:104C500012000C01000E396F0E0E3A6F386B040E05
:104C6000385D5FE239CCE9FF3ACCEAFF0C0EE92669
:104C7000000EEA22EECF00F0EFCF01F0026A036AE5
:104C8000005001100210031046E139CCE9FF3ACC84
:104C9000EAFF0C0E59CEEBFF0D0E5ACEEBFF0E01C4
:104CA0005B515C1119E00A0EE66EE66A5BCEE6FF28
:104CB0005CCEE6FF39CCE9FF3ACCEAFF39CC00F014
:104CC0003ACC01F039CCE6FF3ACCE6FF95EC36F071
:104CD000026E060EE15E025039CCE9FF3ACCEAFFE3
:104CE0000A0E5DCEEBFF0B0E5ECEEBFF39CCE9FF7B
:104CF0003ACCEAFF0E0EEB6A0F0EEB6A39CCE9FFF5
:104D00003ACCEAFF100EEB6A110EEB6A38CC58FE73
:104D10000C0138511200160E3927000E3A23382B99
:104D20009ED7FF0C0E015F51160DF3CFE9FFF4CFB4
:104D3000EAFF000EE9260E0EEA220C0EE926000E0E
:104D4000EA22EE6AED6A5F51160DF3CFE9FFF4CF68
:104D5000EAFF000EE9260E0EEA22060EE926000EF4
:104D6000EA22EE6AEE6AEE6AEE6A5F51160DF3CF42
:104D7000E9FFF4CFEAFF000EE9260E0EEA22150E37
:104D8000E926000EEA22EF9012000E015851160D8E
:104D9000F3CF48FCF4CF49FC000E0C0148270E0E5F
:104DA000492348CCE9FF49CCEAFF0E0EE926000E64
:104DB000EA22EE50ED1030E10F01010E2B6F41ECB5
:104DC00022F0E66E48CCE9FF49CCEAFF120EE92654
:104DD000000EEA22E552E750EF6E48CCE9FF49CCDD
:104DE000EAFF120EEB50FF0801E1000C1C0E0F0150
:104DF000396F3A6B48CCE9FF49CCEAFF120EEB5011
:104E00000F01386F52EC24F048CCE9FF49CCEAFF9F
:104E1000130EEB6A140EEB6A60CE49FF9BEC25F093
:104E200048CCE9FF49CCEAFF130EE926000EEA223E
:104E3000EECF00F0EDCF01F0EE2AEF2248CCE9FFF3
:104E400049CCEAFF0E0EE926000EEA22EECF02F070
:104E5000EFCF03F00250005C035001580AE348CC46
:104E6000E9FF49CCEAFF0E0EE926000EEA22EE2AFF
:104E7000EF2248CCE9FF49CCEAFF0E0EE926000EEE
:104E8000EA22EECF4AFCEDCF4BFC0C01160E4A5D38
:104E9000020E4B5901E301D8010C0F01010E2A6FDC
:104EA00013EC22F00009F9E00E015851160DF3CF72
:104EB00040FCF4CF41FC000E0C0140270E0E4123B4
:104EC00040CCE9FF41CCEAFF0C0EE926000EEA22B5
:104ED000EECFA4F2EDCFA5F2B7EC3EF0F3CF38FC65
:104EE000F4CF39FC40CCE9FF41CCEAFF0A0EE926B9
:104EF000000EEA22EECFA4F2EDCFA5F2B7EC3EF021
:104F0000F3CF3AFCF4CF3BFC40CCE9FF41CCEAFFC5
:104F10000E0EE926000EEA22EECF3CFCEFCF3DFC60
:104F2000080E0C013C27000E3D233E6B3F6B140E18
:104F30000F01396F3A6B40CCE9FF41CCEAFF120E0A
:104F4000EB500F01386F52EC24F03CCCF8F13DCC23
:104F5000F9F10101110EF76F40CCE9FF41CCEAFFF6
:104F600040CCF5F141CCF6F116EC38F03CCCA4F293
:104F70003DCCA5F2B7EC3EF0F3CF3CFCF4CF3DFCCA
:104F8000080E0F014C6F4D6B0F01380E4A6F0C0E5F
:104F90004B6F9EEC25F0EAEC23F040CCE9FF41CCCE
:104FA000EAFF120EE926000EEA22EF6840CCE9FF84
:104FB00041CCEAFF0E0EEB6A0F0EEB6A120061CED7
:104FC00058FE0E015851160DF3CFE9FFF4CFEAFF5A
:104FD000000EE9260E0EEA22100EE926000EEA2245
:104FE000D880EE54000EED5401E3000C010C0E01CC
:104FF0005851160DF3CFE9FFF4CFEAFF000EE92672
:105000000E0EEA22100EE926000EEA22EE50ED10F6
:1050100001E1000C5851160DF3CFE9FFF4CFEAFF80
:10502000000EE9260E0EEA22150EE926000EEA22EF
:10503000EF50010B15E05851160DF3CFE9FFF4CFF7
:10504000EAFF000EE9260E0EEA22150EE926000EF2
:10505000EA22EF90080E0101FA6FFB6BA2EC38F028
:1050600079EC25F062CEE9FF63CEEAFFEF6E0E0128
:105070005851160DF3CFE9FFF4CFEAFF000EE926F1
:105080000E0EEA22100EE926000EEA22EE06EF5A74
:105090005851160DF3CFE9FFF4CFEAFF000EE926D1
:1050A0000E0EEA22100EE926000EEA22EE50ED1056
:1050B00002E19AEC22F0010C0E015851160DF3CFCB
:1050C000E9FFF4CFEAFF000EE9260E0EEA22100EE9
:1050D000E926000EEA22EE50ED1002E09AEC22F0F2
:1050E0000E015851160DF3CFE9FFF4CFEAFF000E81
:1050F000E9260E0EEA22100EE926000EEA22EE6ADA
:10510000ED6A1200080E0F01476F486B0F01000E89
:10511000456F0C0E466F7CEC25F000CCA4F201CC60
:10512000A5F2B7EC3EF0F3CF00FCF4CF01FC02CCCB
:10513000A4F203CCA5F2B7EC3EF0F3CF02FCF4CF1F
:1051400003FC04CCA4F205CCA5F2B7EC3EF0F3CFFF
:1051500004FCF4CF05FC0C01080E045F000E055B97
:105160000651071101E188D006CCA4F207CCA5F2C4
:10517000B7EC3EF0F3CF06FCF4CF07FC64CEE9FFBA
:1051800065CEEAFF060EE926000EEA22EECF09FC04
:10519000EECF0AFCEECF0BFCEFCF0CFC66CEE9FFA6
:1051A00067CEEAFFEFCF0DFC010EE926000EEA22E2
:1051B000EFCF0EFC66CEE9FF67CEEAFF020EE926CE
:1051C000000EEA22EFCF0FFC66CEE9FF67CEEAFFC2
:1051D000030EE926000EEA22EFCF10FC0C01116B42
:1051E000110E126F68CE13FC69CE14FC68CEA4F2C7
:1051F00069CEA5F2B7EC3EF0F3CF13FCF4CF14FC6C
:105200000C0E0201AC6FAD6B0201090EAA6F0C0E01
:10521000AB6F17EC3FF0F3CF15FCF4CF16FC0C018D
:10522000151F161F060E0101FA6FFB6BA2EC38F07A
:1052300015CC49FF9BEC25F0070E0101FA6FFB6BC3
:10524000A2EC38F016CC49FF9BEC25F00101FA6B7B
:10525000FB6BA2EC38F068CE43FF69CE44FF10EC44
:1052600025F0F3CF15FCF4CF16FC0C010651F31812
:1052700016E10751161913E166CE6EFE67CE6FFE7A
:1052800064CE6CFE65CE6DFE0E01000E6A6F0C0ED4
:105290006B6F2AD80C01086FFF0E085D03E19AECD2
:1052A00022F0010C0851160DF3CFE9FFF4CFEAFF0D
:1052B000000EE9260E0EEA22100EE926000EEA2262
:1052C00004CCEEFF05CCEDFF0851160DF3CFE9FF3E
:1052D000F4CFEAFF000EE9260E0EEA22150EE926AB
:1052E000000EEA22EF80010C0C011869000E196F04
:1052F0000E0E1A6F176B040E175D01E38CD019CCDC
:10530000E9FF1ACCEAFF0C0EE926000EEA22EECFE6
:1053100000F0EFCF01F06ACEE9FF6BCEEAFF020E9C
:10532000E926000EEA22EECF02F0EFCF03F00250A2
:1053300000186AE10350011867E119CCE9FF1ACCA3
:10534000EAFF0A0EE926000EEA22EECF00F0EFCFC8
:1053500001F06ACEE9FF6BCEEAFFEECF02F0EFCFAD
:1053600003F0025000184EE1035001184BE119CC34
:10537000E9FF1ACCEAFF100EE926000EEA22EECF72
:1053800004F0EFCF05F0066A076A04500510061016
:10539000071038E16CCEE9FF6DCEEAFF060EE92674
:1053A000000EEA22EECF00F0EECF01F0EECF02F0D9
:1053B000EFCF03F019CCE9FF1ACCEAFF060EE9267D
:1053C000000EEA22EE500001001808E1EE5001182C
:1053D00005E1EE50021802E1EE50031810E06ECE27
:1053E000E9FF6FCEEAFFE868EE180CE1E868EE1816
:1053F00009E1E868EE1806E1E868EE1803E10C013F
:105400001751120017CC18FC0C01160E1927000EAC
:105410001A23172B70D7FF0E185D35E01851160DA3
:10542000F3CF19FCF4CF1AFC000E19270E0E1A2325
:105430000A0EE66EE66A6CCEE6FF6DCEE6FF19CC8C
:10544000E9FF1ACCEAFF19CC00F01ACC01F019CC14
:10545000E6FF1ACCE6FF95EC36F0026E060EE15E32
:1054600002506ACEE9FF6BCEEAFFEECF00F0EFCF3D
:1054700001F019CCE9FF1ACCEAFF0A0E00C0EBFFDD
:0C5480000B0E01C0EBFF0C0118511200D4
:04548C00150E0101F7
:10549000006F016BC9EC00F00001616F656B946BEC
:1054A000606B140E636F646B120061C006F130EC28
:1054B00002F0000908E10001946B070E676F656B4D
:1054C000606B666B010C61C015F1E7EC04F000093C
:1054D0003EE0D0EC43F014C0A4F015C0A5F016C017
:1054E000A6F017C0A7F00101000E136F0C0E146F89
:1054F00061C012F18CEC04F000090FE0000194513E
:10550000942BEA6A730FE96E000EEA2200CCEFFFDB
:105510001F0E945DE8E1946BE6D761C00CF121ECBD
:1055200004F00A0E0C01005D48E100019451EA6AA2
:10553000730FE96E000EEA22EF6A946B0CDA95C0E5
:10554000ABF096C0ACF0CED90001676F36D0000149
:10555000655133E0D0EC43F014C001FC15C002FCEF
:1055600016C003FC17C004FCA40EE96E000EEA6E20
:10557000EE500C01145C016FEE501558026FEE50A6
:105580001658036FEE501758046F500E015D460E0B
:105590000259000E0359000E04590FE3D0EC43F0FA
:1055A00014C0A4F015C0A5F016C0A6F017C0A7F04F
:1055B0000001020E676F010E656F00016551010A5F
:1055C00043E0050A0DE0040A5DE1686BD0EC43F0AE
:1055D00014C0A4F015C0A5F016C0A6F017C0A7F01F
:1055E00061C009F169EC03F0000901E1010C68C038
:1055F000E9FFEA6AE9BEEA68D890E936EA36D40EED
:10560000E926010EEA22EECF05FCEDCF06FC0C01E7
:1056100005CCF6FF06CCF7FF052B000E062308008D
:10562000F5CF00FCF55007E000CC0BF161C00AF1AA
:10563000A4EC03F0ECD761C008F1C1EC02F000016A
:105640000C0E686F010E656F070E675D1BE067C08B
:10565000AAF019D800090FE00C0E0001685D03E004
:10566000040E656F04D0020E675D01E1656B070EE5
:10567000676F666B010C0C0E0001685D03E0040EA1
:10568000656FAED7010C0001AA51050A51E0060A68
:105690004DE0070A34E0060A30E0030A18E0010A88
:1056A00051E160816093010E686F0A0EE66EE66A52
:1056B00097C0E6FF98C0E6FF690EE66E000EE66E44
:1056C00065EC37F0006E060EE15E0050010C60A143
:1056D00012D097C096F198C097F10101690E946FAE
:1056E000000E956F8FEC13F0000904E00001608359
:1056F000020E29D00001060E26D0A5EF2BF09FC088
:10570000E6FFA0C0E6FF62EC3CF0E552E552F3CFC5
:1057100064F0A1C0E6FFA2C0E6FF62EC3CF0E552F7
:10572000E552F3CF63F000010B0E0DD0DBEF2BF051
:105730000B0E686FFE0E625D07E062C007F140EC81
:1057400002F0010C050E686F010C00016651030A9E
:1057500021E0020A14E0010A2DE1020E665D02E179
:10576000AEEC3AF0FE0E0001625D0FE0AEEC3AF0F6
:1057700062C007F140EC02F00001010E09D062C0E6
:1057800006F130EC02F0000915E10001030E686F2C
:10579000666F000C61C009F169EC03F000090AE0D2
:1057A00061C006F130EC02F0000904E061C007F1CD
:1057B00040EC02F0000C00016651020A3CE0030AD2
:1057C00027E0010A01E08DD060B302D0060E87D039
:1057D000070E686F63C004F164C005F16151280DC4
:1057E000F3CFE9FFF4CFEAFF000EE926070EEA2225
:1057F000EE52E9CF02F1EACF03F13FEC01F00001F4
:10580000626FFE0E625D02E0010E13D00A0E67D0D9
:1058100062C006F130EC02F0000963E00E01715144
:1058200060E1EBEC3AF0F3CFA8F0F4CFA9F000017F
:10583000020E666F000C62C015F1E7EC04F000097F
:105840003CE0D0EC43F014C0A4F015C0A5F016C0A5
:10585000A6F017C0A7F0A8C07BFEA9C07CFEF1ECA3
:105860003AF001010B0E136F0C0E146F62C012F1AF
:105870008CEC04F0000905E00BCC7DFE07EC3BF05E
:10588000F0D721EC3BF0F3CFA8F0F4CFA9F062C041
:105890000CF121EC04F061C009F169EC03F000099E
:1058A00020E00101230E0B6F61C00AF1A4EC03F0AC
:1058B00061C008F1C1EC02F0000C62C006F130ECEE
:1058C00002F000090EE121EC3BF0AEEC3AF062C0D0
:1058D00007F140EC02F00001FE0E626F090E686FE6
:1058E000010C000C0C01076B060EE76E0719E8AE01
:1058F00002D0E73402D0E750075D2CE2040EE66EDA
:10590000E66A07CCE9FFEA6AE9BEEA68D890E936B8
:10591000EA36C80EE926010EEA22EECF00F0EFCFFC
:1059200001F0026A00C0E6FF01C0E6FF02C0E6FF28
:10593000ABC0E6FFACC0E6FF76EC36F0036E070EB8
:10594000E15E0350000903E10C01075112000C0154
:10595000072BCAD7060C0C010A6B730E076F000EDB
:10596000086F07CCE9FF08CCEAFFEF50200804E1FC
:10597000072B000E0823F5D707CC95F008CC96F03E
:105980000001010EA36F07CCE9FF08CCEAFFEFCFBF
:1059900009FCEF5039E00C010A51010A1CE0010A30
:1059A0002FE1200E095D03E02C0E095D08E107CC14
:1059B000E9FF08CCEAFFEF6A010E0A6F21D00D0E55
:1059C000095D03E00A0E095D1BE107CCE9FF08CC85
:1059D000EAFFEF6A15D0200E095D12E00001A35125
:1059E000A32BE96EEA6AD890E936EA36950EE926E5
:1059F000000EEA2207CCEEFF08CCEDFF0C010A6B8B
:0A5A0000072B000E0823BFD7120089
:065A0A0062C260F263C2FB
:105A100061F20201C76B12000201C751050A01E1E0
:105A200026D2010A01E1BED0070A58E0010A40E08F
:105A3000030A0BE0010A01E01BD20201BF0E9A6FBC
:105A4000000E9B6FA5EC42F0A0D00201670E9E6F86
:105A5000020E9F6F0201BF0E9C6F000E9D6FBBEC8C
:105A600042F000091BE1D0EC43F002017151145CDB
:105A7000006E72511558016E73511658026E7451B2
:105A80001758036ED880C80E0054000E0154000E43
:105A90000254000E035401E3EBD1A4D0BFC06DF259
:105AA000C0C06EF2C1C06FF2C2C070F20201C72B5B
:105AB000350E0E015D6F5E6B0E01670E5B6F020EA1
:105AC0005C6F0E01596B5A6B29EC26F00201666F70
