:020000040000fa
:080000000002040000000000f2
:020000040000fa
:100400006fbf2000807f22000001880000000000f4
:10041000050007000c000700e625020000000000b0
:100420000040da000000fe004440a90000de200089
:100430000000e0000300320000002000a00188005e
:100440004440a80000000600e0252500010020002f
:100450001600370062004000e080480091018800eb
:100460009001ba0062004000e080480091018800dd
:100470009002ba0062004000e08048000002eb00f9
:100480006028e10005003a008301e900070033001d
:10049000038009000059eb00040037006128e100e7
:1004a000010032000082eb00050007009101880086
:1004b0001001ba000200e000e6ff3a00000005006b
:1004c000910188008002780062004000e0804800ce
:1004d0003559ba008301e900080032002559ba00f5
:1004e0008301e900050032000400e000f4ff32005f
:1004f00015d9ba008301e900f1ff3a0000000600b7
:10050000800178000200e000030032008159780089
:100510000201e900fdff3a000000060080017800ba
:100520000200e00003003200b15978000201e90046
:10053000fdff3a0000000600800178000200e000a4
:10054000070032001104e00005003200b1597800c4
:100550000201e900020032001104e000fbff3a0052
:100560000200e000030032008059eb000201e900c4
:10057000fdff3a0000000600ea874700889fbe00a2
:100580008a9fbe008c9fbe008e1f78008006780078
:10059000010678008204780000047800010037002a
:1005a0000804e8001800fb00b30007000000e000aa
:1005b000fbff3a0098407800d0c2b30080cf5000d3
:1005c0000400320000c0e900d0ef9f0080cf50004f
:1005d00002003a00d1ef9f000804e8000900e000a3
:1005e00046003500e18f54004400320040022000f4
:1005f000808f540041003c000900e0000d003400f1
:10060000f08f54001a003a0000c3b300984f100056
:1006100017003a009840900080c7b30080cf500088
:100620001200320080c5b30080cf500010003a00a5
:100630000e00370000c3b300984f100002003200d4
:10064000a90020000a0037009840900080c7b3003e
:1006500080cf5000040032008900200080c5b30024
:1006600080cf500002003a00090120000884e80011
:10067000d8b79f0000c3b300984f100002003a00a3
:10068000d84f1000feff32006055b8000807780010
:100690000e003700fab79f008bbf9f00a0a020007c
:1006a00000425200c4ef9f006149b9000a00be0039
:1006b0008f0007004fea97000401fb00cf91de0096
:1006c00000054100818549000804e8001800fb008e
:1006d000710007008000780009017800a0a02000c8
:1006e00074000700000278000000e000e9ff3a0013
:1006f0005fb09700880f500005003a000c00e00042
:10070000010032000d0e78006000b80027003700ad
:100710008e005400f0a22000694078000000fb0029
:1007200000805000170033004240a9000f003c0039
:100730004fe997000200fb00cf80de00000055006b
:1007400081805d00800f5500818f5d0007003900ba
:100750006149b9006c0007007fb197008fb997001d
:10076000820f5000838f58000600320020022000c4
:10077000705f88000085eb008085eb00b3c2b3009a
:10078000d3ef9f00d0c2b3005fea9700804f5200c2
:1007900002003a0060051500e0851d000c00e00035
:1007a00001003200080e78000a00be004f077800f2
:1007b0004f06be004f05be004f04be00af00b100a3
:1007c000000006000200e0000b003200104278003a
:1007d00091417800834f5200030032000080eb000b
:1007e00006003900100005000000e8008100e80064
:1007f0000201e900f5ff3a000000eb0000000600ee
:1008000000017800314978003204e000fdff3a0031
:1008100000000600800078001004e00002003200b2
:100820005104e000feff3a00008050000000060086
:1008300010417800914f510006003a008001eb0012
:100840000204e0000a00320050417800d14f51000c
:10085000faff320010407800914f50000200310042
:100860000080eb00010037001000200080017800bc
:1008700003007800000006006900e1000400350074
:100880006d00e100030034000002b10001003200fd
:100890000000050010000500800078001104b10080
:1008a000030035009101b10001003c000050a000a0
:1008b000000006000200e0000500320090cf1000aa
:1008c000040032000000e8000201e900fbff3a00ea
:1008d0000000eb0000000600805f80000000e000e8
:1008e0000100320000000100e0be20000000060010
:1008f000020ab900001bb9000200b80081004200e2
:1009000081004300000006006022b80006022000bb
:100910000000d0008180d2000482d2008582d20003
:100920000000a0000202520083825a0003003b0034
:100930000202420083824a000000a1000603e9008f
:08094000f3ff3a00000006007d
:020000040000fa
:020000040002f8
:04aff800fdfb00005d
:020000040000fa
:020000040002f8
:04affc007fbf000013
:020000040000fa
:100008003a5e00003a5e00003a5e00003a5e000088
:100018003a5e00003a5e00003a5e00003a5e000078
:100028003a5e00003a5e00003a5e0000225e000080
:100038003a5e00003a5e00003a5e00003a5e000058
:100048003a5e00003a5e00003a5e00003a5e000048
:100058003a5e00003a5e00003a5e00003a5e000038
:100068003a5e00003a5e00003a5e00003a5e000028
:100078003a5e00003a5e00003a5e00003a5e000018
:100088003a5e00003a5e00003a5e00003a5e000008
:100098003a5e00003a5e00003a5e00003a5e0000f8
:1000a8003a5e00003a5e00003a5e00003a5e0000e8
:1000b8003a5e00003a5e00003a5e00003a5e0000d8
:1000c8003a5e00003a5e00003a5e00003a5e0000c8
:1000d8003a5e00003a5e00003a5e00003a5e0000b8
:1000e8003a5e00003a5e00003a5e00003a5e0000a8
:1000f8003a5e00003a5e00003a5e00003a5e000098
:100108003a5e00003a5e00003a5e00003a5e000087
:100118003a5e00003a5e00003a5e00003a5e000077
:100128003a5e00003a5e00003a5e00003a5e000067
:100138003a5e00003a5e00003a5e00003a5e000057
:100148003a5e00003a5e00003a5e00003a5e000047
:100158003a5e00003a5e00003a5e00003a5e000037
:100168003a5e00003a5e00003a5e00003a5e000027
:100178003a5e00003a5e00003a5e00003a5e000017
:100188003a5e00003a5e00003a5e00003a5e000007
:100198003a5e00003a5e00003a5e00003a5e0000f7
:1001a8003a5e00003a5e00003a5e00003a5e0000e7
:1001b8003a5e00003a5e00003a5e00003a5e0000d7
:1001c8003a5e00003a5e00003a5e00003a5e0000c7
:1001d8003a5e00003a5e00003a5e00003a5e0000b7
:1001e8003a5e00003a5e00003a5e00003a5e0000a7
:0801f8003a5e00003a5e0000cf
:020000040000fa
:100208003a5e00003a5e00003a5e00003a5e000086
:100218003a5e00003a5e00003a5e00003a5e000076
:100228003a5e00003a5e00003a5e0000225e00007e
:100238003a5e00003a5e00003a5e00003a5e000056
:100248003a5e00003a5e00003a5e00003a5e000046
:100258003a5e00003a5e00003a5e00003a5e000036
:100268003a5e00003a5e00003a5e00003a5e000026
:100278003a5e00003a5e00003a5e00003a5e000016
:100288003a5e00003a5e00003a5e00003a5e000006
:100298003a5e00003a5e00003a5e00003a5e0000f6
:1002a8003a5e00003a5e00003a5e00003a5e0000e6
:1002b8003a5e00003a5e00003a5e00003a5e0000d6
:1002c8003a5e00003a5e00003a5e00003a5e0000c6
:1002d8003a5e00003a5e00003a5e00003a5e0000b6
:1002e8003a5e00003a5e00003a5e00003a5e0000a6
:1002f8003a5e00003a5e00003a5e00003a5e000096
:100308003a5e00003a5e00003a5e00003a5e000085
:100318003a5e00003a5e00003a5e00003a5e000075
:100328003a5e00003a5e00003a5e00003a5e000065
:100338003a5e00003a5e00003a5e00003a5e000055
:100348003a5e00003a5e00003a5e00003a5e000045
:100358003a5e00003a5e00003a5e00003a5e000035
:100368003a5e00003a5e00003a5e00003a5e000025
:100378003a5e00003a5e00003a5e00003a5e000015
:100388003a5e00003a5e00003a5e00003a5e000005
:100398003a5e00003a5e00003a5e00003a5e0000f5
:1003a8003a5e00003a5e00003a5e00003a5e0000e5
:1003b8003a5e00003a5e00003a5e00003a5e0000d5
:1003c8003a5e00003a5e00003a5e00003a5e0000c5
:1003d8003a5e00003a5e00003a5e00003a5e0000b5
:1003e8003a5e00003a5e00003a5e00003a5e0000a5
:0803f8003a5e00003a5e0000cd
:020000040000fa
:10094800555300004552000000500000415300007c
:1009580053000000515500004954000000530000a6
:10096800544f000052000000504f00005254000045
:1009780000410000424f00005200000032320000e7
:10098800302000005265000061640000790d00000d
:100998000a000000333300003120000050610000dd
:1009a80073730000776f000072640000207200000b
:1009b800657100007569000072650000640d000033
:1009c8000a00000032330000302000004c6f0000a5
:1009d8006767000065640000206900006e0d000074
:1009e8000a00000032320000312000004279000085
:1009f800650d00000a0000003530000030200000be
:100a08000d0a00000035000030320000204e0000c2
:100a18006f740000206900006d7000006c650000b4
:100a28006d6500006e740000656400000d0a00002a
:100a38000035000033300000204c00006f670000d4
:100a4800696e000020720000657100007569000081
:100a580072650000640d00000a00000031350000d6
:100a68003020000054720000616e000073660000c0
:100a780065720000726900006e6700002064000063
:100a880061740000612e00002e2e00000d0a000087
:100a98000031000032350000204400006f6e000075
:100aa800650d00000a0000000d0a00003232000047
:100ab8003620000054720000616e0000736600006a
:100ac80065720000204300006f6d0000706c00002c
:100ad80065740000650d00000a0000003432000053
:100ae80035200000436100006e27000074200000dc
:100af80063720000656100007465000020640000f6
:100b08006174000061200000736f0000636b0000d7
:100b1800657400002e200000204900006e6300006c
:100b28007265000061730000652000004d410000ff
:100b3800585f0000534f0000434b0000455400002d
:100b4800532e00000d0a0000003200003030000073
:100b5800204f00006b0d00000a00000054580000f0
:100b680054000000485400004d00000043470000b6
:100b780049000000584d00004c00000047490000a3
:100b880046000000504e0000470000004a50000098
:100b980047000000434c000041000000574100009e
:100ba800560000000000000000000000746500000e
:100bb800787400002f7000006c610000696e0000fe
:100bc800000000000000000000000000000000001d
:100bd8000000000074650000787400002f680000b1
:100be800746d00006c0000000000000000000000b0
:100bf8000000000000000000000000007465000014
:100c0800787400002f680000746d00006c0000000c
:100c180000000000000000000000000000000000cc
:100c28000000000074650000787400002f78000050
:100c38006d6c0000000000000000000000000000d3
:100c4800000000000000000000000000696d0000c6
:100c580061670000652f00006769000066000000fa
:100c6800000000000000000000000000000000007c
:100c780000000000696d000061670000652f00003a
:100c8800706e000067000000000000000000000017
:100c9800000000000000000000000000696d000076
:100ca80061670000652f00006a700000656700003a
:100cb800000000000000000000000000000000002c
:100cc8000000000061700000706c000069630000a3
:100cd80061740000696f00006e2f00006a610000f7
:100ce800766100002d7600006d000000617500003f
:100cf800646900006f2f0000782d00007761000004
:100d08007665000000000000000000000000000000
:100d180000000000000000000000000000000000cb
:100d280000000000000000000000000000000000bb
:100d3800000000000000000000000000485400000f
:100d4800545000002f3100002e30000020340000e5
:100d580030340000204e00006f7400002066000050
:100d68006f7500006e6400000d0a00000d0a000097
:100d78004e6f000074200000666f0000756e000062
:100d8800642e00000d0a00000048000054540000c2
:100d9800502f0000312e00003020000035300000b8
:100da800332000000d0a00000d0a00005365000002
:100db800727600006963000065200000556e00002f
:100dc80061760000616900006c610000626c0000df
:100dd800650d00000a00000048540000545000004f
:100de8002f3100002e30000020320000303000008b
:100df800204f00004b0d00000a4300006f6e0000fa
:100e0800746500006e7400002d7400007970000095
:100e1800653a0000200000004854000054500000cb
:100e28002f3100002e30000020320000303000004a
:100e3800204f00004b0d00000a44000061740000c0
:100e4800653a000020570000656400002c2000006f
:100e58003035000020410000707200002032000090
:100e68003030000036200000303200003a350000f3
:100e7800333a000030350000204700004d54000090
:100e88000d0a0000457800007069000072650000d6
:100e9800733a000020570000656400002c20000011
:100ea8003035000020410000707200002032000040
:100eb8003030000036200000303200003a350000a3
:100ec800323a000030350000204700004d54000041
:100ed8000d0a00004361000063680000652d0000f2
:100ee800636f00006e740000726f00006c3a0000bf
:100ef80020700000726900007661000074650000cf
:100f08000d0a0000436f00006e740000656e00005b
:100f1800742d000074790000706500003a2000000c
:100f2800000d00000a0d00000a00000047450000ff
:100f380054000000494e000044450000582e0000af
:100f4800485400004d0000004e6500007720000066
:100f580049500000204100006464000072650000f0
:100f6800737300003a200000000d00000a00000022
:100f7800544300005053000074610000636b00008c
:100f880020760000332e00003735000020200000b6
:100f98002020000020200000202000002020000049
:100fa8002020000020200000202000002020000039
:100fb800004d000043480000504200004f4100002f
:100fc80052440000004900004e440000455800000b
:100fd8002e43000047490000004300004f4e000028
:100fe80046490000472e0000434700004900000022
:100ff800494e000044450000582e000043470000b9
:1010080049000000763300002e370000350000004c
:1010180041750000672000003134000020320000d4
:101028003030000036200000313000003a34000033
:10103800373a000031390000006600007470000083
:10104800006d000069630000726f000063680000b3
:1010580069700000000d00000a0d00000a0d000074
:101068004d690000637200006f630000686900004a
:101078007020000054430000502f00004950000029
:10108800204300006f6e00006669000067200000c2
:1010980041700000706c000069630000617400001a
:1010a800696f00006e20000028760000332e0000d3
:1010b800373500002c200000417500006720000033
:1010c80031340000203200003030000036290000a2
:1010d8000d0a00000d0a0000093100003a20000046
:1010e80043680000616e0000676500002042000050
:1010f8006f610000726400002073000065720000d8
:10110800696100006c2000006e7500006d620000cf
:10111800657200002e0d00000a090000323a000036
:1011280020430000686100006e6700006520000031
:10113800426f00006172000064200000486f0000e8
:1011480073740000204e0000616d0000652e0000e1
:101158000d0a0000093300003a200000436800002f
:10116800616e00006765000020640000656600008d
:10117800617500006c7400002049000050200000d8
:10118800616400006472000065730000732e000043
:101198000d0a0000093400003a20000043680000ee
:1011a800616e00006765000020640000656600004d
:1011b800617500006c740000206700006174000015
:1011c8006577000061790000206100006464000018
:1011d80072650000737300002e0d00000a090000fc
:1011e800353a000020430000686100006e67000087
:1011f800652000006465000066610000756c0000f1
:101208007420000073750000626e000065740000b1
:10121800206d0000617300006b2e00000d0a0000b5
:10122800093600003a20000043680000616e0000a3
:1012380067650000206400006566000061750000b5
:101248006c740000204400004e530000207300001e
:10125800657200007665000072200000616400007d
:101268006472000065730000732e00000d0a000010
:10127800093700003a200000456e00006162000056
:101288006c65000020440000484300005020000026
:101298002620000049500000204700006c6500002f
:1012a800616e0000696e0000672e00000d0a0000e4
:1012b800093800003a20000044690000736100000a
:1012c800626c0000652000004448000043500000a4
:1012d800202600002049000050200000476c000034
:1012e800656100006e6900006e6700002e0d000049
:1012f8000a090000393a0000204400006f77000016
:101308006e6c00006f610000642000004d5000000a
:1013180046530000206900006d6100006765000009
:101328002e0d00000a090000303a0000205300008a
:10133800617600006520000026200000517500003d
:10134800697400002e0d00000a0d00000a45000017
:101358006e7400006572000020610000206d0000be
:10136800656e000075200000636800006f6900006a
:101378006365000020280000312d0000302900009e
:101388003a200000000d00000a4e00006f770000b0
:1013980020720000756e00006e6900006e67000024
:1013a80020610000707000006c690000636100003b
:1013b800746900006f6e00002e2e00002e0d0000d4
:1013c8000a0000000d0a0000536500007269000061
:1013d800616c0000204e0000756d00006265000021
:1013e80072200000280000000d0a0000486f00006d
:1013f80073740000204e0000616d0000652000003d
:10140800280000000d0a0000446500006661000025
:10141800756c000074200000495000002041000055
:1014280064640000726500007373000020280000e7
:10143800000d00000a4400006566000061750000a8
:101448006c7400002047000061740000657700009c
:1014580061790000204100006464000072650000aa
:101468007373000020280000000d00000a440000eb
:1014780065660000617500006c7400002053000070
:10148800756200006e650000742000004d61000068
:10149800736b000020280000000d00000a440000c3
:1014a80065660000617500006c740000204400004f
:1014b8004e5300002053000065720000766500005e
:1014c800722000004164000064720000657300002f
:1014d80073200000280000000d0a000044480000a6
:1014e8004350000020260000204900005020000042
:1014f800476c0000656100006e6900006e670000bf
:10150800206500006e610000626c000065640000e8
:101518002e0d00000a0000000d0a000044480000db
:101528004350000020260000204900005020000001
:10153800476c0000656100006e6900006e6700007e
:101548002064000069730000616200006c6500009f
:10155800642e00000d0a0000000d00000a52000071
:101568006561000064790000207400006f200000ad
:10157800646f0000776e00006c6f0000616400000b
:10158800204d00005046000053200000696d000007
:1015980061670000652000002d20000055730000e1
:1015a80065200000586d00006f640000656d000044
:1015b80020700000726f0000746f0000636f0000fd
:1015c8006c2e00000d0a000000000000c789000012
:1015d800e6890000f8890000068a00001d8a0000dc
:1015e800398a0000518a0000708a0000908a000041
:1015f800b18a00000d0a0000496e00007661000003
:101608006c69000064200000696e000070750000bd
:1016180074200000726500006365000069760000b0
:1016280065640000202d0000204900006e70000055
:101638007574000020690000676e00006f7200007a
:10164800656400002e0d00000a500000726500005d
:1016580073730000206100006e790000206b0000a9
:1016680065790000207400006f200000636f00009f
:101678006e740000696e0000756500002e2e000073
:101688002e0d00000a0000000d0a00000d0a0000df
:1016980042550000545400004f4e00003020000016
:1016a800686500006c640000206600006f7200002e
:1016b800206d00006f720000652000007468000053
:1016c800616e000020340000207300006563000094
:1016d8006f6e0000647300002e200000204500009b
:1016e80045500000524f00004d200000636f00007d
:1016f8006e740000656e00007473000020650000c1
:101708007261000073650000642e00000d0a00007d
:101718000d0a0000002900003a2000000000000027
:020000040000fa
:101728000400fa000040eb00004f780050c0b300fe
:101738009e4f100031003e009e80fb00c00220003a
:101748000008b8000285200000004100100798003a
:101758009e009000a0002000800878009e00900065
:10176800511090000000a100d01098009e00900039
:10177800511090000010a000d01098009e0090001a
:10178800511090000020a000d01098009e009000fa
:10179800511090000040a100d01098009e009000c9
:1017a800511090000030a100d01098001e00900049
:1017b80000509000e14f4000060032001e009000eb
:1017c80000509000530807009e00900000c0eb00f6
:1017d800805098001e019000c012200001002000d7
:1017e80030119800411198009e0090000000eb0015
:1017f800900898001e4fe800ccff37000080fa00e0
:10180800000006000800fa00000f78000040eb0016
:10181800204798002e409000e54f500036003e00cb
:101828002e4090008080fb00c00220000008b80015
:101838000285200000004100200798002e0090003b
:10184800a1002000908f100027003a00ae00900001
:101858000000eb00800878002e0090001e01780040
:1018680062009800ae0090000000eb00f0009800c5
:101878002e0190006000b8004001980051019800c6
:10188800ae009000511090000000a000d010980009
:10189800ae009000511090000030a100d0109800c8
:1018a8002e00900000509000e14f400006003200ea
:1018b8002e0090000050900016080700ae0090001f
:1018c80000c0eb0080509800ae00900051109000ce
:1018d8000010a000d01098002e4090000080fb005f
:1018e80030079800060037002e4090000040e800be
:1018f80020479800c7ff3700e00f20003007980006
:101908003e0090000080fa00000006000c00fa007b
:10191800889fbe008a1f7800000f78001107980082
:101928000000eb00400798000040eb00404798009b
:101938004e409000e54f500012003e004e4090008f
:101948008080fb00c00220000008b800028520004b
:1019580000004100300798003e009000a1002000e0
:10196800908f100003003a001000200040079800f4
:10197800040037004e4090000040e80040479800bf
:10198800ebff37004e0090000000e00003003a0033
:10199800e20f2000520798004a003700be0090006e
:1019a800905f80000000e800905f8800e0009800e9
:1019b800915f800070382100808f5000020036004f
:1019c800f03f2000905f8800be009000511090000a
:1019d8000000a100d01098003e0090009e009000ea
:1019e800710098003e0190003e009000d0089000e1
:1019f8004008900061004000e080480040099800dd
:101a0800510998003e0190006000b80060099800f4
:101a1800710998003e0090000080e800a2002000b4
:101a28009e007800bbfa0700be0090003e019000bf
:101a38003e049000be0490003e0090000085e8003f
:101a48000000eb00801f78008f87e80000c0eb00e3
:101a5800e0ff9f0023c0b300610b9000f10b9000e2
:101a6800420a9000d20a900078019000e9009000a4
:101a78000a007800f6020700e4875700be009000cd
:101a880010002000800878003e0190003e00900081
:101a9800d00890004008900061004000e0804800b5
:101aa80040099800510998003e0490005e280700fc
:101ab80010149800211498004e4090000080fb00fc
:101ac800500798005e0090004f0578004f04be0054
:101ad8000080fa00000006000400fa00004f7800b9
:101ae8000000eb00100798009e80fb00c002200059
:101af8000008b800028520000200400031002000e4
:101b0800908f100002003a0012002000120798007f
:101b18001e0090000080fa00000006000400fa0091
:101b2800889fbe008a1f7800004f78009e80fb00c7
:101b3800c00220000008b800028520000000410013
:101b4800100798001e00900031002000908f1000b0
:101b5800070032001e00900022002000900f1100a4
:101b6800030032001e0090001a040700220037000c
:101b78001e407800d60007009e0090001e019000cd
:101b88001e0490009e0490001e0090000085e8004e
:101b98000000eb00801f78008f87e80000c0eb0092
:101ba800e0ff9f0013c1b300610b9000f10b9000a0
:101bb800420a9000d20a900078019000e900900053
:101bc8000a007800a2020700e48757001e0190006f
:101bd8001e009000d008900040089000610040006e
:101be800e080480040099800510998009e00900044
:101bf80040002000800878004f0578004f04be00a0
:101c08000080fa00000006000600fa00889fbe0067
:101c18008a1f7800004f78009e80fb00c0022000d9
:101c28000008b80002852000000041001007980055
:101c38001e00900000509000e14f400003003a0061
:101c48000000eb0020079800340037001e009000c9
:101c580050109000620060000000e00003003a00ad
:101c68000001eb00220798002c0037009e0090002e
:101c78001e0190001e0490009e0490001e0090001b
:101c88000085e8001e00900010089000801f780072
:101c98001e0090008f87e80000509000e0ff9f0032
:101ca80083c1b300610b9000f10b9000420a9000d1
:101cb800d20a900078019000e90090000a007800ac
:101cc80063020700e48757001e0290009e00900000
:101cd8001e009000100890006101b80041089000b3
:101ce800d10890000000410081804900400a980016
:101cf800510a98009e009000511090000010a10019
:101d0800d01098009e009000511090000040a10053
:101d1800d010980010002000200798002e00900096
:101d28004f0578004f04be000080fa00000006004e
:101d38000400fa00004f78009e80fb00c0022000db
:101d48000008b80062862000020040001000e00091
:101d580003003a000000eb00100798001600370057
:101d68009e80fb00c00220000008b8000286200008
:101d78000200400080c0eb0090cf100004003a0041
:101d88000000eb0070060700100798000a003700f3
:101d98009e80fb00c00220000008b800a287200037
:101da80002004000100078000000d100614060008f
:101db8000080fb00100798001e0090000080fa00c9
:101dc800000006000600fa00881f7800004f78001f
:101dd800114798009e80fb00c00220000008b80050
:101de8000285200000004100100798001e009000a6
:101df800300890000000e00003003a000000eb000b
:101e0800200798002e0037001e0090000050900018
:101e1800e14f400012003a001e0490000000eb0061
:101e28007d060700005498001e00900000509000a6
:101e3800e14f400003003a000001eb002207980040
:101e48001f0037001e0090008000eb00110898006a
:101e58001e009000810220000050900079080700c1
:101e68009e009000511090000040a000d0109800f3
:101e78001e409000960907009e0090001e009000ea
:101e8800300890000000e900b00898001e0190009a
:101e98001e009000100890000000e8008000780004
:101ea8001109980090202000808f50000200360011
:101eb8001e40780054ff07001000200020079800fb
:101ec8002e0090004f0478000080fa000000060001
:101ed8000600fa00004f78009e80fb00c002200038
:101ee8000008b80002852000000041001007980093
:101ef8001e00900050109000680060000000e00094
:101f080003003a000000eb002007980007003700a4
:101f1800910607009e009000511090000030a1002b
:101f2800d010980012002000220798002e00900080
:101f38000080fa00000006000a00fa00004f78004e
:101f480011079800220798009e80fb00c00220001d
:101f58000008b80002852000000041003007980002
:101f68003e00900050109000680060000000e00003
:101f7800140032003e009000501090006400600091
:101f88000000e0000600320040012000e7250700bd
:101f9800be009000511090000020a100d0109800c1
:101fa8003e009000d01090000140a0005110980011
:101fb800ae0090001e009000170907004007980027
:101fc800020037000000eb00400798004e00900028
:101fd8000080fa00000006000800fa00004f7800b0
:101fe800110798009e80fb00c00220000008b8007e
:101ff8000285200000004100200798002e00900074
:1020080050109000680060000000e00023003200db
:102018002e00900050109000640060000000e00066
:102028000600320040012000c0250700ae009000e5
:10203800511090000020a100d01098002e009000b0
:10204800200890000000e00008003a00420607005f
:10205800ae009000511090000030a100d010980000
:102068000000eb00300798000e003700ae0090002b
:102078002e009000200890000000e900a0089800b9
:10208800c6080700804078001e00900001487800cc
:102098001200200032079800020037000000eb0011
:1020a800300798003e0090000080fa00000006000b
:1020b8000200fa00004f78009e80fb00c00220005a
:1020c8000008b800a2872000020040001000780035
:1020d8004300de00614060000080fb000080fa00e1
:1020e800000006001400fa00889fbe000040eb00c4
:1020f800005798000040eb00004f780050c0b30034
:102108009e4f1000ef003e009e80fb00c0022000a2
:102118000008b80002852000000041005007980020
:102128005e00900050109000680060000000e00021
:10213800e2003a005e0090005010900070006000cd
:102148000000e000dd003a005e009000a3002000df
:10215800908f1100d90032005e0090001000e0005e
:1021680005003a005e009000501090006100600089
:102178000000e000d1003a00ab26070030079800c5
:10218800410798005e0090003e019000ce0190004b
:10219800a01090001010900000005100818059009c
:1021a80010079800210798005e0090001e0190001b
:1021b800ae019000c010900030109000800f5100c8
:1021c800818f5900bd003600100020005e05070011
:1021d8000000e000bb0032005e0490009226070079
:1021e80010149800211498005e0190005e00900081
:1021f800c01090003010900000004000818048001e
:102208003011980041119800de0090005e009000a7
:10221800006090000040e800806098005e00900038
:1022280010007800100f98001e089000e60f50006c
:1022380014003e009e089000e48f50005f003e00ae
:102248001e099000e20f51001b0032009e09900009
:10225800e28f510004003e001e089000e10f50007c
:10226800120032006a0037009e089000e38f500089
:10227800270032001e099000e40f5100450032008b
:10228800630037009e099000e88f5100510032002a
:102298001e089000e70f50004b0036009e08900083
:1022a800e98f5000510032005900370020c0b300b8
:1022b80000579800560037005e00900000609000bc
:1022c800e34f500003003e0020c1b30000579800c0
:1022d8004f0037005e0090005010900061006000d1
:1022e8000000e00004003200de0090000000eb0077
:1022f800800878004600370020c0b30000579800d7
:10230800de009000100020008008780040003700b0
:102318005e00900000609000e34f50000d003e000a
:102328005e00900000509000e14f4000060032002f
:102338005e0090008000eb0000509000410707000d
:10234800790607003200370000c1b3000057980033
:102358002f0037005e00900000509000e14f4000d1
:10236800060032005e0090000050900069050700ea
:10237800de00900000c0eb008050980010c1b30050
:1023880000579800de009000400020008008780088
:102398001f0037005e00900000609000e34f50007f
:1023a80003003e0010c0b300005798001800370023
:1023b8005e00900007020700150037005e009000dd
:1023c80004020700120037005e00900001020700b7
:1023d8000f00370010c0b30000579800de009000cf
:1023e8009000200080087800090037005e00900007
:1023f80000609000e34f500003003e0010c0b3009f
:1024080000579800020037005e009000f1010700b5
:102418000e5090000004e000280032000e5090009a
:102428000080fb00700060000000e0000600320041
:102438005e00900040099000d00990006207980063
:1024480073079800090037005e009000780240008a
:102458001400be000001be006207980073079800d0
:1024680061004000e0804800008abe00de00900065
:102478005e0190005e0490005e0090008084e80099
:102488000000eb00801f78008f87e80000c0eb0099
:10249800e0ff9f008e519000610b9000f10b9000bf
:1024a8006e029000fe02900072019000e800900019
:1024b8000900780066000700e48757001e4fe8000f
:1024c8000eff37004f04be000080fa00000006002f
:1024d8003000fa00881f7800000f78001107980074
:1024e80022079800fa0047001e007800300190008b
:1024f800c00190008288be00fa0047001e009000cc
:102508001001be00a2009800b3009800fa0047002e
:102518000040eb0080489800fa00470060c0b30014
:10252800904898007a004700ae0190005300980048
:102538007a0447007a00470050009000551d0700b4
:10254800500498007a004700c10020007d1d070054
:102558000080ea00401798002e009000430707000b
:10256800501798008e6890003e68900080cf500009
:1025780004003a009e6890002e68900080cf5000ba
:1025880004003200f40407001000200070179800bf
:102598002b0037000000eb006424070066004700aa
:1025a800410120009c070700660047005c01070006
:1025b80066004700600090004400de006f40600045
:1025c8004200dd0074405000406f98004e68900053
:1025d8008080fb002e009000010050007400500025
:1025e8002007980066004700600090004400de0065
:1025f8006f4060000080fb004200dd004b240700b4
:10260800660047009e007800e100070060679800b8
:102618006e609000e24f40000600320066014700fd
:10262800ae0190009e0078006e609000a401070043
:1026380001003700c8040700110020007117980036
:102648007e1090004f0478000080fa000000060019
:102658003600fa00881f7800000f780011079800ec
:1026680022079800340798004507980056079800f5
:1026780067079800634f9800100020003204070095
:102688000000e000fcff32000ef89700e14f400028
:1026980003003a00100020005f04070000ff9f00bd
:1026a8000ef89700e14f4000b600320041012000cb
:1026b8000ef8970063060700720047009e0090001e
:1026c80001087800720047002e019000120098005f
:1026d800720047003e019000ce0190002200980051
:1026e80033009800720047005e019000ee019000f0
:1026f8004200980053009800f200470061009000e3
:1027080000e0a10000f0a100e0009800f2004700fe
:10271800610090000000a1000010a1000020a100ad
:102728000030a100e000980072004700ee499000d8
:102738005348980072044700a004070070049800ea
:1027480072004700f0009000f0232000808f5000b6
:1027580004003600f200470000242000f000980032
:102768000f00370072004700f0009000600320005f
:10277800808f500007003600f200470072004700c3
:1027880070009000a2fc2f0002004000f0009800aa
:1027980003003700f20047000000eb00f00098004b
:1027a800f20047000000eb0080089800f2004700a4
:1027b8000000eb009008980072004700d80007005e
:1027c8003eb897007400400030bf9f006e489000ec
:1027d8000080fb00620060000000e000130032008f
:1027e8003eb897006400400030bf9f0020c0b3008f
:1027f8006067980040c0b3007067980020c0b300bd
:10280800006f980000c4b300106f9800f2004700f2
:10281800610090000040a1000050a0000060a000ee
:102828000070a100e000980007003700f2004700a0
:10283800610090000040a0000050a1000060a000ce
:102848000070a100e0009800a00220000e004000e7
:1028580052548000635480000288be00a102200008
:102868008e8040001e00780030019000c00190006a
:10287800a2009800b3009800a10220008e804000ba
:102888000040eb0080489800a10220008e804000a4
:1028980060c0b30090489800a00220000e004000dd
:1028a800beb9970053009800a80220000e04440007
:1028b800a00220000e00400050009000751c070088
:1028c8005004980072044700a00220000e00400047
:1028d800c10020009b1c07000080ea00000c980043
:1028e8007200470000089000000f98003eb997005a
:1028f80061c0b3001e007800422307007200470041
:1029080041012000110707006e4890000080fb007d
:10291800620060000000e000040032006002200055
:102928000e00400041002000080707004101200078
:102938000ef89700c30507003eb897004b0607003e
:10294800000f9800410220000ef89700bd0507000f
:102958001e509000de0607000e509000dc060700af
:102968008000eb000ef89700b6050700ee0407009c
:1029780010002000740307000000e000fcff320094
:10298800e90407004f0478000080fa000000060000
:102998000a00fa00000f780011079800e0cfb30092
:1029a800704798000040eb00604798006e40900028
:1029b800e54f50002c003e006e4090008080fb00e8
:1029c800c00220000008b800028520000000410075
:1029d800200798002e009000a1002000908f100082
:1029e8001d0032002e0090009e00780060019000cb
:1029f80011009000800f510017003a002e0090003f
:102a08001000e00002003a006e4190007247980002
:102a18002e0090009e00780070009000910f5000ea
:102a28000d003a002e0090009e009000400190009a
:102a3800d001900031009000c1009000800f51003b
:102a4800818f590004003a006e4090000080fb001e
:102a5800400798002f0037006e4090000040e800c3
:102a680060479800d1ff37007e409000e24f400059
:102a780003003a00e00f20004007980025003700c7
:102a88007e4090008080fb00c00220000008b80053
:102a98000285200000004100200798002e009000c9
:102aa8000080e800a20020009e00900099f6070030
:102ab800ae0090001e00780010007800f00098002a
:102ac800ae009000511090000030a100d010980086
:102ad8002e00900000509000e14f400006003200a8
:102ae8002e009000005090008a030700ae0090006e
:102af80000c0eb0080509800ae009000511090008c
:102b08000010a000d01098007e4090000080fb00cc
:102b1800400798004e0090000080fa000000060070
:102b28000200fa00881f7800000f78001e04780061
:102b38001e00780010007800d61b0700000c7800f3
:102b48001e0478001e00780010009000d11b0700ba
:102b5800100498001e0478001e007800b000900051
:102b680020009000d81b070020049800310498002a
:102b78001e0478001e007800d000900040009000ed
:102b8800d11b070040049800510498001e047800e7
:102b98001e00780070009000be1b070070049800ab
:102ba8001e0478001e00780000089000b91b07007a
:102bb800000c98001e0478001e0078001008900091
:102bc800b41b0700100c98004f0478000080fa002e
:102bd800000006000200fa00000f78001e007800ce
:102be80000509000e14f40000a0032001e007800bb
:102bf80000509000470307009e00780000c0eb00db
:102c0800805098009e007800511090000010a0009d
:102c1800d01098001e0178006000b80040019800ac
:102c2800510198009e0078000000eb00f000980029
:102c38001e00780050109000680060000000e0005e
:102c480001003200440307009e00780051109000f4
:102c58000030a100d01098001e017800c01220009a
:102c68000100200030119800411198009e00780062
:102c7800511090000040a100d01098001e0078006c
:102c880050109000610060000000e0000400320075
:102c98009e0078000000eb008008780003003700f1
:102ca8009e007800a0002000800878009e00780030
:102cb8000000eb00900898000080fa000000060071
:102cc8001c00fa00881f7800004f78001107980050
:102cd80022079800330798009e80fb00c00220005e
:102ce8000008b8000285200000004100400f98004d
:102cf8000040eb00205f9800ce0890000040eb00f9
:102d0800806098004e0c9000c723070010149800ac
:102d1800211498004e099000c012200001002000e4
:102d280030119800411198002e009000e0009000aa
:102d380000402000008060000000e0000800320031
:102d480005030700ce0890004e0890005010900030
:102d58000000a2006100600080087800d7013700f9
:102d68004e08900040099000d00990006207980032
:102d7800730798002e009000700090006102b80060
:102d88002e0090006e019000fe019000d00090008f
:102d9800400090000000510081805900000152005d
:102da80081815a004e089000100890000100200010
:102db8000000510081805900400798005107980091
:102dc8004e009000de009000e00f5000e08f5800a9
:102dd80004003d00ce0890000000eb00b008980009
:102de800030037004e089000ce0190003308980089
:102df8004e08900011002000908f100048003a0003
:102e08002e009000e000900000202000008060006c
:102e18000000e0000a003a00cf0207002e009000f0
:102e2800e000900000002100008060000000e00049
:102e3800a201320040c0b300205f98008b01370028
:102e48004e0a9000ae0090003e0090006101b8006c
:102e580021009000b10090000200400083804800eb
:102e680061004000e0804800600a9800710a9800fc
:102e78004e08900060099000f00990004207980001
:102e8800530798002e009000e000900000002100f9
:102e9800008060000000e00007003a004e08900043
:102ea8002100200001087800ab02070020c1b30010
:102eb800205f98006d013700ce0890003000200098
:102ec8008008780000c1b300205f9800ce08900009
:102ed8002e00900070009000b00898003e0090000e
:102ee8000000e0000c003200ce0890005110900065
:102ef8000030a000d01098004e089000be0190004d
:102f080023089800ce089000511090000020a000df
:102f1800d0109800550137008f0207005301370081
:102f28004e0890001000e00037003a008a020700bf
:102f38002e009000e000900000202000008060003b
:102f48000000e00003003a0040c0b300205f980092
:102f5800460137004e0a9000ae0090003e009000f7
:102f68006101b80021009000b1009000020040000b
:102f78008380480061004000e0804800600a9800b3
:102f8800710a9800ce0890002e0090007000900002
:102f9800b00898004e0890000080e800a2002000c9
:102fa8009e0090005bf50700ce0890002e00900070
:102fb80010007800f0009800ce0890002000200053
:102fc800800878004e089000780240001400be0087
:102fd8000001be0062079800730798006100400076
:102fe800e0804800008abe004e089000600990000a
:102ff800f0099000420798005307980020c1b300d9
:10300800205f9800190137004e0890006009900071
:10301800f0099000020f9800130f98004e089000d6
:1030280040099000d0099000220f9800330f9800b3
:103038002e00900020019000b001900042079800f7
:10304800530798003e0090006101b8004e009000c0
:10305800de00900000004100818049004007980090
:10306800510798004e08900040099000d009900040
:1030780062079800730798002e00900020019000c6
:10308800b00190000e0890009e089000800f51003b
:10309800818f5900ee003a004e089000230020006e
:1030a800908f110021003a002e009000e00090005f
:1030b80000002100008060000000e00019003200dc
:1030c8004e0890004e019000de01900062089800c2
:1030d80073089800ce08900030002000800878001f
:1030e8003e0090000000e0000c003200ce08900086
:1030f800511090000030a000d01098004e089000a9
:10310800be01900023089800ce089000511090004e
:103118000020a000d0109800d40037000e0207004d
:10312800d20037000c020700d00037004e0890008c
:103138004e019000de019000620898007308980024
:103148004e08900033002000908f11005c003a0078
:103158002e009000e0009000000021000080600038
:103168000000e000130032004e089000501090005c
:10317800620060000000e0000e003a004e08900077
:1031880000509000e14f40000a0032004e089000c5
:1031980000509000df010700ce08900000c0eb004f
:1031a80080509800ce089000511090000010a000a8
:1031b800d01098002e009000e00090000010200031
:1031c800008060000000e0001800320010c1b30069
:1031d800205f98004e089000780240001400be005e
:1031e8000001be0062079800730798006100400064
:1031f800e0804800008abe004e0990004e0890000a
:10320800f00890006008900061004000e0804800ed
:1032180060099800710998004007980051079800c4
:10322800ce08900090002000800878003e009000b2
:103238000000e000200032004e089000501090007e
:10324800680060000000e0000f003a00ce0890001f
:10325800511090000030a000d01098004e08900047
:10326800be00900021089800ce08900051109000f0
:103278000020a000d01098002e5890000044a00014
:10328800205f9800790037004e0890002e099000c2
:10329800be09900042089800530898004e08900014
:1032a8000e0990009e099000620898007308980023
:1032b800a90107006d003700a70107006b00370060
:1032c8004e08900093002000908f11000a003a00e9
:1032d800a10107002e009000e000900000002100ee
:1032e800008060000000e000600032004e0890009e
:1032f80038fe07005d0037004e08900041002000ae
:10330800908f10002a003a00930107002e009000c9
:10331800e000900000102000008060000000e00045
:103328001900320000c1b300205f98004e099000d8
:103338004e089000f008900060089000610040007e
:10334800e0804800600998007109980040079800db
:10335800510798002e009000e00090000000210026
:10336800008060000000e000030032004e0890007a
:1033780018fe07003d003700ce08900060002000ce
:1033880080087800390037002e009000e000900097
:1033980000002100008060000000e00033003200df
:1033a800ce08900050002000800878002f003700d9
:1033b8004e08900052002000900f110016003a00ad
:1033c800650107002e009000e0009000001020002a
:1033d800008060000000e0002400320000c1b3005b
:1033e800205f98004e0990004e089000f008900069
:1033f8006008900061004000e08048006009980083
:103408007109980040079800510798004e089000ed
:10341800f0fd0700150037004e08900063002000fb
:10342800908f110011003a004b0107002e00900008
:10343800e000900000002100008060000000e00033
:103448000a0032004e089000e2fd0700070037002e
:103458004101070000c1b300205f98000e089000ea
:103468009e08900040079800510798002e58900039
:103478000004e00011003200ae0090002e0490001d
:103488000000eb00801f78008f87e80000c0eb0089
:10349800e0ff9f00ae5990004e039000de039000bd
:1034a8006e029000fe0290001101780098009000d2
:1034b8001e00900066fc0700e48757004f04780060
:0834c8000080fa00000006007c
:020000040000fa
:1034d0000200fa00d5c2a800d3c2a900dec2a9002a
:1034e000df02a900dee2a8000000eb000012880065
:1034f000b0012000101288000000eb0020128800ac
:103500004302a80042a2a80041e2a800d0c1b30033
:103510004b040700004f78001e80fb00680060002d
:103520000000e000f9ff3a001e80fb000080ea0086
:10353000610060000000e000f4ff3a002e04070084
:10354000100020008b2107000040eb00004f7800a6
:1035500060c0b3009e4f100014003e009e80fb0030
:10356000600020000008b80063a5200003014000af
:103570009e80fb00802420000008b800830021000a
:10358000030940009e80fb00600020000008b80096
:10359000a2a5200082004000110078000000a000d9
:1035a000800878001e4fe800e9ff37000040eb007c
:1035b00054eab70010002000305488000000eb00ef
:1035c000105488008040eb0080c0b30087040700df
:1035d0008040eb0090c0b3008404070071c0b300ca
:1035e000c0c0b3008104070001c1b300d0c0b30064
:1035f0007e04070071c0b300a0c0b3007b040700c5
:1036000001c1b300b0c0b3007804070081c0b300ab
:1036100040c0b3007504070001c1b30050c0b3003f
:103620007204070000202000f0040700d1c0b3009e
:103630000040eb006d04070021c3b30020c0b300bd
:103640006a04070001c4b30030c0b3006704070078
:10365000f1c3b30090c0b3006404070021c1b300fc
:1036600060c0b30061040700c1c0b30070c0b30004
:103670005e040700e1ceb300a0c0b3005b04070006
:1036800051c0b300b0c0b300580407004030200060
:10369000d6040700e1a820009140780040c0b300a4
:1036a00052040700f1a820009140780050c0b300f8
:1036b0004e04070001a920009140780020c0b3000b
:1036c0004a04070011a920009140780030c0b300df
:1036d0004604070021a92000914078000040eb003b
:1036e0004204070031a920009140780010c0b300c7
:1036f0003e04070020c1b300d103070088eab700e9
:103700000110200000c1b300a104070021472000e0
:1037100040c1b3009e0407000000eb00bd04070099
:1037200041c0b300f0c1b300760407000080fa0086
:10373000000006000000fa0010c0b3000c040700ef
:103740004200de00610060000080fa000000060018
:103750000600fa00000f78001e00e00009003200a9
:10376000f0c1b300b60307000080fb004300de0099
:103770000080fb000000a2006100600020079800ac
:103780002400370080cabf00544ae30009003a0011
:10379000f0c1b300aa0307000080fb004300de0075
:1037a0000080fb000000a20061006000200798007c
:1037b0001800370010c0b300204798002e4090003a
:1037c000e64f500011003e002e4090008080fb002c
:1037d000600020000008b800a2a520000200400000
:1037e00010407800614060000004e00003003200f7
:1037f0001000200020079800060037002e4090009f
:103800000040e80020479800ecff37000001eb0083
:10381000220798002e0090000080fa0000000600a9
:103820000800fa00000f78001e00e0000d003200d2
:10383000f0c1b30082030700684060000004e000ac
:1038400003003200f00f200030079800020037001c
:103850000001eb00320798003e009000200798001e
:103860002b00370010c0b300204798002e40900076
:10387000e64f500024003e002e4090008080fb0068
:10388000600020000008b800a2a52000020040004f
:1038900010407800614060000004e0001600320033
:1038a0002e4090008080fb00600020000008b800df
:1038b000a2a5200082004000110078000000a100b5
:1038c000800878002e4090008080fb00600020007f
:1038d0000008b800a2a52000820040001100780076
:1038e0000010a100800878002e4090000080fb00ae
:1038f00020079800060037002e4090000040e800a6
:1039000020479800d9ff3700f00f200020079800cb
:103910002e0090000080fa00000006000200fa006d
:10392000004f780060c0b3009e4f10000a003e00b8
:103930009e80fb00600020000008b800a2a52000c7
:1039400082004000110078000000a000800878008c
:103950001e40780054eab7000080fa00000006001c
:103960000200fa00860ae20014003a00100020006b
:103970003054880010548000000fe90070002100ce
:103980009e0f10000200360070002100000f78002a
:1039900001c4b300e0c1b300da030700c000200097
:1039a000120407009e407800c0c0b3008f030700d8
:1039b0009e409000d0c0b3008c0307000080fa0046
:1039c000000006000600fa0090112000070407001e
:1039d00090c1b3001a030700004f7800e0002000f8
:1039e00002040700e0c0b300150307002047980059
:1039f000f0c0b30012030700304798009011200078
:103a0000fa03070090c1b3000d0307009e4f50005a
:103a1000efff3a00c0002000f4030700c0c0b3006d
:103a200007030700004f7800d0c0b300040307006d
:103a3000104798001e0090009e0f500006003600b0
:103a40001e0090009e0050007000210001005000f8
:103a5000200798000a0037001e0090009e0f5000bb
:103a600003003a007000210020079800040037008e
:103a70001e0090001e0010000000e90020079800c2
:103a80002e0090000080fa00000006001a00fa00e4
:103a9000881f7800000f780011079800901120000f
:103aa000d203070090c1b300e50207000004e00064
:103ab00003003a000000eb00400f98005800370068
:103ac000860ae20004003a00a5ff07000000eb00b0
:103ad000400f980052003700105480002054880096
:103ae0000000eb00c103070021a8200091407800ee
:103af0000040eb003d03070031a820009140780012
:103b000010c0b300390307006400470041012000e2
:103b10004302070064044700640047001008900057
:103b2000de170700100c9800e40047007000210029
:103b3000910f10001a003e004e409000614060005e
:103b40000004e00016003a006400470020009000e6
:103b50004f00de000000e00011003a006400470062
:103b6000200090004400de00610060000000e000e2
:103b70000b003a006400470090009000e05e2000d7
:103b8000808f500006003e00640047002000900037
:103b90004700de00610060000000e00001003a0024
:103ba0000000fe00640047001000780010548800f8
:103bb00064004700ec004000620020001e00780016
:103bc00056f207009e00900000c0eb00804878008d
:103bd0006400470030509000e84f50000c003a005d
:103be00064004700205090000004e0000400320010
:103bf0006400470020509000e64f500004003a0057
:103c00009e0090006400470020509000804878009b
:103c10000000eb003054880010002000400f980096
:103c20004e0890004f0478000080fa000000060063
:103c30000800fa00000f780021479800220798003a
:103c4000200020006903070054cabf008080fb00e9
:103c5000600020000008b80062a5200002004000bb
:103c60009040780020c0b300e002070054cabf00b3
:103c70008080fb00600020000008b80072a52000d2
:103c8000020040009040780030c0b300d702070027
:103c900054cabf008080fb00600020000008b8000c
:103ca00062a52000820040002e009000110040001c
:103cb0006e0040002007980054cabf008080fb00bf
:103cc000600020000008b80082a52000020040002b
:103cd000ae009000010878000040eb00fe010700f4
:103ce000610020001e0078001a0207006100200019
:103cf000e0a820001702070080c0b300f60107000b
:103d00002e4090000004e0000300320062c0b300c7
:103d100062479800020037000040eb0060479800bf
:103d20006e409000ec0107000080fa0000000600e1
:103d30000e00fa00400020002c03070054cabf0008
:103d40008080fb00600020000008b80062a5200011
:103d5000020040009040780040c0b300a30207007a
:103d600054cabf008080fb00600020000008b8003b
:103d700072a52000020040009040780050c0b300bf
:103d80009a02070054cabf008080fb006000200038
:103d90000008b80082a52000020040009040780092
:103da00060c0b3009102070054cabf008080fb00ce
:103db000600020000008b80092a52000020040002a
:103dc0009040780070c0b3008802070054cabf005a
:103dd00080eab70054cabf008080fb00600020006a
:103de0000008b800a2a52000820040001100780061
:103df0000010a00080087800c0c1b30010020700c6
:103e0000624060000004e0000600320001c8b30018
:103e1000f0c1b300bb02070001c8b300f0c1b3009a
:103e200095020700a1c0b300c0c1b3009202070011
:103e300081c0b300f0c1b300b202070080a8200027
:103e400051c0b30090cf100060003a00c0c1b30071
:103e5000fb0107000080fb006a0060000000e0003a
:103e6000faff3200c0c1b300f501070062406000f4
:103e70000004e0005500320081c0b300f0c1b3007f
:103e80007d0207000000eb00d80207000040eb00b5
:103e9000eb010700004f780010c0b300e8010700f5
:103ea0001047980060c0b300e50107002047980064
:103eb00070c0b300e2010700304798001e00900078
:103ec0000000e80010079800ae4090000040eb00b2
:103ed00046020700be40900010c0b3004302070036
:103ee00064004700810020004d0107000040eb0006
:103ef000404f98004e489000ef4f50002d003e007c
:103f0000c0c1b300ce010700624060000004e000c1
:103f10002800320064004700100090004d00de00d1
:103f2000610060000000e0002200320001c8b30020
:103f3000f0c1b3007302070001c8b300f0c1b300c1
:103f40004d020700a1c0b300c0c1b3004a02070080
:103f500081c0b300f0c1b3006a020700c0c1b30062
:103f6000b70107000080fb006a0060000000e0006d
:103f7000faff320081c0b300f0c1b3003e02070077
:103f8000ae4090000040eb0018020700be409000d9
:103f900010c0b30015020700640047008100200034
:103fa0001f0107004e4890000040e800404f980075
:103fb000d0ff37009e4078000040eb000b02070066
:103fc0009e40900010c0b300080207000080fa0075
:103fd000000006000400fa00000f78002054800062
:103fe0001e00400074004000100798009e009000e2
:103ff00070002100808f5000040036001e009000e9
:1040000081ff2e0001004000100798000000eb0027
:1040100076020700ae4090000040eb00f30107007d
:10402000be40900010c0b300f0010700ae40900009
:1040300020c0b300ed010700be40900030c0b300c7
:10404000ea0107000080fa00000006000400fa0000
:10405000004f7800110798001e40780054eab7001e
:104060009e80fb00600020000008b80062a52000d0
:10407000820040001e009000110040006f004000d0
:10408000100798002000200058020700ae40900062
:104090000040eb00d5010700be40900010c0b30007
:1040a000d2010700ae40900020c0b300cf0107004e
:1040b000be40900030c0b300cc0107000080fa0081
:1040c000000006000600fa00000f780011079800b3
:1040d000205480001e00400074004000200798001b
:1040e000ae00900070002100808f50000400360068
:1040f0002e00900081ff2e00010040002007980054
:104100000001200039020700ce40900000c1b3003a
:10411000b6010700de40900010c1b300b3010700f4
:10412000ae0090001e009000008040000000e900fa
:1041300020079800ae00900070002100808f500092
:10414000040036002e00900081ff2e000100400088
:1041500020079800ce40900020c1b300a3010700c3
:10416000de40900030c1b300a001070001c3b300de
:10417000f0c1b300e3010700f0c1b3003001070054
:104180000042b2000004e000fbff3a0060c1b3004f
:104190002b0107005047980070c1b30028010700a9
:1041a000404798002e0090000080fa0000000600b2
:1041b0000600fa00000f78001107980054cabf00eb
:1041c0008080fb00600020000008b80062a520008d
:1041d00002004000100078001e0040006f00400008
:1041e000200798000001200000020700ce40900048
:1041f00000c1b3007d010700de40900010c1b30094
:104200007a010700ae0090001e0090000080400080
:104210000000e90020079800ce40900020c1b300c4
:1042200072010700de40900030c1b3006f0107004b
:1042300001c3b300f0c1b300b2010700f0c1b30085
:10424000ff0007000042b2000004e000fbff3a005c
:1042500060c1b300fa0007005047980070c1b30076
:10426000f7000700404798002e0090000080fa00f9
:10427000000006000600fa00000f78001e00e000b3
:1042800003003a000080eb0020079800420037004e
:10429000110020009e8f100006003a004100070028
:1042a0000080fb004800dd000080ea002007980045
:1042b000390037000000eb00cc0107000040eb00a4
:1042c000df0007002047980010c0b300dc000700a3
:1042d00030479800ae40900000c1b3004301070092
:1042e000be40900010c1b300400107009e00900046
:1042f00070002100808f50000d003e001e009000d5
:104300001e0040000000e900100798009e00900089
:1043100070002100808f5000090036001e009000c0
:1043200081ff2e00010040001007980004003700b4
:104330001e0090001e0040000000e90010079800d9
:10434000ae40900020c1b30028010700be4090009d
:1043500030c1b3002501070001c3b300f0c1b300b1
:1043600068010700f0c1b300b50007000042b200c9
:104370000004e000fbff3a0060c1b300b00007009a
:104380002047980070c1b300ad0007003047980087
:104390001e009000200798002e0090000080fa0078
:1043a000000006000200fa00d5c2a9008540a9005d
:1043b000a00320004012880085c0bf000080fb00e1
:1043c0004200de000080fb00610060000000e000b1
:1043d000f9ff320040128000004f78008540a900ac
:1043e0000000eb004012880085c0bf000080fb0089
:1043f0004200de000080fb00610060000000e00081
:10440000f9ff320040128000004f78008540a9007b
:10441000d5c2a8001e80fb000080fa000000060044
:104420000800fa00000f780011079800d5c2a90013
:104430008540a900a0032000401288000000eb0086
:10444000200798001e0fe90085c0bf000080fb0018
:104450004200de000080fb00610060000000e00020
:10446000f9ff320040128000604798008540a900a3
:10447000ae0090001e009000808f500012003100ae
:104480000000eb00401288002e0090000000e800c1
:10449000200798001e0fe80085c0bf000080fb00c9
:1044a0004200de000080fb00610060000000e000d0
:1044b000f9ff32009e0078004012800080487800aa
:1044c0008540a900eaff3700d5c2a8002e00900061
:1044d0000080fa00000006000200fa00004f780099
:1044e000d5c2a9008540a900a0072000401288007d
:1044f00085c0bf000080fb004200de000080fb00a2
:10450000610060000000e000f9ff3200401280000e
:10451000104798008540a9001e80fb0040128800cb
:1045200085c0bf000080fb004200de000080fb0071
:10453000610060000000e000f9ff320040128000de
:10454000104798008540a900d5c2a8000080fa0055
:10455000000006000600fa00000f7800110798001e
:10456000d5c2a9008540a900a007200040128800fc
:1045700085c0bf000080fb004200de000080fb0021
:10458000610060000000e000f9ff3200401280008e
:10459000404798008540a9001e0090000000e00000
:1045a000120032001e0078001080fb0040128800cc
:1045b0001e0fe8001e0090000000e90010079800a0
:1045c00085c0bf000080fb004200de000080fb00d1
:1045d000610060000000e000f9ff3200401280003e
:1045e000404798008540a900ebff3700d5c2a800de
:1045f0000080fa00000006000200fa00d5c2a900ff
:104600008540a900f00f20004012880085c0bf003f
:104610000080fb004200de000080fb0061006000c3
:104620000000e000f9ff320040128000004f7800e7
:104630008540a900d5c2a8000080fa00000006004d
:104640000200fa00004f7800d5c2a9008540a900f9
:104650001e80fb004012880085c0bf000080fb0068
:104660004200de000080fb00610060000000e0000e
:10467000f9ff320040128000104798008540a900e1
:104680000000eb004012880085c0bf000080fb00e6
:104690004200de000080fb00610060000000e000de
:1046a000f9ff320040128000104798008540a900b1
:1046b000d5c2a8001e4090000080fa00000006004d
:1046c0000200fa00004f7800d5c2a9008540a90079
:1046d0001e80fb004012880085c0bf000080fb00e8
:1046e0004200de000080fb00610060000000e0008e
:1046f000f9ff320040128000104798008540a90061
:104700000000eb004012880085c0bf000080fb0065
:104710004200de000080fb00610060000000e0005d
:10472000f9ff320040128000104798008540a90030
:104730000000eb004012880085c0bf000080fb0035
:104740004200de000080fb00610060000000e0002d
:10475000f9ff320040128000104798008540a90000
:10476000d5c2a8001e4090000080fa00000006009c
:104770000400fa00004f7800402120009b00070051
:104780009e40780040c1b3001800070011c0b3007c
:1047900020c1b30015000700a030200093000700df
:1047a000a0c0b300c6ff0700614060000004e00045
:1047b000fbff3a00402120008c0007008040eb0006
:1047c00020c1b3000900070080c1b300bcff07008f
:1047d0002047980090c1b300b9ff07003047980008
:1047e0001e0090000080fa00000006000400fa009d
:1047f000004f780011479800d5c2a9008540a90054
:1048000000c4b3001e4070000080fb00401288000e
:1048100085c0bf000080fb004200de000080fb007e
:10482000610060000000e000f9ff320040128000eb
:10483000204798008540a9001e4090000080fb00a2
:104840004012880085c0bf000080fb004200de00ef
:104850000080fb00610060000000e000f9ff320012
:1048600040128000204798008540a900d5c2a800ca
:104870000080fa00000006000400fa00004f7800f3
:1048800011479800d5c2a9008540a90000cab3000d
:104890001e4070000080fb004012880085c0bf00f1
:1048a0000080fb004200de000080fb006100600031
:1048b0000000e000f9ff320040128000204798001d
:1048c0008540a9001e4090000080fb004012880037
:1048d00085c0bf000080fb004200de000080fb00be
:1048e000610060000000e000f9ff3200401280002b
:1048f000204798008540a900d5c2a8000080fa0092
:10490000000006000400fa00004f780011479800ec
:10491000d5c2a9008540a90000c8b3001e407000a0
:104920000080fb004012880085c0bf000080fb00b3
:104930004200de000080fb00610060000000e0003b
:10494000f9ff320040128000204798008540a900fe
:104950001e4090000080fb004012880085c0bf0010
:104960000080fb004200de000080fb006100600070
:104970000000e000f9ff320040128000204798005c
:104980008540a900d5c2a8000080fa0000000600fa
:104990000400fa00004f7800110798004021200021
:1049a000120007009e40780040c1b3008fff07004f
:1049b000ae40900060c1b3008cff0700be40900085
:1049c00070c1b30089ff0700a03020000700070076
:1049d000a0c0b3003aff0700614060000004e0009f
:1049e000fbff3a000080fa00000006000200fa0017
:1049f000000f780031c0b300f0c1b3009eff070084
:104a00009e409000f0c1b300beff07000080fa0096
:104a1000000006000800fa00000f7800c1c0b300d3
:104a2000f0c1b30094ff07000040eb0050ff070007
:104a300020079800200020009e0f100004003a007c
:104a40002e0090004800de00610f60000b00370070
:104a50002e0090001e017800e10061004809dd0091
:104a6000f1ef2f00010060000200700020079800a5
:104a7000ae0090000040eb00c5ff070020202000a2
:104a8000daff070020c0b3000dff070020479800a1
:104a90002e4090009e40780061c16000e1cfb300dd
:104aa000014060000240700020479800ae40900036
:104ab00020c0b3004dff07001e00e00003003200dd
:104ac00052c1b300624798000200370020c1b30012
:104ad00060479800ee40900040c0b30043ff0700dd
:104ae00041c0b300f0c1b30086ff07000080fa00a8
:104af000000006000000fa0041c0b300f0c1b3009e
:104b00005dff0700d0c1b300cdfe07006440600028
:104b10000004e000fbff3a0000000000f0c1b30019
:104b2000c7fe0700684060000004e000fbff3a0099
:104b300001c2b300e0c1b30072ff07000080fa00b9
:104b4000000006000000fa0001c2b300e0c1b3009b
:104b500049ff0700d0c1b300b9fe07006140600003
:104b60000004e000fbff320041c0b300f0c1b3001d
:104b700064ff07000080fa00000006000200fa004f
:104b8000004f78005031200098ff07009e407800c9
:104b900050c1b30015ff07000080fa0000000600b6
:104ba0000000fa005031200090ff070050c1b30010
:104bb000a3fe07000080fb000080fa000000060052
:020000040000fa
:104bc0000000fa000080fa00000006000000fa0071
:104bd000070307001a12070040062000e51b070024
:104be000c17b2800e0b3200005ef07007a12070020
:104bf000001c07003715070002012000d17d2800a6
:104c0000c0aa200045ee0700c0aa20001205070038
:104c10001d030700d5c2bf000080fb004500de0079
:104c20000080fb00610060000000e00001003a002d
:104c3000500407007b1907003d080700120b07000e
:104c400000558000610060000000e00004003a00b0
:104c500010c0b300bceab70080002000a05e88004e
:104c600000000000f21b07000001be00005b800096
:104c7000115b800000015100818159001003200068
:104c800001002000800f5100818f59000e00360076
:104c9000e71b0700005b8800115b8800c2c2bf00f1
:104ca0000080fb00610060000000a2006141600024
:104cb000212c200091407800e0cfb30000c06000bc
:104cc00002407000c2e2b700601907003308070015
:104cd000fb0a070058170700ff130700d40007005e
:104ce000bccabf00d84be300deff3200d8cbbf0008
:104cf000bceab700807a2800ad180700a0a8200001
:104d000004000700907b2800a9180700d0160700b0
:104d1000d4ff37000a00fa00881f7800000f7800df
:104d200000c1b300104f98008e80e8001e0078008c
:104d30001080fb00cb1207000e80e8009c180700d3
:104d40000040eb00004f98000e4890000084fb00ec
:104d50000e80e800afee0700800f54001100310014
:104d60006902470094407800014078000080fb0011
:104d7000e2b32000820140000e81e8000e4890005e
:104d80000080fb0002004000904978008140e8006c
:104d9000014a78000e4890000040e800004f98005b
:104da000e9ff3700e90147009340780001407800af
:104db0000080fb00e4b3200004014000e0c2b30027
:104dc000004978008140e80081497800e518070033
:104dd0000004e000fdff3a00e00220000019070097
:104de0008e80e8001e007800104090000080fb00dc
:104df0009c1207000e80e8006d1807000040eb00d1
:104e0000004f98000e4890000084fb000e80e800e0
:104e100080ee0700800f5400110031006902470046
:104e200094407800014078000080fb00e2b320004d
:104e3000820140000e81e8000e4890000080fb00d7
:104e400002004000904978008140e800014a780063
:104e50000e4890000040e800004f9800e9ff37003e
:104e6000e901470093407800014078000080fb0092
:104e7000e4b3200004014000e0c2b3000049780020
:104e80008140e80081497800b61807000004e0007e
:104e9000fdff3a00e0022000d11807008e80e800f4
:104ea0001e007800204090000080fb006d1207007b
:104eb0000e80e8003e1807000040eb00004f98000d
:104ec0000e4890000084fb000e80e80051ee0700c1
:104ed000800f5400110031006902470094407800af
:104ee000014078000080fb00e2b320008201400016
:104ef0000e81e8000e4890000080fb000200400098
:104f0000904978008140e800014a78000e489000fe
:104f10000040e800004f9800e9ff3700e901470032
:104f200093407800014078000080fb00e4b320004b
:104f300004014000e0c2b300004978008140e8006d
:104f400081497800871807000004e000fdff3a005f
:104f5000e0022000a21807008e80e8001e00780002
:104f6000304090000080fb003e1207000e80e800f9
:104f70000f1807000040eb00004f98000e4890000b
:104f80000084fb000e80e80022ee0700800f540032
:104f90001100310069024700944078000140780018
:104fa0000080fb00e2b32000820140000e81e80097
:104fb0000e4890000080fb000200400090497800fd
:104fc0008140e800014a78000e4890000040e80067
:104fd000004f9800e9ff3700000000001e489000d5
:104fe000ff4f50000b003e00e9014700934078005e
:104ff000014078000080fb00e4b320000401400081
:1050000000c2b300004978008140e800814978007f
:10501000f2ff370070110700521807000004e0008b
:10502000fdff3a004f0478000080fa0000000600ff
:105030000000fa0081b72000001880000912070064
:105040000080fa00000006000a00fa00000f780055
:10505000214798001e0078009000780000cdb30032
:1050600011404000304798003e4090000080fb0017
:10507000400798004e0090000000e000040032005d
:10508000ce009000e18f5000330032005400370012
:105090001e80e8009000780000cdb3001140400071
:1050a000404798004e4090000080fb003007980079
:1050b0003e0090000000e00004003200be009000be
:1050c000e18f5000100032001d003700c2c2bf0047
:1050d0000080fb000000d1000080fb006100600048
:1050e0000000a200614060000041d000212c20009f
:1050f00091407800d0cfb30000c060000240700043
:10510000c2e2b7000e003700c2c2bf000080fb0041
:105110004200de000080fb00610060000000a20091
:10512000614060004201dd00212c200091407800a8
:10513000b0cfb30000c0600002407000c2e2b70010
:105140001e007800a2002000717e28001000780068
:10515000f2ec0700270037002e409000e24f50008d
:10516000180036009e00780064804000100078002f
:10517000a8ed0700ff0f50000a003e0002022000c9
:1051800001022000e0b32000ddec07009e00780063
:105190006480400090007800e0b3200098ed0700a4
:1051a000060037009e007800648040000202200064
:1051b00090007800e0b32000d8ec0700061107004b
:1051c00001003700911107001e007800a2002000a6
:1051d000717e280010007800d0ec07000500370031
:1051e0001e007800a2002000717e280010007800c8
:1051f000caec07000080fa00000006003c00fa003c
:10520000004f780011079800220798001e40780090
:105210000081fb0003002000421f9800531f9800ec
:1052200070012000010020004e199000de1990004e
:10523000800f5100818f590051013e004e1890009f
:10524000de189000006001001700370026003700cc
:10525000a20037004a013700bd003700480137007f
:105260004701370046013700450137004401370048
:10527000430137004201370041013700c6003700c3
:10528000d6003700e6003700290037003a00370023
:105290004b0037005c0037006d0037007e003700a0
:1052a000f100370013013700ae009000410798006d
:1052b000c2c2bf000080fb00610060000000e0008f
:1052c0000300320012c3b300224f980002003700df
:1052d00003c3b300234f9800ae4890004e009000e7
:1052e00001487800260137002e01900062079800df
:1052f000c2c2bf000080fb000000d1000080fb00a4
:10530000610060000000e0000300320013c3b3003e
:10531000634f98000200370000c3b300604f98004d
:105320006e499000ee00900082487800140137002a
:10533000ae019000030f9800c2c2bf000080fb00c6
:105340004200de000080fb00610060000000e00021
:105350000300320010c3b30020579800020037004a
:1053600001c3b30021579800ae5190000e09900080
:1053700003497800020137002e009000200f9800aa
:10538000c2c2bf000080fb004300de000080fb00c3
:10539000610060000000e0000300320011c3b300b0
:1053a000615798000200370002c3b30062579800ab
:1053b0006e509000ae09900080497800f0003700f0
:1053c000ae009000410f9800c2c2bf000080fb00f9
:1053d0004400de000080fb00610060000000e0008f
:1053e0000300320012c3b300225f980002003700ae
:1053f00003c3b300235f9800ae5890004e0890009e
:1054000001487800de0037002e019000620f9800fe
:10541000c2c2bf000080fb004500de000080fb0030
:10542000610060000000e0000300320013c3b3001d
:10543000635f98000200370000c3b300605f98000c
:105440006e599000ee08900082487800cc0037003a
:10545000ae01900003179800c2c2bf000080fb009d
:105460004600de000080fb00610060000000e000fc
:105470000300320010c3b300206798000200370019
:1054800001c3b30021679800ae6190000e11900037
:1054900003497800ba0037002e00900020179800ca
:1054a000c2c2bf000080fb004700de000080fb009e
:1054b0000000e0000300320011c3b30061679800f0
:1054c0000200370002c3b300626798006e6090006c
:1054d000ae11900080497800a9003700ae0090001e
:1054e0002e4090000080fb0082b7200002004000a8
:1054f000904878002e4090000080fb0083b7200089
:10550000030040001004e00003003a000080eb00bc
:10551000300798009c0037001e0090000000e80053
:10552000100798000080fb0081b7200001004000b8
:105530001004e00003003a000081eb0032079800fd
:10554000910037001e009000300798008e00370051
:10555000ae01900043179800d5c2bf000080fb0049
:105560004500de000080fb00610060000000e000fc
:105570000300320010c3b300206f98000200370010
:1055800001c3b300216f9800ae6990004e119000e6
:10559000034978007a0037002e00900060179800c9
:1055a000c2c2bf000080fb004700de000080fb009d
:1055b0000000e0000300320011c3b300616f9800e7
:1055c0000200370002c3b300626f98006e6890005b
:1055d000ee1190008049780069003700ae0090001d
:1055e000011f9800d4c2bf000080fb004700de000e
:1055f0000080fb000000e0000300320012c3b30093
:10560000227798000200370003c3b3002377980085
:10561000ae7090000e1890000148780058003700d6
:105620002e019000221f9800d4c2bf000080fb0012
:105630004600de000080fb00610060000000e0002a
:105640000300320013c3b3006377980002003700f1
:1056500000c3b300607798006e719000ae189000a0
:1056600082487800460037001e0090000000e000ed
:1056700003003a006180280040b6200060ec07007b
:10568000ae0090002e4090000080fb0043b620004a
:1056900003004000904878002e4090000080fb00fe
:1056a00041b62000010040001004e00003003a0071
:1056b0000081eb0032079800330037001e00900095
:1056c0000000e800100798000080fb0043b62000af
:1056d000030040001004e00003003a000080eb00eb
:1056e00030079800280037001e009000300798000f
:1056f000250037001e0090000000e00003003a0083
:10570000c180280040b620003dec0700ae009000ac
:105710002e4090000080fb0042b6200002004000b6
:10572000904878002e4090000080fb0043b6200097
:10573000030040001004e00003003a000080eb008a
:1057400030079800100037001e0090000000e800ad
:10575000100798000080fb0041b6200001004000c7
:105760001004e00003003a000081eb0032079800cb
:10577000050037001e009000300798000200370037
:105780008081eb00330798003e0090000080fa0013
:10579000000006000600fa00000f780011079800cc
:1057a00032002000118228001e00780005ec07005e
:1057b0000000e00009003a00920020005182280019
:1057c0001e009000ffeb07000000e00003003a001d
:1057d0001000200020079800020037000000eb00b6
:1057e000200798002e0090000080fa0000000600bc
:1057f0000000fa00c002a900c022a900c042a9000e
:10580000c062a900c082a900c0a2a900c0c2a900ac
:10581000c202a900c222a900c242a900c262a90014
:10582000c282a900c2a2a900c2c2a900c2e2a90004
:10583000404e2800001988004040200010198800c0
:1058400030002100201988000000eb00401988007a
:105850002ca3a9002c83a900000220008019880035
:10586000dea2a900de82a80030032000c01188005b
:10587000000028008011880000402000901188005e
:105880000080fa00000006000400fa00a00aa80048
:10589000a0a82000100798008000eb0000cab30009
:1058a000970d0700a00d0700004f7800b60d070008
:1058b00050c5b3009e4f100014003a0011002000a4
:1058c00000cab3008e0d07000040eb00004f7800c7
:1058d00010c3b3009e4f10000a003e00920d070057
:1058e000804178000e81e800120078008000780086
:1058f000834878000000e800000978001e4fe800a7
:10590000f3ff3700a00d0700010037000200070079
:105910000080fa00000006000400fa00a0a82000a1
:10592000100798008000eb0000cab300e80d0700e4
:1059300050c5b300f00d07000040eb00004f7800a9
:1059400010c3b3009e4f100009003e000e80e80017
:1059500090007800114178008100e800010878008b
:1059600002407800e40d07001e4fe800f4ff370006
:10597000f10d07000080fa00000006000e00fa009a
:10598000881f7800000f7800110798001e0078002b
:10599000300798000040eb00004f98001e00780090
:1059a00010407800404798000004e00026003200d4
:1059b000ce409000e0c2b30080cf500015003a0006
:1059c0001e007800800078000040eb0080487800de
:1059d0001e0fe8009e019000680147001240780009
:1059e000804078008180fb00038440000040e80094
:1059f00000497800a20020008000eb003e009000eb
:105a0000ddea0700004c78001e007800300798009f
:105a10000b003700ce409000f0c2b30080cf5000a2
:105a200004003600ce40900090c3b30080cf5000f9
:105a3000030036000000eb00500798001400370008
:105a40001e0fe800d5ff37009e0090000e48900022
:105a50000080fb0001044000a20020008000eb0059
:105a60003e009000c4ea0700004c78000000eb0004
:105a7000600798000e489000e34f500002003a0083
:105a800010002000600798006e00900050079800fa
