:020000040000fa
:080000000001040000000000f3
:020000040000fa
:100200004fbd20008079220000018800000000001e
:10021000050007000c000700ec27020000000000aa
:100220000040da000000fe004440a900c0d92000d0
:100230000000e0000300320000002000a001880060
:100240004440a80000000600a06f25000100200027
:100250001600370062004000e080480091018800ed
:100260009001ba0062004000e080480091018800df
:100270009002ba0062004000e08048000002eb00fb
:100280006028e10005003a008301e900070033001f
:10029000038009000059eb00040037006128e100e9
:1002a000010032000082eb00050007009101880088
:1002b0001001ba000200e000e6ff3a00000005006d
:1002c000910188008002780062004000e0804800d0
:1002d0003559ba008301e900080032002559ba00f7
:1002e0008301e900050032000400e000f4ff320061
:1002f00015d9ba008301e900f1ff3a0000000600b9
:10030000800178000200e00003003200815978008b
:100310000201e900fdff3a000000060080017800bc
:100320000200e00003003200b15978000201e90048
:10033000fdff3a0000000600800178000200e000a6
:10034000070032001104e00005003200b1597800c6
:100350000201e900020032001104e000fbff3a0054
:100360000200e000030032008059eb000201e900c6
:10037000fdff3a0000000600ea874700889fbe00a4
:100380008a9fbe008c9fbe008e1f7800800678007a
:10039000010678008204780000047800010037002c
:1003a0000804e8001800fb00b30007000000e000ac
:1003b000fbff3a0098407800d0c2b30080cf5000d5
:1003c0000400320000c0e900d0ef9f0080cf500051
:1003d00002003a00d1ef9f000804e8000900e000a5
:1003e00046003500e18f54004400320040022000f6
:1003f000808f540041003c000900e0000d003400f3
:10040000f08f54001a003a0000c3b300984f100058
:1004100017003a009840900080c7b30080cf50008a
:100420001200320080c5b30080cf500010003a00a7
:100430000e00370000c3b300984f100002003200d6
:10044000a90020000a0037009840900080c7b30040
:1004500080cf5000040032008900200080c5b30026
:1004600080cf500002003a00090120000884e80013
:10047000d8b79f0000c3b300984f100002003a00a5
:10048000d84f1000feff32006055b8000807780012
:100490000e003700fab79f008bbf9f00a0a020007e
:1004a00000425200c4ef9f006149b9000a00be003b
:1004b0008f0007004fea97000401fb00cf91de0098
:1004c00000054100818549000804e8001800fb0090
:1004d000710007008000780009017800a0a02000ca
:1004e00074000700000278000000e000e9ff3a0015
:1004f0005fb09700880f500005003a000c00e00044
:10050000010032000d0e78006000b80027003700af
:100510008e005400f0a22000694078000000fb002b
:1005200000805000170033004240a9000f003c003b
:100530004fe997000200fb00cf80de00000055006d
:1005400081805d00800f5500818f5d0007003900bc
:100550006149b9006c0007007fb197008fb997001f
:10056000820f5000838f58000600320020022000c6
:10057000605e88000085eb008085eb00b3c2b300ad
:10058000d3ef9f00d0c2b3005fea9700804f5200c4
:1005900002003a0060051500e0851d000c00e00037
:1005a00001003200080e78000a00be004f077800f4
:1005b0004f06be004f05be004f04be00af00b100a5
:1005c000000006000200e0000b003200104278003c
:1005d00091417800834f5200030032000080eb000d
:1005e00006003900100005000000e8008100e80066
:1005f0000201e900f5ff3a000000eb0000000600f0
:1006000000017800314978003204e000fdff3a0033
:1006100000000600800078001004e00002003200b4
:100620005104e000feff3a00008050000000060088
:1006300010417800914f510006003a008001eb0014
:100640000204e0000a00320050417800d14f51000e
:10065000faff320010407800914f50000200310044
:100660000080eb00010037001000200080017800be
:1006700003007800000006006900e1000400350076
:100680006d00e100030034000002b10001003200ff
:100690000000050010000500800078001104b10082
:1006a000030035009101b10001003c000050a000a2
:1006b000000006000200e0000500320090cf1000ac
:1006c000040032000000e8000201e900fbff3a00ec
:1006d0000000eb0000000600705e80000000e000fb
:1006e0000100320000000100c0bc20000000060034
:1006f000020ab900001bb9000200b80081004200e4
:1007000081004300000006006022b80006022000bd
:100710000000d0008180d2000482d2008582d20005
:100720000000a0000202520083825a0003003b0036
:100730000202420083824a000000a1000603e90091
:10074000f3ff3a00000006000e00fa000e80e800f9
:10075000a2002000f10f2000e9fe07008e80e800d3
:10076000f2652700c0b2200011210700004f780079
:1007700000c0eb009e4f10006b0032000000000034
:100780001e407800b8e9b70010002000db05070024
:100790000000e000faff32000040eb00404f9800fc
:1007a0004e489000ee4f50000a003e004e48900028
:1007b0000080fb00c1aa200001004000104078002a
:1007c000492107004e4890000040e800404f980043
:1007d000f3ff3700d0c0b30043210700a0c0b3002f
:1007e000412107000040eb00404f98004e48900028
:1007f0000080fb00e1a820000100400010407800cc
:10080000310d0700382107004e4890000080fb00a2
:10081000e1a8200001004000104078003e0d0700d4
:10082000312107004e4890000040e800404f9800fa
:10083000e64f500003003200d0c2b3002a21070067
:10084000eaff3700d0c0b30027210700a0c0b300e3
:100850002521070040c4b3002321070080c4b30052
:100860002121070030c4b3001f21070000c5b300d9
:100870001d210700f0c2b3001b21070000c5b30013
:1008800019210700f0c6b3001721070070c7b30095
:100890001521070050c6b3001321070020c7b3007d
:1008a0001121070000c2b3000f21070050c6b3009a
:1008b0000d21070060c7b3000b21070050c6b3002d
:1008c00009210700e0c6b3000721070040c7b300b5
:1008d0000521070000c2b30003210700f0c6b300e2
:1008e0000121070030c6b300ff20070030c6b30067
:1008f000fd20070050c7b300fb20070020c7b3004e
:10090000f920070020c7b300f720070050c6b30046
:10091000f520070040c6b300f3200700312107008f
:100920001e407800d62007000080fa000000060074
:100930000400fa00c05d8000100798009e0090003f
:10094000e18f5000140032001e0190000200e00010
:10095000040032001e009000e20f50001c00320024
:1009600056003700f26527008000eb00f065270095
:100970008f200700baebb700a0bb200080c0eb00bf
:1009800090cf10004d003200c05d80000000e800f4
:10099000c05d880049003700bacbbf004321070083
:1009a0000000e000450032000e00780053210700ef
:1009b0008d21070040c4b3009e4f10003f003a0055
:1009c000c05d80000000e800c05d88003b0037008b
:1009d000bacbbf00b8e9b7001000200047050700f8
:1009e0000000e000350032000040eb00004f7800ce
:1009f000e2c0b3009e4f110007003e001e80fb00c6
:100a0000c1aa20000100400010407800b620070075
:100a10001e4fe800f6ff3700d0c0b300b220070039
:100a2000a0c0b300b02007000040eb00004f7800ea
:100a30001e80fb00e2a82000020040001040780069
:100a4000a10c0700a82007001e80fb00e1a82000e1
:100a50000100400010407800af0c0700a220070002
:100a60001e4fe80062c0b3009e4f11000300320029
:100a7000d0c2b3009c200700edff3700d0c0b30008
:100a800099200700a0c0b30097200700bacbbf0091
:100a90008080fb00800120000008b80082952000c3
:100aa00000004100a200200061ae20001bfe0700f4
:100ab000cc20070010002000c05d88000080fa00f4
:100ac000000006002200fa00000f780011079800cd
:100ad00064004700c1012000380807008b050700ab
:100ae00064004700b70007006400470011002000c1
:100af000908f100008003a006400470040409000ca
:100b0000e64f500004003a00640047005040900057
:100b1000e44f5000030032000001eb000217980080
:100b2000300037006400470030009000e20f5000b2
:100b300004003a009e0090000040eb0080487800de
:100b40000e0037006400470030009000e10f5000b5
:100b500004003a009e00900010c0b3008048780066
:100b6000060037009e00900020c0b3008048780047
:100b70008001eb00031798001a003700640047005b
:100b800040099000d00990005054800061548000ca
:100b9000800f5100818f590010003a009e007800ac
:100ba00064004700680040001001be008288be005b
:100bb00020009000a00098009e007800640047008c
:100bc0007001900080099000b2009800c300980066
:100bd0001300200003179800020037000000eb000c
:100be000001798000e1090000080fa000000060028
:100bf0002400fa00000f7800214798001000200020
:100c0000f2040700006798000e609000e14f40007a
:100c100003003a000000eb00101798006600370050
:100c20008000eb000e609000f3060700e400470030
:100c30001000200080087800e400470000802000b9
:100c400090009800e400470060c0b300c0409800e6
:100c5000e400470040c0b300d04098002e40900010
:100c6000e14f500016003a00e40047001000200059
:100c7000b0009800e400470000c0eb00a0509800ce
:100c8000e400470000c0eb00b0509800e4004700cb
:100c900000c0eb00c0509800e400470000c0eb002b
:100ca000d0509800e400470000c0eb00e0509800ee
:100cb000e400470000c0eb00f05098000a00370045
:100cc000e400470020002000b000980064004700c6
:100cd000f20040001e0078001001be008288be00b5
:100ce00020009000a00098006400470068004000c9
:100cf00072548000835480000288be0093548000a8
:100d00002300980064004700525480006354800020
:100d10007200980003089800640047009e00780065
:100d2000700190008009900031009000c100900097
:100d30000001690081816900a0548000b1548000e5
:100d40000000610081806100e00f5000e08f5800da
:100d50000600320064004700c2548000d354800073
:100d6000420898005308980006003700e400470046
:100d70001e00780030019000c0019000c208980069
:100d8000d3089800640047000e0007006400470085
:100d900072004000c201200061c0b3008f0507004f
:100da00064004700c1012000c9070700cb05070008
:100db00013002000131798001e1090000080fa0006
:100dc000000006000200fa00881f7800000f78007b
:100dd0001e0478001e00780010007800e10b070068
:100de000000c78001e0478001e00780010009000af
:100df000dc0b0700100498001e0478001e00780029
:100e000030009000d70b0700300498004f047800a2
:100e10000080fa00000006000000fa000000eb006d
:100e2000f05c880000c0eb00a0ebb70000c0eb0056
:100e3000a1ebb70000c0eb00a2ebb70000c0eb00d5
:100e4000a3ebb70000c0eb00a4ebb70000c0eb00c1
:100e5000a5ebb7006000b800305d8800415d8800f8
:100e60000080fa00000006000e00fa00f05c80002e
:100e70000000e00014003a00ea0047000e0078008d
:100e800010ff07000000e0001a0032002e4890001a
:100e90000004e0000a003a001e00be00005d880069
:100ea000115d8800ae009000215d88003e0090003a
:100eb000ce009000305d8800415d88000d00370055
:100ec00010002000f05c88008040eb000e007800ed
:100ed00047ff07000000e000030032000000eb00c5
:100ee000f05c8800030037008000eb006107980089
:100ef0000200370010002000600798006e0090008c
:100f00000080fa00000006000c00fa00000f7800d4
:100f10000e80e8009e0078001101be0032009800ab
:100f2000430098000e80e80011c0b30030ff0700b6
:100f30000080fa00000006000a00fa00000f7800a6
:100f4000110798001e017800305d8000415d80002f
:100f5000b20f5000a28f580007003200325d8000af
:100f6000435d8000c0548000d1548000800f510048
:100f7000818f59000b003a001e0090003007980046
:100f800000ba200040079800be0090004e0090007c
:100f900005000900b05878001100200021079800d2
:100fa000020037000000eb00200798002e009000a0
:100fb0000080fa00000006000800fa00000f780028
:100fc0001e0fe9000080eb009e0f10001800320099
:100fd00040c0b300204798002e4090000040e90038
:100fe00020479800e14f4000f5ff3200904c200070
:100ff0000100200020079800310798002e00900083
:10100000be00900061005000e08058000001be006a
:1010100022079800330798000080eb008080eb00e7
:10102000800f5100818f5900f4ff3a00eaff37002a
:101030000080fa00000006000000fa00905d8000c9
:10104000e80f50000d00320040bb200080c0eb00d4
:1010500090cf100002003200b4cbbf00081f070081
:1010600000c0eb00b4ebb7000000eb00905d88001f
:101070000040eb00b6ebb700b50ba9000080fa000a
:10108000000006001200fa00905d8000000f98003a
:101090008e089000e38f5000420032000e0890004e
:1010a000e30f500007003e008e089000e18f5000d3
:1010b000140032000e089000e10f50002b003e009b
:1010c0000d0037008e089000e58f5000660032005a
:1010d0000e089000e40f50004d0036008e0890007e
:1010e000e68f50006e0032000e089000e70f5000af
:1010f000b5003200e60037006000b800505b8800a1
:10110000615b880000c0eb00004f780000c0eb007e
:101110001047980000c0eb002047980000c0eb008b
:101120003047980000c0eb004047980000c0eb003b
:10113000504798000080eb008080eb00300798005b
:1011400041079800320420008e00780040042000ff
:10115000971e0700b4ebb700781e0700f05a88000e
:10116000015b880020002000905d8800731e07004e
:101170000001be00f05a8000015b800000015100b8
:10118000818159003001200001002000800f5100b2
:10119000818f5900be00360030002000905d88002d
:1011a000bb003700c003200001002000305b880036
:1011b000415b8800b5cbbf00614060000004e000e7
:1011c0000300320050002000905d8800b00037001e
:1011d000b4cbbf00b8e9b7001000200047030700f8
:1011e0000000e000aa00320010c0b300180207009f
:1011f0000040eb007aebb700501e0700f05a880061
:10120000015b880040002000905d8800a00037004e
:101210004a1e07000001be00f05a8000015b8000fa
:101220000001510081815900700c20000100200054
:10123000800f5100818f59000200360030002000dd
:10124000905d8800b4cbbf00181f07000000e000cd
:101250008f00320090000700e24f50008c003a00ef
:1012600050002000905d8800b4cbbf00b8e9b70003
:1012700010002000210307000000e000840032007d
:1012800030c0b300f20107002c1e0700f05a88009e
:10129000015b880060002000905d88007c003700c2
:1012a000b4cbbf00011f07000000e000380032008f
:1012b00079000700204f98002e489000e64f50001c
:1012c00002003a005cff0700710037002e489000d2
:1012d000e54f50006e003a00b4cbbf00681e070017
:1012e00000c0eb00b4ebb700141e0700f05a8800f2
:1012f000015b880070002000905d88007acbbf0001
:10130000614060000004e00004003200505b800097
:10131000615b800050548800615488007acbbf0024
:10132000644060000004e00004003200905b800034
:10133000a15b8000a0548800b15488007acbbf0024
:10134000624060000004e00004003200705b800036
:10135000815b8000c0548800d15488007acbbf00e4
:10136000684060000004e00004003200b05b8000d0
:10137000c15b8000e0548800f1548800b50ba800e0
:10138000b6cbbf000040e800b6ebb7004000370026
:10139000ea1d07000001be00f05a8000015b8000da
:1013a0000001510081815900700c200001002000d3
:1013b000800f5100818f5900350036003000200029
:1013c000905d880032003700dc1d07000001be0080
:1013d000f05a8000015b80000000510081805900bc
:1013e00060079800710798006e019000fe01900060
:1013f0003006200001002000800f5100818f59002d
:1014000023003600305b8000415b800061005000ab
:10141000e0805800305b8800415b88006e019000de
:10142000fe019000c0f92f00f1ff2f0002004000e4
:10143000838048006007980071079800305b800047
:10144000415b8000e00f5000e08f580002003a003e
:1014500010002000905d88006e019000fe01900059
:101460003006200001002000800f5100818f5900bc
:10147000e4ff3e00b11d07006e019000fe019000e8
:101480000200500083805800f05a8800015b8800f9
:101490000080fa00000006000e00fa000040eb0099
:1014a000304798000e007800941e070020c0b3005b
:1014b0009e4f100049013a000040eb001047980091
:1014c0001e409000ee4f500006003e000e007800d7
:1014d0008a1e07001e4090000040e8001047980058
:1014e000f7ff3700b5cbbf00624060000004e000aa
:1014f0000b0032000040eb00104798001e409000a7
:10150000e34f50000f003e000e0078007b1e0700e6
:101510001e4090000040e80010479800f7ff370099
:10152000a0b62000751e0700b0b62000731e07008d
:10153000c0b62000711e0700d0b620006f1e070045
:101540007a0ba8000040eb00104798001e40900066
:10155000e74f500006003e000e007800671e0700af
:101560001e4090000040e80010479800f7ff370049
:101570000040eb00104798001e409000e54f5000df
:101580000d003e000e0078005c1e07001e4090001b
:101590000080fb00e1a82000010040001e4178000f
:1015a000904f510024013a001e4090000040e80096
:1015b00010479800f0ff37000040eb0010479800fc
:1015c0009e409000d0ccb30080cf500006003e007b
:1015d0000e007800491e07001e4090000040e80001
:1015e00010479800f6ff37000000eb002007980036
:1015f0000e007800411e07000000e00003003a00e2
:101600001000200020079800f40037009e81fb00a6
:101610006307980030032000ee009000808f500098
:10162000b5003200300320006e019000800f5100a1
:101630000e003c00ee019000e38f51004a003200a2
:101640006e009000e30f500004003c00ee0090009c
:10165000e18f500026003200d30037006e01900069
:10166000e60f510068003200cf0037006003200011
:10167000ee019000808f51008b003200600320004b
:10168000ee009000808f500005003c0050032000c9
:101690006e019000800f510006003200c20037003a
:1016a000f00f2000ee019000808f51008f0032007b
:1016b000bd0037000e007800101e070010c0b300f8
:1016c0009e4f1000dc003a00630047000b1e07002d
:1016d000b5cbbf00624060000004e000bc003200f7
:1016e0003e409000e24f5000b9003a00d20037006f
:1016f0000e007800011e070041c0b3009ecf10000d
:10170000cd003a00b5cbbf00624060000004e000ad
:101710000b0032000040eb00104798001e40900084
:10172000e34f5000aa003e000e007800f31d0700b2
:101730001e4090000040e80010479800f7ff370077
:1017400020b72000ed1d070030b72000eb1d07007b
:1017500040b72000e91d070050b72000e71d070033
:101760007a4ba8009a0037000e80e800e31d0700be
:101770002e409000e34f5000af003600b5cbbf00c5
:10178000624060000004e0000b0032000040eb000b
:10179000104798001e409000e34f50000f003e009d
:1017a0000e007800d51d07001e4090000040e800a4
:1017b00010479800f7ff3700e0b62000cf1d070064
:1017c000f0b62000cd1d070000b72000cb1d07009c
:1017d00010b72000c91d07007a2ba8002e409000ea
:1017e00064405000204798002e4090000040e900df
:1017f00020479800e14f4000750032000e0078004d
:10180000be1d0700f8ff37000e80e800bb1d070073
:101810002e409000e34f500087003600b5cbbf004c
:10182000624060000004e0000b0032000040eb006a
:10183000104798001e409000e34f50000f003e00fc
:101840000e007800ad1d07001e4090000040e8002b
:1018500010479800f7ff370060b72000a71d07006a
:1018600070b72000a51d070080b72000a31d07004a
:1018700090b72000a11d07007a6ba8002e409000b1
:1018800064405000204798002e4090000040e9003e
:1018900020479800e14f40004d0032000e007800d4
:1018a000961d0700f8ff37000e007800931d070013
:1018b00042c0b3009e4f11005f003a00660047002f
:1018c000630040008d1d0700660047000080e800af
:1018d0008a1d0700660047000000e800871d07001a
:1018e00066004700851d0700390037001000200002
:1018f00020079800360037000e0078007f1d070093
:1019000043c0b3009ecf11004b003a00b5cbbf00df
:10191000624060000004e0000b0032000040eb0079
:10192000104798001e409000e34f500028003e00f2
:101930000e007800711d07001e4090000040e80076
:1019400010479800f7ff370090b620006b1d070086
:1019500080b62000691d070070b62000671d0700d3
:1019600060b62000651d0700325b8000435b80008d
:101970008070200001002000800f5100818f5900ed
:1019800013003600808f2f00f1ff2f00325b8000a4
:10199000435b80000201400083814800325b880085
:1019a000435b88000a0037000e80e800531d0700e3
:1019b0002e4090000040e90020479800e14f400091
:1019c000030032000e0078004c1d0700f8ff3700be
:1019d0002e0090000000e00005ff32003e40900025
:1019e000e24f500006003a003e009000ce0090000a
:1019f000105b8800215b8800b52ba8000900370028
:101a0000125b8000235b80003e009000ce009000bf
:101a1000800f5100818f5900020032000040eb001e
:101a200030479800701d07003e4090000080fb008a
:101a300050079800030037006b1d07008000eb0083
:101a4000510798005e0090000080fa000000060038
:101a50000200fa00004f780010c0b300a21c07007b
:101a600010c0b300a01c070060c0b3009e1c07009c
:101a70000040eb009c1c070020c1b3009a1c07002b
:101a800030c2b300981c070040c3b300961c070087
:101a900060c5b300941c07000040eb00921c0700d7
:101aa0000040eb00901c070000c8b3008e1c07002c
:101ab0000040eb008c1c07000040eb008a1c070074
:101ac0000040eb00881c07000040eb00861c07006c
:101ad0000040eb00841c07000040eb00104798001a
:101ae0001e409000eb4f500006003e000040eb000f
:101af0007d1c07001e4090000040e8001047980041
:101b0000f7ff37008ecabf00771c07008fcabf00df
:101b1000751c070090cabf00731c070091cabf0064
:101b2000711c070092cabf006f1c070093cabf0058
:101b30006d1c07000040eb00104798009e4090008d
:101b400090ccb30080cf500006003e000040eb0078
:101b5000651c07001e4090000040e80010479800f8
:101b6000f6ff370030c6b3005f1c070020c8b30083
:101b70005d1c070030c5b3005b1c070030c6b30016
:101b8000591c070050c3b300571c070010c0b30016
:101b9000551c07001e407800531c070010c0b300fe
:101ba0009e4f100001003a00b52ba90010c0b300f1
:101bb0009e4f100011003200505b8000615b80007e
:101bc000e00f5000e08f58000c00320060c3b300fb
:101bd000451c070040c0b300431c070065cbbf0095
:101be000411c070064cbbf003f1c070063cbbf0054
:101bf0003d1c070062cbbf003b1c070070c3b30055
:101c0000391c070040c0b300371c070010c0b300e8
:101c1000351c070030c0b300331c070060c0b300a0
:101c2000311c0700c0c0b3002f1c070030c0b30038
:101c30009e4f10000c003a0020c3b3002a1c07007e
:101c400040c0b300281c07006acbbf00261c070059
:101c50006bcbbf00241c07006ccbbf00221c07000d
:101c60006dcbbf00201c070000c0eb001e1c07004e
:101c70005c1c07000080fa00000006000200fa0069
:101c8000e642a800e442a900dec2a900df02a900e2
:101c9000dee2a8000000eb000011880070012000c7
:101ca000101188000000eb00201188002302a8001a
:101cb00022a2a80021e2a800d0c1b3003904070085
:101cc000004f78001e80fb00680060000000e0000c
:101cd000f9ff3a001e80fb000080ea00610060000e
:101ce0000000e000f4ff3a001e040700100020008e
:101cf000b1fc07000040eb00004f780060c0b3006b
:101d00009e4f100014003e009e80fb0060002000eb
:101d10000008b80063a52000030140009e80fb007e
:101d2000802420000008b80083002100030940003f
:101d30009e80fb00600020000008b800a2a52000e3
:101d400082004000110078000000a00080087800a8
:101d50001e4fe800e9ff37000040eb0054eab700ef
:101d600010002000305488000000eb001054880060
:101d70008040eb0080c0b3006b0407008040eb00a4
:101d800090c0b3006804070071c0b300c0c0b300c6
:101d90006504070001c1b300d0c0b30062040700ae
:101da00071c0b300a0c0b3005f04070001c1b3005d
:101db000b0c0b3005c04070081c0b30040c0b300f2
:101dc0005904070001c1b30050c0b3005604070016
:101dd00000202000c8040700d1c0b3000040eb0081
:101de0005104070021c3b30020c0b3004e04070014
:101df00001c4b30030c0b3004b040700f1c3b3000b
:101e000090c0b3004804070021c1b30060c0b30014
:101e100045040700c1c0b30070c0b300420407000e
:101e2000e1ceb300a0c0b3003f04070051c0b3002f
:101e3000b0c0b3003c04070040302000ae040700ef
:101e4000e1a820009140780040c0b30036040700ac
:101e5000f1a820009140780050c0b3003204070080
:101e600001a920009140780020c0b3002e04070093
:101e700011a920009140780030c0b3002a04070067
:101e800021a92000914078000040eb0026040700c3
:101e900031a920009140780010c0b300220407004f
:101ea00020c1b300bf03070088eab700011020007b
:101eb00000c1b300790407002147200040c1b300ee
:101ec000760407000000eb009504070041c0b30052
:101ed000f0c1b300520407000080fa0000000600c1
:101ee0000000fa0010c0b300f00307004200de005b
:101ef000610060000080fa00000006000600fa00a1
:101f0000000f78001e00e00009003200f0c1b300ad
:101f1000a40307000080fb004300de000080fb00fc
:101f20000000a20061006000200798002400370034
:101f300080cabf00544ae30009003a00f0c1b30070
:101f4000980307000080fb004300de000080fb00d8
:101f50000000a20061006000200798001800370010
:101f600010c0b300204798002e409000e64f50006c
:101f700011003e002e4090008080fb006000200099
:101f80000008b800a2a52000020040001040780020
:101f9000614060000004e0000300320010002000f7
:101fa00020079800060037002e4090000040e8000f
:101fb00020479800ecff37000001eb002207980053
:101fc0002e0090000080fa00000006000800fa00d1
:101fd000000f78001e00e0000d003200f0c1b300d9
:101fe00070030700684060000004e0000300320056
:101ff000f00f200030079800020037000001eb00ce
:10200000320798003e009000200798002b00370010
:1020100010c0b300204798002e409000e64f5000bb
:1020200024003e002e4090008080fb0060002000d5
:102030000008b800a2a5200002004000104078006f
:10204000614060000004e000160032002e40900065
:102050008080fb00600020000008b800a2a52000de
:1020600082004000110078000000a1008008780084
:102070002e4090008080fb00600020000008b80027
:10208000a2a5200082004000110078000010a100ed
:10209000800878002e4090000080fb002007980008
:1020a000060037002e4090000040e80020479800ce
:1020b000d9ff3700f00f2000200798002e00900075
:1020c0000080fa00000006000200fa00004f7800cd
:1020d00060c0b3009e4f10000a003e009e80fb00cf
:1020e000600020000008b800a2a520008200400087
:1020f000110078000000a000800878001e407800e1
:1021000054eab7000080fa00000006000200fa005e
:10211000860ae20014003a001000200030548800c3
:1021200010548000000fe900700021009e0f100085
:102130000200360070002100000f780001c4b300d7
:10214000e0c1b300b6030700c0002000ea030700a7
:102150009e407800c0c0b300730307009e4090000b
:10216000d0c0b300700307000080fa000000060032
:102170000600fa0090112000df03070090c1b300b1
:1021800008030700004f7800e0002000da03070092
:10219000e0c0b3000303070020479800f0c0b3007d
:1021a000000307003047980090112000d203070079
:1021b00090c1b300fb0207009e4f5000efff3a00b2
:1021c000c0002000cc030700c0c0b300f502070028
:1021d000004f7800d0c0b300f2020700104798000b
:1021e0001e0090009e0f5000060036001e0090005a
:1021f0009e00500070002100010050002007980050
:102200000a0037001e0090009e0f500003003a00a5
:102210007000210020079800040037001e00900085
:102220001e0010000000e900200798002e0090001a
:102230000080fa00000006001a00fa00881f7800eb
:10224000000f78001107980090112000aa030700e2
:1022500090c1b300d30207000004e00003003a007d
:102260000000eb00400f980058003700860ae2009b
:1022700004003a00a5ff07000000eb00400f9800a3
:102280005200370010548000205488000000eb00fa
:102290009903070021a82000914078000040eb003e
:1022a0002103070031a820009140780010c0b3003e
:1022b0001d03070064004700410120003f020700a2
:1022c000640447006400470010089000a50607005a
:1022d000100c9800e400470070002100910f1000de
:1022e0001a003e004e409000614060000004e00093
:1022f00016003a0064004700200090004f00de0006
:102300000000e00011003a00640047002000900047
:102310004400de00610060000000e0000b003a00b5
:102320006400470090009000e05e2000808f500025
:1023300006003e0064004700200090004700de00d9
:10234000610060000000e00001003a000000fe00b3
:1023500064004700100078001054880064004700b3
:10236000ec004000620020001e007800ebf7070040
:102370009e00900000c0eb00804878006400470099
:1023800030509000e84f50000c003a0064004700c5
:10239000205090000004e000040032006400470078
:1023a00020509000e64f500004003a009e0090003c
:1023b0006400470020509000804878000000eb0047
:1023c0003054880010002000400f98004e08900004
:1023d0004f0478000080fa00000006000800fa00b0
:1023e000000f780021479800220798002000200065
:1023f0004103070054cabf008080fb00600020003a
:102400000008b80062a5200002004000904078005b
:1024100020c0b300c402070054cabf008080fb0084
:10242000600020000008b80072a5200002004000f3
:102430009040780030c0b300bb02070054cabf0010
:102440008080fb00600020000008b80062a520002a
:10245000820040002e009000110040006e004000fd
:102460002007980054cabf008080fb006000200055
:102470000008b80082a5200002004000ae009000d5
:10248000010878000040eb00f60107006100200021
:102490001e0078000e02070061002000e0a8200066
:1024a0000b02070080c0b300ee0107002e40900031
:1024b0000004e0000300320062c0b30062479800ed
:1024c000020037000040eb00604798006e4090002b
:1024d000e40107000080fa00000006000e00fa0088
:1024e000400020000403070054cabf008080fb00a6
:1024f000600020000008b80062a520000200400033
:102500009040780040c0b3008702070054cabf0063
:102510008080fb00600020000008b80072a5200049
:10252000020040009040780050c0b3007e020700d7
:1025300054cabf008080fb00600020000008b80083
:1025400082a52000020040009040780060c0b300e7
:102550007502070054cabf008080fb0060002000a5
:102560000008b80092a520000200400090407800ca
:1025700070c0b3006c02070054cabf0080eab70005
:1025800054cabf008080fb00600020000008b80033
:10259000a2a5200082004000110078000010a000d9
:1025a00080087800c0c1b300fe01070062406000ef
:1025b0000004e0000600320001c8b300f0c1b3001f
:1025c0009702070001c8b300f0c1b300750207000d
:1025d000a1c0b300c0c1b3007202070081c0b30044
:1025e000f0c1b3008e02070080a8200051c0b300e4
:1025f00090cf100060003a00c0c1b300e9010700ad
:102600000080fb006a0060000000e000faff32007a
:10261000c0c1b300e3010700624060000004e000b5
:102620005500320081c0b300f0c1b3005d02070065
:102630000000eb00b00207000040eb00d9010700ea
:10264000004f780010c0b300d60107001047980073
:1026500060c0b300d30107002047980070c0b300ea
:10266000d0010700304798001e0090000000e800ed
:1026700010079800ae4090000040eb002a020700cf
:10268000be40900010c0b30027020700640047005e
:1026900081002000490107000040eb00404f9800f6
:1026a0004e489000ef4f50002d003e00c0c1b300d7
:1026b000bc010700624060000004e0002800320016
:1026c00064004700100090004d00de0061006000d3
:1026d0000000e0002200320001c8b300f0c1b300e6
:1026e0004f02070001c8b300f0c1b3002d0207007c
:1026f000a1c0b300c0c1b3002a02070081c0b3006b
:10270000f0c1b30046020700c0c1b300a501070035
:102710000080fb006a0060000000e000faff320069
:1027200081c0b300f0c1b3001e020700ae409000ac
:102730000040eb00fc010700be40900010c0b30059
:10274000f901070064004700810020001b01070019
:102750004e4890000040e800404f9800d0ff3700fe
:102760009e4078000040eb00ef0107009e40900083
:1027700010c0b300ec0107000080fa000000060062
:102780000400fa00000f7800205480001e00400072
:1027900074004000100798009e0090007000210017
:1027a000808f5000040036001e00900081ff2e0034
:1027b00001004000100798000000eb004e020700e7
:1027c000ae4090000040eb00d7010700be409000f3
:1027d00010c0b300d4010700ae40900020c0b30089
:1027e000d1010700be40900030c0b300ce01070009
:1027f0000080fa00000006000400fa00004f780094
:10280000110798001e40780054eab7009e80fb0034
:10281000600020000008b80062a52000820040008f
:102820001e009000110040006f004000100798004b
:102830002000200030020700ae4090000040eb0076
:10284000b9010700be40900010c0b300b6010700f8
:10285000ae40900020c0b300b3010700be4090001e
:1028600030c0b300b00107000080fa00000006008d
:102870000600fa00000f780011079800205480002d
:102880001e0040007400400020079800ae00900039
:1028900070002100808f5000040036002e00900050
:1028a00081ff2e0001004000200798000001200059
:1028b00011020700ce40900000c1b3009a0107004a
:1028c000de40900010c1b30097010700ae009000f9
:1028d0001e009000008040000000e90020079800e2
:1028e000ae00900070002100808f50000400360080
:1028f0002e00900081ff2e0001004000200798006c
:10290000ce40900020c1b30087010700de40900058
:1029100030c1b3008401070001c3b300f0c1b300ac
:10292000bf010700f0c1b3001e0107000042b20062
:102930000004e000fbff3a0060c1b300190107008a
:102940005047980070c1b300160107004047980037
:102950002e0090000080fa00000006000600fa0039
:10296000000f78001107980054cabf008080fb0058
:10297000600020000008b80062a5200002004000ae
:10298000100078001e0040006f00400020079800f3
:1029900000012000d8010700ce40900000c1b30024
:1029a00061010700de40900010c1b3005e01070026
:1029b000ae0090001e009000008040000000e90082
:1029c00020079800ce40900020c1b30056010700b8
:1029d000de40900030c1b3005301070001c3b300d3
:1029e000f0c1b3008e010700f0c1b300ed00070095
:1029f0000042b2000004e000fbff3a0060c1b300f7
:102a0000e80007005047980070c1b300e5000700d8
:102a1000404798002e0090000080fa000000060059
:102a20000600fa00000f78001e00e00003003a00e4
:102a30000080eb00200798004200370011002000c2
:102a40009e8f100006003a00410007000080fb0046
:102a50004800dd000080ea002007980039003700b8
:102a60000000eb00a40107000040eb00cd000700d0
:102a70002047980010c0b300ca00070030479800f4
:102a8000ae40900000c1b30027010700be40900097
:102a900010c1b300240107009e00900070002100c7
:102aa000808f50000d003e001e0090001e00400070
:102ab0000000e900100798009e00900070002100bf
:102ac000808f5000090036001e00900081ff2e000c
:102ad0000100400010079800040037001e0090001d
:102ae0001e0040000000e90010079800ae40900072
:102af00020c1b3000c010700be40900030c1b300fc
:102b00000901070001c3b300f0c1b300440107008d
:102b1000f0c1b300a30007000042b2000004e000cf
:102b2000fbff3a0060c1b3009e00070020479800f9
:102b300070c1b3009b000700304798001e00900052
:102b4000200798002e0090000080fa000000060088
:102b50000200fa00e642a9008500a900a0032000b7
:102b60002011880085c0bf000080fb00610060006c
:102b70000000e000fbff320020118000004f7800d1
:102b80008500a9000000eb002011880085c0bf006f
:102b90000080fb00610060000000e000fbff3200ed
:102ba00020118000004f78008500a900e642a800af
:102bb0001e80fb000080fa00000006000800fa00fa
:102bc000000f780011079800e642a9008500a900cf
:102bd000a0032000201188000000eb0020079800cf
:102be0001e0fe90085c0bf000080fb00610060008f
:102bf0000000e000fbff32002011800060479800d9
:102c00008500a900ae0090001e009000808f50004b
:102c1000100031000000eb00201188002e00900011
:102c20000000e800200798001e0fe80085c0bf00e4
:102c30000080fb00610060000000e000fbff32004c
:102c40009e00780020118000804878008500a9004f
:102c5000ecff3700e642a8002e0090000080fa004a
:102c6000000006000200fa00004f7800e642a900ca
:102c70008500a900a00720002011880085c0bf00a2
:102c80000080fb00610060000000e000fbff3200fc
:102c900020118000104798008500a9001e80fb00cd
:102ca0002011880085c0bf000080fb00610060002b
:102cb0000000e000fbff3200201180001047980068
:102cc0008500a900e642a8000080fa000000060086
:102cd0000600fa00000f780011079800e642a900ec
:102ce0008500a900a00720002011880085c0bf0032
:102cf0000080fb00610060000000e000fbff32008c
:102d000020118000404798008500a9001e00900017
:102d10000000e000100032001e0078001080fb0070
:102d2000201188001e0fe8001e0090000000e9003e
:102d30001007980085c0bf000080fb0061006000a4
:102d40000000e000fbff32002011800040479800a7
:102d50008500a900edff3700e642a8000080fa00d8
:102d6000000006000200fa00e642a9008500a90062
:102d7000f00f20002011880085c0bf000080fb00fc
:102d8000610060000000e000fbff320020118000c5
:102d9000004f78008500a900e642a8000080fa00f4
:102da000000006000200fa00004f7800e642a90089
:102db0008500a9001e80fb002011880085c0bf008f
:102dc0000080fb00610060000000e000fbff3200bb
:102dd00020118000104798008500a9000000eb003a
:102de0002011880085c0bf000080fb0061006000ea
:102df0000000e000fbff3200201180001047980027
:102e00008500a900e642a8001e4090000080fa005c
:102e1000000006000200fa00004f7800e642a90018
:102e20008500a9001e80fb002011880085c0bf001e
:102e30000080fb00610060000000e000fbff32004a
:102e400020118000104798008500a9000000eb00c9
:102e50002011880085c0bf000080fb006100600079
:102e60000000e000fbff32002011800010479800b6
:102e70008500a9000000eb002011880085c0bf007c
:102e80000080fb00610060000000e000fbff3200fa
:102e900020118000104798008500a900e642a80094
:102ea0001e4090000080fa00000006000400fa00b6
:102eb000004f7800402120008f0007009e407800de
:102ec00040c1b3001800070011c0b30020c1b30017
:102ed00015000700a030200087000700a0c0b30045
:102ee000ccff0700614060000004e000fbff3a00f7
:102ef00040212000800007008040eb0020c1b3008b
:102f00000900070080c1b300c2ff070020479800f6
:102f100090c1b300bfff0700304798001e0090002b
:102f20000080fa00000006000400fa00004f78005c
:102f300011479800e642a9008500a90000c4b3002b
:102f40001e4070000080fb002011880085c0bf007b
:102f50000080fb00610060000000e000fbff320029
:102f600020118000204798008500a9001e40900095
:102f70000080fb002011880085c0bf000080fb009e
:102f8000610060000000e000fbff320020118000c3
:102f9000204798008500a900e642a8000080fa00ba
:102fa000000006000400fa00004f78001147980066
:102fb000e642a9008500a90000cab3001e407000c7
:102fc0000080fb002011880085c0bf000080fb004e
:102fd000610060000000e000fbff32002011800073
:102fe000204798008500a9001e4090000080fb004b
:102ff0002011880085c0bf000080fb0061006000d8
:103000000000e000fbff3200201180002047980004
:103010008500a900e642a8000080fa000000060032
:103020000400fa00004f780011479800e642a9001a
:103030008500a90000c8b3001e4070000080fb009e
:103040002011880085c0bf000080fb006100600087
:103050000000e000fbff32002011800020479800b4
:103060008500a9001e4090000080fb002011880010
:1030700085c0bf000080fb00610060000000e00030
:10308000fbff320020118000204798008500a90036
:10309000e642a8000080fa00000006000400fa00e2
:1030a000004f78001107980040212000120007000f
:1030b0009e40780040c1b3009bff0700ae409000e7
:1030c00060c1b30098ff0700be40900070c1b3001c
:1030d00095ff0700a030200007000700a0c0b30044
:1030e0004cff0700614060000004e000fbff3a0075
:1030f0000080fa00000006000200fa00000f7800cd
:1031000031c0b300f0c1b300a6ff07009e4090009d
:10311000f0c1b300c2ff07000080fa000000060003
:103120000800fa00000f7800c1c0b300f0c1b3007e
:103130009cff07000040eb005cff070020079800a1
:10314000200020009e0f100004003a002e00900086
:103150004800de00610f60000b0037002e00900079
:103160001e017800e10061004809dd00f1ef2f0049
:10317000010060000200700020079800ae0090007f
:103180000040eb00c5ff070020202000daff070009
:1031900020c0b3001fff0700204798002e4090007a
:1031a0009e40780061c16000e1cfb3000140600043
:1031b0000240700020479800ae40900020c0b3004d
:1031c00059ff07001e00e0000300320052c1b300a7
:1031d000624798000200370020c1b30060479800a2
:1031e000ee40900040c0b3004fff070041c0b30065
:1031f000f0c1b3008aff07000080fa00000006005b
:103200000000fa0041c0b300f0c1b30065ff070041
:10321000d0c1b300e3fe0700644060000004e0009a
:10322000fbff3a0000000000f0c1b300ddfe070024
:10323000684060000004e000fbff3a0001c2b300f8
:10324000e0c1b30076ff07000080fa00000006002e
:103250000000fa0001c2b300e0c1b30051ff070053
:10326000d0c1b300cffe0700614060000004e00061
:10327000fbff320041c0b300f0c1b30068ff07009c
:103280000080fa00000006000200fa00004f7800fb
:103290005031200098ff07009e40780050c1b300d5
:1032a00021ff07000080fa00000006000000fa007d
:1032b0005031200090ff070050c1b300b9fe070055
:1032c0000080fb000080fa00000006000000fa0009
:1032d00050012000d90e0700bbe9b7000000eb0049
:1032e000004e88000040eb00f3e9b7000040eb001f
:1032f000bae9b70040012000f04d88000080fa00d4
:10330000000006000c00fa00bbc9bf00800f0700d8
:103310000000e0000d003a000040eb00f3e9b700c8
:1033200070002000204e88000000eb00004e880056
:103330000040eb00bae9b7000000eb00104e880037
:10334000100020004007980099003700bbc9bf005b
:10335000e51007000000e0002a003200f715070022
:1033600020508800315088008e007800bbc9bf0013
:10337000a71007000000e00010003200329f20007c
:1033800092407800014078000080fb00239d2000df
:10339000030040001e4878008140e80001497800a1
:1033a000309f2000f1c1b30090cf1000eeff3a0033
:1033b0000040eb00f3e9b700ebff3700bbc9bf00eb
:1033c00051100700a2c0b3009e4f110028003a0020
:1033d000f3c9bf000080fb00239d20008300400054
:1033e0000040eb00804878000040eb00f3e9b700b4
:1033f00085010700a04f800066010700204e88006d
:103400001b003700c009e20019003200cb1507008d
:1034100010079800210798001e019000ae0190004f
:103420002050800031508000000051008180590000
:1034300010079800210798001e019000ae0190002f
:10344000f064240001002000800f5100818f59009a
:1034500007003600b9150700205088003150880059
:1034600020002000204e880010002000004e880020
:10347000004e800050079800de009000e18f500061
:103480002c0032005e0190000200e00004003200d7
:10349000de019000e48f5100060032004200370048
:1034a0000000eb00304e8800a41507002050880073
:1034b00031508800bbc9bf00ab0f07000000e0001f
:1034c00003003a0010002000400798003800370041
:1034d000304e80000000d00061b2200001004000aa
:1034e000100078003007980066014700120078004d
:1034f0008000780091407800014f78000000e800db
:10350000000978000104e000040032009e407800c9
:10351000bbc9bf00b90f0700f3ff3700bbc9bf002d
:10352000470f0700c0002000304e88001000200028
:10353000004e8800204e8000e70f50001a00320035
:10354000204e80001d0007000000e0001000320047
:10355000304e8000ec0f500003003200400020008d
:10356000004e880005003700204e8000e20f50001a
:1035700002003a000000eb00004e880070002000be
:10358000204e88000000eb00104e88000600370037
:10359000304e8000ec0f500003003200400020004d
:1035a000004e8800c3ff3700120020004207980039
:1035b0004e0090000080fa00000006000600fa00ad
:1035c000000f78001e00780020079800ae009000e1
:1035d000e28f5000300032002e009000e20f5000c9
:1035e00007003e00ae0090000100e0000e00320037
:1035f0002e009000e10f500014003200420037000e
:10360000ae009000e48f5000260032002e009000a3
:10361000e30f500030003600ae009000e58f500000
:103620003000320038003700ba09a800ba29a900d2
:1036300010002000304e8800a2002000b14f800012
:10364000809c20003cf3070031003700bac9bf005e
:10365000614060000004e00003003a0060002000c8
:10366000304e88002a003700b14f8000809c200037
:10367000880807000000e00004003200ba29a80012
:1036800020002000304e880021003700600020001c
:10369000304e88001e0037002200070010079800f7
:1036a0001d003700a20020008000eb00f04f8000da
:1036b00031f30700bfe9b700a20020008000eb0053
:1036c000005080002cf30700bee9b700b0002000d6
:1036d000304e88000e0037004300070010079800a6
:1036e0000d003700b0002000304e8800c09b200045
:1036f000e1cfb30090cf100005003200bcc9bf007d
:10370000940e07000200370050002000304e880061
:1037100010002000100798001e0090000080fa00a2
:10372000000006000200fa00104e8000000f780032
:103730009e007800e18f5000150032001e007800d6
:103740000000e000040032009e007800e38f50008b
:103750001800320021003700104e8000e20f5000a8
:1037600001003a00140b0700c09b2000e1cfb3001a
:1037700090cf10000a0032000f0b0700bcc9bf0039
:10378000740e070010002000104e88001300370050
:10379000bcc9bf005e0e07000000e0000f003a0049
:1037a00030002000304e880030002000104e88008d
:1037b0000a003700bbc9bf00eb0e07000000e000a5
:1037c00006003200bbc9bf00510e07000000e00038
:1037d00002003200bbc9bf005e0e07000000eb0014
:1037e0000080fa00000006000600fa00104e80007b
:1037f00020079800ae009000e18f500027003200b3
:103800002e0190000200e000040032002e00900023
:10381000e20f50002c00320059003700bac9bf0037
:10382000624060000004e00005003a0060002000f3
:10383000304e880011002000110798005200370018
:1038400070002000304e8800bbc9bf008080fb00a4
:10385000c00220000008b8002285200002004000bd
:10386000f14d8000b70d0700bce9b700c09b2000f8
:10387000e1cfb30090cf1000030032001000200011
:10388000104e88003e003700a0002000304e880017
:1038900012002000120798003b003700bcc9bf008f
:1038a0001b0e07000000e00035003200ab4be200c9
:1038b00033003a00f70a070040508800200020003b
:1038c000104e88002e003700bcc9bf00860f0700cd
:1038d0000000e0001b003200981407002050880010
:1038e0003150880040508000ef0a07008e007800b9
:1038f000bcc9bf00460f07000000e0000300320013
:103900001e407800fd0a0700f8ff3700160b07007d
:1039100040508800bcc9bf00fb0e0700bbc9bf00f8
:10392000910e07000000e0001500320031c2b30024
:10393000bbc9bf00b10e0700bbc9bf00400e0700e6
:103940000f003700bcc9bf00f10d07000000e00008
:103950000b003a00040b0700970a0700bcc9bf0020
:10396000fc0d0700e0cfb300bce9b70090002000d9
:10397000304e880010002000100798000200370029
:103980008000eb00110798001e0090000080fa00f4
:10399000000006000600fa00000f78000000eb00af
:1039a000100798001e009000e50f500011003e0027
:1039b0001e0090000000d000a1b1200001004000d6
:1039c00042002000900078001e007800fdf2070001
:1039d0000000e00003003a001e009000200798005d
:1039e000060037001e0090000000e8001007980055
:1039f000ecff370060002000200798002e009000a8
:103a00000080fa00000006000800fa000000eb0049
:103a100020079800209d2000000f78009e0078006d
:103a200000c2b300914f100002003a001e0fe800e0
:103a3000faff37001e007800a04f880010c0b300c6
:103a400002eab7001e007800104078002047980076
:103a50000004e00033003200ae019000330798000c
:103a60003e0090000000e00004003200be01900023
:103a7000e18f51001900320028003700ae4090005d
:103a800000c2b30080cf500004003200ae4090006e
:103a9000c0c2b30080cf500006003a001e0078007c
:103aa0008040eb00014878001000200020079800bb
:103ab0001a0037002e409000ed4f500003003200f6
:103ac0002e409000ea4f500014003a009e0078000b
:103ad0000040eb008048780010003700ae409000b6
:103ae00000c2b30080cf50000c00320022a02000a2
:103af00092407800014078000080fb000000d00078
:103b0000439f2000030040001e0878008140e80029
:103b1000014978000000eb00200798001e0fe80024
:103b2000c8ff37000080fa00000006000c00fa0011
:103b3000000f7800110798000000eb005007980074
:103b40001e00e000290032000040eb0040479800d2
:103b500000712200400798004e409000e44f500052
:103b600029003e001e0078004e019000110009005f
:103b70000280d800300798003e0090000000e0006e
:103b800003003a005e0090000000e0000e003200ea
:103b90008e81e800130178006e4090000043b00071
:103ba00082007800804878000201e80082097800ed
:103bb000be0090004e0090000008b8001e0f1000dc
:103bc00010002000500798004e009000a200200036
:103bd000110009000280d800400798004e40900074
:103be0000040e80040479800dbff37008e81e80086
:103bf000130078000001780001c3b3000149780088
:103c00000000e800800978009e0090000040eb0072
:103c1000804878000080fa00000006000200fa00e8
:103c2000000f78009e40900060c4b30080cf500029
:103c3000040036001e40900001ceb3000140400059
:103c40001047980060c4b3009e4f10000200360079
:103c500000ceb3001e4f40009e40900090c3b300c2
:103c600080cf5000050036001e40900091ccb3007c
:103c70000140400010479800040037001e409000ab
:103c800001cdb300014040001047980090c3b3003d
:103c90009e4f10000300360090ccb3001e4f400032
:103ca0000200370000cdb3001e4f40001e409000c0
:103cb0000080fb004400dd001e4070000080fb001f
:103cc0000080fa00000006000400fa00004f7800af
:103cd0001e80fb004400de00004f780090c0b3005f
:103ce0009e4f10000500360071c3b3001ec0400097
:103cf0000080fb00100798000400370001c3b300e8
:103d00001ec040000080fb00100798001e009000bd
:103d10000080fa00000006000400fa00004f78005e
:103d20001e4078006f4f600091c0b3009ecf10001e
:103d30000500360071c3b3001ec040000080fb00c8
:103d4000100798000400370001c3b3001ec04000f4
:103d50000080fb00100798001e0090000080fa0011
:103d6000000006000600fa00000f78001e00780030
:103d7000100798003e409000404798002e40900069
:103d8000304798004e409000204798001e00900059
:103d90000080fa00000006000c00fa00008fbe0050
:103da0001e00be00300798004107980066004700db
:103db000500798005e009000304090004047980007
:103dc000de0090005e00900010407800b040980047
:103dd0005e009000ce409000014878005e009000a8
:103de0002040900040479800de0090005e00900068
:103df00010409000a04098005e009000ce409000df
:103e0000114098003e009000ce0090000080fa0023
:103e1000000006001000fa00000f7800110798005b
:103e20006000b80060079800710798001e009000bd
:103e30000000d100200798001e007800300798008d
:103e40002e0090000000e90020079800e10f4000dc
:103e50000e003200e60247001502780004007800e8
:103e6000100078006101b8006e009000fe00900024
:103e700000004100818049006007980071079800a8
:103e80000482e800840a7800edff37001e009000ed
:103e9000610060000000e0000a0032003e00900077
:103ea000104078000081fb00030020006e009000ad
:103eb000fe009000000041008180490060079800ea
:103ec000710798006e009000fe0090004007980077
:103ed000510798005e009000200798000000e00065
:103ee0000f0032000000eb00700798006e00900099
:103ef0006101b8002e009000010020000200400087
:103f00008380480060079800710798006e00900059
:103f1000fe0090004007980051079800edff370021
:103f20006e0090000080ea000080fa0000000600a9
:103f30000600fa00000f78001e00780020079800a5
:103f40002e00900010407800204798000004e00008
:103f500010003200ae40900000c6b30080cf500089
:103f600008003400ae409000a0c7b30080cf5000de
:103f700004003c002e019000ae00900000ceb30083
:103f8000114940002e0090000000e8002007980032
:103f9000ebff37001e0078000080fa0000000600ea
:103fa0000200fa00881f78000040eb00004f780004
:103fb00020c0b3009e4f100011003e009e80fb0009
:103fc000e00020000008b80002af2000020440001a
:103fd00000052000990b0700004c78009e80fb0034
:103fe000e00020000008b80042af2000820040003e
:103ff0000000eb00800878001e4fe800ecff37005f
:104000004f0478000080fa00000006000200fa0069
:104010000040eb00004f780020c0b3009e4f10001e
:1040200004003e001e407800040007001e4fe80018
:10403000f9ff37000080fa00000006008c00fa004b
:10404000881f7800004f78009e80fb00e000200071
:104050000008b80002af200000004100308798003f
:104060000000eb00603798003e8090001040780020
:10407000270c07000000e00004003a00be8090001a
:104080000000eb00a00098001d0137003e8090006a
:1040900020009000508798005e809000e20f500052
:1040a00070003200de809000e28f500007003e007a
:1040b0005e8190000200e0000b0032005e80900004
:1040c000e10f5000ea0032000a013700de80900064
:1040d000e98f5000f70032005e819000eb0f510035
:1040e00083003200030137003e80900010407800ca
:1040f0007d0d07000000e000fe00320010002000ef
:10410000603798000000eb0050379800de309000d8
:1041100030062000808f50000d003e008e81e800a8
:10412000a20620000e0141001200780080007800f5
:10413000818041000000e800000978003e80900086
:1041400010407800320d07000000e000efff3a0059
:104150008e80e8005e309000808040000040eb00e0
:10416000804878003e80900010407800e60c070000
:10417000be80900020002000a0009800b0c0b300d6
:10418000404799003e8090006c00400042082000ab
:104190000e014100e10620008e8040000e82e80002
:1041a00080017800040078006e0107004037980015
:1041b0004e3090000000e000ce003a004e409100ea
:1041c000e14f500007003600e00620000e004000de
:1041d000ce40910004040700be80900020c0b300d0
:1041e000c04898003e849000e00620000e00400089
:1041f000100078000a080700100498003e80900024
:1042000010009000e10f400007003a00be809000cf
:104210000040eb00b0489800be80900020002000d5
:10422000a0009800b30037003e809000100090007e
:104230000000e00007003a00be80900010c0b3000c
:10424000b0489800be80900020002000a000980098
:10425000a8003700be809000b0002000a0009800a9
:10426000a40037003e809000104078003e0c07000c
:104270000000e0009f0032003e8090003048900037
:104280000080fb000000d000c1bb20000100400006
:104290001000780040879800820820000e0141003d
:1042a0001200780080007800914078005147990012
:1042b0000000e800000978000104e0000500320079
:1042c0003e809000de409100104078004b0c0700cb
:1042d000f1ff37003e80900010407800d80b0700b7
:1042e000be80900090002000a00098008100370060
:1042f0003e809000104078001b0c07000000e0009a
:104300007c00320010002000603798003e80900052
:1043100040489000e24f500014003a003e80900068
:1043200011c0b300214898000040eb0050479900ad
:10433000de40910030c8b30080cf50001e003e0028
:1043400081292d005e4091000080fb003e8190009d
:10435000e0c0780012407800280c07005e40910011
:104360000040e80050479900f1ff37003e80900080
:104370008040eb00214898000040eb005047990036
:104380005e409100fe4f50000b003e0081272d0043
:104390005e4091000080fb003e819000e0c078000c
:1043a00012407800150c07005e4091000040e800c4
:1043b00050479900f2ff37003e809000404890003f
:1043c0008080fb00400120000008b80022162d006c
:1043d0000000410040879800820820000e01410043
:1043e00012007800800078009140780051479900d1
:1043f0000000e800000978000104e0000500320038
:104400003e809000de40910010407800fb0b0700da
:10441000f1ff37000040eb00504799005e409100eb
:10442000e34f50000b003e00d1312d005e40910063
:104430000080fb003e819000e0c0780012407800d0
:10444000ee0b07005e4091000040e80050479900e5
:10445000f2ff3700be80900030c0b300e04098000b
:10446000be80900010002000a000980021003700be
:104470003e809000104078009b0c07000000e00098
:10448000030032003e809000104078001e0c0700b0
:104490003e8090001d0007000000e0001500320083
:1044a000c5070700be80900090002000a000980083
:1044b000100037003e80900010407800140b070079
:1044c0000000e0000b0032003e80900010407800b9
:1044d000a50b07000000e000060032003e809000bf
:1044e000104078001b0b0700be809000a000200049
:1044f000a00098006e3090000000e000d8fe3a0066
:104500004f0478000080fa00000006000c00fa005a
:10451000881f7800000f78001e00780010009000bf
:10452000b00707001e007800204890000004e0005b
:104530006d0032001e007800104078008a0b0700e2
:104540000000e0007e0032000000eb001007980041
:104550001e00780060409000e84f50000c003200d0
:10456000b007070040479800605d8000e10f400001
:1045700007003a00c20707001e00780010407800cc
:104580002f0b070010002000400798007100370033
:104590001e007800604090000080fb0050079800eb
:1045a0005e009000e50f5000190032005e009000a0
:1045b000e50f500004003c005e009000e30f500047
:1045c00008003200400037005e009000e60f500007
:1045d0001f0032005e009000e80f500029003200fa
:1045e00039003700ce40900050c2b30080cf500059
:1045f00004003a009e00780050c0b300e0409800ec
:104600003100370010002000100798002e003700fe
:10461000ce40900050c2b30080cf500006003a0058
:1046200010002000100798009e00780030c0b300f2
:10463000e0409800240037004e40900070479800fa
:104640009e00780060c0b300e04098001e00370074
:104650004e409000604798001e0478003e00900095
:104660006efd0700304c98009e00780080c0b300bb
:10467000e04098009e0078000000eb00c000980029
:10468000110037001e047800640147001e00780006
:104690009e017800c0009000334890001703070087
:1046a0004004980010002000100798001e007800b9
:1046b00040009000e10f400003003a009e007800a7
:1046c00030c0b300e04098001e0090000000e00001
:1046d00098ff32001e007800ce4090001040780015
:1046e000460b070093ff37001e007800104078004b
:1046f0001d0b07000000e000110032004907070011
:1047000040479800605d8000e10f400007003a00dc
:104710005b0707001e00780010407800c80a0700f9
:1047200010002000400798000a0037001e007800a3
:10473000ce40900010407800300b0700eaff3700b1
:104740001e0478004e070700100498000000eb00dc
:10475000400798004e0090004f0478000080fa0057
:10476000000006001600fa00000f780011079800fc
:1047700022079800330798000040eb00104f980084
:104780000000eb00600798000040eb00004f98002d
:104790003200200021322d001e00780089ef070032
:1047a0000000e0000300320020002000100f9800fd
:1047b000ce0037009e007800648f40000000eb00c0
:1047c00050079800000000009e00780000c2b3006f
:1047d000914f100002003a001e0fe800faff370068
:1047e0001e00780010407800604f9800ee4890005e
:1047f00000c2b30080cf5000800032006e489000ad
:104800000004e0007d0032006e489000ed4f500043
:104810007a0032006e489000ea4f50007700320074
:10482000ae0090000e489000914f50007300310090
:104830001e4890000080fb00200f98002e0890007a
:10484000e10f50001f003200ae089000e18f5000d1
:1048500004003c002e0890000000e000050032003b
:1048600061003700ae089000e28f50002100320056
:104870005d0037000e4890000080fb008000d000f3
:104880001e009000008040001e0878001e00780086
:1048900010407800604f9800ee489000f0c2b300de
:1048a00080cf500004003200ee489000c0c5b30035
:1048b00080cf50004c003a0010c0b300104f980059
:1048c00049003700e80147001341780002407800b2
:1048d0000080fb008000d0001e009000008040009f
:1048e0001e0878000241e8008249780020c0b30029
:1048f000104f98001e00780010407800604f98001c
:10490000ee489000f0c3b30080cf500004003200a6
:10491000ee48900060c2b30080cf500006003a001d
:104920001e0078008040eb000148780010c0b30002
:10493000104f98002c003700ee489000b0c2b30032
:1049400080cf500004003a009e00780000c2b300ff
:104950008048780024003700ee489000e0c2b300a1
:1049600080cf500007003a000e489000e14f500001
:1049700004003a001e0fe8001e007800600798004f
:1049800019003700ee489000d0c3b30080cf50002c
:1049900006003a001e0078008040eb0001487800d5
:1049a00010c0b300104f98000f003700ee48900081
:1049b000f0c2b30080cf500004003200ee489000f7
:1049c000c0c5b30080cf500007003a000e489000e9
:1049d0000080fb008000d0001e009000008040009e
:1049e0000080e9001e08e8001e0fe8001e007800a5
:1049f00010407800604f98007cff37009e007800e0
:104a00000040eb0080487800be00900090c0b300ea
:104a1000804878006e0090000000e0001b0032002b
:104a20006e00900042fd070060079800a0132d0063
:104a3000000f98000040eb00604f98006e48900017
:104a4000e94f500011003e00320020008e08900017
:104a50006e009000dbee07000000e00004003a006a
:104a60003e009000ee4890000148780007003700b3
:104a70000e08900064004000000f98006e489000ff
:104a80000040e800604f9800ecff37000e489000af
:104a90000004e00010003a001e0090009200200088
:104aa00061322d00100078001cee07001e009000ff
:104ab00010007800e90040000040eb0080487800da
:104ac000be00900010c0b300804878000e489000ef
:104ad0000040e800004f98002e0090008e489000a3
:104ae000014878005e009000100f98001e089000aa
:104af0000080fa00000006003800fa00000f78007d
:104b0000110798002207980033079800440798007f
:104b10006a0047008100200028f807000000eb0031
:104b2000201f98002e0090009080fb004001200084
:104b30004ff70700101f9800ae0090002e00900065
:104b400010407800e84850002e0090009080fb0054
:104b50001e00900019f807006a0047005c0007007b
:104b60009e0078006a0047001080fb0080087800f3
:104b7000be0090006a004700200090008008780086
:104b8000ce0090006a004700300090008008780056
:104b90000000eb00301f98009e1890002e18900027
:104ba000808f500002003a0010002000301f980053
:104bb0003e1890000080fa00000006003800fa005d
:104bc000881f7800000f78001107980022079800ce
:104bd000634798004407980055079800100020008c
:104be000faf40700607798006e709000e14f400083
:104bf00034003200410120006e709000fef6070084
:104c00006e4090000080fb0068004000201f98006c
:104c1000ec0047000040eb00904098006c0047001b
:104c2000ae40900001487800ec0047000000eb0027
:104c3000900098006c004700ce0090002100980082
:104c40006c004700de009000310098006e4090003c
:104c50000081fb006c00470068004000ae0090003f
:104c6000aeed07006c004700190007006e40900091
:104c70000080fb006801400011c0b3001e007800f6
:104c80006b0007006c004700ae18900010f807009a
:104c90006c044700ae189000400120002ff7070079
:104ca00010049800610120006e709000d2f6070099
:104cb0006c0047000080e8002100200004f8070095
:104cc00006f607004f0478000080fa000000060096
:104cd0000200fa00881f7800000f78001e04780098
:104ce0001e007800200090001efc070020049800a1
:104cf0001e0478001e0078003000900019fc0700a8
:104d0000300498001e0478001e0078001000900007
:104d100014fc0700100498004f0478000080fa008b
:104d2000000006002000fa00000f7800110798002c
:104d300022079800330798006a00470041012000cd
:104d40009ef707006a0047009080fb00000f2000dc
:104d50008080600000042000808f5000030032003b
:104d60000000eb00700f98002e0037006a0047002b
:104d7000104078006f4060004200dd00c2ebb700d9
:104d8000c2cbbf008080fb000000eb00b8f607003c
:104d900040079800c2cbbf000080fb0078f60700f8
:104da0004e0090000000e000030032000001eb0024
:104db000720f98001b0037006a0047006e00070062
:104dc0001e00e000050032009e0078006a004700e7
:104dd00000099000900990008288be009e0090001b
:104de0006a00470060019000f0019000b200980056
:104df000c3009800ae0090006a0047001048900081
:104e000080487800be0190006a014700c2cbbf0015
:104e10008080fb00120090008109500013002000e8
:104e2000730f98007e0890000080fa0000000600d2
:104e30001a00fa00881f7800000f780021479800b8
:104e40002207980040c1b300c2ebb700e60047005c
:104e500050c4b30080487800e60047000040eb00f3
:104e600090409800e60047002e009000740040003b
:104e700090009800e6004700005e80000000e80017
:104e8000005e8800a0009800e60047000000eb00ec
:104e9000b0009800e600470040c6b3008048980084
:104ea00066004700ae40900011489800e6004700b9
:104eb0000000eb00d00098006600470052548000cc
:104ec000635480006200980073009800e600470079
:104ed0001e00780030019000c00190008208980008
:104ee0009308980066004700230007002e009000fa
:104ef000740140008040eb001e00780037f5070089
:104f0000660047004101200071f707006604470072
:104f1000410120000000eb0090f6070050049800cb
:104f2000a100200054cabf0033f607006600470006
:104f30006a0040002100200065f7070041012000c1
:104f400054cabf002cf607000000eb004f047800a5
:104f50000080fa00000006000200fa00000f78004e
:104f6000c2cbbf000080fb001e00400004f607001b
:104f70000080fa00000006000200fa00881f780096
:104f8000000f78001e0478001e00780010009000ca
:104f900074fb0700100498001e0478001e007800bf
:104fa000200090006ffb0700200498001e0478008a
:104fb0001e007800500090006afb07005004980023
:104fc0004f0478000080fa00000006000000fa009c
:104fd0000080fa00000006000000fa00440207000a
:104fe000c70e0700840407000201200041342d0091
:104ff000c0aa2000c9ec0700c0aa2000590407007d
:1050000066020700c3c2bf000080fb004700de004d
:105010000080fb000000e00001003a009803070058
:1050200096060700defb0700a8f807000055800081
:10503000610060000000e00004003a0010c0b3000e
:10504000bceab70080002000905d880000000000ee
:10505000ba0e07000001be00f0598000015a80001e
:10506000000151008181590010032000010020003f
:10507000800f5100818f590011003600af0e0700dc
:10508000f0598800015a8800d4c2bf000080fb009c
:105090004300de000080fb00610060000000a20011
:1050a000614060004301dd00412d20009140780007
:1050b00070cfb30000c0600002407000d4e2b700bf
:1050c00078060700d1fb07008ef8070018ee0700ee
:1050d000e21207003e000700bccabf00b64be30067
:1050e000dbff3200b6cbbf00bceab70000332d00b7
:1050f000bb100700a0a820000400070010342d00fa
:10510000b710070090ed0700d1ff37000800fa0044
:10511000000f78008e80e8001e0078001080fb00f1
:1051200082fa07000e80e800ad1007001911070091
:105130000004e000fdff3a00e00220003411070007
:105140008e80e8001e007800104090000080fb0078
:1051500076fa07000e80e800a11007000d11070085
:105160000004e000fdff3a00e002200028110700e3
:105170008e80e8001e007800204090000080fb0038
:105180006afa07000e80e800951007000111070079
:105190000004e000fdff3a00e00220001c110700bf
:1051a0008e80e8001e007800304090000080fb00f8
:1051b0005efa07000e80e80089100700f51007006e
:1051c0000004e000fdff3a000080fa000000060045
:1051d0000000fa0061b520000014800053fa0700b7
:1051e0000080fa00000006000800fa00000f7800b6
:1051f000214798001e0078009000780000cdb30091
:1052000011404000304798003e4090000080fb0075
:105210000000e00032003a001e80e80090007800b4
:1052200000cdb30011404000404798004e40900030
:105230000080fb00300798003e0090000000e00076
:10524000040032003e009000e10f500010003200d8
:105250001d003700d4c2bf000080fb004200de000a
:105260000080fb00610060000000a200614060005f
:105270004201dd00412d200091407800b0cfb30005
:1052800000c0600002407000d4e2b7000e0037009a
:10529000d4c2bf000080fb000000d1000080fb00f2
:1052a000610060000000a200614060000041d00089
:1052b000412d200091407800d0cfb30000c06000a5
:1052c00002407000d4e2b7001e007800a200200067
:1052d000e1342d001000780010ec070005003700c5
:1052e0001e007800a2002000e1342d00100078009c
:1052f0000aec07000080fa00000006003c00fa00fb
:10530000004f780011079800220798001e4078008f
:105310000081fb0003002000421f9800531f9800eb
:1053200070012000010020004e199000de1990004d
:10533000800f5100818f590051013e004e1890009e
:10534000de189000006001001700370028003700c9
:10535000a10037004a013700bc0037004801370080
:105360004701370046013700450137004401370047
:10537000430137004201370041013700c4003700c4
:10538000d5003700e60037002b0037003c0037001f
:105390004b0037005c0037006d0037007e0037009f
:1053a000f100370013013700ae009000410798006c
:1053b000d4c2bf000080fb004300de000080fb0081
:1053c000610060000000e0000300320012c3b3007f
:1053d000224f98000200370003c3b300234f980008
:1053e000ae4890004e00900001487800240137003c
:1053f0002e01900062079800d4c2bf000080fb001d
:105400004200de000080fb00610060000000e00060
:105410000300320013c3b300634f9800020037004b
:1054200000c3b300604f98006e499000ee009000fa
:105430008248780012013700ae019000030f9800f7
:10544000d4c2bf000080fb000000d1000080fb0040
:10545000610060000000e0000300320010c3b300f0
:10546000205798000200370001c3b300215798006d
:10547000ae5190000e0990000349780000013700fa
:105480002e009000200f9800d4c2bf000080fb00c7
:10549000610060000000e0000300320011c3b300af
:1054a000615798000200370002c3b30062579800aa
:1054b0006e509000ae09900080497800f0003700ef
:1054c000ae009000410f9800d4c2bf000080fb00e6
:1054d0004300de000080fb00610060000000e0008f
:1054e0000300320012c3b300225f980002003700ad
:1054f00003c3b300235f9800ae5890004e0890009d
:1055000001487800de0037002e019000620f9800fd
:10551000d4c2bf000080fb004200de000080fb0020
:10552000610060000000e0000300320013c3b3001c
:10553000635f98000200370000c3b300605f98000b
:105540006e599000ee08900082487800cc00370039
:10555000ae01900003179800d4c2bf000080fb008a
:105560000000d1000080fb00610060000000e0004e
:105570000300320010c3b300206798000200370018
:1055800001c3b30021679800ae6190000e11900036
:1055900003497800ba0037002e00900020179800c9
:1055a000d4c2bf000080fb00610060000000e0008a
:1055b0000300320011c3b300616798000200370096
:1055c00002c3b300626798006e609000ae11900055
:1055d00080497800aa003700ae0090002e4090006d
:1055e0000080fb0062b52000020040009048780077
:1055f0002e4090000080fb0063b5200003004000b7
:105600001004e00003003a000080eb00300798002f
:105610009d0037001e0090000000e8001007980071
:105620000080fb0061b52000010040001004e00094
:1056300003003a000081eb00320798009200370027
:105640001e009000300798008f003700ae019000d8
:1056500043179800c3c2bf000080fb004700de0074
:105660000080fb000000e0000300320010c3b30024
:10567000206f98000200370001c3b300216f98002b
:10568000ae6990004e119000034978007c0037000d
:105690002e00900060179800c3c2bf000080fb007e
:1056a0004600de000080fb00610060000000e000ba
:1056b0000300320011c3b300616f9800020037008d
:1056c00002c3b300626f98006e689000ee11900004
:1056d000804978006a003700ae009000011f9800f2
:1056e000c3c2bf000080fb004500de000080fb005d
:1056f000610060000000e0000300320012c3b3004c
:10570000227798000200370003c3b3002377980084
:10571000ae7090000e1890000148780058003700d5
:105720002e019000221f9800c3c2bf000080fb0022
:105730004400de000080fb00610060000000e0002b
:105740000300320013c3b3006377980002003700f0
:1057500000c3b300607798006e719000ae1890009f
:1057600082487800460037001e0090000000e000ec
:1057700003003a00d1362d0020b42000a0eb070032
:10578000ae0090002e4090000080fb0023b420006b
:1057900003004000904878002e4090000080fb00fd
:1057a00021b42000010040001004e00003003a0092
:1057b0000081eb0032079800330037001e00900094
:1057c0000000e800100798000080fb0023b42000d0
:1057d000030040001004e00003003a000080eb00ea
:1057e00030079800280037001e009000300798000e
:1057f000250037001e0090000000e00003003a0082
:1058000031372d0020b420007deb0700ae00900062
:105810002e4090000080fb0022b4200002004000d7
:10582000904878002e4090000080fb0023b42000b8
:10583000030040001004e00003003a000080eb0089
:1058400030079800100037001e0090000000e800ac
:10585000100798000080fb0021b4200001004000e8
:105860001004e00003003a000081eb0032079800ca
:10587000050037001e009000300798000200370036
:105880008081eb00330798003e0090000080fa0012
:10589000000006000600fa00000f780011079800cb
:1058a0003200200081382d001e00780045eb0700f3
:1058b0000000e00009003a0092002000c1382d00ed
:1058c0001e0090003feb07000000e00003003a00dc
:1058d0001000200020079800020037000000eb00b5
:1058e000200798002e0090000080fa0000000600bb
:1058f0000000fa00d262a900d242a900d222a90077
:10590000d202a900d262a900d242a900d222a900e3
:10591000d202a900d462a900d442a900d422a900cd
:10592000d402a900d462a900d442a900d422a900bb
:10593000d402a900404e28000015880040402000f5
:105940001015880030002100201588000000eb00b1
:1059500030158800a8a2a900a882a9000002200092
:1059600050158800de62a900de42a800f005200084
:10597000f010880000002800b010880000402000cf
:10598000c0108800e522a900e722a800dec2a90015
:10599000e0c2a9000080fa00000006000400fa003e
:1059a000a00aa800a0a82000100798008000eb0023
:1059b00000cab3001a03070023030700004f780052
:1059c0003903070050c5b3009e4f100014003a0081
:1059d0001100200000cab300110307000040eb00d3
:1059e000004f780010c3b3009e4f10000a003e0025
:1059f00015030700804178000e81e800120078004e
:105a000080007800834878000000e80000097800f2
:105a10001e4fe800f3ff37002303070001003700a3
:105a2000020007000080fa00000006000400fa00ef
:105a3000a0a82000100798008000eb0000cab30067
:105a40006303070050c5b3006b0307000040eb0081
:105a5000004f780010c3b3009e4f100009003e00b5
:105a60000e80e80090007800114178008100e80085
:105a700001087800024078005f0307001e4fe8002d
:105a8000f4ff37006c0307000080fa0000000600f6
:105a90000e00fa00881f7800000f780011079800a8
:105aa0001e007800300798000040eb00004f98007f
:105ab0001e00780010407800404798000004e00085
:105ac00026003200ce409000e0c2b30080cf5000ec
:105ad00015003a001e007800800078000040eb00be
:105ae000804878001e0fe8009e0190006801470082
:105af00012407800804078008180fb0003844000e1
:105b00000040e80000497800a20020008000eb007f
:105b10003e00900018ea0700004c78001e00780054
:105b2000300798000b003700ce409000f0c2b30061
:105b300080cf500004003600ce40900090c3b300e8
:105b400080cf5000030036000000eb0050079800a3
:105b5000140037001e0fe800d5ff37009e009000ac
:105b60000e4890000080fb0001044000a2002000cd
:105b70008000eb003e009000ffe90700004c780039
:105b80000000eb00600798000e489000e34f5000c3
:105b900002003a0010002000600798006e0090009c
:105ba000500798005e0090004f0478000080fa00d3
:105bb000000006000800fa00000000006e0e07005a
:105bc0000004e00023003a00c3c2bf000080fb00d5
:105bd0004700de000080fb000000e000f7ff3a0015
:105be000d60b07001007980021079800c3c2bf001a
:105bf0000080fb004700de000080fb000000e000aa
:105c0000eeff3a00cd0b07000001be001e00900021
:105c1000ae00900000015100818159000019200060
:105c200001002000800f5100818f5900efff3600e6
:105c30008000eb0000cab300e50207000040eb0063
:105c4000ed020700fc020700e06a2d00e40d0700ea
:105c5000daff37005c0e0700004f7800f0c2b30097
:105c60009e4f10000600360090c3b3009e4f1000f8
:105c700003003e001e80fb00300798000200370042
:105c8000a0032000300798003e0090000080fa003a
:105c9000000006002000fa00000f780010342d00ec
:105ca000cf0d070001652d001e0078000000d00018
:105cb0000100400001fa2f000100400010007800b0
:105cc000c70d07001e0078006101b80000fd2f001d
