:020000040000fa
:080000000002040000000000f2
:020000040000fa
:100400002fb7200080ff27000001880000000000b7
:10041000050007000c000700402702000000000054
:100420000040da000000fe004440a900002e2d002c
:100430000000e0000300320020002000a00188003e
:100440004440a80000000600e0512b0001002000fd
:100450001600370062004000e080480091018800eb
:100460009001ba0062004000e080480091018800dd
:100470009002ba0062004000e08048000002eb00f9
:100480006028e10005003a008301e900070033001d
:10049000038009000059eb00040037006128e100e7
:1004a000010032000082eb00050007009101880086
:1004b0001001ba000200e000e6ff3a00000005006b
:1004c000910188008002780062004000e0804800ce
:1004d0003559ba008301e900080032002559ba00f5
:1004e0008301e900050032000400e000f4ff32005f
:1004f00015d9ba008301e900f1ff3a0000000600b7
:10050000800178000200e000030032008159780089
:100510000201e900fdff3a000000060080017800ba
:100520000200e00003003200b15978000201e90046
:10053000fdff3a00000006000200e0000b00320060
:100540001042780091417800834f5200030032003e
:100550000080eb0006003900100005000000e800f4
:100560008100e8000201e900f5ff3a000000eb001d
:100570000000060000017800314978003204e000f4
:10058000fdff3a0000000600800078001004e00043
:10059000020032005104e000feff3a0000805000eb
:1005a00000000600ea874700889fbe008a9fbe00c1
:1005b0008c9fbe008e1f78008006780001067800b0
:1005c0008204780000047800010037000804e80085
:1005d0001800fb00980007000000e000fbff3a0055
:1005e00098407800d0c2b30080cf500004003200a1
:1005f00000c0e900d0ef9f0080cf500002003a0019
:10060000d1ef9f000804e8000900e0004600350033
:10061000e18f54004400320040022000808f5400db
:1006200041003c000900e0000d003400f08f540050
:100630001a003a0000c3b300984f100017003a00a8
:100640009840900080c7b30080cf50001200320065
:1006500080c5b30080cf500010003a000e00370074
:1006600000c3b300984f100002003200a900200020
:100670000a0037009840900080c7b30080cf500038
:10068000040032008900200080c5b30080cf5000f4
:1006900002003a00090120000884e800d8b79f0052
:1006a00000c3b300984f100002003a00d84f10006a
:1006b000feff32006055b800080778000e003700d2
:1006c000fab79f008bbf9f00a09b20000042520002
:1006d000c4ef9f006149b9000a00be007400070022
:1006e0004fea97000401fb00cf91de0000054100b6
:1006f000818549000804e8001800fb005600070047
:100700008000780009017800a09b200059000700b4
:10071000000278000000e000e9ff3a005fb09700b7
:10072000880f500005003a000c00e0000100320084
:100730000d0e78006000b800270037008e005400ce
:10074000f09d2000694078000000fb000080500010
:10075000170033004240a9000f003c004fe997000a
:100760000200fb00cf80de000000550081805d00ac
:10077000800f5500818f5d00070039006149b90085
:10078000510007007fb197008fb99700820f50008a
:10079000838f58000600320020022000505b880042
:1007a0000085eb008085eb00b3c2b300d3ef9f0060
:1007b000d0c2b3005fea9700804f520002003a00b7
:1007c00060051500e0851d000c00e000010032000e
:1007d000080e78000a00be004f0778004f06be00e2
:1007e0004f05be004f04be00af00b1000000060080
:1007f00010417800914f510006003a008001eb0053
:100800000204e0000a00320050417800d14f51004c
:10081000faff320010407800914f50000200310082
:100820000080eb00010037001000200080017800fc
:1008300003007800000006006900e10004003500b4
:100840006d00e100030034000002b100010032003d
:100850000000050010000500800078001104b100c0
:10086000030035009101b10001003c000050a000e0
:10087000000006000200e0000500320090cf1000ea
:10088000040032000000e8000201e900fbff3a002a
:100890000000eb0000000600605b80000000e0004c
:1008a0000100320000000100a0b620000000060098
:1008b000020ab900001bb9000200b8008100420022
:1008c00081004300000006006022b80006022000fc
:1008d0000000d0008180d2000482d2008582d20044
:1008e0000000a0000202520083825a0003003b0075
:1008f0000202420083824a000000a1000603e900d0
:10090000f3ff3a00000006000e00fa000e80e80037
:10091000a2002000f10f2000f9fe07008e80e80001
:10092000f2652700c0b22000231f0700004f7800a7
:1009300000c0eb009e4f10006b0032000000000072
:100940001e407800b8e9b70010002000db05070062
:100950000000e000faff32000040eb00404f98003a
:100960004e489000ee4f50000a003e004e48900066
:100970000080fb00c1a5200001004000104078006d
:100980005b1f07004e4890000040e800404f980071
:10099000f3ff3700d0c0b300551f0700a0c0b3005d
:1009a000531f07000040eb00404f98004e48900056
:1009b0000080fb00e1a3200001004000104078000f
:1009c000410b07004a1f07004e4890000080fb00c3
:1009d000e1a3200001004000104078004e0b07000a
:1009e000431f07004e4890000040e800404f980029
:1009f000e64f500003003200d0c2b3003c1f070096
:100a0000eaff3700d0c0b300391f0700a0c0b30011
:100a1000371f070040c4b300351f070080c4b30070
:100a2000331f070030c4b300311f070000c5b300f7
:100a30002f1f0700f0c2b3002d1f070000c5b30031
:100a40002b1f0700f0c6b300291f070070c7b300b3
:100a5000271f070050c6b300251f070020c7b3009b
:100a6000231f070000c2b300211f070050c6b300b8
:100a70001f1f070060c7b3001d1f070050c6b3004b
:100a80001b1f0700e0c6b300191f070040c7b300d3
:100a9000171f070000c2b300151f0700f0c6b30000
:100aa000131f070030c6b300111f070030c6b30084
:100ab0000f1f070050c7b3000d1f070020c7b3006a
:100ac0000b1f070020c7b300091f070050c6b30063
:100ad000071f070040c6b300051f0700431f07009c
:100ae0001e407800e81e07000080fa0000000600a3
:100af0000400fa00b05a8000100798009e00900091
:100b0000e18f5000140032001e0190000200e0004e
:100b1000040032001e009000e20f50001c00320062
:100b200056003700f26527008000eb00f0652700d3
:100b3000a11e070058ebb70080b5200080c0eb0075
:100b400090cf10004d003200b05a80000000e80045
:100b5000b05a88004900370058cbbf00551f070026
:100b60000000e000450032000e007800651f07001d
:100b70009f1f070040c4b3009e4f10003f003a0083
:100b8000b05a80000000e800b05a88003b003700ef
:100b900058cbbf00b8e9b700100020004705070098
:100ba0000000e000350032000040eb00004f78000c
:100bb000e2c0b3009e4f110007003e001e80fb0004
:100bc000c1a520000100400010407800c81e0700a9
:100bd0001e4fe800f6ff3700d0c0b300c41e070068
:100be000a0c0b300c21e07000040eb00004f780019
:100bf0001e80fb00e2a320000200400010407800ad
:100c0000b10a0700ba1e07001e80fb00e1a3200006
:100c10000100400010407800bf0a0700b41e070022
:100c20001e4fe80062c0b3009e4f11000300320067
:100c3000d0c2b300ae1e0700edff3700d0c0b30036
:100c4000ab1e0700a0c0b300a91e070058cbbf0011
:100c50008080fb00800120000008b8008295200001
:100c600000004100a200200061a920002bfe070027
:100c7000de1e070010002000b05a88000080fa0035
:100c8000000006002200fa00000f7800110798000b
:100c900064004700c10120003c0807008b050700e5
:100ca00064004700b70007006400470011002000ff
:100cb000908f100008003a00640047004040900008
:100cc000e64f500004003a00640047005040900096
:100cd000e44f5000030032000001eb0002179800bf
:100ce000300037006400470030009000e20f5000f1
:100cf00004003a009e0090000040eb00804878001d
:100d00000e0037006400470030009000e10f5000f3
:100d100004003a009e00900010c0b30080487800a4
:100d2000060037009e00900020c0b3008048780085
:100d30008001eb00031798001a0037006400470099
:100d400040099000d0099000d0518000e15180000e
:100d5000800f5100818f590010003a009e007800ea
:100d600064004700680040001001be008288be0099
:100d700020009000a00098009e00780064004700ca
:100d80007001900080099000b2009800c3009800a4
:100d90001300200003179800020037000000eb004a
:100da000001798000e1090000080fa000000060066
:100db0002400fa00000f780021479800100020005e
:100dc000f2040700006798000e609000e14f4000b9
:100dd00003003a000000eb0010179800660037008f
:100de0008000eb000e609000f3060700e40047006f
:100df0001000200080087800e400470000802000f8
:100e000090009800e400470060c0b300c040980024
:100e1000e400470040c0b300d04098002e4090004e
:100e2000e14f500016003a00e40047001000200097
:100e3000b0009800e400470000c0eb00a05098000c
:100e4000e400470000c0eb00b0509800e400470009
:100e500000c0eb00c0509800e400470000c0eb0069
:100e6000d0509800e400470000c0eb00e05098002c
:100e7000e400470000c0eb00f05098000a00370083
:100e8000e400470020002000b00098006400470004
:100e9000f20040001e0078001001be008288be00f3
:100ea00020009000a0009800640047006800400007
:100eb000f2518000035280000288be00135280006d
:100ec0002300980064004700d2518000e351800065
:100ed0007200980003089800640047009e007800a4
:100ee000700190008009900031009000c1009000d6
:100ef0000001690081816900205280003152800028
:100f00000000610081806100e00f5000e08f580018
:100f100006003200640047004252800053528000b5
:100f2000420898005308980006003700e400470084
:100f30001e00780030019000c0019000c2089800a7
:100f4000d3089800640047000e00070064004700c3
:100f500072004000c201200061c0b3008f0507008d
:100f600064004700c1012000d5070700cb0507003a
:100f700013002000131798001e1090000080fa0044
:100f8000000006000200fa00881f7800000f7800b9
:100f90001e0478001e00780010007800f109070098
:100fa000000c78001e0478001e00780010009000ed
:100fb000ec090700100498001e0478001e00780059
:100fc00030009000e7090700300498004f047800d3
:100fd0000080fa00000006000000fa000000eb00ac
:100fe000e059880000c0eb003eebb70000c0eb000a
:100ff0003febb70000c0eb0040ebb70000c0eb00d8
:1010000041ebb70000c0eb0042ebb70000c0eb00c3
:1010100043ebb7006000b800205a8800315a8800be
:101020000080fa00000006000e00fa00e05980007f
:101030000000e00014003a00ea0047000e007800cb
:1010400010ff07000000e0001a0032002e48900058
:101050000004e0000a003a001e00be00f0598800bb
:10106000015a8800ae009000115a88003e0090009e
:10107000ce009000205a8800315a88000d003700b9
:1010800010002000e05988008040eb000e0078003e
:1010900047ff07000000e000030032000000eb0003
:1010a000e0598800030037008000eb0061079800da
:1010b0000200370010002000600798006e009000ca
:1010c0000080fa00000006000c00fa00000f780013
:1010d0000e80e8009e0078001101be0032009800ea
:1010e000430098000e80e80011c0b30030ff0700f5
:1010f0000080fa00000006000a00fa00000f7800e5
:10110000110798001e017800205a8000315a800093
:10111000b20f5000a28f580007003200225a800000
:10112000335a80004052800051528000800f51009d
:10113000818f59000b003a001e0090003007980084
:10114000e0b3200040079800be0090004e009000e1
:1011500005000900b0587800110020002107980010
:10116000020037000000eb00200798002e009000de
:101170000080fa00000006000800fa00000f780066
:101180001e0fe9000080eb009e0f100018003200d7
:1011900040c0b300204798002e4090000040e90076
:1011a00020479800e14f4000f5ff32002067200003
:1011b0000100200020079800310798002e009000c1
:1011c000be00900061005000e08058000001be00a9
:1011d00022079800330798000080eb008080eb0026
:1011e000800f5100818f5900f4ff3a00eaff370069
:1011f0000080fa00000006000000fa00805a80001b
:10120000e80f50000d00320020b5200080c0eb0038
:1012100090cf10000200320052cbbf001a1d070011
:1012200000c0eb0052ebb7000000eb00805a8800d2
:101230000040eb0054ebb700530ba9000080fa000c
:10124000000006001200fa00805a8000000f98008b
:101250008e089000e38f5000420032000e0890008c
:10126000e30f500007003e008e089000e18f500011
:10127000140032000e089000e10f50002b003e00d9
:101280000d0037008e089000e58f50006600320098
:101290000e089000e40f50004d0036008e089000bc
:1012a000e68f50006e0032000e089000e70f5000ed
:1012b000b5003200e60037006000b800c058880072
:1012c000d158880000c0eb00004f780000c0eb0050
:1012d0001047980000c0eb002047980000c0eb00ca
:1012e0003047980000c0eb004047980000c0eb007a
:1012f000504798000080eb008080eb00300798009a
:1013000041079800320420008e007800400420003d
:10131000a91c070052ebb700c91b070060588800e2
:101320007158880020002000805a8800c41b0700e4
:101330000001be006058800071588000000151001b
:10134000818159003001200001002000800f5100f0
:10135000818f5900be00360030002000805a88007e
:10136000bb003700c003200001002000a058880007
:10137000b158880053cbbf00614060000004e0001a
:101380000300320050002000805a8800b00037006f
:1013900052cbbf00b8e9b700100020004703070098
:1013a0000000e000aa00320010c0b30018020700dd
:1013b0000040eb0028ebb700a11b07006058880035
:1013c0007158880040002000805a8800a000370033
:1013d0009b1b07000001be00605880007158800010
:1013e0000001510081815900700c20000100200093
:1013f000800f5100818f590002003600300020001c
:10140000805a880052cbbf002a1d07000000e00070
:101410008f00320090000700e24f50008c003a002d
:1014200050002000805a880052cbbf00b8e9b700b6
:1014300010002000210307000000e00084003200bb
:1014400030c0b300f20107007d1b07006058880020
:101450007158880060002000805a88007c003700a6
:1014600052cbbf00131d07000000e000380032001f
:1014700079000700204f98002e489000e64f50005a
:1014800002003a005cff0700710037002e48900010
:10149000e54f50006e003a0052cbbf007a1c0700a7
:1014a00000c0eb0052ebb700651b070060588800d6
:1014b0007158880070002000805a880028cbbf0037
:1014c000614060000004e00004003200c058800069
:1014d000d1588000d0518800e151880028cbbf004e
:1014e000644060000004e000040032000059800005
:1014f00011598000205288003152880028cbbf004b
:10150000624060000004e00004003200e058800007
:10151000f1588000405288005152880028cbbf000b
:10152000684060000004e0000400320020598000a0
:10153000315980006052880071528800530ba80016
:1015400054cbbf000040e80054ebb7004000370028
:101550003b1b07000001be006058800071588000ee
:101560000001510081815900700c20000100200011
:10157000800f5100818f5900350036003000200067
:10158000805a8800320037002d1b07000001be0082
:10159000605880007158800000005100818059001f
:1015a00060079800710798006e019000fe0190009e
:1015b0003006200001002000800f5100818f59006b
:1015c00023003600a0588000b15880006100500010
:1015d000e0805800a0588800b15888006e01900043
:1015e000fe019000c0f92f00f1ff2f000200400023
:1015f000838048006007980071079800a058800019
:10160000b1588000e00f5000e08f580002003a000f
:1016100010002000805a88006e019000fe019000aa
:101620003006200001002000800f5100818f5900fa
:10163000e4ff3e00021b07006e019000fe019000d7
:10164000020050008380580060588800715888005c
:101650000080fa00000006000e00fa000040eb00d7
:10166000304798000e007800a61c070020c0b30089
:101670009e4f100049013a000040eb0010479800cf
:101680001e409000ee4f500006003e000e00780015
:101690009c1c07001e4090000040e8001047980086
:1016a000f7ff370053cbbf00624060000004e0004a
:1016b0000b0032000040eb00104798001e409000e5
:1016c000e34f50000f003e000e0078008d1c070015
:1016d0001e4090000040e80010479800f7ff3700d8
:1016e00080b12000871c070090b12000851c0700f6
:1016f000a0b12000831c0700b0b12000811c0700ae
:10170000280ba8000040eb00104798001e409000f6
:10171000e74f500006003e000e007800791c0700dd
:101720001e4090000040e80010479800f7ff370087
:101730000040eb00104798001e409000e54f50001d
:101740000d003e000e0078006e1c07001e40900049
:101750000080fb00e1a32000010040001e41780052
:10176000904f510024013a001e4090000040e800d4
:1017700010479800f0ff37000040eb00104798003a
:101780009e409000d0ccb30080cf500006003e00b9
:101790000e0078005b1c07001e4090000040e8002f
:1017a00010479800f6ff37000000eb002007980074
:1017b0000e007800531c07000000e00003003a0010
:1017c0001000200020079800f40037009e81fb00e5
:1017d0006307980030032000ee009000808f5000d7
:1017e000b5003200300320006e019000800f5100e0
:1017f0000e003c00ee019000e38f51004a003200e1
:101800006e009000e30f500004003c00ee009000da
:10181000e18f500026003200d30037006e019000a7
:10182000e60f510068003200cf003700600320004f
:10183000ee019000808f51008b0032006003200089
:10184000ee009000808f500005003c005003200007
:101850006e019000800f510006003200c200370078
:10186000f00f2000ee019000808f51008f003200b9
:10187000bd0037000e007800221c070010c0b30026
:101880009e4f1000dc003a00630047001d1c07005b
:1018900053cbbf00624060000004e000bc00320097
:1018a0003e409000e24f5000b9003a00d2003700ad
:1018b0000e007800131c070041c0b3009ecf10003b
:1018c000cd003a0053cbbf00624060000004e0004e
:1018d0000b0032000040eb00104798001e409000c3
:1018e000e34f5000aa003e000e007800051c0700e0
:1018f0001e4090000040e80010479800f7ff3700b6
:1019000000b22000ff1b070010b22000fd1b0700e3
:1019100020b22000fb1b070030b22000f91b07009b
:10192000284ba8009a0037000e80e800f51b07003e
:101930002e409000e34f5000af00360053cbbf0065
:10194000624060000004e0000b0032000040eb0049
:10195000104798001e409000e34f50000f003e00db
:101960000e007800e71b07001e4090000040e800d2
:1019700010479800f7ff3700c0b12000e11b0700b7
:10198000d0b12000df1b0700e0b12000dd1b070005
:10199000f0b12000db1b0700282ba8002e40900090
:1019a00064405000204798002e4090000040e9001d
:1019b00020479800e14f4000750032000e0078008b
:1019c000d01b0700f8ff37000e80e800cd1b070092
:1019d0002e409000e34f50008700360053cbbf00ed
:1019e000624060000004e0000b0032000040eb00a9
:1019f000104798001e409000e34f50000f003e003b
:101a00000e007800bf1b07001e4090000040e80059
:101a100010479800f7ff370040b22000b91b0700bd
:101a200050b22000b71b070060b22000b51b0700b2
:101a300070b22000b31b0700286ba8002e40900056
:101a400064405000204798002e4090000040e9007c
:101a500020479800e14f40004d0032000e00780012
:101a6000a81b0700f8ff37000e007800a51b070031
:101a700042c0b3009e4f11005f003a00660047006d
:101a8000630040009f1b0700660047000080e800dd
:101a90009c1b0700660047000000e800991b070038
:101aa00066004700971b0700390037001000200030
:101ab00020079800360037000e007800911b0700c1
:101ac00043c0b3009ecf11004b003a0053cbbf0080
:101ad000624060000004e0000b0032000040eb00b8
:101ae000104798001e409000e34f500028003e0031
:101af0000e007800831b07001e4090000040e800a5
:101b000010479800f7ff370070b120007d1b0700d9
:101b100060b120007b1b070050b12000791b07003b
:101b200040b12000771b0700a2588000b358800006
:101b30008070200001002000800f5100818f59002b
:101b400013003600808f2f00f1ff2f00a258800075
:101b5000b35880000201400083814800a2588800e9
:101b6000b35888000a0037000e80e800651b0700a4
:101b70002e4090000040e90020479800e14f4000cf
:101b8000030032000e0078005e1b0700f8ff3700ec
:101b90002e0090000000e00005ff32003e40900063
:101ba000e24f500006003a003e009000ce00900048
:101bb0008058880091588800532ba80009003700ee
:101bc00082588000935880003e009000ce00900024
:101bd000800f5100818f5900020032000040eb005d
:101be00030479800821b07003e4090000080fb00b9
:101bf00050079800030037007d1b07008000eb00b2
:101c0000510798005e0090000080fa000000060076
:101c10000200fa00004f780010c0b300b41a0700a9
:101c200010c0b300b21a070060c0b300b01a0700ba
:101c30000040eb00ae1a070020c1b300ac1a070049
:101c400030c2b300aa1a070040c3b300a81a0700a5
:101c500060c5b300a61a07000040eb00a41a0700f5
:101c60000040eb00a21a070000c8b300a01a07004a
:101c70000040eb009e1a07000040eb009c1a070092
:101c80000040eb009a1a07000040eb00981a07008a
:101c90000040eb00961a07000040eb001047980048
:101ca0001e409000eb4f500006003e000040eb004d
:101cb0008f1a07001e4090000040e800104798006f
:101cc000f7ff37003ecabf00891a07003fcabf00ae
:101cd000871a070040cabf00851a070041cabf0023
:101ce000831a070042cabf00811a070043cabf0017
:101cf0007f1a07000040eb00104798009e409000bc
:101d000090ccb30080cf500006003e000040eb00b6
:101d1000771a07001e4090000040e8001047980026
:101d2000f6ff370030c6b300711a070020c8b300b1
:101d30006f1a070030c5b3006d1a070030c6b30034
:101d40006b1a070050c3b300691a070010c0b30034
:101d5000671a07001e407800651a070010c0b3001c
:101d60009e4f100001003a00532ba90010c0b30091
:101d70009e4f100011003200c0588000d1588000e2
:101d8000e00f5000e08f58000c00320060c3b30039
:101d9000571a070040c0b300551a070013cbbf0005
:101da000531a070012cbbf00511a070011cbbf0016
:101db0004f1a070010cbbf004d1a070070c3b300c5
:101dc0004b1a070040c0b300491a070010c0b30007
:101dd000471a070030c0b300451a070060c0b300bf
:101de000431a0700c0c0b300411a070030c0b30057
:101df0009e4f10000c003a0020c3b3003c1a0700ad
:101e000040c0b3003a1a070018cbbf00381a0700c9
:101e100019cbbf00361a07001acbbf00341a0700cf
:101e20001bcbbf00321a070000c0eb00301a0700be
:101e30006e1a07000080fa00000006000200fa0097
:101e4000d5c2a800d3c2a900dec2a900df02a90042
:101e5000dee2a8000000eb0000128800f000200085
:101e6000101288000000eb00201288004302a80036
:101e700042a2a80041e2a800d0c1b3004b04070071
:101e8000004f78001e80fb00680060000000e0004a
:101e9000f9ff3a001e80fb000080ea00610060004c
:101ea0000000e000f4ff3a002e04070010002000bc
:101eb000b1fc07000040eb00004f780060c0b300a9
:101ec0009e4f100014003e009e80fb00600020002a
:101ed0000008b80063a02000030140009e80fb00c2
:101ee000802420000008b80083002100030940007e
:101ef0009e80fb00600020000008b800a2a0200027
:101f000082004000110078000000a00080087800e6
:101f10001e4fe800e9ff37000040eb0004eab7007d
:101f200010002000b05188000000eb0090518800a4
:101f30008040eb0080c0b300870407008040eb00c6
:101f400090c0b3008404070071c0b300c0c0b300e8
:101f50008104070001c1b300d0c0b3007e040700b4
:101f600071c0b300a0c0b3007b04070001c1b3007f
:101f7000b0c0b3007804070081c0b30040c0b30014
:101f80007504070001c1b30050c0b300720407001c
:101f900000202000f0040700d1c0b3000040eb0097
:101fa0006d04070021c3b30020c0b3006a0407001a
:101fb00001c4b30030c0b30067040700f1c3b3002d
:101fc00090c0b3006404070021c1b30060c0b30037
:101fd00061040700c1c0b30070c0b3005e04070015
:101fe000e1ceb300a0c0b3005b04070051c0b30052
:101ff000b0c0b3005804070040302000d6040700ea
:10200000e1a320009140780040c0b30052040700d3
:10201000f1a320009140780050c0b3004e040700a7
:1020200001a420009140780020c0b3004a040700ba
:1020300011a420009140780030c0b300460407008e
:1020400021a42000914078000040eb0042040700ea
:1020500031a420009140780010c0b3003e04070076
:1020600020c1b300d103070038eab70001102000f7
:1020700000c1b300a10407002147200040c1b30004
:102080009e0407000000eb00bd04070041c0b30040
:10209000f0c1b300760407000080fa0000000600db
:1020a0000000fa0010c0b3000c0407004200de007c
:1020b000610060000080fa00000006000600fa00df
:1020c000000f78001e00e00009003200f0c1b300ec
:1020d000b60307000080fb004300de000080fb0029
:1020e0000000a20061006000200798002400370073
:1020f00030cabf00044ae30009003a00f0c1b3004f
:10210000aa0307000080fb004300de000080fb0004
:102110000000a2006100600020079800180037004e
:1021200010c0b300204798002e409000e64f5000aa
:1021300011003e002e4090008080fb0060002000d7
:102140000008b800a2a02000020040001040780063
:10215000614060000004e000030032001000200035
:1021600020079800060037002e4090000040e8004d
:1021700020479800ecff37000001eb002207980091
:102180002e0090000080fa00000006000800fa000f
:10219000000f78001e00e0000d003200f0c1b30017
:1021a00082030700684060000004e0000300320082
:1021b000f00f200030079800020037000001eb000c
:1021c000320798003e009000200798002b0037004f
:1021d00010c0b300204798002e409000e64f5000fa
:1021e00024003e002e4090008080fb006000200014
:1021f0000008b800a2a020000200400010407800b3
:10220000614060000004e000160032002e409000a3
:102210008080fb00600020000008b800a2a0200021
:1022200082004000110078000000a10080087800c2
:102230002e4090008080fb00600020000008b80065
:10224000a2a0200082004000110078000010a10030
:10225000800878002e4090000080fb002007980046
:10226000060037002e4090000040e800204798000c
:10227000d9ff3700f00f2000200798002e009000b3
:102280000080fa00000006000200fa00004f78000b
:1022900060c0b3009e4f10000a003e009e80fb000d
:1022a000600020000008b800a2a0200082004000ca
:1022b000110078000000a000800878001e4078001f
:1022c00004eab7000080fa00000006000200fa00ed
:1022d000360ae20014003a0010002000b0518800d5
:1022e00090518000000fe900700021009e0f100047
:1022f0000200360070002100000f780001c4b30016
:10230000e0c1b300da030700c00020001204070098
:102310009e407800c0c0b3008f0307009e4090002d
:10232000d0c0b3008c0307000080fa000000060054
:102330000600fa00901120000704070090c1b300c6
:102340001a030700004f7800e00020000204070095
:10235000e0c0b3001503070020479800f0c0b300a9
:10236000120307003047980090112000fa0307007d
:1023700090c1b3000d0307009e4f5000efff3a00dd
:10238000c0002000f4030700c0c0b300070307002b
:10239000004f7800d0c0b300040307001047980036
:1023a0001e0090009e0f5000060036001e00900098
:1023b0009e0050007000210001005000200798008e
:1023c0000a0037001e0090009e0f500003003a00e4
:1023d0007000210020079800040037001e009000c4
:1023e0001e0010000000e900200798002e00900059
:1023f0000080fa00000006001a00fa00881f78002a
:10240000000f78001107980090112000d2030700f8
:1024100090c1b300e50207000004e00003003a00a9
:102420000000eb00400f980058003700360ae20029
:1024300004003a00a5ff07000000eb00400f9800e1
:102440005200370090518000a05188000000eb003e
:10245000c103070021a32000914078000040eb0059
:102460003d03070031a320009140780010c0b30065
:1024700039030700640047004101200043020700c0
:10248000640447006400470010089000b50407008a
:10249000100c9800e400470070002100910f10001c
:1024a0001a003e004e409000614060000004e000d1
:1024b00016003a0064004700200090004f00de0044
:1024c0000000e00011003a00640047002000900086
:1024d0004400de00610060000000e0000b003a00f4
:1024e0006400470090009000e05e2000808f500064
:1024f00006003e0064004700200090004700de0018
:10250000610060000000e00001003a000000fe00f1
:102510006400470010007800905188006400470074
:10252000ec004000620020001e007800fbf707006e
:102530009e00900000c0eb008048780064004700d7
:1025400030509000e84f50000c003a006400470003
:10255000205090000004e0000400320064004700b6
:1025600020509000e64f500004003a009e0090007a
:102570006400470020509000804878000000eb0085
:10258000b051880010002000400f98004e089000c5
:102590004f0478000080fa00000006000800fa00ee
:1025a000000f7800214798002207980020002000a3
:1025b0006903070004cabf008080fb0060002000a0
:1025c0000008b80062a0200002004000904078009f
:1025d00020c0b300e002070004cabf008080fb00f7
:1025e000600020000008b80072a020000200400037
:1025f0009040780030c0b300d702070004cabf0083
:102600008080fb00600020000008b80062a020006d
:10261000820040002e009000110040006e0040003b
:102620002007980004cabf008080fb0060002000e3
:102630000008b80082a0200002004000ae00900018
:10264000010878000040eb00fe0107006100200057
:102650001e0078001a02070061002000e0a320009d
:102660001702070080c0b300f60107002e4090005b
:102670000004e0000300320062c0b300624798002b
:10268000020037000040eb00604798006e40900069
:10269000ec0107000080fa00000006000e00fa00be
:1026a000400020002c03070004cabf008080fb000c
:1026b000600020000008b80062a020000200400076
:1026c0009040780040c0b300a302070004cabf00d6
:1026d0008080fb00600020000008b80072a020008d
:1026e000020040009040780050c0b3009a020700fa
:1026f00004cabf008080fb00600020000008b80012
:1027000082a02000020040009040780060c0b3002a
:102710009102070004cabf008080fb006000200017
:102720000008b80092a0200002004000904078000d
:1027300070c0b3008802070004cabf0030eab700c7
:1027400004cabf008080fb00600020000008b800c1
:10275000a2a0200082004000110078000010a0001c
:1027600080087800c0c1b30010020700624060001a
:102770000004e0000600320001c8b300f0c1b3005d
:10278000bb02070001c8b300f0c1b3009502070007
:10279000a1c0b300c0c1b3009202070081c0b30062
:1027a000f0c1b300b202070080a3200051c0b30003
:1027b00090cf100060003a00c0c1b300fb010700d9
:1027c0000080fb006a0060000000e000faff3200b9
:1027d000c0c1b300f5010700624060000004e000e2
:1027e0005500320081c0b300f0c1b3007d02070084
:1027f0000000eb00d80207000040eb00eb010700ef
:10280000004f780010c0b300e8010700104798009f
:1028100060c0b300e50107002047980070c0b30016
:10282000e2010700304798001e0090000000e80019
:1028300010079800ae4090000040eb0046020700f1
:10284000be40900010c0b300430207006400470080
:10285000810020004d0107000040eb00404f980030
:102860004e489000ef4f50002d003e00c0c1b30015
:10287000ce010700624060000004e0002800320042
:1028800064004700100090004d00de006100600011
:102890000000e0002200320001c8b300f0c1b30024
:1028a0007302070001c8b300f0c1b3004d02070076
:1028b000a1c0b300c0c1b3004a02070081c0b30089
:1028c000f0c1b3006a020700c0c1b300b70107003e
:1028d0000080fb006a0060000000e000faff3200a8
:1028e00081c0b300f0c1b3003e020700ae409000cb
:1028f0000040eb0018020700be40900010c0b3007b
:102900001502070064004700810020001f01070036
:102910004e4890000040e800404f9800d0ff37003c
:102920009e4078000040eb000b0207009e409000a4
:1029300010c0b300080207000080fa000000060083
:102940000400fa00000f7800a05180001e00400033
:1029500074004000100798009e0090007000210055
:10296000808f5000040036001e00900081ff2e0072
:1029700001004000100798000000eb0076020700fd
:10298000ae4090000040eb00f3010700be40900015
:1029900010c0b300f0010700ae40900020c0b300ab
:1029a000ed010700be40900030c0b300ea0107000f
:1029b0000080fa00000006000400fa00004f7800d2
:1029c000110798001e40780004eab7009e80fb00c3
:1029d000600020000008b80062a0200082004000d3
:1029e0001e009000110040006f004000100798008a
:1029f0002000200058020700ae4090000040eb008d
:102a0000d5010700be40900010c0b300d2010700fe
:102a1000ae40900020c0b300cf010700be40900040
:102a200030c0b300cc0107000080fa0000000600af
:102a30000600fa00000f780011079800a0518000ee
:102a40001e0040007400400020079800ae00900077
:102a500070002100808f5000040036002e0090008e
:102a600081ff2e0001004000200798000001200097
:102a700039020700ce40900000c1b300b601070044
:102a8000de40900010c1b300b3010700ae0090001b
:102a90001e009000008040000000e9002007980020
:102aa000ae00900070002100808f500004003600be
:102ab0002e00900081ff2e000100400020079800aa
:102ac000ce40900020c1b300a3010700de4090007b
:102ad00030c1b300a001070001c3b300f0c1b300cf
:102ae000e3010700f0c1b300300107000042b2006b
:102af0000004e000fbff3a0060c1b3002b010700b7
:102b00005047980070c1b300280107004047980063
:102b10002e0090000080fa00000006000600fa0077
:102b2000000f78001107980004cabf008080fb00e6
:102b3000600020000008b80062a0200002004000f1
:102b4000100078001e0040006f0040002007980031
:102b50000001200000020700ce40900000c1b30039
:102b60007d010700de40900010c1b3007a0107002c
:102b7000ae0090001e009000008040000000e900c0
:102b800020079800ce40900020c1b30072010700da
:102b9000de40900030c1b3006f01070001c3b300f5
:102ba000f0c1b300b2010700f0c1b300ff0007009d
:102bb0000042b2000004e000fbff3a0060c1b30035
:102bc000fa0007005047980070c1b300f7000700f3
:102bd000404798002e0090000080fa000000060098
:102be0000600fa00000f78001e00e00003003a0023
:102bf0000080eb0020079800420037001100200001
:102c00009e8f100006003a00410007000080fb0084
:102c10004800dd000080ea002007980039003700f6
:102c20000000eb00cc0107000040eb00df000700d4
:102c30002047980010c0b300dc0007003047980020
:102c4000ae40900000c1b30043010700be409000b9
:102c500010c1b300400107009e00900070002100e9
:102c6000808f50000d003e001e0090001e004000ae
:102c70000000e900100798009e00900070002100fd
:102c8000808f5000090036001e00900081ff2e004a
:102c90000100400010079800040037001e0090005b
:102ca0001e0040000000e90010079800ae409000b0
:102cb00020c1b30028010700be40900030c1b3001e
:102cc0002501070001c3b300f0c1b300680107008c
:102cd000f0c1b300b50007000042b2000004e000fc
:102ce000fbff3a0060c1b300b00007002047980026
:102cf00070c1b300ad000700304798001e0090007f
:102d0000200798002e0090000080fa0000000600c6
:102d10000200fa00d5c2a9008540a900a003200046
:102d20004012880085c0bf000080fb004200de002a
:102d30000080fb00610060000000e000f9ff32004d
:102d400040128000004f78008540a9000000eb0091
:102d50004012880085c0bf000080fb004200de00fa
:102d60000080fb00610060000000e000f9ff32001d
:102d700040128000004f78008540a900d5c2a8000d
:102d80001e80fb000080fa00000006000800fa0028
:102d9000000f780011079800d5c2a9008540a9004e
:102da000a0032000401288000000eb0020079800dc
:102db0001e0fe90085c0bf000080fb004200de005e
:102dc0000080fb00610060000000e000f9ff3200bd
:102dd00040128000604798008540a900ae00900036
:102de0001e009000808f5000120031000000eb00a8
:102df000401288002e0090000000e8002007980094
:102e00001e0fe80085c0bf000080fb004200de000e
:102e10000080fb00610060000000e000f9ff32006c
:102e20009e00780040128000804878008540a9000c
:102e3000eaff3700d5c2a8002e0090000080fa00fb
:102e4000000006000200fa00004f7800d5c2a90079
:102e50008540a900a00720004012880085c0bf005f
:102e60000080fb004200de000080fb00610060008b
:102e70000000e000f9ff3200401280001047980087
:102e80008540a9001e80fb004012880085c0bf005d
:102e90000080fb004200de000080fb00610060005b
:102ea0000000e000f9ff3200401280001047980057
:102eb0008540a900d5c2a8000080fa0000000600e5
:102ec0000600fa00000f780011079800d5c2a9008b
:102ed0008540a900a00720004012880085c0bf00df
:102ee0000080fb004200de000080fb00610060000b
:102ef0000000e000f9ff32004012800040479800d7
:102f00008540a9001e0090000000e0001200320081
:102f10001e0078001080fb00401288001e0fe800a1
:102f20001e0090000000e9001007980085c0bf0057
:102f30000080fb004200de000080fb0061006000ba
:102f40000000e000f9ff3200401280004047980086
:102f50008540a900ebff3700d5c2a8000080fa0029
:102f6000000006000200fa00d5c2a9008540a900b1
:102f7000f00f20004012880085c0bf000080fb00d9
:102f80004200de000080fb00610060000000e00005
:102f9000f9ff320040128000004f78008540a90000
:102fa000d5c2a8000080fa00000006000200fa0066
:102fb000004f7800d5c2a9008540a9001e80fb0003
:102fc0004012880085c0bf000080fb004200de0088
:102fd0000080fb00610060000000e000f9ff3200ab
:102fe00040128000104798008540a9000000eb00c7
:102ff0004012880085c0bf000080fb004200de0058
:103000000080fb00610060000000e000f9ff32007a
:1030100040128000104798008540a900d5c2a80042
:103020001e4090000080fa00000006000200fa0036
:10303000004f7800d5c2a9008540a9001e80fb0082
:103040004012880085c0bf000080fb004200de0007
:103050000080fb00610060000000e000f9ff32002a
:1030600040128000104798008540a9000000eb0046
:103070004012880085c0bf000080fb004200de00d7
:103080000080fb00610060000000e000f9ff3200fa
:1030900040128000104798008540a9000000eb0016
:1030a0004012880085c0bf000080fb004200de00a7
:1030b0000080fb00610060000000e000f9ff3200ca
:1030c00040128000104798008540a900d5c2a80092
:1030d0001e4090000080fa00000006000400fa0084
:1030e000004f7800402120009b0007009e407800a0
:1030f00040c1b3001800070011c0b30020c1b300e5
:1031000015000700a030200093000700a0c0b30006
:10311000c6ff0700614060000004e000fbff3a00ca
:10312000402120008c0007008040eb0020c1b3004c
:103130000900070080c1b300bcff070020479800ca
:1031400090c1b300b9ff0700304798001e009000ff
:103150000080fa00000006000400fa00004f78002a
:1031600011479800d5c2a9008540a90000c4b3004a
:103170001e4070000080fb004012880085c0bf0028
:103180000080fb004200de000080fb006100600068
:103190000000e000f9ff3200401280002047980054
:1031a0008540a9001e4090000080fb00401288006e
:1031b00085c0bf000080fb004200de000080fb00f5
:1031c000610060000000e000f9ff32004012800062
:1031d000204798008540a900d5c2a8000080fa00c9
:1031e000000006000400fa00004f78001147980024
:1031f000d5c2a9008540a90000cab3001e407000d6
:103200000080fb004012880085c0bf000080fb00ea
:103210004200de000080fb00610060000000e00072
:10322000f9ff320040128000204798008540a90035
:103230001e4090000080fb004012880085c0bf0047
:103240000080fb004200de000080fb0061006000a7
:103250000000e000f9ff3200401280002047980093
:103260008540a900d5c2a8000080fa000000060031
:103270000400fa00004f780011479800d5c2a90059
:103280008540a90000c8b3001e4070000080fb000c
:103290004012880085c0bf000080fb004200de00b5
:1032a0000080fb00610060000000e000f9ff3200d8
:1032b00040128000204798008540a9001e409000e1
:1032c0000080fb004012880085c0bf000080fb002a
:1032d0004200de000080fb00610060000000e000b2
:1032e000f9ff320040128000204798008540a90075
:1032f000d5c2a8000080fa00000006000400fa0011
:10330000004f7800110798004021200012000700ac
:103310009e40780040c1b3008fff0700ae40900090
:1033200060c1b3008cff0700be40900070c1b300c5
:1033300089ff0700a030200007000700a0c0b300ed
:103340003aff0700614060000004e000fbff3a0024
:103350000080fa00000006000200fa00000f78006a
:1033600031c0b300f0c1b3009eff07009e40900043
:10337000f0c1b300beff07000080fa0000000600a5
:103380000800fa00000f7800c1c0b300f0c1b3001c
:1033900094ff07000040eb0050ff07002007980053
:1033a000200020009e0f100004003a002e00900024
:1033b0004800de00610f60000b0037002e00900017
:1033c0001e017800e10061004809dd00f1ef2f00e7
:1033d000010060000200700020079800ae0090001d
:1033e0000040eb00c5ff070020202000daff0700a7
:1033f00020c0b3000dff0700204798002e4090002a
:103400009e40780061c16000e1cfb30001406000e0
:103410000240700020479800ae40900020c0b300ea
:103420004dff07001e00e0000300320052c1b30050
:10343000624798000200370020c1b300604798003f
:10344000ee40900040c0b30043ff070041c0b3000e
:10345000f0c1b30086ff07000080fa0000000600fc
:103460000000fa0041c0b300f0c1b3005dff0700e7
:10347000d0c1b300cdfe0700644060000004e0004e
:10348000fbff3a0000000000f0c1b300c7fe0700d8
:10349000684060000004e000fbff3a0001c2b30096
:1034a000e0c1b30072ff07000080fa0000000600d0
:1034b0000000fa0001c2b300e0c1b30049ff0700f9
:1034c000d0c1b300b9fe0700614060000004e00015
:1034d000fbff320041c0b300f0c1b30064ff07003e
:1034e0000080fa00000006000200fa00004f780099
:1034f0005031200098ff07009e40780050c1b30073
:1035000015ff07000080fa00000006000000fa0026
:103510005031200090ff070050c1b300a3fe070008
:103520000080fb000080fa00000006000c00fa009a
:10353000000f7800110798000000eb00500798007a
:103540001e00e000290032000040eb0040479800d8
:1035500000712200400798004e409000e44f500058
:1035600029003e001e0078004e0190001100090065
:103570000280d800300798003e0090000000e00074
:1035800003003a005e0090000000e0000e003200f0
:103590008e81e800130178006e4090000043b00077
:1035a00082007800804878000201e80082097800f3
:1035b000be0090004e0090000008b8001e0f1000e2
:1035c00010002000500798004e009000a20020003c
:1035d000110009000280d800400798004e4090007a
:1035e0000040e80040479800dbff37008e81e8008c
:1035f000130078000001780001c3b300014978008e
:103600000000e800800978009e0090000040eb0078
:10361000804878000080fa00000006000200fa00ee
:10362000000f78009e40900060c4b30080cf50002f
:10363000040036001e40900001ceb300014040005f
:103640001047980060c4b3009e4f1000020036007f
:1036500000ceb3001e4f40009e40900090c3b300c8
:1036600080cf5000050036001e40900091ccb30082
:103670000140400010479800040037001e409000b1
:1036800001cdb300014040001047980090c3b30043
:103690009e4f10000300360090ccb3001e4f400038
:1036a0000200370000cdb3001e4f40001e409000c6
:1036b0000080fb004400dd001e4070000080fb0025
:1036c0000080fa00000006000400fa00004f7800b5
:1036d0001e80fb004400de00004f780090c0b30065
:1036e0009e4f10000500360071c3b3001ec040009d
:1036f0000080fb00100798000400370001c3b300ee
:103700001ec040000080fb00100798001e009000c3
:103710000080fa00000006000400fa00004f780064
:103720001e4078006f4f600091c0b3009ecf100024
:103730000500360071c3b3001ec040000080fb00ce
:10374000100798000400370001c3b3001ec04000fa
:103750000080fb00100798001e0090000080fa0017
:10376000000006000600fa00000f78001e00780036
:10377000100798003e409000404798002e4090006f
:10378000304798004e409000204798001e0090005f
:103790000080fa00000006000c00fa00008fbe0056
:1037a0001e00be00300798004107980066004700e1
:1037b000500798005e00900030409000404798000d
:1037c000de0090005e00900010407800b04098004d
:1037d0005e009000ce409000014878005e009000ae
:1037e0002040900040479800de0090005e0090006e
:1037f00010409000a04098005e009000ce409000e5
:10380000114098003e009000ce0090000080fa0029
:10381000000006001000fa00000f78001107980061
:103820006000b80060079800710798001e009000c3
:103830000000d100200798001e0078003007980093
:103840002e0090000000e90020079800e10f4000e2
:103850000e003200e60247001502780004007800ee
:10386000100078006101b8006e009000fe0090002a
:1038700000004100818049006007980071079800ae
:103880000482e800840a7800edff37001e009000f3
:10389000610060000000e0000a0032003e0090007d
:1038a000104078000081fb00030020006e009000b3
:1038b000fe009000000041008180490060079800f0
:1038c000710798006e009000fe009000400798007d
:1038d000510798005e009000200798000000e0006b
:1038e0000f0032000000eb00700798006e0090009f
:1038f0006101b8002e00900001002000020040008d
:103900008380480060079800710798006e0090005f
:10391000fe0090004007980051079800edff370027
:103920006e0090000080ea000080fa0000000600af
:103930000600fa00000f78001e00780020079800ab
:103940002e00900010407800204798000004e0000e
:1039500010003200ae40900000c6b30080cf50008f
:1039600008003400ae409000a0c7b30080cf5000e4
:1039700004003c002e019000ae00900000ceb30089
:10398000114940002e0090000000e8002007980038
:10399000ebff37001e0078000080fa0000000600f0
:1039a0000200fa00881f78000040eb00004f78000a
:1039b00020c0b3009e4f100011003e009e80fb000f
:1039c000e00020000008b80002aa20000204400025
:1039d00000052000da0a0700004c78009e80fb00fa
:1039e000e00020000008b80042aa20008200400049
:1039f0000000eb00800878001e4fe800ecff370065
:103a00004f0478000080fa00000006000200fa006f
:103a10000040eb00004f780020c0b3009e4f100024
:103a200004003e001e407800040007001e4fe8001e
:103a3000f9ff37000080fa00000006008c00fa0051
:103a4000881f7800004f78009e80fb00e000200077
:103a50000008b80002aa200000004100308798004a
:103a60000000eb00603798003e8090001040780026
:103a7000680b07000000e00004003a00be809000e0
:103a80000000eb00a00098001d0137003e80900070
:103a900020009000508798005e809000e20f500058
:103aa00070003200de809000e28f500007003e0080
:103ab0005e8190000200e0000b0032005e8090000a
:103ac000e10f5000ea0032000a013700de8090006a
:103ad000e98f5000f70032005e819000eb0f51003b
:103ae00083003200030137003e80900010407800d0
:103af000be0c07000000e000fe00320010002000b5
:103b0000603798000000eb0050379800de309000de
:103b100030062000808f50000d003e008e81e800ae
:103b2000a20620000e0141001200780080007800fb
:103b3000818041000000e800000978003e8090008c
:103b400010407800730c07000000e000efff3a001f
:103b50008e80e8005e309000808040000040eb00e6
:103b6000804878003e80900010407800270c0700c5
:103b7000be80900020002000a0009800b0c0b300dc
:103b8000404799003e8090006c00400042082000b1
:103b90000e014100e10620008e8040000e82e80008
:103ba00080017800040078006c010700403798001d
:103bb0004e3090000000e000ce003a004e409100f0
:103bc000e14f500007003600e00620000e004000e4
:103bd000ce409100c7050700be80900020c0b30012
:103be000c04898003e849000e00620000e0040008f
:103bf00010007800d3080700100498003e80900061
:103c000010009000e10f400007003a00be809000d5
:103c10000040eb00b0489800be80900020002000db
:103c2000a0009800b30037003e8090001000900084
:103c30000000e00007003a00be80900010c0b30012
:103c4000b0489800be80900020002000a00098009e
:103c5000a8003700be809000b0002000a0009800af
:103c6000a40037003e809000104078007f0b0700d2
:103c70000000e0009f0032003e809000304890003d
:103c80000080fb000000d000a1b520000100400032
:103c90001000780040879800820820000e01410043
:103ca0001200780080007800914078005147990018
:103cb0000000e800000978000104e000050032007f
:103cc0003e809000de409100104078008c0b070091
:103cd000f1ff37003e80900010407800190b07007c
:103ce000be80900090002000a00098008100370066
:103cf0003e809000104078005c0b07000000e00060
:103d00007c00320010002000603798003e80900058
:103d100040489000e24f500014003a003e8090006e
:103d200011c0b300214898000040eb0050479900b3
:103d3000de40910030c8b30080cf50001e003e002e
:103d4000e11528005e4091000080fb003e8190005c
:103d5000e0c0780012407800690b07005e409100d7
:103d60000040e80050479900f1ff37003e80900086
:103d70008040eb00214898000040eb00504799003c
:103d80005e409100fe4f50000b003e00e113280002
:103d90005e4091000080fb003e819000e0c0780012
:103da00012407800560b07005e4091000040e8008a
:103db00050479900f2ff37003e8090004048900045
:103dc0008080fb00400120000008b800820228002b
:103dd0000000410040879800820820000e01410049
:103de00012007800800078009140780051479900d7
:103df0000000e800000978000104e000050032003e
:103e00003e809000de409100104078003c0b07009f
:103e1000f1ff37000040eb00504799005e409100f1
:103e2000e34f50000b003e00311e28005e40910021
:103e30000080fb003e819000e0c0780012407800d6
:103e40002f0b07005e4091000040e80050479900aa
:103e5000f2ff3700be80900030c0b300e040980011
:103e6000be80900010002000a000980021003700c4
:103e70003e80900010407800dc0b07000000e0005e
:103e8000030032003e809000104078005f0b070076
:103e90003e8090001d0007000000e0001500320089
:103ea00075080700be80900090002000a0009800d8
:103eb000100037003e80900010407800550a07003f
:103ec0000000e0000b0032003e80900010407800bf
:103ed000e60a07000000e000060032003e80900085
:103ee000104078005c0a0700be809000a00020000f
:103ef000a00098006e3090000000e000d8fe3a006c
:103f00004f0478000080fa00000006000c00fa0060
:103f1000881f7800000f78001e00780010009000c5
:103f2000505a88001e007800204890000004e000ed
:103f30006c0032001e00780010407800cb0a0700a9
:103f40000000e0007c0032000000eb001007980049
:103f50001e00780060409000e84f50000b003200d7
:103f60005008070040479800505a8000e10f400079
:103f700006003a001e00780010407800710a070021
:103f80001000200040079800700037001e007800e5
:103f9000604090000080fb0050079800de00900019
:103fa000e58f5000190032005e009000e50f5000d0
:103fb00004003c00de009000e38f50000800320057
:103fc000400037005e009000e60f50001f003200f6
:103fd000de009000e88f50002900320039003700e1
:103fe000ce40900050c2b30080cf500004003a0091
:103ff0009e00780050c0b300e040980031003700c8
:1040000010002000100798002e003700ce409000ce
:1040100050c2b30080cf500006003a0010002000cc
:10402000100798009e00780030c0b300e040980070
:10403000240037004e409000704798009e007800a2
:1040400060c0b300e04098001e003700ce409000f2
:10405000614798001e0478003e0090006ffd070045
:10406000304c98009e00780080c0b300e04098007b
:104070009e0078000000eb00c0009800110037009f
:104080001e047800640147001e0078009e0178003d
:10409000c0009000334890000305070040049800da
:1040a00010002000100798001e00780040009000cb
:1040b000e10f400003003a009e00780030c0b300da
:1040c000e04098001e0090000000e00099ff3200e0
:1040d0001e007800ce40900010407800880a07004b
:1040e00094ff37001e007800104078005f0a070038
:1040f0000000e00010003200ea0707004047980087
:10410000505a8000e10f400006003a001e0078007f
:10411000104078000b0a07001000200040079800ac
:104120000a0037001e007800ce4090001040780052
:10413000730a0700ebff37001e007800515a800019
:10414000110098000000eb00400798004e0090001e
:104150004f0478000080fa00000006001600fa0004
:10416000000f780011079800220798003307980085
:104170000040eb00104f98000000eb006007980033
:104180000040eb00004f980032002000811e280004
:104190001e007800e8f007000000e0000300320095
:1041a00020002000100f9800ce0037009e007800fd
:1041b000648f40000000eb005007980000000000f2
:1041c0009e00780000c2b300914f100002003a0038
:1041d0001e0fe800faff37001e007800104078003c
:1041e000604f9800ee48900000c2b30080cf5000ae
:1041f000800032006e4890000004e0007d00320034
:104200006e489000ed4f50007a0032006e489000ea
:10421000ea4f500077003200ae0090000e48900048
:10422000914f5000730031001e4890000080fb0049
:10423000200f98002e089000e10f50001f00320060
:10424000ae089000e18f500004003c002e08900062
:104250000000e0000500320061003700ae08900069
:10426000e28f5000210032005d0037000e489000c0
:104270000080fb008000d0001e0090000080400005
:104280001e0878001e00780010407800604f9800eb
:10429000ee489000f0c2b30080cf5000040032001e
:1042a000ee489000c0c5b30080cf50004c003a00eb
:1042b00010c0b300104f980049003700e8014700d4
:1042c00013417800024078000080fb008000d0009d
:1042d0001e009000008040001e0878000241e800a7
:1042e0008249780020c0b300104f98001e0078006b
:1042f00010407800604f9800ee489000f0c3b30083
:1043000080cf500004003200ee48900060c2b3003d
:1043100080cf500006003a001e0078008040eb007d
:104320000148780010c0b300104f98002c003700ef
:10433000ee489000b0c2b30080cf500004003a00b5
:104340009e00780000c2b300804878002400370047
:10435000ee489000e0c2b30080cf500007003a0062
:104360000e489000e14f500004003a001e0fe80094
:104370001e0078006007980019003700ee48900092
:10438000d0c3b30080cf500006003a001e00780072
:104390008040eb000148780010c0b300104f980037
:1043a0000f003700ee489000f0c2b30080cf5000fd
:1043b00004003200ee489000c0c5b30080cf50002a
:1043c00007003a000e4890000080fb008000d000fb
:1043d0001e009000008040000080e9001e08e800f8
:1043e0001e0fe8001e00780010407800604f980013
:1043f0007cff37009e0078000040eb00804878008a
:10440000be00900090c0b300804878006e0090001d
:104410000000e0001b0032006e00900044fd070029
:104420006007980000002800000f98000040eb0093
:10443000604f98006e489000e94f500011003e0018
:10444000320020008e0890006e0090003af00700c5
:104450000000e00004003a003e009000ee489000aa
:1044600001487800070037000e0890006400400003
:10447000000f98006e4890000040e800604f9800e0
:10448000ecff37000e4890000004e00010003a00f6
:104490001e00900092002000c11e2800100078002d
:1044a0001ef007001e00900010007800e900400098
:1044b0000040eb0080487800be00900010c0b300c0
:1044c000804878000e4890000040e800004f9800b7
:1044d0002e0090008e489000014878005e00900009
:1044e000100f98001e0890000080fa0000000600df
:1044f0003800fa00000f7800110798002207980092
:1045000033079800440798006a00470081002000a4
:104510001efa07000000eb00201f98002e009000fc
:104520009080fb004001200041f90700101f980017
:10453000ae0090002e00900010407800e848500037
:104540002e0090009080fb001e0090000ffa0700e4
:104550006a0047005c0007009e0078006a00470080
:104560001080fb0080087800be0090006a004700c1
:104570002000900080087800ce0090006a0047007c
:1045800030009000800878000000eb00301f980099
:104590009e1890002e189000808f500002003a0064
:1045a00010002000301f98003e1890000080fa0094
:1045b000000006003800fa00881f7800000f78001d
:1045c0001107980022079800634798004407980055
:1045d0005507980010002000ecf60700607798005f
:1045e0006e709000e14f4000340032004101200025
:1045f0006e709000f0f807006e4090000080fb00a5
:1046000068004000201f9800ec0047000040eb00cd
:10461000904098006c004700ae4090000148780040
:10462000ec0047000000eb00900098006c00470091
:10463000ce009000210098006c004700de00900042
:10464000310098006e4090000081fb006c00470034
:1046500068004000ae009000b0ef07006c0047001b
:10466000190007006e4090000080fb0068014000c8
:1046700011c0b3001e0078006b0007006c004700fb
:10468000ae1890000efa07006c044700ae189000b8
:104690004001200021f9070010049800610120006a
:1046a0006e709000c4f807006c0047000080e800be
:1046b0002100200002fa0700f8f707004f047800f5
:1046c0000080fa00000006000200fa00881f78004f
:1046d000000f78001e0478001e0078002000900073
:1046e00020fc0700200498001e0478001e007800bb
:1046f000300090001bfc0700300498001e04780076
:104700001e0078001000900016fc070010049800ae
:104710004f0478000080fa00000006002000fa0034
:10472000000f7800110798002207980033079800bf
:104730006a0047004101200094f907006a00470021
:104740009080fb00000f20008080600000042000ab
:10475000808f5000030032000000eb00700f9800c3
:104760002e0037006a004700104078006f4060005c
:104770004200dd0060ebb70060cbbf008080fb0033
:104780000000eb00aaf807004007980060cbbf00cc
:104790000080fb006af807004e0090000000e00077
:1047a000030032000001eb00720f98001b0037007d
:1047b0006a0047006e0007001e00e000050032009e
:1047c0009e0078006a004700000990009009900060
:1047d0008288be009e0090006a0047006001900041
:1047e000f0019000b2009800c3009800ae00900065
:1047f0006a0047001048900080487800be01900091
:104800006a01470060cbbf008080fb00120090006f
:104810008109500013002000730f98007e0890005b
:104820000080fa00000006001a00fa00881f7800d5
:10483000000f7800214798002207980040c1b3007c
:1048400060ebb700e600470050c4b3008048780032
:10485000e60047000040eb0090409800e60047006b
:104860002e0090007400400090009800e600470081
:10487000f05a80000000e800f05a8800a00098007c
:10488000e60047000000eb00b0009800e60047009b
:1048900040c6b3008048980066004700ae409000d4
:1048a00011489800e60047000000eb00d000980097
:1048b00066004700d2518000e351800062009800fa
:1048c00073009800e60047001e0078003001900059
:1048d000c001900082089800930898006600470085
:1048e000230007002e009000740140008040eb0080
:1048f0001e00780029f707006600470041012000ec
:104900006ff9070066044700410120000000eb003a
:1049100082f8070050049800a100200004cabf00dc
:1049200025f80700660047006a00400021002000cb
:1049300063f907004101200004cabf001ef8070008
:104940000000eb004f0478000080fa000000060031
:104950000200fa00000f780060cbbf000080fb006f
:104960001e004000f6f707000080fa000000060075
:104970000200fa00881f7800000f78001e047800fb
:104980001e0078001000900076fb070010049800cd
:104990001e0478001e0078002000900071fb0700c4
:1049a000200498001e0478001e007800500090003b
:1049b0006cfb0700500498004f0478000080fa0058
:1049c000000006000200fa00004f7800114798002e
:1049d0000040eb00d8e2b700c7e2a900d2a2a900cc
:1049e000d6a2a9001e80fb00c700dd00cbc2bf001d
:1049f0000074a10001407000cbe2b7001e4090009f
:104a0000dce2b7000000000000000000d682a80031
:104a10000000000000000000000000000000000096
:104a20000000000000000000000000000000000086
:104a300000000000d682a90000c0eb00d8e2b70059
:104a4000c7e2a800d2a2a8000080fa000000060079
:104a50000600fa000040eb00004f7800f0c1b30000
:104a60009e4f100007003e001e80fb00a2ac2000fd
:104a70008200400000c2b300804878001e4fe8006a
:104a8000f6ff37000040eb00eaeab700d682a90043
:104a9000d6a2a9000040eb00d8e2b700d2a2a9003c
:104aa000c7e2a900d282a900e0012000b2f107000c
:104ab00081c3b3000040eb00c2ff0700a014200038
:104ac0000100200010079800210798001e009000a8
:104ad000ae00900061005000e08058000001be0070
:104ae00012079800230798000080eb008080eb00fd
:104af000800f5100818f5900f4ff3a00c1c0b3000c
:104b00000040eb00afff0700a014200001002000d0
:104b100010079800210798001e009000ae0090003a
:104b200061005000e08058000001be0012079800ac
:104b3000230798000080eb008080eb00800f51007d
:104b4000818f5900f4ff3a0011c0b3000040eb0020
:104b50009cff07002077220001002000100798002a
:104b6000210798001e009000ae00900061005000e8
:104b7000e08058000001be0012079800230798004b
:104b80000080eb008080eb00800f5100818f590086
:104b9000f4ff3a0061c0b3000040eb0089ff07005a
:104ba000a0142000010020001007980021079800a1
:104bb0001e009000ae00900061005000e0805800a0
:104bc0000001be0012079800230798000080eb0048
:104bd0008080eb00800f5100818f5900f4ff3a0074
:104be0000080fa00000006000600fa0021c0b300b1
:104bf0000040eb0073ff0700100020005ef107008b
:104c0000a0da20000100200010079800210798007a
:104c10001e009000ae00900061005000e08058003f
:104c20000001be0012079800230798000080eb00e7
:104c30008080eb00800f5100818f5900f4ff3a0013
:104c40000040eb00004f7800f0c0b3009e4f100012
:104c50002c003e001e80fb00a1ac200001004000a3
:104c60001004e0000f003a001e417800124798003f
:104c70001e409000ef4f50000a003e001e40900082
:104c80000080fb00a2ac20008200400000c2b30004
:104c9000804878001e4090000040e80010479800cf
:104ca000f3ff37001e80fb00a1ac20000100400094
:104cb0009040780010c0b30042ff0700a01420000d
:104cc0000100200010079800210798001e009000a6
:104cd000ae00900061005000e08058000001be006e
:104ce00012079800230798000080eb008080eb00fb
:104cf000800f5100818f5900f4ff3a001e4fe800e9
:104d0000d1ff370001ccb3000040eb002dff0700be
:104d1000a01420000100200010079800210798002f
:104d20001e009000ae00900061005000e08058002e
:104d30000001be0012079800230798000080eb00d6
:104d40008080eb00800f5100818f5900f4ff3a0002
:104d500000c1b300004f7800f2c1b3009e4f1100b4
:104d60002c003e001e80fb00a1ac20000100400092
:104d70001004e0000f003a001e417800124798002e
:104d80001e409000ff4f50000a003e001e40900061
:104d90000080fb00a2ac20008200400000c2b300f3
:104da000804878001e4090000040e80010479800be
:104db000f3ff37001e80fb00a1ac20000100400083
:104dc0009040780010c0b300fefe0700a014200041
:104dd0000100200010079800210798001e00900095
:104de000ae00900061005000e08058000001be005d
:104df00012079800230798000080eb008080eb00ea
:104e0000800f5100818f5900f4ff3a001e4fe800d7
:104e1000d1ff37000080fa00000006000400fa000d
:104e200011c0b3000040eb00e6fe0700207722002f
:104e300001002000008fbe000080eb008080eb00ae
:104e40001e0f40005e9748000080eb008080eb0062
:104e5000be0f1000ae8f1800f7ff3a0002022000cc
:104e600001022000a0ac2000a5ed07000080fa00a0
:104e7000000006000000fa000080fa0000000600b2
:104e80000000fa00ee020700f1fe070040062000d5
:104e9000b9f00700a1202800a0ac2000b5ed070064
:104ea00051ff0700d70c07001e0407000201200075
:104eb000b1222800c0a5200098ed0700c0a5200061
:104ec000f303070009030700d5c2bf000080fb0001
:104ed0004500de000080fb00610060000000e00093
:104ee00001003a00da030700a5040700acfa070046
:104ef00080528000610060000000e00004003a0081
:104f000010c0b3006ceab70080002000805a88000f
:104f100000000000ca0c07000001be0060578000be
:104f20007157800000015100818159001003200059
:104f300001002000800f5100818f59000e003600c3
:104f4000bf0c07006057880071578800c2c2bf00bd
:104f50000080fb00610060000000a2006141600071
:104f6000212c200091407800e0cfb30000c0600009
:104f700002407000c2e2b7008b040700a3fa0700ea
:104f8000dbee0700740f0700d40007006ccabf00f7
:104f9000544be300dfff320054cbbf006ceab70094
:104fa000601f2800db0c0700a0a3200004000700fe
:104fb00070202800d70c070053ee0700d5ff3700fc
:104fc0000a00fa00881f7800000f780000c1b300c3
:104fd000104f98008e80e8001e0078001080fb00c3
:104fe00052f907000e80e800ca0c07000040eb00f1
:104ff000004f98000e4890000084fb000e80e800ef
:1050000061ed0700800f5400110031006902470074
:1050100094407800014078000080fb00a2ac2000a2
:10502000820140000e81e8000e4890000080fb00e5
:1050300002004000904978008140e800014a780071
:105040000e4890000040e800004f9800e9ff37004c
:10505000e901470093407800014078000080fb00a0
:10506000a4ac200004014000e0c2b3000049780075
:105070008140e80081497800130d07000004e0003a
:10508000fdff3a00e00220002e0d07008e80e800b0
:105090001e007800104090000080fb0023f90700fc
:1050a0000e80e8009b0c07000040eb00004f9800ca
:1050b0000e4890000084fb000e80e80032ed0700ef
:1050c000800f5400110031006902470094407800bd
:1050d000014078000080fb00a2ac2000820140006b
:1050e0000e81e8000e4890000080fb0002004000a6
:1050f000904978008140e800014a78000e4890000d
:105100000040e800004f9800e9ff3700e901470040
:1051100093407800014078000080fb00a4ac2000a0
:1051200004014000e0c2b300004978008140e8007b
:1051300081497800e40c07000004e000fdff3a001c
:10514000e0022000ff0c07008e80e8001e007800bf
:10515000204090000080fb00f4f807000e80e8007b
:105160006c0c07000040eb00004f98000e489000c8
:105170000084fb000e80e80003ed0700800f540060
:105180001100310069024700944078000140780026
:105190000080fb00a2ac2000820140000e81e800ec
:1051a0000e4890000080fb0002004000904978000b
:1051b0008140e800014a78000e4890000040e80075
:1051c000004f9800e9ff3700e9014700934078005d
:1051d000014078000080fb00a4ac200004014000e6
:1051e000e0c2b300004978008140e80081497800be
:1051f000b50c07000004e000fdff3a00e0022000cb
:10520000d00c07008e80e8001e007800304090002f
:105210000080fb00c5f807000e80e8003d0c070089
:105220000040eb00004f98000e4890000084fb0007
:105230000e80e800d4ec0700800f5400110031000c
:105240006902470094407800014078000080fb002c
:10525000a2ac2000820140000e81e8000e489000c0
:105260000080fb0002004000904978008140e80087
:10527000014a78000e4890000040e800004f980076
:10528000e9ff3700000000001e489000ff4f50006b
:105290000b003e00e9014700934078000140780090
:1052a0000080fb00a4ac20000401400000c2b30059
:1052b000004978008140e80081497800f2ff37001a
:1052c00049fe0700800c07000004e000fdff3a00e3
:1052d0004f0478000080fa00000006000000fa0089
:1052e00041b020000018800090f807000080fa000c
:1052f000000006000a00fa00000f7800214798001d
:105300001e0078009000780000cdb30011404000ee
:10531000304798003e4090000080fb004007980016
:105320004e0090000000e00004003200ce0090002b
:10533000e18f500033003200540037001e80e80037
:105340009000780000cdb300114040004047980025
:105350004e4090000080fb00300798003e00900017
:105360000000e00004003200be009000e18f500019
:10537000100032001d003700c2c2bf000080fb00d9
:105380000000d1000080fb00610060000000a2006e
:10539000614060000041d000212c20009140780045
:1053a000d0cfb30000c0600002407000c2e2b7007e
:1053b0000e003700c2c2bf000080fb004200de00ca
:1053c0000080fb00610060000000a20061406000fe
:1053d0004201dd00212c200091407800b0cfb300c5
:1053e00000c0600002407000c2e2b7001e007800fa
:1053f000a2002000512328001000780047ec07008d
:10540000270037002e409000e24f50001800360071
:105410009e00780064804000100078005aec07007d
:10542000ff0f50000a003e0002022000010220008f
:10543000a0ac200032ec07009e00780064804000a1
:1054400090007800a0ac20004aec0700060037006e
:105450009e007800648040000202200090007800e6
:10546000a0ac20002dec0700dffd07000100370095
:105470006afe07001e007800a200200051232800c9
:105480001000780025ec0700050037001e007800aa
:10549000a200200051232800100078001fec070014
:1054a0000080fa00000006003c00fa00004f78007f
:1054b00011079800220798001e4078000081fb0029
:1054c00003002000421f9800531f98007001200025
:1054d000010020004e199000de199000800f51004d
:1054e000818f590051013e004e189000de18900047
:1054f000006001001700370026003700a2003700c7
:105500004a013700bd003700480137004701370026
:105510004601370045013700440137004301370099
:105520004201370041013700c6003700d60037007e
:10553000e6003700290037003a0037004b003700fb
:105540005c0037006d0037007e003700f100370047
:1055500013013700ae00900041079800c2c2bf009f
:105560000080fb00610060000000e00003003200ea
:1055700012c3b300224f98000200370003c3b300e8
:10558000234f9800ae4890004e00900001487800ec
:10559000260137002e01900062079800c2c2bf00aa
:1055a0000080fb000000d1000080fb006100600073
:1055b0000000e0000300320013c3b300634f980003
:1055c0000200370000c3b300604f98006e4990009e
:1055d000ee0090008248780014013700ae01900080
:1055e000030f9800c2c2bf000080fb004200de0033
:1055f0000080fb00610060000000e000030032005a
:1056000010c3b300205798000200370001c3b30055
:1056100021579800ae5190000e0990000349780080
:10562000020137002e009000200f9800c2c2bf0078
:105630000080fb004300de000080fb006100600092
:105640000000e0000300320011c3b300615798006e
:105650000200370002c3b300625798006e509000fa
:10566000ae09900080497800f0003700ae0090004d
:10567000410f9800c2c2bf000080fb004400de0062
:105680000080fb00610060000000e00003003200c9
:1056900012c3b300225f98000200370003c3b300b7
:1056a000235f9800ae5890004e08900001487800a3
:1056b000de0037002e019000620f9800c2c2bf00ca
:1056c0000080fb004500de000080fb006100600000
:1056d0000000e0000300320013c3b300635f9800d2
:1056e0000200370000c3b300605f98006e5990005d
:1056f000ee08900082487800cc003700ae019000a0
:1057000003179800c2c2bf000080fb004600de0005
:105710000080fb00610060000000e0000300320038
:1057200010c3b300206798000200370001c3b30024
:1057300021679800ae6190000e1190000349780037
:10574000ba0037002e00900020179800c2c2bf0098
:105750000080fb004700de000080fb000000e0004e
:105760000300320011c3b3006167980002003700e4
:1057700002c3b300626798006e609000ae119000a3
:1057800080497800a9003700ae0090002e409000bc
:105790000080fb0042b020000200400090487800ea
:1057a0002e4090000080fb0043b02000030040002a
:1057b0001004e00003003a000080eb00300798007e
:1057c0009c0037001e0090000000e80010079800c1
:1057d0000080fb0041b02000010040001004e00008
:1057e00003003a000081eb00320798009100370077
:1057f0001e009000300798008e003700ae01900028
:1058000043179800d5c2bf000080fb004500de00b2
:105810000080fb00610060000000e0000300320037
:1058200010c3b300206f98000200370001c3b3001b
:10583000216f9800ae6990004e11900003497800e6
:105840007a0037002e00900060179800c2c2bf0097
:105850000080fb004700de000080fb000000e0004d
:105860000300320011c3b300616f980002003700db
:1058700002c3b300626f98006e689000ee11900052
:105880008049780069003700ae009000011f980041
:10589000d4c2bf000080fb004700de000080fb0098
:1058a0000000e0000300320012c3b300227798002a
:1058b0000200370003c3b30023779800ae70900056
:1058c0000e18900001487800580037002e01900013
:1058d000221f9800d4c2bf000080fb004600de00fb
:1058e0000080fb00610060000000e0000300320067
:1058f00013c3b300637798000200370000c3b300fe
:10590000607798006e719000ae1890008248780021
:10591000460037001e0090000000e00003003a003f
:105920004125280000af200012eb0700ae009000d8
:105930002e4090000080fb0003af200003004000d9
:10594000904878002e4090000080fb0001af2000be
:10595000010040001004e00003003a000081eb0069
:1059600032079800330037001e0090000000e80066
:10597000100798000080fb0003af200003004000e8
:105980001004e00003003a000080eb0030079800ac
:10599000280037001e0090003007980025003700cf
:1059a0001e0090000000e00003003a00a12528003e
:1059b00000af2000efea0700ae0090002e409000fc
:1059c0000080fb0002af20000200400090487800f9
:1059d0002e4090000080fb0003af20000300400039
:1059e0001004e00003003a000080eb00300798004c
:1059f000100037001e0090000000e800100798001b
:105a00000080fb0001af2000010040001004e00016
:105a100003003a000081eb003207980005003700d0
:105a20001e00900030079800020037008081eb00d4
:105a3000330798003e0090000080fa000000060046
:105a40000000fa00c002a900c022a900c042a900bb
:105a5000c062a900c082a900c0a2a900c0c2a9005a
:105a6000c202a900c222a900c242a900c262a900c2
:105a7000c282a900c2a2a900c2c2a900c2e2a900b2
:105a800070022000303a88000000eb00203a8800c5
:105a90002ae3a800404e280000198800404020005a
:105aa0001019880030002100201988000000eb0048
:105ab000401988002ca3a9002c83a9000002200013
:105ac00080198800dea2a900de82a800100820004c
:105ad000c0118800000028008011880000402000cc
:105ae000901188000080fa00000006000000fa0013
:105af000500aa8000080fa00000006000e00fa001c
:105b0000881f7800000f7800110798001e007800a9
:105b1000300798000040eb00004f98001e0078000e
:105b200010407800404798000004e0002600320052
:105b3000ce409000e0c2b30080cf500015003a0084
:105b40001e007800800078000040eb00804878005c
:105b50001e0fe8009e019000680147001240780087
:105b6000804078008180fb00038440000040e80012
:105b700000497800a20020008000eb003e00900069
:105b800088ea0700004c78001e0078003007980073
:105b90000b003700ce409000f0c2b30080cf500021
:105ba00004003600ce40900090c3b30080cf500078
:105bb000030036000000eb00500798001400370087
:105bc0001e0fe800d5ff37009e0090000e489000a1
:105bd0000080fb0001044000a20020008000eb00d8
:105be0003e0090006fea0700004c78000000eb00d8
:105bf000600798000e489000e34f500002003a0002
:105c000010002000600798006e0090005007980078
:105c10005e0090004f0478000080fa00000006004b
:105c20000400fa0000000000200a07000004e00061
:105c3000fdff3200310a0700004f7800f0c2b300c8
:105c40009e4f10000600360090c3b3009e4f100018
:105c500003003e001e80fb00100798000200370082
:105c6000a0032000100798001e0090000080fa009a
:105c7000000006002000fa00000f780070202800c5
:105c8000a4090700a15228001e0078000000d000df
:105c90000100400001fa2f000100400010007800d0
:105ca0009c0907001e0078006101b80000fd2f006c
:105cb000f1ff2f000201400083814800620f98002d
:105cc000730f980090002000010020006e099000e2
:105cd000fe099000800f5100818f59005a003e004c
:105ce0006e089000fe08900000600100560037002a
:105cf000080037001d0037002d0037002f00370047
:105d000031003700330037004c0037004d003700ba
:105d10004d0037008e80e8009052800003f60700a7
:105d20000e80e8007b0907008058280079090700e9
:105d30000e80e80041c1b300520907000004e000f2
:105d4000410032000e80e800a20020008000eb003d
:105d500014ea07009052880053cabf0042eab70015
:105d600052cabf0043eab70037003700c0a5200081
:105d70006809070080582800660907000e80e800bf
:105d800001c1b3003f0907000e80e8001004e000e5
:105d90002d0032008e80e80002012000c0a5200006
:105da000dee90700c0a52000390007002600370003
:105db000a0a32000500f98000800370080a4200006
:105dc000500f98000500370040a42000500f9800a5
:105dd00002003700c0a42000500f98005e08900019
:105de00077fc0700805828004a0907000e80e80069
:105df00041c1b30023090700f60047000e80e80008
:105e00003eff07000000e00007003a00e0532800d2
:105e100040090700a50907000004e000fdff32006b
:105e2000b6090700080037005e0890003e099000a0
:105e3000ce0990000288be0003003700500aa80077
:105e400001003700500aa9000080fa000000060097
:105e50000200fa0000000000f02628002d090700cb
:105e60006fff0700000f7800a00320009e0f1000b6
:105e7000020032001e0078007eff070000032000b1
:105e80009e0f1000f4ff3a000080fa0000000600a8
:105e90000400fa00000f78009e0078006f80400038
:105ea0008040eb00014878001e007800a0f6070053
:105eb0000040eb00204798002e409000ee4f50002d
:105ec00016003e002e4090000080fb001e004000a7
