:040000000CEF00F011
:0C000800FACFF3FEFBCFF2FEE3EDEAF0CE
:1000180000EE10F013EE44F0EE6AE550E150FCE11A
:10002800E250FAE10F6A0EEE4AF08D0EEE6AE8062B
:08003800FDE10EEE44F09E0E06
:10004000F66E0F0EF76E10EE06F033EC00F001EED8
:1000500000F0A40EF66E0F0EF76E10EE5CF033ECAF
:1000600000F01BEFEBF00900F5CFEEFFE550E1509B
:10007000FAE1E250F8E1120030000001346B0AD0DE
:100080000001342B30C0E9FF31C0EAFF33C0EFFF7D
:10009000304B312B00013207322911E030C0E9FF2B
:1000A00031C0EAFFEF6A1AD80009FDE022D800014A
:1000B000336F33510D0A03E033510A0AE1E10001C5
:1000C000345112000F01000EACA3010E12004F0EAE
:1000D000AB160F01AC9BCF0E9D1612000F01ABA308
:1000E00003D00F01AB99AB899E38006E0030010B35
:1000F0001200AE501200AD6E12001400D96A14C086
:10010000E1FF15C0E2FF00011651D95CD8B0120022
:10011000E5DF0009FDE0EDDFE96EE9CFE7FFE6523C
:10012000D92AF1D73700CEDF0009FDE137C0E9FF5A
:1001300038C0EAFFEF50DFDF37C0E9FF38C0EAFF21
:100140000001374B382BEF50D8B41200ECD73000F9
:10015000B9DF0009FDE130C0F6FF31C0F7FF0F0E37
:10016000F76403D00800F55005D0F6CFE9FFF7CFCC
:10017000EAFFEF50C0DF000130C0F6FF31C0F7FFEB
:10018000304B312B0F0EF76403D00800F55005D02B
:10019000F6CFE9FFF7CFEAFFEF500009D8B412001D
:1001A000D7D78A8693969496949A9488200EC66E92
:1001B0009E960F01C78DC79F1D0E93EC06F00001A0
:1001C000146F14B7F9D714C000F0016A001C026E56
:1001D000011C036E02B0F0D789EC06F0010E00019D
:1001E000156F166BEAECC9F0D96A480E026E020E62
:1001F000036ED9CF00F0016AC2ECC9F0080E0424E6
:10020000006E100E0520016ED950050DB80EF324B6
:10021000E96E010EF420EA6E00C0EEFF01C0EDFFB2
:10022000D950050DBC0EF324E96E010EF420EA6EE0
:10023000EF50FE0B0109EF6ED92A060ED964D5D70F
:100240000E01D36B010EE8CFD6FE01EEB6F0EE6ADA
:10025000EE6A0001FD6B080EEFEC06F00001FD6B8D
:10026000090EEFEC06F0070E0001FD6F0C0EEFEC2F
:1002700006F0100E0001FD6F0D0EEFEC06F0070EFC
:100280000001FD6F0A0EEFEC06F0100E0001FD6F8D
:100290000B0EEFEC06F0080E0001FD6F040EEFEC04
:1002A00006F0100E0001FD6F050EEFEC06F00001E8
:1002B000FD6B020EFE6F54EC07F00D0E0001FD6F9A
:1002C000000EEFEC06F0320E0001FD6F020EEFECB7
:1002D00006F0400E0001FD6F030EEFEC06F03F0E3E
:1002E0000001FD6F090EEFEC06F0120E0001FD6F2C
:1002F000060EEFEC06F00C0E0001FD6F070EEFECA2
:1003000006F0EE0E0001FD6F0A0EEFEC06F0050E92
:100310000001FD6F0B0EEFEC06F00001040EFD6F07
:10032000030EFE6F54EC07F02CC1FDF0040EEFEC51
:1003300006F02DC1FDF0050EEFEC06F02EC1FDF02C
:10034000020EEFEC06F02FC1FDF0030EEFEC06F00D
:1003500030C1FDF0000EEFEC06F031C1FDF0010EF2
:10036000EFEC06F0120E93EC06F0E8CFD4FE00019D
:10037000186B010E196F100E31EC07F00001720EB0
:10038000186F040E196F140E31EC07F0000E5CECC0
:1003900007F097EF07F0010EBBEC06F00030026E9D
:1003A0000230010B1200000908E01F0E93EC06F06A
:1003B000006E000E00A6010E1200D5CEE8FF0E0161
:1003C000D36308D01F0E93EC06F0006E000E00A65B
:1003D000010E1200010ED96ED950050DBC0EF3248A
:1003E000E96E010EF420EA6EEF50006E00B0010CD1
:1003F000D92A060ED964F0D7000C000907E01F0EB9
:1004000093EC06F0006E00B6FF0C000C010ED96EE6
:10041000D950050DBC0EF324E96E010EF420EA6EEE
:10042000EF50006E00A016D0D950050DBC0EF3247D
:10043000E96E010EF420EA6EFE0EEF16D950050D9E
:10044000BC0EF324E96E010EF420EA6EFD0EEF16E9
:10045000D9501200D92A060ED964DAD7FF0CD96E0A
:10046000070ED9601200D950050DBC0EF324E96EB9
:10047000010EF420EA6EEF50FE0B0109EF6ED9CFAA
:10048000D3FE12000E01D653D8A41200010EE8CFFD
:10049000D6FEB6C100F0B7C101F0FF0E0024000186
:1004A0009F6FFF0E0120A06F100EA05D080ED8B444
:1004B0009F5D04E3070E9F6F100EA06F400E0001BA
:1004C000FF6F1E0E1BEC07F00C0E0001FD6FFE6BA4
:1004D00054EC07F000019F51FD6F0C0EEFEC06F09D
:1004E0000001A051FD6F0D0EEFEF06F00001190E97
:1004F000FD6F010EFE6F54EC07F0190E93EC06F041
:100500000001E06F0E0EFD6FFE6B54EC07F00E0E57
:1005100093EC06F00001DE6F0F0E93EC06F0000185
:10052000DF6F190EFD6F010EFE6F54EC07F0190E10
:10053000FADB0001E019E1E10C0EFD6FFE6B54ECFB
:1005400007F00C0EF0DB0001E06F0D0EECDB00019C
:10055000E16FDF51E15D02E1DE51E05D11E2DEC0FD
:1005600002F0DFC003F0E051025EE151035A070ED2
:10057000006E100E016E0250005E0350015A120010
:100580000001E151DF1902E1E051DE1905E1070E3A
:10059000006E100E016E1200E0C000F0E1C001F02C
:1005A0000001DE51005EDF51015AFF0E00060120FE
:1005B000016E12001A000001190EFD6F010EFE6F90
:1005C00054EC07F0190EAFDB000901E1000C0E013D
:1005D000D65302E157DF000CB6C1B4F1B7C1B5F193
:1005E0000001FD6BFE6B54EC07F0B6C1FDF0000E90
:1005F000F6DBB7C1FDF0010EF2DB00011E0EEA6F63
:10060000000EEB6F140EEC6FED6B2DDB30C0F9F0CC
:1006100031C0FAF09BECD5F000C030F001C031F0F1
:1006200000EE1EF0EE52100EED5C080ED8B4EF5C3A
:1006300014E200011EB111D0000123BF0ED0000151
:1006400022B90BD000EE20F0EE52050EED5CEF0E5D
:10065000D8B4EF5C02E2000122AFFF001EC0B6F189
:100660001FC0B7F11AC0AAF01BC0ABF000012A0EE0
:10067000AC6F000EAD6F060EAE6FAF6B7BECCAF0C9
:100680001CC0E1FF1DC0E2FFFF0EE76E000131510B
:10069000080A07E1305103E03051060AD8B430C0EF
:1006A000E7FF0E01D66B010CF700020E0001FD6F93
:1006B000FE6BFADBD3CEE8FF050DB80EF324E96E2E
:1006C000010EF420EA6EEF500001FD6F020E87DB91
:1006D000D3CEE8FF050DB90EF324E96E010EF42028
:1006E000EA6EEF500001FD6F030E79DBD3CEE8FF19
:1006F000050DB80EF324E96E010EF420EA6EEECF7C
:1007000000F0EDCF01F00E0E0026000E01220001D8
:100710000050FA270150FB23D3CEE8FF050DBA0E97
:10072000F324E96E010EF420EA6EFAC0EEFFFBC07E
:10073000EDFF000EBEDAF7C0FCF0F8C0FDF0060ECB
:100740000001FE6FFF6BC9DA00012C0EFC6F010E79
:10075000FD6F060EFE6FFF6BC0DA080EAADA00010D
:10076000F95102E0060EA5D2000EA3D2040E00013C
:10077000FD6FFE6B99DBD3CEE8FF050DB80EF324B9
:10078000E96E010EF420EA6EEF500001FD6F040ED9
:1007900026DBD3CEE8FF050DB90EF324E96E010E7A
:1007A000F420EA6EEF500001FD6F050E18DBD3CE8A
:1007B000E8FF050DBA0EF324E96E010EF420EA6E8F
:1007C000EF500001FD6F060E0ADBD3CEE8FF050DEA
:1007D000BB0EF324E96E010EF420EA6EEF50000127
:1007E000FD6F070EFCDAD3CED5FED3CEE8FF050DA4
:1007F000BC0EF324E96E010EF420EA6EEF50FD0BFF
:100800000209EF6E1C0E8FDA006E00A20AD0800E75
:100810000001FF6F1F0E0FDB800E0001FF6F1F0E28
:10082000F4DA0A0E0001FF6F1C0EEFDA080E000169
:10083000FF6F1F0E00DBD4CEE8FF050AD8A412001C
:100840001C0E71DA0A0B1C0EFCE06DDA006E00A2C1
:100850001200080E0001FF6F1F0ED7DA0001FD6BBA
:10086000FE6B22DB000E5FDA0001DF6F010E5BDA48
:100870000001E06F060E57DA0001E16F070E53DA50
:100880000001E26FE14BE22BE151FD6F000EA7DAB0
:100890000001E251FD6F010EA2DA0001E30EEA6FE2
:1008A000000EEB6F070EEC6FED6BDDD90001DE6B18
:1008B0001C0E39DA006E00A238D00001E6AB35D04C
:1008C000800E0001FF6F1F0EB6DA800E0001FF6F71
:1008D0001F0E9BDA0A0E0001FF6F1C0E96DA080E3F
:1008E0000001FF6F1F0EA7DA1C0E1DDA0A0BFCE0D9
:1008F000080E0001FF6F1F0E88DA0001E151FD6F45
:10090000000E6DDA0001E251FD6F010E68DA0001A0
:10091000E30EEA6F000EEB6F070EEC6FED6BA3D9E1
:100920000001DE2B0F0EDE65C3D70001DF51FD6F26
:10093000000E55DA0001E051FD6F010E50D2A0000B
:10094000B4C100F0B5C101F00001A0510026A151D1
:100950000122140E0024A26F000E0120A36F100EBE
:10096000A35D080ED8B4A25D04E3F80EA227EF0E33
:10097000A3230001FD6BFE6B97DA0001A251FD6F0E
:10098000000E2DDA0001A351FD6F010E28DA0001DF
:10099000A251FD6F020E23DA0001A3512ED0F70001
:1009A000D96ED9CFD3FED950050DB80EF324E96E18
:1009B000010EF420EA6EEECF00F0EDCF01F00F0E45
:1009C0000026000E012200010050F7270150F823F5
:1009D000020EFD6FFE6B68DA0001F751FD6F000E2D
:1009E000FED90001F851FD6F010EF9D90001F75150
:1009F000FD6F020EF4D90001F851FD6F030EEFD127
:100A00005000B4C100F0B5C101F000015051002602
:100A100051510122140E0024546F000E0120556F15
:100A2000100E555D080ED8B4545D04E3F80E54273B
:100A3000EF0E5523100E0001FD6FFE6B35DA00013D
:100A40005451FD6F100ECBD900015551FD6F110EA1
:100A5000C6D90001FF0E5225006EFF0E5321016E14
:100A60000050542701505523100E555D080ED8B480
:100A7000545D04E3F80E5427EF0E55230001545142
:100A8000FD6F120EACD900015551FD6F130EA7D9A1
:100A9000300E0001FF6F1F0ECED91F0E44D9006E1D
:100AA00000BAFBD7160E3FD90001556F170E3BD980
:100AB0000001546F54C000F055C001F01200F7005F
:100AC000D3CEE8FF050DB80EF324E96E010EF42035
:100AD000EA6EEECF00F0EDCF01F00001F7510026F5
:100AE000F85101220F0E0024FB6F000E0120FC6F55
:100AF000100EFD6FFE6BD8D90001FB51FD6F100E7B
:100B00006ED90001FC51FD6F110E69D90001FF0E75
:100B1000F925006EFF0EFA21016E0050FB270150EF
:100B2000FC23FB51FD6F120E5AD90001FC51FD6FE1
:100B3000130E55D9300E0001FF6F1F0E7CD91F0E0A
:100B4000F2D8006E00BAFBD7160EEDD80001FC6F8C
:100B5000170EE9D80001FB6FFBC000F0FCC001F0EC
:100B60001200DE000001DF51DE1104E1FF0E00681B
:100B7000016812000001DE05DF1106E161D8016E97
:100B8000006A001E011E12000001FD6BFE6B8CD975
:100B9000000EC9D80001E06F010EC5D80001E16F59
:100BA000E051FD6F100E1BD90001E151FD6F110ED8
:100BB00016D90001100EE15D080ED8B4E05D14E214
:100BC000FF0EDE25006EFF0EDF21016E0050E027D4
:100BD0000150E123100EE15D080ED8B4E05D0FE393
:100BE000F80EE027EF0E0AD00001FF0EDE25006EA2
:100BF000FF0EDF21016E0050E0270150E1230001CC
:100C0000E051FD6F120EEBD80001E151FD6F130EA4
:100C1000E6D8300E0001FF6F1F0E0DD91F0E83D8CE
:100C2000006E00BAFBD7160E7ED80001E06F170EDB
:100C30007AD80001E16FE0C000F0E1C001F01200DD
:100C40008A969E963A0EC96E9EA6FED7C950D96E58
:100C50009E96C96A9EA6FED7C950D96E9E968A8670
:100C6000D9501200EA008A969E963A0EC96EF36A2F
:100C7000F46AEAC0E1FFEBC0E2FFE5529EA6FED7B0
:100C8000C950D96E9E960001ED51F45C02E1EC5121
:100C9000F35C09E2C96AF34AF42AE6529EA6FED73B
:100CA000C9CFE7FFEFD78A86F3CF00F0F4CF01F08A
:100CB0001200D96E8A969E967A0EC96E9EA6FED7AF
:100CC000C950E16E9E96D950C96E9EA6FED7C950F6
:100CD000D96E9E968A861200FC008A969E967A0E9F
:100CE000C96EFCC0E1FFFDC0E2FF9EA6FED7C95061
:100CF000D96E9E960001FF51FE1109E0E750C96EC2
:100D0000E652FE07D8A0FF079EB6F1D7FDD78A8628
:100D100012008A969E96C9689EA6FED7C950D96EC3
:100D20009E968A8612008A969E96C96E9EA6FED7C9
:100D3000C950D96E9E96C96A9EA6FED7C950D96E73
:100D40009E968A86D95012008A969E96C96E9EA655
:100D5000FED7C950D96E9E96C96A9EA6FED7C950C5
:100D6000D96E9E96C96A9EA6FED7C950D96E9E9628
:100D70008A86D950120000011A6F140EFD6F020E00
:100D8000FE6F92D800011A51FD6F140E28D8010E83
:100D90000001FD6F120E23D800010A0EFD6F030E35
:100DA000FE6F82D80A0ED0DF006E00B0FBD70001C4
:100DB000140EFD6F020EFE6F77D80001FD6B120E50
:100DC0000ED8180EC1DF00011B6F190EBDDF000128
:100DD0001C6F1BC000F01CC001F01200FD00D96E9A
:100DE0008A969E96D9504009C96E9EA6FED7C950D4
:100DF000D96E9E960001FD51C96E9EA6FED7C950C0
:100E0000D96E9E968A861200FF00D96E8A969E96AB
:100E1000D950A009C96E9EA6FED7C950D96E9E961C
:100E20000001FF51C96E9EA6FED7C950D96E9E968D
:100E30008A861200FF00D96E8A969E96D950800944
:100E4000C96E9EA6FED7C950D96E9E960001FF516D
:100E5000C96E9EA6FED7C950D96E9E968A8612008C
:100E6000180000011A6F140EFD6F020EFE6F1CD8E1
:100E700000011A51FD6F140EB2DF00011851FD6F11
:100E8000160EADDF00011951FD6F170EA8DF00012E
:100E90000A0EFD6F030EFE6F07D80A0E55DF006EB7
:100EA00000A01200FAD7FD00030E0001FF6F1F0E15
:100EB000ACDF0001FE513DD00001156F0C0EFF6F3D
:100EC0001F0EA3DF000E57DF00C016F001C017F0A1
:100ED00000011551020A04E11751010B156F0CD0E6
:100EE000000117511519FE0B1519176F16C018F0D0
:100EF00017C019F0000EB5DF0001020EFD6FFE6F86
:100F0000D3DF020E21DFE16E0001E1501519FE0B67
:100F10001519E16EE150FD6F020E61DF0001155100
:100F200002E1120E01D0150EFD6F040E58DF040E03
:100F30000001FF6F1F0E7FD7040E0001FF6F1F0E11
:100F400064DF1D0EF0DE006E00B4FBD71F0EEBDE7B
:100F5000006E00B6FBD7200E0001FF6F1E0E6BD790
:100F6000200E0001FF6F1E0E50DF1D0EDCDE006E36
:100F700000A0FBD7DCD7E16E0001150EFD6F030E5C
:100F8000FE6F92DFE1500001FD6F150E28D70001C2
:100F9000150EFD6F030EFE6F87DF150EC4D6000021
:100FA000FF00000519100A1005100F100010141092
:100FB0001E109D102A104310071172108810EC109B
:100FC00067104D10B5103A10DD12B612A9FEFEFEE4
:100FD0000004A3000000FFFF0000A9FEFE01A9FE1F
:100FE000FE01010000000000000000000000000001
:100FF00000000000000000000000000000000004ED
:10100000504F5254005155495400504153530053CE
:10101000544F520041424F52005553455200323214
:10102000302052656164790D0A00323330204C6FF4
:101030006767656420696E0D0A00323030204F6B9F
:101040000D0A00323231204279650D0A000D0A3254
:101050003236205472616E7366657220436F6D7014
:101060006C6574650D0A0031323520446F6E650D74
:101070000A00353032204E6F7420696D706C656DDA
:10108000656E7465640D0A00353330204C6F6769F6
:101090006E2072657175697265640D0A00333331B3
:1010A0002050617373776F72642072657175697215
:1010B00065640D0A003432352043616E2774206365
:1010C0007265617465206461746120736F636B6520
:1010D000742E2020496E637265617365204D4158FE
:1010E0005F534F434B4554532E0D0A00313530208A
:1010F0005472616E7366657272696E6720646174A2
:10110000612E2E2E0D0A00353030200D0A00545865
:10111000540048544D0043474900584D4C0047493E
:101120004600504E47004A504700434C410057414B
:10113000560000000000746578742F706C61696E51
:1011400000000000000000000000746578742F6843
:10115000746D6C0000000000000000000000746569
:1011600078742F68746D6C000000000000000000AF
:101170000000746578742F786D6C0000000000002A
:10118000000000000000696D6167652F67696600F7
:1011900000000000000000000000696D6167652F1D
:1011A000706E670000000000000000000000696D24
:1011B0006167652F6A70656700000000000000002D
:1011C00000006170706C69636174696F6E2F6A6191
:1011D00076612D766D00617564696F2F782D77616A
:1011E0007665000000000000000000000000000024
:1011F0000000000000000000000000000000485453
:1012000054502F312E3020323030204F4B0D0A43B6
:101210006F6E74656E742D747970653A2000485451
:1012200054502F312E3020323030204F4B0D0A4495
:101230006174653A205765642C2030352041707206
:1012400020323030362030323A35333A303520478C
:101250004D540D0A457870697265733A205765647C
:101260002C20303520417072203230303620303220
:101270003A35323A303520474D540D0A43616368A0
:10128000652D636F6E74726F6C3A2070726976614F
:1012900074650D0A436F6E74656E742D7479706594
:1012A0003A20000D0A0D0A0047455400494E4445B6
:1012B000582E48544D00485454502F312E3020356C
:1012C0003033200D0A0D0A53657276696365205527
:1012D0006E617661696C61626C650D0A00485454F8
:1012E000502F312E3020343034204E6F7420666FF2
:1012F000756E640D0A0D0A4E6F7420666F756E640C
:101300002E0D0A004E6577204950204164647265B5
:1013100073733A20000D0A00494E4445582E434746
:101320004900434F4E4649472E43474900494E44E2
:1013300045582E43474900667470006D6963726FAB
:1013400063686970000D0A0D0A0D4D6963726F6361
:10135000686970205443502F495020436F6E66696E
:1013600067204170706C69636174696F6E202876C4
:10137000332E37352C204175672031342032303000
:1013800036290D0A0D0A09313A204368616E6765F6
:1013900020426F6172642073657269616C206E75A2
:1013A0006D6265722E0D0A09323A204368616E67DC
:1013B0006520426F61726420486F7374204E616DC6
:1013C000652E0D0A09333A204368616E6765206413
:1013D000656661756C742049502061646472657340
:1013E000732E0D0A09343A204368616E67652064E4
:1013F000656661756C7420676174657761792061D9
:101400006464726573732E0D0A09353A204368616E
:101410006E67652064656661756C74207375626EB5
:101420006574206D61736B2E0D0A09363A2043688E
:10143000616E67652064656661756C7420444E5307
:101440002073657276657220616464726573732EB1
:101450000D0A09373A20456E61626C6520444843A5
:1014600050202620495020476C65616E696E672EBA
:101470000D0A09383A2044697361626C652044485A
:101480004350202620495020476C65616E696E6785
:101490002E0D0A09393A20446F776E6C6F61642013
:1014A0004D50465320696D6167652E0D0A09303A2B
:1014B0002053617665202620517569742E0D0A0D22
:1014C0000A456E7465722061206D656E75206368D3
:1014D0006F6963652028312D30293A20006716B2E4
:1014E00015DC159B156015C4157C1547162616EEE0
:1014F000150D0A496E76616C696420696E707574A9
:10150000207265636569766564202D20496E70756B
:10151000742069676E6F7265642E0D0A5072657370
:101520007320616E79206B657920746F20636F6E14
:1015300074696E75652E2E2E0D0A004D434850427B
:101540004F415244004175672031342032303036EB
:101550002030383A34383A33380076332E37350075
:101560000D0A44656661756C742047617465776126
:101570007920416464726573732028000D0A446504
:101580006661756C7420444E5320536572766572A3
:1015900020416464726573732028000D0A446566F7
:1015A00061756C74204950204164647265737320C6
:1015B00028000D0A53657269616C204E756D626575
:1015C000722028000D0A44656661756C742053759D
:1015D000626E6574204D61736B2028000D0A486FA0
:1015E0007374204E616D65202800293A20000D0A91
:1015F000526561647920746F20646F776E6C6F61DF
:1016000064204D50465320696D616765202D20553B
:10161000736520586D6F64656D2070726F746F63B1
:101620006F6C2E0D0A000D0A4448435020262049B5
:101630005020476C65616E696E67206469736162F2
:101640006C65642E0D0A000D0A4448435020262084
:10165000495020476C65616E696E6720656E6162F6
:101660006C65642E0D0A000D0A4E6F772072756E40
:101670006E696E67206170706C69636174696F6E0A
:101680002E2E2E0D0A000D0A0D0A425554544F4EAF
:10169000302068656C6420666F72206D6F72652003
:1016A0007468616E2034207365636F6E64732E20DE
:1016B00020454550524F4D20636F6E74656E7473B4
:0E16C000206572617365642E0D0A0D0A00002C
:020000040001F9
:10934400EECFE6FFE82EFCD7000CD96E390ED964B7
:1093540001D006D0300ED96001D002D0D8801200DE
:10936400D8901200EFCF00F0EE2AEFCF01F0000EFC
:10937400EE22EFCF02F0EE22EFCF03F0EE22120046
:1093840002500002F3CF04F0F4CF05F002500102C2
:10939400F350052603500002F35005261200200066
:1093A40020C0E1FF21C0E2FF00012451006E2551DD
:1093B400016E2407000E255B0150001003E022C05B
:1093C400E6FFF2D720C000F021C001F01200150022
:1093D40000011551006E1651016E1507000E165B43
:1093E40001500010D8B41200040ED96ED906D92841
:1093F400EFE0900E006E010E016E000E026A036A29
:109404000006D8A00106D8A00206D8A00306EEE301
:10941400F7D7790ED66EFE0ED76E070ED56E0F01F6
:10942400D58FF285F28B12004CC300F04DC301F0CE
:109434004EC302F04FC303F012000F01F2A5120055
:10944400FE0ED76E790ED66E03014C2B000E4D2303
:109454004E234F230F01F2951200A400A4C0D9FF9C
:10946400A5C0DAFF0001A6C0F6FFA7C0F7FFA64B10
:10947400A72BD9CFE9FFDACFEAFFD94ADA2A0F0EB0
:10948400F76403D00800F55005D0F6CFE1FFF7CF1D
:10949400E2FFE750EF6EEF50E5E1A4C000F0A5C095
:1094A40001F01200AE00AEC0F3FFAFC0F4FFF3CF83
:1094B400F6FFF4CFF7FFF34AF42A0F0EF76403D054
:1094C4000800F55005D0F6CFE9FFF7CFEAFFEF50DB
:1094D4000009EDE1F3CF00F0F4CF01F00001AE514B
:1094E400005EAF51015AFF0E00060120016E12000A
:1094F400AA00ACC0F3FFADC0F4FFAAC0D9FFABC053
:10950400DAFF0001AE51006EAF51016EAE07000EDE
:10951400AF5B0150001019E0F3CFF6FFF4CFF7FF73
:10952400F34AF42AD9CFE9FFDACFEAFFD94ADA2A93
:109534000F0EF76403D00800F55005D0F6CFE1FF15
:10954400F7CFE2FFE750EF6EDCD7AAC000F0ABC064
:1095540001F01200066A046A056A0250031003E16E
:10956400006A016A000C1F0E0612D890062A023601
:109574000336FCE3033202320250005C035001580C
:1095840004E3016E0250005ED88004360536062ED0
:1095940006BAF0D706AE05D0041E042AD8B40506D0
:1095A400051F0450026E0550036E06AC000C001E2D
:0C95B400002AD8B40106011E000CAE0015
:1095C00005D00001AE4BAF2BB04BB12B0001B20761
:1095D000B22925E0B0C0F6FFB1C0F7FF0F0EF76467
:1095E00003D00800F55005D0F6CFE9FFF7CFEAFF2A
:1095F000EF50016EAEC0F6FFAFC0F7FF0F0EF7647D
:1096000003D00800F55005D0F6CFE9FFF7CFEAFF09
:10961000EF50006E0150005CD96ED950D2E00001CD
:10962000B307B329D3E1D9CF00F0016A00BE010628
:1096300012001B001BC0D9FF1CC0DAFF0001205123
:109640001F111DE01F07D8A020071DC0F6FF1EC078
:10965000F7FF1D4B1E2BD9CFE9FFDACFEAFFD94A1E
:10966000DA2A0F0EF76403D00800F55005D0F6CFC4
:10967000E1FFF7CFE2FFE750EF6EEF50DFE10001CF
:109680001F51006E2051016E1F07000E205B01501C
:10969000001008E0D9CFE9FFDACFEAFFD94ADA2A89
:1096A000EF6AEDD71BC000F01CC001F012003500BE
:1096B000000137C0F6FF38C0F7FF374B382B0F0ECD
:1096C000F76403D00800F55005D0F6CFE9FFF7CFD7
:1096D000EAFFEF50016E35C0F6FF36C0F7FF0F0E00
:1096E000F76403D00800F55005D0F6CFE9FFF7CFB7
:1096F000EAFFEF50006E0150005CD96ED95013E1C3
:1097000035C0F6FF36C0F7FF354B362B0F0EF7642A
:1097100003D00800F55005D0F6CFE9FFF7CFEAFFF8
:10972000EF500009C5E1D9CF00F0016A00BE010683
:109730001200370037C0F6FF38C0F7FF0F0EF7648E
:1097400003D00800F55005D0F6CFE9FFF7CFEAFFC8
:10975000EF50D96ED950200A03E0D950090A04E12C
:109760000001374B382BE6D700013B6B3C6B396B64
:10977000D9502D0A02E1392B1BD0D9502B0A1AE1FE
:10978000000116D00A0E026E036A3BC000F03CC016
:1097900001F0C2ECC9F000013A510424006E000E41
:1097A0000520016ED00E00243B6FFF0E01203C6FA0
:1097B000374B382B37C0F6FF38C0F7FF0F0EF76472
:1097C00003D00800F55005D0F6CFE9FFF7CFEAFF48
:1097D000EF5000013A6F3A51A7ECC9F0D3E2000113
:1097E00039513BC000F007E03CC001F0001E011EF3
:1097F000004A012A12003CC001F012000E014B6B1E
:10980000FF0EE8CF42F3E8CF43F3E8CF44F3E8CFCD
:1098100045F3E8CF46F3E8CF47F303EE48F0EE6AAE
:10982000EE6AEE6AEE6A12002CD000011B0E256F64
:10983000000E266F1A0E276F000E286F9DECD3F0D6
:10984000006E00C002F0036A035002102FE0000116
:109850001A5112E11B0EE96E000EEA6E13EE42F091
:10986000060EA2ECC9F021C048F322C049F323C080
:109870004AF324C04BF3010C010EE8CF4BFE05D098
:10988000000C4BCEE8FF000AD0E000011B0E256F54
:10989000000E266F276B04ECD4F0006E00C002F0BF
:1098A000036A03500210ECE00E014B6B010C140034
:1098B00014C0E9FF15C0EAFFEECF1AF0EECF1BF09F
:1098C000EECF1CF0EECF1DF00001140E256F000E40
:1098D000266F010E276F04EFD4F0140014C0E9FFC7
:1098E00015C0EAFF03014851EE1808E14951EE188E
:1098F00005E14A51EE1802E14B51EE180EE001EE7F
:1099000036F04851EE1808E14951EE1805E14A5188
:10991000EE1802E14B51EE180AE103EE42F016C0D8
:10992000E1FF17C0E2FF060EA2ECC9F0010C000C2B
:109930008A88939894969488949A200EC66E9E96E0
:109940000F01C78DC79F1200A200A2C0F9F1A3C0EA
:10995000FAF10101D30EFB6F0E0EFC6F000C01013A
:10996000FC510E0AD30ED8B4FB1916E1F9C1AEF0C2
:10997000FAC1AFF00001C70EB06F0E0EB16F0C0E42
:10998000B26F000E14D801010C0EF927000EFA2355
:10999000C70EFB6F0E0EFC6FFBC1E9FFFCC1EAFFB7
:1099A0000101FB4BFC2BEF501200000CAE00C65027
:1099B000D96E200EC66E8A98030EC96EB0C0E1FF44
:1099C000B1C0E2FF9EA6FED7C950E96E9E96000187
:1099D000AF51C96E9EA6FED7C950E96E9E96000192
:1099E000AE51C96E9EA6FED7C950E96E9E96000183
:1099F000B207B22906E0C96A9EA6FED7C9CFE6FF24
:109A0000F5D78A88D950C66E000CC100C1C0F9F1E3
:109A1000C2C0FAF10101C70EFB6F0E0EFC6F000C05
:109A2000D96EFBC1E9FFFCC1EAFFD9CFEFFF01010D
:109A3000FB2B000EFC23FC510E0AD30ED8B4FB19ED
:109A4000D8B40AD8000C0101FC510E0AC70ED8B4D4
:109A5000FB19D8A401D8000CC650E16E200EC66ECA
:109A60008A98060EC96E9EA6FED7C950D96E9E96DC
:109A70008A888A98020EC96E9EA6FED7C950D96EF2
:109A80009E96FAC1C9FF9EA6FED7C950D96E9E9672
:109A9000F9C1C9FF9EA6FED7C950D96E9E96C70EC2
:109AA000006E0E0E016E00500101FB5DD96ED950A3
:109AB00001EEF9F0EE26000EED22C70EFB6F0E0E42
:109AC000FC6FD906D92810E0FBC1E9FFFCC1EAFF11
:109AD000EF50C96E0101FB2B000EFC239EA6FED7A2
:109AE000C950E96E9E96EDD78A880101C70EFB6FBB
:109AF0000E0EFC6FE150C66E000E04D80009D8B4FB
:109B00001200FAD7C650E16E200EC66E8A98050E76
:109B1000C96E9EA6FED7C950E96E9E96C96A9EA6DA
:109B2000FED7C950D96E9E968A88E150C66ED9A0DC
:109B3000000C040C1A000001280EEA6F000EEB6FF7
:109B4000080EEC6FED6B33EC06F00001246B256B17
:109B5000140E506F516B1EC0E9FF1FC0EAFFEF509B
:109B6000526F536B01EC05F000C026F001C027F0E6
:109B70001EC0E1FF1FC0E2FFF80EE7261CC0EAF09E
:109B80001DC0EBF0E7500001EC6FED6B33EC06F01D
:109B90000001280E506F000E516F8FD81AC0E9FFD8
:109BA0001BC0EAFF28C0EFFF20C0E9FF21C0EAFF89
:109BB0002CC0EEFF2DC0EDFF22C0E9FF23C0EAFF5D
:109BC0002EC0EEFF2FC0EDFF000127512611000E21
:109BD000D8B4010E12001A00010EFDEC01F00001D4
:109BE000246F2429D8B41200140EF76FF86B245197
:109BF000D0EC04F00001080E1F25256F266B000E27
:109C00002623286B1C51276F296B2A6B20C02BF051
:109C100021C02CF022C02DF023C02EF02F0EAA6FF1
:109C2000000EAB6F1DC0ACF01EC0ADF01F51AE6F8B
:109C3000AF6B7BECCAF00001270E506F000E516F26
:109C40003CD81AC0DEF01BC0DFF0010E0001E06F4F
:109C5000080E1F25E16FE26B000EE22372ECD1F0DB
:109C60000001270EFC6F000EFD6F25C0FEF026C020
:109C7000FFF06DEC06F0140E0001F76FF86B25C0D5
:109C8000F9F026C0FAF060EC05F000C029F001C040
:109C90002AF0160E0001F76FF86B2451D0EC04F097
:109CA0000001290EFC6F000EFD6F020EFE6FFF6BB0
:109CB0006DEC06F0B6EF03F05000000100EE04F08A
:109CC0005051E9265151EA22EECFF9F0EDCFFAF0EA
:109CD0009BECD5F0000100EE04F05051E926515103
:109CE000EA2200C0EEFF01C0EDFF00EE06F0505189
:109CF000E9265151EA22EECFF9F0EDCFFAF09BECD4
:109D0000D5F0000100EE06F05051E9265151EA224B
:109D100000C0EEFF01C0EDFF00EE02F05051E92659
:109D20005151EA22EECFF9F0EDCFFAF09BECD5F0ED
:109D3000000100EE02F05051E9265151EA2200C024
:109D4000EEFF01C0EDFF12000E01A36B01013E8387
:109D5000D1EC00F0FEECCBF073ECDDF09BEFF0F01B
:109D60000001146BF1D00001F60E1A6F020E1B6F8A
:109D7000150E1C6F000E1D6FDBEC02F0006E00C0B4
:109D800002F0036A0350021013E101013EA1F3D077
:109D9000CBEC01F0000901E0EED001EE28F0EE6A14
:109DA000EE6AEE6AEE6A01013E83CFECE5F0E3D0A5
:109DB000010E0001146F155102E1020E3BD00001AB
:109DC0001551060A02E1050E35D042EC02F0D3D05F
:109DD00014ECCCF0000901E1CED033D00001160E16
:109DE0001A6F000E1B6FF60E1C6F020E1D6F150E04
:109DF0001E6F000E1F6FF00E206F020E216FFDEC24
:109E0000D0F0006E00C002F0036A035002101CE0A4
:109E1000010E0001146F150502E1030E0BD00001C5
:109E20001551060A02E1060E05D000011551110A6E
:109E300004E1070EE8CFA3FE9ED00001146B42ECB4
:109E400002F00E01A36B97D042EC02F0FAD70001AA
:109E5000F60E1A6F020E1B6F160E1C6F000E1D6F92
:109E600000EE1EF0F0C2EEFFF1C2EDFF85ECDFF078
:109E700011D00001F60E1A6F020E1B6F160E1C6F2A
:109E8000000E1D6F00EE1EF0F0C2EEFFF1C2EDFFFE
:109E9000ACECF6F0006E00C002F0036A0350021052
:109EA0009AD70E01A36B0201000EF15D290ED8B402
:109EB000F05D27E20001150E1A6F000E1B6FA40E55
:109EC0001C6F0E0E1D6FF00E1E6F020E1F6FF20E36
:109ED000206F020E216FF40E226F020E236F9BEC97
:109EE000CDF0006E00C002F0036A0350021009E0DA
:109EF00000011551080A05E1010E146F040EE8CFA8
:109F0000A3FE42EC02F037D0010ED3EC01F00009C1
:109F1000000132E0F60E1A6F020E1B6F1C6BA40ECE
:109F20001D6F0E0E1E6FF0C21FF000EE20F0F2C289
:109F3000EEFFF3C2EDFF00EE22F0F4C2EEFFF5C239
:109F4000EDFFECECCDF07DD7A3CEE8FF000A01E1F8
:109F50000AD7010A01E107D7030A01E13FD7010A45
:109F6000A0E0070AD1E0010A01E132D7030A81E04B
:109F7000010A01E16CD70001145101E0F1D6F7ECC0
:109F8000F4F0E6ECE5F00E0147A1120001013E936A
:109F900012000E01A26B0E01A16B180E98ECCCF012
:109FA000010C9A000E01A1A103D0006A016A1200FF
:109FB000400E00019D6F9E6B9AC0E9FF9BC0EAFFB7
:109FC000EF5004E1FF0E0068016812009AC0AEF085
:109FD0009BC0AFF052ECD6F000C09AF001C09BF0ED
:109FE0009DC0AEF09EC0AFF000019F0EB06F000E9E
:109FF000B16F0F0EB26FA00ED7ECCCF000019F51E5
:10A0000032E19AC0AEF09BC0AFF055ECCAF0005000
:10A0100000019C6F0C0E9C6501D09C6F9AC0AEF045
:10A020009BC0AFF00001A20EB06F000EB16F9C514B
:10A03000B26FB36BE0ECCAF0015000100EE1A0C0AB
:10A0400050F3A1C051F30E01010EA22B00EEA0F0BF
:10A05000EECF00F0EDCF01F012000F0E00019D27B2
:10A06000000E9E23BDD700019F51040A0DE100EEB2
:10A07000A0F0EE52ED1CFF0ED8B4EF1809E0A0C01E
:10A080009DF0A1C09EF0ACD7FF0E006801681200E1
:10A09000FF0E0068016812000E01A06B0E01A19175
:10A0A0000E01A253D8B41200010EA2071200A000A4
:10A0B000A0C052F3A1C053F3A0C0A2F0A1C0A3F06E
:10A0C000A00EA5ECCCF0006E00C002F0036A0350B5
:10A0D0000210000ED8B4010E1200AFECCCF000015B
:10A0E000A06F0301522B000E53230001A051030A5D
:10A0F00009E1AFECCCF00001A06F0301522B000E80
:10A10000532309D00001A051040A05E1FF0EE8CF56
:10A1100052F3E8CF53F30001A0511200D5ECCCF07C
:10A1200052C300F053C301F012000E01A181400E92
:10A13000006E016A1200BF00BFC052F3C0C053F3EB
:10A14000BFC0A0FE0E013F0EA017BFC0C1F0C0C02F
:10A15000C2F0A00E06ECCDF0006E00C002F0036A63
:10A1600003500210000ED8B4010E12000001BF6FA0
:10A17000BF5110ECCDF0000901E0000C0E01A02B46
:10A180000301522B000E53233F0E0E01A065010C5C
:10A1900008D852C3C1F053C3C2F0A00E06ECCDF0F4
:10A1A000010C0E01A06B23ECCDF0A00E82ECCDF0E3
:10A1B0000009FBE152C300F053C301F01200140088
:10A1C00050C3A0F051C3A1F073DF0001146B156BF5
:10A1D00000011451006E1551016E144B152B151909
:10A1E00002E11451001802E078DFF2D797DF52C382
:10A1F00000F053C301F012001A000001240EEA6FB0
:10A20000000EEB6F140EEC6FED6B33EC06F00001FB
:10A210002451F00B400A01E0000C24C000F00F0EA6
:10A220000016D8900036D8900034E8CF82FE0001A6
:10A23000506B516B82CE52F0536B01EC05F000C0B5
:10A2400022F001C023F082CEE8FF0001A06FA16BD5
:10A25000A0EC04F000012351221101E0000C0001E8
:10A26000240EF76F000EF86FC7D81AC0E1FF1BC0AD
:10A27000E2FFE250E1100CE0E1CFE9FFE2CFEAFFBC
:10A2800034C0EEFF35C0EEFF36C0EEFF37C0EEFF44
:10A29000000100EE06F01C51E9261D51EA2230C0F3
:10A2A000EEFF31C0EEFF32C0EEFF33C0EEFF1EC046
:10A2B000E9FF1FC0EAFF2DC0EFFF82CEE8FF00EEEE
:10A2C00026F0EECF00F0EDCF01F0005E000E015A57
:10A2D00020C0E9FF21C0EAFF00C0EEFF01C0EDFF92
:10A2E000010CDE00140EE8CF82FE450E0001E36F84
:10A2F000E46B140EE125E56F000EE221E66F01012B
:10A30000FD2B000EFE2300EEE7F0FDC1EEFFFEC1C7
:10A31000EDFF0001E96BEA6B640EEB6FE051EC6F4F
:10A32000ED6BEE6B00EEEFF028C1EEFF29C1EEFF02
:10A330002AC1EEFF2BC1EEFF00EE06F0DE51E9264A
:10A34000DF51EA22EECFF3F0EECFF4F0EECFF5F0EE
:10A35000EECFF6F0E30EF76F000EF86F4DD8DEC0CB
:10A36000F7F0DFC0F8F00001F96B140EE125FA6F89
:10A37000000EE221FB6F55EC03F00001E30EFC6FD1
:10A38000000EFD6F140EFE6FFF6B6DEC06F000010A
:10A39000F76BF86B140EF96FFA6B60EC05F000C008
:10A3A000EDF001C0EEF00A0E0001F76FF86BD3CEAE
:10A3B000E8FFD0EC04F00001ED0EFC6F000EFD6F25
:10A3C000020EFE6FFF6B6DEC06F0140E0001F76FCE
:10A3D000F86BD3CEE8FFD0EC04F0006A016A1200FB
:10A3E0009E0082CEE8FF00019E25A06F000E9F21F7
:10A3F000A16FA0EF04F0F700000100EE02F0F751AA
:10A40000E926F851EA22EECFF9F0EDCFFAF09BEC15
:10A41000D5F0000100EE02F0F751E926F851EA22EA
:10A4200000C0EEFF01C0EDFF00EE04F0F751E92699
:10A43000F851EA22EECFF9F0EDCFFAF09BECD5F02F
:10A44000000100EE04F0F751E926F851EA2200C0BD
:10A45000EEFF01C0EDFF00EE0AF0F751E926F851DA
:10A46000EA22EECFF9F0EDCFFAF09BECD5F0000147
:10A4700000EE0AF0F751E926F851EA2200C0EEFF9B
:10A4800001C0EDFF12000001160E206F000E216FBB
:10A490002269236B0A0E246F256BD2ECC9F00001F0
:10A4A0002C0E356F0B0E366F160E376F000E386F91
:10A4B0005F0E396F760E3A6F7FECDDF00001146F9E
:10A4C0001429D8B4120014C0C4FE010ED3EC01F05C
:10A4D0000009F9E00001156B0001155101EE49F08A
:10A4E000E926000EEA22EF50FCECDDF00001152B0E
:10A4F0000E0E1565F1D70D0EFCECDDF00A0EFCEC2E
:10A50000DDF00001156B0001155101EE2CF0E9267C
:10A51000000EEA22EF5077ECD5F0FCECDDF0000104
:10A52000155101EE2CF0E926000EEA22EF5089ECDD
:10A53000D5F0FCECDDF00001152B1551060A04E006
:10A540002D0EFCECDDF0DFD70D0EFCECDDF00A0E7D
:10A55000FCECDDF0440EFCECDDF0480EFCECDDF034
:10A56000430EFCECDDF0500EFCECDDF02F0EFCECAD
:10A57000DDF0500EFCECDDF06F0EFCECDDF0770E44
:10A58000FCECDDF0650EFCECDDF0720EFCECDDF0B9
:10A59000200EFCECDDF0650EFCECDDF0760EFCEC44
:10A5A000DDF0650EFCECDDF06E0EFCECDDF0740E03
:10A5B000FCECDDF0200EFCECDDF06F0EFCECDDF0D1
:10A5C000630EFCECDDF0630EFCECDDF0750EFCECD4
:10A5D000DDF0720EFCECDDF0720EFCECDDF0650ED1
:10A5E000FCECDDF0640EFCECDDF082ECDEF0000152
:10A5F0001451DAEFDDF093D000015F0E356F760E67
:10A60000366F376B386B5F0E396F760E3A6F7FECB3
:10A61000DDF0E8CF4AFE4ACE00F00028D8B41200A0
:10A620000E01010E442B12004ACEE8FF0AECDFF0C7
:10A630000009D8B412000001140E3A6F000E3B6FEF
:10A640001CECDFF069ECDFF000011451440AD8A4DF
:10A6500012000E01010E442B12004ACEC4FE010E60
:10A66000D3EC01F00009D8B412000001146B0CD037
:10A670000001145101EE49F0E926000EEA22EF50E4
:10A68000FCECDDF00001142B0E0E1465F1D70D0E5D
:10A69000FCECDDF00A0EFCECDDF00001146B0001B7
:10A6A000145101EE2CF0E926000EEA22EF5077EC6F
:10A6B000D5F0FCECDDF00001145101EE2CF0E926A0
:10A6C000000EEA22EF5089ECD5F0FCECDDF0000141
:10A6D000142B1451060A04E02D0EFCECDDF0DFD73C
:10A6E0000D0EFCECDDF00A0EFCECDDF04ACEE8FFCE
:10A6F000160D5C0EF3240001AA6F010EF420AB6F5F
:10A70000F60EAC6F020EAD6F0A0EAE6FAF6B7BEC48
:10A71000CAF082ECDEF0010EE8CF44FE120044CE17
:10A72000E8FF000A01E168D7010A01E17DD7030AC9
:10A7300094E0010AF3E0120025000001290EEA6FFF
:10A74000000EEB6F1C0EEC6FED6B33EC06F042EC81
:10A7500002F00001290E456F000E466F05D900EE8C
:10A7600029F0EE50010AED1007E100012D51060A13
:10A7700003E12E51040A01E0000C27C0E1FF28C0CC
:10A78000E2FF25C0D9FF26C0DAFF00EE2FF0EE5021
:10A79000020AED1002E1000E07D000EE2FF0EE509D
:10A7A000010AED1003E1010EE76E03D0020EE76E21
:10A7B000000C01EE28F00001EE50411908E1EE50C6
:10A7C000421905E1EE50431902E1EE5044191AE135
:10A7D000310EE96E000EEA6ED9CFE1FFDACFE2FF6B
:10A7E000060EA2ECC9F000EE06F0D950E926DA50C8
:10A7F000EA2237C0EEFF38C0EEFF39C0EEFF3AC0A4
:10A80000EEFF010C000C2500010EFDEC01F0000133
:10A81000286F282901E1000C0001F76BF86B285123
:10A82000D0EC04F0010E0001296F2A6B2B6B080E8F
:10A830002C6F060E2D6F040E2E6F25C0D9FF26C07B
:10A84000DAFF27050AE1010E2F6F306B3B693C6987
:10A850003D693E693F6940690FD0020E00012F6FCC
:10A86000306BD9CFE9FFDACFEAFF3B0EE16E000E85
:10A87000E26E060EA2ECC9F02C0EE96E010EEA6E35
:10A88000310EE16E000EE26E060EA2ECC9F000EE93
:10A8900037F028C1EEFF29C1EEFF2AC1EEFF2BC120
:10A8A000EEFF00EE06F0D950E926DA50EA22000168
:10A8B000EE503719006EEE503819016EEE5039190E
:10A8C000026EED503A19036EED52ED5232C1E8FFBF
:10A8D0000014046E33C1E8FF0114056E34C1E8FFB3
:10A8E0000214066E35C1E8FF0314076E075004100A
:10A8F000051006100BE000EE41F036C1EEFF37C147
:10A90000EEFF38C1EEFF39C1EEFF0ED000EE06F0CB
:10A91000D950E926DA50EA22EECF41F0EECF42F0EC
:10A92000EECF43F0EECF44F00001290E456F000E4C
:10A93000466F1AD800013B0EF76F000EF86F060E37
:10A94000F96F1C0EFA6FFB6B55EC03F00001290E3A
:10A95000FC6F000EFD6F1C0EFE6FFF6B6DEC06F0C2
:10A96000B6EC03F0010C450045C0E9FF46C0EAFF24
:10A97000EECFF9F0EDCFFAF09BECD5F045C0E9FF52
:10A9800046C0EAFF00C0EEFF01C0EDFF000100EE8F
:10A9900002F04551E9264651EA22EECFF9F0EDCF1B
:10A9A000FAF09BECD5F0000100EE02F04551E926EB
:10A9B0004651EA2200C0EEFF01C0EDFF00EE06F0B6
:10A9C0004551E9264651EA22EECFF9F0EDCFFAF0F3
:10A9D0009BECD5F0000100EE06F04551E92646510A
:10A9E000EA2200C0EEFF01C0EDFF12003700E96A65
:10A9F00039C0E1FF3AC0E2FF00013851371144E0AD
:10AA0000D96A100EF66E270EF76EF6CF02F0F7CF6A
:10AA100003F037C000F038C001F0ACECCAF004C05D
:10AA20003BF005C03CF000013C513B11D8B4E9506B
:10AA300019E0E1CFE9FFE2CFEAFFE14AE22A3B5128
:10AA4000300FEF6EF6CF02F0F7CF03F03BC000F00F
:10AA50003CC001F0C2ECC9F00450375F0550385BD0
:10AA6000010EE96E0A0E026E036AF6CF00F0F7CF10
:10AA700001F0ACECCAF004C0F6FF05C0F7FFD92A1C
:10AA8000040ED964C2D708D0E1CFE9FFE2CFEAFFD4
:10AA9000E14AE22A300EEF6E000EE76A1200A000D3
:10AAA000460E0001A16502D0E00EA127460E00016E
:10AAB000A06502D0E00EA027390E0001A16502D0EA
:10AAC000C90E02D0D00E0001A127390E0001A065E9
:10AAD00002D0C90E02D0D00E0001A027A1C000F004
:10AAE000003AF00E00160001A05100101200D96EBD
:10AAF000D93A0F0ED9160A0ED96002D0300E01D005
:10AB0000370ED9CF00F0016A0026000E0122005056
:10AB10001200D96E0F0ED9160A0ED96002D0300E6F
:10AB200001D0370ED9CF00F0016A0026000E0122B5
:10AB300000501200F900F9C0FBF0FAC0FCF000016F
:10AB4000FC51D96EFB51FC6FD950FB6FFBC000F07C
:10AB5000FCC001F01200E000E0C0E4F0E1C0E5F06C
:10AB6000E2C0E6F0E3C0E7F0E40ED96E000EDA6E64
:10AB700000EE03F0D950E926DA50EA22EF50E16EF8
:10AB800000EE03F0D950E926DA50EA22DFCFEFFFDA
:10AB9000E1CFDFFF00EE02F0D950E926DA50EA22D9
:10ABA000EF50F36E10EE01F0D950E126DA50E222B8
:10ABB00000EE02F0D950E926DA50EA22E7CFEFFFA3
:10ABC00000EE01F0D950E926DA50EA22F3CFEFFF88
:10ABD000E4C000F0E5C001F0E6C002F0E7C003F019
:10ABE0001200DE000001E66BE76BE86BE96BD890C2
:10ABF000E131F46EE031F36EDEC0E1FFDFC0E2FF71
:10AC0000F350006EF450016EF306000EF45A01503A
:10AC1000001018E0E1CFE9FFE2CFEAFF020EE126E3
:10AC2000000EE222EECF00F0EDCF01F0026A036ADF
:10AC300000010050E6270150E7230250E8230350AB
:10AC4000E923DED70001E0A109D0E750E627010E95
:10AC5000D8B0E727D8B0E827D8B0E927E6C0E2F0B7
:10AC6000E7C0E3F0E8C0E4F0E9C0E5F0E4C0F3FFDA
:10AC7000E5C0F4FFF450F3100EE00001E86BE96B5F
:10AC8000E651F324E66FE751F420E76FE86BD8B0A4
:10AC9000E82BE96BE3D70001E61D006EE71D016EAE
:10ACA0001200AE00AEC0E1FFAFC0E2FFE750D96EC8
:10ACB000D9500AE0600ED96405D07B0ED96002D06D
:10ACC000E00EE726E652F2D7AEC000F0AFC001F0CA
:10ACD00012002ED10E01010E482B1200890E000128
:10ACE000356F366B376B386B890E396F3A6B7FEC8B
:10ACF000DDF0E8CFC5FEC5CE00F00028D8B41200C4
:10AD00000E01482BC5CEE8FF0AECDFF00009D8B4ED
:10AD1000120000011A0E3A6F000E3B6F1CECDFF0C0
:10AD20000001190E3A6F000E3B6F1CECDFF00001C2
:10AD30001C0E3A6F000E3B6F1CECDFF000011B0E87
:10AD40003A6F000E3B6F1CECDFF000011E0E3A6FF5
:10AD5000000E3B6F1CECDFF000011D0E3A6F000E81
:10AD60003B6F1CECDFF00001200E3A6F000E3B6FD2
:10AD70001CECDFF000011F0E3A6F000E3B6F1CEC65
:10AD8000DFF00001220E3A6F000E3B6F1CECDFF08B
:10AD90000001210E3A6F000E3B6F1CECDFF000014A
:10ADA000240E3A6F000E3B6F1CECDFF00001230E07
:10ADB0003A6F000E3B6F1CECDFF000011D51006E7E
:10ADC0001E51016E1D07000E1E5B0150001001E1B7
:10ADD000ADD00001250E356F000E366FD8D80001BA
:10ADE000140E3A6F000E3B6F1CECDFF00001180EE2
:10ADF0003A6F000E3B6F1CECDFF00001170E3A6F4C
:10AE0000000E3B6F1CECDFF00001160E3A6F000ED7
:10AE10003B6F1CECDFF00001150E3A6F000E3B6F2C
:10AE20001CECDFF000011751200A1811C6E11505CE
:10AE30001611C4E1250E356F000E366F490E376FBF
:10AE4000010E386F58ECCBF001500010B6E1C5CEC2
:10AE5000C4FE010ED3EC01F00009F9E000011B6B08
:10AE6000840E1C6F1A51FCECDDF000011951FCEC52
:10AE7000DDF000011C51FCECDDF000011B51FCEC8D
:10AE8000DDF0000EFCECDDF0000EFCECDDF0000E61
:10AE9000FCECDDF0010EFCECDDF0000EFCECDDF076
:10AEA000000EFCECDDF0000EFCECDDF0000EFCEC26
:10AEB000DDF00001490E356F010E366F46D8000EE9
:10AEC000FCECDDF0200EFCECDDF0000EFCECDDF027
:10AED000010EFCECDDF0000EFCECDDF0000EFCECF5
:10AEE000DDF0000EFCECDDF0000EFCECDDF0000E01
:10AEF000FCECDDF0060EFCECDDF0600EFCECDDF0B1
:10AF0000000EFCECDDF028C1E8FFFCECDDF029C10F
:10AF1000E8FFFCECDDF02AC1E8FFFCECDDF02BC122
:10AF2000E8FFFCECDDF082ECDEF047D769EFDFF004
:10AF300048CEE8FF000A01E1CDD6010A01E1CED6F4
:10AF4000030A01E1DFD612003500200EFCECDDF033
:10AF50000001386B35C0E9FF36C0EAFFEF50000151
:10AF6000376F354B362B37390F0B410FFCECDDF0CB
:10AF7000000137510F0B410FFCECDDF00001382BC5
:10AF80000F0E3865E7D7000EFCEFDDF0350000014D
:10AF90003651351112E1380E3A6F000E3B6F1CEC42
:10AFA000DFF0000138073829D8B41200390E3A6FA3
:10AFB000000E3B6F1CECDFF0F4D70001380E3A6F47
:10AFC000000E3B6F1CECDFF0000138073829D8B4C5
:10AFD0001200390E3A6F000E3B6F1CECDFF0BF0E13
:10AFE000000139273939F00B376F3807390E3A6FBE
:10AFF000000E3B6F1CECDFF0BF0E0001392739510A
:10B00000371135C0E9FF36C0EAFFEF6E354B362BFE
:10B01000DBD7140014C032F315C033F30E01496BB3
:10B0200012001400FED100013A0E146F010E156FCC
:10B0300058ECCCF016ECCAF090D000013A0E146F28
:10B04000010E156F380E166F030E176F6EECCCF0F5
:10B05000006E00C002F0036A035002101EE116ECFD
:10B06000CAF034C3E8FF005C046E35C3E8FF015842
:10B07000056E36C3E8FF0258066E37C3E8FF035873
:10B08000076E000E075C08E1000E065C05E1000E8D
:10B09000055C02E1C90E045C8ED03AC13EF33BC1AF
:10B0A0003FF33CC140F33DC141F30E01492B000188
:10B0B000356B366B380E376F030E386F350E396FC0
:10B0C0003A6B7FECDDF0E8CFC6FEC6CE00F000287C
:10B0D00001E1BAD10E01492BC6CEC4FE010ED3EC5C
:10B0E00001F0000901E1B0D1120EFCECDDF0340EEC
:10B0F000FCECDDF0010EFCECDDF0000EFCECDDF014
:10B10000000EFCECDDF0010EFCECDDF0000EFCECC2
:10B11000DDF0000EFCECDDF0000EFCECDDF0000ECE
:10B12000FCECDDF0000EFCECDDF0000EFCECDDF0E4
:10B1300032C314F033C315F089D9000EFCECDDF0F6
:10B14000010EFCECDDF0000EFCECDDF0010EFCEC81
:10B15000DDF082ECDEF016ECCAF000C034F301C082
:10B1600035F302C036F303C037F30E01492B000C50
:10B17000C6CEE8FF0AECDFF0000922E116ECCAF0C7
:10B1800034C3E8FF005C046E35C3E8FF0158056E68
:10B1900036C3E8FF0258066E37C3E8FF0358076E50
:10B1A000000E075C08E1000E065C05E1000E055C80
:10B1B00002E1C90E045C01E247D10E014907000C0F
:10B1C0000001180E3A6F000E3B6F1CECDFF000011F
:10B1D000170E3A6F000E3B6F1CECDFF000011A0EE9
:10B1E0003A6F000E3B6F1CECDFF00001190E3A6F56
:10B1F000000E3B6F1CECDFF000011C0E3A6F000EDE
:10B200003B6F1CECDFF000011B0E3A6F000E3B6F32
:10B210001CECDFF000011E0E3A6F000E3B6F1CECC1
:10B22000DFF000011D0E3A6F000E3B6F1CECDFF0EB
:10B230000001200E3A6F000E3B6F1CECDFF00001A6
:10B240001F0E3A6F000E3B6F1CECDFF00001220E68
:10B250003A6F000E3B6F1CECDFF00001210E3A6FDD
:10B26000000E3B6F1CECDFF000011B51006E1C5107
:10B27000016E1B07000E1C5B0150001001E1B9D0EC
:10B28000146B156B1CD90001160E3A6F000E3B6F44
:10B290001CECDFF00001150E3A6F000E3B6F1CEC4A
:10B2A000DFF00001160E3A6F000E3B6F1CECDFF072
:10B2B0000001150E3A6F000E3B6F1CECDFF0D4D787
:10B2C0000001240E3A6F000E3B6F1CECDFF0000112
:10B2D000230E3A6F000E3B6F1CECDFF00001260ED0
:10B2E0003A6F000E3B6F1CECDFF00001250E3A6F49
:10B2F000000E3B6F1CECDFF00001280E3A6F000ED1
:10B300003B6F1CECDFF00001270E3A6F000E3B6F25
:10B310001CECDFF000012C0E3A6F000E3B6F1CECB2
:10B32000DFF000012B0E3A6F000E3B6F1CECDFF0DC
:10B3300000012A0E3A6F000E3B6F1CECDFF000019B
:10B34000290E3A6F000E3B6F1CECDFF000012E0E51
:10B350003A6F000E3B6F1CECDFF000012D0E3A6FD0
:10B36000000E3B6F1CECDFF000EE25F0EE50010A02
:10B37000ED1034E100EE27F0EE50010AED102EE161
:10B3800000EE2DF0EE50040AED1028E114C03AF062
:10B3900015C03BF01CECDFF0000114293A6F000EE1
:10B3A00015213B6F1CECDFF00001020E14253A6FF3
:10B3B000000E15213B6F1CECDFF00001030E14257D
:10B3C0003A6F000E15213B6F1CECDFF01ED0000120
:10B3D000140E3A6F000E3B6F1CECDFF000012D5194
:10B3E000006E2E51016E2D07000E2E5B01500010D5
:10B3F000EEE100011D51006E1E51016E1D07000E91
:10B400001E5B0150001001E05BD769ECDFF0C6CE97
:10B41000E8FFDAECDDF0FF0EE8CFC6FE0E01492BA7
:10B42000010C49CEE8FF000A01E1FDD5010A01E166
:10B4300004D6030A01E13BD6010A01E14DD6070A11
:10B4400001E196D6010AECE0000C140014C016F0DD
:10B4500015C017F016C0E9FF17C0EAFFEF50000152
:10B46000156F164B172B155106E015512E0A03E0E8
:10B4700015512F0AEFE100011451165D006E000412
:10B48000146F1451FCECDDF00001140714290AE0DC
:10B4900014C0E9FF15C0EAFF144B152BEF50FCEC6C
:10B4A000DDF0F2D70001155106E015512F0A03E037
:10B4B000144B152BCFD7000EFCEFDDF0140000016C
:10B4C000155114111CE1150E3A6F000E3B6F1CEC68
:10B4D000DFF010D0140E3A6F000E3B6F1CECDFF063
:10B4E000000115071529F6E1150E3A6F000E3B6FA6
:10B4F0001CECDFF000011551D8B41200F1D70001A7
:10B50000150E3A6F000E3B6F1CECDFF013D014C029
:10B510003AF015C03BF01CECDFF00001144B152B8A
:10B52000000115071529F3E1150E3A6F000E3B6F68
:10B530001CECDFF000011551D8B41200F1D7150E44
:10B540000001156F166B13ECF1F0E8CF52FE0E01FF
:10B55000556B0E01536B0E01506B0301140E1C6FE3
:10B56000000E1D6B120052CEE8FF58ECF2F00009FD
:10B570000CE10E01536B070EE8CF4EFE0E01556B2A
:10B580000E01506B0E01566B010C52CEE8FFE8EC39
:10B59000F4F0000947E016ECCAF000C020F301C047
:10B5A00021F302C022F303C023F30001140E9A6FAB
:10B5B000000E9B6F52CEE8FF90ECF4F0006E00C0DE
:10B5C00002F0036A0350021011E053CEE8FF0EEEC2
:10B5D00061F0E926000EEA2214C0EFFF0E01532BA2
:10B5E00053CEE8FF1F0AE1E1536BDFD752CEE8FFED
:10B5F00023ECF4F0000114510A0A01E0BDD053CE4F
:10B60000E8FF0EEE61F0E926000EEA22EF6A0E0175
:10B61000536B25DA24C31BF025C31CF0FCD9E8CFFB
:10B620004EFEAAD00E01555301E1A6D016ECCAF089
:10B6300000C015F001C016F002C017F003C018F0EA
:10B64000150EE96E000EEA6E20C3E8FFEE5E21C320
:10B65000E8FFEE5A22C3E8FFEE5A23C3E8FFED5A93
:10B66000ED52ED520001000E185D08E1000E175D6D
:10B6700005E1460E165D02E1500E155D7DE316EC08
:10B68000CAF000C020F301C021F302C022F303C0BE
:10B6900023F3020EE8CF4EFE010EE8CF55FE6CD02C
:10B6A0000E01516B16ECCAF000C020F301C021F36B
:10B6B00002C022F303C023F352CEE8FF77ECF3F08D
:10B6C000000901E1010C51CEE8FF020D0C0EF3243C
:10B6D000E96E010EF420EA6EEECF19F0EDCF1AF00C
:10B6E000000119C0F6FF1AC0F7FF194B1A2B0F0EF5
:10B6F000F76403D00800F55005D0F6CFE9FFF7CF87
:10B70000EAFFEF50146F145108E000011451A06FCC
:10B7100052CEE8FF9FECF3F0E3D752CEE8FFDBEC2C
:10B72000F2F00C0EE8CF51FE010EE8CF55FE4ECEE2
:10B73000E8FF070A29E04ECEE8FF27D8000914E009
:10B7400051CEE8FF0C0A04E0040EE8CF55FE06D007
:10B750004ECEE8FF020A02E10E01556B070EE8CF5C
:10B760004EFE0E01566B010C51CEE8FF0C0A0CE0A8
:10B77000040EE8CF55FEA0D755CEE8FF000A90E0B2
:10B78000010AD5E0050A98E0010CD96E58D00E01E7
:10B7900050815093010EE8CF51FE0001570E1B6FF0
:10B7A0000E0E1C6F00EE1DF026C3EEFF27C3EDFF4B
:10B7B0000A0E1F6F206B1AECCBF0010C0E0150B17A
:10B7C00002D0060E17D00001570E1B6F0E0E1C6F15
:10B7D00000EE1DF026C3EEFF27C3EDFF5CECEDF09D
:10B7E000006E00C002F0036A03500210EAE00E018E
:10B7F0005083020EE8CF51FE010C2FD02EC337F03C
:10B800002FC338F09AECCBF000C01DF330C337F0F3
:10B8100031C338F09AECCBF000C01CF30B0EEAD722
:10B8200057D00B0EE8CF51FE4FCEE8FFFE0A14E0D2
:10B830004FCEE8FF67ECF2F0010C050EDBD7D950D4
:10B84000A6E0010ABBE0030AD8E0010AE9E0070A22
:10B85000D5E0010AE6E0F1D7010C31D056CEE8FF81
:10B86000020AD8B44CECD0F04FCEE8FFFE0A10E04C
:10B870004CECD0F04FCEE8FF67ECF2F0010EE8CFD1
:10B8800056FE000C4FCEE8FF58ECF2F000091FE125
:10B89000030EE8CF51FEE8CF56FE000C52CEE8FF73
:10B8A00077ECF3F0000913E052CEE8FF58ECF2F029
:10B8B00000090DE052CEE8FF67ECF2F0000C56CE26
:10B8C000E8FF000ACBE0010ADDE0020AE7E0000C35
:10B8D00097D00E0150B304D0060EE8CF51FE010CF4
:10B8E000070EE8CF51FE52CEE8FF280D010EF324DB
:10B8F00000011C6F020EF4201D6F00EE1EF01CC331
:10B90000EEFF1DC3EDFF84ECF1F0E8CF4FFE4FCE0C
:10B91000E8FFFE0A04E0010EE8CF56FE000C0A0E16
:10B92000E8CF51FE010C4FCEE8FF58ECF2F00009D1
:10B9300070E00E01A2536DE195ECD0F000C01EF353
:10B9400001C01FF3020EE8D74FCEE8FFE8ECF4F099
:10B95000000941E016ECCAF000C020F301C021F359
:10B9600002C022F303C023F31EC3BFF01FC3C0F005
:10B970009CECD0F000011B0E9A6F000E9B6F4FCE17
:10B98000E8FF90ECF4F0006E00C002F0036A035090
:10B99000021005E000011B51B6ECD0F0EBD7D1EC62
:10B9A000D0F000C01EF301C01FF34FCEE8FF23EC20
:10B9B000F4F052CEE8FF77ECF3F000092AE0230E12
:10B9C0000001A06F52CEE8FF9FECF3F052CEE8FFEB
:10B9D000DBECF2F0000C4FCEE8FF58ECF2F000097F
:10B9E00018E1D1ECD0F04CECD0F04FCEE8FF67EC92
:10B9F000F2F0FE0EE8CF4FFE090EE8CF51FE010C2B
:10BA000056CEE8FF000A01E164D7010A8CE0030A80
:10BA10009BE0000C1B0000011D6B1BC0AEF01CC0A6
:10BA2000AFF000011D51020D000EF324E96E010E6E
:10BA3000F420EA6EEECFB0F0EDCFB1F0040EB26FAD
:10BA4000B36BE0ECCAF00150001003E100011D519E
:10BA5000120000011D2B050E1D65DFD7060CE96ADB
:10BA6000610EE16E0E0EE26EE750200A02E1E65230
:10BA7000FBD7E1CF24F3E2CF25F3010EE8CF54FE4C
:10BA800028D0D950200A03E0D9502C0A05E1000E35
:10BA9000E76E010EE96E1CD0D9500D0A03E0D950B3
:10BAA0000A0A16E1000EE76E13D0D950200A10E002
:10BAB00054CEE8FF020D240EF324E96E030EF420A9
:10BAC000EA6EE1CFEEFFE2CFEDFF0E01542BE96A03
:10BAD000E652E750D96ED950D8B41200E950D1E0FF
:10BAE000010AE3E0F5D70001146B0001145162D89C
:10BAF0000001142B030E1465F8D7120035005C0EFC
:10BB0000E16E010EE26E00013B6B00EE0CF0E150C5
:10BB1000E926E250EA22EE50ED1042E100EE0CF090
:10BB2000E150E926E250EA2235C0EEFF36C0EDFFD3
:10BB3000E1CF3CF0E2CF3DF00001385137110DE08C
:10BB40003CC0AAF03DC0ABF037C0ACF038C0ADF09F
:10BB50000A0EAE6FAF6B7BECCAF03CC0E1FF3DC09C
:10BB6000E2FF00EE0AF0E150E926E250EA2239C095
:10BB7000EEFF3AC0EDFF00EE0EF0E150E926E25094
:10BB8000EA22EE6AED6A00EE10F0E150E926E2509A
:10BB9000EA22EE6AED6A3BC0C4FE00013B5112008E
:10BBA000160EE126000EE22200013B2B030E3B6540
:10BBB000ACD7FF0CD96ED950160D680EF324E96E80
:10BBC000010EF420EA6EEE6AED6AD950160D620E8F
:10BBD000F324E96E010EF420EA6EEE6AEE6AEE6A74
:10BBE000ED6AD950160D710EF324E96E010EF420A2
:10BBF000EA6EFE0EEF1612000001396FC4CEE8FFA8
:10BC0000160D5C0EF324E16E010EF420E26EE1CF1E
:10BC10003AF0E2CF3BF000EE0EF0E150E926E250C0
:10BC2000EA22EE50ED102EE1010EFDEC01F0006E67
:10BC3000000100EE12F03A51E9263B51EA2200C021
:10BC4000EFFF00EE12F03A51E9263B51EA22EF50A5
:10BC5000006E002801E1000C1C0E0001F76FF86B6C
:10BC600000EE12F03A51E9263B51EA22EF50D0ECB7
:10BC700004F0000100EE13F03A51E9263B51EA22AC
:10BC8000EE6AED6A0001395159EC06F03AC0E1FF65
:10BC90003BC0E2FF00EE0EF0E150E926E250EA225E
:10BCA000EECF00F0EDCF01F000EE13F0E150E92609
:10BCB000E250EA22EFCF02F0EE2AEFCF03F0000EBF
:10BCC000ED220150035C02E10050025C09E300EE4A
:10BCD0000EF0E150E926E250EA22EE2A000EED22B3
:10BCE00000EE0EF0E150E926E250EA22EECFF3FF3B
:10BCF000EDCFF4FF020EF45C160ED8B4F35CD8B0AE
:10BD000001D8010C010ED3EC01F00009FBE0C4CE18
:10BD1000E8FF160D5C0EF32400013C6F010EF420C9
:10BD20003D6F00EE0CF03C51E9263D51EA22EECF8A
:10BD3000F9F0EDCFFAF09BECD5F000C03EF001C079
:10BD40003FF0000100EE0AF03C51E9263D51EA22A5
:10BD5000EECFF9F0EDCFFAF09BECD5F000C040F05B
:10BD600001C041F0000100EE0EF03C51E9263D51CA
:10BD7000EA22EECF00F0EDCF01F0080E0024426F72
:10BD8000000E0120436F446B456B140EF76FF86B88
:10BD900000EE12F03C51E9263D51EA22EF50D0EC82
:10BDA00004F03CC0DEF03DC0DFF0110E0001E06F9A
:10BDB00042C0E1F043C0E2F072ECD1F042C0F9F0D1
:10BDC00043C0FAF09BECD5F000C042F001C043F054
:10BDD00000013E0EFC6F000EFD6F080EFE6FFF6B44
:10BDE0006DEC06F0B6EC03F03CC0E1FF3DC0E2FFB5
:10BDF00000EE12F0E150E926E250EA22FF0EEF6E6B
:10BE000000EE0EF0E150E926E250EA22000EEE6A62
:10BE1000ED6A1200E8CFC4FEC4CEE8FF160D6C0E2A
:10BE2000F324E96E010EF420EA6EEE50ED10000EE0
:10BE3000D8A4010E12003A00C4CEE8FF160D6C0E15
:10BE4000F324E96E010EF420EA6EEE50ED1001E1EC
:10BE5000000CC4CEE8FF160D710EF324E96E010E3E
:10BE6000F420EA6EEF50006E00A011D0C4CEE8FFBF
:10BE7000160D710EF324E96E010EF420EA6EFE0E2B
:10BE8000EF16080E00019E6F9F6BF1ECD1F020ECD5
:10BE900006F03AC0E9FF3BC0EAFFEF6EC4CEE8FF10
:10BEA000160D6C0EF324E96E010EF420EA6EEE0618
:10BEB000000EED5AC4CEE8FF160D6C0EF324E96EA9
:10BEC000010EF420EA6EEE50ED10D8B442EC02F010
:10BED000010CC4CEE8FF160D6C0EF324E96E010EC2
:10BEE000F420EA6EEE50ED10D8A442EC02F0C4CE7D
:10BEF000E8FF160D6C0EF324E96E010EF420EA6ED5
:10BF0000000EEE6AED6A12001A000001230EEA6FBD
:10BF1000000EEB6F080EEC6FED6B33EC06F023C0F8
:10BF2000F9F024C0FAF09BECD5F000C023F001C07A
:10BF300024F025C0F9F026C0FAF09BECD5F000C043
:10BF400025F001C026F027C0F9F028C0FAF09BECDC
:10BF5000D5F0F80E00240001276FFF0E0120286F96
:10BF600000EE29F0EE50ED1001E187D029C0F9F084
:10BF70002AC0FAF09BECD5F000C029F001C02AF0ED
:10BF8000000100EE06F01A51E9261B51EA22EECF1D
:10BF90002BF0EECF2CF0EECF2DF0EECF2EF01CC01C
:10BFA000E1FF1DC0E2FFE7502F6F00EE01F0E1500E
:10BFB000E926E250EA22EF50306F00EE02F0E15045
:10BFC000E926E250EA22EF50316F00EE03F0E15033
:10BFD000E926E250EA22EF50326F336B110E346FD4
:10BFE0001EC035F01FC036F035C0F9F036C0FAF08B
:10BFF0009BECD5F000C035F001C036F000012B0EEF
:10C00000DE6F000EDF6F0C0EE06FE16BF2ECD5F02F
:10C01000001C0001216F011C226F060E9E6F9F6B9A
:10C02000F1ECD1F00001215159EC06F0070E0001AE
:10C030009E6F9F6BF1ECD1F00001225159EC06F09C
:10C0400000019E6B9F6BF1ECD1F01EC0DEF01FC0B3
:10C05000DFF0B2EC05F000C021F001C022F000EEEC
:10C0600029F00001EE522251ED1821C0E8FFD8B4AA
:10C07000EF1803E042EC02F0010C0001230E376FD1
:10C08000000E386F1AC039F01BC03AF01CC03BF0EC
:10C090001DC03CF022D80001206F202903E142ECB2
:10C0A00002F0010C00012051160D6C0EF324E96E14
:10C0B000010EF420EA6E27C0EEFF28C0EDFF2051EC
:10C0C000160D710EF324E96E010EF420EA6EEF50A6
:10C0D000FE0B0109EF6E010C370000013D695C0E9B
:10C0E000D96E010EDA6EF36A000110EE02F03751DC
:10C0F000E1263851E22200EE0CF0D950E926DA5060
:10C10000EA22EE52E652E550ED18E7CFE8FFD8B448
:10C11000EF1848E137C0E9FF38C0EAFF10EE0AF037
:10C12000D950E126DA50E222E652EE52ED50E518FF
:10C13000EFCFE8FFD8B4E71832E100EE10F0D950A5
:10C14000E926DA50EA22EE50ED1029E110EE06F071
:10C150003951E1263A51E22200EE06F0D950E926A3
:10C16000DA50EA22EE50E61808E1EE50E61805E152
:10C17000EE50E61802E1EE50E6180FE03BC0E9FF92
:10C180003CC0EAFFEE1CFF0ED8B4EE18FF0ED8B488
:10C19000EE18FF0ED8B4EE1802E1F3501200F3507F
:10C1A00000013D6F160ED926000EDA22F32A030E87
:10C1B000F3649AD700013D2928E03D51160D5C0E2D
:10C1C000F324E96E010EF420EA6EE9CFAAF0EACF7B
:10C1D000ABF0E9CF3EF0EACF3FF039C0ACF03AC067
:10C1E000ADF00A0EAE6FAF6B7BECCAF037C0E9FF63
:10C1F00038C0EAFF000110EE0AF03E51E1263F513F
:10C20000E222EECFE6FFEDCFE5FF00013D51120047
:10C210000001146B500E0001156F166B13ECF1F05A
:10C22000006E000114510A0DDB0EF324E96E010EBD
:10C23000F420EA6E00C0EFFF14510A0DDE0EF32465
:10C24000E96E010EF420EA6EEF6A142B020E1465FB
:10C25000E1D712000001146B0001145106D800014F
:10C26000142B020E1465F8D71200E16EE1500A0D8E
:10C27000DB0EF32400011D6F010EF4201E6F000180
:10C28000166B1DC0E9FF1EC0EAFFEF5058ECF2F03C
:10C29000000901E019D2000100EE03F01D51E9266A
:10C2A0001E51EA22000EEF6A12001DC0E9FF1EC0F7
:10C2B000EAFFEF50E8ECF4F0000901E119D2010EB9
:10C2C0000001166F196B1A6B0001000E1A5D640EE7
:10C2D000D8B4195D1AE21951006E1A51016E194B4A
:10C2E0001A2B350E00249A6F000E01209B6F1DC083
:10C2F000E9FF1EC0EAFFEF5090ECF4F0006E00C0C2
:10C3000002F0036A03500210DFE1000100EE35F095
:10C310001951E9261A51EA22EF6A1DC0E9FF1EC031
:10C32000EAFFEF5023ECF4F0000100EE03F01D51A2
:10C33000E9261E51EA22020EEF6E0B0E176F350E24
:10C340009A6F000E9B6F1F0E9C6F000E9D6F170E55
:10C350009E6F000E9F6F090E1D25A06F000E1E21FF
:10C36000A16FEFDA0001156F155101E0C1D1010E87
:10C37000176511D01F0E9A6F000E9B6F17519C6F9F
:10C3800028ECECF0000100EE09F01D51E9261E51E9
:10C39000EA22020EEF6E1FC09AF020C09BF0D2EC92
:10C3A000CFF0000100EE01F01D51E9261E51EA22F6
:10C3B00000C0EEFF01C0EDFF1DC0E1FF1EC0E2FFA7
:10C3C00000EE01F0E150E926E250EA22EE52ED1CC7
:10C3D000FF0ED8B4EF1811E100EE08F0E150E926A5
:10C3E000E250EA22000EEF6E00EE03F0E150E92683
:10C3F000E250EA22020EEF6E7BD100EE01F0E15036
:10C40000E926E250EA22EE50ED1008E100EE08F0D5
:10C41000E150E926E250EA22010EE5D700EE03F0F2
:10C42000E150E926E250EA220B0EE5D71DC0E9FFF4
:10C430001EC0EAFFEF5077ECF3F0000901E158D19C
:10C44000000100EE08F01D51E9261E51EA22EF50CE
:10C45000020D240EF324E96E010EF420EA6EEECFF5
:10C460001BF0EDCF1CF000011BC0F6FF1CC0F7FF56
:10C470001B4B1C2B0F0EF76403D00800F55005D0A2
:10C48000F6CFE9FFF7CFEAFFEF50E16EE1500BE0A6
:10C49000E1500001A06F1DC0E9FF1EC0EAFFEF5090
:10C4A0009FECF3F0E0D71DC0E9FF1EC0EAFFEF509C
:10C4B000DBECF2F0DED01DC0E9FF1EC0EAFFEF505A
:10C4C00077ECF3F0000901E113D1010E0001166FC2
:10C4D0001DC0E1FF1EC0E2FF00EE09F0E150E926B9
:10C4E000E250EA22EF50020A24E100EE07F0E150A8
:10C4F000E926E250EA22010EEF6E186B18C000F038
:10C50000016A00501E0FF66E0150F76E120EF722F0
:10C510000800F5500001A06F1DC0E9FF1EC0EAFF32
:10C52000EF509FECF3F00001182B830E1865E6D74F
:10C5300023D000EE07F0E150E926E250EA22EF6A4C
:10C540000001186B18C000F0016A0050FE0FF66E73
:10C550000150F76E110EF7220800F5500001A06F90
:10C560001DC0E9FF1EC0EAFFEF509FECF3F0000191
:10C57000182B1E0E1865E6D7000100EE09F01D51BC
:10C58000E9261E51EA22EF50140D360EF3241B6FDC
:10C59000110EF4201C6F00011BC0F6FF1CC0F7FF3A
:10C5A0001B4B1C2B0F0EF76403D00800F55005D071
:10C5B000F6CFE9FFF7CFEAFFEF50E16EE1500BE075
:10C5C000E1500001A06F1DC0E9FF1EC0EAFFEF505F
:10C5D0009FECF3F0E0D70001186B18C000F0016A7F
:10C5E0000050A30FF66E0150F76E120EF7220800EE
:10C5F000F5500001A06F1DC0E9FF1EC0EAFFEF501B
:10C600009FECF3F00001182B030E1865E6D71DC050
:10C61000E1FF1EC0E2FF00EE04F0E150E926E25027
:10C62000EA22030EEF6E00EE03F0E150E926E2503D
:10C63000EA22010EE0D61DC0E9FF1EC0EAFFEF505E
:10C64000E8ECF4F0000907E01DC0E9FF1EC0EAFFB6
:10C65000EF5023ECF4F01DC09AF01EC09BF04ED8B2
:10C66000006E00C002F0036A0350021041E04CEC7F
:10C67000D0F0000100EE03F01D51E9261E51EA2220
:10C68000090EB9D61DC0E9FF1EC0EAFFEF5058ECF5
:10C69000F2F000092DE01DC0E9FF1EC0EAFFEF50D7
:10C6A00077ECF3F0000924E01DC0E9FF1EC0EAFFAB
:10C6B000EF5067ECF2F0000100EE03F01D51E926A7
:10C6C0001E51EA220A0E97D6000100EE03F01D511A
:10C6D000E9261E51EA22EF5001E1E7D5010AABE05D
:10C6E000030A01E1A3D60B0ACDE0020A01E1E3D679
:10C6F00000011651D8B41200C2D59A00000100EE14
:10C7000001F09A51E9269B51EA22EECFA0F0EDCF3D
:10C71000A1F058ECD0F0000100EE07F09A51E926A4
:10C720009B51EA22EF5001E0CCD0F3D000019C6B8A
:10C7300000EE04F09A51E9269B51EA22EF50080AD4
:10C7400001E19ED06DECD0F000019D6F0301531DFF
:10C75000FF0ED8B4521901E093D08EECD0F09AC0FD
:10C76000E9FF9BC0EAFFEF50DBECF2F0010C0001A7
:10C770009D51250A08E100EE04F0E150E926E2505F
:10C78000EA22050E11D0010E00019C6F8ED000012F
:10C790009D51250A0BE1010E9C6F00EE04F0E15063
:10C7A000E926E250EA22030EEF6E7FD000019D5190
:10C7B0009F6F00EE04F0E150E926E250EA22060EF7
:10C7C000F3D700019D519E6F9EC0A0F09FC0A1F0C5
:10C7D00050ECD5F0006E000100EE08F09A51E92609
:10C7E0009B51EA2200C0EFFF9AC0E1FF9BC0E2FF2D
:10C7F00000EE04F0E150E926E250EA22080EEF6E66
:10C8000000EE05F0E150E926E250EA22000EEE6E5D
:10C81000ED6E4BD0000100EE05F09A51E9269B51D8
:10C82000EA22EECFA0F0EDCFA1F09D0EA26F000E98
:10C83000A36F00EE08F09A51E9269B51EA22EF50CF
:10C8400064ECECF0000100EE05F09A51E9269B51F2
:10C85000EA2200C0EEFF01C0EDFF010E9C6F9AC0FE
:10C86000E1FF9BC0E2FF00EE05F0E150E926E25057
:10C87000EA22EE52ED1CFF0ED8B4EF1816E18DD768
:10C880009AC0E1FF9BC0E2FF00EE04F0E150E92610
:10C89000E250EA22EF50030A01E169D7060A01E1FA
:10C8A00076D7030A8EE00E0AB5E000019C5109E03C
:10C8B0009D51A06F9AC0E9FF9BC0EAFFEF509FEC2B
:10C8C000F3F09AC0E9FF9BC0EAFFEF5077ECF3F07A
:10C8D000000928E02BD76DECD0F000019D6F03011B
:10C8E000531DFF0ED8B452190AE18EECD0F09AC055
:10C8F000E9FF9BC0EAFFEF50DBECF2F0010C000116
:10C900009D51A06F9AC0E9FF9BC0EAFFEF509FECDA
:10C91000F3F09AC0E9FF9BC0EAFFEF5077ECF3F029
:10C920000009D9E18EECD0F0000100EE01F09A513F
:10C93000E9269B51EA2200C0EEFF01C0EDFF000C8A
:10C940009A000001A36BA86BA96BA46B9AC0AEF010
:10C950009BC0AFF0A80EB06F120EB16F030EB26F96
:10C96000B36BE0ECCAF0015000100BE19AC0E1FF9C
:10C970009BC0E2FF040EE126000EE2220001A26B42
:10C9800002D0020CE652E750200AFCE089D09EC09B
:10C99000E9FF9FC0EAFFEF500001A45D01E38FD0E3
:10C9A00077D00001D890A435006E016A01369C5101
:10C9B0000024E96E9D510120EA6EE1CFEEFFE2CF47
:10C9C000EDFFE750A56FA5512F0A21E0A5515C0AA4
:10C9D00066E11DD00001D890A435006E016A0136D1
:10C9E0009C510024E96E9D510120EA6EE1CFEEFFDB
:10C9F000E2CFEDFFA42B020EA36FE7500001A56F5D
:10CA0000A5513F0A03E0A551260A04E1E76A010E99
:10CA1000000119D00001A5512B0A03E1200EE76E99
:10CA20003ED00001A5512E0A08E1A40506E1E65218
:10CA3000E1CFA8F0E2CFA9F032D00001A5513D0A24
:10CA400004E1E76A010EA36F2AD00001A5512F0A65
:10CA500003E0A5515C0A23E1E1CF00F0E2CF01F051
:10CA6000002A000E01220001D890A435026E036A4C
:10CA700003369C5102269D510322FE0E0224E96ECC
:10CA8000FF0E0320EA6E00C0EEFF01C0EDFF07D0ED
:10CA90000001A35186E0010A9DE0030AAEE0E652E0
:10CAA000E7500001A56FA551200A09E0A55107E054
:10CAB000A5510D0A04E0A5510A0A01E068D7E76A0A
:10CAC000A0C0E9FFA1C0EAFF090EEF6E0001A95165
:10CAD000A81131E0A8C0AEF0A9C0AFF052ECD6F07A
:10CAE00000C0A8F001C0A9F000010E0EA66F110E43
:10CAF000A76FA56BA8C0AEF0A9C0AFF0A6C0B0F0FC
:10CB0000A7C0B1F0030E0001B26FB36BE0ECCAF046
:10CB10000150001007E1A0C0E9FFA1C0EAFFA5C0D5
:10CB2000EFFF09D0040E0001A627000EA723A52BB6
:10CB3000090EA565DFD70001A45128E19CC0E9FFDB
:10CB40009DC0EAFFEECFAAF0EDCFABF0AC0EAC6F1C
:10CB5000120EAD6F090EAE6FAF6B7BECCAF09CC0CE
:10CB6000E9FF9DC0EAFFEECF00F0EDCF01F0090E26
:10CB70000024E96E000E0120EA6EEF6AA0C0E9FF12
:10CB8000A1C0EAFF010EEF6E0001A42B9EC0E9FFD9
:10CB90009FC0EAFFA4C0EFFF0001A251120045CEE2
:10CBA000E8FF080AD8B4120046CE00F0002804E0DE
:10CBB00046CEE8FFDAECDDF0FF0EE8CF46FE0E01D0
:10CBC000456B0E014C6B0E014791120093D103EEA1
:10CBD00014F0EE6AEE6AEE6AEE6A00011F692069DF
:10CBE00021692269236924692569266927692869D9
:10CBF000440E356F366B1F0E376F000E386F430EC5
:10CC0000396F3A6B7FECDDF0E8CF46FE16ECCAF0E8
:10CC100000C000F301C001F302C002F303C003F33C
:10CC2000020EE8CF45FE16ECCAF000C3E8FF005C38
:10CC3000046E01C3E8FF0158056E02C3E8FF025805
:10CC4000066E03C3E8FF0358076E000E075C08E199
:10CC5000000E065C05E1000E055C02E1140E045CAA
:10CC6000D8A01200030EE8CF45FE12000301076BA7
:10CC7000066B056B3C0E046F0E0147A104D0050E38
:10CC8000E8CF45FE120046CEC4FE010ED3EC01F003
:10CC90000009D8B41200010E90DB0E014D6B16ECAA
:10CCA000CAF000C000F301C001F302C002F303C0E8
:10CCB00003F3040EE8CF45FE120016ECCAF000C3E1
:10CCC000E8FF005C046E01C3E8FF0158056E02C373
:10CCD000E8FF0258066E03C3E8FF0358076E000E14
:10CCE000075C08E1000E065C05E1000E055C02E150
:10CCF000C80E045C03E3030EE8CF45FE46CEE8FF12
:10CD00000AECDFF00009D8B412000ED9020AD8A448
:10CD10001200050EE8CF45FE46CEC4FE010ED3EC50
:10CD200001F00009D8B41200030E47DB16ECCAF07C
:10CD300000C000F301C001F302C002F303C003F31B
:10CD4000060EE8CF45FE120046CEE8FF0AECDFF003
:10CD5000000952E0E9D800011A6F1A51060A01E1F0
:10CD60001ED700011A51050AD8A4120046CEE8FFCA
:10CD7000DAECDDF0FF0EE8CF46FE16ECCAF000C09C
:10CD800000F301C001F302C002F303C003F3070E76
:10CD9000E8CF45FE0E014DA108D014C328F115C3FC
:10CDA00029F116C32AF117C32BF10E014DA508D0A6
:10CDB00018C332F119C333F11AC334F11BC335F16F
:10CDC0000E014DA308D010C336F111C337F112C3C1
:10CDD00038F113C339F10E014DA708D00CC33AF155
:10CDE0000DC33BF10EC33CF10FC33DF10E01478172
:10CDF0000E01010E4C2B120016ECCAF000C3E8FF26
:10CE0000005C046E01C3E8FF0158056E02C3E8FF31
:10CE10000258066E03C3E8FF0358076E000E075C56
:10CE200008E1000E065C05E1000E055C02E1C80E9B
:10CE3000045CD8A01200030EE8CF45FE120016ECE9
:10CE4000CAF000C3E8FF005C00011B6F01C3E8FFEC
:10CE500001581C6F02C3E8FF02581D6F03C3E8FFAF
:10CE600003581E6F000E1E5D08E1000E1D5D05E1FA
:10CE7000000E1C5D02E1640E1B5DD8A012000301D0
:10CE80000407000E055B065B075B00019C0E1B2779
:10CE9000FF0E1C231D231E2303010451051106113F
:10CEA000071103E1010EE8CF45FE0001000E1E5DF3
:10CEB00008E1000E1D5D05E1000E1C5D02E1640E3F
:10CEC0001B5DDDE216ECCAF0000EE96E000EEA6EA4
:10CED00000011B51EE5CE8CF00F31C51EE58E8CF87
:10CEE00001F31D51EE58E8CF02F31E51EE58E8CF82
:10CEF00003F3120045CEE8FF000A01E168D6010AFB
:10CF000001E16BD6030A01E18ED6010A01E1AED63A
:10CF1000070A01E1D2D6010A01E1FED6030A01E1C6
:10CF200013D7010A8CE0120000012A6B2D0E3A6F14
:10CF3000000E3B6F1CECDFF000012D51020A01E0F6
:10CF400015D22C6B00012D0E3A6F000E3B6F1CECBE
:10CF5000DFF000012C2B0E0E2C65F4D70E0147A339
:10CF60000FD000012C6B00012D0E3A6F000E3B6FAD
:10CF70001CECDFF000012C2B030E2C65F4D71ED027
:10CF80000001140E3A6F030E3B6F1CECDFF0000142
:10CF9000150E3A6F030E3B6F1CECDFF00001160E0E
:10CFA0003A6F030E3B6F1CECDFF00001170E3A6F77
:10CFB000030E3B6F1CECDFF00E014D8100012C6B6A
:10CFC00000012D0E3A6F000E3B6F1CECDFF00001EC
:10CFD0002C2B070E2C65F4D72C6B00012D0E3A6F0D
:10CFE000000E3B6F1CECDFF000012C5101EE2CF029
:10CFF000E926000EEA22EF502D1901E0DBD12C2B9F
:10D00000050E2C65EAD72C6B00012D0E3A6F000E31
:10D010003B6F1CECDFF000012C2BCD0E2C65F4D700
:10D02000296B00012D0E3A6F000E3B6F1CECDFF0F8
:10D03000006E00C002F0036A0350021001E07CD1D0
:10D04000010ED96E93D100012D0E3A6F000E3B6F89
:10D050001CECDFF000012D0501E0ACD12A0E3A6F87
:10D06000000E3B6F1CECDFF00E0147A37BD10001EB
:10D070002A51020A01E076D19DD100012D0E3A6FAE
:10D08000000E3B6F1CECDFF000012D51040A01E0A3
:10D0900091D10E0147A30FD000012C6B00012D0E82
:10D0A0003A6F000E3B6F1CECDFF000012C2B030EDF
:10D0B0002C65F4D757D10001180E3A6F030E3B6F61
:10D0C0001CECDFF00001190E3A6F030E3B6F1CECF5
:10D0D000DFF000011A0E3A6F030E3B6F1CECDFF01D
:10D0E00000011B0E3A6F030E3B6F1CECDFF00E01CC
:10D0F0004D8538D100012B0E3A6F000E3B6F1CECB2
:10D10000DFF0030E00012B6555D10E0147A30FD0B0
:10D1100000012C6B00012D0E3A6F000E3B6F1CECD2
:10D12000DFF000012C2B030E2C65F4D71ED000017C
:10D13000100E3A6F030E3B6F1CECDFF00001110E76
:10D140003A6F030E3B6F1CECDFF00001120E3A6FDA
:10D15000030E3B6F1CECDFF00001130E3A6F030E61
:10D160003B6F1CECDFF00E014D83FC0E00012B2702
:10D1700000012B072B2901E1F6D02D0E3A6F000E8E
:10D180003B6F1CECDFF0F4D700012B0E3A6F000E62
:10D190003B6F1CECDFF0030E00012B650BD10E0181
:10D1A00047A30FD000012C6B00012D0E3A6F000E2B
:10D1B0003B6F1CECDFF000012C2B030E2C65F4D729
:10D1C0001ED000010C0E3A6F030E3B6F1CECDFF01B
:10D1D00000010D0E3A6F030E3B6F1CECDFF00001F7
:10D1E0000E0E3A6F030E3B6F1CECDFF000010F0ECA
:10D1F0003A6F030E3B6F1CECDFF00E014D87FC0E07
:10D2000000012B2700012B072B2901E1ACD02D0EAB
:10D210003A6F000E3B6F1CECDFF0F4D700012D0ECF
:10D220003A6F000E3B6F1CECDFF000012D51040A39
:10D2300001E0C0D0310E3A6F000E3B6F1CECDFF006
:10D240000001300E3A6F000E3B6F1CECDFF0000166
:10D250002F0E3A6F000E3B6F1CECDFF000012E0E1C
:10D260003A6F000E3B6F1CECDFF07CD0010E00012A
:10D27000296F78D000012D0E3A6F000E3B6F1CEC29
:10D28000DFF000012D51040A01E094D00E0147A304
:10D290000FD000012C6B00012D0E3A6F000E3B6F7A
:10D2A0001CECDFF000012C2B030E2C65F4D75AD0B8
:10D2B0000001070E3A6F030E3B6F1CECDFF000011C
:10D2C000060E3A6F030E3B6F1CECDFF00001050EFB
:10D2D0003A6F030E3B6F1CECDFF00001040E3A6F57
:10D2E000030E3B6F1CECDFF003EE07F0000EED5C6D
:10D2F00008E1000EED5C05E1070EED5C02E1090EB0
:10D30000EF5C30E30301F80E04270523FF0E06232C
:10D31000072328D000012B0E3A6F000E3B6F1CEC48
:10D32000DFF000012B072B291EE02D0E3A6F000EB7
:10D330003B6F1CECDFF0F5D700012D51010A01E134
:10D340009CD6020A01E1D6D6050A01E11DD7350AAD
:10D3500091E0060A01E177D6030A01E15FD7C90A25
:10D3600085E0D8D70001295101E15BD600012A519F
:10D37000020A0BE12EC008F32FC009F330C00AF3F4
:10D3800031C00BF30E01478310D003EE08F000010B
:10D39000EE502E1908E1EE502F1905E1EE5030192C
:10D3A00002E1EE503119D8A42A6B69ECDFF00001DC
:10D3B0002A51120069ECDFF0000C0001296F010E08
:10D3C000FCECDDF0010EFCECDDF0060EFCECDDF01B
:10D3D000000EFCECDDF0120EFCECDDF0230EFCEC9C
:10D3E000DDF0340EFCECDDF0560EFCECDDF0000E52
:10D3F000FCECDDF0000EFCECDDF0800EFCECDDF072
:10D40000000EFCECDDF0000EFCECDDF0000EFCECA0
:10D41000DDF0000EFCECDDF0000EFCECDDF00001B8
:10D420002A6B000EFCECDDF000012A2B0B0E2A65A6
:10D43000F8D72CC1E8FFFCECDDF02DC1E8FFFCECD7
:10D44000DDF02EC1E8FFFCECDDF02FC1E8FFFCECC5
:10D45000DDF030C1E8FFFCECDDF031C1E8FFFCECB1
:10D46000DDF000012A6B000EFCECDDF000012A2B40
:10D47000C90E2A65F8D7630EFCECDDF0820EFCECD9
:10D48000DDF0530EFCECDDF0630EFCECDDF0350E50
:10D49000FCECDDF0010EFCECDDF000012951FCECB0
:10D4A000DDF00001290502E10E0147930001290585
:10D4B0001CE00301145115111611171116E0360E58
:10D4C000FCECDDF0040EFCECDDF00BC3E8FFFCEC43
:10D4D000DDF00AC3E8FFFCECDDF009C3E8FFFCEC7B
:10D4E000DDF008C3E8FFFCECDDF0370EFCECDDF00E
:10D4F000040EFCECDDF0010EFCECDDF0030EFCECA8
:10D50000DDF0060EFCECDDF00C0EFCECDDF00001B5
:10D510002951030A16E1320EFCECDDF0040EFCEC9E
:10D52000DDF014C3E8FFFCECDDF015C3E8FFFCEC14
:10D53000DDF016C3E8FFFCECDDF017C3E8FFFCEC00
:10D54000DDF0FF0EFCECDDF082EFDEF01FECCAF048
:10D55000D7CEF3FFD8CEF4FFD9CEF5FFDACEF6FF63
:10D56000DBCEF7FFDCCEF8FFDDCE00F0DECE01F043
:10D57000DFCE02F0E0CE03F0E1CE04F0E2CE05F023
:10D58000E3CE06F0E4CE07F0E5CE08F0E6CE09F0F3
:10D59000E7CE0AF0E8CE0BF0E9CE0CF0EACE0DF0C3
:10D5A000EBCE0EF0ECCEDAFFEDCED9FFEECEE2FF01
:10D5B000EFCEE1FFF0CEEAFFF1CEE9FFF2CEFBFFC6
:10D5C000F3CEFAFF11000600E9CFF1FEEACFF0FE3C
:10D5D000E1CFEFFEE2CFEEFED9CFEDFEDACFECFEEB
:10D5E0000EC0EBFE0DC0EAFE0CC0E9FE0BC0E8FE6B
:10D5F0000AC0E7FE09C0E6FE08C0E5FE07C0E4FE7B
:10D6000006C0E3FE05C0E2FE04C0E1FE03C0E0FE8A
:10D6100002C0DFFE01C0DEFE00C0DDFEF8CFDCFE92
:10D62000F7CFDBFEF6CFDAFEF5CFD9FEF4CFD8FE8A
:10D63000F3CFD7FE8BD764DA0BECCAF0C9ECCFF08E
:10D640000001490EAA6F010EAB6F3B0EAC6F150EB9
:10D65000AD6F100EAE6FAF6B7BECCAF00001490EE0
:10D66000306F010E316F6CECF0F070DA81A097EC46
:10D67000EFF0A4ECCEF008ECE1F09FECDAF0010161
:10D680003EB106D0010EE8CF83FE080EE8CF45FE7E
:10D6900016ECCAF010C0E8FF005C046E11C0E8FF91
:10D6A0000158056E12C0E8FF0258066E13C0E8FF6D
:10D6B0000358076E000E075C08E1000E065C05E1EA
:10D6C000000E055C02E1320E045C0BE316ECCAF0BE
:10D6D00000C010F001C011F002C012F003C013F03E
:10D6E0008370B0ECCEF02AECE1F0B3ECDAF0FBECB6
:10D6F000D2F069ECD6F094D84CCEE8FF0E01831935
:10D70000C7E04CCE83FE0001040E306F130E316F64
:10D71000A8EC00F00001280E306F010E316F0BD81D
:10D720000001150E306F130E316FA8EC00F043ECC2
:10D73000D2F0AED7300030C0E9FF31C0EAFFEF5081
:10D740000001376F386B320E396F000E3A6FF7EC0D
