:020000040000FA
:06000000E5EFC6F012005E
:020006001200E6
:06000800EAEF94F0120083
:02000E000004EC
:04001000A300000049
:020014001200D8
:010016001FCA
:01001700FFE9
:060018008DEF94F01200D0
:02001E001900C7
:10002000E08E01008009000001000000DF8E010069
:100030007F09000001000000DD8E0100770900004B
:1000400002000000DC8E01007E09000001000000BB
:10005000D98E0100FD07000003000000D58E0100CD
:100060006D09000004000000D38E01007509000036
:1000700002000000CB8E0100F80300000800000021
:10008000CA8E01007D090000010000001700000079
:100090007C09000001000000C48E01004509000039
:1000A00006000000C28E010073090000020000007B
:1000B000C08E01007109000002000000BC8E01002A
:1000C0006909000004000000BA8E0100FE0800006B
:1000D00002000000160000007B0900000100000083
:1000E000DF8A01007A09000001000000968E0100FD
:1000F0004D08000024000000488E0100AA03000003
:100100004E000000428E01003F0900000600000082
:1001100089CB000079090000010000003B8E01003E
:100120003809000007000000378E01006509000053
:1001300004000000338E010061090000040000008B
:0C0140002F8E01005D090000040000008B
:04014C000201455116
:100150000901735D01E140D0FE0E735D1BE01C0ED2
:10016000E66EE66A290EE66E020EE66E73511C0D0F
:10017000F3CF00F0F4CF01F0000E0026040E0122B0
:1001800000C0E6FF01C0E6FFBCECB3F0026E060E55
:10019000E15E025045C273F9FE0E0201455D01E1C8
:1001A0001BD01C0EE66EE66A45511C0DF3CF00F025
:1001B000F4CF01F0000E0026040E012200C0E6FF7D
:1001C00001C0E6FF290EE66E020EE66EBCECB3F04F
:1001D000026E060EE15E0250120009017351745D59
:1001E00001E14FD0FE0E745D32E0270E0201C56FB3
:1001F000C66B0201010EC46F0201020EC26F020E35
:10020000C36F090174511C0DF3CFE9FFF4CFEAFF6E
:10021000000EE926040EEA221B0EE926000EEA2251
:10022000EFCFC1F274511C0DF3CFE9FFF4CFEAFF19
:10023000000EE926040EEA22EECFBFF2EFCFC0F2A5
:100240000201270EBF5F000EC05B8BEC22F073C96A
:1002500074F9270E0201C56FC66B44C2C4F229C2ED
:10026000C2F22AC2C3F20201C25F000EC35B0201E6
:10027000010EC16F0201020EBF6F020EC06F8BEC48
:1002800022F012000C015A0E1D6F170E1E6F020194
:10029000005101110FE102EC75F01EC000F21FC009
:1002A00001F2FF0E02010017070E0117000E0027D2
:1002B000040E01233C0EE66EE66AE66A000EE66E68
:1002C000070EE66E0AECB4F0006E050EE15E00501B
:1002D0000C01156B146B1451006E016A050E005C65
:1002E000000E015801E348D114CC45F22FDFAC0ECB
:1002F000006E8D0E016E010E026E14CC03F0046AC6
:10030000056A060E246E256A266A03C01FF004C023
:1003100020F005C021F0CBECC1F01CC003F01DC0E3
:1003200004F01EC005F000500324F36E01500420B9
:10033000F46E02500520F86EF4CFF7FFF3CFF6FF0E
:10034000F62A000EF722F8220800F5CF1CFCAC0EAE
:10035000006E8D0E016E010E026E14CC03F0046A65
:10036000056A060E246E256A266A03C01FF004C0C3
:1003700020F005C021F0CBECC1F01CC003F01DC083
:1003800004F01EC005F000500324F36E0150042059
:10039000F46E02500520F86EF4CFF7FFF3CFF6FFAE
:1003A000020EF626000EF722F8220900F5CF16FC01
:1003B0000A00F5CF17FCAC0E006E8D0E016E010E1B
:1003C000026E14CC03F0046A056A060E246E256AD8
:1003D000266A03C01FF004C020F005C021F0CBEC5A
:1003E000C1F01CC003F01DC004F01EC005F0005099
:1003F0000324F36E01500420F46E02500520F86EC1
:10040000F4CFF7FFF3CFF6FF040EF626000EF72227
:10041000F8220900F5CF18FC0A00F5CF19FC0C01F1
:100420001C5101E0A8D01DCC1AFC1ECC1BFC270ED1
:10043000036A1625026E17510322010E0226000ED2
:10044000032202501825006E03501921016E010E7F
:100450000026000E012200501D2701501E231DCC36
:1004600000F01ECC01F0026A036A00C0E6FF01C082
:10047000E6FF02C0E6FF03C0E6FF1BEC57F0E552C3
:10048000E7CF03F0E552E7CF02F0E552E7CF01F006
:10049000E552E7CF00F0F3CF04F0F4CF05F0066AA1
:1004A000076A5A0E0426170E0522000E062207229E
:1004B0000050045C0150055802500658035007587C
:1004C00001E2CDD71CCC44F2270E0C011A25020103
:1004D000296F000E0C011B2102012A6F29510C010A
:1004E000162502012B6F2A510C01172102012C6FD6
:1004F000010E2B27000E2C232B510C011825020175
:100500002D6F2C510C01192102012E6F0D0E3F6F22
:10051000409763DEAC0E006E8D0E016E010E026E12
:1005200014CC03F0046A056A060E246E256A266A56
:1005300003C01FF004C020F005C021F0CBECC1F0D7
:100540001CC003F01DC004F01EC005F000500324C1
:10055000F36E01500420F46E02500520F86EF4CFC3
:10056000F7FFF3CFF6FF0800F5CF28F2A2EC18F062
:100570000C01142BB0D6FFD712000C01406B405178
:10058000006E016A050E005C000E015801E3CAD03E
:1005900040CC45F2DBDD0D0E02013F5D01E0BFD036
:1005A0001CDE02014D51285D01E0B9D0180E256F07
:1005B000020E266F4A510CE14BC212F24CC213F2EA
:1005C0004087040E3F6F4BC242F24CC243F2A4D0AC
:1005D000000E005D040E015906E3880ED880005518
:1005E000130E015503E2006B040E016F00C212F2FC
:1005F00001C213F2002B000E01234BC210F24CC2B9
:1006000011F2EFECC2F01EC037F21FC038F220C06A
:1006100039F221C03AF2020140894A51040A3DE010
:10062000070A18E0020A03E0030A01E075D046C297
:1006300018F247C219F248C21AF249C21BF2020E5E
:100640004A5D02E0000E01D0010E2495E8B0248539
:100650003F6B62D048514625026E49514721036ED7
:1006600002504B25006E03504C21016E00501219B0
:10067000426F01501319436F46C218F247C219F274
:1006800048C21AF249C21BF2276B260E026F036B97
:10069000046B056B020E3F6F3FD046C2E9FF47C2B5
:1006A000EAFF020EE926000EEA22EECF04F0EFCFB9
:1006B00005F046C2E9FF47C2EAFF0450EE24026E8D
:1006C0000550EE20036E02504B25006E03504C2166
:1006D000016E00501219426F01501319436F0A0E38
:1006E000E66EE66A46C2E6FF47C2E6FF180EE66E11
:1006F000020EE66EBCECB3F0006E060EE15E00503A
:100700000201050E3F6F0201010EAE6F0201020EE3
:10071000AD6F57EC12F000D00C01405105D00C0128
:10072000402B2DD7FE0E00D0120002014E51006E5C
:10073000016A050E005C000E015802E3010E0BD0A9
:100740004EC245F203DD020141A903D04199010ED9
:1007500002D0000E00D0120002014F51006E016A5B
:10076000050E005C000E015802E3000E0BD04FC2D4
:1007700045F2ECDC070E02013F5D02E0000E01D005
:10078000010E00D0120002015051006E016A050EE8
:10079000005C000E015801E363D050C245F2D6DC84
:1007A00033C235F234C236F202013F51080A4EE03C
:1007B000010A4CE0050A4AE0020A45E0050A2DE07C
:1007C0000D0A15E0010A13E0070A0EE0020A0CE028
:1007D000010A0AE0060A08E0040A01E037D09EECAC
:1007E0008BF0A2EC18F03CD0A2EC18F039D002014A
:1007F000010EAE6F0201110EAD6F57EC12F0020147
:100800001451151101E106D00E512F1902E10F51BB
:100810003019EDE1080E3F6F23D00201010EAE6FDB
:100820000201110EAD6F57EC12F0020114511511B7
:1008300001E106D00E512F1902E10F513019EDE1FF
:100840000C0E3F6F0DD00D0E3F6F0AD00201AE6B44
:100850000201140EAD6F57EC12F0A2EC18F000D0AC
:10086000120002015151006E016A050E005C000E7B
:10087000015801E308D051C245F268DC02014097FB
:1008800051C250F280DF120002015251006E016A23
:10089000050E005C000E015803E3F36AF46A22D0EF
:1008A00052C245F253DC99DC0A0EE66EE66A180E77
:1008B000E66E020EE66E530EE66E020EE66EBCECBF
:1008C000B3F0006E060EE15E005010C25DF211C280
:1008D0005EF2530E006E020E016E00C0F3FF01C007
:1008E000F4FF00D0120002015F51006E016A050E94
:1008F000005C000E015801E313D05FC245F226DC14
:100900006CDC02010E512F1902E10F51301908E081
:100910000201010EAE6F0201100EAD6F57EC12F026
:10092000120002016051006E016A050E005C000EAB
:10093000015803E3F36AF46A3FD060C245F2A6ECC3
:1009400000F03FC204FC070E0C01045D06E00B0E34
:10095000045D03E0F36AF46A2FD0020131512F5D88
:10096000325130591BE329512B5D026E2C512A550F
:10097000036E0206000E035A31512F5D046E305192
:100980003255056E0450025C006E05500358016E2E
:1009900000C0F3FF01C0F4FF0FD00ED02F51315D26
:1009A000006E32513055016E0006000E015A00C033
:1009B000F3FF01C0F4FF00D0120002016151006E8C
:1009C000016A050E005C000E015802E3000E74D0AF
:1009D00061C245F2A6EC00F061C260F2A2DFF3CF83
:1009E0002DFCF4CF2EFC0C012D512E1103E1000E35
:1009F00063D008D0010E2D1901E12E5103E161C22F
:100A00005FF271DF02014151010B14E129512B5DAD
:100A1000006E2C512A55016ED890013200320C0123
:100A20002D51005C2E51015805E361C25FF25BDF7E
:100A300002014181010E0201C56FC66B0201C46F44
:100A40000201620EC26F020EC36F44C2C1F22FC216
:100A5000BFF230C2C0F28BEC22F002012F2B000E4D
:100A600030232B512F5D2C51305904E329C22FF232
:100A70002AC230F20C01010E2D1901E12E5104E1C0
:100A800061C25FF230DF16D0020140BB13D0408B51
:100A900002ECC3F01EC000F01FC001F0026A036A3E
:100AA000060E0026000E01220222032200C03BF2A5
:100AB00001C03CF2010E00D012000C01776B786B84
:100AC00002016351006E016A050E005C000E0158C0
:100AD00003E3F36AF46AC2D063C245F2A6EC00F005
:100AE00063C260F21EDFF3CF75FCF4CF76FC0C011D
:100AF0007551761106E163C25FF2F5DEF36AF46ABE
:100B0000ADD075CC73FC76CC74FC75510201665D7A
:100B10000C0176510201675904E266C273FC67C298
:100B200074FC4151010B14E129512B5D006E2C51D5
:100B30002A55016ED890013200320C017551005CCB
:100B40007651015805E363C25FF2CDDE02014181B7
:100B500002012F510C017325006E020130510C016E
:100B60007421016E02012B51005C2C5101582DE3C0
:100B70002F512B5D0C01776F020130512C590C0164
:100B8000786F77CCC5F278CCC6F20201010EC46F43
:100B900064C2C2F265C2C3F244C2C1F22FC2BFF244
:100BA00030C2C0F28BEC22F00C01775102016427B5
:100BB0000C017851020165230C017751735F785164
:100BC000745B29C22FF22AC230F273CCC5F274CC06
:100BD000C6F20201010EC46F64C2C2F265C2C3F262
:100BE00044C2C1F22FC2BFF230C2C0F28BEC22F07D
:100BF0000C01735102012F270C01745102013023A3
:100C00000C0175510201665D0C01765102016759B4
:100C100004E363C25FF267DE15D040BB13D0408BA4
:100C200002ECC3F01EC000F01FC001F0026A036AAC
:100C3000060E0026000E01220222032200C03BF213
:100C400001C03CF20C0173517725006E745178217C
:100C5000016E00C0F3FF01C0F4FF00D012000C01D0
:100C60006D6B6E6B02016851006E016A050E005CCF
:100C7000000E015803E3F36AF46AC5D068C245F276
:100C8000A6EC00F068C260F24CDEF3CF6BFCF4CF50
:100C90006CFC0C016B516C1106E168C25FF223DE43
:100CA000F36AF46AB0D002014151010B14E12951F9
:100CB0002B5D006E2C512A55016ED8900132003206
:100CC0000C016B51005C6C51015805E368C25FF286
:100CD0000ADE020141816BCC69FC6CCC6AFC0C0120
:100CE0006B5102016C5D0C016C5102016D5904E203
:100CF0006CC269FC6DC26AFC2F510C016925006E43
:100D0000020130510C016A21016E02012B51005C7D
:100D10002C51015830E32F512B5D0C016D6F0201F6
:100D200030512C590C016E6F6DCCCDF26ECCCEF2E1
:100D300069C2CAF26AC2CBF26BC2CCF244C2C9F237
:100D40002FC2C7F230C2C8F2EFEC22F06DCC00F037
:100D50006ECC01F0026A00500201692701506A233B
:100D600002506B230C016D51695F6E516A5B29C2A1
:100D70002FF22AC230F269CCCDF26ACCCEF269C22F
:100D8000CAF26AC2CBF26BC2CCF244C2C9F22FC221
:100D9000C7F230C2C8F2EFEC22F00C016951020137
:100DA0002F270C016A51020130230C016B51020103
:100DB0006C5D0C016C5102016D5904E368C25FF275
:100DC00092DD15D040BB13D0408B02ECC3F01EC0A7
:100DD00000F01FC001F0026A036A060E0026000E32
:100DE00001220222032200C03BF201C03CF20C01AE
:100DF00069516D25006E6A516E21016E00C0F3FFCE
:100E000001C0F4FF00D012006FC2E6FF70C2E6FF1F
:100E100073ECB4F0E552E552F3CF66F2F4CF67F22B
:100E20006FC264F270C265F26EC263F246DE020106
:100E30006F51F324006E7051F420016E00C0F3FF77
:100E400001C0F4FF00D0120072C2E6FF73C2E6FFD9
:100E500074C2E6FF81ECB4F0E552E552E5521FC0E2
:100E60006CF220C06DF272C269F273C26AF274C28F
:100E70006BF271C268F2F3DEF3CF03F0F4CF04F04B
:100E8000056A020172510324006E73510420016E41
:100E900074510520026E00C01FF001C020F002C096
:100EA00021F000D0120002017551006E016A050E9A
:100EB000005C000E015803E3F36AF46A25D075C2A2
:100EC00045F2A6EC00F0020129512B5D0C01026FE6
:100ED00002012A512C590C01036F010E025F000E12
:100EE000035B75C260F21DDDF3CF00FCF4CF01FCA3
:100EF0000C010051025D006E03510155016E00C0EE
:100F0000F3FF01C0F4FF00D0120076C277F218D8C8
:100F1000F3CF00F0F4CF01F00050011010E076C2E2
:100F200045F2A6EC00F033C235F234C236F20201CB
:100F3000010EAE6F0201100EAD6F57EC12F01200F1
:100F400002017751006E016A050E005C000E015827
:100F500003E3F36AF46A31D077C245F2A6EC00F0FD
:100F600002013551335D365134590CE33551335D4F
:100F7000006E34513655016E00C0F3FF01C0F4FF1E
:100F80001CD01BD035512D5D026E2E513655036E8F
:100F9000010E0226000E03222B51335D046E3451E4
:100FA0002C55056E02500424006E03500520016E7E
:100FB00000C0F3FF01C0F4FF00D0120078C277F246
:100FC000BFDFF3CF00FCF4CF01FC0C010051011195
:100FD00002E1000E48D078C245F2A6EC00F0020112
:100FE00079517A1112E0010E0201C56FC66B44C23D
:100FF000C4F235C2C2F236C2C3F20201C16F79C275
:10100000BFF27AC2C0F28BEC22F00201352B000E47
:10101000362335512D5D36512E5904E22BC235F25F
:101020002CC236F20C01010E001901E1015103E15D
:101030000201418516D0020140BB13D0408B02EC67
:10104000C3F01EC000F01FC001F0026A036A1E0E4A
:101050000026000E01220222032200C03BF201C042
:101060003CF2010E00D012000C014B6B4C6B7BC2AA
:1010700077F266DFF3CF49FCF4CF4AFC0C0149510B
:101080004A1103E1F36AF46AA1D07BC245F2A6ECEF
:1010900000F002017E510C01495D02017F510C01FB
:1010A0004A5904E249CC7EF24ACC7FF20201355122
:1010B0007E25006E36517F21016E00502D5D01505E
:1010C0002E5938E235512D5D0C014B6F020136511E
:1010D0002E590C014C6F010E4B27000E4C230201C0
:1010E0007C517D111BE04BCCC5F24CCCC6F244C206
:1010F000C4F235C2C2F236C2C3F20201010EC16FA0
:101100007CC2BFF27DC2C0F28BEC22F00C014B51CD
:1011100002017C270C014C5102017D230C014B5133
:1011200002017E5F0C014C5102017F5B2BC235F244
:101130002CC236F27C517D1113E07EC2C5F27FC213
:10114000C6F244C2C4F235C2C2F236C2C3F20201D0
:10115000010EC16F7CC2BFF27DC2C0F28BEC22F0E7
:1011600002017E5135277F5136230C014B5102017C
:101170007E270C014C5102017F237E510C01495DF9
:10118000006E4A5102017F55016E00507E5D015094
:101190007F5902E3418515D040BB13D0408B02EC50
:1011A000C3F01EC000F01FC001F0026A036A1E0EE9
:1011B0000026000E01220222032200C03BF201C0E1
:1011C0003CF27EC2F3FF7FC2F4FF00D012000201A6
:1011D0008051006E016A050E005C000E015803E3A9
:1011E000F36AF46A21D080C245F2A6EC00F0020155
:1011F0002B512D5D0C01026F02012C512E590C0157
:10120000036F80C277F29CDEF3CF00FCF4CF01FCC9
:101210000C010051025D006E03510155016E00C0CA
:10122000F3FF01C0F4FF00D0120002018151006EF3
:10123000016A050E005C000E015803E2845185111D
:1012400003E1F36AF46AABD081C245F2A6EC00F088
:1012500081C277F275DEF3CF02FCF4CF03FC02010A
:1012600086518425006E87518521016E0C01005046
:10127000025D015003590BE2020186510C01025D2F
:101280000201846F87510C0103590201856F02012D
:10129000355186250C01006F0201365187210C0162
:1012A000016F005102012D5D0C01015102012E5907
:1012B0000FE22B512D5D006E2E512C55016E010E4B
:1012C0000026000E012200500C01005F0150015B5E
:1012D0000C01005102012D5D0C01046F015102014E
:1012E0002E590C01056F010E0427000E0523020183
:1012F00084510C01045D020185510C01055914E370
:1013000084C2C5F285C2C6F244C2C4F200CCC2F2A5
:1013100001CCC3F20201010EC16F82C2BFF283C2CF
:10132000C0F28BEC22F036D004CCC5F205CCC6F26C
:1013300044C2C4F200CCC2F201CCC3F20201010EDD
:10134000C16F82C2BFF283C2C0F28BEC22F00C01EB
:1013500004510201845D0201C56F0C0105510201B7
:1013600085590201C66F44C2C4F22BC2C2F22CC21C
:10137000C3F20201010EC16F020182510C0104256A
:101380000201BF6F020183510C0105210201C06FF0
:101390008BEC22F084C2F3FF85C2F4FF00D0120070
:1013A00089C286F28AC287F2010E0201846F856BC0
:1013B0000201060E826F0C0E836F88C281F235DF48
:1013C0000C01065100D0120002018B51006E016A1F
:1013D000050E005C000E015803E28E518F1103E1EF
:1013E000F36AF46AB2D18BC245F2A6EC00F08BC26C
:1013F00077F2A6DD02019051F35C0C01026F02014D
:101400009151F4580C01036F02018E510C01025DE1
:1014100002018F510C01035903E2F368F46895D17E
:101420000201925193110DE00C0102510201925DF3
:101430000C0103510201935904E292C202FC93C2CF
:1014400003FC355190250C01066F020136519121A4
:101450000C01076F065102012D5D0C0107510201BD
:101460002E590FE22B512D5D006E2E512C55016E21
:10147000010E0026000E012200500C01065F0150F3
:10148000075B06CC00FC07CC01FC0C0106510201F5
:101490002D5D0C01046F075102012E590C01056FDF
:1014A000010E0427000E052390C206FC91C207FC22
:1014B0008EC208FC8FC209FC8CC20AFC8DC20BFCD8
:1014C00002018CC2E9FF8DC2EAFF8C2B8D23EFCF86
:1014D0000DFC0C010F6B0201945109E0610E0C012F
:1014E0000D5D05E30D517A0802E3E00E0D270C01B6
:1014F000200E0E6F0E51045D000E055902E204CC61
:101500000EFC0E51025D000E035902E202CC0EFCED
:101510000E510201C56FC66B44C2C4F200CCC2F2C8
:1015200001CCC3F20201010EC16F0201100EBF6FA8
:101530000C0EC06F8BEC22F00C010E51006E016A94
:1015400000500027015001230E51006E016A005027
:10155000045F0150055B0451051106E12BC200FC3C
:101560002CC201FC046905690201945101E181D09A
:101570000C010C6B0E510C5D01E37AD00C51EA6A40
:10158000100FE96E0C0EEA22EFCF00F0610E005C46
:1015900013E30C51EA6A100FE96E0C0EEA22EF50C9
:1015A0007A080AE3E00E006E0C51EA6A100FE96E49
:1015B0000C0EEA220050EF260C51EA6A100FE96E79
:1015C0000C0EEA22EF500D5D33E102018E07000E92
:1015D0008F5B8E518F1117E10C010851065D026E71
:1015E00007510955036E0C5100010224006E000ED4
:1015F0000320016E010E0026000E012200C0F3FF41
:1016000001C0F4FFA2D08CC2E9FF8DC2EAFF8C2B8F
:10161000000E8D23EFCF0DFC0C01010E0F6F610E3C
:101620000D5D05E30D517A0802E3E00E0D271ED093
:1016300008CC8EF209CC8FF20F5118E00ACC8CF254
:101640000BCC8DF202018CC2E9FF8DC2EAFF8C2B1C
:10165000000E8D23EFCF0DFC610E0C010D5D05E337
:101660000D517A0802E3E00E0D270F6B0C2B82D789
:1016700051D00C010C6B0E510C5D4CE20C51EA6A1E
:10168000100FE96E0C0EEA22EF500D5D2BE1020106
:101690008E07000E8F5B8E518F1117E10C010851E0
:1016A000065D026E07510955036E0C5100010224BC
:1016B000006E000E0320016E010E0026000E0122B6
:1016C00000C0F3FF01C0F4FF40D08CC2E9FF8DC21F
:1016D000EAFF8C2B000E8D23EFCF0DFC0C01010EC9
:1016E0000F6F16D008CC8EF209CC8FF20F5110E09C
:1016F0000ACC8CF20BCC8DF202018CC2E9FF8DC2B8
:10170000EAFF8C2B000E8D23EFCF0DFC0C010F6B2D
:101710000C2BB1D70E51006E016A0050025F0150D0
:10172000035B02018E510C01025D02018F510C011D
:10173000035903E2F368F46808D00E51006E016AA1
:101740000050062701500723D2D6120002019551FE
:10175000006E016A050E005C000E015803E299510B
:101760009A1103E1F36AF46ACDD195C245F2A6EC71
:1017700000F095C277F2A0EC07F002019B51F35CF8
:101780000D01026F02019C51F4580D01036F02011B
:1017900099510D01025D02019A510D01035903E2B5
:1017A000F368F468AFD102019D519E110DE00D0167
:1017B000025102019D5D0D01035102019E5904E297
:1017C0009DC202FD9EC203FD35519B250D01066F92
:1017D000020136519C210D01076F065102012D5D5A
:1017E0000D01075102012E590FE22B512D5D006EA4
:1017F0002E512C55016E010E0026000E01220050C4
:101800000D01065F0150075B06CD00FD07CD01FD10
:101810000D01065102012D5D0D01046F07510201FA
:101820002E590D01056F010E0427000E05239BC2E2
:1018300006FD9CC207FD99C208FD9AC209FD96C229
:101840000AFD97C20BFD98C20CFD020196C2F6FF7D
:10185000962B97C2F7FF972398C2F8FF98230800AA
:10186000F5CF0EFD0D01106B02019F5109E0610ED5
:101870000D010E5D05E30E517A0802E3E00E0E271E
:101880000D01200E0F6F0F51045D000E055902E28D
:1018900004CD0FFD0F51025D000E035902E202CD8F
:1018A0000FFD0F510201C56FC66B44C2C4F200CDDB
:1018B000C2F201CDC3F20201010EC16F0201110E8D
:1018C000BF6F0D0EC06F8BEC22F00D010F51006E3B
:1018D000016A00500027015001230F51006E016A78
:1018E0000050045F0150055B0451051106E12BC255
:1018F00000FD2CC201FD0469056902019F5101E14F
:101900008BD00D010D6B0F510D5D01E384D00D5196
:10191000EA6A110FE96E0D0EEA22EFCF00F0610EB8
:10192000005C13E30D51EA6A110FE96E0D0EEA2215
:10193000EF507A080AE3E00E006E0D51EA6A110FCB
:10194000E96E0D0EEA220050EF260D51EA6A110FE2
:10195000E96E0D0EEA22EF500E5D37E102019907A4
:10196000000E9A5B99519A1117E10D010851065D1D
:10197000026E07510955036E0D5100010224006EDD
:10198000000E0320016E010E0026000E012200C091
:10199000F3FF01C0F4FFB6D096C2F6FF962B97C2B4
:1019A000F7FF000E972398C2F8FF98230800F5CFA1
:1019B0000EFD0D01010E106F610E0E5D05E30E515F
:1019C0007A0802E3E00E0E2724D008CD99F209CD63
:1019D0009AF210511EE00ACD96F20BCD97F20CCD83
:1019E00098F2020196C2F6FF962B97C2F7FF000EFF
:1019F000972398C2F8FF98230800F5CF0EFD610EDB
:101A00000D010E5D05E30E517A0802E3E00E0E278C
:101A1000106B0D2B78D75BD00D010D6B0F510D5D49
:101A200056E20D51EA6A110FE96E0D0EEA22EF50EF
:101A30000E5D2FE102019907000E9A5B99519A11F0
:101A400017E10D010851065D026E07510955036E3D
:101A50000D5100010224006E000E0320016E010EE4
:101A60000026000E012200C0F3FF01C0F4FF4AD09F
:101A700096C2F6FF962B97C2F7FF000E972398C2E7
:101A8000F8FF98230800F5CF0EFD0D01010E106F31
:101A90001CD008CD99F209CD9AF2105116E00ACD6A
:101AA00096F20BCD97F20CCD98F2020196C2F6FF9A
:101AB000962B97C2F7FF000E972398C2F8FF982342
:101AC0000800F5CF0EFD0D01106B0D2BA7D70F51A0
:101AD000006E016A0050025F0150035B02019951E0
:101AE0000D01025D02019A510D01035903E2F368F1
:101AF000F46808D00F51006E016A005006270150AB
:101B00000723BED61200A6C294F2A4C292F2A5C2C6
:101B100093F2A2C290F2A3C291F2010E02018E6F63
:101B20008F6B0201A10E8C6F020E8D6FA0C28BF223
:101B30004BDC00D012000C01416B4151006E016A78
:101B4000050E005C000E015801E36CD341CC45F258
:101B5000A6EC00F00C01446B426B436B0201415157
:101B6000020B03E14151040B0EE053EC57F0000966
:101B70000AE00C01100E446F02014151040B01E018
:101B8000010E0C01426F020140AB13D002ECC3F016
:101B900002011E503B5D006E1F503C59016E013426
:101BA00004E200500008000E015403E30C01100E83
:101BB000446F020140AD13D002ECC3F002011E508D
:101BC0003D5D006E1F503E59016E013404E200502D
:101BD0000008000E015403E30C01100E446F0B0EBD
:101BE00002013F5D16E102ECC3F002011E503D5DB3
:101BF000006E1F503E59016E013404E2005000088F
:101C0000000E015406E30C01110E446F02010C0E8C
:101C10003F6F040E3F5D01E00AD10C01456B466B3E
:101C2000030E455D000E465901E301D145CCE9FFA5
:101C300046CCEAFF140EEA02F3CFEAFFE902F3CF43
:101C4000E9FFF450EA26000EE926070EEA22100EFC
:101C5000E926000EEA22EE50ED1001E1E8D045CC75
:101C6000E9FF46CCEAFF140EEA02F3CFEAFFE902ED
:101C7000F3CFE9FFF450EA26000EE926070EEA2228
:101C8000100EE926000EEA22EECF00F0EFCF01F0B1
:101C900002014251001802E14351011801E0C2D093
:101CA000EDEC00F00A0EE66EE66A45CCE9FF46CCA4
:101CB000EAFF140EEA02F3CFEAFFE902F3CFE9FFED
:101CC000F450EA26000EE926070EEA22E9CF00F0DA
:101CD000EACF01F000C0E6FF01C0E6FF180EE66E95
:101CE000020EE66EBCECB3F0026E060EE15E025030
:101CF00045CCE9FF46CCEAFF140EEA02F3CFEAFF37
:101D0000E902F3CFE9FFF450EA26000EE926070EB8
:101D1000EA220A0EE926000EEA22EECF10F2EDCFFB
:101D200011F245CCE9FF46CCEAFF140EEA02F3CFEC
:101D3000EAFFE902F3CFE9FFF450EA26000EE926B4
:101D4000070EEA220C0EE926000EEA22EECF0AF276
:101D5000EECF0BF2EECF0CF2EFCF0DF202010A2B19
:101D60000B230C230D231A511825026E1B51192128
:101D7000036E02501025006E03501121016E0050B9
:101D80001219426F01501319436F0C01120E446F68
:101D90000201060E3F6F45CCC5F246CCC6F20201E9
:101DA000020ED880C557000EC657140EC603F3CFD7
:101DB000C6F2C503F3CFC5F2F450C6270201010EE7
:101DC000C46F0C0145250201C26F000E0C014621B3
:101DD0000201C36F140EC303F3CFC3F2C203F3CFE8
:101DE000C2F2F450C327000EC227070EC32302011C
:101DF000010EC16F140E206E216A45CC25F046CC31
:101E000026F0ADECC1F01EC0BFF21FC0C0F2000E44
:101E10000201BF27070EC0238BEC22F00701386BAD
:101E2000396B05D00C01452B000E4623F9D60C0169
:101E300044510AE0425102E0000E01D0010E0201BD
:101E4000AE6F44CCADF233DB020140B94ED0070E89
:101E50003F5D4AE1EFECC2F0020137511E5C006EBB
:101E600038511F58016E39512058026E3A5121588D
:101E7000036E0001800E031401E0D1D10201405134
:101E8000070B060815E14051080B01E0010E0C019B
:101E9000446F41CC50F2C3EC03F041CC50F2C3ECA0
:101EA00003F00C01445103E102010E0E3F6FB7D164
:101EB000EDEC00F00201020EAE6F0201100EAD6FEC
:101EC000F6DAEFECC2F01EC037F21FC038F220C0C5
:101ED00039F221C03AF2E60E02013727F50E382317
:101EE000050E3923000E3A239AD1EFECC2F002011D
:101EF00037511E5C006E38511F58016E3951205801
:101F0000026E3A512158036E0001800E031401E065
:101F100086D1EDEC00F002013F510C0A01E11ED127
:101F2000060A01E10CD1030A01E103D1010A01E132
:101F3000F1D00F0A01E1DFD00C0A01E1DCD00D0A7B
:101F400001E1C4D0030A01E1AED0060A01E17BD071
:101F5000010A68E0030A20E0010A01E00ED195ECD5
:101F60008BF0000918E00201010E3F6F24A50BD091
:101F700008013D6F18C23AF819C23BF81AC23CF882
:101F8000D1EC8BF008D00801396F18C237F819C2AC
:101F900038F8B1EC8BF0F1D00801470E3E6F0C0E13
:101FA0003F6FF4EC8BF000093CE09EEC8BF00009F5
:101FB00024E047CC18F248CC19F249CC1AF24ACCAA
:101FC0001BF20201020E3F6F1A511825026E1B51BF
:101FD0001921036E02501025006E03501121016E6D
:101FE00000501219426F01501319436F276B260ED0
:101FF000026F036B046B056B14D0EFECC2F01EC0D4
:1020000037F21FC038F220C039F221C03AF2E60E92
:1020100002013727F50E3823050E3923000E3A2327
:102020003F6BABD002ECC3F01EC03BF21FC03CF2D2
:102030000801180E1F6F020E206F52ECABF0020168
:10204000030E3F6F9AD008011C0E236F020E246FFF
:102050000801180E216F020E226F96ECABF00009FA
:102060001AE102ECC3F002013B511E5C006E3C51D0
:102070001F58016E0050025D015003590BE2060E1D
:10208000275D06E2272BD890023703370437053740
:10209000020E3F6F72D00C01020E446F426B0201C0
:1020A000050E3F6F6AD00C01020E446F010E426FA5
:1020B000040E0201275D09E3040E276F700E026F04
:1020C000890E036F090E046F056B57D0020E275D52
:1020D00006E20C01120E446F010E426F0BD040A7B6
:1020E00006D00C01140E446F010E436F03D00C0197
:1020F000020E446F42D0050E275D06E20C01100E61
:10210000446F010E426F05D0080E3F6F0C01110E97
:10211000446F33D0050E275D06E20C01110E446FAB
:10212000010E426F05D00C01140E446F010E436F77
:1021300024D00C01140E446F010E436F1ED0050E07
:10214000275D06E20C01100E446F010E426F05D0B0
:102150000C01140E446F010E436F0FD0050E275D66
:1021600006E20C01110E446F010E426F05D00C0106
:10217000140E446F010E436F00D00C0144514AE02D
:10218000425142E00201272BD8900237033704372F
:10219000053731510E5D0C01456F020132510F5967
:1021A0000C01466F020131510E5D32510F590BE2A5
:1021B00029512B5D006E2C512A55016E00500C01E7
:1021C00045270150462345CC00F046CC01F0026A79
:1021D000036A00500201065F0150075B0250085B72
:1021E0000350095B0C014551020114270C014651B3
:1021F0000201152331C20EF232C20FF20201AE6BA0
:1022000044CCADF254D906D00201010EAE6F44CCDD
:10221000ADF24DD90C01435102E0A2EC18F00C01D3
:10222000412B8BD4456B466B030E455D000E465922
:1022300001E399D045CCE9FF46CCEAFF140EEA024F
:10224000F3CFEAFFE902F3CFE9FFF450EA26000EEC
:10225000E926070EEA22100EE926000EEA22EE50C9
:10226000ED1001E180D045CCE9FF46CCEAFF140E29
:10227000EA02F3CFEAFFE902F3CFE9FFF450EA26DE
:10228000000EE926070EEA22120EE926000EEA22C7
:10229000EECF02F0EFCF03F002C0E6FF03C0E6FF8F
:1022A00002ECC3F0E552E7CF03F0E552E7CF02F0CE
:1022B00002501E5C006E03501F58016EC90ED8807C
:1022C0000054010E01544AE245CCC5F246CCC6F298
:1022D0000201020ED880C557000EC657140EC60361
:1022E000F3CFC6F2C503F3CFC5F2F450C6270201FF
:1022F000010EC46F0C0145250201C26F000E0C01D6
:1023000046210201C36F140EC303F3CFC3F2C2030D
:10231000F3CFC2F2F450C327000EC227070EC32327
:102320000201010EC16F140E206E216A45CC25F00A
:1023300046CC26F0ADECC1F01EC0BFF21FC0C0F20B
:10234000000E0201BF27070EC0238BEC22F007010D
:10235000386B396B0C014507000E465B0C01452BB1
:10236000000E462361D71200A7C2E9FFA8C2EAFF08
:10237000EECF3CFCEECF3DFCEECF3EFCEFCF3FFC82
:10238000A9C2E9FFAAC2EAFFEECF40FCEECF41FCB2
:10239000EECF42FCEFCF43FC0C01446B060E456FC1
:1023A000ABC246FCACC247FC46CCA7F647CCA8F66D
:1023B0000FEC79F0F3CF46FCF4CF47FC0C0E06018E
:1023C000AF6FB06B06013C0EAD6F0C0EAE6F36EC0E
:1023D00079F0F3CF48FCF4CF49FC0C01481F491FAA
:1023E000ABC276F7ACC277F74AEC5DF0F3CF4AFCAC
:1023F000F4CF4BFC0C014A51481902E14B514919E9
:1024000004E0FCEC57F0010E51D00501FC6BFD6BB4
:1024100091ECB1F0140E07016A6F6B6B0701280E87
:10242000686F0C0E696FA5EC5CF00201280EB36FAB
:102430000C0EB46FC7EC17F00C013451F00BE842EE
:10244000E842E842E842040DF350006E016A140EBF
:10245000005E000E015A00C04CFC4C51006E016A37
:1024600000500201AB5DAB6F0150AC59AC6F140E64
:10247000AB5F000EAC5BA7C2B1F2A8C2B2F2020120
:10248000280EAF6F0C0EB06FD8DA00090BE0ABC2AC
:10249000B7F2ACC2B8F20201280EB56F0C0EB66FDF
:1024A0006BEC19F0FCEC57F0010E00D01200EDECD3
:1024B00000F00201ADA102D04187AD91409B409D4B
:1024C000409F41934195419153EC57F0000901E140
:1024D000FBD7060E0201AD1504E00C01266B276B3D
:1024E000FBD00E512F1902E10F51301904E10C01FC
:1024F000266B276BD9D02F510E5D30510F593FE21B
:102500000E512F5D0C01266F02010F5130590C0145
:10251000276F26510201145D0C0127510201155944
:1025200004E214C226FC15C227FC0C01265102014C
:10253000255D0C0127510201265905E225C226FC22
:1025400026C227FC418526CCC5F227CCC6F244C260
:10255000C4F20EC2C2F20FC2C3F20201C16B020189
:10256000A40EBF6F100EC06F8BEC22F00C01265131
:1025700002010E270C01275102010F2395D00E51A5
:102580002B5D0C01246F02010F512C590C01256F9A
:10259000245102012F25006E0C012551020130212A
:1025A000016E2951005C0C01266F02012A5101586D
:1025B0000C01276F26510201145D0C012751020105
:1025C000155904E214C226FC15C227FC0C01265141
:1025D0000201255D0C0127510201265905E225C2A1
:1025E00026FC26C227FC41850C012451265D25517D
:1025F000275904E226CC24FC27CC25FC24CCC5F2A8
:1026000025CCC6F244C2C4F20EC2C2F20FC2C3F25B
:102610000201C16B0201A40EBF6F100EC06F8BECE4
:1026200022F00C012451265D246F25512759256F76
:102630002451251122E024CCC5F225CCC6F244C297
:10264000C4F229C2C2F22AC2C3F20201C16B020162
:102650000E512B5D006E2C510F55016E026A036AFC
:10266000A40E0026100E0122000E0222032200C03A
:10267000BFF201C0C0F28BEC22F00C012651020126
:102680000E270C01275102010F232B510E5D2C51F7
:102690000F590AE329512B5D006E2C512A55016E0A
:1026A00000500E5F01500F5B020141A715D014517D
:1026B0000C01261904E1020115510C0127190CE047
:1026C000020125510C01261904E1020126510C01D9
:1026D000271902E00201AD810C012651271104E106
:1026E000030E0201AD1529E00C0126510201145F11
:1026F0000C0127510201155B0C012651271102E044
:102700000201AD870201AEA107D0276B970E026FC1
:10271000980E036F046B056BEFECC2F01E500201C4
:102720000225376F1F500321386F20500421396F65
:10273000215005213A6F408938D0AEA31BD0400EFE
:10274000E96E020EEA6EEF50070BE82AF36EF350C3
:10275000070BF36EF46EF80EEF14F310EF6EF450F7
:102760000607000E075B085B095B010E0C01266F74
:10277000276B1BD040A919D0AEB108D0275106E075
:102780002707D8900533043303330233EFECC2F04C
:102790001E5002010225376F1F500321386F205051
:1027A0000421396F215005213A6F12C202FC13C275
:1027B00003FC10C204FC11C205FC06C206FC07C2E1
:1027C00007FC08C208FC09C209FC0AC20AFC0BC2C9
:1027D0000BFC0CC20CFC0DC20DFC0C010F9D0F9FDD
:1027E0000E910E930E950E97ADC20FFC146B156BE8
:1027F0002651020106270C01275102010723000E72
:1028000008230923ADA315D0ADB905D00C010A6B7F
:102810000B6B0C6B0D6B020124A306D00C01060799
:10282000075B085B095B05D0062B072308230923F8
:1028300024830201ADB124813551335D36513459C1
:1028400014E32B512D5D006E2E512C55016E355128
:10285000335D026E34513655036E0C010250005C3C
:10286000106F03500158116F0DD03351355D0C01BD
:10287000106F0201345136590C01116F010E105FB7
:10288000000E115B00EC58F0F3CF00FCF4CF01FC1C
:102890000C01400E005D000E015903E2006B016B5C
:1028A00004D0400E005F000E015B1051005D11511D
:1028B000015904E200CC10FC01CC11FC0201020E13
:1028C000B36F0C0EB46F63DB140E0C012627000EE1
:1028D00027230E890E9B0E8D0E9F0201ADA326D0DD
:1028E000040E0C012627000E2723020E166F040E7D
:1028F000176F020E186F180E196F010E006E0E0E74
:10290000E96E0C0EEA6EEF50F00BE842E842E84246
:10291000E84200240F0BF36EF46EF346F346F346E1
:10292000F3460F0EEF14F310EF6EF45000C31AFCD1
:1029300001C31BFC02C31CFC03C31DFC18C21EFC0C
:1029400019C21FFC1AC220FC1BC221FC0C01226B05
:10295000060E236F26CC24FC27CC25FC24CCA7F61E
:1029600025CCA8F60FEC79F0F3CF24FCF4CF25FCAE
:102970000C0E0601AF6FB06B06011A0EAD6F0C0E98
:10298000AE6F36EC79F0F3CF12FCF4CF13FC0C01F0
:10299000121F131F07017C0E5A6F100E5B6FBAECEB
:1029A00059F026CCFAF527CCFBF50501060EF96F98
:1029B0000501180EF76F020EF86F1DECB1F0140E42
:1029C00007016F6F706B0701020E6D6F0C0E6E6F5B
:1029D0000CEC5DF00201ADA30BD0040E07016F6F8C
:1029E000706B0701160E6D6F0C0E6E6F0CEC5DF0C8
:1029F0000701900E5C6F100E5D6FCDEC59F026CC88
:102A000076F727CC77F74AEC5DF0F3CF00FCF4CFF4
:102A100001FC0701A00E5A6F100E5B6FBAEC59F063
:102A2000020E07016F6F706B0701000E6D6F0C0EC9
:102A30006E6F0CEC5DF065EF59F0AFC2E9FFB0C20C
:102A4000EAFF020EE926000EEA22EE50ED1002E146
:102A5000000E9CD20C01FE0E016FB1C2E9FFB2C2A2
:102A6000EAFF020EE926000EEA22EECF04F0EFCFD5
:102A700005F0B1C2E9FFB2C2EAFF0450EE24026ED3
:102A80000550EE20036EAFC2E9FFB0C2EAFF02506C
:102A9000EE24006E0350EE20016EAFC2E9FFB0C21B
:102AA000EAFF020EE926000EEA220050EE18026F3D
:102AB0000150EE18036F006B0051006E016A050EA5
:102AC000005C000E015867E200CC45F2A6EC00F075
:102AD0000D0E02013F5D02E15BD024D0040E3F5D8C
:102AE00016E1AFC2E9FFB0C2EAFF020EE926000E0E
:102AF000EA22EECF00F0EFCF01F00050421902E1E0
:102B00000150431902E100CC01FC42D00BD00C0172
:102B100002510201421904E10C010351020143195F
:102B200001E036D0EDEC00F0AFC2E9FFB0C2EAFF41
:102B3000020EE926000EEA22EECF00F0EFCF01F000
:102B400002011251001802E11351011821E1AFC234
:102B5000E9FFB0C2EAFFEECF02F0EFCF03F0105171
:102B6000021802E11151031813E1B1C2E9FFB2C228
:102B7000EAFFEE50181909E1EE50191906E1EE507E
:102B80001A1903E1EE501B1900E102E1010EFED11A
:102B90000C01002B91D7FE0E015D39E001CC45F20E
:102BA000A6EC00F0EDEC00F0FE0E0C01015D2FE054
:102BB00002CC42F203CC43F20A0EE66EE66AB1C2E0
:102BC000E6FFB2C2E6FF180EE66E020EE66EBCEC41
:102BD000B3F0006E060EE15E0050AFC2E9FFB0C276
:102BE000EAFFEECF10F2EDCF11F2AFC2E9FFB0C2B3
:102BF000EAFF020EE926000EEA22EECF12F2EDCF36
:102C000013F229C20EF22AC20FF2010EBFD1AFC2D7
:102C1000E9FFB0C2EAFF0D0EE926000EEA22EF50EE
:102C2000020B02E1000EB2D107013851391102E066
:102C3000000EACD10C01046B056B030E045D000E9D
:102C4000055901E3BED004CCE9FF05CCEAFF140E20
:102C5000EA02F3CFEAFFE902F3CFE9FFF450EA26F4
:102C6000000EE926070EEA22100EE926000EEA22DF
:102C7000EE50ED1001E1A5D004CCE9FF05CCEAFF50
:102C8000140EEA02F3CFEAFFE902F3CFE9FFF450B2
:102C9000EA26000EE926070EEA22100EE926000EAB
:102CA000EA22EECF00F0EFCF01F0AFC2E9FFB0C2F1
:102CB000EAFF020EE926000EEA22EECF02F0EFCF85
:102CC00003F00250001802E10350011801E074D033
:102CD00004CCE9FF05CCEAFF140EEA02F3CFEAFFC9
:102CE000E902F3CFE9FFF450EA26000EE926070EC9
:102CF000EA220A0EE926000EEA22EECF00F0EFCF1C
:102D000001F0AFC2E9FFB0C2EAFFEECF02F0EFCFB1
:102D100003F00250001802E10350011801E04CD00A
:102D2000B1C2E9FFB2C2EAFFEECF00F0EECF01F090
:102D3000EECF02F0EFCF03F004CCE9FF05CCEAFFC1
:102D4000140EEA02F3CFEAFFE902F3CFE9FFF450F1
:102D5000EA26000EE926070EEA22EE5000010018CE
:102D600009E1EE50011806E1EE50021803E1EE50C1
:102D7000031800E101E020D002ECC3F01EC000F017
:102D80001FC001F004CCE9FF05CCEAFF140EEA02F3
:102D9000F3CFEAFFE902F3CFE9FFF450EA26000E91
:102DA000E926070EEA22120EE926000EEA2200C0EA
:102DB000EEFF01C0EDFFEAD00C01042B000E05234D
:102DC0003CD7006B0051006E016A050E005C000EDE
:102DD000015801E3D9D000CC45F2A6EC00F0020185
:102DE00040A7CFD0EDEC00F0AFC2E9FFB0C2EAFFE0
:102DF000020EE926000EEA22EECF00F0EFCF01F03E
:102E000000500201121902E10150131901E0B9D07A
:102E10000A0EE66EE66AB1C2E6FFB2C2E6FF04CC75
:102E2000E9FF05CCEAFF140EEA02F3CFEAFFE9025C
:102E3000F3CFE9FFF450EA26000EE926070EEA2256
:102E4000E9CF00F0EACF01F000C0E6FF01C0E6FFE5
:102E5000BCECB3F0026E060EE15E0250AFC2E9FFB9
:102E6000B0C2EAFFEECF00F0EFCF01F004CCE9FFF3
:102E700005CCEAFF140EEA02F3CFEAFFE902F3CF32
:102E8000E9FFF450EA26000EE926070EEA220A0EB0
:102E9000E926000EEA2200C0EEFF01C0EDFFAFC23E
:102EA000E9FFB0C2EAFF040EE926000EEA22EECFE7
:102EB00000F0EECF01F0EECF02F0EFCF03F004CC44
:102EC000E9FF05CCEAFF140EEA02F3CFEAFFE902BC
:102ED000F3CFE9FFF450EA26000EE926070EEA22B6
:102EE0000C0EE926000EEA2200C0EEFF01C0EEFF44
:102EF00002C0EEFF03C0EEFFAFC2E9FFB0C2EAFFBF
:102F0000020EE926000EEA22EECF00F0EFCF01F02C
:102F100004CCE9FF05CCEAFF140EEA02F3CFEAFF86
:102F2000E902F3CFE9FFF450EA26000EE926070E86
:102F3000EA22100EE926000EEA2200C0EEFF01C0D0
:102F4000EDFF02ECC3F01EC000F01FC001F004CC86
:102F5000E9FF05CCEAFF140EEA02F3CFEAFFE9022B
:102F6000F3CFE9FFF450EA26000EE926070EEA2225
:102F7000120EE926000EEA2200C0EEFF01C0EDFFAE
:102F800005D00C01002B1ED7000E00D01200B3C2DA
:102F9000E9FFB4C2EAFFEECFA7F6EDCFA8F60FEC3B
:102FA00079F0F3CF00F0F4CF01F0B3C2E9FFB4C27F
:102FB000EAFF00C0EEFF01C0EDFFB3C2E9FFB4C2FB
:102FC000EAFF020EE926000EEA22EECFA7F6EDCFC9
:102FD000A8F60FEC79F0F3CF00F0F4CF01F0B3C214
:102FE000E9FFB4C2EAFF020E00C0EBFF030E01C00E
:102FF000EBFFB3C2E9FFB4C2EAFF040EE926000EFC
:10300000EA22EECFA9F6EECFAAF6EECFABF6EFCFDF
:10301000ACF61FEC79F01EC000F01FC001F020C01C
:1030200002F021C003F0B3C2E9FFB4C2EAFF040E0C
:10303000E926000EEA2200C0EEFF01C0EEFF02C04A
:10304000EEFF03C0EEFFB3C2E9FFB4C2EAFF080E11
:10305000E926000EEA22EECFA9F6EECFAAF6EECFD1
:10306000ABF6EFCFACF61FEC79F01EC000F01FC03E
:1030700001F020C002F021C003F0B3C2E9FFB4C2E6
:10308000EAFF080EE926000EEA2200C0EEFF01C0AA
:10309000EEFF02C0EEFF03C0EEFFB3C2E9FFB4C211
:1030A000EAFF0E0EE926000EEA22EECFA7F6EDCFDC
:1030B000A8F60FEC79F0F3CF00F0F4CF01F0B3C233
:1030C000E9FFB4C2EAFF0E0E00C0EBFF0F0E01C015
:1030D000EBFFB3C2E9FFB4C2EAFF100EE926000E0F
:1030E000EA22EECFA7F6EDCFA8F60FEC79F0F3CFFA
:1030F00000F0F4CF01F0B3C2E9FFB4C2EAFF100E52
:1031000000C0EBFF110E01C0EBFFB3C2E9FFB4C278
:10311000EAFF120EE926000EEA22EECFA7F6EDCF67
:10312000A8F60FEC79F0F3CF00F0F4CF01F0B3C2C2
:10313000E9FFB4C2EAFF120E00C0EBFF130E01C09C
:10314000EBFF1200EDEC00F012C242F213C243F2A8
:1031500029C22FF22AC230F229C231F22AC232F237
:103160002BC233F22CC234F22BC235F22CC236F20F
:1031700002014051080B02E0040E01D00D0E3F6F1A
:103180004091409340954099409B409D409F419184
:1031900041934195419741892491249324972499FF
:1031A00029C20EF22AC20FF2BFEC74F0F3CF06F27E
:1031B000F4CF07F2BFEC74F0F3CF08F2F4CF09F2CA
:1031C000020122692369010E146F156B12000C0EA7
:1031D0000501FC6FFD6B91ECB1F085EC5CF00C012E
:1031E000006FF00E0015E840E8403F0B006E016AEA
:1031F000140E005E000E015A00C000FC005105E1F3
:10320000180EF36E020EF46E65D0070E07016A6F9A
:103210006B6B0701686B696BA5EC5CF00C010051EE
:103220000007000952E085EC5CF00C01016F0151D0
:1032300001E14BD0010501E1F1D7020E015D2CE166
:10324000030E005D01E241D0026B036B85EC5CF084
:103250000C01016F040E015D08E185EC5CF00C01CE
:10326000036F85EC5CF00C01026F180E025D020E1C
:10327000035901E22AD0B40ED8800255050E035539
:1032800006E2B40EF36E050EF46E24D01DD002CC0F
:10329000F3FF03CCF4FF1ED0020E005D01E215D057
:1032A00085EC5CF00C01016F0151005D01E20DD075
:1032B000015107016A6F6B6B0701686B696BA5ECC5
:1032C0005CF00C010151005FA9D7180EF36E020EDD
:1032D000F46E00D01200B5C2E9FFB6C2EAFF0D0ECF
:1032E000E926000EEA22EFCF77FCB5C2E9FFB6C2AD
:1032F000EAFF080EE926000EEA22EECF78FCEECFB8
:1033000079FCEECF7AFCEFCF7BFCB5C2E9FFB6C209
:10331000EAFF040EE926000EEA22EECF7CFCEECF97
:103320007DFCEECF7EFCEFCF7FFC0201409140930D
:10333000409540B913D0EFECC2F01EC037F21FC069
:1033400038F220C039F221C03AF2E60E02013727E6
:10335000F50E3823050E3923000E3A233F51050A96
:1033600048E0010A08E0B7C280FCB8C281FC0C0149
:1033700077A1CFD0CBD00C0177A503D0E3DE53EFFC
:1033800021F077A912D078CC06F279CC07F27ACC6A
:1033900008F27BCC09F20201AE6B0201040EAD6FA4
:1033A00057EC12F0CFDE53EF21F077A31FD07CCC87
:1033B0000AF27DCC0BF27ECC0CF27FCC0DF2020136
:1033C0000A2B000E0B230C230D2301DFF3CF25F274
:1033D000F4CF26F20201010EAE6F0201120EAD6FA4
:1033E00057EC12F00201060E3F6F01D0ABDE53EF37
:1033F00021F00C0177A502D053EF21F077A934D04A
:10340000780EE96E0C0EEA6EEE500201061909E123
:10341000EE50071906E1EE50081903E1EE500919C4
:1034200000E122E006C27CFC07C27DFC08C27EFCF3
:1034300009C27FFC78CC06F279CC07F27ACC08F28C
:103440007BCC09F20201010EAE6F0201040EAD6FDA
:1034500057EC12F07CCC06F27DCC07F27ECC08F261
:103460007FCC09F253EF21F00C0177A34DD07CCC37
:103470000AF27DCC0BF27ECC0CF27FCC0DF2020175
:103480000A2B000E0B230C230D23B5C2E9FFB6C295
:10349000EAFF0E0EE926000EEA22EECF14F2EDCF7F
:1034A00015F295DEF3CF25F2F4CF26F20C0177A9C1
:1034B00020D00201010EAE6F0201100EAD6F57EC6D
:1034C00012F00201070E3F6FEFECC2F01EC037F2A0
:1034D0001FC038F220C039F221C03AF2E60E0201D4
:1034E0003727F50E3823050E3923000E3A2340996D
:1034F0000BD00201010EAE6F0201120EAD6F57EC40
:1035000012F00201060E3F6F53EF21F0802B000EE8
:10351000812377A303D0802B000E81230201355134
:10352000335D3651345914E32B512D5D006E2E510D
:103530002C55016E3551335D026E34513655036E94
:103540000C010250005C756F03500158766F0DD06E
:103550003351355D0C01756F0201345136590C0140
:10356000766F010E755F000E765B0A0EE96E020E35
:10357000EA6EEE507C5D6F6FEE507D59706FEE50CD
:103580007E59716FEE507F59726F6FCC73FC70CCA7
:1035900074FC826B8051811101E17BD075517611F1
:1035A00001E176D0800E721512E175CC00F076CC78
:1035B00001F0026A036A00506F5D015070590250B9
:1035C00071590350725903E2010E826F3DD080CCD5
:1035D00000F081CC01F0026A036A6F0EE96E0C0EF6
:1035E000EA6EEE500026EE500122EE500222EE501E
:1035F00003220334000E031809E6D880000E00549D
:10360000000E0154000E0254000E03541DE28051BE
:10361000755D046E76518155056E066A076A05AEC2
:1036200002D00668076807507219E8AE02D07235FA
:1036300008D06F51045C7051055871510658725191
:10364000075802E3010E826F75CC00F076CC01F0D2
:10365000026A036A72510318E8AE02D0033408D03C
:1036600000506F5D015070590250715903507259EA
:103670000FE273518025046E74518121056E05346B
:1036800004E204500008000E055402E2010E826FAD
:103690001CD06F5170117111721103E1010E826F14
:1036A00014D0800E721511E175CC00F076CC01F0CB
:1036B000026A036A00506F5D0150705902507159DF
:1036C0000350725902E2010E826F82510CE177B50C
:1036D00008D00201010EAE6F0201100EAD6F57EC63
:1036E00012F053EF21F0060E771503E02BDD53EFB8
:1036F00021F077B902D053EF21F002013F510C0ABB
:1037000001E19CD20B0A40E00F0A3EE0010A3CE0D6
:10371000020A3AE0010A38E00C0A01E0ADD2780E64
:10372000E96E0C0EEA6EEE50061909E1EE5007192B
:1037300006E1EE50081903E1EE50091900E122E01C
:1037400006C27CFC07C27DFC08C27EFC09C27FFC6D
:1037500078CC06F279CC07F27ACC08F27BCC09F26D
:103760000201010EAE6F0201040EAD6F57EC12F0B4
:103770007CCC06F27DCC07F27ECC08F27FCC09F23D
:1037800053EF21F0070E3F6F0E512F5D0C016D6F4F
:1037900002010F5130590C016E6F800E6E150CE056
:1037A000020129512B5D006E2C512A55016E0050EB
:1037B0000C016D2701506E236DCC00F06ECC01F032
:1037C000026A036A060EE96E020EEA6EEE500024EB
:1037D000696FEE5001206A6FEE5002206B6FEE5061
:1037E00003206C6F690EE96E0C0EEA6EEE50785D88
:1037F000696FEE5079596A6FEE507A596B6FEE50DF
:103800007B596C6F6C35000E6C1909E6D880000E80
:103810006955000E6A55000E6B55000E6C551DE281
:1038200002012451010B0AE0010E0C01691905E1A6
:103830006A5103E16B5101E16C510AE00201AE6B88
:103840000201100EAD6F57EC12F053EF21F005D0CE
:103850007807000E795B7A5B7B5B020131510E5D6C
:10386000006E0F513255016E026A036A01AE02D03A
:1038700002680368060EE96E020EEA6E0050EE5C06
:103880000C01696F0150EE586A6F0250EE586B6F71
:103890000350EE586C6F020131510E5D32510F59D9
:1038A00011E229512B5D006E2C512A55016E026ADE
:1038B000036A00500C01695F01506A5B02506B5B48
:1038C00003506C5B690EE96E0C0EEA6EEE500C0153
:1038D000785D696FEE5079596A6FEE507A596B6F67
:1038E000EE507B596C6F6C35000E6C1909E6D88070
:1038F000000E6955000E6A55000E6B55000E6C5592
:1039000001E397D0020129512B5D006E2C512A55FD
:10391000016E026A036A0C016951005C6A51015828
:103920006B5102586C51035801E283D00201249775
:103930002499419131C26DFC32C26EFC0C01695177
:10394000020131270C016A51020132230C016D5131
:1039500002010E5D0C016E5102010F591BE3315142
:103960000E5D32510F5915E20E51315D006E32512C
:103970000F55016E000100500201062700010150A1
:1039800002010723000E0823092331C20EF232C2BE
:103990000FF22FD029512B5D006E2C512A55016E4C
:1039A0000E5100240C016D6F02010F5101200C011A
:1039B0006E6F020131510C016D5D020132510C013B
:1039C0006E5917E26D510201315D006E32510C01EA
:1039D0006E55016E000100500201062700010150E2
:1039E00002010723000E0823092331C20EF232C25E
:1039F0000FF202012B51315D2C5132590AE329514A
:103A00002B5D006E2C512A55016E0050315F015024
:103A1000325B2B510E5D2C510F590AE329512B5D5E
:103A2000006E2C512A55016E00500E5F01500F5B45
:103A30003FD002010E51311902E10F51321938E025
:103A400024A735D024A932D031510E5D006E0F511C
:103A50003255016E026A036A01AE02D00268036841
:103A60000050065F0150075B0250085B0350095B82
:103A700031510E5D32510F5914E229512B5D006E08
:103A80002C512A55016E026A036A01AE02D0026807
:103A900003680050065F0150075B0250085B03504B
:103AA000095B31C20EF232C20FF2418524892487AC
:103AB0002F51311902E1305132192FE141B715D0A0
:103AC000EFECC2F01EC037F21FC038F220C039F24E
:103AD00021C03AF2E60E02013727F50E3823050E13
:103AE0003923000E3A23409918D0060EE96E020ED3
:103AF000EA6EEE500C01781909E1EE50791906E1F1
:103B0000EE507A1903E1EE507B1900E106E1020163
:103B10002451010B02E040994197780EE96E0C0E9A
:103B2000EA6EEE500201065D006EEE500759016E1E
:103B3000EE500859026EEE500959036EB5C2E9FF06
:103B4000B6C2EAFF0E0EE926000EEA220C01005072
:103B5000EE5C836F0150EE58846F02011451151111
:103B600006E10C018351841102E00201418383CC00
:103B700014F284CC15F2080E02013F5D2DE1060E11
:103B8000E96E020EEA6EEE500C01781909E1EE5072
:103B9000791906E1EE507A1903E1EE507B1900E144
:103BA0001AE102012451010B16E0EFECC2F01EC035
:103BB00037F21FC038F220C039F221C03AF2F30EBA
:103BC00002013727FA0E3823020E3923000E3A235A
:103BD0004089090E3F6F31D0090E3F5D16E10C019F
:103BE00077B112D078CC06F279CC07F27ACC08F211
:103BF0007BCC09F20201AE6B0201140EAD6F57ECE3
:103C000012F0A2EC18F04FD318D00A0E3F5D15E168
:103C1000060EE96E020EEA6EEE500C01781909E10B
:103C2000EE50791906E1EE507A1903E1EE507B1956
:103C300000E102E1A2EC18F036D31FD006C200F07A
:103C400007C201F008C202F009C203F0002A000E08
:103C500001220222032200500C01781909E10150CF
:103C6000791906E102507A1903E103507B1900E14A
:103C700002E1A2EC18F017D300D00C0177BB13D3EC
:103C80000B0E02013F5D01E10ED30A0E3F5D01E123
:103C90000AD30C0E3F5D01E106D3B751B81101E123
:103CA0004ED20C01743504E273510008000E7455B5
:103CB00001E2E8D0B5C2E9FFB6C2EAFF0C0EE92680
:103CC000000EEA22EF50F00BE842E842E842E842F8
:103CD000040DF350006E016A7351005C0501FC6F26
:103CE0000C01745101580501FD6F91ECB1F00C010C
:103CF00073510201B7270C0174510201B823B75167
:103D00000C01755D0201B8510C01765904E275CCC5
:103D1000B7F276CCB8F20201B7510A27B8510B239B
:103D2000000E0C230D233351B725006E3451B821FA
:103D3000016E00502D5D01502E5946E233512D5D2C
:103D40000C016D6F020134512E590C016E6F010E82
:103D50006D27000E6E236DCCC5F26ECCC6F202014B
:103D6000C46B0201C269C36944C2C1F233C2BFF26B
:103D700034C2C0F2D0DB0C016D510201B75D02010B
:103D8000C56F0C016E510201B8590201C66F0201E4
:103D9000C46B0201C269C36944C2C1F22BC2BFF243
:103DA0002CC2C0F2B8DB0C016D510201B75D006E90
:103DB000B8510C016E55016E02012B510024336F76
:103DC0002C510120346F15D0B7C2C5F2B8C2C6F26B
:103DD0000201C46B0201C269C36944C2C1F233C2A9
:103DE000BFF234C2C0F297DB0201B7513327B8519A
:103DF0003423221D01E1231D44E0B751225FB85155
:103E0000235B165122250C016D6F020117512321EE
:103E10000C016E6F800E6E1504E0020122692369A9
:103E200030D00201233504E222510008000E235550
:103E300028E30C016D5102010A270C016E510201A9
:103E40000B23000E0C230D230C016D5102013327AF
:103E50000C016E510201342333512D5D34512E5922
:103E60000EE22B512D5D006E2E512C55016E010E70
:103E70000026000E01220050335F0150345B22699E
:103E800023695DD1743504E273510008000E745546
:103E900001E355D10201B7510C017325006E0201F7
:103EA000B8510C017421016E0050755D01507659B6
:103EB00009E27351755D0201B76F0C0174517659B7
:103EC0000201B86FB5C2E9FFB6C2EAFF0C0EE926DF
:103ED000000EEA22EF50F00BE842E842E842E842E6
:103EE000040DF3500501FC6FFD6B91ECB1F0020184
:103EF00033510C017325026E020134510C017421FF
:103F0000036E02500201B725006E0350B821016E06
:103F100000502D5D01502E596EE233512D5D006E23
:103F20002E513455016E010E0026000E01220C01A7
:103F30007351005C6D6F745101586E6F800E6E1579
:103F400031E16DCCC5F26ECCC6F20201C46B020148
:103F5000C269C36944C2C1F2020133510C01732525
:103F60000201BF6F020134510C0174210201C06FC4
:103F7000D2DA0C016D510201B75D0201C56F0C016F
:103F80006E510201B8590201C66F0201C46B0201F1
:103F9000C269C36944C2C1F22BC2BFF22CC2C0F2D3
:103FA000BADA28D0B7C2C5F2B8C2C6F20201C46BF1
:103FB0000201C269C36944C2C1F2020133510C015A
:103FC0007325006E020134510C017421016E02014F
:103FD0002B512D5D026E2E512C55036E010E0226C3
:103FE000000E032202010250005CBF6F0350015813
:103FF000C06F91DA18D0B7C2C5F2B8C2C6F20201DA
:10400000C46B0201C269C36944C2C1F202013351E7
:104010000C0173250201BF6F020134510C017421A0
:104020000201C06F78DA0201221D01E1231D09E1BE
:1040300073CC22F274CC23F2B7C216F2B8C217F2D4
:104040007ED022510C01735D020123510C01745981
:104050003DE273510201B725006E0C01745102015B
:10406000B821016E22511625026E23511721036ECD
:104070000050025C015003580FE30C017351020120
:10408000B725046E0C0174510201B821056E22514E
:10409000045C2351055805E2B7C216F2B8C217F204
:1040A00010D022511625006E23511721016E0C01EC
:1040B0007351005C0201166F0C017451015802012A
:1040C000176F73CC22F274CC23F239D073510201F2
:1040D000B725006E0C0174510201B821016E225106
:1040E0001625026E23511721036E0050025C015009
:1040F000035825E222511625006E23511721016E27
:104100000C017351005C7451015819E373510201A1
:10411000B725046E0C0174510201B821056E2251BD
:10412000045C026E23510558036E1651025C006E4A
:1041300017510358016E00501627015017230C0128
:104140008051811124E0070E02013F5D04E033C27B
:1041500035F234C236F240AF0BD00201010EAE6F21
:104160000201100EAD6F57EC12F0EDEC00F00FD025
:10417000408F40BD0CD0408D02ECC3F01EC03DF21C
:104180001FC03EF20F0E02013D27000E3E230C0120
:1041900077A189D00AC200F00BC201F00CC202F074
:1041A0000DC203F0002A000E01220222032280CC5D
:1041B00004F081CC05F0066A076A7C0EE96E0C0EED
:1041C000EA6EEE500426EE500522EE500622EE5026
:1041D00007220050041809E10150051806E10250B9
:1041E000061803E10350071800E15DE102010A2B04
:1041F000000E0B230C230D233F51090A41E0010A55
:104200001EE00F0A0EE0010A01E044D00C0E3F6FE1
:104210000201010EAE6F0201110EAD6F57EC12F0EC
:1042200042D00B0E3F6F02ECC3F01EC03DF21FC028
:104230003EF21E0E02013D27000E3E232CD0060E3C
:10424000E96E020EEA6EEE500C01781909E1EE50AB
:10425000791906E1EE507A1903E1EE507B1900E17D
:104260000BE10201AE6B0201100EAD6F57EC12F0C4
:10427000A2EC18F018D003D002010A0E3F6F0BD049
:104280000201AE6B0201100EAD6F57EC12F0A2EC02
:1042900018F009D000D00201010EAE6F0201100E1D
:1042A000AD6F57EC12F012000201B951006E016AB5
:1042B000050E005C000E015802E3000E2BD1B9C2BE
:1042C00045F2A6EC00F00201BA51BB1103E1010E68
:1042D000BA6FBB6B29512D5D0C01286F02012A5169
:1042E0002E590C01296F010E285F000E295B020177
:1042F000BA51BC25006EBB51BD21016E0C010050AE
:10430000285D0150295902E2000E04D1EDEC00F0C5
:10431000030E0201BE1502E1030EBE13BCC22CFC4B
:10432000BDC22DFCBA51BC25006EBB51BD21016E32
:1043300000500C01285F0150295B0201BEA314D07C
:10434000BEA10DD028CC00F029CC01F0D8900132CC
:10435000003200500C012C2701502D2305D00C01F8
:1043600028512C2729512D23020129510C012C25DC
:10437000286F02012A510C012D21296F010E2827D7
:10438000000E292333C22AFC34C22BFC0201221D59
:1043900001E1231D22E022511625006E2351172131
:1043A000016E00500C012A2701502B232A510201D3
:1043B0002D5D0C012B5102012E590FE22B512D5D69
:1043C000006E2E512C55016E010E0026000E0122AA
:1043D00000500C012A5F01502B5B0C012A51020195
:1043E000355D0C012B510201365917E20C012851A1
:1043F0000201355D0C012951020136590DE2BEA5BD
:1044000003D0000E87D008D028CC35F229CC36F264
:1044100028CC33F229CC34F226D035510C012A5D58
:10442000020136510C012B5916E2285102012B5D75
:104430000C01295102012C590DE2BEA503D0000E3A
:1044400069D008D028CC35F229CC36F228CC33F20A
:1044500029CC34F208D028CC35F229CC36F228CC3D
:1044600033F229CC34F2020135510C012A5D0201EC
:1044700036510C012B5930E2040E0201BE152CE01E
:104480002B510C012A5D0201C56F02012C510C0158
:104490002B590201C66F44C2C4F22BC2C2F22CC215
:1044A000C3F244C2C1F228CCBFF229CCC0F233D847
:1044B00002013551335D365134590EE20C01285159
:1044C00002012B5D006E2C510C012955016E00502C
:1044D0000201335F0150345B28CC2BF229CC2CF243
:1044E00029C20EF22AC20FF229C231F22AC232F2D6
:1044F00029C22FF22AC230F2070E02013F5D08E105
:104500000201010EAE6F0201100EAD6F57EC12F0FA
:10451000010E00D012000201C45131E0010A01E095
:104520005DD0C15116E0010A01E028D0C5C2E6FF06
:10453000C6C2E6FFC2C2E6FFC3C2E6FFBFC2E6FFD5
:10454000C0C2E6FFBCECB3F0006E060EE15E0050A8
:1045500015D0BF1D01E1C01D06E0BFC25AF7C0C2A1
:104560005BF7BAEC59F0C5C26FF7C6C270F7C2C2AA
:104570006DF7C3C26EF70CEC5DF000D02FD0C151C7
:1045800018E0010A01E029D0C21D01E1C31D06E0C7
:10459000C2C25CF7C3C25DF7CDEC59F0C5C26AF781
:1045A000C6C26BF7BFC268F7C0C269F7A5EC5CF082
:1045B00014D0C5C266F7C6C267F7C2C264F7C3C2E9
:1045C00065F7BFC262F7C0C263F712EC5AF082EC23
:1045D0005CF0000901E1FBD700D000D0120002011D
:1045E000C95118E0010A01E069D0CDC2E6FFCEC290
:1045F000E6FFCAC2E6FFCBC2E6FFCCC2E6FFC7C2F7
:10460000E6FFC8C2E6FFE7ECB3F0006E070EE15E1E
:10461000005054D0C71D01E1C81D06E0C7C25AF7BB
:10462000C8C25BF7BAEC59F0100E0C01106F116B99
:104630000201CD51CE1141E00C0110510201CD5DBE
:104640000C0111510201CE5904E2CDC210FCCEC2C0
:1046500011FC10CCE6FF11CCE6FFCAC2E6FFCBC2CC
:10466000E6FFCCC2E6FF000EE66E0C0EE66EE7EC4F
:10467000B3F0006E070EE15E005010CC6FF711CC66
:1046800070F70701000E6D6F0C0E6E6F0CEC5DF095
:1046900010CC00F011CC01F0026A00500201CA27D0
:1046A0000150CB230250CC230C0110510201CD5FED
:0E46B0000C0111510201CE5BBBD700D01200ED
:0246BE004A0EA2
:1046C0000801921905E1935103E1945101E19551DB
:1046D00001E181D3490E921905E1935103E194510F
:1046E00001E1955101E174D3480E921905E193510E
:1046F00003E1945101E1955101E167D3470E92190D
:1047000005E1935103E1945101E1955101E156D343
:10471000460E921905E1935103E1945101E195513F
:1047200001E145D3450E921905E1935103E19451FE
:1047300001E1955101E135D3440E921905E1935100
:1047400003E1945101E1955101E124D3430E921903
:1047500005E1935103E1945101E1955101E113D336
:10476000420E921905E1935103E1945101E19551F3
:1047700001E103D3330E921905E1935103E1945102
:1047800001E1955101E1EFD2310E921905E193510A
:1047900003E1945101E1955101E1DED2300E92190D
:1047A00005E1935103E1945101E1955101E1CDD22D
:1047B0002F0E921905E1935103E1945101E19551B6
:1047C00001E1BDD22E0E921905E1935103E19451FE
:1047D00001E1955101E1B0D22D0E921905E19351FD
:1047E00003E1945101E1955101E1A3D22C0E9219FC
:1047F00005E1935103E1945101E1955101E196D214
:104800002B0E921905E1935103E1945101E1955169
:1048100001E189D22A0E921905E1935103E19451E5
:1048200001E1955101E17CD2290E921905E19351E4
:1048300003E1945101E1955101E16FD2280E9219E3
:1048400005E1935103E1945101E1955101E162D2F7
:10485000270E921905E1935103E1945101E195511D
:1048600001E155D2260E921905E1935103E19451CD
:1048700001E1955101E148D2250E921905E19351CC
:1048800003E1945101E1955101E13BD2240E9219CB
:1048900005E1935103E1945101E1955101E12ED2DB
:1048A000230E921905E1935103E1945101E19551D1
:1048B00001E121D2220E921905E1935103E19451B5
:1048C00001E1955101E114D2210E921905E19351B4
:1048D00003E1945101E1955101E107D2200E9219B3
:1048E00005E1935103E1945101E1955101E1FAD1C0
:1048F0001F0E921905E1935103E1945101E1955185
:1049000001E1EDD11E0E921905E1935103E194519D
:1049100001E1955101E1E0D11D0E921905E193519C
:1049200003E1945101E1955101E1D3D11C0E92199B
:1049300005E1935103E1945101E1955101E1C6D1A3
:104940001B0E921905E1935103E1945101E1955138
:1049500001E1B5D11A0E921905E1935103E1945189
:1049600001E1955101E1A4D1190E921905E193518C
:1049700003E1945101E1955101E193D1180E92198F
:1049800005E1935103E1945101E1955101E183D196
:10499000170E921905E1935103E1945101E19551EC
:1049A00001E173D1160E921905E1935103E194517F
:1049B00001E1955101E166D1150E921905E193517E
:1049C00003E1945101E1955101E152D1140E921984
:1049D00005E1935103E1945101E1955101E13ED18B
:1049E000130E921905E1935103E1945101E19551A0
:1049F00001E12AD1120E921905E1935103E194517C
:104A000001E1955101E115D1110E921905E1935182
:104A100003E1945101E1955101E101D1100E921988
:104A200005E1935103E1945101E1955101E1ECD08D
:104A30000F0E921905E1935103E1945101E1955153
:104A400001E1D8D00E0E921905E1935103E1945182
:104A500001E1955101E1C3D00D0E921905E1935189
:104A600003E1945101E1955101E1B6D00C0E921988
:104A700005E1935103E1945101E1955101E1A5D084
:104A80000B0E921905E1935103E1945101E1955107
:104A900001E194D00A0E921905E1935103E194517A
:104AA00001E1955101E183D0090E921905E193517D
:104AB00003E1945101E1955173E0080E921905E16B
:104AC000935103E1945101E1955163E0070E92196E
:104AD00005E1935103E1945101E1955153E0060E34
:104AE000921905E1935103E1945101E1955143E09D
:104AF000050E921905E1935103E1945101E195519D
:104B000037E0040E921905E1935103E1945101E15C
:104B100095512CE0030E921905E1935103E1945154
:104B200001E1955120E0020E921905E1935103E154
:104B3000945101E195510DE0010E921905E1935157
:104B400003E1945101E1955101E048D133EC46F085
:104B500060D10801450EB06FC50EB16F000EB26F87
:104B600071EC3DF056D176EC46F053D154D951D189
:104B70001EEC44F04ED1070E0401ED6FEE6BDEEC3F
:104B800044F047D1060E0401ED6FEE6BDEEC44F00D
:104B900040D1050E0401ED6FEE6BDEEC44F039D12F
:104BA000040E0401ED6FEE6BDEEC44F032D1030E27
:104BB0000401ED6FEE6BDEEC44F02BD1020E04012C
:104BC000ED6FEE6BDEEC44F024D1010E0401ED6FCD
:104BD000EE6BDEEC44F01DD106EC46F01AD1010E6E
:104BE0000401F16FF26B040E0401EF6FF06B59ECEE
:104BF00045F00FD10401F16BF26B040E0401EF6F6D
:104C0000F06B59EC45F005D1010E0401F16FF26B28
:104C1000030E0401EF6FF06B59EC45F0FAD004017C
:104C2000F16BF26B030E0401EF6FF06B59EC45F082
:104C3000F0D0010E0401F16FF26B020E0401EF6F70
:104C4000F06B59EC45F0E5D00401F16BF26B020E0C
:104C50000401EF6FF06B59EC45F0DBD0010E04015D
:104C6000F16FF26B0401EF6FF06B59EC45F0D1D0AE
:104C70000401F16BF26B010E0401EF6FF06B59EC64
:104C800045F0C7D078EC44F0C4D00401ED6BEE6B76
:104C9000DEEC44F0BED00401EB6BEC6B8FEC44F027
:104CA000B8D0010E0401EB6FEC6B8FEC44F0B1D087
:104CB000020E0401EB6FEC6B8FEC44F0AAD0030EF4
:104CC0000401EB6FEC6B8FEC44F0A3D0DFEC45F00C
:104CD000A0D0BCEC46F09DD040EC49F09AD0BEECA0
:104CE00048F097D0D5EC48F094D0BAEC48F091D089
:104CF000BBEC48F08ED0BCEC48F08BD075EC49F0A2
:104D000088D023EC48F085D0B9EC47F082D0D0ECC5
:104D100047F07FD0ECEC47F07CD0F7EC47F079D04F
:104D200002EC48F076D00DEC48F073D018EC48F067
:104D300070D0A3EC48F06DD0A5EC48F06AD0040127
:104D4000FB6BFC6BBDEC48F064D0010E0401FB6F03
:104D5000FC6BBDEC48F05DD0020E0401FB6FFC6BF8
:104D6000BDEC48F056D008013A0EB06FC50EB16FD9
:104D7000000EB26F71EC3DF04CD00401F76BF86B94
:104D8000A1EC48F046D0010E0401F76FF86BA1ECDE
:104D900048F03FD0020E0401F76FF86BA1EC48F029
:104DA00038D00401F96BFA6BA2EC48F032D0010E56
:104DB0000401F96FFA6BA2EC48F02BD0020E04014B
:104DC000F96FFA6BA2EC48F024D012EC49F021D034
:104DD00029EC49F01ED0BAEC46F01BD0040E0201BB
:104DE0006C6F6D6B0201350E696FC50E6A6F000E38
:104DF0006B6F05018351E96EEA6AD890E936EA36AD
:104E00007F0EE926050EEA22EE52EFCF68F22FEC74
:104E100006F000D0120002017E0E626F0501835180
:104E2000E96EEA6AD890E936EA367F0EE926050E81
:104E3000EA22EE52EFCF61F2DDEC04F000D0120076
:104E40000501836B020E835D5AE28351E96EEA6AC3
:104E5000D890E936EA367F0EE926050EEA22EF6A97
:104E60000201080E4D6F500E02014B6F4C6B020198
:104E70004A6B0201466B476B486B496BBDEC02F015
:104E8000E66E05018351E96EEA6AD890E936EA36A2
:104E90007F0EE926050EEA22EE52E552E750EF6E4C
:104EA0001469156983517F0DF3CF00F0F4CF01F041
:104EB000026A036A5C0E0026160E0122000E022210
:104EC000032200C05AF701C05BF7BAEC59F0F3CFE8
:104ED00028FCF4CF29FC7F0E07016F6F706B070170
:104EE000000E6D6F050E6E6F0CEC5DF028CC5AF75E
:104EF00029CC5BF7BAEC59F00501832BA3D7836B60
:104F000012000C017D6B020E7D5D01E385D07D51A9
:104F1000E96EEA6AD890E936EA367F0EE926050E90
:104F2000EA22EE52EF50FE0801E173D07D51E96EA6
:104F3000EA6AD890E936EA367F0EE926050EEA22BB
:104F4000EE52EFCF4EF295EC03F000093BE07DCC42
:104F500096F863D805018351E96EEA6AD890E9367C
:104F6000EA367F0EE926050EEA22EF6AFF0E145D8F
:104F700006E014C5D6F0F3EC4CF005011469FF0E01
:104F8000155D06E015C5D6F0F3EC4CF0050115698A
:104F90000201040EBE6F0201BC6BBD6B010E02016B
:104FA000BA6FBB6B05018351E96EEA6AD890E936A6
:104FB000EA367F0EE926050EEA22EE52EFCFB9F26D
:104FC00054EC21F00C017D51E96EEA6AD890E93683
:104FD000EA367F0EE926050EEA22EF5016E17D51F2
:104FE000E96EEA6AD890E936EA367F0EE926050EC0
:104FF000EA22EE52EFCF77F2A0EC07F0F3CF00F009
:10500000F4CF01F00050011004E07DCC96F805D8F3
:1050100063D80C017D2B77D712000501835108015D
:10502000965D01E158D0050183517F0DF3CF00F06B
:10503000F4CF01F0026A036A5C0E0026160E01220C
:10504000000E0222032200C05AF701C05BF7BAEC3F
:1050500059F0F3CF00FCF4CF01FC7F0E07016F6F16
:10506000706B0701000E6D6F050E6E6F0CEC5DF03E
:1050700000CC5AF701CC5BF7BAEC59F00801965115
:105080007F0DF3CF00F0F4CF01F0026A036A5C0EEB
:105090000026160E0122000E0222032200C05CF739
:1050A00001C05DF7CDEC59F0F3CF00FCF4CF01FC6B
:1050B0007F0E07016A6F6B6B0701000E686F050EAC
:1050C000696FA5EC5CF000CC5CF701CC5DF7CDEC32
:1050D00059F096C883F512000C01010E366F0501D8
:1050E0008351E96EEA6AD890E936EA367F0EE926FE
:1050F000050EEA22EF500B0A02E182EF34F0010ABA
:1051000002E145EF34F0030A02E110EF34F0010A46
:1051100002E18DEF32F00F0A02E170EF30F0010A88
:1051200002E139EF30F0030A02E1FDEF2EF0010A4F
:1051300002E1EAEF2EF0070A02E191EF2EF0010AF8
:1051400002E1C3EF2CF0030A67E0010A02E0B0EFCE
:1051500034F08351E96EEA6AD890E936EA367F0E78
:10516000E926050EEA22EE52EFCF77F2A0EC07F027
:10517000F3CF30FCF4CF31FC0C01305131114AE057
:1051800005011A0E106F050E116F8351E96EEA6A60
:10519000D890E936EA367F0EE926050EEA22010E9E
:1051A000EF6E1769166BEFECC2F01EC008F51FC05A
:1051B00009F520C00AF521C00BF58B0E0501082763
:1051C000D20E09231A0E0A23000E0B230C690D6957
:1051D0000E690F69006B016B026B036B7E6B020142
:1051E000050EBE6F0201BC6BBD6B010E0201BA6FF2
:1051F000BB6B05018351E96EEA6AD890E936EA365D
:105200007F0EE926050EEA22EE52EFCFB9F254ECFA
:1052100021F002D0B0EF34F00201A66B0201A46BC2
:10522000A56B0201A26BA36B02010A0EA16F05011F
:105230008351E96EEA6AD890E936EA367F0EE926AC
:10524000050EEA22EE52EFCFA0F283EC0DF0F3CF81
:1052500000F0F4CF01F00001001C01E1011C65E148
:1052600005018351E96EEA6AD890E936EA367F0E85
:10527000E926050EEA22EE52EFCF80F2E7EC08F0C5
:10528000F3CF00F0F4CF01F00050011011E105015F
:10529000050E186F8351E96EEA6AD890E936EA364E
:1052A0007F0EE926050EEA22070EEF6E0C01366B23
:1052B000EFECC2F0050108511E5C006E09511F5849
:1052C000016E0A512058026E0B512158036E0334AF
:1052D000000E031809E6D880000E0054000E015499
:1052E000000E0254000E03541EE28351E96EEA6A76
:1052F000D890E936EA367F0EE926050EEA22EE520C
:10530000EFCF50F2C3EC03F005018351E96EEA6A76
:10531000D890E936EA367F0EE926050EEA220B0E12
:10532000EF6E0C01366BB0EF34F0EFECC2F01EC044
:1053300008F51FC009F520C00AF521C00BF58B0E3A
:1053400005010827D20E09231A0E0A23000E0B238B
:105350000201A66B0201A46BA56B0201A26BA36BF9
:105360000201200EA16F05018351E96EEA6AD8900F
:10537000E936EA367F0EE926050EEA22EE52EFCF35
:10538000A0F283EC0DF0F3CF30FCF4CF31FC0C0134
:10539000050ED8803055000E315503E2050E306FF2
:1053A000316B010E302502017E6F000E0C013121A0
:1053B00002017F6F02011A0E7C6F050E7D6F0501E1
:1053C0008351E96EEA6AD890E936EA367F0EE9261B
:1053D000050EEA22EE52EFCF7BF234EC08F0030E1A
:1053E000E66EE66A630EE66EBE0EE66E000EE66ED2
:1053F0001A0EE66E050EE66E9DECB3F0006E070E1B
:10540000E15E0050000903E10501186B2CD0040E89
:10541000E66EE66A5E0EE66EBE0EE66E000EE66EA6
:105420001A0EE66E050EE66E9DECB3F0006E070EEA
:10543000E15E0050000904E10501010E186F13D070
:105440000501070E186F8351E96EEA6AD890E936B4
:10545000EA367F0EE926050EEA22070EEF6E0C01F2
:10546000366BB0EF34F00201A66B0201A46BA56BA2
:105470000201A26BA36B0201200EA16F05018351F3
:10548000E96EEA6AD890E936EA367F0EE926050E1B
:10549000EA22EE52EFCFA0F283EC0DF0F3CF30FC16
:1054A000F4CF31FC0201A66B30CCA4F231CCA5F2D2
:1054B0000201A26BA36B02013F0EA16F0501835194
:1054C000E96EEA6AD890E936EA367F0EE926050EDB
:1054D000EA22EE52EFCFA0F283EC0DF0F3CF32FCD4
:1054E000F4CF33FC0C013251305D3351315901E2BC
:1054F00004D032CC30FC33CC31FC590ED88030553E
:10550000000E315513E20501050E186F8351E96E47
:10551000EA6AD890E936EA367F0EE926050EEA22D5
:10552000070EEF6E0C01366BB0EF34F030CC7EF22C
:1055300031CC7FF202011A0E7C6F050E7D6F0501E2
:105540008351E96EEA6AD890E936EA367F0EE92699
:10555000050EEA22EE52EFCF7BF234EC08F0F3CFE7
:1055600032FCF4CF33FC1A0E0C013225E96E050E25
:105570003321EA6EEF6A08011A0E986F050E996FD3
:1055800016EC38F01A0EE66E050EE66E73ECB4F00B
:10559000E552E552F3CF32FCF4CF33FC0B0EE66E4E
:1055A000E66A530EE66EBE0EE66E000EE66E1B0E4B
:1055B000E66E050EE66E9DECB3F0006E070EE15E42
:1055C0000050000920E104011B0E8C6F050E8D6F49
:1055D0001AEC3EF00501176F185103E1080E186F21
:1055E00002D0090E186F8351E96EEA6AD890E93645
:1055F000EA367F0EE926050EEA22020EEF6E0C0156
:10560000366BB0EF34F032CCE9FF33CCEAFFE90679
:10561000000EEA5A1A0EE926050EEA22EF502F086C
:1056200009E000011B0ECF6F050ED06FD8EC49F0DA
:105630000501146FFF0E0501145D4CE132CCE9FF4A
:1056400033CCEAFFE906000EEA5A1A0EE926050EE7
:10565000EA22EF502F080EE00C0132CCE9FF33CCE8
:10566000EAFF322B000E33231A0EE926050EEA223A
:105670002F0EEF6E490EE66EBE0EE66E000EE66E63
:105680001A0E0C013225006E050E3321016E00C08A
:10569000E6FF01C0E6FF5AECB4F0026E050EE15ED3
:1056A0000250490EE66EBE0EE66E000EE66E81EC0E
:1056B000B4F0E552E552E5521F500C01322720505C
:1056C000332300011B0ECF6F050ED06FD8EC49F0CD
:1056D0000501146F1A0E0C013225376F050E3321A8
:1056E000386F010E375F000E385B1A0E371902E172
:1056F000050E38190CE037CCE9FF38CCEAFFEF5043
:105700002E0801E104D03707000E385BEED7372BA7
:10571000000E38230501196B0B0EE76E1919E8AE60
:1057200002D0E73402D0E750195D42E2670E006E06
:105730008B0E016E010E026E19C503F0046A056A34
:1057400003AE02D004680568030E246E256A266A3B
:1057500003C01FF004C020F005C021F0CBECC1F065
:105760001CC003F01DC004F01EC005F0005003244F
:10577000F36E01500420F46E02500520F86EF4CF51
:10578000F7FFF3CFF6FF0900F5CFA4F60900F5CF38
:10579000A5F60800F5CFA6F637CCA2F638CCA3F6CE
:1057A000BBEC78F0000901E103D00501192BB4D757
:1057B00004011B0E8C6F050E8D6F1AEC3EF0050177
:1057C000176FFF0E145D18E014C5F2F08AEC52F06A
:1057D000F350020B11E014C5FDF0B8EC54F0F3CF18
:1057E000D4F0F4CFD5F0010E0001D427000ED5235C
:1057F0006AEC4CF00501156F0201A66B0201A46B67
:10580000A56B0201A26BA36B0201200EA16F050123
:105810008351E96EEA6AD890E936EA367F0EE926C6
:10582000050EEA22EE52EFCFA0F283EC0DF0F3CF9B
:1058300030FCF4CF31FC0C01305131115BE005013B
:10584000010E166F0201340E796F0C0E7A6F05018E
:105850008351E96EEA6AD890E936EA367F0EE92686
:10586000050EEA22EE52EFCF78F2DEEC07F00C01E3
:105870003007000E315B620E305D000E315913E3CC
:105880000501050E186F8351E96EEA6AD890E93672
:10589000EA367F0EE926050EEA22070EEF6E0C01AE
:1058A000366BB0EF34F030CC7EF231CC7FF20201B7
:1058B0001A0E7C6F050E7D6F05018351E96EEA6A51
:1058C000D890E936EA367F0EE926050EEA22EE5236
:1058D000EFCF7BF234EC08F0F35005011027F450C1
:1058E000112310C5E9FF11C5EAFF102B000E11238B
:1058F000260EEF6E0201A66B0201A46BA56B0201DE
:10590000A26BA36B02010A0EA16F05018351E96E20
:10591000EA6AD890E936EA367F0EE926050EEA22D1
:10592000EE52EFCFA0F283EC0DF0F3CF30FCF4CFCA
:1059300031FC010E0C01302502017E6F000E0C01BE
:10594000312102017F6F02017C6B7D6B0501835168
:10595000E96EEA6AD890E936EA367F0EE926050E46
:10596000EA22EE52EFCF7BF234EC08F005018351CE
:10597000E96EEA6AD890E936EA367F0EE926050E26
:10598000EA22020EEF6E0201A66B0201A46BA56B68
:105990000201A26BA36B02010A0EA16F05018351E4
:1059A000E96EEA6AD890E936EA367F0EE926050EF6
:1059B000EA22EE52EFCFA0F283EC0DF0F3CF30FCF1
:1059C000F4CF31FC0C01301D01E1311D64E1050112
:1059D0008351E96EEA6AD890E936EA367F0EE92605
:1059E000050EEA22EE52EFCF80F2E7EC08F0F3CF9B
:1059F00000F0F4CF01F00050011011E10501050E97
:105A0000186F8351E96EEA6AD890E936EA367F0E5C
:105A1000E926050EEA22070EEF6E0C01366BEFEC5D
:105A2000C2F0050108511E5C006E09511F58016E3D
:105A30000A512058026E0B512158036E0334000E98
:105A4000031809E6D880000E0054000E0154000E21
:105A50000254000E03541EE28351E96EEA6AD890A4
:105A6000E936EA367F0EE926050EEA22EE52EFCF3E
:105A700050F2C3EC03F005018351E96EEA6AD89055
:105A8000E936EA367F0EE926050EEA220B0EEF6EA6
:105A90000C01366B44D1EFECC2F01EC008F51FC0FC
:105AA00009F520C00AF521C00BF58B0E050108276A
